:020000040000FA
:100000000C9411010C943B010C943B010C943B01AA
:100010000C943B010C943B010C943B010C943B0170
:100020000C943B010C943B010C943B010C943B0160
:100030000C943B010C9472020C943B010C943B0118
:100040000C943B010C943B010C94723D0C943B01CD
:100050000C94BD380C94F3380C943B010C943B0188
:100060000C943B010C943B010C94931D0C943B01AC
:100070000C9454390C948A390C943B010C943B0138
:100080000C943B010C943B010C943B0100407A1012
:10009000F35A00A0724E18090010A5D4E80000E839
:1000A0007648170000E40B54020000CA9A3B000097
:1000B00000E1F505000080969800000040420F0026
:1000C0000000A08601000000102700000000E803E7
:1000D000000000006400000000000A0000000000B2
:1000E0000100000000002C76D888DC674F0823DF71
:1000F000C1DFAE59E1B1B796E5E3E453C63AE65144
:10010000997696E8E6C28426EB898C9B62ED407C6A
:100110006FFCEFBC9C9F40F2BAA56FA5F490055A06
:100120002AF75C936B6CF9676DC11BFCE0E40D472B
:10013000FEF520E6B500D0ED902E0300943577054E
:100140000080841E080000204E0A000000C80C3306
:100150003333330F986E12831141EF8D2114893B95
:10016000E65516CFFEE6DB18D1844B381BF77C1D15
:10017000901DA4BBE424203284725E228100C9F168
:1001800024ECA1E53D277C3C3E5E2B3D3F2F5B5D93
:100190003B2C2A225C000000000203000A0B000036
:1001A0000000050409080000000000000000000035
:1001B000000000000000010204081020408001023D
:1001C0000408102040800102040810204080010231
:1001D000040810204080020202020202020204040B
:1001E00004040404040403030303030303030101DD
:1001F0000101010101010000200023002600290067
:1002000000002200250028002B000000210024000F
:1002100027002A008702A81CAC22C6252739BE3930
:100220009F0211241FBECFEFD0E4DEBFCDBF13E08D
:10023000A0E0B1E0E4E2FDE800E00BBF02C00790FF
:100240000D92A239B107D9F72DE0A2E9B3E001C0C0
:100250001D92A43FB207E1F711E0C0E1D1E004C074
:100260002197FE010E943B41CA30D107C9F70E9485
:10027000633D0C9485460C940000DC01ED91FC91EB
:100280000190F081E02D09940CB405FC0DC09EBDD9
:1002900000000DB407FEFDCF9EB58EBD00000DB46D
:1002A00007FEFDCF8EB508958EBD00000DB407FE8C
:1002B000FDCF8EB59EBD00000DB407FEFDCF9EB5EF
:1002C0000895982F92959F708F702AE0929F800DCD
:1002D000112408952F923F924F925F926F927F92D6
:1002E0008F929F92AF92BF92CF92DF92EF92FF9246
:1002F0000F931F93CF93DF93CDB7DEB760970FB601
:10030000F894DEBF0FBECDBF1B012C013A0149019D
:100310001E870D87F88AEF861CE3E12EF12C00E0A2
:1003200010E0C201A80197010E941941D5016C9308
:10033000CA01B901A80197010E941941F601608321
:10034000C201B10120E13EE040E050E00E941941CD
:10035000CA01B90128E130E040E050E00E941941B3
:10036000AF85B8896C93C201B10120E831E541E065
:1003700050E00E94194182EB97E0F3019183808362
:10038000E0E9F1E094E6C92ED12CD3010D911C9146
:100390007801B3E0EB22FF24E114F10431F4C80149
:1003A000B6010E940541892B99F4C801BF010E9442
:1003B0000541892B69F08DE691E02817390758F03F
:1003C000281B390B0F5F1F4FD3010D931C93DDCFFB
:1003D0008EE691E0F2CF8CE0ECE0F1E0DE011196E8
:1003E00001900D928A95E1F7EF2839F4C80164E68F
:1003F00070E00E940541892B39F4C80160E971E081
:100400000E940541892B11F48DE18A8381E0F4017A
:100410008083D4018C91FE01E80FF11D408150E0F2
:100420002417350728F0241B350B8F5F8C93F1CFF1
:100430002F5FED85FE85208360960FB6F894DEBFB2
:100440000FBECDBFDF91CF911F910F91FF90EF9025
:10045000DF90CF90BF90AF909F908F907F906F90E4
:100460005F904F903F902F900895CF93DF93C8EC0B
:10047000D0E08AEF90E00E94263E61E08FE00E948B
:100480009B3E61E08FE00E94D73E8AEF90E00E94A1
:10049000263E61E08FE00E949B3E60E08FE00E947C
:1004A000D73E219731F7C8ECD0E084EB90E00E9472
:1004B000263E61E08FE00E949B3E61E08FE00E945B
:1004C000D73E84EB90E00E94263E61E08FE00E94E0
:1004D0009B3E60E08FE00E94D73E219731F7DF918D
:1004E000CF9108951F920F920FB60F9211248F9300
:1004F000809194038F5F80939403109285001092F3
:1005000084008F910F900FBE0F901F90189562E29C
:1005100071E08BEA99E00E946D3B63E571E085EA4A
:1005200099E00E946D3B6DE871E08FE999E00E94CF
:100530006D3B6DE871E085E999E00C946D3B85E9D0
:1005400099E00E94FB3A8FE999E00E94FB3A85EA24
:1005500099E00E94FB3A8BEA99E00C94FB3ACF9326
:10056000DF9361E570E081EB99E00E94271C70E069
:1005700060E081EB99E00E943D0181EB99E00E94EF
:10058000A51C46E061E581EB99E00E949F1C81EB90
:1005900099E00E949A1B0E94610180939D0381EB68
:1005A00099E00E949A1B8F770E946101D82F81EBFE
:1005B00099E00E949A1B8F770E946101C82F81EBFE
:1005C00099E00E949A1B0E94610190E0B0E0A0E0D7
:1005D00080939E0390939F03A093A003B093A103E5
:1005E00081EB99E00E949A1B0E94610124E6829FA0
:1005F000C0011124092E000CAA0BBB0B40919E03D5
:1006000050919F036091A0037091A103840F951FE7
:10061000A61FB71F80939E0390939F03A093A003F0
:10062000B093A10381EB99E00E949A1B0E946101A3
:1006300040E157E2849F9001859F300D1124032EE5
:10064000000C440B550B80919E0390919F03A09149
:10065000A003B091A103280F391F4A1F5B1FA0E11F
:10066000BEE00E945341AB01BC012CE3C29FC0011C
:100670001124092E000CAA0BBB0B8D0F911DA11D7F
:10068000B11D840F951FA61FB71F80939E039093E3
:100690009F03A093A003B093A103DF91CF9108958E
:1006A000CF93DF93CDB7DEB7C459D1090FB6F89415
:1006B000DEBF0FBECDBF88E19FE00FB6F894A895CE
:1006C000809360000FBE9093600061E083E10E9420
:1006D000D73E60E082E10E94D73E61E082E00E9466
:1006E0009B3E61E082E00E94D73E61E084E10E948F
:1006F0009B3E61E084E10E94D73E6DE871E0CE014F
:1007000081579F4F0E946D3B0E94AF0264E671E0EB
:10071000CE0181579F4F0E94003D60919B097091CF
:100720009C094AE0CE0101960E94E53BBE016F5F45
:100730007F4FCE0181579F4F0E94F93CCE01019619
:100740000E94FB3A66ED72E0CE0181579F4F0E94F6
:10075000003D40919E0350919F036091A0037091D2
:10076000A1032AE0CE0101960E94113CBE016F5FF9
:100770007F4FCE0181579F4F0E94F93CCE010196D9
:100780000E94FB3A65EF71E0CE0181579F4F0E94B6
:10079000003D4AE060919D03CE0101960E948C3B92
:1007A000BE016F5F7F4FCE0181579F4F0E94F93C82
:1007B000CE0101960E94FB3A66ED72E0CE018157B0
:1007C0009F4F0E94003D41EB59E064E4CE01885AFE
:1007D0009F4F0E945E32CE01885A9F4F0E949532F1
:1007E00061E0CE01885A9F4F0E941833E1966EADAA
:1007F0007FADE19790E080E00E94D63F2FEA30E0A5
:100800004FE25BE30E94884020E030E044E352E4A2
:100810000E942E3FAB01BC0121E0CE0101960E9457
:100820006D3CBE016F5F7F4FCE0181579F4F0E948D
:10083000F93CCE0101960E94FB3A66ED72E0CE01D2
:1008400001960E946D3BBE016F5F7F4FCE018157C5
:100850009F4F0E94F93CCE0101960E94FB3AAF9651
:100860006EAD7FADAF9790E080E00E94D63F28EC60
:1008700030E048EC5AE30E948840AB01BC0121E023
:10088000CE0101960E946D3CBE016F5F7F4FCE018D
:1008900081579F4F0E94F93CCE0101960E94FB3A7E
:1008A00066ED72E0CE0101960E946D3BBE016F5F66
:1008B0007F4FCE0181579F4F0E94F93CCE01019698
:1008C0000E94FB3A41EB59E065E4CE01CC960E94D0
:1008D0005E32CE01CC960E94953261E0CE01CC967C
:1008E0000E94183365966EAD7FAD659790E080E00D
:1008F0000E94D63F2FEA30E04FE25BE30E9488403F
:1009000020E030E044E352E40E942E3FAB01BC0102
:1009100021E0CE0101960E946D3CBE016F5F7F4FCA
:10092000CE0181579F4F0E94F93CCE0101960E9453
:10093000FB3A66ED72E0CE0101960E946D3BBE016E
:100940006F5F7F4FCE0181579F4F0E94F93CCE01D0
:1009500001960E94FB3A63966EAD7FAD639790E07F
:1009600080E00E94D63F28EC30E048EC5AE30E9439
:100970008840AB01BC0121E0CE0101960E946D3C94
:10098000BE016F5F7F4FCE0181579F4F0E94F93CA0
:10099000CE0101960E94FB3A66ED72E0CE0101960F
:1009A0000E946D3BBE016F5F7F4FCE0181579F4F0D
:1009B0000E94F93CCE0101960E94FB3A41EB59E0BE
:1009C00067E7CE0101960E944433CE0101960E9452
:1009D0006E376A81CE0101960E940235CE010196E2
:1009E0000E947E33AB01BC0122E0CE018C589F4FA8
:1009F0000E946D3CBE016C587F4FCE0181579F4FC6
:100A00000E94F93CCE018C589F4F0E94FB3A66ED44
:100A100072E0CE018C589F4F0E946D3BBE016C5816
:100A20007F4FCE0181579F4F0E94F93CCE018C58D9
:100A30009F4F0E94FB3ACE0101960E94B533AB0155
:100A4000BC0122E0CE018C589F4F0E946D3CBE013C
:100A50006C587F4FCE0181579F4F0E94F93CCE01C9
:100A60008C589F4F0E94FB3A61E084E10E949B3EBC
:100A700060E084E10E94D73E61E082E00E949B3EFC
:100A800060E082E00E94D73E0FB6F894A89580916E
:100A90006000886180936000109260000FBEBE010C
:100AA00061577F4F89E49DE00E94483A8091070199
:100AB000882371F164E083E59AE00E94F6206AE6FB
:100AC00071E0882309F443C040919F095091A00927
:100AD00023E163E57AE0CE018C589F4F0E941622F5
:100AE000CE018C589F4F0E94EA1F882371F1BE01EE
:100AF00061577F4FCE018C589F4F0E94483ACE01DC
:100B00008C589F4F0E94D81F61E084E00E94D73E1E
:100B100061E082E10E94D73E60E083E10E94D73E1F
:100B200061E070E080E090E00E94ED3DCE018157F1
:100B30009F4F0E94FB3ACC56DF4F0FB6F894DEBFB2
:100B40000FBECDBFDF91CF91089569E771E089E4D1
:100B50009DE00E945A3A10920701D6CF4F925F92C1
:100B60006F927F92AF92BF92CF92DF92EF92FF92FD
:100B70000F931F93CF93DF93CDB7DEB7AD970FB62B
:100B8000F894DEBF0FBECDBF61E083E10E94D73E87
:100B900060E082E10E94D73E0E94AF026DE871E002
:100BA000CE0188960E946D3B63E871E0CE01889685
:100BB0000E94003D60919B0970919C094AE0CE0122
:100BC00001960E94E53BBE016F5F7F4FCE01889684
:100BD0000E94F93CCE0101960E94FB3A66ED72E05C
:100BE000CE0188960E94003D60912F0770913007DA
:100BF0004AE0CE0101960E94E53BBE016F5F7F4F48
:100C0000CE0188960E94F93CCE0101960E94FB3AE3
:100C10008DEAE82E83E0F82E94E0C92E96E0D92ED6
:100C200021E3A22E27E0B22E01E010E08091A9037B
:100C30009091AA030817190708F051C00C3221E05F
:100C4000120709F44CC0F60181916F01F501419042
:100C500051905F01712C612C882331F0F7E94F0E20
:100C6000F8E95F1E611C711C6BE871E0CE0188968B
:100C70000E94003D6EE871E0CE0188960E94003D22
:100C80002AE0B301A201CE0101960E94113CBE01EF
:100C90006F5F7F4FCE0188960E94F93CCE0101968E
:100CA0000E94FB3A66ED72E0CE0188960E94003DFC
:100CB000F701619171917F014AE0CE0101960E9496
:100CC000E53BBE016F5F7F4FCE0188960E94F93CE5
:100CD000CE0101960E94FB3A0F5F1F4FA7CF62E93A
:100CE00071E0CE0188960E94003D60919B09709151
:100CF0009C094AE0CE0101960E94E53BBE016F5F70
:100D00007F4FCE0188960E94F93CCE0101960E9449
:100D1000FB3A66ED72E0CE0188960E94003D40915C
:100D20009E0350919F036091A0037091A1032AE05C
:100D3000CE0101960E94113CBE016F5F7F4FCE0134
:100D400088960E94F93CCE0101960E94FB3A65EF1D
:100D500071E0CE0188960E94003D4AE060919D03BB
:100D6000CE0101960E948C3BBE016F5F7F4FCE018A
:100D700088960E94F93CCE0101960E94FB3A66EDEE
:100D800072E0CE0188960E94003D809194006091AF
:100D90009500762F682F4AE0CE0101960E94E53B30
:100DA000BE016F5F7F4FCE0188960E94F93CCE0155
:100DB00001960E94FB3A66ED72E0CE0188960E9491
:100DC000003D6091A9037091AA03615071094AE046
:100DD000CE0101960E94E53BBE016F5F7F4FCE01C1
:100DE00088960E94F93CCE0101960E94FB3A07E8E2
:100DF00019E066ED72E0CE0188960E94003DF80190
:100E0000619171918F014AE0CE0101960E94E53B0C
:100E1000BE016F5F7F4FCE0188960E94F93CCE01E4
:100E200001960E94FB3AF9E00F381F0711F7BE0147
:100E3000685D7F4F89E49DE00E94483A80910701F8
:100E400061E0882309F4C3C08EE00E94D73E64E0CD
:100E500083E59AE00E94F6206AE671E0882309F4AF
:100E6000AFC040919F095091A00923E163E57AE06A
:100E7000CE0101960E941622CE0101960E94EA1F21
:100E8000882309F49BC0BE01685D7F4FCE010196A7
:100E90000E94483ACE0101960E94D81F61E084E08A
:100EA0000E94D73E60E08EE00E94D73E60E08DE079
:100EB0000E94D73E80919B0990919C09893F9A425C
:100EC00008F455C010929C0910929B0960919D09ED
:100ED00070919E096F5F7F4F70939E0960939D098B
:100EE0004AE0CE014C960E94E53BBE01645E7F4F16
:100EF000CE0101960E94553C6BE971E0CE0101964E
:100F00000E94353DBC018FE999E00E943E3CCE0134
:100F100001960E94FB3ACE014C960E94FB3A8091CA
:100F20008F099091900901969093900980938F0971
:100F300060EA71E089E49DE00E94353A6FE979E06A
:100F400089E49DE00E94483A80910701882379F066
:100F500064E083E59AE00E94F62081116DC06AE6A4
:100F600071E089E49DE00E945A3A1092070161E025
:100F700082E10E94D73E60E083E10E94D73E61E0BB
:100F800070E080E090E00E94ED3DCE0188960E94E6
:100F9000FB3AAD960FB6F894DEBF0FBECDBFDF9122
:100FA000CF911F910F91FF90EF90DF90CF90BF9066
:100FB000AF907F906F905F904F90089569E771E0D8
:100FC00089E49DE00E945A3A1092070167CF8DE0B4
:100FD0000E94D73ECCA4DDA410E000E0FF24FA94E8
:100FE0008DE10E94053F892B19F0FA94F110F8CF9A
:100FF00082E390E00E94263E78012FEFE21AF20A87
:10100000B801CE0188960E944F3DFC0160818CEAB8
:101010009CE00E943D3ACE14DF0460F48CEA9CE030
:101020000E94443ABE01685D7F4F89E49DE00E94C2
:10103000483A38CF8701D2CF40919F095091A009FB
:1010400023E163E57AE0CE0101960E941622CE01EB
:1010500001960E94EA1F882309F452C065E979E0ED
:10106000CE0182960E94553C6BEA71E0CE018296D9
:101070000E94003D60918F09709190094AE0CE0175
:101080004C960E94E53BBE01645E7F4FCE01829686
:101090000E94F93CCE014C960E94FB3A66ED72E04C
:1010A000CE0182960E94003D409191095091920993
:1010B00060919309709194092AE0CE014C960E94A8
:1010C000113CBE01645E7F4FCE0182960E94F93CC6
:1010D000CE014C960E94FB3ABE016E5D7F4FCE0161
:1010E00001960E94483ACE0101960E94D81FCE0177
:1010F00082960E94FB3A61E084E00E94D73E37CF9F
:1011000069E771E089E49DE00E945A3A1092070174
:10111000F2CF0F931F93CF93DF93C82F65E570E055
:1011200081EB99E00E94271C0C2E000CDD0BBE0108
:1011300081EB99E00E943D0181EB99E00E94A51CA2
:1011400041E050E065E570E081EB99E00E94A21C6F
:1011500081EB99E00E949A1B8C0165E570E081EBC0
:1011600099E00E94271CBE016F5F7F4F81EB99E0E1
:101170000E943D0181EB99E00E94A51C41E050E0F6
:1011800065E570E081EB99E00E94A21C81EB99E09B
:101190000E949A1B20E0382FC901800F911FDF9118
:1011A000CF911F910F910895CF93DF93CDB7DEB705
:1011B000A1970FB6F894DEBF0FBECDBF61E083E10B
:1011C0000E94D73E60E082E10E94D73E6DE871E068
:1011D000CE014C960E946D3B0E94AF0264EB71E021
:1011E000CE014C960E94003D60919B0970919C0934
:1011F0004AE0CE0101960E94E53BBE016F5F7F4F42
:10120000CE014C960E94F93CCE0101960E94FB3A19
:1012100066ED72E0CE014C960E94003D40919E0327
:1012200050919F036091A0037091A1032AE0CE0129
:1012300001960E94113CBE016F5F7F4FCE014C961C
:101240000E94F93CCE0101960E94FB3A65EF71E0E5
:10125000CE014C960E94003D4AE060919D03CE0174
:1012600001960E948C3BBE016F5F7F4FCE014C9672
:101270000E94F93CCE0101960E94FB3A66ED72E0B5
:10128000CE014C960E94003D88E00E9489084AE009
:10129000BC01CE0101960E94B93BBE016F5F7F4F3A
:1012A000CE014C960E94F93CCE0101960E94FB3A79
:1012B00066ED72E0CE014C960E94003D8AE00E94ED
:1012C00089084AE0BC01CE0101960E94B93BBE01EB
:1012D0006F5F7F4FCE014C960E94F93CCE01019684
:1012E0000E94FB3A66ED72E0CE014C960E94003DF2
:1012F00084E00E9489084AE0BC01CE0101960E9468
:10130000B93BBE016F5F7F4FCE014C960E94F93C06
:10131000CE0101960E94FB3A66ED72E0CE014C963A
:101320000E94003D86E00E9489084AE0BC01CE018F
:1013300001960E94B93BBE016F5F7F4FCE014C9674
:101340000E94F93CCE0101960E94FB3A66ED72E0E4
:10135000CE014C960E94003D8CE00E948908BC01A1
:10136000990F880B990B0E94D83F2DEC3CEC4CEC6C
:101370005DE30E94884023E333E948E853E40E9498
:101380002E3FAB01BC0122E0CE0101960E949D3CA4
:10139000BE016F5F7F4FCE014C960E94F93CCE019B
:1013A00001960E94FB3ABE01645E7F4F89E49DE096
:1013B0000E94483A80910701882349F164E083E55F
:1013C0009AE00E94F6206AE671E08823E9F14091F4
:1013D0009F095091A00923E163E57AE0CE010196CF
:1013E0000E941622CE0101960E94EA1F882351F125
:1013F000BE01645E7F4FCE0101960E94483ACE0145
:1014000001960E94D81F61E084E00E94D73E61E00F
:1014100082E10E94D73E60E083E10E94D73E61E016
:1014200070E080E090E00E94ED3DCE014C960E947D
:10143000FB3AA1960FB6F894DEBF0FBECDBFDF9189
:10144000CF91089569E771E089E49DE00E945A3ADE
:1014500010920701D8CF1092880910928709109234
:101460008A091092890910928C0910928B091092A6
:101470008E0910928D0981E090E09093AA038093E9
:10148000A90361E087E10E94D73E60E086E10E9407
:10149000D73E90E080E00E94440161E086E10E9436
:1014A000D73E109285001092840090919400809114
:1014B00095008927982789279093300780932F07D5
:1014C00010929403109293031092920310E208E199
:1014D000B9E2FB2EC1E0D0E018993EC1809194039F
:1014E0008230D0F38EE10E94053F892B29F5A8ECCC
:1014F000CA2ED12C86E990E00E94263E61E08FE062
:101500000E949B3E61E08FE00E94D73E86E990E01A
:101510000E94263E61E08FE00E949B3E60E08FE0EB
:101520000E94D73E41E0C41AD10821F78091A4035C
:1015300091E089278093A4031092940380919303F0
:101540008F5F80939303809192038F5F80939203C8
:101550008BE10E94053F682F8DE00E94D73E8BE112
:101560000E94053F892B09F48DC061E570E081EB95
:1015700099E00E94271C67E281EB99E00E94BD1B65
:1015800060E081EB99E00E94BD1B65E970E081EBB2
:1015900099E00E943D0181EB99E00E94A51C68EB57
:1015A0007BE080E090E00E94ED3DC8ECD0E08AEF67
:1015B00090E00E94263E61E08FE00E949B3E61E049
:1015C0008FE00E94D73E8AEF90E00E94263E61E0C5
:1015D0008FE00E949B3E60E08FE00E94D73E219703
:1015E00031F761E570E081EB99E00E94271C67E22A
:1015F00081EB99E00E94BD1B63E081EB99E00E94C2
:10160000BD1B65E970E081EB99E00E943D0181EB33
:1016100099E00E94A51C6AE670E081EB99E00E94C7
:10162000271C68E181EB99E00E94BD1B6AE081EB19
:1016300099E00E94BD1B81EB99E00E94A51C68E81F
:1016400073E180E090E00E94ED3DC8ECD0E08AEFCD
:1016500090E00E94263E61E08FE00E949B3E61E0A8
:101660008FE00E94D73E8AEF90E00E94263E61E024
:101670008FE00E949B3E60E08FE00E94D73E219762
:1016800031F7DDCF61E086E10E94D73E60E087E17F
:101690000E94D73E0FB6F894A895009360000FBE45
:1016A000F09260000E94AE0510928809109287099E
:1016B00010928A091092890910928C0910928B0954
:1016C00010928E0910928D09D093AA03C093A9039A
:1016D000809192038E3120F0109292030E94500369
:1016E00080919303843B20F0109293030E94D408CE
:1016F00061E087E10E94D73E60E086E10E94D73E2C
:1017000090E080E00E94440161E086E10E94D73EC3
:101710000FB6F894A895809160008861809360006E
:10172000109260000FBE80919B0990919C090196D8
:1017300090939C0980939B091092850010928400DD
:1017400090919400809195008927982789279093FC
:10175000300780932F07C0CE60E086E10E94D73E1D
:1017600090E080E00E9444012091A403222361F1D3
:101770008430910560F12BB121272BB92091A90369
:101780003091AA032C32E1E03E07B8F46091840066
:1017900070918500A901440F551FFA01E15DF84FD2
:1017A0007183608360919403F901ED5FF94F608369
:1017B00045555C4FFA01918380832F5F3F4F3093F3
:1017C000AA032093A9030DC084309105B8F6880FB1
:1017D000991FFC01E957F64F808191810196918311
:1017E000808361E086E10E94D73E76CE0F931F93FF
:1017F000CF93DF93CDB7DEB7A1970FB6F894DEBFD6
:101800000FBECDBF082F162F61E570E081EB99E088
:101810000E94271C63E281EB99E00E94BD1B60E0FF
:1018200081EB99E00E94BD1B60E081EB99E00E9492
:10183000BD1B65E081EB99E00E94BD1B60E081EB80
:1018400099E00E94BD1B60E081EB99E00E94BD1B06
:1018500067E981EB99E00E94BD1B60E081EB99E0B4
:101860000E94BD1B60E081EB99E00E94BD1B81EBF3
:1018700099E00E94A51C61E570E081EB99E00E946F
:10188000271C6FE270E081EB99E00E943D016CE261
:1018900070E081EB99E00E943D0181EB99E00E94AC
:1018A000A51C61E570E081EB99E00E94271C68E2CD
:1018B00070E081EB99E00E943D0167E970E081EB07
:1018C00099E00E943D0181EB99E00E94A51C61E531
:1018D00070E081EB99E00E94271C60E081EB99E0C9
:1018E0000E94BD1B60E081EB99E00E94BD1B60E09F
:1018F00081EB99E00E94BD1B60E081EB99E00E94C2
:10190000BD1B60E081EB99E00E94BD1B60E081EBB4
:1019100099E00E94BD1B60E081EB99E00E94BD1B35
:1019200081EB99E00E94A51C0E94AF026BEB71E075
:10193000CE014C960E946D3B40919E0350919F03B7
:101940006091A0037091A1032AE0CE0101960E944C
:10195000113CBE016F5F7F4FCE014C960E94F93C57
:10196000CE0101960E94FB3A65EF71E0CE014C96E4
:101970000E94003D4AE060919D03CE0101960E94C5
:101980008C3BBE016F5F7F4FCE014C960E94F93CAD
:10199000CE0101960E94FB3A64EC71E0CE014C96B8
:1019A0000E94003D003130F463ED71E0CE014C96B1
:1019B0000E94003D40E1602FCE0101960E948C3BC9
:1019C000BE016F5F7F4FCE014C960E94F93CCE0165
:1019D00001960E94FB3A65ED71E0CE014C960E94A3
:1019E000003D103130F463ED71E0CE014C960E9461
:1019F000003D40E1612FCE0101960E948C3BBE016B
:101A00006F5F7F4FCE014C960E94F93CCE0101964C
:101A10000E94FB3ABE01645E7F4F89E49DE00E9414
:101A2000483A80910701882319F164E083E59AE040
:101A30000E94F6208823E1F040919F095091A0096F
:101A400023E163E57AE0CE0101960E941622CE01E1
:101A500001960E94EA1F882359F0BE01645E7F4F01
:101A6000CE0101960E94483ACE0101960E94D81FED
:101A7000CE014C960E94FB3AA1960FB6F894DEBFB9
:101A80000FBECDBFDF91CF911F910F910895CF93DE
:101A9000DF93D82FC62F6AE670E081EB99E00E94B1
:101AA000271C6D2F81EB99E00E94BD1B6C2F81EBF1
:101AB00099E00E94BD1B81EB99E0DF91CF910C94DE
:101AC000A51CCF93C82F6AE670E081EB99E00E94D5
:101AD000271C62E081EB99E00E94BD1B60E671E08B
:101AE00081EB99E00E943D0181EB99E00E94A51CE9
:101AF0006AE670E081EB99E00E94271C64E181EBCB
:101B000099E00E94BD1B66E281EB99E0CC2309F4C9
:101B100048C00E94BD1B69E181EB99E00E94BD1B9A
:101B200060EA81EB99E00E94BD1B66E581EB99E0DC
:101B30000E94BD1B60E081EB99E00E94BD1B61E04B
:101B400081EB99E00E94BD1B81EB99E00E94A51CEE
:101B50006AE670E081EB99E00E94271C6AE181EB64
:101B600099E00E94BD1B6FEB81EB99E00E94BD1BC9
:101B700081EB99E00E94A51C6AE670E081EB99E098
:101B80000E94271C66E281EB99E00E94BD1B6CE875
:101B900081EB99E00E94BD1B81EB99E0CF910C9401
:101BA000A51C0E94BD1B69E981EB99E00E94BD1B49
:101BB00060E0B7CFCF93C82F61E570E081EB99E08B
:101BC0000E94271C6C2F81EB99E00E94BD1B81EBCA
:101BD00099E00E94A51C41E061E581EB99E00E943B
:101BE0009F1C81EB99E00E94931B892B31F081EBC4
:101BF00099E00E949A1BCF9108958FEFFCCF0F932D
:101C00001F93CF93DF93CDB7DEB7A1970FB6F894AC
:101C1000DEBF0FBECDBF87E00E94DA0D182F88E22D
:101C20000E94DA0D082F807117FD02C081110FC0CC
:101C3000602F812F0E94F60BA1960FB6F894DEBF9D
:101C40000FBECDBFDF91CF911F910F9108950E94DC
:101C5000AF026BEB71E0CE014C960E946D3B409160
:101C60009E0350919F036091A0037091A1032AE00D
:101C7000CE0101960E94113CBE016F5F7F4FCE01E5
:101C80004C960E94F93CCE0101960E94FB3A65EF0A
:101C900071E0CE014C960E94003D4AE060919D03A8
:101CA000CE0101960E948C3BBE016F5F7F4FCE013B
:101CB0004C960E94F93CCE0101960E94FB3A6FEDD2
:101CC00071E0CE014C960E94003D103130F463ED7E
:101CD00071E0CE014C960E94003D40E1612FCE01A3
:101CE00001960E948C3BBE016F5F7F4FCE014C96E8
:101CF0000E94F93CCE0101960E94FB3A65ED71E02D
:101D0000CE014C960E94003D40E1602FCE0101962D
:101D10000E948C3BBE016F5F7F4FCE014C960E94AC
:101D2000F93CCE0101960E94FB3ABE01645E7F4FF2
:101D300089E49DE00E94483A80910701882319F1C7
:101D400064E083E59AE00E94F6208823E1F0409168
:101D50009F095091A00923E163E57AE0CE01019645
:101D60000E941622CE0101960E94EA1F882359F094
:101D7000BE01645E7F4FCE0101960E94483ACE01BB
:101D800001960E94D81FCE014C960E94FB3A54CF78
:101D9000CF93C82F6AE670E081EB99E00E94271C80
:101DA0006C2F81EB99E00E94BD1B60E081EB99E014
:101DB0000E94291C41E06AE681EB99E00E949F1C89
:101DC00081EB99E00E94931B892B31F081EB99E024
:101DD0000E949A1BCF91089580E0FCCFCF93DF93B0
:101DE000C82F6AE670E081EB99E00E94271C6C2FF7
:101DF00081EB99E00E94BD1B60E081EB99E00E94BD
:101E0000291C42E06AE681EB99E00E949F1C81EB6D
:101E100099E00E94931B02978CF081EB99E00E945D
:101E20009A1BEC0181EB99E00E949A1B20E0382F6D
:101E3000C9018C2B9D2BDF91CF91089590E080E01C
:101E4000FACF0F931F93CF93DF938C0186E10E940B
:101E5000C80EC82FD82FDF7D6D2F86E10E94470D59
:101E600062E370E080E090E00E94ED3D6D2F6064E1
:101E700086E10E94470D68EC70E080E090E00E94EF
:101E8000ED3D6C2F6F7986E10E94470D64E170E0B3
:101E900080E090E00E94ED3D87E20E94C80E682F2E
:101EA0006F7E87E20E94470D86E20E94C80E8F7CFB
:101EB000682F626C86E20E94470D62E370E080E06A
:101EC00090E00E94ED3D80E30E94EE0E969587958E
:101ED0009C013F70A7ECB0E00E94444124E630E052
:101EE00040E050E00E941941F8013183208381E0F5
:101EF000283B3B4008F480E0DF91CF911F910F9188
:101F00000895CF92DF92EF92FF920F931F93CF939A
:101F1000DF93D82F7B01682F81EB99E00E941D1C75
:101F200060E081EB99E00E94BD1B60E081EB99E0ED
:101F30000E94BD1B81EB99E00E94A51CC0E085E3D7
:101F4000C82ED12C0C2F10E0A601401B510B4131A3
:101F5000510510F040E150E06D2F81EB99E00E94B7
:101F60009F1C0E0D1F1D81EB99E00E94931B892B76
:101F700059F0C533F8F481EB99E00E949A1BCF5FCA
:101F8000F80181938F01EFCFC533A0F46D2F81EB62
:101F900099E00E941D1C60E081EB99E00E94BD1B4E
:101FA0006C2F81EB99E00E94BD1B81EB99E00E94B0
:101FB000A51CC8CF81E0C53309F080E0DF91CF9147
:101FC0001F910F91FF90EF90DF90CF9008952F9287
:101FD0003F924F925F926F927F928F929F92AF92B9
:101FE000BF92CF92DF92EF92FF920F931F93CF9306
:101FF000DF93CDB7DEB7C75BD1090FB6F894DEBF6C
:102000000FBECDBF26E040E052EC61E070E08CEA0C
:102010009CE00E946B3826E040E052EC61E070E00A
:1020200089E49DE00E946B3840EA56E861E070E088
:1020300081EB99E00E94191C6EEE71E089E49DE04D
:102040000E945A3A60E08BE10E949B3E60E085E18D
:102050000E949B3E60E08DE10E949B3E60E08EE12D
:102060000E949B3E61E086E10E949B3E61E087E129
:102070000E949B3E60E080E00E949B3E61E08FE01A
:102080000E949B3E61E082E10E949B3E61E082E112
:102090000E94D73E61E082E00E949B3E61E082E0C8
:1020A0000E94D73E61E08AE10E949B3E61E08AE1A6
:1020B0000E94D73E61E083E10E949B3E61E083E0A5
:1020C0000E949B3E61E084E00E949B3E60E085E0D0
:1020D0000E949B3E60E086E00E949B3E61E087E0BC
:1020E0000E949B3E61E083E10E94D73E61E084E074
:1020F0000E94D73E60E087E00E94D73E64E670E031
:1021000080E090E00E94ED3D60E083E00E94D73ED9
:1021100061E084E10E949B3E60E084E10E94D73E42
:1021200080E00E94610D64E670E080E090E00E9433
:10213000ED3D82EA93E00E94210F809306010E9408
:10214000610D8BE10E94053F61E0892B09F4DEC13E
:102150008CE00E949B3E61E08DE00E949B3E61E02E
:102160008EE00E949B3E15E060E570E080E090E02C
:102170000E94ED3D61E08CE00E94D73E61E08DE081
:102180000E94D73E61E08EE00E94D73E60E570E09D
:1021900080E090E00E94ED3D60E08CE00E94D73E40
:1021A00060E08DE00E94D73E60E08EE00E94D73E66
:1021B0001150D1F688E19FE00FB6F894A89580936E
:1021C00060000FBE909360006AE670E081EB99E0DA
:1021D0000E94271C6DE270E081EB99E00E943D01B6
:1021E00081EB99E00E94A51C41E06AE681EB99E051
:1021F0000E949F1C81EB99E00E949A1BA89568EEB3
:1022000073E080E090E00E94ED3DA89568EE73E0F9
:1022100080E090E00E94ED3DA89568EE73E080E0DC
:1022200090E00E94ED3DA895912CC12CD12C760117
:1022300001E011E028EE222E23E0322E412C512C19
:102240008824839485E10E94053F3C010E94BC3DA7
:10225000112309F477C09B01AC012C193D094E09EB
:102260005F09203931404105510518F098246B0170
:102270007C01692D8CE00E94D73E60E08DE00E94D9
:10228000D73E60E08EE00E94D73E60E781EB99E0A8
:102290000E941D1C61E081EB99E00E94BD1B81EB57
:1022A00099E00E94A51C41E060E781EB99E00E9463
:1022B0009F1C81EB99E00E94931B892B09F45DC060
:1022C00081EB99E00E949A1B9C0136952795822705
:1022D0008170A895672809F052C0A895A895002399
:1022E00039F1112309F4EBC060E084E10E94D73E8C
:1022F00061E083E00E94D73E0E94350261E770E012
:1023000081EB99E00E94271C60E081EB99E00E943C
:10231000BD1B63E181EB99E00E94BD1B81EB99E05D
:102320000E94A51C68EE73E080E090E00E94ED3D05
:102330008EE10E94053F00E0892B09F083CF18252C
:1023400001E080CFA20191010E941941BB24B39406
:102350006A35710540F0645B7109BB24B3946A353A
:10236000710508F0B12C60E08CE00E94D73E6B2D27
:102370008DE00E94D73E6B2D85CF81E0AACF8111E1
:10238000ACCF6AE670E081EB99E00E94271C6DE219
:1023900070E081EB99E00E943D0181EB99E00E94A1
:1023A000A51C41E06AE681EB99E00E949F1C81EB4D
:1023B00099E00E949A1BA8958F77813108F08ECF03
:1023C0008BE10E94053F682F8DE00E94D73E61E5BA
:1023D00070E081EB99E00E94271C68E270E081EBDD
:1023E00099E00E943D0165E970E081EB99E00E946F
:1023F0003D0181EB99E00E94A51CA89568EE73E071
:1024000080E090E00E94ED3DA89568EE73E080E0EA
:1024100090E00E94ED3DA89568EE73E080E090E0CA
:102420000E94ED3DA89508EC10E08AEF90E00E9434
:10243000263E61E08FE00E949B3E61E08FE00E94BB
:10244000D73E8AEF90E00E94263E61E08FE00E9436
:102450009B3E60E08FE00E94D73E0150110929F7B2
:1024600061E570E081EB99E00E94271C67E281EB57
:1024700099E00E94BD1B63E081EB99E00E94BD1BC7
:1024800065E970E081EB99E00E943D0181EB99E004
:102490000E94A51C6AE670E081EB99E00E94271C6F
:1024A00068E181EB99E00E94BD1B6AE081EB99E055
:1024B0000E94BD1B81EB99E00E94A51CFFCF61E04B
:1024C00084E10E94D73E61E08CE00E949B3E60E088
:1024D0008CE00E94D73E0E94350261E770E081EBFC
:1024E00099E00E94271C60E081EB99E00E94BD1BEF
:1024F00060E181EB99E00E94BD1B81EB99E00E94B5
:10250000A51C60E083E00E94D73E0CCF84E10E94CE
:102510009B3E61E084E10E94D73E15E060E570E0FB
:1025200080E090E00E94ED3D61E08CE00E949B3EE7
:1025300061E08CE00E94D73E60E570E080E090E0D2
:102540000E94ED3D60E08CE00E94D73E115031F7D3
:1025500061E08CE00E94D73E08EC10E084EB90E054
:102560000E94263E61E08FE00E949B3E61E08FE08A
:102570000E94D73E84EB90E00E94263E61E08FE00F
:102580000E949B3E60E08FE00E94D73E01501109FF
:1025900029F7A89567EF71E089E49DE00E945A3A17
:1025A00060E087E10E94D73E61E086E10E94D73E6D
:1025B00061E570E081EB99E00E94271C67E281EB06
:1025C00099E00E94BD1B63E081EB99E00E94BD1B76
:1025D00067E981EB99E00E94BD1B81EB99E00E94C5
:1025E000A51CA89561E570E081EB99E00E94271C8D
:1025F00063E281EB99E00E94BD1B60E081EB99E012
:102600000E94BD1B60E081EB99E00E94BD1B65E06C
:1026100081EB99E00E94BD1B60E081EB99E00E9494
:10262000BD1B63E081EB99E00E94BD1B67E981EB74
:1026300099E00E94BD1B60E081EB99E00E94BD1B08
:1026400060E081EB99E00E94BD1B81EB99E00E9464
:10265000A51C0FB6F894A8958091600088618093BE
:102660006000109260000FBE88E199E20FB6F89406
:10267000A895809360000FBE909360000E94AF0207
:1026800080919E0390919F03A091A003B091A1031C
:102690008093990390939A03A0939B03B0939C0318
:1026A00060E072E089E49DE00E94353A4091990330
:1026B00050919A0360919B0370919C032AE030E053
:1026C00089E49DE00E94E93A4E01F6E38F0E911CE9
:1026D00085E3F40111928A95E9F7B40180E50E943F
:1026E000810F882309F456C667968CAD9DADAEADBB
:1026F000BFAD67978093950390939603A09397033C
:10270000B09398036BE072E089E49DE00E94353A53
:1027100040919503509196036091970370919803AF
:102720002AE030E089E49DE00E94E93A6EE172E03F
:1027300089E49DE00E94353A63964CAD5DAD6EAD87
:102740007FAD63972AE030E089E49DE00E94E93A9A
:1027500061E372E089E49DE00E94353A6B964CADEE
:102760005DAD6EAD7FAD6B972AE030E089E49DE012
:102770000E94E93A6BE472E089E49DE00E94353AF8
:102780008401065F1F4F7401F4E1EF0EF11CF801A4
:1027900061918F01662339F089E49DE00E943D3A02
:1027A000E016F106A1F789E49DE00E94443ABE01DB
:1027B0006F5F7F4F85E3FB0111928A95E9F783E50F
:1027C0000E94810F882309F4F4C56AE672E089E467
:1027D0009DE00E94353A8E01055F1F4F7E01F5E1B5
:1027E000EF0EF11CF80161918F01662339F089E445
:1027F0009DE00E943D3AE016F106A1F789E49DE0D4
:102800000E94443A4090950350909603609097033D
:1028100070909803411451046104710409F4D0C507
:102820008091990390919A03A0919B03B0919C038E
:10283000480E591E6A1E7B1E6B964CAD5DAD6EAD8B
:102840007FAD6B978C019D01041B150B260B370B7D
:10285000CC54DF4F088319832A833B83C45BD04069
:102860009E0121553F4F5901CE0180559F4F6C016C
:10287000FE01EF54FF4F7F018E010E541F4F2C5F5E
:102880003F4FAE0143555F4FC301B2010E946A0141
:1028900060E972E089E49DE00E94353A2AE030E088
:1028A000CC54DF4F488159816A817B81C45BD04021
:1028B00089E49DE00E94E93A6BE972E089E49DE0D9
:1028C0000E94353A2AE030E0B301A20189E49DE09C
:1028D0000E94E93A6FEA72E089E49DE00E94353A8D
:1028E000C355DF4F68817981CD5AD0404AE050E02E
:1028F00089E49DE00E94E33A6EEB72E089E49DE09A
:102900000E94353ACD54DF4F8881C35BD0408A3076
:1029100030F463ED71E089E49DE00E94353A4AE0CD
:1029200050E0CD54DF4F6881C35BD04089E49DE027
:102930000E94CA3A6EEB72E089E49DE00E94353A4B
:10294000CE54DF4F8881C25BD0408A3030F463EDD3
:1029500071E089E49DE00E94353A4AE050E0CE54AF
:10296000DF4F6881C25BD04089E49DE00E94CA3A93
:1029700060EC72E089E49DE00E94353ACF54DF4F6D
:102980008881C15BD0408A3030F463ED71E089E426
:102990009DE00E94353A4AE050E0CF54DF4F688115
:1029A000C15BD04089E49DE00E94CA3A62EC72E0CB
:1029B00089E49DE00E94353AC055DF4F8881C05BB5
:1029C000D0408A3030F463ED71E089E49DE00E94EC
:1029D000353A4AE050E0C055DF4F6881C05BD040D7
:1029E00089E49DE00E94CA3A62EC72E089E49DE0CD
:1029F0000E94353AC155DF4F8881CF5AD0408A3086
:102A000030F463ED71E089E49DE00E94353A4AE0DC
:102A100050E0C155DF4F6881CF5AD04089E49DE036
:102A20000E94D13A8E0105591F4F64EC72E0C80133
:102A30000E946D3B65EA79E0C8010E94223D64ED89
:102A400072E00E94353D6BEA79E00E94223D66ED1E
:102A500072E00E94353D7E01F7EAEF0EF11CBC01E9
:102A6000C7010E94553CC8010E94FB3A6BE570E02B
:102A700081EB99E00E94271C68E070E081EB99E00F
:102A80000E943D0170E060E081EB99E00E943D0111
:102A900081EB99E00E94A51C40E16BE581EB99E098
:102AA0000E949F1C80E1D82E81EB99E00E949A1B26
:102AB000C82E2FE0281728F063ED71E0C7010E94AF
:102AC000003D40E16C2DC8010E948C3BB801C7015C
:102AD0000E94F93CC8010E94FB3ADA94D110E4CF7D
:102AE00068ED72E0C7010E94003D68E570E081EB8F
:102AF00099E00E94271C68E070E081EB99E00E9459
:102B00003D0170E060E081EB99E00E943D0181EBC6
:102B100099E00E94A51C40E168E581EB99E00E94E4
:102B20009F1C10E181EB99E00E949A1B082F8031D5
:102B300038F463ED71E0CE0189559F4F0E94003D4E
:102B400061E082E00E949B3E61E082E00E94D73E0D
:102B500061E08AE10E949B3E61E08AE10E94D73EEB
:102B600040E1602FCE0185599F4F0E948C3BBE01F2
:102B700065597F4FCE0189559F4F0E94F93CCE0188
:102B800085599F4F0E94FB3A115061F666ED72E045
:102B9000CE0189559F4F0E94003D60E570E081EBBA
:102BA00099E00E94271C70E060E081EB99E00E94B0
:102BB0003D0170E060E081EB99E00E943D0181EB16
:102BC00099E00E94A51C42E060E581EB99E00E943B
:102BD0009F1C81EB99E00E949A1B8093A60381EBD6
:102BE00099E00E949A1B8093A50340E16091A6039F
:102BF000CE0185599F4F0E948C3BBE0165597F4F86
:102C0000CE0189559F4F0E94F93CCE0185599F4FB7
:102C10000E94FB3A40E16091A503CE0185599F4F88
:102C20000E948C3BBE0165597F4FCE0189559F4F55
:102C30000E94F93CCE0185599F4F0E94FB3A6EEEEF
:102C400072E0CE0189559F4F0E94003D8401065FCE
:102C50001F4F34E1830E911CF80161918F016623AF
:102C600041F0CE0189559F4F0E940F3D801691067D
:102C700099F76BEF72E0CE0189559F4F0E94003D9E
:102C80006BE570E081EB99E00E94271C68E070E042
:102C900081EB99E00E943D0170E060E081EB99E0FA
:102CA0000E943D0181EB99E00E94A51C40E16BE58B
:102CB00081EB99E00E949F1C10E181EB99E00E945A
:102CC0009A1B082F803138F463ED71E0CE018955ED
:102CD0009F4F0E94003D40E1602FCE0185599F4FDC
:102CE0000E948C3BBE0165597F4FCE0189559F4F95
:102CF0000E94F93CCE0185599F4F0E94FB3A11502A
:102D0000E1F666ED72E0CE0189559F4F0E94003DCD
:102D100063E570E081EB99E00E94271C70E060E0C1
:102D200081EB99E00E943D0170E060E081EB99E069
:102D30000E943D0181EB99E00E94A51C42E063E501
:102D400081EB99E00E949F1C81EB99E00E949A1B05
:102D50008093A80381EB99E00E949A1B8093A703BC
:102D600040E16091A803CE0185599F4F0E948C3BA2
:102D7000BE0165597F4FCE0189559F4F0E94F93C96
:102D8000CE0185599F4F0E94FB3A40E16091A70315
:102D9000CE0185599F4F0E948C3BBE0165597F4FE4
:102DA000CE0189559F4F0E94F93CCE0185599F4F16
:102DB0000E94FB3A6FE073E0CE0189559F4F0E945D
:102DC000003D8E01055F1F4F7E01F5E1EF0EF11C06
:102DD000F80161918F01662341F0CE0189559F4F23
:102DE0000E940F3DE016F10699F76CE173E0CE0109
:102DF00089559F4F0E94003D4EA15FA168A579A50E
:102E000026E0CE0185599F4F0E946D3CBE01655959
:102E10007F4FCE0189559F4F0E94F93CCE018559C5
:102E20009F4F0E94FB3A66ED72E0CE0189559F4F9D
:102E30000E94003D4AA55BA56CA57DA526E0CE01BC
:102E400085599F4F0E946D3CBE0165597F4FCE0151
:102E500089559F4F0E94F93CCE0185599F4F0E9492
:102E6000FB3A66ED72E0CE0189559F4F0E94003D0E
:102E70004EA55FA568A979A926E0CE0185599F4F87
:102E80000E946D3CBE0165597F4FCE0189559F4F11
:102E90000E94F93CCE0185599F4F0E94FB3A66ED96
:102EA00072E0CE0189559F4F0E94003D4AA95BA95F
:102EB0006CA97DA92AE0CE0185599F4F0E94113C43
:102EC000BE0165597F4FCE0189559F4F0E94F93C45
:102ED000CE0185599F4F0E94FB3A66E273E0CE0116
:102EE00089559F4F0E94003D8091060163ED71E07E
:102EF000882311F06CEE71E0CE0189559F4F0E943E
:102F0000003D66ED72E0CE0189559F4F0E94003D65
:102F10006091A2037091A3034AE0CE0185599F4FAF
:102F20000E94E53BBE0165597F4FCE0189559F4FF9
:102F30000E94F93CCE0185599F4F0E94FB3A6FE2F7
:102F400073E0CE0189559F4F0E94003D4091990347
:102F500050919A0360919B0370919C032AE0CE01EB
:102F600085599F4F0E94113CBE0165597F4FCE018C
:102F700089559F4F0E94F93CCE0185599F4F0E9471
:102F8000FB3A66ED72E0CE0189559F4F0E94003DED
:102F90004091950350919603609197037091980327
:102FA0002AE0CE0185599F4F0E94113CBE01655910
:102FB0007F4FCE0189559F4F0E94F93CCE01855924
:102FC0009F4F0E94FB3A66ED72E0CE0189559F4FFC
:102FD0000E94003D2AE0B301A201CE0185599F4F16
:102FE0000E94113CBE0165597F4FCE0189559F4F0C
:102FF0000E94F93CCE0185599F4F0E94FB3A66ED35
:1030000072E0CE0189559F4F0E94003D2AE0CC54CA
:10301000DF4F488159816A817B81C45BD040CE01FA
:1030200085599F4F0E94113CBE0165597F4FCE01CB
:1030300089559F4F0E94F93CCE0185599F4F0E94B0
:10304000FB3A66ED72E0CE0189559F4F0E94003D2C
:10305000C355DF4F68817981CD5AD0404AE0CE0117
:1030600085599F4F0E94E53BBE0165597F4FCE01B8
:1030700089559F4F0E94F93CCE0185599F4F0E9470
:10308000FB3A6EEB72E0CE0189559F4F0E94003DE6
:10309000CD54DF4F8881C35BD0408A3038F463ED74
:1030A00071E0CE0189559F4F0E94003D4AE0CD540A
:1030B000DF4F6881C35BD040CE0185599F4F0E948E
:1030C0008C3BBE0165597F4FCE0189559F4F0E94B1
:1030D000F93CCE0185599F4F0E94FB3A6EEB72E09E
:1030E000CE0189559F4F0E94003DCE54DF4F88810D
:1030F000C25BD0408A3038F463ED71E0CE0189556F
:103100009F4F0E94003D4AE0CE54DF4F6881C25B72
:10311000D040CE0185599F4F0E948C3BBE0165591E
:103120007F4FCE0189559F4F0E94F93CCE018559B2
:103130009F4F0E94FB3A60EC72E0CE0189559F4F91
:103140000E94003DCF54DF4F8881C15BD0408A3060
:1031500038F463ED71E0CE0189559F4F0E94003D28
:103160004AE0CF54DF4F6881C15BD040CE01855922
:103170009F4F0E948C3BBE0165597F4FCE01895500
:103180009F4F0E94F93CCE0185599F4F0E94FB3A08
:1031900062EC72E0CE0189559F4F0E94003DC05500
:1031A000DF4F8881C05BD0408A3038F463ED71E036
:1031B000CE0189559F4F0E94003D4AE0C055DF4F28
:1031C0006881C05BD040CE0185599F4F0E948C3BE7
:1031D000BE0165597F4FCE0189559F4F0E94F93C32
:1031E000CE0185599F4F0E94FB3A62EC72E0CE01FE
:1031F00089559F4F0E94003DC155DF4F8881CF5AAE
:10320000D0408A3038F463ED71E0CE0189559F4F8C
:103210000E94003D4AE0C155DF4F6881CF5AD0403F
:10322000CE0185599F4F0E948C3BBE0165597F4F4F
:10323000CE0189559F4F0E94F93CCE0185599F4F81
:103240000E94FB3ABE0169557F4F85E999E00E94D3
:103250003E3C40929109509292096092930970927B
:1032600094091092900910928F096BEA71E0CE01D7
:1032700089559F4F0E94003D60918F097091900980
:103280004AE0CE0185599F4F0E94E53BBE0165593A
:103290007F4FCE0189559F4F0E94F93CCE01855941
:1032A0009F4F0E94FB3A66ED72E0CE0189559F4F19
:1032B0000E94003D409191095091920960919309BB
:1032C000709194092AE0CE0185599F4F0E94113CCC
:1032D000BE0165597F4FCE0189559F4F0E94F93C31
:1032E000CE0185599F4F0E94FB3A60E082E10E9427
:1032F000D73E64E083E59AE00E94F620811108C081
:103300006AE671E089E49DE00E945A3A1092070152
:1033100081E090E090939E0980939D0960919D09C2
:1033200070919E09683C710508F053C04AE0CE01D7
:103330008A579F4F0E94E53BBE016A577F4FCE01DF
:1033400085599F4F0E94553C6BE971E0CE0185592C
:103350009F4F0E94353DBC018FE999E00E943E3CA1
:10336000CE0185599F4F0E94FB3ACE018A579F4F4D
:103370000E94FB3A60919F097091A00983E59AE051
:103380000E94A122882329F180919D0990919E0994
:103390000196C0CF66E572E089E49DE00E945A3A4A
:1033A000109295031092960310929703109298032F
:1033B000FEC965E772E089E49DE00E945A3A22CA9C
:1033C000CC54DF4F188219821A821B82C45BD04012
:1033D00047CA60919D0970919E094AE0CE018A57C3
:1033E0009F4F0E94E53BBE016A577F4FCE01855932
:1033F0009F4F0E94553C6BE971E0CE0185599F4F6C
:103400000E94353DBC018FE999E00E943E3CCE010F
:1034100085599F4F0E94FB3ACE018A579F4F0E94C9
:10342000FB3A15E060E570E080E090E00E94ED3D41
:1034300061E08DE00E949B3E61E08DE00E94D73EFE
:1034400060E570E080E090E00E94ED3D60E08DE09E
:103450000E94D73E115031F761E08DE00E94D73EC7
:1034600040919F095091A00923E163E57AE0CE01E4
:103470008A579F4F0E941622CE018A579F4F0E9463
:103480009A1F6B017C0168E373E089E49DE00E9470
:10349000353A2AE030E0B701A60189E49DE00E94B8
:1034A000E93AF1E8CF16F3E2DF06F3E4EF06F104C0
:1034B00008F485C0CE018A579F4F0E94D81F6091A3
:1034C0009D0970919E096F5F7F4F70939E09609375
:1034D0009D094AE0CE018F559F4F0E94E53BBE01FA
:1034E0006F557F4FCE0185599F4F0E94553C6BE928
:1034F00071E0CE0185599F4F0E94353DBC018FE997
:1035000099E00E943E3CCE0185599F4F0E94FB3AB4
:10351000CE018F559F4F0E94FB3A40919F095091D9
:10352000A00923E163E57AE0CE0185599F4F0E940F
:103530001622AF968EAD9FADAF97C857DF4F9983D8
:103540008883C858D040E3968CAD9DADAEADBFAD7D
:10355000E397C657DF4F88839983AA83BB83CA58F2
:10356000D040E7968CAD9DADAEADBFADE797C257ED
:10357000DF4F88839983AA83BB83CE58D040ABE6C4
:10358000B0E0AC0FBD1F1C96E6E8F0E0EC0FFD1FAD
:103590003C9686E890E08C0F9D1F49962D912193D3
:1035A000E817F907D9F7CC57DF4F88819981C458BC
:1035B000D040C156DF4F99838883CF59D04060EA0D
:1035C00071E089E49DE00E94353A6FE979E089E491
:1035D0009DE00E94483ACE018A579F4F0E94EA1F01
:1035E000882309F494C0BE0169557F4FCE018A57E4
:1035F0009F4F0E94483ACE018A579F4F0E94D81F82
:10360000BE0169557F4F89E49DE00E94483A0E94BF
:10361000FF0D61E082E10E94D73E61E084E10E94FB
:103620009B3E60E084E10E94D73E15E060E570E0DB
:1036300080E090E00E94ED3D61E08EE00E949B3EC4
:1036400061E08EE00E94D73E60E570E080E090E0AF
:103650000E94ED3D60E08EE00E94D73E115031F7B0
:1036600060E08CE00E94D73E60E08DE00E94D73E93
:1036700061E082E00E949B3E60E082E00E94D73ED3
:103680000FB6F894A89580916000886180936000DF
:10369000109260000FBEF894109280008DE080932D
:1036A000810087E998E990938900809388001092BF
:1036B00085001092840082E080936F001092900049
:1036C00085E0809391001092950010929400789478
:1036D000CE0189559F4F0E94FB3AC954DF4F0FB668
:1036E000F894DEBF0FBECDBFDF91CF911F910F9138
:1036F000FF90EF90DF90CF90BF90AF909F908F9012
:103700007F906F905F904F903F902F90089569E762
:1037100071E089E49DE00E945A3A1092070170CF4F
:1037200090E080E008958091E1099091E209891B81
:10373000990B08959091E2098091E1092FEF3FEFF5
:10374000981748F4E92FF0E0ED51F64F208130E072
:103750009F5F9093E209C9010895E091E209809189
:10376000E109E81730F4F0E0ED51F64F808190E088
:1037700008958FEF9FEF08950895CF93DF931F92E1
:10378000CDB7DEB769832091BD092223F9F02091DE
:10379000BE09203258F021E030E0FC01338322835F
:1037A00090E080E00F90DF91CF9108958091BF0964
:1037B000E82FF0E0E054F64F998190838F5F80937B
:1037C000BF098093BE0981E090E0ECCF61E0CE01BB
:1037D00001960E945C1DF7CFCF92DF92EF92FF928D
:1037E0000F931F93CF93DF937C01CB018A0120912C
:1037F000BD09222389F0EB016B01C40ED51ECC1547
:10380000DD0569F06991D701ED91FC910190F0819E
:10381000E02DC7010995F3CF642F0E945C1DC801FC
:10382000DF91CF911F910F91FF90EF90DF90CF909C
:103830000895CB01BA010C94B91C81E08093BD09B5
:103840006093E0091092BF091092BE0908950C948C
:103850001D1C0F93062F21E04091BE0960EC79E01A
:103860008091E0090E940C1D1092BF091092BE09C0
:103870001092BD090F9108954F925F926F927F92BF
:10388000AF92BF92CF92EF92FF920F931F93CF937D
:10389000DF935C01F62ED42F28013901EE2019F1B7
:1038A0000E941D1CCE2DC43008F0C3E0C150B8F0FA
:1038B00028E0C29FC0011124A301920104C05695C3
:1038C0004795379527958A95D2F7B901D501ED919E
:1038D000FC910190F081E02DC5010995E7CF60E0F2
:1038E000C5010E94291C4D2FD13208F040E22C2D39
:1038F00063EE79E08F2D0E94CC1C1092E209809338
:10390000E109DF91CF911F910F91FF90EF90CF9040
:10391000BF90AF907F906F905F904F900895CF923F
:10392000EF920F931F93C22EE12C00E010E098015C
:103930000E943C1C1F910F91EF90CF90089521E0C1
:103940000C948F1C21E00C948F1C61E00C94291CBA
:10395000E1EBF9E01382128288EE93E0A0E0B0E0A0
:1039600084839583A683B78387E493E091838083E0
:1039700008959B01AC0160E072E18AE790E00E944B
:1039800019412051310941095109569547953795FB
:1039900027952093B80008954132E0F59091520A9E
:1039A0009111FCCF91E09093520A2093500A2FEF8F
:1039B0002093030A70934A0A6093490A1092480AB6
:1039C000240F2093470A9093510A9091510A880F2F
:1039D000892B8093510A80914F0A8130C9F410924B
:1039E0004F0A8091510A8093BB008091BC0083FDF7
:1039F000F8CF85EC8093BC008091520A8130E1F3CE
:103A00008091480A841710F44091480A842F089541
:103A100085EEF0CF40E0FACF0F93413208F044C07A
:103A20009091520A9111FCCF92E09093520A009328
:103A3000500A9FEF9093030A70934A0A6093490AD1
:103A40001092480A4093470A1092510A9091510AE5
:103A5000880F892B8093510A80914F0A813011F58C
:103A600010924F0A8091510A8093BB008091BC0054
:103A700083FDF8CF85EC8093BC00222321F0809158
:103A8000520A8230D1F38091030A8F3F79F08091FE
:103A9000030A803269F08091030A803359F084E090
:103AA0000F91089585EEE7CF81E0FACF80E0F8CF5F
:103AB00082E0F6CF83E0F4CF2091250A260F33274A
:103AC000331F21323105ECF42091520AFC0190E0C1
:103AD00080E0243069F082E00895A091250A2191C8
:103AE000AC01495D554FA40FB52FB11D2C93019624
:103AF000861798F38091250A680F6093250A80E065
:103B0000089581E0089585ED8093BC008091BC000C
:103B100084FDFCCF1092520A089585EC8093BC007E
:103B20001092520A08951F920F920FB60F9211240D
:103B30000BB60F922F933F934F935F936F937F93A7
:103B40008F939F93AF93BF93EF93FF938091B900AF
:103B5000887F803609F44EC008F041C0883209F4ED
:103B6000AAC028F5803109F49EC0C8F4882309F45E
:103B700007C1883009F497C0FF91EF91BF91AF91D1
:103B80009F918F917F916F915F914F913F912F9175
:103B90000F900BBE0F900FBE0F901F90189588319D
:103BA00009F489C0803241F78093030A15C080343C
:103BB00009F4A6C048F48033B9F38833E9F680935A
:103BC000030A0E948D1DD8CF803509F489C088353D
:103BD00009F49EC0883481F60E94831DCDCF8839B8
:103BE00009F494C038F5883729F050F4883611F07C
:103BF000803711F683E08093520A1092040A57C06E
:103C0000883809F483C0803919F0803809F0B4CFBE
:103C10008091040A803208F079C0E091040A81E0C2
:103C20008E0F8093040A8091BB00F0E0EB5FF54FAC
:103C300080833DC0803B39F0E0F4803A09F485C0D0
:103C4000883A09F099CF84E08093520A1092260AAC
:103C50001092250AE0914D0AF0914E0A0995809143
:103C6000250A81110FC081E08093250A1092270A4E
:103C700009C0803C09F482C0883C09F47FC0883BBD
:103C800009F07ACFE091260A81E08E0F8093260A10
:103C9000F0E0E95DF54F80818093BB009091260AAA
:103CA0008091250A31C08091510A8093BB0085EC38
:103CB0008093BC0061CF9091480A8091470A981781
:103CC000B8F58091490A90914A0AE091480A21E0AA
:103CD0002E0F2093480AE80FF92FF11D8081E5CFC0
:103CE0002091490A30914A0AE091480A81E08E0FFA
:103CF0008093480A8091BB00E20FF32FF11D80836F
:103D00009091480A8091470A981788F285E8D0CFA9
:103D10002091490A30914A0AE091480A81E08E0FC9
:103D20008093480A8091BB00E20FF32FF11D80833E
:103D30008091500A811150CF81E080934F0A84EA2C
:103D40008093BC001092520A17CF0E948D1D809163
:103D5000040A803230F4E091040AF0E0EB5FF54FA2
:103D600010826091040A70E0E0914B0AF0914C0AD5
:103D700085E09AE009951092040AFECE85ECE0CF2A
:103D80001092030A29CFCF93DF931F92CDB7DEB7EE
:103D90006983DC01ED91FC910280F381E02D41E02B
:103DA00050E0BE016F5F7F4F09950F90DF91CF917B
:103DB0000895CF93DF93EC01E98DFA8D309749F4A4
:103DC00081E090E09B838A8390E080E0DF91CF9157
:103DD000089513821282898D9A8D0E944E2BE98D4F
:103DE000FA8D22813381232B59F7F0CFFC01818D8D
:103DF000928D009711F00C94DD280895CF93DF93F6
:103E00001F92CDB7DEB741E050E0BE016F5F7F4F3C
:103E10000E940127019731F4898190E00F90DF9192
:103E2000CF9108958FEF9FEFF9CFFC01818D928D97
:103E3000009711F00C94FE1E8FEF9FEF08950F93E3
:103E40001F93CF93DF93EC01898D9A8D10E000E0F2
:103E5000009799F00E94FE1E8C010F3F100769F039
:103E6000898D9A8DFC014285538564857585415005
:103E70005109610971090E944928C801DF91CF9158
:103E80001F910F910895EF92FF920F931F93CF937D
:103E9000DF93EC017B018A011B821A8288EE93E09A
:103EA000A0E0B0E08C839D83AE83BF8389E593E07F
:103EB000998388838DE190E00E947C419A8F898F5D
:103EC000009779F02DE1F701DC0101900D922A9520
:103ED000E1F74CE050E0B801CE010C960E94AA43F5
:103EE000188EDF91CF911F910F91FF90EF90089561
:103EF000FC011382128288EE93E0A0E0B0E084839C
:103F00009583A683B78389E593E091838083128E9E
:103F1000118E14860895DC015996ED91FC9130972D
:103F200029F0628573858485958508956FEF7FEF0D
:103F3000CB010895DC015996ED91FC91309729F061
:103F40006389748985899689089560E070E0CB0162
:103F50000895CF92DF92EF92FF92CF93DF93FC010F
:103F6000218D328D232B09F1EC010E949A1F6B01E8
:103F70007C01CE010E948B1FA7019601261B370BE7
:103F8000480B590BDA01C901811530E89307A105E7
:103F9000B10520F08FEF9FE7A0E0B0E0DF91CF9177
:103FA000FF90EF90DF90CF90089590E080E0F6CF03
:103FB000CF93DF93EC01898D9A8D009741F00E9499
:103FC0002629898D9A8D0E9418421A8E198EDF91AA
:103FD000CF910895DC015996ED91FC91309721F035
:103FE00081E09581911101C080E008951F93CF93E6
:103FF000DF93CDB7DEB76D970FB6F894DEBF0FBE77
:10400000CDBFAB011C821B822DE633E03A832983AE
:104010001E8221E0BC01CE0101960E94612A11E0BE
:1040200081110CC010E0812F6D960FB6F894DEBFA1
:104030000FBECDBFDF91CF911F910895CE010196A4
:104040000E942629F0CFEF92FF920F931F93CF93F8
:10405000DF937B01DB012D913C91FC01E20FF31F0B
:1040600060816F3211F42F5F3F4F8C01020F131FDD
:10407000EA01F0E0E0E0D8017D918D017F3249F066
:10408000772339F02F5F3F4F31967993EC30F1056C
:1040900091F7E40FF51F1082FC01E20FF31F40813E
:1040A0004F3211F42F5F3F4FF70131832083280FE8
:1040B000391F81E0D9019C91911101C080E0DF910D
:1040C000CF911F910F91FF90EF9008954F925F92C3
:1040D0006F927F928F929F92AF92BF92CF92DF9218
:1040E000EF92FF920F931F93CF93DF93CDB7DEB77D
:1040F000C954D1090FB6F894DEBF0FBECDBF5C0125
:104100006B013A01490119A218A28DE693E09F8F35
:104110008E8F1BA21C821B829A8389831E822A9601
:104120001FAE1EAE2A978B017E018EE1E80EF11CB8
:1041300044244394AE01455C5F4FBE01685B7F4FF2
:10414000C5010E942320582E482F44259401BE010A
:10415000655C7F4FC801F3010995811120C00C15E2
:104160001D05C9F480E0C75BDF4F0FB6F894DEBFD2
:104170000FBECDBFDF91CF911F910F91FF90EF90B8
:10418000DF90CF90BF90AF909F908F907F906F9077
:104190005F904F900895C8010E942629E3CF5520D3
:1041A00091F021E0AE01455C5F4FB801C7010E946C
:1041B000612A582E0C151D0571F0C8010E94262990
:1041C00051100EC0CFCF0C151D0519F0C8010E946B
:1041D000262981E0C8CF882329F28E010F5F1F4F67
:1041E000902F812F8701E92EF82EA4CF0F931F93D4
:1041F000CF93DF93EC01162F8FA5882321F0CE01FA
:104200008A960E942629412F61E0CE010E94C32395
:10421000811102C090E012C08E01045F1F4F41E087
:10422000BE01C8010E948830882371F0B801CE0118
:104230008A960E94B12691E0882361F3892FDF914D
:10424000CF911F910F91089540E0BE01C8010E94D7
:1042500088308823F9F2EACFFC01DB0112968D91B8
:104260009C911397938382838DE693E0918380835F
:1042700014968C911497848315968C911597858349
:1042800016964D915D916D917C9119974683578358
:10429000608771871A964D915D916D917C911D9704
:1042A00042875387648775871E964D915D916D9106
:1042B0007C91519746875787608B718B52968C9172
:1042C0005297828B53964D915D916D917C9156974B
:1042D000438B548B658B768B57964D915D916D9189
:1042E0007C915A97478B508F618F728F5B968D911F
:1042F0009C91948F838F08954F925F926F927F92DB
:104300008F929F92AF92BF92CF92DF92EF92FF92E5
:104310000F931F93CF93DF93CDB7DEB7C754D10967
:104320000FB6F894DEBF0FBECDBF5C014A01390164
:10433000665D7F4F7E018EE1E80EF11CC7010E9491
:104340002C211C821B828DE693E09A8389831E8236
:104350008401FE0131966F015E2C4F2C6FE270E0FC
:10436000C8010E949843009709F455C0F8012081C4
:104370002F3219F40F5F1F4FF1CF801B8D3008F0E3
:104380008CE0E82EF12CA701B801CE01CB960E945B
:10439000AA43EBE3F0E0EC0FFD1FEE0DFF1D1082D2
:1043A000C6010E94262921E0AE01455C5F4F652DC4
:1043B000742DC6010E94612A811121C0F50113826A
:1043C00012828DE693E0918380831582C501C95BDB
:1043D000DF4F0FB6F894DEBF0FBECDBFDF91CF9198
:1043E0001F910F91FF90EF90DF90CF90BF90AF9013
:1043F0009F908F907F906F905F904F9008950E0DDB
:104400001F1D852D942D0E942629C2015C2C4D2C48
:10441000C92ED82EA3CF08191909F30111830083DF
:10442000652D742DC5010E942C21D0CFAF92BF9273
:10443000CF92DF92FF920F931F93CF93DF93CDB76D
:10444000DEB7C955D1090FB6F894DEBF0FBECDBF98
:104450006C015B018A01F22E9E01285A3F4FCE016A
:10446000CB960E947C216A968EAD9FAD6A97080F0D
:10447000191FF8018081811110C0BE01655C7F4F5A
:10448000CE0101960E942C2147E653E0BE016F5FEA
:104490007F4FC6010E94431F0FC019A218A28DE6CC
:1044A00093E09F8F8E8F1BA221968FAD2197811154
:1044B00015C0C6010E94781FC601C75ADF4F0FB64C
:1044C000F894DEBF0FBECDBFDF91CF911F910F914A
:1044D000FF90DF90CF90BF90AF90089582508230D0
:1044E000F8F4B501665D7F4F2F2DA801CE014E96E1
:1044F0000E94612A8823E9F28F2D867041F049A934
:104500005AA96BA97CA9CE014E960E944928BE01EA
:10451000625E7F4FCE0101960E942C21A801B6CF8A
:104520002F2DA801BE01655C7F4FCE014E960E94E3
:10453000612A882309F4BDCFCE01CB960E9426299B
:10454000DBCFFB01BC01665D7F4F30E020E046EF32
:104550005FE1CF010C946620E3E5FAE01582168254
:104560001186138682E090E0A0E0B0E08487958712
:10457000A687B78713A215A614A68DE693E093A786
:1045800082A717A608959FB7F8942091AA0C80914E
:10459000A80C213019F48DBB9FBF08958FBF0895DB
:1045A0002091AA0C222381F03FB7F8942091AA0C05
:1045B000213069F42DB32093A80C4DB32091A90CA0
:1045C000209524232DBB3FBF8CBD9DBD0895309306
:1045D000A80CFACF8EBD00000DB407FEFDCF8EB53E
:1045E00008958FEF0C94EA2261E0FC0184810E941F
:1045F000D73E80919C0A882339F010929C0A8091C2
:10460000AA0C81110C94C3220895CF93DF93EC017F
:1046100080919C0A811109C081E080939C0A80915D
:104620009D0A90919E0A0E94D02260E08C81DF91C9
:10463000CF910C94D73ECF93DF93EC018E818823EA
:1046400089F08F8198859C012F5F3F4F38872F839A
:104650008230924018F40E94F122F3CFCE010E94E2
:10466000F4221E82DF91CF910895673028F026E171
:10467000FC01258380E00895623079F038F06430E1
:10468000A9F090F06530A1F082E508C080E5809344
:104690009D0A81E080939E0A089580E580939D0A9B
:1046A00010929E0A81E0089581E5F1CF81E5F6CF71
:1046B00082E5EDCF0F931F93CF93DF93EB010E9421
:1046C000BC3D8B010E94F1228F3F69F00E94BC3DEE
:1046D000601B710B6C177D07A8F380E0DF91CF9111
:1046E0001F910F91089581E0F9CF8F929F92AF9221
:1046F000BF92FF920F931F93CF93DF93EC01F62E9F
:1047000049015A010E941B23CE010E9405236CE23D
:1047100071E0CE010E945A238F2D80640E94EA220C
:1047200008E110E0D501C401002E04C0B695A7959C
:10473000979587950A94D2F70E94EA2208501109AA
:10474000083F8FEF180771F785E9FF2021F088E017
:10475000F8120DC087E80E94EA2210E00E94F122C0
:104760008A8787FF06C01F3F21F01F5FF7CF8FEFBB
:10477000F2CFDF91CF911F910F91FF90BF90AF903B
:104780009F908F9008958F929F92AF92BF92EF92D9
:10479000FF920F931F93CF93DF93EC01E62E1B86BE
:1047A00019861E821D824C830E94BC3D8B0161E0F4
:1047B0008C810E949B3E61E08C810E94D73E0E94CA
:1047C000A83182E580939D0A81E080939E0A8091C2
:1047D0009D0A90919E0A0E94D0222AE0F22E8FEF2D
:1047E0000E94EA22FA94F110FACF8091AA0C81116A
:1047F0000E94C322CE010E94052320E030E0A901DF
:1048000060E0CE010E947523F82E8A8781E0F816B9
:10481000C1F00E94BC3D601B710B613D774068F3A5
:1048200081E08D83CE010E94F42280E0DF91CF9160
:104830001F910F91FF90EF90BF90AF909F908F903E
:1048400008952AEA31E040E050E068E0CE010E949D
:10485000752382FF25C0FB868B85812C912C54010A
:10486000823029F4812C912CA12C80E4B82E20E0F8
:1048700030E0A90167E3CE010E947523A5019401F0
:1048800069E2CE010E9475238A878823C1F00E94C5
:10489000BC3D601B710B613D774048F388E0C1CFA0
:1048A00094E0F92E0E94F1228A87FA94F110FACF4F
:1048B0008A3A11F082E0B5CF82E08B87CDCF8B852D
:1048C0008230C1F420E030E0A9016AE3CE010E9409
:1048D0007523882311F086E0A4CF0E94F122807C0A
:1048E000803C11F483E08B870E94F1220E94F12228
:1048F0000E94F122CE010E94F4226E2DCE01DF91A2
:10490000CF911F910F91FF90EF90BF90AF909F902C
:104910008F900C9435230F931F93CF93DF93EC016B
:104920000E94BC3D8B010E94F1228A878F3F91F447
:104930000E94BC3D601B710B6D327140A0F38FE093
:104940008D83CE010E94F42280E0DF91CF911F91F0
:104950000F9108958E3F11F08DE0F2CF81E0F5CFF9
:10496000CF92DF92EF92FF920F931F93CF93DF933B
:10497000EC016901C801820F931F8130924048F514
:104980008E81882371F088819981AA81BB818417E7
:104990009507A607B70729F48F819885C816D90609
:1049A00070F5488359836A837B838B85833039F024
:1049B00089E0440F551F661F771F8A95D1F79A012A
:1049C000AB0161E1CE010E947523882379F083E079
:1049D0008D83CE010E94F42280E0DF91CF911F9160
:1049E0000F91FF90EF90DF90CF900895CE010E943D
:1049F0008B24882371F318861F8281E08E838F8138
:104A000098858C159D0560F06701E00EF11EEC1491
:104A1000FD0471F00E94F122F60181936F01F7CF3E
:104A20000E94F1228F819885019698878F83E7CF26
:104A30008F819885080F191F18870F838985882310
:104A400019F00115124018F0CE010E941B2381E0DD
:104A5000C4CFEF92FF920F931F930115110539F008
:104A60000E94B0241F910F91FF90EF90089581E074
:104A7000F9CFEF92FF920F931F93790100E012E0BC
:104A800030E020E00E94B0241F910F91FF90EF9042
:104A90000895EF92FF920F931F93CF93DF938C01B2
:104AA000862F7A010E94EA22E7018EEFF81A899197
:104AB0000E94EA22CE15DF05D1F78FEF0E94EA228D
:104AC0008FEF0E94EA220E94F122F80182878F7103
:104AD000853069F081E18583C8010E94F42280E07D
:104AE000DF91CF911F910F91FF90EF90089581E09A
:104AF000F7CF0F931F93CF93DF93EC01890182E1EE
:104B0000411551056105710599F08B85833039F0A8
:104B100089E0440F551F661F771F8A95D1F79A01C8
:104B2000AB0168E1CE010E947523882339F084E04F
:104B30008D83CE010E94F42280E023C0A8016EEF95
:104B4000CE010E9449258823A1F368E572E0CE01D9
:104B50000E945A23811102C085E1EACF20E030E0B3
:104B6000A9016DE0CE010E947523882311F084E134
:104B7000DFCF0E94F1228111FACFCE010E94F422F0
:104B800081E0DF91CF911F910F910895EDE9FAE057
:104B900080E5808381E0818308950895CF93DF933A
:104BA000EC019C012A5F3F4F41E050E060E070E083
:104BB0008B8D9C8D0E94272F8823A1F08F89988D43
:104BC000A98DBA8D892B8A2B8B2B59F48E819F81CD
:104BD000A885B9858F8B988FA98FBA8F8C818068B3
:104BE0008C8381E0DF91CF9108958F929F92AF9255
:104BF000BF92CF92DF92EF92FF92CF93DF93EC01BF
:104C00000E94CE2581110CC080E0DF91CF91FF90F2
:104C1000EF90DF90CF90BF90AF909F908F900895CE
:104C2000EB8DFC8DCE80DF80E884F98482E0C81AA9
:104C3000D108E108F108858504C0CC0CDD1CEE1C10
:104C4000FF1C8A95D2F786859785A089B189C80E01
:104C5000D91EEA1EFB1E848146015701880E911C55
:104C6000A11CB11C8C149D04AE04BF0461F081E052
:104C7000881A9108A108B108C501B4010E94752DD8
:104C80008111F0CFC1CFEB8DFC8D258580E092E0C6
:104C9000A0E0B0E004C0880F991FAA1FBB1F2A958F
:104CA000D2F74B895C896D897E89840F951FA61F79
:104CB000B71F8B8B9C8BAD8BBE8B81E0A6CFCF9328
:104CC000DF93EC01462F6E857F85888999890E9444
:104CD0003A2D882351F08A8920E2829FC001112455
:104CE0008855954FDF91CF91089590E080E0FACFFD
:104CF000FB019B01255F3F4F40E241932E173F0789
:104D0000E1F7DC0120E037E09D91492F992319F16B
:104D10009E3229F43A3059F028E03AE0F5CFE6E83F
:104D2000F1E08491882329F031969813FACF80E03E
:104D300017C03217A8F05FED590F5E3588F48FE980
:104D4000890F8A3110F440EE490FFB01E20FF11D8B
:104D500040832F5FD9CF81E0FB019081903239F3FE
:104D600008950F931F93CF93DF93FC012581222396
:104D700031F080E0DF91CF911F910F9108958B0169
:104D8000EC01FB018789803139F582E08D831F8A30
:104D9000188E198E1A8E808D918DB0E0A0E025E0DE
:104DA000880F991FAA1FBB1F2A95D1F78B8B9C8B4D
:104DB000AD8BBE8B1C8F0B8F81E08C831E821F827C
:104DC000188619861A861B861C861D861E861F86D7
:104DD000188A198A1A8ACECF803259F683E08D83D9
:104DE000428D538D648D758D4F8B588F698F7A8F5F
:104DF0009E012D5E3F4FC8010E941A2E8111DACF0D
:104E0000B8CF2F923F924F925F926F927F928F9284
:104E10009F92AF92BF92CF92DF92EF92FF920F9349
:104E20001F93CF93DF93EC015B012A018D818111E8
:104E300015C08FEF9FEFDF91CF911F910F91FF90E2
:104E4000EF90DF90CF90BF90AF909F908F907F902A
:104E50006F905F904F903F902F9008958C8180FFCE
:104E6000E8CF0B891C892D893E894A855B856C8535
:104E70007D85C201B0E0A0E068017901C41AD50ABD
:104E8000E60AF70AC816D906EA06FB0618F428014E
:104E9000441A550A42011E0126E0220E311C8114DB
:104EA000910409F4B3C04A855B856C857D856A01F0
:104EB00081E0D8228B8D9C8D8A019B01E9E036959B
:104EC000279517950795EA95D1F7ED81E230E1F541
:104ED000FC01628D738D848D958D600F711F821F13
:104EE000931F612C22E0722E6C187D0886149704A3
:104EF00008F434012C8126FD04C06114F2E07F0621
:104F000071F4009108011091090120910A0130917A
:104F10000B01061717072807390709F053C040E0AF
:104F20000E943A2D882309F484CFC6018855954FF5
:104F3000D5019C01260D371DFC012E173F0709F4F2
:104F400060C041914D93F9CFFC0174807A94702236
:104F5000C114D10471F471100CC0452B462B472BA2
:104F600039F58F89988DA98DBA8D8E839F83A887F7
:104F7000B987EB8DFC8D6E817F8188859985625024
:104F8000710981099109258504C0660F771F881F63
:104F9000991F2A95D2F70685178520893189600FD8
:104FA000711F821F931F670D711D811D911D99CF68
:104FB0004E815F816885798591010E94992D8111CB
:104FC000D8CF37CF750183019601AB01BC01809129
:104FD000A60A9091A70A0E942925882309F429CFBF
:104FE000A60CB71C8A859B85AC85BD85860D971D53
:104FF000A11DB11D8A879B87AC87BD87861897083E
:105000004ECF281B390BA20EB31EECCFC20113CF1B
:10501000FF920F931F93CF93DF931F92CDB7DEB70D
:10502000FC0125812230C8F08C01428553856485BE
:10503000758585E076956795579547958A95D1F75B
:10504000F42FFF70FF2E41E050E0BE016F5F7F4FF5
:10505000C8010E940127019719F090E080E012C07A
:10506000F80182859385A485B5854F96A11DB11D54
:1050700082879387A487B587F0E2FF9EC001112441
:105080008855954F0F90DF91CF911F910F91FF9011
:1050900008958F929F92AF92BF92CF92DF92EF923C
:1050A000FF920F931F93CF93DF93EC018D818111BA
:1050B0000EC080E0DF91CF911F910F91FF90EF9094
:1050C000DF90CF90BF90AF909F908F9008950B8905
:1050D0001C892D893E89041715072607370748F3D1
:1050E0004A015B01823031F48A869B86AC86BD869C
:1050F00081E0E0CF81149104A104B10449F41E823F
:105100001F82188619861A861B861C861D86F0CF7C
:105110000A851B852C853D85EB8DFC8D858590E072
:105120000996B901A8014150510961097109082E78
:1051300004C076956795579547950A94D2F77501FF
:105140006401E1E0CE1AD108E108F10804C0F69448
:10515000E794D794C7948A95D2F7C416D506E60685
:10516000F70620F0012B022B032B11F58F89988D68
:10517000A98DBA8D8E839F83A887B9878E010A5F18
:105180001F4FC114D104E104F10409F4ADCF4E81E5
:105190005F816885798598018B8D9C8D0E94992D02
:1051A00091E0C91AD108E108F1088111EACF81CF55
:1051B000C41AD50AE60AF70AE1CF0F931F93CF93DB
:1051C000DF93EC018D818823D9F18C8187FF32C078
:1051D00061E0CE010E945F268C01892B89F18D81CF
:1051E000823048F48B899C89AD89BE89F801848F0F
:1051F000958FA68FB78F8F89988DF801938F828FA7
:105200008F89988DA98DBA8DB58BA48BE0919F0A5B
:10521000F091A00A309759F0B8016A5E7F4FC8013B
:1052200048960995F801808D918D938B828B8C81A6
:105230008F778C83DF91CF911F910F910C94FF2C6E
:1052400080E0DF91CF911F910F910895CF93DF936D
:10525000EC010E94DD28882311F01D8281E0DF919E
:10526000CF9108954F925F926F927F928F929F920B
:10527000AF92BF92EF92FF920F931F93CF93DF9362
:1052800000D000D0CDB7DEB7FC0185818130A1F020
:1052900080E00F900F900F900F90DF91CF911F91B2
:1052A0000F91FF90EF90BF90AF909F908F907F9065
:1052B0006F905F904F900895848181FFE9CF83893B
:1052C0009489A589B68984179507A607B70700F3BF
:1052D000892B8A2B8B2B09F477C04A015B017F0154
:1052E0004284538464847584CF010E9449288823B2
:1052F00079F2F701838D948D81149104A104B10496
:1053000049F54789508D618D728D0E943230882316
:1053100009F4BECFF701178A108E118E128EF70195
:10532000838A948AA58AB68A848180688483C70127
:105330000E94DD28882309F4ABCFB501A4014416EF
:1053400055066606770610F4B301A201C7010E9454
:1053500049289FCF46815781608571859E012F5FC7
:105360003F4F0E94992D882309F492CFF701838D36
:10537000948D49815A816B817C81FC012789203180
:10538000F1F408EF1FEF20E030E04017510762070B
:10539000730728F60E943230882309F479CFF70189
:1053A00046815781608571850FEF1FEF2FEF3FE03A
:1053B000838D948D0E94852E8111B1CF69CF08EF26
:1053C0001FEF2FEF3FE0E1CF81E063CFCF92DF927D
:1053D000EF92FF921F93CF93DF93EC0180E2689FDF
:1053E000F0011124E855F54F9385917161F0842FF8
:1053F000827449F080E0DF91CF911F91FF90EF9090
:10540000DF90CF900895142F6A8B809108019091BE
:105410000901A0910A01B0910B018E879F87A88B8B
:10542000B98BC488D588F12CE12C7601DD24CC24FD
:10543000CF8AD88EE98EFA8E828D938DB0E0A0E06F
:10544000AC01BD014C295D296E297F294F8B588FF6
:10545000698F7A8F8385887129F5848D958DA68DC6
:10546000B78D8B8B9C8BAD8BBE8B81E08D83812F19
:105470008F708C831E821F82188619861A861B865F
:105480001C861D8681E016FFB6CF40E050E0BA01D1
:10549000CE01DF91CF911F91FF90EF90DF90CF90E1
:1054A0000C943229803109F0A5CF9E012D5E3F4F2B
:1054B0008B8D9C8D0E941A2E882309F49BCF84E04B
:1054C000D5CFBF92CF92DF92EF92FF920F931F93AF
:1054D000CF93DF93CDB7DEB72B970FB6F894DEBF2F
:1054E0000FBECDBFFC01358131110BC0C22E8B0127
:1054F0007C01BE016F5F7F4FCA010E947826811137
:1055000002C080E0A1C0F801838D948DF701948FD3
:10551000838FF801168217821086118612861386F1
:1055200014861586B12CF80182859385A485B585EE
:10553000438954896589768984179507A607B70733
:1055400088F525E0B695A795979587952A95D1F783
:10555000F82FFF70DF2EC8010E940828009789F2FB
:10556000FC012081222341F0253E09F059C0BB20D7
:1055700029F0BB24B394D7CFB1100EC0F701D28A63
:10558000409108015091090160910A0170910B014D
:1055900046875787608B718BFC0180818111E9CF31
:1055A000BB24B3948C2D8271823109F0AACFBB2029
:1055B00009F45AC061E0C7010E945F268C01892B63
:1055C00009F49FCF80E2F80111928A95E9F78BE008
:1055D000FE013196D80101900D928A95E1F7E09194
:1055E0009F0AF091A00A309709F44EC0B801625F9B
:1055F0007F4FC80140960995F80180899189938B66
:10560000828B918F808F86859785978B868B0E9462
:10561000FF2C882309F475CF4C2DF701628911C046
:105620004BE050E0BC01CE0101960E948243892BE1
:1056300009F079CF8C2D80734C2D6D2D803309F4BA
:1056400060CFC7010E94E6292B960FB6F894DEBF03
:105650000FBECDBFDF91CF911F910F91FF90EF90C3
:10566000DF90CF90BF900895F8018581823009F4D2
:1056700048CFC8010E94F525882309F442CFF701DD
:10568000128A08EA1AE09ECF81E298E2F801918B33
:10569000808B80E098E097878687AECF2F923F92ED
:1056A0004F925F926F927F928F929F92AF92BF9232
:1056B000CF92DF92EF92FF920F931F93CF93DF93DE
:1056C00000D000D0CDB7DEB78C016B011A01DC0130
:1056D00015968C911597813009F0C8C014968C915D
:1056E00081FFC4C082FDAEC04101D8011A964D9120
:1056F0005D916D917C911D978114910409F429C1EC
:105700005B968D919C915C97FC0174802FEF270D27
:105710002A013B0139E076946794579447943A956F
:10572000D1F7722E74207A01F1E0FF22711020C0AF
:10573000E114F104E9F416964D915D916D917C911F
:105740001997411551056105710509F098C05796E3
:105750008D919D910D90BC91A02D0097A105B10553
:1057600009F0AFC0C8010E94CE25882309F47EC08D
:1057700080E092E08E199F0954018815990508F47C
:105780005C01D8015B964D915C915C9716968D916A
:105790009D910D90BC91A02D0297A109B109FA012C
:1057A000258504C0880F991FAA1FBB1F2A95D2F711
:1057B0004685578560897189840F951FA61FB71F7D
:1057C0009C01AD01270D311D411D511D29013A01DB
:1057D000A11432E0B30609F07AC0809108019091DB
:1057E0000901A0910A01B0910B0184159505A60548
:1057F000B70559F48FEF9FEFDC0180930801909378
:105800000901A0930A01B0930B019601B301A20113
:105810008091A60A9091A70A0E947925882331F1E8
:105820009EEFD91A8A189B08F80182859385A48572
:10583000B5858A0D9B1DA11DB11D82879387A48705
:10584000B58753CFF8014389548965897689828564
:105850009385A485B585481759076A077B0709F41E
:1058600043CFC8010E94492881113ECF81E090E0DA
:10587000D80113969C938E93129780E007C09E01E7
:105880002F5F3F4F0E94992D811102C090E07BC095
:1058900089819A81AB81BC81F801238D348DF90116
:1058A000278948EF5FEF60E070E0203121F048EF9A
:1058B0005FEF6FEF7FE084179507A607B70708F043
:1058C00051CFF80186839783A087B18751CFE11428
:1058D000F10491F5D8011A964D915D916D917C91ED
:1058E0001D9753968D919D910D90BC91A02D4817B9
:1058F00059076A077B0700F10E94FF2C882309F4EF
:10590000B5CF409208015092090160920A0170924D
:105910000B018091A50A81608093A50A9701285503
:10592000354FD601C9018A0D9B1DF9018E179F07BE
:1059300059F04D914193FACF41E0C301B2010E9469
:105940003A2D8111EBCF92CF821B930BC80ED91E3B
:1059500069CF14968C9114975396CD90DD90ED906D
:10596000FC905697C416D506E606F70618F5F8011A
:10597000438B548B658B768B80688483F80184819C
:1059800083FD25C0C1010F900F900F900F90DF9104
:10599000CF911F910F91FF90EF90DF90CF90BF902C
:1059A000AF909F908F907F906F905F904F903F90BF
:1059B0002F90089520919F0A3091A00A232BF1F295
:1059C00021143104D9F2806814968C93D7CFC80182
:1059D0000E94DD28882309F449CFD4CFCF93DF93E9
:1059E0001F92CDB7DEB7698341E050E0BE016F5F23
:1059F0007F4F0E944E2B0F90DF91CF9108958091A1
:105A0000A50A8823A9F140910801509109016091EC
:105A10000A0170910B0128EA3AE08091A60A909160
:105A2000A70A0E947925811102C080E00895409163
:105A3000A10A5091A20A6091A30A7091A40A41158B
:105A400051056105710591F028EA3AE08091A60AB6
:105A50009091A70A0E947925882339F31092A10A10
:105A60001092A20A1092A30A1092A40A1092A50AF8
:105A700081E00895CF92DF92EF92FF92CF936B0176
:105A80007C01C42F8091080190910901A0910A0125
:105A9000B0910B018C159D05AE05BF05F9F00E9474
:105AA000FF2C811107C080E0CF91FF90EF90DF9035
:105AB000CF90089528EA3AE0B701A6018091A60A9E
:105AC0009091A70A0E943925882369F3C0920801A2
:105AD000D0920901E0920A01F0920B014091A50ACF
