:100000000C940C010C9436010C9436010C943601BE
:100010000C9436010C9436010C9436010C94360184
:100020000C9436010C9436010C9436010C94360174
:100030000C9436010C94DF280C9436010C94360194
:100040000C9436010C9436010C94A9260C943601BC
:100050000C947D270C9453270C9436010C94360194
:100060000C9436010C9436010C94B3270C94360191
:100070000C941D270C94F3260C9436010C94360135
:100080000C9436010C9436010C94360100407A1021
:10009000F35A00A0724E18090010A5D4E80000E839
:1000A0007648170000E40B54020000CA9A3B000097
:1000B00000E1F505000080969800000040420F0026
:1000C0000000A08601000000102700000000E803E7
:1000D000000000006400000000000A0000000000B2
:1000E0000100000000002C76D888DC674F0823DF71
:1000F000C1DFAE59E1B1B796E5E3E453C63AE65144
:10010000997696E8E6C28426EB898C9B62ED407C6A
:100110006FFCEFBC9C9F40F2BAA56FA5F490055A06
:100120002AF75C936B6CF9676DC11BFCE0E40D472B
:10013000FEF520E6B500D0ED902E0300943577054E
:100140000080841E080000204E0A000000C80C3306
:100150003333330F986E12831141EF8D2114893B95
:10016000E65516CFFEE6DB18D1844B381BF77C1D15
:10017000901DA4BBE424203284725E228100C9F168
:1001800024ECA1E53D277C3C3E5E2B3D3F2F5B5D93
:100190003B2C2A225C0000002200250028002B00B6
:1001A00000002000230026002900000000020300B8
:1001B0000A0B000000000504090800000000000010
:1001C00000000000000000000000000021002400EA
:1001D00027002A00010204081020408001020408C0
:1001E0001020408001020408102040800102040811
:1001F00010204080020202020202020204040404EF
:1002000004040404030303030303030301010101C2
:1002100001010101F428023411241FBECFEFD0E404
:10022000DEBFCDBF2DE0A4E3B3E001C01D92A8382E
:10023000B207E1F713E0A0E0B1E0E8EBF6E700E099
:100240000BBF02C007900D92A433B107D9F711E09C
:10025000CBE0D1E004C02197FE010E946638CA308D
:10026000D107C9F70E9480290C944F3B0C940000E1
:100270000CB405FC0DC01EBC00000DB407FEFDCF84
:100280009EB51EBC00000DB407FEFDCF8EB50895CF
:100290001EBC00000DB407FEFDCF8EB51EBC0000D5
:1002A0000DB407FEFDCF9EB50895982F8091E00B09
:1002B0008111FCCF81E08093E00B8093DF0B2FEF67
:1002C0002093DE0B28EB3BE03093DD0B2093DC0B1F
:1002D0001092DB0B2FEF260F2093DA0B8093D90BB4
:1002E0008091D90B990F982B9093D90B8091D80BB3
:1002F0008130C9F41092D80B8091D90B8093BB0048
:100300008091BC0083FDF8CF85EC8093BC00809188
:10031000E00B8130E1F38091DB0B861710F46091E4
:10032000DB0B862F089585EEF0CF282F9091B70B29
:1003300081E0913208F042C08091E00B8111FCCF46
:100340008091B60B32E03093E00B2093DF0B2FEF60
:100350002093DE0B26E93BE03093DD0B2093DC0B92
:100360001092DB0B9093DA0B1092D90B9091D90B72
:10037000880F892B8093D90B8091D80B813029F578
:100380001092D80B8091D90B8093BB008091BC0058
:1003900083FDF8CF85EC8093BC008091E00B823028
:1003A000E1F38091DE0B8F3F91F08091DE0B803284
:1003B00081F08091DE0B803371F084E01092950B18
:1003C0001092B70B1092940B089585EEE4CF80E065
:1003D000F5CF82E0F3CF83E0F1CF91E09093940BDF
:1003E0008093B60B1092950B1092B70B08959091D5
:1003F000930B8091920B2FEF3FEF981748F4E92F62
:10040000F0E0E854F44F208130E09F5F9093930B2D
:10041000C90108959091930B8091920B2FEF3FEFBC
:10042000981748F4E92FF0E0E854F44F208130E0C9
:100430009F5F9093930BC901089582508A3088F58D
:10044000E82FF0E0EA5DFD4F0C9466384E02520250
:1004500030023602510251023A02400244024A027C
:10046000809180008F778093800008958091800034
:100470008F7DF9CF8091B0008F778093B000089581
:100480008091B0008F7DF9CF809190008F7780931D
:1004900090000895809190008F7DF9CF84B58F777B
:1004A00084BD089584B58F7DFBCFCF93DF93282F34
:1004B00030E0F901E655FE4F8491F901EC52FE4F10
:1004C000D491F901EC50FE4FC491CC23A1F08111DD
:1004D0000E941D02EC2FF0E0EE0FFF1FE056FE4FD2
:1004E000A591B491EC91ED2381E090E009F480E0D6
:1004F000DF91CF91089580E090E0FACF1F93CF93E2
:10050000DF93282F30E0F901E655FE4F8491F90181
:10051000EC52FE4FD491F901EC50FE4FC491CC2324
:10052000A9F0162F81110E941D02EC2FF0E0EE0FB2
:10053000FF1FEA56FE4FA591B4918FB7F894EC9146
:10054000111108C0D095DE23DC938FBFDF91CF91CE
:100550001F910895DE2BF8CFCF93DF9390E0FC013D
:10056000EC52FE4F24918C509E4FFC0184918823C5
:10057000D1F090E0880F991FFC01E653FE4FA59142
:10058000B491FC01EA56FE4FC591D49161110EC0A1
:100590009FB7F8948C91E22FE0958E238C9328815D
:1005A000E223E8839FBFDF91CF9108958FB7F8943E
:1005B000EC91E22BEC938FBFF6CF00000000880F88
:1005C000991F05970197F1F708953FB7F894809127
:1005D0008B0990918C09A0918D09B0918E0926B557
:1005E000A89B05C02F3F19F00196A11DB11D3FBF6B
:1005F000BA2FA92F982F8827BC01CD01620F711D3A
:10060000811D911D43E0660F771F881F991F4A9532
:10061000D1F708958F929F92AF92BF92CF92DF92BF
:10062000EF92FF926B017C010E94E5024B015C019D
:10063000C114D104E104F104B9F00E94E502681983
:1006400079098A099B09683E73408105910580F309
:1006500021E0C21AD108E108F10888EE880E83E093
:10066000981EA11CB11CE4CFFF90EF90DF90CF90BB
:10067000BF90AF909F908F9008952FB7F89460919E
:100680008709709188098091890990918A092FBF03
:100690000895AF92BF92CF92DF92EF92FF920F93A5
:1006A0001F93CF93DF936C017B018B01040F151F08
:1006B000EB015E01AE18BF08C017D10759F0699170
:1006C000D601ED91FC910190F081E02DC6010995D4
:1006D000892B79F7C501DF91CF911F910F91FF9081
:1006E000EF90DF90CF90BF90AF900895FC01538DB5
:1006F000448D252F30E0842F90E0821B930B5417FC
:1007000010F0CF96089501970895FC01918D828D88
:10071000981761F0A28DAE0FBF2FB11D5D968C9121
:10072000928D9F5F9F73928F90E008958FEF9FEF60
:100730000895FC01918D828D981731F0828DE80F1C
:10074000F11D858D90E008958FEF9FEF0895FC01D6
:10075000918D228D892F90E0805C9F4F821B9109A3
:100760008F739927089581EE9BE00E94A70321E0F3
:10077000892B09F420E0822F08958EE79CE00E94E7
:10078000A70321E0892B09F420E0822F0895FC01C2
:10079000A48DA80FB92FB11DA35ABF4F2C91848DE2
:1007A00090E001968F739927848FA689B7892C933F
:1007B000A089B1898C91837080648C93938D848D92
:1007C000981306C00288F389E02D80818F7D808395
:1007D0000895EF92FF920F931F93CF93DF93EC0155
:1007E00081E0888F9B8D8C8D98131AC0E889F989D8
:1007F000808185FF15C09FB7F894EE89FF896083DB
:10080000E889F98980818370806480839FBF81E05B
:1008100090E0DF91CF911F910F91FF90EF9008959D
:10082000F62E0B8D10E00F5F1F4F0F731127E02E78
:100830008C8D8E110CC00FB607FCFACFE889F989B0
:10084000808185FFF5CFCE010E94C703F1CFEB8DEC
:10085000EC0FFD2FF11DE35AFF4FF0829FB7F89484
:100860000B8FEA89FB8980818062CFCFCF93DF93A2
:10087000EC01888D8823B9F0AA89BB89E889F989B8
:100880008C9185FD03C0808186FD0DC00FB607FCED
:10089000F7CF8C9185FFF2CF808185FFEDCFCE0120
:1008A0000E94C703E9CFDF91CF91089580E090E0E7
:1008B000892B29F00E94BD0381110E94000080E075
:1008C00090E0892B29F00E94B30381110C94000061
:1008D00008958FB7F89480918C038FBF089561E0DD
:1008E000FC0184810E947E0280918B038111109211
:1008F0008B0308958EBD00000DB407FEFDCF8EB5AD
:1009000008958FEF0C947A040F931F93CF93DF9386
:10091000EC010E943D038B010E9481048F3F69F02E
:100920000E943D03601B710B6C177D07A8F380E0EC
:10093000DF91CF911F910F91089581E0F9CF8CBD88
:100940009DBD0895CF93DF93EC0180918B038111BE
:1009500009C081E080938B0380911B0D90911C0D49
:100960000E949F0460E08C81DF91CF910C947E0205
:100970008F929F92AF92BF92FF920F931F93CF934C
:10098000DF93EC01F62E49015A018E81882389F00C
:100990008F8198859C012F5F3F4F38872F8382304E
:1009A000924018F40E948104F3CFCE010E946F049C
:1009B0001E82CE010E94A2048CE291E00E94840477
:1009C0008F2D80640E947A0408E110E0D501C401F3
:1009D000002E04C0B695A795979587950A94D2F7EF
:1009E0000E947A0408501109083F8FEF180771F729
:1009F00085E9FF2021F028E087E8F2128FEF0E94BE
:100A00007A0410E00E9481048A8787FF04C01F3F98
:100A100011F01F5FF7CFDF91CF911F910F91FF90E2
:100A2000BF90AF909F908F900895AF92BF92CF925A
:100A3000DF92EF92FF920F931F93CF93DF93EC011E
:100A40006901C801820F931F8130924050F58E8159
:100A5000882379F088819981AA81BB8184179507C1
:100A6000A607B70731F48F819885C816D90608F014
:100A700042C0488359836A837B838B85833039F0F6
:100A800089E0440F551F661F771F8A95D1F79A0199
:100A9000AB0161E1CE010E94B804882389F083E0B4
:100AA0008D83CE010E946F0480E0DF91CF911F9172
:100AB0000F91FF90EF90DF90CF90BF90AF9008958F
:100AC0000E943D035B010E9481048A878F3F69F485
:100AD0000E943D036A197B096D327140A0F38FE0DB
:100AE0008D83CE010E946F04DCCF8E3F89F418867F
:100AF0001F8281E08E838F8198858C159D0550F42F
:100B00000E9481048F819885019698878F83F3CF07
:100B10008DE0E6CF6701E00EF11E0E948104F60130
:100B200081936F01EE15FF05C1F78F819885080F3E
:100B3000191F18870F838985882319F00115124022
:100B4000A0F08E81882389F08F8198859C012F5F8A
:100B50003F4F38872F838230924018F40E948104DF
:100B6000F3CFCE010E946F041E8281E09ECFEF92F0
:100B7000FF920F931F93CF93DF93EC01790182E1F2
:100B8000411551056105710599F08B85833039F068
:100B900089E0440F551F661F771F8A95D1F79A0188
:100BA000AB0168E1CE010E94B804882319F084E00B
:100BB0008D8330C08EEF0E947A0487018EEFF81A81
:100BC000F80181918F010E947A040E151F05C1F76B
:100BD0008FEF0E947A048FEF0E947A040E948104B2
:100BE0008A878F71853089F488E592E00E948404B9
:100BF0008823A9F020E030E0A9016DE0CE010E9439
:100C0000B804882371F084E1D3CF81E18D83CE01D4
:100C10000E946F04CE010E946F0480E00AC085E14B
:100C2000C7CF0E9481048111EECFCE010E946F04D4
:100C300081E0DF91CF911F910F91FF90EF90089588
:100C4000CF93DF9380918D038823A9F1C091900BFE
:100C5000D091910B409101015091020160910301EB
:100C60007091040120E939E0CE010E94B70581119D
:100C700004C080E0DF91CF91089540918E035091A0
:100C80008F036091900370919103411551056105A7
:100C9000710579F020E939E0CE010E94B70588237B
:100CA00041F310928E0310928F03109290031092D2
:100CB000910310928D0381E0DDCF8F929F92AF92CE
:100CC000BF92EF92FF920F931F93CF934B015C0162
:100CD000C42F8091010190910201A0910301B09174
:100CE000040188159905AA05BB0549F10E94200653
:100CF00081110BC080E0CF911F910F91FF90EF9079
:100D0000BF90AF909F908F90089580E9E82E89E082
:100D1000F82E00E012E030E020E0B501A40180915F
:100D2000900B9091910B0E941505882319F38092E6
:100D3000010190920201A0920301B092040140913E
:100D40008D034C2B40938D0381E0D5CF8F929F92E2
:100D5000AF92BF92CF92DF92EF92FF92CF932DE1AD
:100D60003DE03093910B2093900B882309F46DC0E4
:100D700040E060E070E0CB010E945D0681110BC095
:100D800080E0CF91FF90EF90DF90CF90BF90AF9039
:100D90009F908F90089580914E0B8F7789F7809167
:100DA0005A0B90915B0BA0915C0BB0915D0B84365C
:100DB0009105A105B10520F3C090560BD090570BBB
:100DC000E090580BF090590BC114D104E104F104E8
:100DD000B9F240E0C701B6010E945D06882381F2A6
:100DE00080919B0990919C098115924049F6A091B0
:100DF000A009AA2329F260919E0970919F096115AB
:100E0000710509F4BDCF20919D09222309F4B8CFC3
:100E1000A0933B0D20932D0D90E080E030E0E1E0C9
:100E2000F0E0C82FAF01082E02C0440F551F0A94EE
:100E3000E2F72417350769F041E0480F0196893041
:100E4000910579F74093360D9BCFC12CD12C7601BB
:100E5000C0CF8093360D2091A6093091A70950E0AC
:100E600040E02115310541F42091B4093091B509D4
:100E70004091B6095091B70920932E0D30932F0D54
:100E80004093300D5093310D46015701860E971E49
:100E9000A11CB11C80923C0D90923D0DA0923E0D84
:100EA000B0923F0DE091A109F091A209F093420D9B
:100EB000E093410DB0E00E940638DC01CB01880DC3
:100EC000991DAA1DBB1D8093430D9093440DA093C3
:100ED000450DB093460D25E0EE0FFF1F2A95E1F773
:100EE000E150FE4FEF2FFF27E6958E0F9F1FA11DAC
:100EF000B11D8093370D9093380DA093390DB093A9
:100F00003A0D8090A3099090A409B12CA12C8114D2
:100F1000910441F48090B0099090B109A090B20979
:100F2000B090B309C81AD90AEA0AFB0AC80CD91C3E
:100F3000EA1CFB1C04C0F694E794D794C794CA95A6
:100F4000D2F7C092320DD092330DE092340DF09270
:100F5000350D85EFC8168FE0D806E104F10428F4BA
:100F60008CE08093400D81E00CCF80E125EFC2162C
:100F70002FEFD206E104F104A0F38091BC09909117
:100F8000BD09A091BE09B091BF098093430D909314
:100F9000440DA093450DB093460D80E2E2CF4F92F1
:100FA0005F926F927F928F929F92AF92BF92CF92F9
:100FB000DF92EF92FF920F931F93CF93DF93EC0199
:100FC000423051056105710590F480E0DF91CF91C9
:100FD0001F910F91FF90EF90DF90CF90BF90AF9057
:100FE0009F908F907F906F905F904F90089589852C
:100FF0009A85AB85BC850196A11DB11D8417950707
:10100000A607B70710F3CB88DC88ED88FE888F89A8
:10101000803109F042C0BB27A72F962F852F4801AA
:1010200059012A013B01C80ED91EEA1EFB1E809100
:10103000010190910201A0910301B0910401C81631
:10104000D906EA06FB0699F58F898031C1F5B3010F
:10105000A201552766277727440F551F4057564F43
:10106000FA019182808280918D03816080938D034B
:101070008A89823080F08D819E81AF81B8858C0D08
:101080009D1DAE1DBF1D80938E0390938F03A09373
:101090009003B093910381E099CFDB01CA01E7E0AF
:1010A000B695A79597958795EA95D1F7B8CF40E083
:1010B000C701B6010E945D068111C6CF86CFB3017C
:1010C000A2014F77552766277727440F551F440FF6
:1010D000551F4057564FFA0180829182A282B382F7
:1010E000C2CF8F929F92AF92BF92CF92DF92EF9238
:1010F000FF920F931F93CF93DF93FC01818592851D
:10110000A385B4850196A11DB11D84179507A60777
:10111000B70770F480E0DF91CF911F910F91FF909E
:10112000EF90DF90CF90BF90AF909F908F900895F9
:1011300083889488A588B6888789803189F5BB27FC
:10114000A72F962F852FE9016A017B018F01BC0132
:10115000CD01680D791D8A1D9B1D80900101909025
:101160000201A0900301B090040186169706A8061C
:10117000B90601F5F8018789803111F5DD24EE24E7
:10118000FF24F601EE0FFF1FE057F64F808191819B
:10119000B0E0A0E088839983AA83BB8381E0BBCFC2
:1011A000DB01CA01C7E0B695A79597958795CA95C3
:1011B000D1F7C9CF40E00E945D068111DBCFAACFF5
:1011C000E894C7F8DD24EE24FF24F601EE0FFF1F9C
:1011D000EE0FFF1FE057F64F80819181A281B3810E
:1011E000BF70D8CF4F925F926F927F92AF92BF92B3
:1011F000CF92DF92EF92FF920F931F93CF93DF93E3
:1012000000D000D0CDB7DEB78C0149835A836B8301
:101210007C835901C12CD12C7601412C82E0582EBF
:10122000612C712C49815A816B817C819E012F5FD9
:101230003F4FC8010E947108882339F1F801858564
:10124000A301920104C0220F331F441F551F8A952A
:10125000D2F7DA01C901C80ED91EEA1EFB1E498168
:101260005A816B817C818789803111F188EF9FEFF2
:10127000AFEFBFE0481759076A077B0798F2F501FF
:10128000C082D182E282F38281E00F900F900F90B2
:101290000F90DF91CF911F910F91FF90EF90DF9012
:1012A000CF90BF90AF907F906F905F904F900895D8
:1012B00088EF9FEFA0E0B0E0DDCF8F929F92AF92DA
:1012C000BF92CF92DF92EF92FF920F931F93CF9333
:1012D000DF93EC018D8181110EC080E0DF91CF9111
:1012E0001F910F91FF90EF90DF90CF90BF90AF9044
:1012F0009F908F9008950B891C892D893E89041732
:1013000015072607370748F34A015B01823031F49D
:101310008A869B86AC86BD8681E0E0CF81149104ED
:10132000A104B10449F41E821F82188619861A8608
:101330001B861C861D86F0CF0A851B852C853D8566
:10134000EB8DFC8D858590E00996B901A80141508F
:10135000510961097109082E04C076956795579562
:1013600047950A94D2F775016401E1E0CE1AD108DD
:10137000E108F10804C0F694E794D794C7948A95DD
:10138000D2F7C416D506E606F70620F0012B022B8D
:10139000032B11F58F89988DA98DBA8D8E839F832C
:1013A000A887B9878E010A5F1F4FC114D104E104D9
:1013B000F10409F4ADCF4E815F816885798598018C
:1013C0008B8D9C8D0E94710891E0C91AD108E108AB
:1013D000F1088111EACF81CFC41AD50AE60AF70ACB
:1013E000E1CF3F924F925F926F927F928F929F9246
:1013F000AF92BF92CF92DF92EF92FF920F931F9323
:10140000CF93DF93CDB7DEB72C970FB6F894DEBF3E
:101410000FBECDBF5C01DC015B968D909C905C970C
:1014200016964D905D906D907C90199741145104E3
:101430006104710409F468C0BFEF4B1A5B0A6B0AC0
:101440007B0A312CF40181859285A385B4859C01AA
:10145000AD012F5F3F4F4F4F5F4F29873A874B8733
:101460005C87730162011D821E821F821886F4014F
:1014700081859285A385B4852D813E814F815885D4
:10148000281739074A075B0708F056C089859A85EF
:10149000AB85BC858C159D05AE05BF0550F482E07B
:1014A000C82ED12CE12CF12C92E0492E512C612C2C
:1014B000712C9E012F5F3F4FB701A601C4010E940E
:1014C00071088823C9F189819A81AB81BC81892BFC
:1014D0008A2B8B2B09F1260137019FEF491A590AF4
:1014E000690A790A2D813E814F8158852F5F3F4FD0
:1014F0004F4F5F4F2D833E834F8358873FEFC31A73
:10150000D30AE30AF30AB3CFF4014080518062802A
:1015100073803324339496CFC414D504E604F704BF
:1015200009F70FEF1FEF2FEF3FE0B701A601C4014E
:101530000E94CF07811119C080E02C960FB6F89455
:10154000DEBF0FBECDBFDF91CF911F910F91FF90F6
:10155000EF90DF90CF90BF90AF909F908F907F9053
:101560006F905F904F903F900895F50146815781AD
:1015700060857185411551056105710539F0970147
:101580008601C4010E94CF078823B1F2D5011696C7
:10159000CD92DD92ED92FC921997332051F0D70154
:1015A000C6010196A11DB11DF40180839183A28320
:1015B000B383F5018789908DA18DB28D892B8A2BFC
:1015C0008B2B39F4C78AD08EE18EF28E84818068AD
:1015D000848381E0B2CFCF93DF93EC018D818823A8
:1015E00089F18C8187FF2AC06E857F8588899989DA
:1015F00041E00E945D06882329F1EA8980E2E89FA4
:10160000F0011124E057F64F3097E1F08D818230E0
:1016100040F48B899C89AD89BE89848F958FA68F74
:10162000B78F8F89988D938F828F8F89988DA98D91
:10163000BA8DB58BA48B8C818F778C83DF91CF9102
:101640000C94200680E0DF91CF910895CF93DF9333
:10165000EC010E94EB0A882311F01D8281E0DF91EA
:10166000CF910895CF92DF92EF92FF921F93CF9385
:10167000DF9380914C0D882321F087E49DE00E9448
:10168000260B1092280D1092260D1092230D109209
:10169000220D84E08093210D0E943D03EB0161E067
:1016A0008091210D0E94AC0261E08091210D0E9489
:1016B0007E021FB7F89480918F09811127C0E8EF4F
:1016C000F1E08491E8EDF1E09491E82FF0E0EE0F85
:1016D000FF1FE653FE4FA591B491EC91E92321F44D
:1016E00061E084E00E947E0261E084E00E94AC023E
:1016F0008CB580618CBD8CB580648CBD61E087E069
:101700000E94AC0261E085E00E94AC0280918F09EA
:101710008F5F80938F091FBF82E580931B0D81E04F
:1017200080931C0D80911B0D90911C0D0E949F04B5
:101730001AE08FEF0E947A041150D9F78DE19DE0F5
:101740000E94A20420E030E0A90160E08DE19DE06C
:101750000E94B804182F8093270D8130B9F00E94A1
:101760003D036C1B7D0B613D774060F381E080930E
:10177000220D8DE19DE00E946F0480E0DF91CF910A
:101780001F91FF90EF90DF90CF9008952AEA31E00B
:1017900040E050E068E08DE19DE00E94B80482FFE7
:1017A0002AC01093280D8091280DC12CD12C7601D0
:1017B000823029F4C12CD12CE12C30E4F32E20E02E
:1017C00030E0A90167E38DE19DE00E94B804A70124
:1017D000960169E28DE19DE00E94B8048093270D97
:1017E0008823C1F00E943D036C1B7D0B613D774057
:1017F00030F388E0BCCF14E00E9481048093270D71
:101800001150D1F78A3A11F082E0B1CF82E0809393
:10181000280DC9CF8091280D8230D1F420E030E02E
:10182000A9016AE38DE19DE00E94B804882311F0CC
:1018300086E09DCF0E948104807C803C19F483E087
:101840008093280D0E9481040E9481040E948104DB
:101850008DE19DE00E946F0480E580931B0D81E087
:1018600080931C0D0E94A606882309F44DC0809128
:101870004C0D811182CF8091400D803109F04BC019
:1018800082E080934C0D10925E0D10925F0D1092CD
:10189000600D1092610D8091410D9091420DB0E06C
:1018A000A0E025E0880F991FAA1FBB1F2A95D1F73A
:1018B00080935A0D90935B0DA0935C0DB0935D0DDA
:1018C00089E29DE09093630D8093620D81E08093A7
:1018D0004B0D10924D0D10924E0D10924F0D109217
:1018E000500D1092510D1092520D1092530D1092F6
:1018F000540D1092550D1092560D1092570D1092D6
:10190000580D1092590D3ACF80E00E94A606882308
:1019100009F433CFACCF803209F02FCF83E080932E
:101920004C0D4091430D5091440D6091450D7091C7
:10193000460D40935E0D50935F0D6093600D709364
:10194000610D2AE53DE089E29DE00E94F2088111E7
:10195000B7CF13CF2F923F924F925F926F927F92A9
:101960008F929F92AF92BF92CF92DF92EF92FF92AF
:101970000F931F93CF93DF9300D000D0CDB7DEB786
:101980008C015B011A01DC0115968C911597813051
:1019900009F0C8C014968C9181FFC4C082FDAEC00E
:1019A0006101D8011A964D915D916D917C911D97C1
:1019B000C114D10409F429C15B968D919C915C9767
:1019C000FC0174802FEF270D2A013B0139E076944A
:1019D0006794579447943A95D1F7722E74207A0100
:1019E000F1E0FF22711020C0E114F104E9F4169631
:1019F0004D915D916D917C9119974115510561054E
:101A0000710509F098C057968D919D910D90BC91EC
:101A1000A02D0097A105B10509F0AFC0C8010E9433
:101A2000F109882309F47EC080E092E08E199F09B5
:101A300046018C159D0508F44C01D8015B964D912B
:101A40005C915C9716968D919D910D90BC91A02D07
:101A50000297A109B109FA01258504C0880F991FD1
:101A6000AA1FBB1F2A95D2F74685578560897189C1
:101A7000840F951FA61FB71F9C01AD01270D311DB7
:101A8000411D511D29013A01811432E0930609F0EC
:101A90007AC08091010190910201A0910301B0915F
:101AA000040184159505A605B70559F48FEF9FEF3E
:101AB000DC018093010190930201A0930301B09394
:101AC00004019501B301A2018091900B9091910BBB
:101AD0000E94B705882331F19EEFB91AC818D908BA
:101AE000F80182859385A485B585880D991DA11D72
:101AF000B11D82879387A487B58753CFF8014389A7
:101B000054896589768982859385A485B58548172A
:101B100059076A077B0709F443CFC8010E945D0992
:101B200081113ECF81E090E0D80113969C938E9373
:101B3000129780E007C09E012F5F3F4F0E947108FF
:101B4000811102C090E077C089819A81AB81BC810C
:101B5000F801238D348DF901278948EF5FEF60E0AC
:101B600070E0203121F048EF5FEF6FEF7FE08417E6
:101B70009507A607B70708F051CFF801868397832A
:101B8000A087B18751CFE114F10491F5D8011A96DD
:101B90004D915D916D917C911D9753968D919D9185
:101BA0000D90BC91A02D481759076A077B0700F1DB
:101BB0000E942006882309F4B5CF4092010150927B
:101BC0000201609203017092040180918D03816093
:101BD00080938D0397012057364FD501C901880D99
:101BE000991DF9018E179F0759F04D914193FACF36
:101BF00041E0C301B2010E945D068111EBCF92CF9B
:101C0000821B930BA80EB91E69CFF80183899489B2
:101C1000A589B68984179507A607B70738F4848184
:101C2000438B548B658B768B80688483F801848129
:101C300083FD18C0C1010F900F900F900F90DF919E
:101C4000CF911F910F91FF90EF90DF90CF90BF90B9
:101C5000AF909F908F907F906F905F904F903F904C
:101C60002F900895C8010E94EB0A882309F45ACFE7
:101C7000E1CFCF93DF931F92CDB7DEB7698341E009
:101C800050E0BE016F5F7F4F0E94AA0C0F90DF9162
:101C9000CF910895FC01DB0112968D919C911397D1
:101CA0009383828384E591E09183808314968C9161
:101CB0001497848315968C911597858316964D916C
:101CC0005D916D917C9119974683578360877187E9
:101CD0001A964D915D916D917C911D974287538726
:101CE000648775871E964D915D916D917C9151979A
:101CF00046875787608B718B52968C915297828B57
:101D000053964D915D916D917C915697438B548B79
:101D1000658B768B57964D915D916D917C915A971D
:101D2000478B508F618F728F5B968D919C91948FB2
:101D3000838F08950895DC015996ED91FC913097B9
:101D400021F081E09581911101C080E00895FC01AE
:101D5000818D928D009711F00C94EB0A0895DC01AF
:101D60005996ED91FC913097B9F083899489A589B2
:101D7000B6894285538564857585841B950BA60BB2
:101D8000B70B811520E89207A105B10538F08FEF58
:101D90009FE7A0E0B0E0089590E080E00895CF9341
:101DA000DF93EC01E98DFA8D309749F481E090E002
:101DB0009B838A8390E080E0DF91CF910895138226
:101DC0001282898D9A8D0E94AA0CE98DFA8D22814A
:101DD0003381232B59F7F0CFCF93DF931F92CDB7E9
:101DE000DEB76983DC01ED91FC910280F381E02D87
:101DF00041E050E0BE016F5F7F4F09950F90DF918A
:101E0000CF9108952F923F924F925F926F927F925F
:101E10008F929F92AF92BF92CF92DF92EF92FF92FA
:101E20000F931F93CF93DF9300D01F92CDB7DEB7F0
:101E3000FC018581811118C08FEF9FEF0F900F90EB
:101E40000F90DF91CF911F910F91FF90EF90DF9056
:101E5000CF90BF90AF909F908F907F906F905F904A
:101E60004F903F902F900895848180FFE5CF438964
:101E700054896589768982859385A485B585312CB9
:101E8000212C481759076A077B0719F0222423944D
:101E9000312C6F012101CE0101963C01DF01169624
:101EA000BB83AA834114510409F4C5C0F6014285DD
:101EB0005385648575854A01F1E09F22D6015B96C2
:101EC0008D919C915C978A019B01E9E0369527955D
:101ED00017950795EA95D1F71596EC91E230E9F55B
:101EE000FC01628D738D848D958D600F711F821F33
:101EF000931FA12C22E0B22EA818B9084A145B0443
:101F000008F45201F601248126FD04C0A114F2E078
:101F1000BF0671F4009101011091020120910301AB
:101F200030910401061717072807390709F05EC02A
:101F300040E00E945D06882309F47ECFC4018057EB
:101F4000964FD3019C012A0D3B1DFC012E173F0724
:101F500009F46CC041914D93F9CFDC011496BC900B
:101F6000BA94B0228114910479F4B1100DC0452BBC
:101F7000462B472B69F5F6018789908DA18DB28D8F
:101F800086839783A087B187D6015B96ED91FC91FC
:101F90005C9716966D917D918D919C9119976250E9
:101FA000710981099109258504C0660F771F881F73
:101FB000991F2A95D2F70685178520893189600FE8
:101FC000711F821F931F6B0D711D811D911D91CF7C
:101FD000D60116964D915D916D917C9119972A814C
:101FE0003B810E9471088111CFCF26CF73018501FB
:101FF0009401AB01BC018091900B9091910B0E94D8
:102000001505882309F418CF6A0C7B1CF60182851C
:102010009385A485B5858A0D9B1DA11DB11D828761
:102020009387A487B5874A185B083CCF281B390BD8
:10203000620E731EEBCF2A94232809F0FDCE89810E
:1020400090E0FCCEFC01818D928D009711F00C94F4
:10205000020F8FEF9FEF08950F931F93CF93DF939E
:10206000EC01898D9A8D10E000E0009799F00E94B4
:10207000020F8C010F3F100769F0898D9A8DFC01CA
:1020800042855385648575854150510961097109FF
:102090000E945D09C801DF91CF911F910F910895B2
:1020A00085ED8093BC008091BC0084FDFCCF109234
:1020B000E00B089520916803260F3327331F213248
:1020C0003105ECF42091E00BFC0190E080E024303D
:1020D00069F082E00895A09168032191AC01485B0A
:1020E0005C4FA40FB52FB11D2C930196861798F362
:1020F00080916803680F6093680380E0089581E031
:1021000008950895E091930B8091920BE81730F4B5
:10211000F0E0E854F44F808190E008958FEF9FEF56
:1021200008958091920B9091930B891B990B0895C0
:10213000CF92DF92EF92FF920F931F93CF93DF9393
:102140007C01CB018A012091940B222389F0EB01C1
:102150006B01C40ED51ECC15DD0569F06991D70160
:10216000ED91FC910190F081E02DC7010995F3CF2D
:10217000642F0E945A10C801DF91CF911F910F91D7
:10218000FF90EF90DF90CF900895CF93DF931F9251
:10219000CDB7DEB769832091940B2223F9F020910B
:1021A000B70B203258F021E030E0FC01338322836A
:1021B00090E080E00F90DF91CF9108958091950B92
:1021C000E82FF0E0EA56F44F998190838F5F809377
:1021D000950B8093B70B81E090E0ECCF61E0CE01EE
:1021E00001960E945A10F7CF682F86E69DE00C9466
:1021F000C51081E00C9495011F93CF93DF93EC0100
:10220000162F88810E94ED0189AD9AADDC01ED9118
:10221000FC910190F081E02D612F099589AD9AAD77
:102220000E94F91090E09B8B8A8BDF91CF911F91D8
:1022300008958F929F92AF92BF92CF92DF92EF92CA
:10224000FF921F93CF93DF93CDB7DEB72A970FB6D8
:10225000F894DEBF0FBECDBF9C019AE0ECE0F1E048
:10226000DE01119601900D929A95E1F74D3060F1E3
:102270004CE018EF140F912F990F690FC9010E94BC
:10228000FC10412F50E0440F551F81E090E08C0F6F
:102290009D1F480F591FFA01C080D1800E94E5029E
:1022A0004B015C01F12CE12C0E94E50268197909CF
:1022B0008A099B096C157D058E059F0548F48AE007
:1022C00090E00E94DD02F0CF483098F648E0D1CF90
:1022D0002A960FB6F894DEBF0FBECDBFDF91CF9127
:1022E0001F91FF90EF90DF90CF90BF90AF909F90A5
:1022F0008F9008950F931F93CF93DF93EC01162FC8
:10230000072F8A810E94ED018A8D9B8DDC01ED9162
:10231000FC910190F081E02D602F09958A8D9B8DB5
:10232000DC01ED91FC910190F081E02D612F099588
:102330008A8D9B8D0E94F910882341F081E8898F56
:1023400080E0DF91CF911F910F91089581E0F9CF47
:10235000CF93FC0122812454223020F0C0E08C2F46
:10236000CF91089562EA70E30E947A11C82F882302
:10237000A9F361E070E080E090E00E940A03EFCFF3
:10238000CF93DF93EC018A810E94ED018A8D9B8DB2
:102390000E94F910282F30E02115310511F084E852
:1023A000898F81E0232B09F080E0DF91CF910895A0
:1023B00090E080E00895CF93DF93C8ECD0E08AEFFF
:1023C00090E00E94DD0261E08FE00E94AC0261E0DB
:1023D0008FE00E947E028AEF90E00E94DD0261E0C1
:1023E0008FE00E94AC0260E08FE00E947E022197A5
:1023F00031F7C8ECD0E084EB90E00E94DD0261E0B0
:102400008FE00E94AC0261E08FE00E947E0284EBCC
:1024100090E00E94DD0261E08FE00E94AC0260E08B
:102420008FE00E947E02219731F7DF91CF910895CE
:10243000CF93C82F8AE60E94ED0162E086E69DE018
:102440000E94C51080E691E00E94F41086E69DE0AF
:102450000E94F9108AE60E94ED0164E186E69DE0A3
:102460000E94C51066E286E69DE0CC2309F442C0D6
:102470000E94C51069E186E69DE00E94C51060EAF1
:1024800086E69DE00E94C51066E586E69DE00E9416
:10249000C51060E086E69DE00E94C51061E086E61A
:1024A0009DE00E94C51086E69DE00E94F9108AE634
:1024B0000E94ED016AE186E69DE00E94C5106FEB87
:1024C00086E69DE00E94C51086E69DE00E94F91018
:1024D0008AE60E94ED0166E286E69DE00E94C51054
:1024E0006CE886E69DE00E94C51086E69DE0CF91EF
:1024F0000C94F9100E94C51069E986E69DE00E94DF
:10250000C51060E0BDCFCF93DF93D82FC62F8AE6EA
:102510000E94ED016D2F86E69DE00E94C5106C2F94
:1025200086E69DE00E94C51086E69DE0DF91CF9192
:102530000C94F91061E085E50E9455011092930B0F
:102540008093920B08950F931F93CF93DF93C82F1F
:1025500085E50E94ED010C2E000CDD0BCE010E94E2
:10256000F41086E69DE00E94F9100E949A120E94E3
:102570000A028C0185E50E94ED01CE0101960E94C0
:10258000F41086E69DE00E94F9100E949A120E94C3
:102590000A0220E0382FC901800F911FDF91CF91EF
:1025A0001F910F910895CF92DF92EF92FF921F93A8
:1025B000CF93DF93EC0180E2689FF0011124E05794
:1025C000F64F9385917161F0842F827449F080E019
:1025D000DF91CF911F91FF90EF90DF90CF90089502
:1025E000142F6A8B8091010190910201A091030147
:1025F000B09104018E879F87A88BB98BC488D5883A
:10260000F12CE12C7601DD24CC24CF8AD88EE98E02
:10261000FA8E828D938DB0E0A0E0AC01BD014C2913
:102620005D296E297F294F8B588F698F7A8F83851B
:102630008871B1F4848D958DA68DB78D8B8B9C8B15
:10264000AD8BBE8B81E08D831F701C831E821F8229
:10265000188619861A861B861C861D8681E0B8CFCF
:10266000803109F0B4CF9E012D5E3F4F8B8D9C8D44
:102670000E94F208882309F4AACF84E0E4CF862FD1
:10268000413208F040E2642F0E9455011092930BF2
:102690008093920B08958F929F92AF92BF92CF92A8
:1026A000DF92EF92FF92CF93DF93EC0160E00E9404
:1026B000FC108A899B89892B71F060E070E0CB0166
:1026C000DF91CF91FF90EF90DF90CF90BF90AF90D0
:1026D0009F908F90089543E0688189AD9AAD0E94E4
:1026E0003F13833050F389AD9AADDC01ED91FC913D
:1026F0000284F385E02D0995092E000CAA0BBB0B73
:102700005C019924882489AD9AADDC01ED91FC919E
:102710000284F385E02D09956C01990FEE08FF08FE
:10272000FE2CED2CDC2CCC24C80CD91CEA1CFB1C88
:1027300089AD9AADDC01ED91FC910284F385E02D29
:102740000995BC01990F880B990B6C0D7D1D8E1D91
:102750009F1DB6CFCF92DF92EF92FF920F931F9300
:10276000CF93DF938C01F62EE42EC52E462FDC018D
:1027700012966C9112975A968D919C910E943F13DC
:102780008F1113C0DE2CCE2DDC2D8C2F8D198F15C3
:10279000C8F4F801828D938DDC01ED91FC910284E7
:1027A000F385E02D09958993F0CF82E8F801818FB8
:1027B00080E0DF91CF911F910F91FF90EF90DF901C
:1027C000CF90089581E0F5CFFF920F931F93CF93A1
:1027D000DF9300D000D000D0CDB7DEB78C0166E12A
:1027E00074E20E947A11F82E882351F164E070E0BF
:1027F00080E090E00E940A03AE014F5F5F4F66E009
:10280000C8010E94AA13F82E8823D1F0898190E094
:10281000982F88272A81820F911DF801908F878B2E
:102820008C8190E0982F88272D81820F911D968BA7
:10283000858B0E943D03F8016483758386839783AB
:102840008F2D26960FB6F894DEBF0FBECDBFDF9159
:10285000CF911F910F91FF900895CF93C82F8AE6D3
:102860000E94ED016C2F86E69DE00E94C51080E07D
:102870000E94950141E06AE686E69DE00E943F13D2
:102880009091920B8091930B981721F00E940A026D
:10289000CF91089580E0FCCFCF93C82F81E50E94AF
:1028A000ED016C2F86E69DE00E94C51086E69DE056
:1028B0000E94F91041E061E586E69DE00E943F1329
:1028C0009091920B8091930B981721F00E940A022D
:1028D000CF9108958FEFFCCFDF92EF92FF920F938D
:1028E0001F93CF93DF9381E50E94ED0190E080E09C
:1028F0000E94F41086E69DE00E94F91046E061E532
:1029000086E69DE00E943F130E940A029C0194E02B
:10291000359527959A95E1F72F7033273AE0D32E16
:102920008F70D29E800D1124809395030E940A021D
:10293000982F9F7792959F708F70E82E9D9DE00C49
:1029400011240E940A02982F9F7792959F708F7092
:10295000F82E9D9DF00C11240E940A02EC010E94A9
:102960000A028C010E940A02A80164E0559547956D
:102970006A95E1F74F705527202F2F70D49E200DB8
:10298000112444E6249F90011124032E000C440BD3
:10299000550BBC01E4E075956795EA95E1F76F701A
:1029A00077278F70D69E800D1124E0E1F7E28E9F8D
:1029B000B0018F9F700D1124CB01770FAA0BBB0BB9
:1029C000820F931FA41FB51F9E01F4E03595279534
:1029D000FA95E1F72F703327CF70D29EC00D1124E6
:1029E0009C01AD012C0F311D411D511DA0E1BEE028
:1029F0000E940638AB01BC012CE3F29EC0011124F9
:102A0000092E000CAA0BBB0B8E0D911DA11DB11D33
:102A1000840F951FA61FB71F80939603909397036B
:102A2000A0939803B0939903DF91CF911F910F91D9
:102A3000FF90EF90DF900895FB0101900020E9F7EF
:102A40003197AF01461B570BDC01ED91FC910280E1
:102A5000F381E02D09948F929F92AF92BF920F93D2
:102A60001F93CF93DF93CDB7DEB7A1970FB6F8943E
:102A7000DEBF0FBECDBF19A2423008F44AE08E017E
:102A80000F5D1F4F842E912CB12CA12CA501940118
:102A90000E944438E62FB901CA01EA3004F5E05D2E
:102AA000D801EE938D01232B242B252B79F790E071
:102AB00080E0109729F0BD0181EE9BE00E941C157B
:102AC000A1960FB6F894DEBF0FBECDBFDF91CF91B8
:102AD0001F910F91BF90AF909F908F900895E95CE8
:102AE000DFCFCF93DF93BC0181EE9BE00E941C15EA
:102AF000EC016EE671E081EE9BE00E941C158C0FEC
:102B00009D1FDF91CF910895BC0181EE9BE00C9455
:102B10001C15CF93DF934AE00E942B15EC016EE663
:102B200071E081EE9BE00E941C158C0F9D1FDF91D0
:102B3000CF9108950F931F93CF93DF93EC01FB0187
:102B40004481558160817181E881F9810280F3813E
:102B5000E02D09958C016EE671E0CE010E941C15F6
:102B6000800F911FDF91CF911F910F9108950F93C7
:102B70001F93CF93DF93EC0188819981009759F0DF
:102B80002A813B812617370730F081E0DF91CF9112
:102B90001F910F9108958B016F5F7F4F0E94373A0D
:102BA000009759F0998388831B830A832C813D8188
:102BB000232B59F7FC011082E8CF80E0E7CFEF929A
:102BC000FF920F931F93CF93DF936115710541F42B
:102BD00080E0DF91CF911F910F91FF90EF900895CA
:102BE00041155105B1F07B01EC010C811D81040FF1
:102BF000151FB8010E94B715882351F32881398128
:102C00008C819D81B701820F931F0E94393B1D83E8
:102C10000C8381E0DECFFB0101900020E9F73197C2
:102C2000AF01461B570B0C94DF15FB014481558106
:102C3000608171810C94DF15CF93DF93EC01888163
:102C40009981009711F00E94AE39198218821D8275
:102C50001C821B821A82DF91CF910895CF93DF935C
:102C6000EC01FB0101900020E9F73197AF01461B11
:102C7000570B0E94DF15811103C0CE010E941C1664
:102C8000CE01DF91CF910895EF92FF920F931F93A2
:102C9000CF93DF93EC017B018A01BA010E94B71543
:102CA00081110BC0CE010E941C16CE01DF91CF9185
:102CB0001F910F91FF90EF9008951D830C83B70132
:102CC000888199810E94393BF0CFFB01019000205F
:102CD000E9F73197AF01461B570B0C9444160F933D
:102CE0001F93CF93DF93CDB7DEB7A1970FB6F894BC
:102CF000DEBF0FBECDBF8C01CB01BA01F80111823E
:102D0000108213821282158214822AE0AE014F5F74
:102D10005F4F0E943734BE016F5F7F4FC8010E9432
:102D20006516A1960FB6F894DEBF0FBECDBFDF913A
:102D3000CF911F910F9108950F931F93CF93DF931E
:102D4000CDB7DEB761970FB6F894DEBF0FBECDBF2B
:102D50008C01CB01F801118210821382128215823C
:102D600014824AE0BE016F5F7F4F0E946434BE014F
:102D70006F5F7F4FC8010E94651661960FB6F89489
:102D8000DEBF0FBECDBFDF91CF911F910F91089590
:102D90000F931F93CF93DF93CDB7DEB762970FB634
:102DA000F894DEBF0FBECDBF8C01CB01F8011182BC
:102DB000108213821282158214824AE0BE016F5F74
:102DC0007F4F0E942C34BE016F5F7F4FC8010E946D
:102DD000651662960FB6F894DEBF0FBECDBFDF91C9
:102DE000CF911F910F9108950F931F93CF93DF936E
:102DF000CDB7DEB729970FB6F894DEBF0FBECDBFB3
:102E00008C01862FF80111821082138212821582A2
:102E1000148250E0BE016F5F7F4F90E00E945934F2
:102E2000BE016F5F7F4FC8010E94651629960FB6DD
:102E3000F894DEBF0FBECDBFDF91CF911F910F91F0
:102E40000895CF93DF93EC01FB018617970749F0B4
:102E5000608171816115710541F0448155810E9445
:102E60004416CE01DF91CF9108950E941C16F9CF30
:102E7000FC011182108213821282158214820C943A
:102E80002117FC0111821082138212821582148292
:102E9000FB0101900020E9F73197AF01461B570B6A
:102EA0000C944416FC0180819181009711F00C94E0
:102EB000AE390895CF93DF93EC01898D9A8D0097F9
:102EC00041F00E94260B898D9A8D0E94AE391A8E90
:102ED000198EDF91CF910895EF92FF920F931F9378
:102EE000CF93DF93CDB7DEB7A1970FB6F894DEBFCF
:102EF0000FBECDBF7C01CB01BA01F7011182108258
:102F0000138212821582148242E0420F8E010F5FFB
:102F10001F4F0E940E34009789F0BC01C7010E9428
:102F20006516A1960FB6F894DEBF0FBECDBFDF9138
:102F3000CF911F910F91FF90EF900895C7010E94CC
:102F40001C16EFCF3F924F925F926F927F928F92BB
:102F50009F92AF92BF92CF92DF92EF92FF920F9328
:102F60001F93CF93DF93CDB7DEB72B970FB6F894AF
:102F7000DEBF0FBECDBF7C01DC0115968C918111A7
:102F800015C0FE013196CE010C966F0130E23193EF
:102F9000E817F907E1F7DA0130E087E09D91B92EF3
:102FA000992329F19E3239F48A3011F480E0E3C08C
:102FB00038E08AE0F3CFE6E8F1E04491442321F0E1
:102FC00031969413FACFF2CF831780F34FED490F68
:102FD0004E3560F74FE9490F4A3118F440EEB42EF0
:102FE000B90EF601E30FF11DB0823F5FD7CF8981A3
:102FF0008032E1F2322E8B01FB01838D948DD7015B
:103000005C969C938E935B9716821782108611862E
:103010001286138614861586F80182859385A48509
:10302000B585438954896589768984179507A607EC
:10303000B70708F04DC025E0B695A79597958795F9
:103040002A95D1F7F82FFF70AF2ED80115968C91E5
:10305000823008F4ABCFC8010E94020F97FDA6CFC3
:10306000F80182859385A485B5854F96A11DB11D74
:1030700082879387A487B587F0E2AF9EB0011124C1
:103080006057764F6115710509F490CFDB018C9183
:10309000882341F0853E09F061C0BB2029F0BB24A4
:1030A000B394BACFB1100EC0F701A28A809101018A
:1030B00090910201A0910301B09104018687978746
:1030C000A08BB18BDB018C918111E9CFBB24B39430
:1030D000832D8271823109F069CFBB2009F463C06E
:1030E000F701668577858089918941E00E945D06B8
:1030F000882309F45BCFD70152968C91B0E28B9F65
:10310000C00111248057964F009709F44FCFFC015E
:103110003A9626E1DF011D922A95E9F72BE0F601A8
:10312000DC0101900D922A95E1F721E238E2FC01E1
:10313000318B208B40E058E057874687338B228BBA
:10314000318F208F578B468B0E942006882309F4ED
:103150002DCF432DD70152966C910AC04BE050E021
:10316000C6010E94183B892B09F056CF432D6A2DCA
:10317000C7010E94D3122B960FB6F894DEBF0FBE84
:10318000CDBFDF91CF911F910F91FF90EF90DF9016
:10319000CF90BF90AF909F908F907F906F905F90F7
:1031A0004F903F900895F8018581823009F4FECE5A
:1031B000C8010E94F109882309F4F8CED8015B9672
:1031C000ED91FC915C9716968D909D90AD90BC9082
:1031D0001997B2E08B1A9108A108B108858504C03F
:1031E000880C991CAA1CBB1C8A95D2F786859785EA
:1031F000A089B189880E991EAA1EBB1E8481240154
:103200003501480E511C611C711C84149504A604E0
:10321000B70401F1E1E04E1A5108610871080E94FB
:103220002006882309F4C2CEE0E9F9E0119280E992
:103230009BE08E179F07D1F7409201015092020147
:10324000609203017092040180918D0381608093EC
:103250008D03DBCFD8015B96ED91FC91258580E055
:1032600092E0A0E0B0E004C0880F991FAA1FBB1F26
:103270002A95D2F7F8014389548965897689840FA4
:10328000951FA61FB71F838B948BA58BB68BD70179
:1032900052961C9280E999E03ACFEF92FF920F93F9
:1032A0001F93CF93DF93EC017B018A011B821A826B
:1032B00088EE93E0A0E0B0E08C839D83AE83BF8373
:1032C00080E391E0998388838DE190E00E94123938
:1032D0009A8F898F009779F02DE1F701DC01019039
:1032E0000D922A95E1F74CE050E0B801CE010C9622
:1032F0000E94403B188EDF91CF911F910F91FF905C
:10330000EF9008952F923F924F925F926F927F922B
:103310008F929F92AF92BF92CF92DF92EF92FF92E5
:103320000F931F93CF93DF93CDB7DEB7C656D10966
:103330000FB6F894DEBF0FBECDBF5C013B014E015E
:103340008EE1880E911C67E47DE0C4010E944A0E64
:103350001C821B8284E591E09A8389831E8263012B
:103360008E010F5F1F4F240118016FE270E0C6014C
:103370000E942E3B009709F459C0F60120812F329C
:1033800071F4FFEFCF1ADF0A902F812F8201492EAF
:10339000582E942D852D2801092F182FE6CF8C1932
:1033A0008D3008F08CE0E82EF12CA701B601CE019B
:1033B000885A9F4F0E94403BE8E5F0E0EC0FFD1F6C
:1033C000EE0DFF1D1082C8010E94260B21E0AE0108
:1033D000485A5F4FB201C8010E94A217811120C054
:1033E0001EAE1DAE84E591E09CAF8BAF21961FAE63
:1033F0002197A796EEADFFADA7976E0E7F1EF30146
:103400008081811120C0BE01655C7F4FC1010E9497
:103410004A0E41E751E0B101C5010E944D1931C08A
:10342000CE0CDF1CC2010E94260BB3CFC601861949
:103430009709A7969FAF8EAFA797B201CE01CB9603
:103440000E944A0ED6CF19A218A284E591E09F8F60
:103450008E8F1BA221968FAD219781112DC0F50172
:103460001382128288EE93E0A0E0B0E0848395831B
:10347000A683B78380E391E091838083128E118EBF
:103480001486C501CA59DF4F0FB6F894DEBF0FBED0
:10349000CDBFDF91CF911F910F91FF90EF90DF9003
:1034A000CF90BF90AF909F908F907F906F905F90E4
:1034B0004F903F902F900895825023E1A3018230D6
:1034C000A0F467E47DE0C4010E94A217882339F2CA
:1034D00049A95AA96BA97CA9C4010E945D09B4013C
:1034E000C1010E944A0EA30196CFBE01655C7F4FC9
:1034F000C4010E94A217882309F4B1CFCE01CB9654
:103500000E94260BE5CF2F923F924F925F926F92CF
:103510007F928F929F92AF92BF92CF92DF92EF9263
:10352000FF920F931F93CF93DF93CDB7DEB7CA5AA5
:10353000D1090FB6F894DEBF0FBECDBFE0918E0C5F
:10354000F0918F0C32E03083E0918A0CF0918B0C7B
:103550001082E0918C0CF0918D0C28E02083109269
:10356000960CE091920CF091930C96E09083E09190
:10357000900CF091910C808188698083E091900C8F
:10358000F091910C80818F7D8083E091F10BF0911F
:10359000F20B3083E091ED0BF091EE0B1082E09195
:1035A000EF0BF091F00B20831092F90BE091F50BEB
:1035B000F091F60B9083E091F30BF091F40B808186
:1035C00088698083E091F30BF091F40B80818F7D0B
:1035D000808380E28093B80087E791E00E947115B4
:1035E00060E08BE10E94AC0260E085E10E94AC02E9
:1035F00060E08DE10E94AC0260E08EE10E94AC02CE
:1036000061E086E10E94AC0261E087E10E94AC02C9
:1036100060E080E00E94AC0261E08FE00E94AC02BA
:1036200061E082E10E94AC0261E082E10E947E02E0
:1036300061E082E00E94AC0261E082E00E947E02D2
:1036400061E08AE10E94AC0261E08AE10E947E02B0
:1036500061E083E10E94AC0261E083E00E94AC0281
:1036600061E084E00E94AC0260E085E00E94AC0270
:1036700060E086E00E94AC0261E087E00E94AC025C
:1036800061E083E10E947E0261E084E00E947E02AC
:1036900060E087E00E947E0264E670E080E090E0F7
:1036A0000E940A0360E083E00E947E0261E084E100
:1036B0000E94AC0260E084E10E947E0280E00E94F1
:1036C000181264E670E080E090E00E940A0386E150
:1036D0000E942D14182F082F0F7D602F86E10E9465
:1036E000831262E370E080E090E00E940A03602FA2
:1036F000606486E10E94831268EC70E080E090E0F4
:103700000E940A03612F6F7986E10E94831264E1AF
:1037100070E080E090E00E940A0387E20E942D148E
:10372000682F6F7E87E20E94831286E20E942D142A
:103730008F7C682F626C86E20E94831262E370E0E5
:1037400080E090E00E940A038AE60E94ED0160E3B7
:1037500086E69DE00E94C51080E00E94950142E04F
:103760006AE686E69DE00E943F138091920B90915D
:10377000930B891B990B30E020E002974CF00E94DC
:103780000A028C010E940A0220E0382F202B312BE4
:10379000369527953F70A7ECB0E00E94113824E6DB
:1037A00030E040E050E00E944438309347032093DB
:1037B000460381E0283B3B4008F480E08093000111
:1037C0000E9418128BE10E945502892B09F409C14D
:1037D00088E19FE00FB6F894A895809360000FBE33
:1037E000909360008AE60E94ED018DE290E00E94D5
:1037F000F41086E69DE00E94F91041E06AE686E654
:103800009DE00E943F130E940A02A89568EE73E0B3
:1038100080E090E00E940A03A89568EE73E080E0E3
:1038200090E00E940A03A89568EE73E080E090E0C3
:103830000E940A03A89511E001E08AE60E94ED01CA
:103840008DE290E00E94F41086E69DE00E94F9105F
:1038500041E06AE686E69DE00E943F130E940A026C
:10386000A8958F77813108F070C08BE10E945502D6
:10387000682F8DE00E947E0281E50E94ED0188E2C2
:1038800090E00E94F41085E990E00E94F41086E632
:103890009DE00E94F910A89568EE73E080E090E04A
:1038A0000E940A03A89568EE73E080E090E00E9411
:1038B0000A03A89568EE73E080E090E00E940A0396
:1038C000A89508EC10E08AEF90E00E94DD0261E02C
:1038D0008FE00E94AC0261E08FE00E947E028AEFDE
:1038E00090E00E94DD0261E08FE00E94AC0260E0A7
:1038F0008FE00E947E020150110929F781E50E94A4
:10390000ED0167E286E69DE00E94C51063E086E671
:103910009DE00E94C51085E990E00E94F41086E6C3
:103920009DE00E94F9108AE60E94ED0168E186E6BA
:103930009DE00E94C5106AE086E69DE00E94C510E9
:1039400086E69DE00E94F910FFCFA8951123F9F0BB
:1039500061E0002339F183E00E947E020E94DB11C6
:1039600081E70E94ED0160E086E69DE00E94C510BF
:1039700063E186E69DE00E94C51086E69DE00E9418
:10398000F91068EE73E080E090E00E940A038EE197
:103990000E94550210E0892B09F04FCF81E00827E3
:1039A00011E04BCF8CE00E94AC0260E08CE00E9402
:1039B0007E020E94DB1181E70E94ED0160E086E655
:1039C0009DE00E94C51060E186E69DE00E94C51062
:1039D00086E69DE00E94F91060E083E00E947E028E
:1039E000D0CF61E084E10E94AC0261E084E10E94FA
:1039F0007E0215E060E570E080E090E00E940A033E
:103A000061E08CE00E94AC0261E08CE00E947E02EA
:103A100060E570E080E090E00E940A0360E08CE0E6
:103A20000E947E02115031F761E08CE00E947E021C
:103A300008EC10E084EB90E00E94DD0261E08FE092
:103A40000E94AC0261E08FE00E947E0284EB90E075
:103A50000E94DD0261E08FE00E94AC0260E08FE036
:103A60000E947E020150110929F780E891E00E942E
:103A7000711560E087E10E947E0261E086E10E94AC
:103A80007E0281E50E94ED0167E286E69DE00E94EC
:103A9000C51063E086E69DE00E94C51067E986E6F2
:103AA0009DE00E94C51088E199E20FB6F894A895B0
:103AB000809360000FBE909360000E946C14809110
:103AC000960390919703A0919803B09199038093E6
:103AD000420390934303A0934403B093450389E8C2
:103AE00091E00E948415609142037091430380919C
:103AF0004403909145030E94891580E50E94ED01E1
:103B000060E086E69DE00E94C51060E086E69DE0EC
:103B10000E94C51086E69DE00E94F91010E055E372
:103B2000C52ED12CE12EF12CA6014E195F09413191
:103B3000510510F040E150E060E586E69DE00E940E
:103B40003F13E1E0F0E0EC0FFD1FEE0EFF1E909141
:103B5000920B8091930B981759F0153310F00C9439
:103B600097260E940A021F5FF70181937F01EFCF22
:103B7000153310F00C94972680E50E94ED0160E06B
:103B800086E69DE00E94C510612F86E69DE00E94BA
:103B9000C51086E69DE00E94F910C4CF8E8D9F8DE2
:103BA000A8A1B9A180933E0390933F03A093400343
:103BB000B093410384E991E00E94841560913E0333
:103BC00070913F0380914003909141030E948915B9
:103BD00087EA91E00E9484156A8D7B8D8C8D9D8D86
:103BE0000E9489158AEB91E00E9484156AA17BA14D
:103BF0008CA19DA10E948915C0903E03D0903F03E7
:103C0000E0904003F0904103412C512C3201C1144B
:103C1000D104E104F104A1F0409042035090430329
:103C20006090440370904503C40CD51CE61CF71C3F
:103C30008AA19BA1ACA1BDA1481A590A6A0A7B0AB4
:103C40003CE3832E912CA12CB12CC701B601A50118
:103C500094010E944438CE55DF4F6883C25AD04049
:103C6000C056DF4F7883C05AD040CF55DF4F88838E
:103C7000C15AD040C855DF4F9883C85AD040CB5561
:103C8000DF4F6883C55AD040CA01B901A50194012C
:103C90000E944438CD55DF4F6883C35AD040872EE9
:103CA000C755DF4F8883C95AD040C655DF4F988328
:103CB000CA5AD040CA55DF4F6883C65AD040C701A0
:103CC000B60120E13EE040E050E00E944438CA01E5
:103CD000B90128E130E040E050E00E944438CC5582
:103CE000DF4F6883C45AD040972E5C01C955DF4F1F
:103CF0006883C75AD040C701B60120E831E541E0EA
:103D000050E00E94443842EB242E47E0342EE4E693
:103D1000F0E08101037011270115110531F4C10193
:103D2000BF010E943038892B39F4C10160E971E08C
:103D30000E943038892B59F48EE691E02817390714
:103D400048F0281B390B8FEF281A380AE2CF8DE68E
:103D500091E0F4CF8CE0E6E1F1E0DE01D69601904F
:103D60000D928A95E1F7012B39F4C10164E670E008
:103D70000E943038892B39F4C10160E971E00E945A
:103D80003038892B11F48DE18FAB01E0E5E3F0E0F1
:103D9000EC0FFD1FE00FF11D808190E0281739071F
:103DA00020F0281B390B0F5FF1CF11E0120F88EEC6
:103DB00091E00E948415C301B2010E94891583EF2E
:103DC00091E00E948415C701B6010E94891587E021
:103DD00092E00E948415B10190E080E04AE00E94E8
:103DE0002B1586E192E00E9484150A3020F485E7C5
:103DF00091E00E948415602F70E090E080E04AE03E
:103E00000E942B1586E192E00E9484151A3020F45E
:103E100085E791E00E948415612F70E090E080E0DA
:103E20004AE00E942B1588E192E00E948415C95552
:103E3000DF4F9881C75AD0409A3020F485E791E04F
:103E40000E9484154AE0CC55DF4F6881C45AD040A7
:103E5000792DC5010E942B158AE192E00E948415FC
:103E6000CA55DF4FE881C65AD040EA3020F485E7D2
:103E700091E00E9484154AE0CD55DF4F6881C35A16
:103E8000D040782DC755DF4F8881C95AD040C655DC
:103E9000DF4F9881CA5AD0400E942B158AE192E0E8
:103EA0000E948415CB55DF4FF881C55AD040FA30B7
:103EB00020F485E791E00E9484154AE0CE55DF4F5B
:103EC0006881C25AD040C056DF4F7881C05AD04076
:103ED000CF55DF4F8881C15AD040C855DF4F9881F8
:103EE000C85AD0400E942B156EE671E081EE9BE02F
:103EF0000E941C156CE172E0CE01C6960E9441172B
:103F000040917C0D50917D0D6091780D7091790DEF
:103F1000CE01C6960E94DF15811104C0CE01C6965F
:103F20000E941C166CE272E0CE01C6960E942E160C
:103F30005C014091820D5091830D60917E0D7091D6
:103F40007F0D0E94DF15811103C0C5010E941C1660
:103F50006EE272E0C5010E942E164E012AE9820E21
:103F6000911CBC01C4010E9438175E0186E3A80EB3
:103F7000B11CC5010E9452178BE50E94ED0188E03B
:103F800090E00E94F41090E080E00E94F41086E639
:103F90009DE00E94F91040E16BE586E69DE00E94FD
:103FA0003F1390E1C056DF4F9883C05AD0400E9423
:103FB0000A02CF55DF4F8883C15AD040803128F4A0
:103FC00065E771E0C4010E940B1640E1CF55DF4F59
:103FD0006881C15AD040C5010E94F416B501C401E0
:103FE0000E941516C5010E945217C056DF4FE88186
:103FF000C05AD040E150C056DF4FE883C05AD0408D
:10400000E111D5CF60E372E0C4010E940B1688E590
:104010000E94ED0188E090E00E94F41090E080E0C2
:104020000E94F41086E69DE00E94F91040E168E5E8
:1040300086E69DE00E943F1320E1B22E0E940A0214
:10404000A82EFFE0F81738F065E771E0CE0186563C
:104050009F4F0E940B1661E082E00E94AC0261E07B
:1040600082E00E947E0261E08AE10E94AC0261E08F
:104070008AE10E947E0240E16A2DCE01C6960E942E
:10408000F416BE016A5C7F4FCE0186569F4F0E9498
:104090001516CE01C6960E945217BA94B110CECF13
:1040A0006EE272E0CE0186569F4F0E940B1680E5AD
:1040B0000E94ED0190E080E00E94F41090E080E02A
:1040C0000E94F41086E69DE00E94F91042E060E54F
:1040D00086E69DE00E943F130E940A02B82E80935C
:1040E0003D030E940A0280933C0340E16B2DCE0108
:1040F000C6960E94F416BE016A5C7F4FCE018656BA
:104100009F4F0E941516CE01C6960E94521740E19D
:1041100060913C03CE01C6960E94F416BE016A5C13
:104120007F4FCE0186569F4F0E941516CE01C69630
:104130000E94521766E472E0CE0186569F4F0E949D
:104140000B168BE50E94ED0188E090E00E94F410D0
:1041500090E080E00E94F41086E69DE00E94F91055
:1041600040E16BE586E69DE00E943F1390E1B92EA9
:104170000E940A02A82E2FE0281738F065E771E0A8
:10418000CE0186569F4F0E940B1640E16A2DCE014C
:10419000C6960E94F416BE016A5C7F4FCE01865619
:1041A0009F4F0E941516CE01C6960E945217BA94D0
:1041B000B110DECF6EE272E0CE0186569F4F0E94B4
:1041C0000B1683E50E94ED0190E080E00E94F41060
:1041D00090E080E00E94F41086E69DE00E94F910D5
:1041E00042E063E586E69DE00E943F130E940A02DA
:1041F000B82E80933B030E940A0280933A0340E169
:104200006B2DCE01C6960E94F416BE016A5C7F4FEC
:10421000CE0186569F4F0E941516CE01C6960E946B
:10422000521740E160913A03CE01C6960E94F416FF
:10423000BE016A5C7F4FCE0186569F4F0E941516C5
:10424000CE01C6960E9452176AE572E0CE018656EC
:104250009F4F0E940B168091000163E771E081116E
:1042600002C065E771E0CE0186569F4F0E940B1693
:104270006EE272E0CE0186569F4F0E940B1660914F
:10428000460370914703CE01C6960E949C16BE015C
:104290006A5C7F4FCE0186569F4F0E941516CE0155
:1042A000C6960E94521763E672E0CE0186569F4F73
:1042B0000E940B16409142035091430360914403C6
:1042C00070914503CE01C6960E946F16BE016A5CCE
:1042D0007F4FCE0186569F4F0E941516CE01C6967F
:1042E0000E9452176EE272E0CE0186569F4F0E94E6
:1042F0000B1640913E0350913F0360914003709133
:104300004103CE01C6960E946F16BE016A5C7F4FC4
:10431000CE0186569F4F0E941516CE01C6960E946A
:1043200052176EE272E0CE0186569F4F0E940B1626
:10433000B701A601CE01C6960E946F16BE016A5C47
:104340007F4FCE0186569F4F0E941516CE01C6960E
:104350000E9452176EE272E0CE0186569F4F0E9475
:104360000B16B301A201CE01C6960E946F16BE01C4
:104370006A5C7F4FCE0186569F4F0E941516CE0174
:10438000C6960E9452176EE272E0CE0186569F4F8B
:104390000E940B16B101CE01C6960E949C16BE016A
:1043A0006A5C7F4FCE0186569F4F0E941516CE0144
:1043B000C6960E94521766E172E0CE0186569F4F64
:1043C0000E940B160A3038F465E771E0CE0186567C
:1043D0009F4F0E940B164AE0602FCE01C6960E94A6
:1043E000F416BE016A5C7F4FCE0186569F4F0E9435
:1043F0001516CE01C6960E94521766E172E0CE01F4
:1044000086569F4F0E940B161A3038F465E771E00C
:10441000CE0186569F4F0E940B164AE0612FCE01B7
:10442000C6960E94F416BE016A5C7F4FCE01865686
:104430009F4F0E941516CE01C6960E94521768E142
:1044400072E0CE0186569F4F0E940B16C955DF4F72
:104450008881C75AD0408A3038F465E771E0CE01D0
:1044600086569F4F0E940B164AE0CC55DF4F68815D
:10447000C45AD040CE01C6960E94F416BE016A5CB2
:104480007F4FCE0186569F4F0E941516CE01C696CD
:104490000E9452176AE172E0CE0186569F4F0E9439
:1044A0000B16CA55DF4F9881C65AD0409A3038F45F
:1044B00065E771E0CE0186569F4F0E940B164AE0D9
:1044C000CD55DF4F6881C35AD040CE01C6960E94B9
:1044D000F416BE016A5C7F4FCE0186569F4F0E9444
:1044E0001516CE01C6960E9452176AE172E0CE01FF
:1044F00086569F4F0E940B16CB55DF4FE881C55A59
:10450000D040EA3038F465E771E0CE0186569F4F1F
:104510000E940B164AE0CE55DF4F6881C25AD04048
:10452000CE01C6960E94F416BE016A5C7F4FCE0192
:1045300086569F4F0E941516CE01C6960E945217AE
:1045400060E082E10E947E020E94320B811106C06F
:104550008CE692E00E9471151092050181E090E0D6
:1045600090939403809393037E01F0E7EF0EF11C88
:1045700084E5A82E81E0B82E609193037091940396
:10458000683C710508F017C1CE01C6960E949C16C2
:10459000BE016A5C7F4FCE018D5A9F4F0E94381733
:1045A0006BE772E0CE018D5A9F4F0E942E16BC0120
:1045B00082E79DE00E942117CE018D5A9F4F0E94F5
:1045C0005217CE01C6960E945217C090720DD0901D
:1045D000730DF70113821282B182A0821582679651
:1045E0001FAE1EAE67976596BFAEAEAE6597699675
:1045F0001FAE6997512C412C7E2C6F2C07E41DE0D7
:10460000852D942DF601E80FF91F20812F3209F432
:104610000196D601A80FB91FFE01E357FF4F30E006
:1046200020E04F014D914F3249F0442339F001967B
:104630002F5F3F4F41932C303105A1F7280D391DD5
:10464000F9011082F601E80FF91F20812F3209F4D9
:104650000196582E492E8C0D9D1DFC01308019AEFF
:1046600018AEBFAAAEAA1BAE21E0A401B801CE01CC
:10467000C6960E94A217882309F496C0CE01C6965A
:104680000E94260B311011C02DE00734120719F0DB
:10469000C8010E94260B8091930390919403019688
:1046A000909394038093930367CF21E0A401B80112
:1046B000872D962D0E94A217982EFDE007341F0724
:1046C00009F429C3C8010E94260B91102AC373C0A4
:1046D00086E992E00E9471151092050166C10E9460
:1046E0006C1460EA72E0CE0180599F4F0E9441171E
:1046F00040919603509197036091980370919903AC
:10470000CE01C6960E946F16BE016A5C7F4FCE0135
:1047100080599F4F0E941516CE01C6960E945217CF
:104720006EE771E0CE0180599F4F0E940B164AE060
:1047300060919503CE01C6960E94F416BE016A5C94
:104740007F4FCE0180599F4F0E941516CE01C6960D
:104750000E94521762EC72E0CE0180599F4F0E9476
:104760000B16103138F465E771E0CE0180599F4F88
:104770000E940B1640E1612FCE01C6960E94F416EE
:10478000BE016A5C7F4FCE0180599F4F0E94151673
:10479000CE01C6960E94521768EB72E0CE01805996
:1047A0009F4F0E940B16FAC19DE00734190719F0BC
:1047B000C8010E94260B6091930370919403CE016F
:1047C000C6960E949C16BE016A5C7F4FCE018D5A30
:1047D0009F4F0E9438176BE772E0CE018D5A9F4FB2
:1047E0000E942E16BC0182E79DE00E942117CE0197
:1047F0008D5A9F4F0E945217CE01C6960E945217A3
:1048000015E060E570E080E090E00E940A0361E05E
:104810008DE00E94AC0261E08DE00E947E0260E5C6
:1048200070E080E090E00E940A0360E08DE00E946A
:104830007E02115031F761E08DE00E947E026091AE
:10484000720D7091730DCE018D5A9F4F0E94821987
:10485000AE96EEADFFADAE97C12CD12C7601309760
:1048600021F0C388D488E588F68880E892E00E9429
:104870008415C701B6010E94891581E8C81683E234
:10488000D80683E4E806F10408F470C0CE018D5A1E
:104890009F4F0E945A1760919303709194036F5F2A
:1048A0007F4F7093940360939303CE01C6960E944A
:1048B0009C16BE016A5C7F4FCE0180599F4F0E94BB
:1048C00038176BE772E0CE0180599F4F0E942E1679
:1048D000BC0182E79DE00E942117CE0180599F4FC5
:1048E0000E945217CE01C6960E9452176091720D17
:1048F0007091730DCE01C6960E94821988AD99AD54
:1049000067969FAF8EAF67978AAD9BADACADBDADDF
:104910006B968CAF9DAFAEAFBFAF6B9722968CAD51
:104920009DADAEADBFAD22976F968CAF9DAFAEAFD4
:10493000BFAF6F97A6E3B0E0AC0FBD1F1C96E3E5D9
:10494000F0E0EC0FFD1F3C9683E590E08C0F9D1F7F
:1049500049962D912193E817F907D9F761968EAD05
:104960009FAD6197AE969FAF8EAFAE978BE892E00A
:104970000E94841562E77DE081EE9BE00E949A151B
:10498000CE018D5A9F4F0E949B0E882309F4A0CE22
:10499000BE0166567F4FCE018D5A9F4F0E949A15D9
:1049A000CE018D5A9F4F0E945A17BE0166567F4F07
:1049B00081EE9BE00E949A1587E00E944C14182F0C
:1049C00088E20E944C14082F807117FD02C08111EB
:1049D00086CE81E50E94ED0163E286E69DE00E94BD
:1049E000C51060E086E69DE00E94C51060E086E6A6
:1049F0009DE00E94C51065E086E69DE00E94C5101E
:104A000060E086E69DE00E94C51060E086E69DE0DD
:104A10000E94C51067E986E69DE00E94C51060E02F
:104A200086E69DE00E94C51060E086E69DE00E945B
:104A3000C51086E69DE00E94F91081E50E94ED0117
:104A40008FE290E00E94F4108CE290E00E94F4105B
:104A500086E69DE00E94F91081E50E94ED0188E262
:104A600090E00E94F41087E990E00E94F41086E63E
:104A70009DE00E94F91081E50E94ED0160E086E66C
:104A80009DE00E94C51060E086E69DE00E94C51092
:104A900060E086E69DE00E94C51060E086E69DE04D
:104AA0000E94C51060E086E69DE00E94C51060E0AF
:104AB00086E69DE00E94C51060E086E69DE00E94CB
:104AC000C51086E69DE00E94F9100E946C1460EA11
:104AD00072E0CE0180599F4F0E944117409196038A
:104AE000509197036091980370919903CE01C696F7
:104AF0000E946F16BE016A5C7F4FCE0180599F4FA6
:104B00000E941516CE01C6960E9452176EE771E0FC
:104B1000CE0180599F4F0E940B164AE06091950389
:104B2000CE01C6960E94F416BE016A5C7F4FCE018C
:104B300080599F4F0E941516CE01C6960E945217AB
:104B400069EA72E0CE0180599F4F0E940B16103126
:104B500038F465E771E0CE0180599F4F0E940B1633
:104B600040E1612FCE01C6960E94F416BE016A5C38
:104B70007F4FCE0180599F4F0E941516CE01C696D9
:104B80000E94521768EB72E0CE0180599F4F0E943D
:104B90000B1665E771E0003108F400CE40E1602FAC
:104BA000CE01C6960E94F416BE016A5C7F4FCE010C
:104BB00080599F4F0E941516CE01C6960E9452172B
:104BC000BE0160597F4F81EE9BE00E949A15809153
:104BD00005018823E9F00E94320B8823C9F0609117
:104BE000720D7091730DCE01C6960E948219CE018E
:104BF000C6960E949B0E882359F0BE0160597F4FD4
:104C0000CE01C6960E949A15CE01C6960E945A17EA
:104C1000CE0180599F4F0E94521761E082E10E94AD
:104C20007E0261E084E10E94AC0260E084E10E94C7
:104C30007E0215E060E570E080E090E00E940A03EB
:104C400061E08EE00E94AC0261E08EE00E947E0294
:104C500060E570E080E090E00E940A0360E08EE092
:104C60000E947E02115031F760E08CE00E947E02CB
:104C700060E08DE00E947E0261E082E00E94AC0272
:104C800060E082E00E947E020FB6F894A8958091C1
:104C90006000886180936000109260000FBEF894FD
:104CA000109280008DE08093810087E998E99093CD
:104CB000890080938800109285001092840082E021
:104CC00080936F001092900085E080939100109285
:104CD0009500109294007894CE0186569F4F0E94C2
:104CE0005217C655DF4F0FB6F894DEBF0FBECDBFCB
:104CF000DF91CF911F910F91FF90EF90DF90CF90B8
:104D0000BF90AF909F908F907F906F905F904F90EB
:104D10003F902F900895882309F44DCD8E010D5AB0
:104D20001F4F902F812F072D162D3C0169CC153375
:104D300011F40C94CE1D84ED91E00E947115109237
:104D40003E0310923F0310924003109241030C94D3
:104D5000FC1D1F920F920FB60F9211242F933F93B9
:104D60008F939F93AF93BF93809187099091880908
:104D7000A0918909B0918A093091860926E0230F14
:104D80002D3768F129E8230F0396A11DB11D20934B
:104D900086098093870990938809A0938909B09325
:104DA0008A0980918B0990918C09A0918D09B0910D
:104DB0008E090196A11DB11D80938B0990938C09DA
:104DC000A0938D09B0938E09BF91AF919F918F9160
:104DD0003F912F910F900FBE0F901F901895029644
:104DE000A11DB11DD4CF1F920F920FB60F921124A7
:104DF0000BB60F922F933F934F935F936F937F93D5
:104E00008F939F93AF93BF93EF93FF9381EE9BE0BC
:104E10000E94C703FF91EF91BF91AF919F918F9136
:104E20007F916F915F914F913F912F910F900BBEAA
:104E30000F900FBE0F901F9018951F920F920FB6F4
:104E40000F9211240BB60F922F938F939F93EF9392
:104E5000FF93E091F10BF091F20B8081E091F70B61
:104E6000F091F80B82FD1DC090818091FA0B8F5F4D
:104E70008F732091FB0B821741F0E091FA0BF0E069
:104E8000EF51F44F958F8093FA0BFF91EF919F9123
:104E90008F912F910F900BBE0F900FBE0F901F9010
:104EA00018958081F2CF1F920F920FB60F921124A6
:104EB0000BB60F922F933F934F935F936F937F9314
:104EC0008F939F93AF93BF93EF93FF938EE79CE0F5
:104ED0000E94C703FF91EF91BF91AF919F918F9176
:104EE0007F916F915F914F913F912F910F900BBEEA
:104EF0000F900FBE0F901F9018951F920F920FB634
:104F00000F9211240BB60F922F938F939F93EF93D1
:104F1000FF93E0918E0CF0918F0C8081E091940CC6
:104F2000F091950C82FD1DC090818091970C8F5F50
:104F30008F732091980C821741F0E091970CF0E06C
:104F4000E258F34F958F8093970CFF91EF919F91CB
:104F50008F912F910F900BBE0F900FBE0F901F904F
:104F600018958081F2CF1F920F920FB60F921124E5
:104F70000BB60F922F933F934F935F936F937F9353
:104F80008F939F93AF93BF93EF93FF938091B9005B
:104F9000887F803609F44DC008F040C0883209F49B
:104FA000A7C028F5803109F49BC0C8F4882309F410
:104FB00003C1883009F494C0FF91EF91BF91AF9184
:104FC0009F918F917F916F915F914F913F912F9121
:104FD0000F900BBE0F900FBE0F901F901895883149
:104FE00009F486C0803241F78093DE0B14C0803410
:104FF00009F4A3C040F48033B9F38833E9F6809311
:10500000DE0B85ECBAC0803509F487C0883509F419
:105010009CC0883489F60E945010CECF883909F49C
:1050200092C038F5883729F050F4883611F080376F
:1050300019F683E08093E00B10928A0355C08838FC
:1050400009F481C0803919F0803809F0B5CF80911A
:105050008A03803208F077C0E0918A0381E08E0FE6
:1050600080938A038091BB00F0E0E659FC4F808377
:105070003BC0803B39F0D0F4803A09F483C0883AD1
:1050800009F09ACF84E08093E00B109269031092AC
:105090006803F0E0E0E009958091680381110FC09A
:1050A00081E0809368031092480309C0803C09F4B2
:1050B000A8CF883C09F4A5CF883B09F07DCFE091CB
:1050C000690381E08E0F80936903F0E0E85BFC4F99
:1050D00080818093BB00909169038091680331C007
:1050E0008091D90B8093BB0085EC8093BC0064CF8A
:1050F0009091DB0B8091DA0B9817B8F58091DC0B5F
:105100009091DD0BE091DB0B21E02E0F2093DB0B68
:10511000E80FF92FF11D8081E5CF2091DC0B309154
:10512000DD0BE091DB0B81E08E0F8093DB0B809138
:10513000BB00E20FF32FF11D80839091DB0B809178
:10514000DA0B981788F285E8D0CF2091DC0B3091EC
:10515000DD0BE091DB0B81E08E0F8093DB0B809108
:10516000BB00E20FF32FF11D80838091DF0B8111D3
:1051700052CF81E08093D80B84EA8093BC001092D8
:10518000E00B1ACF85EC8093BC001092E00B80916D
:105190008A03803230F4E0918A03F0E0E659FC4F54
:1051A000108260918A0370E08AE693E0F0E0E0E02C
:1051B000099510928A0300CF1092DE0B2CCF1F921C
:1051C0000F920FB60F9211248F93809123078F5F58
:1051D0008093230710928500109284008F910F9086
:1051E0000FBE0F901F901895E1EEFBE01382128224
:1051F00088EE93E0A0E0B0E084839583A683B78334
:1052000022E431E0318320834DEC50E05587448720
:105210004CEC50E05787468748EC50E0518B408B70
:1052200049EC50E0538B428B4AEC50E0558B448B59
:105230004EEC50E0578B468B118E128E138E148ECF
:10524000EEE7FCE01382128284839583A683B78302
:105250003183208325EC30E03587248724EC30E04F
:105260003787268720EC30E0318B208B21EC30E033
:10527000338B228B22EC30E0358B248B26EC30E014
:10528000378B268B118E128E138E148EEBE1FDE080
:1052900020E5208321E02183EDE1FDE015821682E7
:1052A0001186138642E050E060E070E04487558745
:1052B0006687778713A215A614A624E531E033A7E5
:1052C00022A717A6E6E6FDE0138212828483958367
:1052D000A683B78380E691E0918380836FEC72E0D0
:1052E0008EE79DE00E94411760E073E088E79DE053
:1052F0000E94411760E771E082E79DE00C9441173E
:10530000CF93DF93CDB7DEB7C85AD1090FB6F89463
:10531000DEBF0FBECDBF789484B5836084BD85B5F4
:10532000836085BD80916E00816080936E0082E015
:1053300080938100809181008160809381008091C1
:1053400080008160809380008091B10084608093B0
:10535000B1008091B00081608093B0008091910095
:105360008360809391008091900081608093900091
:1053700086E880937A001092C1000E94831A1092EE
:105380007F0910927E091092810910928009109273
:10539000830910928209109285091092840981E094
:1053A00090E090937D0980937C0961E087E10E9401
:1053B0007E0260E086E10E947E020E94380161E088
:1053C00086E10E947E0210928500109284009091E6
:1053D0009400809195008927982789279093250725
:1053E000809324071092230710922207109221071E
:1053F000189B02C00C94B833809123078230C0F30D
:105400008EE10E945502892B19F508EC10E086E91F
:1054100090E00E94DD0261E08FE00E94AC0261E05A
:105420008FE00E947E0286E990E00E94DD0261E04A
:105430008FE00E94AC0260E08FE00E947E0201508B
:10544000110929F78091200791E08927809320078F
:1054500010922307809122078F5F8093220780910B
:1054600021078F5F809321078BE10E945502682FEF
:105470008DE00E947E028BE10E945502892B09F487
:1054800082C081E50E94ED0167E286E69DE00E9410
:10549000C51060E086E69DE00E94C51085E990E0B9
:1054A0000E94F41086E69DE00E94F91068EB7BE014
:1054B00080E090E00E940A0308EC10E08AEF90E0A0
:1054C0000E94DD0261E08FE00E94AC0261E08FE0AB
:1054D0000E947E028AEF90E00E94DD0261E08FE090
:1054E0000E94AC0260E08FE00E947E020150110930
:1054F00029F781E50E94ED0167E286E69DE00E94C2
:10550000C51063E086E69DE00E94C51085E990E045
:105510000E94F41086E69DE00E94F9108AE60E943F
:10552000ED0168E186E69DE00E94C5106AE086E62E
:105530009DE00E94C51086E69DE00E94F91068E893
:1055400073E180E090E00E940A0308EC10E08AEF2B
:1055500090E00E94DD0261E08FE00E94AC0261E019
:105560008FE00E947E028AEF90E00E94DD0261E0FF
:105570008FE00E94AC0260E08FE00E947E0201504A
:10558000110929F7DCCF61E086E10E947E0260E02C
:1055900087E10E947E0288E199E20FB6F894A8950F
:1055A000809360000FBE9093600061E083E10E94F1
:1055B0007E0260E082E10E947E020E946C1460E73D
:1055C00071E0CE01885A9F4F0E94411761E173E05C
:1055D000CE01885A9F4F0E940B1660911E07709152
:1055E0001F07CE0101960E949C16BE016F5F7F4F80
:1055F000CE01885A9F4F0E941516CE0101960E9437
:1056000052176EE272E0CE01885A9F4F0E940B162D
:105610006091240770912507CE0101960E949C1687
:10562000BE016F5F7F4FCE01885A9F4F0E941516B3
:10563000CE0101960E9452172CE9E22E23E0F22EB1
:1056400033EFA32E35E0B32E46E2C42E47E0D42E2E
:1056500001E010E080917C0990917D0908171907FD
:1056600008F054C00C3221E0120709F44FC0D501F4
:105670008D915D01F601419051906F01712C612C6B
:10568000882331F0F7E94F0EF8E95F1E611C711CA9
:105690006EE671E0CE01885A9F4F0E940B1669E1B9
:1056A00073E0CE01885A9F4F0E940B16B301A201EE
:1056B000CE0101960E946F16BE016F5F7F4FCE0133
:1056C000885A9F4F0E941516CE0101960E945217CC
:1056D0006EE272E0CE01885A9F4F0E940B16D701EE
:1056E0006D917D917D01CE0101960E949C16BE01B7
:1056F0006F5F7F4FCE01885A9F4F0E941516CE01D3
:1057000001960E9452170F5F1F4FA4CF6DE173E007
:10571000CE01885A9F4F0E940B1660911E07709110
:105720001F07CE0101960E949C16BE016F5F7F4F3E
:10573000CE01885A9F4F0E941516CE0101960E94F5
:1057400052176EE272E0CE01885A9F4F0E940B16EC
:10575000409196035091970360919803709199033B
:10576000CE0101960E946F16BE016F5F7F4FCE0182
:10577000885A9F4F0E941516CE0101960E9452171B
:105780006EE771E0CE01885A9F4F0E940B164AE0E7
:1057900060919503CE0101960E94F416BE016F5FE1
:1057A0007F4FCE01885A9F4F0E941516CE01019659
:1057B0000E9452176EE272E0CE01885A9F4F0E94FB
:1057C0000B168091940060919500762F682FCE0182
:1057D00001960E949C16BE016F5F7F4FCE01885AD2
:1057E0009F4F0E941516CE0101960E9452176EE23D
:1057F00072E0CE01885A9F4F0E940B1660917C097F
:1058000070917D0961507109CE0101960E949C162C
:10581000BE016F5F7F4FCE01885A9F4F0E941516C1
:10582000CE0101960E9452170EE719E096E8E92E84
:1058300099E0F92E6EE272E0CE01885A9F4F0E94E5
:105840000B16F801619171918F01CE0101960E94B2
:105850009C16BE016F5F7F4FCE01885A9F4F0E94FA
:105860001516CE0101960E945217E016F10611F7A7
:10587000BE01685A7F4F81EE9BE00E949A1580918D
:10588000050161E0882309F4BCC28EE00E947E021B
:105890000E94320B811107C08CE692E00E947115C4
:1058A000109205011AC06091720D7091730DCE01B6
:1058B00001960E948219CE0101960E949B0E8823B8
:1058C00009F49CC2BE01685A7F4FCE0101960E9426
:1058D0009A15CE0101960E945A1761E084E00E9459
:1058E0007E0260E08EE00E947E0260E08DE00E9419
:1058F0007E0280911E0790911F07893F9A42B0F166
:1059000010921F0710921E076091930370919403E9
:105910006F5F7F4F7093940360939303CE01CC9697
:105920000E949C16BE01645C7F4FCE0101960E94CE
:1059300038176BE772E0CE0101960E942E16BC016B
:1059400082E79DE00E942117CE0101960E94521726
:10595000CE01CC960E9452178BE892E00E948415EB
:1059600062E77DE081EE9BE00E949A1561E082E1B2
:105970000E947E0260E083E10E947E0261E070E0AE
:1059800080E090E00E940A03CE01885A9F4F0E9457
:10599000521710927F0910927E091092810910927D
:1059A0008009109283091092820910928509109241
:1059B000840981E090E090937D0980937C090091B7
:1059C0001E0710911F07809121078E3108F45AC5D8
:1059D0001092210788E19FE00FB6F894A895809374
:1059E00060000FBE9093600061E083E10E947E0240
:1059F00060E082E10E947E0261E082E00E94AC02EF
:105A000061E082E00E947E0261E084E10E94AC02DB
:105A100061E084E10E947E0260E771E0CE0181577F
:105A20009F4F0E9441170E946C1466E273E0CE0102
:105A300081579F4F0E940B16B801CE0101960E941C
:105A40009C16BE016F5F7F4FCE0181579F4F0E9412
:105A50001516CE0101960E9452176EE272E0CE0139
:105A600081579F4F0E940B164091960350919703C8
:105A70006091980370919903CE0101960E946F1670
:105A8000BE016F5F7F4FCE0181579F4F0E94151659
:105A9000CE0101960E9452176EE771E0CE01815748
:105AA0009F4F0E940B164AE060919503CE0101962C
:105AB0000E94F416BE016F5F7F4FCE0181579F4F4A
:105AC0000E941516CE0101960E9452176EE272E0F6
:105AD000CE0181579F4F0E940B1686E2E82E81E08F
