:100000000C9411010C943B010C943B010C943B01AA
:100010000C943B010C943B010C943B010C943B0170
:100020000C943B010C943B010C943B010C943B0160
:100030000C943B010C946A010C943B010C943B0121
:100040000C943B010C943B010C944C340C943B01FC
:100050000C94622F0C94982F0C943B010C943B0150
:100060000C943B010C943B010C9438140C943B0110
:100070000C94F92F0C942F300C943B010C943B0101
:100080000C943B010C943B010C943B0100407A1012
:10009000F35A00A0724E18090010A5D4E80000E839
:1000A0007648170000E40B54020000CA9A3B000097
:1000B00000E1F505000080969800000040420F0026
:1000C0000000A08601000000102700000000E803E7
:1000D000000000006400000000000A0000000000B2
:1000E0000100000000002C76D888DC674F0823DF71
:1000F000C1DFAE59E1B1B796E5E3E453C63AE65144
:10010000997696E8E6C28426EB898C9B62ED407C6A
:100110006FFCEFBC9C9F40F2BAA56FA5F490055A06
:100120002AF75C936B6CF9676DC11BFCE0E40D472B
:10013000FEF520E6B500D0ED902E0300943577054E
:100140000080841E080000204E0A000000C80C3306
:100150003333330F986E12831141EF8D2114893B95
:10016000E65516CFFEE6DB18D1844B381BF77C1D15
:10017000901DA4BBE424203284725E228100C9F168
:1001800024ECA1E53D277C3C3E5E2B3D3F2F5B5D93
:100190003B2C2A225C000000000203000A0B000036
:1001A0000000050409080000000000000000000035
:1001B000000000000000010204081020408001023D
:1001C0000408102040800102040810204080010231
:1001D000040810204080020202020202020204040B
:1001E00004040404040403030303030303030101DD
:1001F0000101010101010000200023002600290067
:1002000000002200250028002B000000210024000F
:1002100027002A007F014D1351196B1CCC2F63302E
:10022000910111241FBECFEFD0E4DEBFCDBF12E09D
:10023000A0E0B1E0E0EBFAE700E00BBF02C00790FE
:100240000D92AE36B107D9F72CE0AEE6B2E001C0B0
:100250001D92AC3BB207E1F711E0C0E1D1E004C070
:100260002197FE010E940138CA30D107C9F70E94C8
:100270003D340C944B3D0C940000DC01ED91FC915D
:100280000190F081E02D09940CB405FC0DC09EBDD9
:1002900000000DB407FEFDCF9EB58EBD00000DB46D
:1002A00007FEFDCF8EB508958EBD00000DB407FE8C
:1002B000FDCF8EB59EBD00000DB407FEFDCF9EB5EF
:1002C0000895982F92959F708F702AE0929F800DCD
:1002D000112408951F920F920FB60F9211248F933D
:1002E000809170028F5F809370021092850010924F
:1002F00084008F910F900FBE0F901F90189566E1AC
:1003000071E083E798E00E945A3267E471E08DE67D
:1003100098E00E945A3261E871E087E698E00C9418
:100320005A3287E698E00E94E8318DE698E00E9414
:10033000E83183E798E00C94E831CF93DF9361E5EF
:1003400070E089E798E00E94CC1270E060E089E7F5
:1003500098E00E943D0189E798E00E944A1346E038
:1003600050E061E570E089E798E00E94471389E773
:1003700098E00E943F120E9461018093710289E718
:1003800098E00E943F128F770E946101D82F89E781
:1003900098E00E943F128F770E946101C82F89E781
:1003A00098E00E943F120E94610190E0B0E0A0E05E
:1003B0008093720290937302A0937402B0937502BB
:1003C00089E798E00E943F120E94610124E6829F23
:1003D000C0011124092E000CAA0BBB0B4091720224
:1003E000509173026091740270917502840F951F91
:1003F000A61FB71F8093720290937302A09374029A
:10040000B093750289E798E00E943F120E94610153
:1004100040E157E2849F9001859F300D1124032E07
:10042000000C440B550B8091720290917302A091C5
:100430007402B0917502280F391F4A1F5B1FA0E19B
:10044000BEE00E941938AB01BC012CE3C29FC00181
:100450001124092E000CAA0BBB0B8D0F911DA11DA1
:10046000B11D840F951FA61FB71F80937202909332
:100470007302A0937402B0937502DF91CF91089537
:10048000CF93DF93CDB7DEB7C459D1090FB6F89437
:10049000DEBF0FBECDBF88E19FE00FB6F894A895F0
:1004A000809360000FBE9093600061E083E10E9442
:1004B000B13560E082E10E94B13561E082E00E94E6
:1004C000753561E082E00E94B13561E084E10E940F
:1004D000753561E084E10E94B13561E871E0CE01DB
:1004E00081579F4F0E945A320E949D0168E571E03A
:1004F000CE0181579F4F0E94ED3360916308709148
:1005000064084AE0CE0101960E94D232BE016F5FBC
:100510007F4FCE0181579F4F0E94E633CE01019657
:100520000E94E8316FED71E0CE0181579F4F0E942C
:10053000ED33409172025091730260917402709198
:1005400075022AE0CE0101960E94FE32BE016F5F65
:100550007F4FCE0181579F4F0E94E633CE01019617
:100560000E94E83161EB71E0CE0181579F4F0E94FC
:10057000ED334AE060917102CE0101960E9479321A
:10058000BE016F5F7F4FCE0181579F4F0E94E633C0
:10059000CE0101960E94E8316FED71E0CE018157E6
:1005A0009F4F0E94ED3349E758E064E4CE01885A3A
:1005B0009F4F0E940329CE01885A9F4F0E943A29DB
:1005C00061E0CE01885A9F4F0E94BD29E1966EAD31
:1005D0007FADE19790E080E00E94B0362FEA30E0F6
:1005E0004FE25BE30E94623720E030E044E352E4F4
:1005F0000E940836AB01BC0121E0CE0101960E94A9
:100600005A33BE016F5F7F4FCE0181579F4F0E94CB
:10061000E633CE0101960E94E8316FED71E0CE0124
:1006200001960E945A32BE016F5F7F4FCE01815703
:100630009F4F0E94E633CE0101960E94E831AF96AB
:100640006EAD7FADAF9790E080E00E94B03628ECB1
:1006500030E048EC5AE30E946237AB01BC0121E074
:10066000CE0101960E945A33BE016F5F7F4FCE01CB
:1006700081579F4F0E94E633CE0101960E94E831D8
:100680006FED71E0CE0101960E945A32BE016F5F9C
:100690007F4FCE0181579F4F0E94E633CE010196D6
:1006A0000E94E83149E758E065E4CE01CC960E940B
:1006B0000329CE01CC960E943A2961E0CE01CC9666
:1006C0000E94BD2965966EAD7FAD659790E080E094
:1006D0000E94B0362FEA30E04FE25BE30E946237BF
:1006E00020E030E044E352E40E940836AB01BC0154
:1006F00021E0CE0101960E945A33BE016F5F7F4F09
:10070000CE0181579F4F0E94E633CE0101960E9491
:10071000E8316FED71E0CE0101960E945A32BE01C0
:100720006F5F7F4FCE0181579F4F0E94E633CE010E
:1007300001960E94E83163966EAD7FAD639790E0BD
:1007400080E00E94B03628EC30E048EC5AE30E948A
:100750006237AB01BC0121E0CE0101960E945A3301
:10076000BE016F5F7F4FCE0181579F4F0E94E633DE
:10077000CE0101960E94E8316FED71E0CE01019645
:100780000E945A32BE016F5F7F4FCE0181579F4F4B
:100790000E94E633CE0101960E94E83149E758E015
:1007A00067E7CE0101960E94E929CE0101960E94D9
:1007B000132E6A81CE0101960E94A72BCE010196CD
:1007C0000E94232AAB01BC0122E0CE018C589F4F2E
:1007D0000E945A33BE016C587F4FCE0181579F4F04
:1007E0000E94E633CE018C589F4F0E94E8316FED96
:1007F00071E0CE018C589F4F0E945A32BE016C5856
:100800007F4FCE0181579F4F0E94E633CE018C5817
:100810009F4F0E94E831CE0101960E945A2AAB01F7
:10082000BC0122E0CE018C589F4F0E945A33BE017A
:100830006C587F4FCE0181579F4F0E94E633CE0107
:100840008C589F4F0E94E83161E084E10E94753529
:1008500060E084E10E94B13561E082E00E9475357C
:1008600060E082E00E94B1350FB6F894A8958091BF
:100870006000886180936000109260000FBEBE012E
:1008800061577F4F81E19CE00E94ED30809107012C
:10089000882371F164E08BE199E00E949B176EE57B
:1008A00071E0882309F443C04091670850916808BB
:1008B00023E16BE179E0CE018C589F4F0E94BB1879
:1008C000CE018C589F4F0E948F16882371F1BE0174
:1008D00061577F4FCE018C589F4F0E94ED30CE0163
:1008E0008C589F4F0E947D1661E084E00E94B135D4
:1008F00061E082E10E94B13560E083E10E94B135A0
:1009000061E070E080E090E00E94C734CE01815742
:100910009F4F0E94E831CC56DF4F0FB6F894DEBFF0
:100920000FBECDBFDF91CF9108956DE671E081E1FB
:100930009CE00E94FF3010920701D6CF4F925F9249
:100940006F927F92AF92BF92CF92DF92EF92FF921F
:100950000F931F93CF93DF93CDB7DEB7A7970FB653
:10096000F894DEBF0FBECDBF61E083E10E94B135D8
:1009700060E082E10E94B1350E949D0161E871E072
:10098000CE0182960E945A3267E771E0CE018296CC
:100990000E94ED3360916308709164084AE0CE01D3
:1009A00001960E94D232BE016F5F7F4FCE018296C8
:1009B0000E94E633CE0101960E94E8316FED71E0AE
:1009C000CE0182960E94ED33609103067091040679
:1009D0004AE0CE0101960E94D232BE016F5F7F4F86
:1009E000CE0182960E94E633CE0101960E94E83144
:1009F00081E8E82E82E0F82E98EDC92E94E0D92EF9
:100A000025E0A22E26E0B22E01E010E080917D02CA
:100A100090917E020817190708F051C00C3221E0AE
:100A2000120709F44CC0F60181916F01F501419064
:100A300051905F01712C612C882331F0F7E94F0E42
:100A4000F8E95F1E611C711C6FE771E0CE018296B0
:100A50000E94ED3362E871E0CE0182960E94ED3390
:100A60002AE0B301A201CE0101960E94FE32BE012E
:100A70006F5F7F4FCE0182960E94E633CE010196D2
:100A80000E94E8316FED71E0CE0182960E94ED3355
:100A9000F701619171917F014AE0CE0101960E94B8
:100AA000D232BE016F5F7F4FCE0182960E94E63345
:100AB000CE0101960E94E8310F5F1F4FA7CF66E875
:100AC00071E0CE0182960E94ED33609163087091CF
:100AD00064084AE0CE0101960E94D232BE016F5FE7
:100AE0007F4FCE0182960E94E633CE0101960E948E
:100AF000E8316FED71E0CE0182960E94ED334091B6
:100B000072025091730260917402709175022AE032
:100B1000CE0101960E94FE32BE016F5F7F4FCE0173
:100B200082960E94E633CE0101960E94E83161EB85
:100B300071E0CE0182960E94ED334AE0609171022D
:100B4000CE0101960E947932BE016F5F7F4FCE01C8
:100B500082960E94E633CE0101960E94E8316FED45
:100B600071E0CE0182960E94ED33809194006091F5
:100B70009500762F682F4AE0CE0101960E94D2326E
:100B8000BE016F5F7F4FCE0182960E94E633CE0199
:100B900001960E94E8316FED71E0CE0182960E94CD
:100BA000ED3360917D0270917E02615071094AE0DF
:100BB000CE0101960E94D232BE016F5F7F4FCE01FF
:100BC00082960E94E633CE0101960E94E8310BE541
:100BD00018E06FED71E0CE0182960E94ED33F801CE
:100BE000619171918F014AE0CE0101960E94D2324B
:100BF000BE016F5F7F4FCE0182960E94E633CE0129
:100C000001960E94E831F8E003361F0711F7BE0194
:100C10006E5D7F4F81E19CE00E94ED308091070185
:100C200061E0882309F4A6C08EE00E94B13564E03B
:100C30008BE199E00E949B176EE571E0882309F42F
:100C400092C0409167085091680823E16BE179E018
:100C5000CE0101960E94BB18CE0101960E948F160C
:100C6000882309F47EC0BE016E5D7F4FCE010196E0
:100C70000E94ED30CE0101960E947D1661E084E075
:100C80000E94B13560E08EE00E94B13560E08DE0F9
:100C90000E94B1358091630890916408893F9A421F
:100CA000C8F1109264081092630860916508709111
:100CB00066086F5F7F4F70936608609365084AE02F
:100CC000CE014C960E94D232BE01645E7F4FCE01AF
:100CD00001960E9442336FE871E0CE0101960E94B6
:100CE0000F34BC0187E698E00E942B33CE010196B9
:100CF0000E94E831CE014C960E94E83164E971E02F
:100D000081E19CE00E94DA3067E678E081E19CE0D6
:100D10000E94ED3061E082E10E94B13560E083E144
:100D20000E94B13561E070E080E090E00E94C7343D
:100D3000CE0182960E94E831A7960FB6F894DEBFE6
:100D40000FBECDBFDF91CF911F910F91FF90EF901C
:100D5000DF90CF90BF90AF907F906F905F904F905B
:100D600008956DE671E081E19CE00E94FF301092F1
:100D7000070184CF8DE00E94B135CEA0DFA010E046
:100D800000E0FF24FA948DE10E94DF35892B19F0F1
:100D9000FA94F110F8CF82E390E00E9400357801D8
:100DA0002FEFE21AF20AB801CE0182960E9429348E
:100DB000FC01608184E79BE00E94E230CE14DF04F6
:100DC00060F484E79BE00E94E930BE016E5D7F4FD6
:100DD00081E19CE00E94ED3055CF8701D2CF0F9387
:100DE0001F93CF93DF93C82F65E570E089E798E004
:100DF0000E94CC120C2E000CDD0BBE0189E798E09E
:100E00000E943D0189E798E00E944A1341E050E0CA
:100E100065E570E089E798E00E94471389E798E06C
:100E20000E943F128C0165E570E089E798E00E941E
:100E3000CC12BE016F5F7F4F89E798E00E943D01B1
:100E400089E798E00E944A1341E050E065E570E0D0
:100E500089E798E00E94471389E798E00E943F12D3
:100E600020E0382FC901800F911FDF91CF911F9192
:100E70000F910895CF93DF93CDB7DEB7A1970FB64B
:100E8000F894DEBF0FBECDBF61E083E10E94B135B3
:100E900060E082E10E94B13561E871E0CE014C96DC
:100EA0000E945A320E949D016FE971E0CE014C967A
:100EB0000E94ED3360916308709164084AE0CE01AE
:100EC00001960E94D232BE016F5F7F4FCE014C96D9
:100ED0000E94E633CE0101960E94E8316FED71E089
:100EE000CE014C960E94ED334091720250917302F4
:100EF00060917402709175022AE0CE0101960E9401
:100F0000FE32BE016F5F7F4FCE014C960E94E633EA
:100F1000CE0101960E94E83161EB71E0CE014C9662
:100F20000E94ED334AE060917102CE0101960E9469
:100F30007932BE016F5F7F4FCE014C960E94E6333F
:100F4000CE0101960E94E8316FED71E0CE014C9622
:100F50000E94ED3388E00E94EF064AE0BC01CE011A
:100F600001960E94A632BE016F5F7F4FCE014C9664
:100F70000E94E633CE0101960E94E8316FED71E0E8
:100F8000CE014C960E94ED338AE00E94EF064AE0C3
:100F9000BC01CE0101960E94A632BE016F5F7F4F59
:100FA000CE014C960E94E633CE0101960E94E831B4
:100FB0006FED71E0CE014C960E94ED3384E00E940B
:100FC000EF064AE0BC01CE0101960E94A632BE01A6
:100FD0006F5F7F4FCE014C960E94E633CE010196A3
:100FE0000E94E8316FED71E0CE014C960E94ED3326
:100FF00086E00E94EF064AE0BC01CE0101960E9405
:10100000A632BE016F5F7F4FCE014C960E94E63341
:10101000CE0101960E94E8316FED71E0CE014C9651
:101020000E94ED338CE00E94EF06BC01990F880B03
:10103000990B0E94B2362DEC3CEC4CEC5DE30E9427
:10104000623723E333E948E853E40E940836AB01F2
:10105000BC0122E0CE0101960E948A33BE016F5F7F
:101060007F4FCE014C960E94E633CE0101960E943E
:10107000E831BE01645E7F4F81E19CE00E94ED306B
:1010800080910701882349F164E08BE199E00E9497
:101090009B176EE571E08823E9F140916708509154
:1010A000680823E16BE179E0CE0101960E94BB184C
:1010B000CE0101960E948F16882351F1BE01645E15
:1010C0007F4FCE0101960E94ED30CE0101960E9425
:1010D0007D1661E084E00E94B13561E082E10E940A
:1010E000B13560E083E10E94B13561E070E080E0FD
:1010F00090E00E94C734CE014C960E94E831A19640
:101100000FB6F894DEBF0FBECDBFDF91CF9108952B
:101110006DE671E081E19CE00E94FF3010920701D2
:10112000D8CF10925C0810925B0810925E08109263
:101130005D081092600810925F0810926208109289
:10114000610881E090E090937E0280937D0261E0EF
:1011500087E10E94B13560E086E10E94B13590E000
:1011600080E00E94440161E086E10E94B135109266
:1011700085001092840090919400809195008927B9
:101180009827892790930406809303061092700293
:1011900010926F0210926E0210E208E1B9E2FB2E8B
:1011A000C1E0D0E018993EC1809170028230D0F346
:1011B0008EE10E94DF35892B29F5A8ECCA2ED12CAF
:1011C00086E990E00E94003561E08FE00E9475356D
:1011D00061E08FE00E94B13586E990E00E94003521
:1011E00061E08FE00E94753560E08FE00E94B135CC
:1011F00041E0C41AD10821F78091780291E0892753
:10120000809378021092700280916F028F5F8093BA
:101210006F0280916E028F5F80936E028BE10E945D
:10122000DF35682F8DE00E94B1358BE10E94DF35FC
:10123000892B09F48DC061E570E089E798E00E9490
:10124000CC1267E289E798E00E94621260E089E7C9
:1012500098E00E94621265E970E089E798E00E94D8
:101260003D0189E798E00E944A1368EB7BE080E04B
:1012700090E00E94C734C8ECD0E08AEF90E00E9472
:10128000003561E08FE00E94753561E08FE00E94DB
:10129000B1358AEF90E00E94003561E08FE00E9456
:1012A000753560E08FE00E94B135219731F761E537
:1012B00070E089E798E00E94CC1267E289E798E045
:1012C0000E94621263E089E798E00E94621265E979
:1012D00070E089E798E00E943D0189E798E00E946C
:1012E0004A136AE670E089E798E00E94CC1268E150
:1012F00089E798E00E9462126AE089E798E00E941C
:10130000621289E798E00E944A1368E873E180E07E
:1013100090E00E94C734C8ECD0E08AEF90E00E94D1
:10132000003561E08FE00E94753561E08FE00E943A
:10133000B1358AEF90E00E94003561E08FE00E94B5
:10134000753560E08FE00E94B135219731F7DDCF30
:1013500061E086E10E94B13560E087E10E94B1352D
:101360000FB6F894A895009360000FBEF09260004D
:101370000E949E0410925C0810925B0810925E0816
:1013800010925D081092600810925F081092620837
:1013900010926108D0937E02C0937D0280916E020C
:1013A0008E3120F010926E020E94400280916F02F6
:1013B000843B20F010926F020E943A0761E087E1BF
:1013C0000E94B13560E086E10E94B13590E080E096
:1013D0000E94440161E086E10E94B1350FB6F894A5
:1013E000A8958091600088618093600010926000F1
:1013F0000FBE8091630890916408019690936408F1
:10140000809363081092850010928400909194005C
:1014100080919500892798278927909304068093C7
:101420000306C0CE60E086E10E94B13590E080E026
:101430000E94440120917802222361F184309105B9
:1014400060F12BB121272BB920917D0230917E02D2
:101450002C32E1E03E07B8F4609184007091850081
:10146000A901440F551FFA01ED5FF94F71836083A5
:1014700060917002F901E952FB4F608341585D4F62
:10148000FA01918380832F5F3F4F30937E02209338
:101490007D020DC084309105B8F6880F991FFC01BC
:1014A000E55AF74F8081918101969183808361E0B5
:1014B00086E10E94B13576CECF93DF93D82FC62F29
:1014C0006AE670E089E798E00E94CC126D2F89E708
:1014D00098E00E9462126C2F89E798E00E946212E5
:1014E00089E798E0DF91CF910C944A136AE670E0A7
:1014F00089E798E00E94CC1262E089E798E00E94B8
:10150000621260E671E089E798E00E943D0189E798
:1015100098E00E944A136AE670E089E798E00E942A
:10152000CC1264E189E798E00E94621266E289E7E2
:1015300098E00E94621269E189E798E00E946212D5
:1015400060EA89E798E00E94621266E589E798E020
:101550000E94621260E089E798E00E94621261E0F6
:1015600089E798E00E94621289E798E00E944A1396
:101570006AE670E089E798E00E94CC126AE189E7A8
:1015800098E00E9462126FEB89E798E00E94621275
:1015900089E798E00E944A136AE670E089E798E0DC
:1015A0000E94CC1266E289E798E00E9462126CE821
:1015B00089E798E00E94621289E798E00C944A1348
:1015C0006AE670E089E798E00E94CC1262E089E761
:1015D00098E00E94621260E671E089E798E00E945C
:1015E0003D0189E798E00E944A136AE670E089E7C6
:1015F00098E00E94CC1264E189E798E00E946212B0
:1016000066E289E798E00E94621269E989E798E05A
:101610000E94621260E089E798E00E94621266E52B
:1016200089E798E00E94621260E089E798E00E94F2
:10163000621261E089E798E00E94621289E798E00F
:101640000E944A136AE670E089E798E00E94CC1293
:101650006AE189E798E00E9462126FEB89E798E0FF
:101660000E94621289E798E00E944A136AE670E0DD
:1016700089E798E00E94CC1266E289E798E00E9430
:1016800062126CE889E798E00E94621289E798E0AC
:101690000C944A13CF93C82F6AE670E089E798E06C
:1016A0000E94CC126C2F89E798E00E94621260E0E1
:1016B00089E798E00E94CE1241E06AE689E798E067
:1016C0000E94441389E798E00E943812892B31F078
:1016D00089E798E00E943F12CF91089580E0FCCF07
:1016E0000F931F93CF938C0186E10E944A0BC82F62
:1016F000682F6F7D606486E10E945C0A65E070E09F
:1017000080E090E00E94C7346C2F6F7986E10E94E0
:101710005C0A86E20E944A0B682F606C86E20E9497
:101720005C0A6AE070E080E090E00E94C73480E3E9
:101730000E944A0B94E1899F90011124375FF801C0
:101740003183208381E0283B3B4008F480E0CF9147
:101750001F910F910895CF92DF92EF92FF920F9316
:101760001F93CF93DF93CDB7DEB7C254D1090FB625
:10177000F894DEBF0FBECDBF26E040E052EC61E042
:1017800070E084E79BE00E94102F26E040E052ECDE
:1017900061E070E081E19CE00E94102F40EA56E891
:1017A00061E070E089E798E00E94BE126AEA71E0A9
:1017B00081E19CE00E94FF3060E08BE10E94753582
:1017C00060E085E10E94753560E08DE10E9475352D
:1017D00060E08EE10E94753561E086E10E9475351A
:1017E00061E087E10E94753560E080E00E94753518
:1017F00061E08FE00E94753561E082E10E947535FD
:1018000061E082E10E94B13561E082E00E947535BD
:1018100061E082E00E94B13561E08AE10E947535A5
:1018200061E08AE10E94B13561E083E10E94753593
:1018300061E083E00E94753561E084E00E947535C7
:1018400060E085E00E94753560E086E00E947535B5
:1018500061E087E00E94753561E083E10E94B13567
:1018600061E084E00E94B13560E087E00E94B1351C
:1018700064E670E080E090E00E94C73460E083E0BE
:101880000E94B13561E084E10E94753560E084E139
:101890000E94B1356AE670E089E798E00E94CC12B8
:1018A00062E089E798E00E94621260E671E089E7F1
:1018B00098E00E943D0189E798E00E944A136AE699
:1018C00070E089E798E00E94CC1264E189E798E033
:1018D0000E94621266E289E798E00E94621269E162
:1018E00089E798E00E94621260EA89E798E00E9426
:1018F000621266E589E798E00E94621260E089E77B
:1019000098E00E94621261E089E798E00E9462120A
:1019100089E798E00E944A136AE670E089E798E058
:101920000E94CC126AE189E798E00E9462126FEB94
:1019300089E798E00E94621289E798E00E944A13C2
:101940006AE670E089E798E00E94CC1266E289E7D7
:1019500098E00E9462126CE889E798E00E946212A7
:1019600089E798E00E944A138BE10E94DF35892BBA
:1019700009F491C188E19FE00FB6F894A89580938F
:1019800060000FBE909360006AE670E089E798E01F
:101990000E94CC126DE270E089E798E00E943D0160
:1019A00089E798E00E944A1341E050E06AE670E05F
:1019B00089E798E00E94471389E798E00E943F1268
:1019C000A89568EE73E080E090E00E94C734A89587
:1019D00068EE73E080E090E00E94C734A89568EE5E
:1019E00073E080E090E00E94C734A89511E001E028
:1019F0006AE670E089E798E00E94CC126DE270E040
:101A000089E798E00E943D0189E798E00E944A1327
:101A100041E050E06AE670E089E798E00E944713F1
:101A200089E798E00E943F12A8958F77813108F0EE
:101A30007FC08BE10E94DF35682F8DE00E94B135B9
:101A400061E570E089E798E00E94CC1268E270E0FE
:101A500089E798E00E943D0165E970E089E798E038
:101A60000E943D0189E798E00E944A13A89568EE1C
:101A700073E080E090E00E94C734A89568EE73E0C0
:101A800080E090E00E94C734A89568EE73E080E0A3
:101A900090E00E94C734A89508EC10E08AEF90E02F
:101AA0000E94003561E08FE00E94753561E08FE0B3
:101AB0000E94B1358AEF90E00E94003561E08FE02E
:101AC0000E94753560E08FE00E94B1350150110928
:101AD00029F761E570E089E798E00E94CC1267E29F
:101AE00089E798E00E94621263E089E798E00E942B
:101AF000621265E970E089E798E00E943D0189E79C
:101B000098E00E944A136AE670E089E798E00E9434
:101B1000CC1268E189E798E00E9462126AE089E7E6
:101B200098E00E94621289E798E00E944A13FFCF72
:101B3000A895112309F443C061E0002309F44DC0C6
:101B400083E00E94B135109277021092760286E708
:101B500092E00E94700B809306018823D9F10E94C5
:101B6000760A63EB71E081E19CE00E94DA306091DB
:101B7000060170E04AE050E081E19CE00E94AA3159
:101B80006FED71E081E19CE00E94DA3060917602B5
:101B9000709177024AE050E081E19CE00E94C431FC
:101BA00063E189E798E00E94621289E798E00E9469
:101BB0004A1368EE73E080E090E00E94C7348EE143
:101BC0000E94DF3510E0892B09F012CF81E0082751
:101BD00011E00ECF0E94E00AC4CF8CE00E94753560
:101BE00060E08CE00E94B13598ECE92EF12C84EB9A
:101BF00090E00E94003561E08FE00E94753561E061
:101C00008FE00E94B13584EB90E00E94003561E0E6
:101C10008FE00E94753560E08FE00E94B13581E071
:101C2000E81AF10821F788ECE82EF12C8AEF90E011
:101C30000E94003561E08FE00E94753561E08FE021
:101C40000E94B1358AEF90E00E94003561E08FE09C
:101C50000E94753560E08FE00E94B13581E0E81A9E
:101C6000F10821F761E770E089E798E00E94CC1263
:101C700060E089E798E00E94621260E189E798E0FD
:101C80000E94621289E798E00E944A1360E083E0B4
:101C90000E94B1358ECF61E084E10E94753561E02C
:101CA00084E10E94B13515E060E570E080E090E0ED
:101CB0000E94C73461E08CE00E94753561E08CE0E1
:101CC0000E94B13560E570E080E090E00E94C7348A
:101CD00060E08CE00E94B135115031F761E08CE09A
:101CE0000E94B13508EC10E084EB90E00E940035D2
:101CF00061E08FE00E94753561E08FE00E94B135B0
:101D000084EB90E00E94003561E08FE00E94753521
:101D100060E08FE00E94B1350150110929F764ECB1
:101D200071E081E19CE00E94FF3060E087E10E9469
:101D3000B13561E086E10E94B13561E570E089E787
:101D400098E00E94CC1267E289E798E00E94621254
:101D500063E089E798E00E94621267E989E798E00A
:101D60000E94621288E199E20FB6F894A8958093D8
:101D700060000FBE909360006DEC71E0CE010196A3
:101D80000E945A326DE678E0CE0101960E94FC3343
:101D90006DED71E00E940F3463E778E00E94FC3340
:101DA0006FED71E00E940F34BC01CE01CD960E9410
:101DB0004233CE0101960E94E8316BE570E089E77D
:101DC00098E00E94CC1268E070E089E798E00E94F9
:101DD0003D0170E060E089E798E00E943D0189E7FD
:101DE00098E00E944A1340E16BE589E798E00E9481
:101DF000441310E189E798E00E943F12082F8031D8
:101E000030F468EA71E0CE01CD960E94ED3340E1F6
:101E1000602FCE0101960E947932BE016F5F7F4F25
:101E2000CE01CD960E94E633CE0101960E94E831A4
:101E3000115001F761EE71E0CE01CD960E94ED33B5
:101E400068E570E089E798E00E94CC1268E070E0F5
:101E500089E798E00E943D0170E060E089E798E042
:101E60000E943D0189E798E00E944A1340E168E53D
:101E700089E798E00E94441310E189E798E00E9406
:101E80003F12082F803130F468EA71E0CE01CD9620
:101E90000E94ED3361E082E00E94753561E082E0EE
:101EA0000E94B13561E08AE10E94753561E08AE106
:101EB0000E94B13540E1602FCE0101960E94793237
:101EC000BE016F5F7F4FCE01CD960E94E633CE01FB
:101ED00001960E94E831115081F66FED71E0CE015C
:101EE000CD960E94ED3360E570E089E798E00E94AE
:101EF000CC1270E060E089E798E00E943D0170E05C
:101F000060E089E798E00E943D0189E798E00E943F
:101F10004A1342E060E589E798E00E94441389E7AC
:101F200098E00E943F1280937A0289E798E00E942D
:101F30003F128093790240E160917A02CE010196CE
:101F40000E947932BE016F5F7F4FCE01CD960E9415
:101F5000E633CE0101960E94E83140E160917902BA
:101F6000CE0101960E947932BE016F5F7F4FCE0194
:101F7000CD960E94E633CE0101960E94E83167EFCC
:101F800071E0CE01CD960E94ED336BE570E089E7FC
:101F900098E00E94CC1268E070E089E798E00E9427
:101FA0003D0170E060E089E798E00E943D0189E72B
:101FB00098E00E944A1340E16BE589E798E00E94AF
:101FC000441310E189E798E00E943F12082F803106
:101FD00030F468EA71E0CE01CD960E94ED3340E125
:101FE000602FCE0101960E947932BE016F5F7F4F54
:101FF000CE01CD960E94E633CE0101960E94E831D3
:10200000115001F76FED71E0CE01CD960E94ED33D6
:1020100063E570E089E798E00E94CC1270E060E030
:1020200089E798E00E943D0170E060E089E798E070
:102030000E943D0189E798E00E944A1342E063E56F
:1020400089E798E00E94441389E798E00E943F12D4
:1020500080937C0289E798E00E943F1280937B0284
:1020600040E160917C02CE0101960E947932BE016E
:102070006F5F7F4FCE01CD960E94E633CE01019671
:102080000E94E83140E160917B02CE0101960E94FE
:102090007932BE016F5F7F4FCE01CD960E94E6334D
:1020A000CE0101960E94E8316BE072E0CE01CD9640
:1020B0000E94ED338091060168EA71E0882311F0F7
:1020C00066EA71E0CE01CD960E94ED336FED71E0CE
:1020D000CE01CD960E94ED33609176027091770229
:1020E0004AE0CE0101960E94D232BE016F5F7F4F5F
:1020F000CE01CD960E94E633CE0101960E94E831D2
:1021000060E082E10E94B13564E08BE199E00E94D9
:102110009B17811108C06EE571E081E19CE00E948F
:10212000FF301092070181E090E090936608809361
:1021300065086091650870916608683C710578F5DE
:102140004AE0CE014C960E94D232BE01645E7F4FBF
:10215000CE0101960E9442336FE871E0CE010196F4
:102160000E940F34BC0187E698E00E942B33CE0119
:1021700001960E94E831CE014C960E94E8316091B0
:102180006708709168088BE199E00E9446198823DE
:1021900031F080916508909166080196C6CF6091F4
:1021A0006508709166084AE0CE014C960E94D232D2
:1021B000BE01645E7F4FCE0101960E9442336FE8FC
:1021C00071E0CE0101960E940F34BC0187E698E0D1
:1021D0000E942B33CE0101960E94E831CE014C962D
:1021E0000E94E83115E060E570E080E090E00E9438
:1021F000C73461E08DE00E94753561E08DE00E949A
:10220000B13560E570E080E090E00E94C73460E0A6
:102210008DE00E94B135115031F761E08DE00E94F0
:10222000B135409167085091680823E16BE179E08E
:10223000CE014C960E94BB18CE014C960E943F16D0
:102240006B017C0164E172E081E19CE00E94DA3084
:102250002AE030E0B701A60181E19CE00E94D6317E
:1022600081E8C81683E2D80683E4E806F10408F49E
:102270005BC0CE014C960E947D16609165087091FE
:1022800066086F5F7F4F70936608609365084AE049
:10229000CE01C7960E94D232BE01695C7F4FCE014B
:1022A00001960E9442336FE871E0CE0101960E94D0
:1022B0000F34BC0187E698E00E942B33CE010196D3
:1022C0000E94E831CE01C7960E94E831409167082C
:1022D0005091680823E16BE179E0CE0101960E94FC
:1022E000BB188B819C819F8F8E8F8D819E81AF814A
:1022F000B88588A399A3AAA3BBA389859A85AB8532
:10230000BC858CA39DA3AEA3BFA3DE011D96FE01D9
:10231000B896CE01C5962D912193E817F907D9F704
:102320008A8D9B8D9EAB8DAB64E971E081E19CE071
:102330000E94DA3067E678E081E19CE00E94ED30AF
:10234000CE014C960E948F16882309F485C0BE01E9
:10235000635C7F4FCE014C960E94ED30CE014C96CF
:102360000E947D16BE01635C7F4F81E19CE00E946C
:10237000ED3061E082E10E94B13561E084E10E94CC
:10238000753560E084E10E94B13515E060E570E0EC
:1023900080E090E00E94C73461E08EE00E947535D5
:1023A00061E08EE00E94B13560E570E080E090E091
:1023B0000E94C73460E08EE00E94B135115031F7C1
:1023C00060E08CE00E94B13560E08DE00E94B135A4
:1023D00061E082E00E94753560E082E00E94B135E4
:1023E0000FB6F894A8958091600088618093600092
:1023F000109260000FBEF894109280008DE08093E0
:10240000810087E998E99093890080938800109271
:1024100085001092840082E080936F0010929000FB
:1024200085E080939100109295001092940078942A
:10243000CE01CD960E94E831CE5BDF4F0FB6F89407
:10244000DEBF0FBECDBFDF91CF911F910F91FF90E7
:10245000EF90DF90CF9008956DE671E081E19CE010
:102460000E94FF30109207017DCF90E080E0089538
:102470008091A9089091AA08891B990B08959091C1
:10248000AA088091A9082FEF3FEF981748F4E92F89
:10249000F0E0E555F74F208130E09F5F9093AA0868
:1024A000C9010895E091AA088091A908E81730F4BD
:1024B000F0E0E555F74F808190E008958FEF9FEFB2
:1024C00008950895CF93DF931F92CDB7DEB7698348
:1024D000209185082223F9F020918608203258F0B7
:1024E00021E030E0FC013383228390E080E00F9014
:1024F000DF91CF91089580918708E82FF0E0E857A9
:10250000F74F998190838F5F809387088093860827
:1025100081E090E0ECCF61E0CE0101960E940114D1
:10252000F7CFCF92DF92EF92FF920F931F93CF934B
:10253000DF937C01CB018A0120918508222389F059
:10254000EB016B01C40ED51ECC15DD0569F0699158
:10255000D701ED91FC910190F081E02DC701099523
:10256000F3CF642F0E940114C801DF91CF911F9116
:102570000F91FF90EF90DF90CF900895CB01BA01BB
:102580000C945E1381E0809385086093A8081092F4
:1025900087081092860808950C94C2120F93062F94
:1025A00021E04091860868E878E08091A8080E94C0
:1025B000B1131092870810928608109285080F9127
:1025C00008954F925F926F927F92AF92BF92CF9297
:1025D000EF92FF920F931F93CF93DF935C01F62E40
:1025E000D42F28013901EE2019F10E94C212CE2DFC
:1025F000C43008F0C3E0C150B8F028E0C29FC00169
:102600001124A301920104C056954795379527954B
:102610008A95D2F7B901D501ED91FC910190F08135
:10262000E02DC5010995E7CF60E0C5010E94CE12FB
:102630004D2FD13208F040E22C2D6BEA78E08F2D3F
:102640000E9471131092AA088093A908DF91CF917C
:102650001F910F91FF90EF90CF90BF90AF907F9020
:102660006F905F904F900895CF92EF920F931F93CA
:10267000C22EE12C00E010E098010E94E1121F91AF
:102680000F91EF90CF90089521E00C94341321E046
:102690000C94341361E00C94CE12E9E7F8E0138255
:1026A000128288EE93E0A0E0B0E084839583A68355
:1026B000B78383E292E09183808308959B01AC010C
:1026C00060E072E18AE790E00E94DF372051310933
:1026D0004109510956954795379527952093B8009C
:1026E00008954132E0F590911A099111FCCF91E0E3
:1026F00090931A09209318092FEF2093CB08709319
:1027000012096093110910921009240F20930F09E8
:102710009093190990911909880F892B80931909B1
:10272000809117098130C9F4109217098091190915
:102730008093BB008091BC0083FDF8CF85EC809333
:10274000BC0080911A098130E1F38091100984174F
:1027500010F440911009842F089585EEF0CF40E0E9
:10276000FACF0F93413208F044C090911A099111A9
:10277000FCCF92E090931A09009318099FEF909371
:10278000CB087093120960931109109210094093BD
:102790000F091092190990911909880F892B8093BC
:1027A000190980911709813011F51092170980914C
:1027B00019098093BB008091BC0083FDF8CF85ECA4
:1027C0008093BC00222321F080911A098230D1F33A
:1027D0008091CB088F3F79F08091CB08803269F0EF
:1027E0008091CB08803359F084E00F91089585EEF5
:1027F000E7CF81E0FACF80E0F8CF82E0F6CF83E048
:10280000F4CF2091ED08260F3327331F21323105F5
:10281000ECF420911A09FC0190E080E0243069F08A
:1028200082E00895A091ED082191AC014151574FEC
:10283000A40FB52FB11D2C930196861798F38091A4
:10284000ED08680F6093ED0880E0089581E0089539
:1028500085ED8093BC008091BC0084FDFCCF10927C
:102860001A09089585EC8093BC0010921A09089506
:102870001F920F920FB60F9211240BB60F922F9347
:102880003F934F935F936F937F938F939F93AF93F8
:10289000BF93EF93FF938091B900887F803609F44E
:1028A0004EC008F041C0883209F4AAC028F5803132
:1028B00009F49EC0C8F4882309F407C1883009F4DC
:1028C00097C0FF91EF91BF91AF919F918F917F91B1
:1028D0006F915F914F913F912F910F900BBE0F9091
:1028E0000FBE0F901F901895883109F489C080326F
:1028F00041F78093CB0815C0803409F4A6C048F492
:102900008033B9F38833E9F68093CB080E94321400
:10291000D8CF803509F489C0883509F49EC0883441
:1029200081F60E942814CDCF883909F494C038F577
:10293000883729F050F4883611F0803711F683E09B
:1029400080931A091092CC0857C0883809F483C0C4
:10295000803919F0803809F0B4CF8091CC088032EA
:1029600008F079C0E091CC0881E08E0F8093CC080C
:102970008091BB00F0E0E353F74F80833DC0803B84
:1029800039F0E0F4803A09F485C0883A09F099CF2B
:1029900084E080931A091092EE081092ED08E091FD
:1029A0001509F091160909958091ED0881110FC064
:1029B00081E08093ED081092EF0809C0803C09F493
:1029C00082C0883C09F47FC0883B09F07ACFE0914F
:1029D000EE0881E08E0F8093EE08F0E0E151F74FB2
:1029E00080818093BB009091EE088091ED0831C00A
:1029F000809119098093BB0085EC8093BC0061CF66
:102A00009091100980910F099817B8F580911109DC
:102A100090911209E091100921E02E0F20931009E6
:102A2000E80FF92FF11D8081E5CF20911109309138
:102A30001209E091100981E08E0F809310098091B6
:102A4000BB00E20FF32FF11D80839091100980915C
:102A50000F09981788F285E8D0CF2091110930919D
:102A60001209E091100981E08E0F80931009809186
:102A7000BB00E20FF32FF11D8083809118098111B3
:102A800050CF81E08093170984EA8093BC001092B4
:102A90001A0917CF0E9432148091CC08803230F48A
:102AA000E091CC08F0E0E353F74F10826091CC083E
:102AB00070E0E0911309F09114098DEC98E009950C
:102AC0001092CC08FECE85ECE0CF1092CB0829CF37
:102AD000CF93DF931F92CDB7DEB76983DC01ED9111
:102AE000FC910280F381E02D41E050E0BE016F5F78
:102AF0007F4F09950F90DF91CF910895CF93DF938A
:102B0000EC01E98DFA8D309749F481E090E09B83E8
:102B10008A8390E080E0DF91CF9108951382128242
:102B2000898D9A8D0E94F321E98DFA8D228133815E
:102B3000232B59F7F0CFFC01818D928D009711F076
:102B40000C94821F0895CF93DF931F92CDB7DEB709
:102B500041E050E0BE016F5F7F4F0E94A61D0197CC
:102B600031F4898190E00F90DF91CF9108958FEF3C
:102B70009FEFF9CFFC01818D928D009711F00C949D
:102B8000A3158FEF9FEF08950F931F93CF93DF93BC
:102B9000EC01898D9A8D10E000E0009799F00E9479
:102BA000A3158C010F3F100769F0898D9A8DFC01E8
:102BB00042855385648575854150510961097109C4
:102BC0000E94EE1EC801DF91CF911F910F910895D1
:102BD000EF92FF920F931F93CF93DF93EC017B0152
:102BE0008A011B821A8288EE93E0A0E0B0E08C8319
:102BF0009D83AE83BF8385E392E0998388838DE1D3
:102C000090E00E9442389A8F898F009779F02DE1E9
:102C1000F701DC0101900D922A95E1F74CE050E0BC
:102C2000B801CE010C960E94703A188EDF91CF91B8
:102C30001F910F91FF90EF900895FC011382128273
:102C400088EE93E0A0E0B0E084839583A683B78309
:102C500085E392E091838083128E118E148608950D
:102C6000DC015996ED91FC91309729F062857385CE
:102C70008485958508956FEF7FEFCB010895DC0182
:102C80005996ED91FC91309729F063897489858973
:102C90009689089560E070E0CB010895CF92DF92AD
:102CA000EF92FF92CF93DF93FC01218D328D232B86
:102CB00009F1EC010E943F166B017C01CE010E94DC
:102CC0003016A7019601261B370B480B590BDA016A
:102CD000C901811530E89307A105B10520F08FEFF8
:102CE0009FE7A0E0B0E0DF91CF91FF90EF90DF9001
:102CF000CF90089590E080E0F6CFCF93DF93EC0182
:102D0000898D9A8D009741F00E94CB1F898D9A8DF5
:102D10000E94DE381A8E198EDF91CF910895DC0162
:102D20005996ED91FC91309721F081E095819111B8
:102D300001C080E008951F93CF93DF93CDB7DEB736
:102D40006D970FB6F894DEBF0FBECDBFAB011C82EE
:102D50001B8229E432E03A8329831E8221E0BC01F0
:102D6000CE0101960E94062111E081110CC010E0F5
:102D7000812F6D960FB6F894DEBF0FBECDBFDF91E9
:102D8000CF911F910895CE0101960E94CB1FF0CFE5
:102D9000EF92FF920F931F93CF93DF937B01DB01A1
:102DA0002D913C91FC01E20FF31F60816F3211F411
:102DB0002F5F3F4F8C01020F131FEA01F0E0E0E0AC
:102DC000D8017D918D017F3249F0772339F02F5F53
:102DD0003F4F31967993EC30F10591F7E40FF51FF1
:102DE0001082FC01E20FF31F40814F3211F42F5F7C
:102DF0003F4FF70131832083280F391F81E0D9012C
:102E00009C91911101C080E0DF91CF911F910F91B2
:102E1000FF90EF9008954F925F926F927F928F9202
:102E20009F92AF92BF92CF92DF92EF92FF920F9359
:102E30001F93CF93DF93CDB7DEB7C954D1090FB637
:102E4000F894DEBF0FBECDBF5C016B013A014901B2
:102E500019A218A289E492E09F8F8E8F1BA21C8278
:102E60001B829A8389831E822A961FAE1EAE2A97E2
:102E70008B017E018EE1E80EF11C44244394AE01E7
:102E8000455C5F4FBE01685B7F4FC5010E94C8165D
:102E9000582E482F44259401BE01655C7F4FC80120
:102EA000F3010995811120C00C151D05C9F480E0BE
:102EB000C75BDF4F0FB6F894DEBF0FBECDBFDF910B
:102EC000CF911F910F91FF90EF90DF90CF90BF9027
:102ED000AF909F908F907F906F905F904F900895EC
:102EE000C8010E94CB1FE3CF552091F021E0AE0135
:102EF000455C5F4FB801C7010E940621582E0C1592
:102F00001D0571F0C8010E94CB1F51100EC0CFCF1C
:102F10000C151D0519F0C8010E94CB1F81E0C8CF18
:102F2000882329F28E010F5F1F4F902F812F870179
:102F3000E92EF82EA4CF0F931F93CF93DF93EC01CC
:102F4000162F8FA5882321F0CE018A960E94CB1FD1
:102F5000412F61E0CE010E94681A811102C090E009
:102F600012C08E01045F1F4F41E0BE01C8010E94E4
:102F70002D27882371F0B801CE018A960E94561D34
:102F800091E0882361F3892FDF91CF911F910F91F9
:102F9000089540E0BE01C8010E942D278823F9F260
:102FA000EACFFC01DB0112968D919C9113979383DC
:102FB000828389E492E09183808314968C911497A4
:102FC000848315968C911597858316964D915D9106
:102FD0006D917C91199746835783608771871A9604
:102FE0004D915D916D917C911D97428753876487C8
:102FF00075871E964D915D916D917C915197468795
:103000005787608B718B52968C915297828B539617
:103010004D915D916D917C915697438B548B658B4F
:10302000768B57964D915D916D917C915A97478B18
:10303000508F618F728F5B968D919C91948F838F4F
:1030400008954F925F926F927F928F929F92AF926C
:10305000BF92CF92DF92EF92FF920F931F93CF9385
:10306000DF93CDB7DEB7C754D1090FB6F894DEBFF2
:103070000FBECDBF5C014A013901665D7F4F7E0105
:103080008EE1E80EF11CC7010E94D1171C821B8241
:1030900089E492E09A8389831E828401FE0131963D
:1030A0006F015E2C4F2C6FE270E0C8010E945E3A07
:1030B000009709F455C0F80120812F3219F40F5FF1
:1030C0001F4FF1CF801B8D3008F08CE0E82EF12CE3
:1030D000A701B801CE01CB960E94703AEBE3F0E075
:1030E000EC0FFD1FEE0DFF1D1082C6010E94CB1FCD
:1030F00021E0AE01455C5F4F652D742DC6010E9435
:103100000621811121C0F5011382128289E492E027
:10311000918380831582C501C95BDF4F0FB6F89498
:10312000DEBF0FBECDBFDF91CF911F910F91FF90FA
:10313000EF90DF90CF90BF90AF909F908F907F9057
:103140006F905F904F9008950E0D1F1D852D942D4B
:103150000E94CB1FC2015C2C4D2CC92ED82EA3CFB0
:1031600008191909F30111830083652D742DC50118
:103170000E94D117D0CFAF92BF92CF92DF92FF9231
:103180000F931F93CF93DF93CDB7DEB7C955D10906
:103190000FB6F894DEBF0FBECDBF6C015B018A0194
:1031A000F22E9E01285A3F4FCE01CB960E94211845
:1031B0006A968EAD9FAD6A97080F191FF80180813E
:1031C000811110C0BE01655C7F4FCE0101960E9447
:1031D000D11743E452E0BE016F5F7F4FC6010E94EA
:1031E000E8150FC019A218A289E492E09F8F8E8F74
:1031F0001BA221968FAD2197811115C0C6010E9497
:103200001D16C601C75ADF4F0FB6F894DEBF0FBEBA
:10321000CDBFDF91CF911F910F91FF90DF90CF90A5
:10322000BF90AF90089582508230F8F4B501665D8A
:103230007F4F2F2DA801CE014E960E940621882394
:10324000E9F28F2D867041F049A95AA96BA97CA992
:10325000CE014E960E94EE1EBE01625E7F4FCE01F1
:1032600001960E94D117A801B6CF2F2DA801BE014B
:10327000655C7F4FCE014E960E940621882309F49B
:10328000BDCFCE01CB960E94CB1FDBCFFB01BC0193
:10329000665D7F4F30E020E04BE956E1CF010C94B2
:1032A0000B17EBE1F9E0158216821186138682E096
:1032B00090E0A0E0B0E084879587A687B78713A247
:1032C00015A614A689E492E093A782A717A60895ED
:1032D0009FB7F8942091720B8091700B213019F4F4
:1032E0008DBB9FBF08958FBF08952091720B22233D
:1032F00081F03FB7F8942091720B213069F42DB31F
:103300002093700B4DB32091710B209524232DBB7E
:103310003FBF8CBD9DBD08953093700BFACF8EBD1D
:1033200000000DB407FEFDCF8EB508958FEF0C940D
:103330008F1961E0FC0184810E94B135809164099C
:10334000882339F0109264098091720B81110C94DA
:1033500068190895CF93DF93EC018091640981117E
:1033600009C081E0809364098091650990916609A4
:103370000E94751960E08C81DF91CF910C94B1357A
:10338000CF93DF93EC018E81882389F08F8198851C
:103390009C012F5F3F4F38872F838230924018F473
:1033A0000E949619F3CFCE010E9499191E82DF91D7
:1033B000CF910895673028F026E1FC01258380E055
:1033C0000895623079F038F06430A9F090F06530FB
:1033D000A1F082E508C080E58093650981E08093D3
:1033E0006609089580E5809365091092660981E079
:1033F000089581E5F1CF81E5F6CF82E5EDCF0F931A
:103400001F93CF93DF93EB010E9496348B010E94B0
:1034100096198F3F69F00E949634601B710B6C17F0
:103420007D07A8F380E0DF91CF911F910F91089560
:1034300081E0F9CF8F929F92AF92BF92FF920F934C
:103440001F93CF93DF93EC01F62E49015A010E949E
:10345000C019CE010E94AA196CE271E0CE010E944F
:10346000FF198F2D80640E948F1908E110E0D501AB
:10347000C401002E04C0B695A795979587950A9428
:10348000D2F70E948F1908501109083F8FEF1807D3
:1034900071F785E9FF2021F088E0F8120DC087E878
:1034A0000E948F1910E00E9496198A8787FF06C034
:1034B0001F3F21F01F5FF7CF8FEFF2CFDF91CF914A
:1034C0001F910F91FF90BF90AF909F908F900895A4
:1034D0008F929F92AF92BF92EF92FF920F931F93A2
:1034E000CF93DF93EC01E62E1B8619861E821D8288
:1034F0004C830E9496348B0161E08C810E9475356B
:1035000061E08C810E94B1350E944D2882E5809354
:10351000650981E08093660980916509909166094B
:103520000E9475192AE0F22E8FEF0E948F19FA94EB
:10353000F110FACF8091720B81110E946819CE01AF
:103540000E94AA1920E030E0A90160E0CE010E94AB
:103550001A1AF82E8A8781E0F816C1F00E94963474
:10356000601B710B613D774068F381E08D83CE0174
:103570000E94991980E0DF91CF911F910F91FF90E8
:10358000EF90BF90AF909F908F9008952AEA31E01E
:1035900040E050E068E0CE010E941A1A82FF25C088
:1035A000FB868B85812C912C5401823029F4812C4F
:1035B000912CA12C80E4B82E20E030E0A90167E333
:1035C000CE010E941A1AA501940169E2CE010E945F
:1035D0001A1A8A878823C1F00E949634601B710BE7
:1035E000613D774048F388E0C1CF94E0F92E0E9416
:1035F00096198A87FA94F110FACF8A3A11F082E08C
:10360000B5CF82E08B87CDCF8B858230C1F420E0AF
:1036100030E0A9016AE3CE010E941A1A882311F052
:1036200086E0A4CF0E949619807C803C11F483E050
:103630008B870E9496190E9496190E949619CE01B6
:103640000E9499196E2DCE01DF91CF911F910F919C
:10365000FF90EF90BF90AF909F908F900C94DA19ED
:103660000F931F93CF93DF93EC010E9496348B014D
:103670000E9496198A878F3F91F40E949634601BAE
:10368000710B6D327140A0F38FE08D83CE010E94EB
:10369000991980E0DF91CF911F910F9108958E3F8E
:1036A00011F08DE0F2CF81E0F5CFCF92DF92EF9273
:1036B000FF920F931F93CF93DF93EC016901C80131
:1036C000820F931F8130924048F58E81882371F0DC
:1036D00088819981AA81BB8184179507A607B707BE
:1036E00029F48F819885C816D90670F548835983C7
:1036F0006A837B838B85833039F089E0440F551FC3
:10370000661F771F8A95D1F79A01AB0161E1CE015F
:103710000E941A1A882379F083E08D83CE010E94DB
:10372000991980E0DF91CF911F910F91FF90EF9059
:10373000DF90CF900895CE010E94301B882371F353
:1037400018861F8281E08E838F8198858C159D0558
:1037500060F06701E00EF11EEC14FD0471F00E94B0
:103760009619F60181936F01F7CF0E9496198F8108
:103770009885019698878F83E7CF8F819885080F6A
:10378000191F18870F838985882319F001151240A6
:1037900018F0CE010E94C01981E0C4CFEF92FF92D1
:1037A0000F931F930115110539F00E94551B1F91AE
:1037B0000F91FF90EF90089581E0F9CFEF92FF9283
:1037C0000F931F93790100E012E030E020E00E94A7
:1037D000551B1F910F91FF90EF900895EF92FF926C
:1037E0000F931F93CF93DF938C01862F7A010E9452
:1037F0008F19E7018EEFF81A89910E948F19CE1563
:10380000DF05D1F78FEF0E948F198FEF0E948F197C
:103810000E949619F80182878F71853069F081E1E5
:103820008583C8010E94991980E0DF91CF911F9193
:103830000F91FF90EF90089581E0F7CF0F931F93C2
:10384000CF93DF93EC01890182E1411551056105B8
:10385000710599F08B85833039F089E0440F551F4D
:10386000661F771F8A95D1F79A01AB0168E1CE01F7
:103870000E941A1A882339F084E08D83CE010E94B9
:10388000991980E023C0A8016EEFCE010E94EE1BC3
:103890008823A1F368E572E0CE010E94FF1981112F
:1038A00002C085E1EACF20E030E0A9016DE0CE0161
:1038B0000E941A1A882311F084E1DFCF0E94961922
:1038C0008111FACFCE010E94991981E0DF91CF9149
:1038D0001F910F910895E5E6F9E080E5808381E08E
:1038E000818308950895CF93DF93EC019C012A5FB3
:1038F0003F4F41E050E060E070E08B8D9C8D0E9476
:10390000CC258823A1F08F89988DA98DBA8D892B1C
:103910008A2B8B2B59F48E819F81A885B9858F8B3B
:10392000988FA98FBA8F8C8180688C8381E0DF911A
:10393000CF9108958F929F92AF92BF92CF92DF92D4
:10394000EF92FF92CF93DF93EC010E94731C8111E1
:103950000CC080E0DF91CF91FF90EF90DF90CF908F
:10396000BF90AF909F908F900895EB8DFC8DCE808F
:10397000DF80E884F98482E0C81AD108E108F10800
:10398000858504C0CC0CDD1CEE1CFF1C8A95D2F78B
:1039900086859785A089B189C80ED91EEA1EFB1EAF
:1039A000848146015701880E911CA11CB11C8C1406
:1039B0009D04AE04BF0461F081E0881A9108A1085B
:1039C000B108C501B4010E941A248111F0CFC1CF02
:1039D000EB8DFC8D258580E092E0A0E0B0E004C096
:1039E000880F991FAA1FBB1F2A95D2F74B895C89A4
:1039F0006D897E89840F951FA61FB71F8B8B9C8BAB
:103A0000AD8BBE8B81E0A6CFCF93DF93EC01462F29
:103A10006E857F85888999890E94DF23882351F0EC
:103A20008A8920E2829FC00111248059964FDF913C
:103A3000CF91089590E080E0FACFFB019B01255FD4
:103A40003F4F40E241932E173F07E1F7DC0120E0B2
:103A500037E09D91492F992319F19E3229F43A308C
:103A600059F028E03AE0F5CFE6E8F1E084918823C8
:103A700029F031969813FACF80E017C03217A8F0DA
:103A80005FED590F5E3588F48FE9890F8A3110F4A4
:103A900040EE490FFB01E20FF11D40832F5FD9CFAC
:103AA00081E0FB019081903239F308950F931F93C9
:103AB000CF93DF93FC012581222331F080E0DF9159
:103AC000CF911F910F9108958B01EC01FB01878924
:103AD000803139F582E08D831F8A188E198E1A8EF7
:103AE000808D918DB0E0A0E025E0880F991FAA1F7E
:103AF000BB1F2A95D1F78B8B9C8BAD8BBE8B1C8FFC
:103B00000B8F81E08C831E821F82188619861A868D
:103B10001B861C861D861E861F86188A198A1A8A8D
:103B2000CECF803259F683E08D83428D538D648DE4
:103B3000758D4F8B588F698F7A8F9E012D5E3F4F09
:103B4000C8010E94BF248111DACFB8CF2F923F92D3
:103B50004F925F926F927F928F929F92AF92BF929D
:103B6000CF92DF92EF92FF920F931F93CF93DF9349
:103B7000EC015B012A018D81811115C08FEF9FEF50
:103B8000DF91CF911F910F91FF90EF90DF90CF9039
:103B9000BF90AF909F908F907F906F905F904F906D
:103BA0003F902F9008958C8180FFE8CF0B891C896E
:103BB0002D893E894A855B856C857D85C201B0E093
:103BC000A0E068017901C41AD50AE60AF70AC81606
:103BD000D906EA06FB0618F42801441A550A4201E0
:103BE0001E0126E0220E311C8114910409F4B3C099
:103BF0004A855B856C857D856A0181E0D8228B8D45
:103C00009C8D8A019B01E9E03695279517950795CC
:103C1000EA95D1F7ED81E230E1F5FC01628D738D1B
:103C2000848D958D600F711F821F931F612C22E080
:103C3000722E6C187D088614970408F434012C81C8
:103C400026FD04C06114F2E07F0671F400910801C2
:103C50001091090120910A0130910B0106171707F5
:103C60002807390709F053C040E00E94DF2388236A
:103C700009F484CFC6018059964FD5019C01260DC9
:103C8000371DFC012E173F0709F460C041914D9389
:103C9000F9CFFC0174807A947022C114D10471F4BC
:103CA00071100CC0452B462B472B39F58F89988D09
:103CB000A98DBA8D8E839F83A887B987EB8DFC8DE4
:103CC0006E817F818885998562507109810991098A
:103CD000258504C0660F771F881F991F2A95D2F784
:103CE0000685178520893189600F711F821F931FF8
:103CF000670D711D811D911D99CF4E815F81688572
:103D0000798591010E943E248111D8CF37CF75016A
:103D100083019601AB01BC0180916E0990916F09FE
:103D20000E94CE1B882309F429CFA60CB71C8A85D4
:103D30009B85AC85BD85860D971DA11DB11D8A870C
:103D40009B87AC87BD87861897084ECF281B390BF9
:103D5000A20EB31EECCFC20113CFFF920F931F939D
:103D6000CF93DF931F92CDB7DEB7FC0125812230C0
:103D7000C8F08C01428553856485758585E076950C
:103D80006795579547958A95D1F7F42FFF70FF2EC9
:103D900041E050E0BE016F5F7F4FC8010E94A61D49
:103DA000019719F090E080E012C0F80182859385B8
:103DB000A485B5854F96A11DB11D82879387A487E1
:103DC000B587F0E2FF9EC00111248059964F0F90F5
:103DD000DF91CF911F910F91FF9008958F929F9245
:103DE000AF92BF92CF92DF92EF92FF920F931F9309
:103DF000CF93DF93EC018D8181110EC080E0DF91C4
:103E0000CF911F910F91FF90EF90DF90CF90BF90D7
:103E1000AF909F908F9008950B891C892D893E89C2
:103E2000041715072607370748F34A015B0182305C
:103E300031F48A869B86AC86BD8681E0E0CF811412
:103E40009104A104B10449F41E821F8218861986C8
:103E50001A861B861C861D86F0CF0A851B852C853D
:103E60003D85EB8DFC8D858590E00996B901A80113
:103E70004150510961097109082E04C07695679572
:103E8000579547950A94D2F775016401E1E0CE1A7F
:103E9000D108E108F10804C0F694E794D794C794D8
:103EA0008A95D2F7C416D506E606F70620F0012B50
:103EB000022B032B11F58F89988DA98DBA8D8E83D6
:103EC0009F83A887B9878E010A5F1F4FC114D10451
:103ED000E104F10409F4ADCF4E815F8168857985F5
:103EE00098018B8D9C8D0E943E2491E0C91AD108C7
:103EF000E108F1088111EACF81CFC41AD50AE60A98
:103F0000F70AE1CF0F931F93CF93DF93EC018D81DD
:103F10008823D9F18C8187FF32C061E0CE010E94F5
:103F2000041D8C01892B89F18D81823048F48B89A5
:103F30009C89AD89BE89F801848F958FA68FB78F34
:103F40008F89988DF801938F828F8F89988DA98D95
:103F5000BA8DB58BA48BE0916709F0916809309711
:103F600059F0B8016A5E7F4FC80148960995F8017B
:103F7000808D918D938B828B8C818F778C83DF9159
:103F8000CF911F910F910C94A42380E0DF91CF91EA
:103F90001F910F910895CF93DF93EC010E94821F30
:103FA000882311F01D8281E0DF91CF9108954F9217
:103FB0005F926F927F928F929F92AF92BF92EF9299
:103FC000FF920F931F93CF93DF9300D000D0CDB714
:103FD000DEB7FC0185818130A1F080E00F900F9069
:103FE0000F900F90DF91CF911F910F91FF90EF9065
:103FF000BF90AF909F908F907F906F905F904F9009
:104000000895848181FFE9CF83899489A589B68940
:1040100084179507A607B70700F3892B8A2B8B2BEC
:1040200009F477C04A015B017F01428453846484B0
:104030007584CF010E94EE1E882379F2F701838DEB
:10404000948D81149104A104B10449F54789508DE0
:10405000618D728D0E94D726882309F4BECFF701A7
:10406000178A108E118E128EF701838A948AA58A80
:10407000B68A848180688483C7010E94821F882356
:1040800009F4ABCFB501A4014416550666067706C0
:1040900010F4B301A201C7010E94EE1E9FCF46811A
:1040A0005781608571859E012F5F3F4F0E943E249E
:1040B000882309F492CFF701838D948D49815A8129
:1040C0006B817C81FC0127892031F1F408EF1FEF1F
:1040D00020E030E0401751076207730728F60E947E
:1040E000D726882309F479CFF70146815781608567
:1040F00071850FEF1FEF2FEF3FE0838D948D0E94AE
:104100002A258111B1CF69CF08EF1FEF2FEF3FE0D4
:10411000E1CF81E063CFCF92DF92EF92FF921F93C6
:10412000CF93DF93EC0180E2689FF0011124E05906
:10413000F64F9385917161F0842F827449F080E08D
:10414000DF91CF911F91FF90EF90DF90CF90089576
:10415000142F6A8B8091080190910901A0910A01A6
:10416000B0910B018E879F87A88BB98BC488D588A7
:10417000F12CE12C7601DD24CC24CF8AD88EE98E77
:10418000FA8E828D938DB0E0A0E0AC01BD014C2988
:104190005D296E297F294F8B588F698F7A8F838590
:1041A000887129F5848D958DA68DB78D8B8B9C8B11
:1041B000AD8BBE8B81E08D83812F8F708C831E82AF
:1041C0001F82188619861A861B861C861D8681E02A
:1041D00016FFB6CF40E050E0BA01CE01DF91CF919B
:1041E0001F91FF90EF90DF90CF900C94D71F8031FC
:1041F00009F0A5CF9E012D5E3F4F8B8D9C8D0E94B7
:10420000BF24882309F49BCF84E0D5CFBF92CF92FF
:10421000DF92EF92FF920F931F93CF93DF93CDB76F
:10422000DEB72B970FB6F894DEBF0FBECDBFFC01F3
:10423000358131110BC0C22E8B017C01BE016F5F35
:104240007F4FCA010E941D1D811102C080E0A1C0E4
:10425000F801838D948DF701948F838FF801168276
:104260001782108611861286138614861586B12C45
:10427000F80182859385A485B5854389548965892C
:10428000768984179507A607B70788F525E0B695C0
:10429000A795979587952A95D1F7F82FFF70DF2E70
:1042A000C8010E94AD1E009789F2FC0120812223E3
:1042B00041F0253E09F059C0BB2029F0BB24B3943E
:1042C000D7CFB1100EC0F701D28A409108015091AA
:1042D000090160910A0170910B0146875787608B35
:1042E000718BFC0180818111E9CFBB24B3948C2DAB
:1042F0008271823109F0AACFBB2009F45AC061E073
:10430000C7010E94041D8C01892B09F49FCF80E214
:10431000F80111928A95E9F78BE0FE013196D801F8
:1043200001900D928A95E1F7E0916709F091680993
:10433000309709F44EC0B801625F7F4FC8014096C4
:104340000995F80180899189938B828B918F808F59
:1043500086859785978B868B0E94A423882309F4F2
:1043600075CF4C2DF701628911C04BE050E0BC01C4
:10437000CE0101960E94483A892B09F079CF8C2D05
:1043800080734C2D6D2D803309F460CFC7010E94DE
:104390008B202B960FB6F894DEBF0FBECDBFDF91FA
:1043A000CF911F910F91FF90EF90DF90CF90BF9032
:1043B0000895F8018581823009F448CFC8010E9430
:1043C0009A1C882309F442CFF701128A00E719E00A
:1043D0009ECF81E298E2F801918B808B80E098E09B
:1043E00097878687AECF2F923F924F925F926F92C0
:1043F0007F928F929F92AF92BF92CF92DF92EF9275
:10440000FF920F931F93CF93DF9300D000D0CDB7CF
:10441000DEB78C016B011A01DC0115968C911597A2
:10442000813009F0C8C014968C9181FFC4C082FD10
:10443000AEC04101D8011A964D915D916D917C916C
:104440001D978114910409F429C15B968D919C916B
:104450005C97FC0174802FEF270D2A013B0139E0A6
:1044600076946794579447943A95D1F7722E7420B6
:104470007A01F1E0FF22711020C0E114F104E9F4A7
:1044800016964D915D916D917C911997411551054D
:104490006105710509F098C057968D919D910D9019
:1044A000BC91A02D0097A105B10509F0AFC0C801CE
:1044B0000E94731C882309F47EC080E092E08E196C
:1044C0009F0954018815990508F45C01D8015B9691
:1044D0004D915C915C9716968D919D910D90BC913C
:1044E000A02D0297A109B109FA01258504C0880F02
:1044F000991FAA1FBB1F2A95D2F746855785608949
:104500007189840F951FA61FB71F9C01AD01270D50
:10451000311D411D511D29013A01A11432E0B3069C
:1045200009F07AC08091080190910901A0910A01D7
:10453000B0910B0184159505A605B70559F48FEFC9
:104540009FEFDC018093080190930901A0930A0179
:10455000B0930B019601B301A20180916E09909175
:104560006F090E941E1C882331F19EEFD91A8A1808
:104570009B08F80182859385A485B5858A0D9B1DCE
:10458000A11DB11D82879387A487B58753CFF801FA
:10459000438954896589768982859385A485B58503
:1045A000481759076A077B0709F443CFC8010E94DF
:1045B000EE1E81113ECF81E090E0D80113969C93CE
:1045C0008E93129780E007C09E012F5F3F4F0E949D
:1045D0003E24811102C090E07BC089819A81AB8129
:1045E000BC81F801238D348DF901278948EF5FEFF5
:1045F00060E070E0203121F048EF5FEF6FEF7FE087
:1046000084179507A607B70708F051CFF8018683EE
:104610009783A087B18751CFE114F10491F5D801B8
:104620001A964D915D916D917C911D9753968D9148
:104630009D910D90BC91A02D481759076A077B07E3
:1046400000F10E94A423882309F4B5CF4092080109
:104650005092090160920A0170920B0180916D09DC
:10466000816080936D0997012059364FD601C901A9
:104670008A0D9B1DF9018E179F0759F04D914193AB
:10468000FACF41E0C301B2010E94DF238111EBCFD9
:1046900092CF821B930BC80ED91E69CF14968C91B2
:1046A00014975396CD90DD90ED90FC905697C416DC
:1046B000D506E606F70618F5F801438B548B658B93
:1046C000768B80688483F801848183FD25C0C101D5
:1046D0000F900F900F900F90DF91CF911F910F913E
:1046E000FF90EF90DF90CF90BF90AF909F908F9012
:1046F0007F906F905F904F903F902F900895209102
:10470000670930916809232BF1F221143104D9F2A1
:10471000806814968C93D7CFC8010E94821F88238B
:1047200009F449CFD4CFCF93DF931F92CDB7DEB733
:10473000698341E050E0BE016F5F7F4F0E94F3212B
:104740000F90DF91CF91089580916D098823A9F191
:10475000409108015091090160910A0170910B018B
:1047600020E739E080916E0990916F090E941E1C2C
:10477000811102C080E008954091690950916A0951
:1047800060916B0970916C094115510561057105C6
:1047900091F020E739E080916E0990916F090E94B5
:1047A0001E1C882339F31092690910926A0910922D
:1047B0006B0910926C0910926D0981E00895CF92F7
:1047C000DF92EF92FF92CF936B017C01C42F809117
:1047D000080190910901A0910A01B0910B018C157B
:1047E0009D05AE05BF05F9F00E94A423811107C005
:1047F00080E0CF91FF90EF90DF90CF90089520E779
:1048000039E0B701A60180916E0990916F090E946D
:10481000DE1B882369F3C0920801D0920901E0925F
:104820000A01F0920B0140916D094C2B40936D09E8
:1048300081E0DFCFCF92DF92EF92FF926B017C019C
:104840000E94A4238823A9F0E0E7F9E011928BE00D
:10485000E037F807D9F7C0920801D0920901E09239
:104860000A01F0920B0180916D09816080936D09BE
:1048700081E0FF90EF90DF90CF9008958F929F920C
:10488000AF92BF92CF92DF92EF92FF920F931F935E
:10489000CF93DF93FC0181859285A385B485019632
:1048A000A11DB11D84179507A607B70770F480E016
:1048B000DF91CF911F910F91FF90EF90DF90CF90FC
:1048C000BF90AF909F908F90089583889488A5881B
:1048D000B6888789803189F5BB27A72F962F852F2A
:1048E000E9016A017B018F01BC01CD01680D791DD1
:1048F0008A1D9B1D8090080190900901A0900A01DB
:10490000B0900B0186169706A806B90601F5F801C6
:104910008789803111F5DD24EE24FF24F601EE0FA6
:10492000FF1FE059F64F80819181B0E0A0E08883BD
:104930009983AA83BB8381E0BBCFDB01CA01C7E0B7
:10494000B695A79597958795CA95D1F7C9CF40E0B9
:104950000E94DF238111DBCFAACFE894C7F8DD24C2
:10496000EE24FF24F601EE0FFF1FEE0FFF1FE059AC
:10497000F64F80819181A281B381BF70D8CF4F92D1
:104980005F926F927F92AF92BF92CF92DF92EF923F
:10499000FF920F931F93CF93DF9300D000D0CDB73A
:1049A000DEB78C0149835A836B837C835901C12C08
:1049B000D12C7601412C82E0582E612C712C49813A
:1049C0005A816B817C819E012F5F3F4FC8010E94FD
:1049D0003E24882339F1F8018585A301920104C0A2
:1049E000220F331F441F551F8A95D2F7DA01C901E0
:1049F000C80ED91EEA1EFB1E49815A816B817C813B
:104A00008789803111F188EF9FEFAFEFBFE0481742
:104A100059076A077B0798F2F501C082D182E282CA
:104A2000F38281E00F900F900F900F90DF91CF9164
:104A30001F910F91FF90EF90DF90CF90BF90AF90BC
:104A40007F906F905F904F90089588EF9FEFA0E068
:104A5000B0E0DDCF4F925F926F927F928F929F92E4
:104A6000AF92BF92CF92DF92EF92FF920F931F937C
:104A7000CF93DF93EC01423051056105710590F44D
:104A800080E0DF91CF911F910F91FF90EF90DF9029
:104A9000CF90BF90AF909F908F907F906F905F90DE
:104AA0004F90089589859A85AB85BC850196A11D97
:104AB000B11D84179507A607B70710F3CB88DC88CC
:104AC000ED88FE888F89803109F042C0BB27A72F6F
:104AD000962F852F480159012A013B01C80ED91E86
:104AE000EA1EFB1E8091080190910901A0910A0124
:104AF000B0910B01C816D906EA06FB0699F58F8915
:104B00008031C1F5B301A201552766277727440FED
:104B1000551F4059564FFA019182808280916D094C
:104B2000816080936D098A89823080F08D819E81B9
:104B3000AF81B8858C0D9D1DAE1DBF1D8093690989
:104B400090936A09A0936B09B0936C0981E099CFA7
:104B5000DB01CA01E7E0B695A79597958795EA9599
:104B6000D1F7B8CF40E0C701B6010E94DF23811121
:104B7000C6CF86CFB301A2014F7755276627772787
:104B8000440F551F440F551F4059564FFA0180825C
:104B90009182A282B382C2CF2F923F924F925F92B4
:104BA0006F927F928F929F92AF92BF92CF92DF923D
:104BB000EF92FF920F931F93CF93DF93CDB7DEB7A2
:104BC0002F970FB6F894DEBF0FBECDBF3C014887CC
:104BD00059876A877B873F832E83D901CD90DD90EB
:104BE000ED90FC90C114D104E104F10439F0BFEF61
:104BF000CB1ADB0AEB0AFB0A1D8210C0FC01C08045
:104C0000D180E280F380F1E0FD83088519852A8553
:104C10003B85013011052105310571F7F3018185CF
:104C20009285A385B4858C019D010F5F1F4F2F4F87
:104C30003F4F0C871D872E873F8746015701212C48
:104C4000312C2101F30181859285A385B485281635
:104C500039064A065B0608F044C00C851D852E8582
:104C60003F85081519052A053B0550F482E0882E7A
:104C7000912CA12CB12C92E0C92ED12CE12CF12C3D
:104C80009E012F5F3F4FB501A401C3010E943E2446
:104C9000882339F1D501C4010196A11DB11D4981B7
:104CA0005A816B817C81452B462B472BA9F5AC01A2
:104CB000BD014C195D096E097F09088519852A8592
:104CC0003B85401751076207730741F50FEF1FEF50
:104CD0002FEF3FE0B501A401C3010E942A258111F5
:104CE00025C01D828D812F960FB6F894DEBF0FBEB2
:104CF000CDBFDF91CF911F910F91FF90EF90DF908B
:104D0000CF90BF90AF909F908F907F906F905F906B
:104D10004F903F902F9008956C017D011FEF211A55
:104D2000310A410A510A4C015D018CCFC814D904E3
:104D3000EA04FB0488F41401250121E0221A310859
:104D40004108510895018401B201A101C3010E94EB
:104D50002A2552014101C3CFAE81BF814D915D91A2
:104D60006D917C91411551056105710561F4EE81EC
:104D7000FF81C082D182E282F382FD81F1110BC0FA
:104D800001E00D83AFCF97018601C3010E942A2560
:104D90008111EDCFA6CF1FEFC11AD10AE10AF10AA6
:104DA000D301CD92DD92ED92FC9213979BCFAF92FF
:104DB000BF92CF92DF92EF92FF920F931F93CF9308
:104DC000DF9300D000D0CDB7DEB75C016A017B0174
:104DD00082E090E0A0E0B0E0F50180839183A283BF
:104DE000B3839E012F5F3F4FB701A601C5010E940B
:104DF0003E24882381F100E010E09801B701A6016C
:104E0000C5010E942A25882331F1C980DA80EB8010
:104E1000FC80F50187898031C9F088EF9FEFAFEF03
:104E2000BFE0C816D906EA06FB06D8F281E00F906B
:104E30000F900F900F90DF91CF911F910F91FF90E6
:104E4000EF90DF90CF90BF90AF90089588EF9FEFE5
:104E5000A0E0B0E0E6CF80E0EACF8F929F92AF92E1
:104E6000BF92CF92DF92EF92FF920F931F93CF9357
:104E7000DF93EC01142F70936F0960936E09442344
:104E800009F478C0453070F080E0DF91CF911F9138
:104E90000F91FF90EF90DF90CF90BF90AF909F90D9
:104EA0008F90089540E060E070E0CB010E94DF2326
:104EB000882351F3812F8150990BAC0164E0440F9A
:104EC000551F6A95E1F74059564FFA01E254FE4FDB
:104ED00080818F77C9F63C9680819181A281B381D0
:104EE00084369105A105B10578F24A535E4FFA0167
:104EF000C080D180E280F380C114D104E104F104C8
:104F000019F240E0C701B6010E94DF23882309F4AB
:104F1000BBCF80917B0990917C098115924009F06B
:104F2000B3CF90918009992309F4AECF20917E09E7
:104F300030917F09232B09F4A7CF80917D09882325
:104F400009F4A2CF9A8B8C831D8690E041E050E05B
:104F50002D85E22FBA01022E02C0660F771F0A9438
:104F6000E2F78617970751F031E0320F3D8728307E
:104F700078F38ACFC12CD12C7601C3CF209186093A
:104F80003091870950E040E02115310541F420912E
:104F900094093091950940919609509197092D8374
:104FA0003E834F83588780917E0990917F09460107
:104FB0005701880E991EA11CB11C8B8A9C8AAD8A50
:104FC000BE8A0091810910918209198F088FA091E2
:104FD0008009B0E00E941938DC01CB01880D991DD1
:104FE000AA1DBB1D8A8F9B8FAC8FBD8F25E0000F44
:104FF000111F2A95E1F701501E4F012F1127069529
:10500000800F911FA11DB11D8E879F87A88BB98B23
:10501000009183091091840930E020E00115110509
:1050200041F40091900910919109209192093091D9
:105030009309C81AD90AEA0AFB0AC00ED11EE21E59
:10504000F31E04C0F694E794D794C794EA95D2F778
:10505000C986DA86EB86FC868CE025EFC2162FE047
:10506000D206E104F10440F085EFC8168FEFD806B0
:10507000E104F10420F480E18F8B81E006CF809180
:105080009C0990919D09A0919E09B0919F098A8FDA
:105090009B8FAC8FBD8F80E2EFCFCF93CFB7F894CB
:1050A0008091730B811127C0EAEDF1E08491EAEB66
:1050B000F1E09491E82FF0E0EE0FFF1FE65FFD4F67
:1050C000A591B491EC91E92321F461E084E00E9480
:1050D000B13561E084E00E9475358CB580618CBD8E
:1050E0008CB580648CBD61E087E00E94753561E01D
:1050F00085E00E9475358091730B8F5F8093730BF1
:10510000CFBFCF910895CF93DF93EC016A818A8D51
:105110009B8D0E94C2128A8D9B8D0E944A13282F5C
:1051200030E02115310511F084E8898F81E0232BCF
:1051300009F080E0DF91CF910895CF92DF92EF9256
:10514000FF920F931F93CF93DF93EC01F62EE42E83
:10515000C52E462F6A818A8D9B8D0E9444138F1124
:105160001FC0DE2C0E2D1C2D802F8D198F1568F47D
:105170008A8D9B8DDC01ED91FC910284F385E02DFD
:105180000995F80181938F01EFCF198E81E0DF91AE
:10519000CF911F910F91FF90EF90DF90CF900895E6
:1051A00082E8898F80E0F3CFDC01ED91FC910190E2
:1051B000F081E02D09940F931F93CF93DF93EC01BF
:1051C0008B016A818A8D9B8D0E94C212612F70E0D3
:1051D0008A8D9B8D0E94D428B80177278A8D9B8D5C
:1051E0000E94D4288A8D9B8D0E944A13882341F007
:1051F00081E8898F80E0DF91CF911F910F91089511
:10520000198E81E0F8CFFC0185E592E091838083DF
:105210006283538F428F1482158216821782108EFA
:10522000178A168A158A138214861586168617869B
:10523000108A118A128A138A148A118E0895CF93C4
:10524000DC01ED91FC910280F381E02D61110FC032
:1052500062EA70E30995C82F882331F061E070E0BD
:1052600080E090E00E94C7348C2FCF91089566E0D3
:1052700070E0F0CFFC0192819454923020F460E011
:10528000CF010C941F2980E00895FB018FEF21E3EB
:10529000442369F09191892798E087FF06C0880F21
:1052A00082279150D1F74150F3CF880FFACF08955C
:1052B000EF92FF920F931F93CF93DF9300D000D014
:1052C00000D0CDB7DEB78C01E62EDC01ED91FC916C
:1052D0000480F581E02DAE014F5F5F4F66E00995D8
:1052E000F82E882381F0E1102BC0EB8042E0BE0154
:1052F0006F5F7F4FC8010E944529E81691F085E84D
:10530000F801818FF12C8F2D26960FB6F894DEBF11
:105310000FBECDBFDF91CF911F910F91FF90EF9006
:105320000895EE8042E0BE016C5F7F4FC8010E948D
:105330004529E81629F086E8D80159968C93E2CFE2
:10534000898190E0982F88272A81820F911DF8018A
:10535000908F878B8C8190E0982F88272D81820FEA
:10536000911D968B858B0E949634D80114966D936F
:105370007D938D939C931797C6CF1F93CF93DF9305
:10538000EC01162FE881F9810280F381E02D60E0C5
:1053900074E2112311F066E174E2CE0109958823CD
:1053A00099F06FE070E080E090E0112321F064E07C
:1053B00070E080E090E00E94C734612FCE01DF9161
:1053C000CF911F910C94582980E0DF91CF911F91CC
:1053D0000895FC01608352AF41AF88E0818389E189
:1053E0009CEFAFEFBFEF82839383A483B583868363
:1053F0009783A087B187938B828B10AA11AA12AAD8
:1054000013AA14AA15AA16AA17AA12861386148616
:10541000158616861786108A118A81E080AF089556
:10542000CF93DF93EC01688189AD9AAD0E94C212DF
:1054300089AD9AAD0E944A1391E0811190E0892FC5
:10544000DF91CF9108958F929F92AF92BF92CF92AA
:10545000DF92EF92FF92FC0186849784A088B18846
:1054600062817381848195810E94B2362AE037ED92
:1054700043E25CE30E9462376B017C0120E030E094
:10548000A901C501B4010E947536882341F0A50128
:105490009401C701B6010E9409366B017C01C70166
:1054A000B601FF90EF90DF90CF90BF90AF909F90AC
:1054B0008F9008958F929F92AF92BF92CF92DF927A
:1054C000EF92FF92FC0182849384A484B584668168
:1054D0007781808591850E94B2362AE037ED43E2DC
:1054E0005CE30E9462376B017C0120E030E0A9019F
:1054F000C501B4010E947536882341F0A5019401CD
:10550000C701B6010E9409366B017C01C701B601D3
:10551000FF90EF90DF90CF90BF90AF909F908F90D3
:1055200008951F93CF93DF93EC01162F0E943B3415
:10553000688189AD9AAD0E94C21289AD9AADDC0135
:10554000ED91FC910190F081E02D612F099589ADDD
:105550009AAD0E944A1390E09B8B8A8BDF91CF918A
:105560001F9108958F929F92AF92BF92CF92DF9238
:10557000EF92FF921F93CF93DF93CDB7DEB72A97B9
:105580000FB6F894DEBF0FBECDBF4D30B0F14CE08A
:1055900018EF140F212F220F620F0E94912A8AE028
:1055A000ECE0F1E0DE01119601900D928A95E1F7B1
:1055B000412F50E0440F551F81E090E08C0F9D1F5C
:1055C000480F591FFA01C080D1800E94A2344B01BC
:1055D0005C01F12CE12C0E94A234681979098A0936
:1055E0009B096C157D058E059F0558F40E943B3480
:1055F0008AE090E00E940035EECF483048F648E05F
:10560000C7CF2A960FB6F894DEBF0FBECDBFDF918D
:10561000CF911F91FF90EF90DF90CF90BF90AF9010
:105620009F908F9008950F931F93CF93DF936830CF
:1056300038F090E080E0DF91CF911F910F910895B5
:10564000EC01660F60560E94912A8A899B89892BFA
:1056500081F742E0688189AD9AAD0E94441382309F
:1056600040F389AD9AADDC01ED91FC910284F385A4
:10567000E02D099500E0182F89AD9AADDC01ED9180
:10568000FC910284F385E02D0995800F911FD3CF03
:105690008F929F92AF92BF92CF92DF92EF92FF9242
:1056A000CF93DF93EC0160E00E94912A8A899B8965
:1056B000892B71F060E070E0CB01DF91CF91FF901A
:1056C000EF90DF90CF90BF90AF909F908F90089514
:1056D00043E0688189AD9AAD0E944413833050F352
:1056E00089AD9AADDC01ED91FC910284F385E02D4A
:1056F0000995092E000CAA0BBB0B5C019924882488
:1057000089AD9AADDC01ED91FC910284F385E02D29
:1057100009956C01990FEE08FF08FE2CED2CDC2C8E
:10572000CC24C80CD91CEA1CFB1C89AD9AADDC0149
:10573000ED91FC910284F385E02D0995BC01990F50
:10574000880B990B6C0D7D1D8E1D9F1DB6CF4F9242
:105750005F926F927F928F929F92AF92BF92CF9201
:10576000DF92EF92FF920F931F93CF93DF93CDB70A
:10577000DEB766970FB6F894DEBF0FBECDBF9E8B27
:105780008D8BF62E462F60E40E94B22AED89FE89A9
:10579000028913890115110509F043C1CF010E9447
:1057A000482B6D877E878F87988BED89FE890289CC
:1057B00013890115110509F034C14F2D60E5CF01A2
:1057C0000E94B22AED89FE8902891389011511050B
:1057D00009F027C1CF010E94482BED89FE8902897B
:1057E00013890115110509F01CC10E94B036ED891D
:1057F000FE8920A531A542A553A50E9408366B015C
:105800007C01ED89FE8924A535A546A557A50E94F2
:10581000623720E030E04AEF54E40E9409360E94EB
:105820007A364B015C01ED89FE8982829382A482E3
:10583000B58224A135A146A157A1C701B6010E9496
:105840006237ED89FE89248D358D468D578D0E94F6
:1058500009362B013C01ED89FE8920A131A142A12D
:1058600053A1C701B6010E946237ED89FE89208DE0
:10587000318D428D538D0E94093669837A838B83E3
:105880009C83ED89FE8980AD882309F49EC0F0EDEC
:105890008F16F7E09F06A104B1040CF096C0A70193
:1058A0009601C701B6010E94623720E030E040E077
:1058B00050E30E946237698B7A8B8B8B9C8BC5017E
:1058C000B401605D7740810991099B01AC010E94A0
:1058D000CF370E94B2366B017C0120E030E040E21D
:1058E00050E40E9462376D837E838F83988720E027
:1058F00030E040EA5FE3C701B6010E9462376B0106
:105900007C0184E288168AEF98068FEFA806B80615
:10591000A4F5C501B40164527A4F8F4F9F4F9B018C
:10592000AC010E94CF370E94B23669877A878B8795
:105930009C8720E030E040EE50E40E9462379B01FB
:10594000AC016D817E818F8198850E9409366D83BF
:105950007E838F83988720E030E040EB50E46985B8
:105960007A858B859C850E9462379B01AC01C701BB
:10597000B6010E9409366B017C01C501B4010E9489
:10598000B23629893A894B895C890E9408360E947F
:105990007A36ED89FE8962837383848395832D81B2
:1059A0003E814F815885C301B2010E9408362B0108
:1059B0003C01A701960169817A818B819C810E94BB
:1059C000083669837A838B839C836D857E858F857A
:1059D00098890E94B03629813A814B815C810E946E
:1059E000623720E030E040E055E30E946237A301D7
:1059F00092010E94083620E030E040E058E30E9427
:105A000062370E947A36ED89FE89668377838087C4
:105A100091870E949634ED89FE8960AB71AB82ABB1
:105A200093ABC80166960FB6F894DEBF0FBECDBF2C
:105A3000DF91CF911F910F91FF90EF90DF90CF906A
:105A4000BF90AF909F908F907F906F905F904F909E
:105A50000895CF92DF92EF92FF92FC01262F80E013
:105A600090E0A0E8BFE3848B958BA68BB78B80E09A
:105A700090E0A0E0B7E4808F918FA28FB38F40E0D9
:105A800050E060E877E4448F558F668F778F80E031
:105A900090E0A0E8BBE380A391A3A2A3B3A380E01E
:105AA00090E0A0E0BCE384A395A3A6A3B7A3C12C78
:105AB000D12C30E8E32E33E4F32EC0A6D1A6E2A623
:105AC000F3A6C12CD12CE12C34E3F32EC4A6D5A629
:105AD000E6A6F7A62130C1F4408F518F628F738FF5
