:100000000C9411010C943B010C943B010C943B01AA
:100010000C943B010C943B010C943B010C943B0170
:100020000C943B010C943B010C943B010C943B0160
:100030000C943B010C94A7010C943B010C943B01E4
:100040000C943B010C943B010C94BF330C943B018A
:100050000C943C2F0C94722F0C943B010C943B019C
:100060000C943B010C943B010C9412140C943B0136
:100070000C94D32F0C9409300C943B010C943B014D
:100080000C943B010C943B010C943B0100407A1012
:10009000F35A00A0724E18090010A5D4E80000E839
:1000A0007648170000E40B54020000CA9A3B000097
:1000B00000E1F505000080969800000040420F0026
:1000C0000000A08601000000102700000000E803E7
:1000D000000000006400000000000A0000000000B2
:1000E0000100000000002C76D888DC674F0823DF71
:1000F000C1DFAE59E1B1B796E5E3E453C63AE65144
:10010000997696E8E6C28426EB898C9B62ED407C6A
:100110006FFCEFBC9C9F40F2BAA56FA5F490055A06
:100120002AF75C936B6CF9676DC11BFCE0E40D472B
:10013000FEF520E6B500D0ED902E0300943577054E
:100140000080841E080000204E0A000000C80C3306
:100150003333330F986E12831141EF8D2114893B95
:10016000E65516CFFEE6DB18D1844B381BF77C1D15
:10017000901DA4BBE424203284725E228100C9F168
:1001800024ECA1E53D277C3C3E5E2B3D3F2F5B5D93
:100190003B2C2A225C000000000203000A0B000036
:1001A0000000050409080000000000000000000035
:1001B000000000000000010204081020408001023D
:1001C0000408102040800102040810204080010231
:1001D000040810204080020202020202020204040B
:1001E00004040404040403030303030303030101DD
:1001F0000101010101010000200023002600290067
:1002000000002200250028002B000000210024000F
:1002100027002A00BC0127132B19451CA62F3D30AF
:10022000CE0111241FBECFEFD0E4DEBFCDBF12E060
:10023000A0E0B1E0E6E9F9E700E00BBF02C00790FB
:100240000D92AC35B107D9F72CE0ACE5B2E001C0B6
:100250001D92AA3AB207E1F711E0C0E1D1E004C073
:100260002197FE010E947437CA30D107C9F70E9456
:10027000B0330C94BE3C0C940000DC01ED91FC9179
:100280000190F081E02D09940CB405FC0DC09EBDD9
:1002900000000DB407FEFDCF9EB58EBD00000DB46D
:1002A00007FEFDCF8EB508958EBD00000DB407FE8C
:1002B000FDCF8EB59EBD00000DB407FEFDCF9EB5EF
:1002C0000895982F92959F708F702AE0929F800DCD
:1002D00011240895CF93DF93C8ECD0E08AEF90E02B
:1002E0000E94733461E08FE00E94E83461E08FE0A7
:1002F0000E9424358AEF90E00E94733461E08FE021
:100300000E94E83460E08FE00E942435219731F7A5
:10031000C8ECD0E084EB90E00E94733461E08FE0A1
:100320000E94E83461E08FE00E94243584EB90E085
:100330000E94733461E08FE00E94E83460E08FE057
:100340000E942435219731F7DF91CF9108951F92B4
:100350000F920FB60F9211248F9380915E028F5FE0
:1003600080935E0210928500109284008F910F900E
:100370000FBE0F901F90189566E171E081E698E03E
:100380000E94CD3167E471E08BE598E00E94CD31A9
:1003900061E871E085E598E00C94CD3185E598E061
:1003A0000E945B318BE598E00E945B3181E698E02A
:1003B0000C945B31CF93DF9361E570E087E698E0C2
:1003C0000E94A61270E060E087E698E00E943D017E
:1003D00087E698E00E94241346E061E587E698E00E
:1003E0000E941E1387E698E00E9419120E94610184
:1003F00080935F0287E698E00E9419128F770E942F
:100400006101D82F87E698E00E9419128F770E9429
:100410006101C82F87E698E00E9419120E946101CD
:1004200090E0B0E0A0E08093600290936102A0931E
:100430006202B093630287E698E00E9419120E945C
:10044000610124E6829FC0011124092E000CAA0B31
:10045000BB0B409160025091610260916202709109
:100460006302840F951FA61FB71F809360029093AD
:100470006102A0936202B093630287E698E00E9453
:1004800019120E94610140E157E2849F9001859F0B
:10049000300D1124032E000C440B550B809160028B
:1004A00090916102A0916202B0916302280F391FFE
:1004B0004A1F5B1FA0E1BEE00E948C37AB01BC016C
:1004C0002CE3C29FC0011124092E000CAA0BBB0B08
:1004D0008D0F911DA11DB11D840F951FA61FB71F64
:1004E0008093600290936102A0936202B0936302D2
:1004F000DF91CF910895CF93DF93CDB7DEB7C45985
:10050000D1090FB6F894DEBF0FBECDBF88E19FE0E2
:100510000FB6F894A895809360000FBE909360008A
:1005200061E083E10E94243560E082E10E9424358D
:1005300061E082E00E94E83461E082E00E942435BC
:1005400061E084E10E94E83461E084E10E942435A6
:1005500061E871E0CE0181579F4F0E94CD310E942A
:10056000DA0168E571E0CE0181579F4F0E94603348
:1005700060915108709152084AE0CE0101960E94A4
:100580004532BE016F5F7F4FCE0181579F4F0E9462
:100590005933CE0101960E945B316EEC71E0CE01C1
:1005A00081579F4F0E9460334091600250916102D9
:1005B00060916202709163022AE0CE0101960E946E
:1005C0007132BE016F5F7F4FCE0181579F4F0E94F6
:1005D0005933CE0101960E945B3161EB71E0CE018F
:1005E00081579F4F0E9460334AE060915F02CE01C5
:1005F00001960E94EC31BE016F5F7F4FCE018157A3
:100600009F4F0E945933CE0101960E945B316EECE0
:1006100071E0CE0181579F4F0E94603347E658E05A
:1006200064E4CE01885A9F4F0E94DD28CE01885A8B
:100630009F4F0E94142961E0CE01885A9F4F0E946B
:100640009729E1966EAD7FADE19790E080E00E9442
:1006500023362FEA30E04FE25BE30E94D53620E0FC
:1006600030E044E352E40E947B35AB01BC0121E061
:10067000CE0101960E94CD32BE016F5F7F4FCE0149
:1006800081579F4F0E945933CE0101960E945B31E2
:100690006EEC71E0CE0101960E94CD31BE016F5F1C
:1006A0007F4FCE0181579F4F0E945933CE01019653
:1006B0000E945B31AF966EAD7FADAF9790E080E06A
:1006C0000E94233628EC30E048EC5AE30E94D536ED
:1006D000AB01BC0121E0CE0101960E94CD32BE01EA
:1006E0006F5F7F4FCE0181579F4F0E945933CE01DC
:1006F00001960E945B316EEC71E0CE0101960E9482
:10070000CD31BE016F5F7F4FCE0181579F4F0E9459
:100710005933CE0101960E945B3147E658E065E40B
:10072000CE01CC960E94DD28CE01CC960E941429E1
:1007300061E0CE01CC960E94972965966EAD7FADA3
:10074000659790E080E00E9423362FEA30E04FE288
:100750005BE30E94D53620E030E044E352E40E949F
:100760007B35AB01BC0121E0CE0101960E94CD3268
:10077000BE016F5F7F4FCE0181579F4F0E9459335B
:10078000CE0101960E945B316EEC71E0CE010196C4
:100790000E94CD31BE016F5F7F4FCE0181579F4FC9
:1007A0000E945933CE0101960E945B3163966EAD73
:1007B0007FAD639790E080E00E94233628EC30E024
:1007C00048EC5AE30E94D536AB01BC0121E0CE01D2
:1007D00001960E94CD32BE016F5F7F4FCE018157DF
:1007E0009F4F0E945933CE0101960E945B316EECFF
:1007F00071E0CE0101960E94CD31BE016F5F7F4F47
:10080000CE0181579F4F0E945933CE0101960E941D
:100810005B3147E658E067E7CE0101960E94C329A5
:10082000CE0101960E94ED2D6A81CE0101960E94B3
:10083000812BCE0101960E94FD29AB01BC0122E073
:10084000CE018C589F4F0E94CD32BE016C587F4F15
:10085000CE0181579F4F0E945933CE018C589F4F34
:100860000E945B316EEC71E0CE018C589F4F0E946C
:10087000CD31BE016C587F4FCE0181579F4F0E94F2
:100880005933CE018C589F4F0E945B31CE010196A7
:100890000E94342AAB01BC0122E0CE018C589F4F4C
:1008A0000E94CD32BE016C587F4FCE0181579F4FC1
:1008B0000E945933CE018C589F4F0E945B3161E0FA
:1008C00084E10E94E83460E084E10E94243561E024
:1008D00082E00E94E83460E082E00E9424350FB696
:1008E000F894A895809160008861809360001092D0
:1008F00060000FBEBE0161577F4F8FEF9BE00E94EB
:10090000C73080910701882371F164E089E099E0A4
:100910000E9475176EE571E0882309F443C0409189
:1009200055085091560823E169E079E0CE018C58D2
:100930009F4F0E949518CE018C589F4F0E946916B8
:10094000882371F1BE0161577F4FCE018C589F4FB4
:100950000E94C730CE018C589F4F0E94571661E00D
:1009600084E00E94243561E082E10E94243560E049
:1009700083E10E94243561E070E080E090E00E9415
:100980003A34CE0181579F4F0E945B31CC56DF4FE6
:100990000FB6F894DEBF0FBECDBFDF91CF910895A3
:1009A0006DE671E08FEF9BE00E94D9301092070155
:1009B000D6CF4F925F926F927F92AF92BF92CF92BB
:1009C000DF92EF92FF920F931F93CF93DF93CDB7F8
:1009D000DEB7A7970FB6F894DEBF0FBECDBF61E0BC
:1009E00083E10E94243560E082E10E9424350E9468
:1009F000DA0161E871E0CE0182960E94CD3167E7AD
:100A000071E0CE0182960E9460336091510870912E
:100A100052084AE0CE0101960E944532BE016F5F46
:100A20007F4FCE0182960E945933CE0101960E94DB
:100A30005B316EEC71E0CE0182960E946033609172
:100A4000F1057091F2054AE0CE0101960E9445320F
:100A5000BE016F5F7F4FCE0182960E945933CE0157
:100A600001960E945B318FE6E82E82E0F82E96EC2C
:100A7000C92E94E0D92E23EFA22E25E0B22E01E05C
:100A800010E080916B0290916C020817190708F032
:100A900051C00C3221E0120709F44CC0F6018191DB
:100AA0006F01F501419051905F01712C612C8823F9
:100AB00031F0F7E94F0EF8E95F1E611C711C6FE71A
:100AC00071E0CE0182960E94603362E871E0CE014F
:100AD00082960E9460332AE0B301A201CE01019602
:100AE0000E947132BE016F5F7F4FCE0182960E94DD
:100AF0005933CE0101960E945B316EEC71E0CE015C
:100B000082960E946033F701619171917F014AE002
:100B1000CE0101960E944532BE016F5F7F4FCE012C
:100B200082960E945933CE0101960E945B310F5F7D
:100B30001F4FA7CF66E871E0CE0182960E94603316
:100B400060915108709152084AE0CE0101960E94CE
:100B50004532BE016F5F7F4FCE0182960E945933AE
:100B6000CE0101960E945B316EEC71E0CE0182965F
:100B70000E94603340916002509161026091620274
:100B8000709163022AE0CE0101960E947132BE018B
:100B90006F5F7F4FCE0182960E945933CE0101963E
:100BA0000E945B3161EB71E0CE0182960E9460335E
:100BB0004AE060915F02CE0101960E94EC31BE01D5
:100BC0006F5F7F4FCE0182960E945933CE0101960E
:100BD0000E945B316EEC71E0CE0182960E94603320
:100BE0008091940060919500762F682F4AE0CE01A5
:100BF00001960E944532BE016F5F7F4FCE01829603
:100C00000E945933CE0101960E945B316EEC71E077
:100C1000CE0182960E94603360916B0270916C02EB
:100C2000615071094AE0CE0101960E944532BE0131
:100C30006F5F7F4FCE0182960E945933CE0101969D
:100C40000E945B3109E418E06EEC71E0CE018296FF
:100C50000E946033F801619171918F014AE0CE01E9
:100C600001960E944532BE016F5F7F4FCE01829692
:100C70000E945933CE0101960E945B31F8E00135A4
:100C80001F0711F7BE016E5D7F4F8FEF9BE00E9443
:100C9000C7308091070161E0882309F4A6C08EE087
:100CA0000E94243564E089E099E00E9475176EE5A2
:100CB00071E0882309F492C040915508509156087C
:100CC00023E169E079E0CE0101960E949518CE01FA
:100CD00001960E946916882309F47EC0BE016E5DEC
:100CE0007F4FCE0101960E94C730CE0101960E942F
:100CF000571661E084E00E94243560E08EE00E9497
:100D0000243560E08DE00E94243580915108909157
:100D10005208893F9A42C8F1109252081092510825
:100D200060915308709154086F5F7F4F709354081F
:100D3000609353084AE0CE014C960E944532BE01B2
:100D4000645E7F4FCE0101960E94B5326FE871E07C
:100D5000CE0101960E948233BC0185E598E00E9495
:100D60009E32CE0101960E945B31CE014C960E94CC
:100D70005B3164E971E08FEF9BE00E94B43065E580
:100D800078E08FEF9BE00E94C73061E082E10E9433
:100D9000243560E083E10E94243561E070E080E06A
:100DA00090E00E943A34CE0182960E945B31A79671
:100DB0000FB6F894DEBF0FBECDBFDF91CF911F916C
:100DC0000F91FF90EF90DF90CF90BF90AF907F900A
:100DD0006F905F904F9008956DE671E08FEF9BE00C
:100DE0000E94D9301092070184CF8DE00E942435F3
:100DF000CEA0DFA010E000E0FF24FA948DE10E9475
:100E00005235892B19F0FA94F110F8CF82E390E073
:100E10000E94733478012FEFE21AF20AB801CE0172
:100E200082960E949C33FC01608182E69BE00E94D6
:100E3000BC30CE14DF0460F482E69BE00E94C33035
:100E4000BE016E5D7F4F8FEF9BE00E94C73055CF94
:100E50008701D2CF0F931F93CF93DF93C82F65E500
:100E600070E087E698E00E94A6120C2E000CDD0BC5
:100E7000BE0187E698E00E943D0187E698E00E9467
:100E8000241341E050E065E570E087E698E00E94B9
:100E9000211387E698E00E9419128C0165E570E045
:100EA00087E698E00E94A612BE016F5F7F4F87E63B
:100EB00098E00E943D0187E698E00E94241341E0FB
:100EC00050E065E570E087E698E00E94211387E630
:100ED00098E00E94191220E0382FC901800F911F5D
:100EE000DF91CF911F910F910895CF93DF93CDB7ED
:100EF000DEB7A1970FB6F894DEBF0FBECDBF61E09D
:100F000083E10E94243560E082E10E94243561E89B
:100F100071E0CE014C960E94CD310E94DA016FE95A
:100F200071E0CE014C960E9460336091510870913F
:100F300052084AE0CE0101960E944532BE016F5F21
:100F40007F4FCE014C960E945933CE0101960E94EC
:100F50005B316EEC71E0CE014C960E9460334091A3
:100F600060025091610260916202709163022AE016
:100F7000CE0101960E947132BE016F5F7F4FCE019C
:100F80004C960E945933CE0101960E945B3161EB71
:100F900071E0CE014C960E9460334AE060915F029E
:100FA000CE0101960E94EC31BE016F5F7F4FCE01F2
:100FB0004C960E945933CE0101960E945B316EEC33
:100FC00071E0CE014C960E94603388E00E942A07AF
:100FD0004AE0BC01CE0101960E941932BE016F5F4A
:100FE0007F4FCE014C960E945933CE0101960E944C
:100FF0005B316EEC71E0CE014C960E9460338AE06A
:101000000E942A074AE0BC01CE0101960E941932D3
:10101000BE016F5F7F4FCE014C960E945933CE01C7
:1010200001960E945B316EEC71E0CE014C960E94FD
:10103000603384E00E942A074AE0BC01CE01019699
:101040000E941932BE016F5F7F4FCE014C960E9405
:101050005933CE0101960E945B316EEC71E0CE01F6
:101060004C960E94603386E00E942A074AE0BC0149
:10107000CE0101960E941932BE016F5F7F4FCE01F3
:101080004C960E945933CE0101960E945B316EEC62
:1010900071E0CE014C960E9460338CE00E942A07DA
:1010A000BC01990F880B990B0E9425362DEC3CEC66
:1010B0004CEC5DE30E94D53623E333E948E853E482
:1010C0000E947B35AB01BC0122E0CE0101960E945B
:1010D000FD32BE016F5F7F4FCE014C960E945933A7
:1010E000CE0101960E945B31BE01645E7F4F8FEF9F
:1010F0009BE00E94C73080910701882349F164E09A
:1011000089E099E00E9475176EE571E08823E9F1A6
:10111000409155085091560823E169E079E0CE01ED
:1011200001960E949518CE0101960E9469168823A7
:1011300051F1BE01645E7F4FCE0101960E94C7301F
:10114000CE0101960E94571661E084E00E9424358A
:1011500061E082E10E94243560E083E10E94243551
:1011600061E070E080E090E00E943A34CE014C965D
:101170000E945B31A1960FB6F894DEBF0FBECDBFC3
:10118000DF91CF9108956DE671E08FEF9BE00E94B3
:10119000D93010920701D8CF10924A08109249080E
:1011A00010924C0810924B0810924E0810924D0865
:1011B0001092500810924F0881E090E090936C02DA
:1011C00080936B0261E087E10E94243560E086E154
:1011D0000E94243590E080E00E94440161E086E1B5
:1011E0000E94243510928500109284009091940002
:1011F000809195008927982789279093F2058093FD
:10120000F10510925E0210925D0210925C0210E2F3
:1012100008E1B9E2FB2EC1E0D0E018993EC180910F
:101220005E028230D0F38EE10E945235892B29F57F
:10123000A8ECCA2ED12C86E990E00E94733461E0BC
:101240008FE00E94E83461E08FE00E94243586E957
:1012500090E00E94733461E08FE00E94E83460E027
:101260008FE00E94243541E0C41AD10821F7809113
:10127000660291E089278093660210925E02809157
:101280005D028F5F80935D0280915C028F5F80932F
:101290005C028BE10E945235682F8DE00E9424355C
:1012A0008BE10E945235892B09F48DC061E570E015
:1012B00087E698E00E94A61267E287E698E00E941F
:1012C0003C1260E087E698E00E943C1265E970E01D
:1012D00087E698E00E943D0187E698E00E9424138B
:1012E00068EB7BE080E090E00E943A34C8ECD0E00C
:1012F0008AEF90E00E94733461E08FE00E94E8344E
:1013000061E08FE00E9424358AEF90E00E94733400
:1013100061E08FE00E94E83460E08FE00E942435B5
:10132000219731F761E570E087E698E00E94A61208
:1013300067E287E698E00E943C1263E087E698E067
:101340000E943C1265E970E087E698E00E943D014A
:1013500087E698E00E9424136AE670E087E698E04A
:101360000E94A61268E187E698E00E943C126AE0BB
:1013700087E698E00E943C1287E698E00E942413DA
:1013800068E873E180E090E00E943A34C8ECD0E075
:101390008AEF90E00E94733461E08FE00E94E834AD
:1013A00061E08FE00E9424358AEF90E00E94733460
:1013B00061E08FE00E94E83460E08FE00E94243515
:1013C000219731F7DDCF61E086E10E94243560E0AE
:1013D00087E10E9424350FB6F894A8950093600029
:1013E0000FBEF09260000E94D90410924A08109239
:1013F000490810924C0810924B0810924E08109217
:101400004D081092500810924F08D0936C02C09370
:101410006B0280915C028E3120F010925C020E947F
:101420007B0280915D02843B20F010925D020E945D
:10143000750761E087E10E94243560E086E10E9443
:10144000243590E080E00E94440161E086E10E9442
:1014500024350FB6F894A895809160008861809338
:101460006000109260000FBE809151089091520868
:101470000196909352088093510810928500109223
:10148000840090919400809195008927982789275E
:101490009093F2058093F105C0CE60E086E10E9452
:1014A000243590E080E00E944401209166022223CE
:1014B00061F18430910560F12BB121272BB9209186
:1014C0006B0230916C022C32E1E03E07B8F460917F
:1014D000840070918500A901440F551FFA01EF5057
:1014E000FA4F7183608360915E02F901EB53FB4F09
:1014F000608343595D4FFA01918380832F5F3F4F93
:1015000030936C0220936B020DC084309105B8F6C5
:10151000880F991FFC01E75BF74F8081918101964D
:101520009183808361E086E10E94243576CECF935B
:10153000DF93D82FC62F6AE670E087E698E00E9416
:10154000A6126D2F87E698E00E943C126C2F87E66A
:1015500098E00E943C1287E698E0DF91CF910C94CE
:1015600024136AE670E087E698E00E94A61262E023
:1015700087E698E00E943C1260E671E087E698E01A
:101580000E943D0187E698E00E9424136AE670E01D
:1015900087E698E00E94A61264E187E698E00E9440
:1015A0003C1266E287E698E00E943C1269E187E619
:1015B00098E00E943C1260EA87E698E00E943C12A4
:1015C00066E587E698E00E943C1260E087E698E0D6
:1015D0000E943C1261E087E698E00E943C1287E698
:1015E00098E00E9424136AE670E087E698E00E9483
:1015F000A6126AE187E698E00E943C126FEB87E64C
:1016000098E00E943C1287E698E00E9424136AE664
:1016100070E087E698E00E94A61266E287E698E00E
:101620000E943C126CE887E698E00E943C1287E634
:1016300098E00C9424136AE670E087E698E00E9434
:10164000A61262E087E698E00E943C1260E671E034
:1016500087E698E00E943D0187E698E00E94241307
:101660006AE670E087E698E00E94A61264E187E6E9
:1016700098E00E943C1266E287E698E00E943C12E5
:1016800069E987E698E00E943C1260E087E698E00E
:101690000E943C1266E587E698E00E943C1260E0FA
:1016A00087E698E00E943C1261E087E698E00E949D
:1016B0003C1287E698E00E9424136AE670E087E611
:1016C00098E00E94A6126AE187E698E00E943C1228
:1016D0006FEB87E698E00E943C1287E698E00E9454
:1016E00024136AE670E087E698E00E94A61266E29C
:1016F00087E698E00E943C126CE887E698E00E943A
:101700003C1287E698E00C942413CF93C82F6AE626
:1017100070E087E698E00E94A6126C2F87E698E0BA
:101720000E943C1260E087E698E00E94A81241E027
:101730006AE687E698E00E941E1387E698E00E941A
:101740001212892B31F087E698E00E941912CF918E
:10175000089580E0FCCFCF93DF93C82F6AE670E056
:1017600087E698E00E94A6126C2F87E698E00E9418
:101770003C1260E087E698E00E94A81242E06AE628
:1017800087E698E00E941E1387E698E00E941212F6
:1017900002978CF087E698E00E941912EC0187E628
:1017A00098E00E94191220E0382FC9018C2B9D2B44
:1017B000DF91CF91089590E080E0FACF0F931F93CF
:1017C000CF93DF938C0186E10E94850BC82FD82F21
:1017D000DF7D6D2F86E10E94970A62E370E080E072
:1017E00090E00E943A346D2F606486E10E94970A6F
:1017F00068EC70E080E090E00E943A346C2F6F79E2
:1018000086E10E94970A64E170E080E090E00E9427
:101810003A3487E20E94850B682F6F7E87E20E9430
:10182000970A86E20E94850B8F7C682F626C86E2A5
:101830000E94970A62E370E080E090E00E943A34F0
:1018400080E30E94AB0B969587959C013F70A7ECB7
:10185000B0E00E947D3724E630E040E050E00E9496
:101860005237F8013183208381E0283B3B4008F464
:1018700080E0DF91CF911F910F910895CF92DF9279
:10188000EF92FF920F931F93CF93DF93CDB7DEB705
:10189000C254D1090FB6F894DEBF0FBECDBF26E00B
:1018A00040E052EC61E070E082E69BE00E94EA2EAC
:1018B00026E040E052EC61E070E08FEF9BE00E9498
:1018C000EA2E40EA56E861E070E087E698E00E9480
:1018D00098126AEA71E08FEF9BE00E94D93060E0D5
:1018E0008BE10E94E83460E085E10E94E83460E02A
:1018F0008DE10E94E83460E08EE10E94E83461E00E
:1019000086E10E94E83461E087E10E94E83460E00B
:1019100080E00E94E83461E08FE00E94E83461E0FA
:1019200082E10E94E83461E082E10E94243561E0B6
:1019300082E00E94E83461E082E00E94243561E0A8
:101940008AE10E94E83461E08AE10E94243561E086
:1019500083E10E94E83461E083E00E94E83461E0C2
:1019600084E00E94E83460E085E00E94E83460E0B2
:1019700086E00E94E83461E087E00E94E83461E09C
:1019800083E10E94243561E084E00E94243560E018
:1019900087E00E94243564E670E080E090E00E94D9
:1019A0003A3460E083E00E94243561E084E10E94E3
:1019B000E83460E084E10E9424350E941B0B64E659
:1019C00070E080E090E00E943A3484E692E00E9469
:1019D000DE0B80930601882309F4E2C00E94B10A5D
:1019E0008BE10E945235892B09F42FC188E19FE0D9
:1019F0000FB6F894A895809360000FBE9093600096
:101A00006AE670E087E698E00E94A6126DE270E058
:101A100087E698E00E943D0187E698E00E94241343
:101A200041E06AE687E698E00E941E1387E698E0A8
:101A30000E941912A89568EE73E080E090E00E9481
:101A40003A34A89568EE73E080E090E00E943A3462
:101A5000A89568EE73E080E090E00E943A34A89583
:101A600011E001E06AE670E087E698E00E94A612C5
:101A70006DE270E087E698E00E943D0187E698E01D
:101A80000E94241341E06AE687E698E00E941E1354
:101A900087E698E00E941912A8958F77813108F0A7
:101AA00082C08BE10E945235682F8DE00E94243560
:101AB00061E570E087E698E00E94A61268E270E0B7
:101AC00087E698E00E943D0165E970E087E698E0CE
:101AD0000E943D0187E698E00E942413A89568EED5
:101AE00073E080E090E00E943A34A89568EE73E0DD
:101AF00080E090E00E943A34A89568EE73E080E0C0
:101B000090E00E943A34A89508EC10E08AEF90E04B
:101B10000E94733461E08FE00E94E83461E08FE05E
:101B20000E9424358AEF90E00E94733461E08FE0D8
:101B30000E94E83460E08FE00E94243501501109D2
:101B400029F761E570E087E698E00E94A61267E257
:101B500087E698E00E943C1263E087E698E00E94E6
:101B60003C1265E970E087E698E00E943D0187E657
:101B700098E00E9424136AE670E087E698E00E94ED
:101B8000A61268E187E698E00E943C126AE087E6C8
:101B900098E00E943C1287E698E00E942413FFCF51
:101BA0000E941B0B1DCFA895112311F161E00023AA
:101BB00051F183E00E9424350E946A0161E770E0E0
:101BC00087E698E00E94A61260E087E698E00E940F
:101BD0003C1263E187E698E00E943C1287E698E0B9
:101BE0000E94241368EE73E080E090E00E943A3493
:101BF0008EE10E94523510E0892B09F033CF81E04D
:101C0000082711E02FCF8CE00E94E83460E08CE0E0
:101C10000E9424350E946A0161E770E087E698E03F
:101C20000E94A61260E087E698E00E943C1260E104
:101C300087E698E00E943C1287E698E00E94241311
:101C400060E083E00E942435CDCF61E084E10E9412
:101C5000E83461E084E10E94243515E060E570E03D
:101C600080E090E00E943A3461E08CE00E94E83429
:101C700061E08CE00E94243560E570E080E090E057
:101C80000E943A3460E08CE00E942435115031F714
:101C900061E08CE00E94243508EC10E084EB90E0D9
:101CA0000E94733461E08FE00E94E83461E08FE0CD
:101CB0000E94243584EB90E00E94733461E08FE051
:101CC0000E94E83460E08FE00E9424350150110941
:101CD00029F763EB71E08FEF9BE00E94D93060E061
:101CE00087E10E94243561E086E10E94243561E5A8
:101CF00070E087E698E00E94A61267E287E698E027
:101D00000E943C1263E087E698E00E943C1267E97B
:101D100087E698E00E943C1288E199E20FB6F894B9
:101D2000A895809360000FBE909360006CEB71E00B
:101D3000CE0101960E94CD316BE578E0CE0101968F
:101D40000E946F336CEC71E00E94823361E678E0B0
:101D50000E946F336EEC71E00E948233BC01CE01B1
:101D6000CD960E94B532CE0101960E945B316BE5A3
:101D700070E087E698E00E94A61268E070E087E6CF
:101D800098E00E943D0170E060E087E698E00E94E4
:101D90003D0187E698E00E94241340E16BE587E669
:101DA00098E00E941E1310E187E698E00E94191245
:101DB000082F803130F468EA71E0CE01CD960E94A0
:101DC000603340E1602FCE0101960E94EC31BE01EC
:101DD0006F5F7F4FCE01CD960E945933CE010196A1
:101DE0000E945B31115001F760ED71E0CE01CD969C
:101DF0000E94603368E570E087E698E00E94A612D2
:101E000068E070E087E698E00E943D0170E060E0E5
:101E100087E698E00E943D0187E698E00E9424133F
:101E200040E168E587E698E00E941E1310E187E62E
:101E300098E00E941912082F803130F468EA71E0AE
:101E4000CE01CD960E94603361E082E00E94E834CA
:101E500061E082E00E94243561E08AE10E94E8347A
:101E600061E08AE10E94243540E1602FCE010196B5
:101E70000E94EC31BE016F5F7F4FCE01CD960E9474
:101E80005933CE0101960E945B31115081F66EEC00
:101E900071E0CE01CD960E94603360E570E087E688
:101EA00098E00E94A61270E060E087E698E00E9449
:101EB0003D0170E060E087E698E00E943D0187E622
:101EC00098E00E94241342E060E587E698E00E94D3
:101ED0001E1387E698E00E9419128093680287E635
:101EE00098E00E9419128093670240E160916802B5
:101EF000CE0101960E94EC31BE016F5F7F4FCE0193
:101F0000CD960E945933CE0101960E945B3140E18B
:101F100060916702CE0101960E94EC31BE016F5FB5
:101F20007F4FCE01CD960E945933CE0101960E947B
:101F30005B3166EE71E0CE01CD960E9460336BE5B9
:101F400070E087E698E00E94A61268E070E087E6FD
:101F500098E00E943D0170E060E087E698E00E9412
:101F60003D0187E698E00E94241340E16BE587E697
:101F700098E00E941E1310E187E698E00E94191273
:101F8000082F803130F468EA71E0CE01CD960E94CE
:101F9000603340E1602FCE0101960E94EC31BE011A
:101FA0006F5F7F4FCE01CD960E945933CE010196CF
:101FB0000E945B31115001F76EEC71E0CE01CD96BD
:101FC0000E94603363E570E087E698E00E94A61205
:101FD00070E060E087E698E00E943D0170E060E01C
:101FE00087E698E00E943D0187E698E00E9424136E
:101FF00042E063E587E698E00E941E1387E698E0DA
:102000000E94191280936A0287E698E00E941912D2
:102010008093690240E160916A02CE0101960E94BC
:10202000EC31BE016F5F7F4FCE01CD960E945933D8
:10203000CE0101960E945B3140E160916902CE01C0
:1020400001960E94EC31BE016F5F7F4FCE01CD96AD
:102050000E945933CE0101960E945B316AEF71E014
:10206000CE01CD960E9460338091060168EA71E04E
:10207000882311F066EA71E0CE01CD960E946033AC
:102080006EEC71E0CE01CD960E94603360916402E7
:10209000709165024AE0CE0101960E944532BE0170
:1020A0006F5F7F4FCE01CD960E945933CE010196CE
:1020B0000E945B3160E082E10E94243564E089E0A7
:1020C00099E00E947517811108C06EE571E08FEFED
:1020D0009BE00E94D9301092070181E090E090933C
:1020E0005408809353086091530870915408683CD9
:1020F000710578F54AE0CE014C960E944532BE014A
:10210000645E7F4FCE0101960E94B5326FE871E0A8
:10211000CE0101960E948233BC0185E598E00E94C1
:102120009E32CE0101960E945B31CE014C960E94F8
:102130005B31609155087091560889E099E00E94E2
:102140002019882331F0809153089091540801960A
:10215000C6CF60915308709154084AE0CE014C9666
:102160000E944532BE01645E7F4FCE0101960E94FF
:10217000B5326FE871E0CE0101960E948233BC0156
:1021800085E598E00E949E32CE0101960E945B3167
:10219000CE014C960E945B3115E060E570E080E076
:1021A00090E00E943A3461E08DE00E94E83461E002
:1021B0008DE00E94243560E570E080E090E00E94B0
:1021C0003A3460E08DE00E942435115031F761E02F
:1021D0008DE00E942435409155085091560823E126
:1021E00069E079E0CE014C960E949518CE014C969C
:1021F0000E9419166B017C0163E072E08FEF9BE097
:102200000E94B4302AE030E0B701A6018FEF9BE0D6
:102210000E94493181E8C81683E2D80683E4E806C3
:10222000F10408F45BC0CE014C960E9457166091F1
:102230005308709154086F5F7F4F709354086093F8
:1022400053084AE0CE01C7960E944532BE01695C40
:102250007F4FCE0101960E94B5326FE871E0CE014A
:1022600001960E948233BC0185E598E00E949E326F
:10227000CE0101960E945B31CE01C7960E945B3170
:10228000409155085091560823E169E079E0CE016C
:1022900001960E9495188B819C819F8F8E8F8D81D6
:1022A0009E81AF81B88588A399A3AAA3BBA3898582
:1022B0009A85AB85BC858CA39DA3AEA3BFA3DE018D
:1022C0001D96FE01B896CE01C5962D912193E81773
:1022D000F907D9F78A8D9B8D9EAB8DAB64E971E0D0
:1022E0008FEF9BE00E94B43065E578E08FEF9BE0D4
:1022F0000E94C730CE014C960E946916882309F4CB
:1023000085C0BE01635C7F4FCE014C960E94C730F2
:10231000CE014C960E945716BE01635C7F4F8FEF33
:102320009BE00E94C73061E082E10E94243561E0B9
:1023300084E10E94E83460E084E10E94243515E0E5
:1023400060E570E080E090E00E943A3461E08EE069
:102350000E94E83461E08EE00E94243560E570E080
:1023600080E090E00E943A3460E08EE00E942435E4
:10237000115031F760E08CE00E94243560E08DE080
:102380000E94243561E082E00E94E83460E082E04F
:102390000E9424350FB6F894A8958091600088615A
:1023A00080936000109260000FBEF894109280003D
:1023B0008DE08093810087E998E99093890080936C
:1023C0008800109285001092840082E080936F0054
:1023D0001092900085E080939100109295001092E9
:1023E00094007894CE01CD960E945B31CE5BDF4F96
:1023F0000FB6F894DEBF0FBECDBFDF91CF911F9116
:102400000F91FF90EF90DF90CF9008956DE671E00F
:102410008FEF9BE00E94D930109207017DCF90E0B2
:1024200080E008958091970890919808891B990BF6
:10243000089590919808809197082FEF3FEF981793
:1024400048F4E92FF0E0E756F74F208130E09F5F36
:1024500090939808C9010895E09198088091970891
:10246000E81730F4F0E0E756F74F808190E00895E8
:102470008FEF9FEF08950895CF93DF931F92CDB70D
:10248000DEB76983209173082223F9F02091740844
:10249000203258F021E030E0FC013383228390E0C9
:1024A00080E00F90DF91CF91089580917508E82F1B
:1024B000F0E0EA58F74F998190838F5F8093750819
:1024C0008093740881E090E0ECCF61E0CE0101964A
:1024D0000E94DB13F7CFCF92DF92EF92FF920F9320
:1024E0001F93CF93DF937C01CB018A012091730866
:1024F000222389F0EB016B01C40ED51ECC15DD053E
:1025000069F06991D701ED91FC910190F081E02D86
:10251000C7010995F3CF642F0E94DB13C801DF9137
:10252000CF911F910F91FF90EF90DF90CF90089582
:10253000CB01BA010C94381381E080937308609347
:102540009608109275081092740808950C949C12C5
:102550000F93062F21E04091740866E778E08091A0
:1025600096080E948B1310927508109274081092AE
:1025700073080F9108954F925F926F927F92AF927E
:10258000BF92CF92EF92FF920F931F93CF93DF935F
:102590005C01F62ED42F28013901EE2019F10E949A
:1025A0009C12CE2DC43008F0C3E0C150B8F028E032
:1025B000C29FC0011124A301920104C05695479502
:1025C000379527958A95D2F7B901D501ED91FC9100
:1025D0000190F081E02DC5010995E7CF60E0C501CC
:1025E0000E94A8124D2FD13208F040E22C2D69E94B
:1025F00078E08F2D0E944B131092980880939708D3
:10260000DF91CF911F910F91FF90EF90CF90BF90EE
:10261000AF907F906F905F904F900895CF92EF9220
:102620000F931F93C22EE12C00E010E098010E944E
:10263000BB121F910F91EF90CF90089521E00C9461
:102640000E1321E00C940E1361E00C94A812E7E63F
:10265000F8E01382128288EE93E0A0E0B0E0848379
:102660009583A683B78382E192E091838083089566
:102670009B01AC0160E072E18AE790E00E94523772
:1026800020513109410951095695479537952795AC
:102690002093B80008954132E0F590910809911116
:1026A000FCCF91E090930809209306092FEF209327
:1026B000B908709300096093FF081092FE08240F78
:1026C0002093FD089093070990910709880F892BA3
:1026D00080930709809105098130C9F4109205099A
:1026E000809107098093BB008091BC0083FDF8CFE7
:1026F00085EC8093BC00809108098130E1F38091E2
:10270000FE08841710F44091FE08842F089585EE8A
:10271000F0CF40E0FACF0F93413208F044C09091DF
:1027200008099111FCCF92E09093080900930609E3
:102730009FEF9093B908709300096093FF0810927F
:10274000FE084093FD081092070990910709880F31
:10275000892B8093070980910509813011F510922A
:102760000509809107098093BB008091BC0083FD1F
:10277000F8CF85EC8093BC00222321F080910809DA
:102780008230D1F38091B9088F3F79F08091B908F8
:10279000803269F08091B908803359F084E00F915C
:1027A000089585EEE7CF81E0FACF80E0F8CF82E0B0
:1027B000F6CF83E0F4CF2091DB08260F3327331FB9
:1027C00021323105ECF420910809FC0190E080E011
:1027D000243069F082E00895A091DB082191AC01DA
:1027E0004352574FA40FB52FB11D2C930196861756
:1027F00098F38091DB08680F6093DB0880E0089510
:1028000081E0089585ED8093BC008091BC0084FD3B
:10281000FCCF10920809089585EC8093BC001092BB
:10282000080908951F920F920FB60F9211240BB64C
:102830000F922F933F934F935F936F937F938F9359
:102840009F93AF93BF93EF93FF938091B900887FDD
:10285000803609F44EC008F041C0883209F4AAC09D
:1028600028F5803109F49EC0C8F4882309F407C113
:10287000883009F497C0FF91EF91BF91AF919F917C
:102880008F917F916F915F914F913F912F910F9019
:102890000BBE0F900FBE0F901F901895883109F452
:1028A00089C0803241F78093B90815C0803409F49B
:1028B000A6C048F48033B9F38833E9F68093B908A9
:1028C0000E940C14D8CF803509F489C0883509F4EA
:1028D0009EC0883481F60E940214CDCF883909F455
:1028E00094C038F5883729F050F4883611F08037D5
:1028F00011F683E0809308091092BA0857C088380F
:1029000009F483C0803919F0803809F0B4CF809180
:10291000BA08803208F079C0E091BA0881E08E0FE1
:102920008093BA088091BB00F0E0E554F74F8083B4
:102930003DC0803B39F0E0F4803A09F485C0883A24
:1029400009F099CF84E0809308091092DC08109276
:10295000DB08E0910309F091040909958091DB08F7
:1029600081110FC081E08093DB081092DD0809C05F
:10297000803C09F482C0883C09F47FC0883B09F0A0
:102980007ACFE091DC0881E08E0F8093DC08F0E0E4
:10299000E352F74F80818093BB009091DC088091D7
:1029A000DB0831C0809107098093BB0085EC8093E0
:1029B000BC0061CF9091FE088091FD089817B8F592
:1029C0008091FF0890910009E091FE0821E02E0F10
:1029D0002093FE08E80FF92FF11D8081E5CF2091AB
:1029E000FF0830910009E091FE0881E08E0F80938E
:1029F000FE088091BB00E20FF32FF11D80839091C0
:102A0000FE088091FD08981788F285E8D0CF2091C4
:102A1000FF0830910009E091FE0881E08E0F80935D
:102A2000FE088091BB00E20FF32FF11D808380919F
:102A30000609811150CF81E08093050984EA8093D3
:102A4000BC001092080917CF0E940C148091BA089C
:102A5000803230F4E091BA08F0E0E554F74F10828C
:102A60006091BA0870E0E0910109F09102098BEBE6
:102A700098E009951092BA08FECE85ECE0CF10924E
:102A8000B90829CFCF93DF931F92CDB7DEB7698303
:102A9000DC01ED91FC910280F381E02D41E050E0FA
:102AA000BE016F5F7F4F09950F90DF91CF91089521
:102AB000CF93DF93EC01E98DFA8D309749F481E0F3
:102AC00090E09B838A8390E080E0DF91CF9108952E
:102AD00013821282898D9A8D0E94CD21E98DFA8D03
:102AE00022813381232B59F7F0CFFC01818D928D08
:102AF000009711F00C945C1F0895CF93DF931F9201
:102B0000CDB7DEB741E050E0BE016F5F7F4F0E945E
:102B1000801D019731F4898190E00F90DF91CF9172
:102B200008958FEF9FEFF9CFFC01818D928D009773
:102B300011F00C947D158FEF9FEF08950F931F9365
:102B4000CF93DF93EC01898D9A8D10E000E0009720
:102B500099F00E947D158C010F3F100769F0898D57
:102B60009A8DFC01428553856485758541505109D4
:102B7000610971090E94C81EC801DF91CF911F91A0
:102B80000F910895EF92FF920F931F93CF93DF93CE
:102B9000EC017B018A011B821A8288EE93E0A0E09F
:102BA000B0E08C839D83AE83BF8384E292E09983FF
:102BB00088838DE190E00E94B5379A8F898F0097C6
:102BC00079F02DE1F701DC0101900D922A95E1F7F2
:102BD0004CE050E0B801CE010C960E94E339188E0B
:102BE000DF91CF911F910F91FF90EF900895FC011D
:102BF0001382128288EE93E0A0E0B0E08483958394
:102C0000A683B78384E292E091838083128E118E33
:102C100014860895DC015996ED91FC91309729F0C6
:102C2000628573858485958508956FEF7FEFCB016D
:102C30000895DC015996ED91FC91309729F0638954
:102C4000748985899689089560E070E0CB010895C4
:102C5000CF92DF92EF92FF92CF93DF93FC01218D11
:102C6000328D232B09F1EC010E9419166B017C01B6
:102C7000CE010E940A16A7019601261B370B480BAE
:102C8000590BDA01C901811530E89307A105B10597
:102C900020F08FEF9FE7A0E0B0E0DF91CF91FF90B1
:102CA000EF90DF90CF90089590E080E0F6CFCF9343
:102CB000DF93EC01898D9A8D009741F00E94A51F4A
:102CC000898D9A8D0E9451381A8E198EDF91CF917D
:102CD0000895DC015996ED91FC91309721F081E047
:102CE0009581911101C080E008951F93CF93DF93E8
:102CF000CDB7DEB76D970FB6F894DEBF0FBECDBF70
:102D0000AB011C821B8228E332E03A8329831E82B6
:102D100021E0BC01CE0101960E94E02011E081116A
:102D20000CC010E0812F6D960FB6F894DEBF0FBE79
:102D3000CDBFDF91CF911F910895CE0101960E94E2
:102D4000A51FF0CFEF92FF920F931F93CF93DF93C6
:102D50007B01DB012D913C91FC01E20FF31F6081AF
:102D60006F3211F42F5F3F4F8C01020F131FEA01E6
:102D7000F0E0E0E0D8017D918D017F3249F07723CA
:102D800039F02F5F3F4F31967993EC30F10591F791
:102D9000E40FF51F1082FC01E20FF31F40814F3258
:102DA00011F42F5F3F4FF70131832083280F391F24
:102DB00081E0D9019C91911101C080E0DF91CF9118
:102DC0001F910F91FF90EF9008954F925F926F9235
:102DD0007F928F929F92AF92BF92CF92DF92EF92AB
:102DE000FF920F931F93CF93DF93CDB7DEB7C954F4
:102DF000D1090FB6F894DEBF0FBECDBF5C016B01E9
:102E00003A01490119A218A288E392E09F8F8E8FA0
:102E10001BA21C821B829A8389831E822A961FAE64
:102E20001EAE2A978B017E018EE1E80EF11C442430
:102E30004394AE01455C5F4FBE01685B7F4FC501A7
:102E40000E94A216582E482F44259401BE01655CAD
:102E50007F4FC801F3010995811120C00C151D0594
:102E6000C9F480E0C75BDF4F0FB6F894DEBF0FBE3A
:102E7000CDBFDF91CF911F910F91FF90EF90DF9029
:102E8000CF90BF90AF909F908F907F906F905F900A
:102E90004F900895C8010E94A51FE3CF552091F0DF
:102EA00021E0AE01455C5F4FB801C7010E94E02000
:102EB000582E0C151D0571F0C8010E94A51F511058
:102EC0000EC0CFCF0C151D0519F0C8010E94A51F1B
:102ED00081E0C8CF882329F28E010F5F1F4F902F0A
:102EE000812F8701E92EF82EA4CF0F931F93CF9344
:102EF000DF93EC01162F8FA5882321F0CE018A964F
:102F00000E94A51F412F61E0CE010E94421A81114B
:102F100002C090E012C08E01045F1F4F41E0BE016D
:102F2000C8010E940727882371F0B801CE018A9654
:102F30000E94301D91E0882361F3892FDF91CF91AA
:102F40001F910F91089540E0BE01C8010E9407271C
:102F50008823F9F2EACFFC01DB0112968D919C9156
:102F600013979383828388E392E0918380831496FE
:102F70008C911497848315968C911597858316965A
:102F80004D915D916D917C91199746835783608730
:102F900071871A964D915D916D917C911D97428735
:102FA0005387648775871E964D915D916D917C91D5
:102FB000519746875787608B718B52968C915297A9
:102FC000828B53964D915D916D917C915697438B79
:102FD000548B658B768B57964D915D916D917C915D
:102FE0005A97478B508F618F728F5B968D919C9112
:102FF000948F838F08954F925F926F927F928F92FA
:103000009F92AF92BF92CF92DF92EF92FF920F9377
:103010001F93CF93DF93CDB7DEB7C754D1090FB657
:10302000F894DEBF0FBECDBF5C014A013901665D79
:103030007F4F7E018EE1E80EF11CC7010E94AB17A5
:103040001C821B8288E392E09A8389831E8284011A
:10305000FE0131966F015E2C4F2C6FE270E0C801CB
:103060000E94D139009709F455C0F80120812F3210
:1030700019F40F5F1F4FF1CF801B8D3008F08CE0EB
:10308000E82EF12CA701B801CE01CB960E94E339BE
:10309000EBE3F0E0EC0FFD1FEE0DFF1D1082C6010B
:1030A0000E94A51F21E0AE01455C5F4F652D742D88
:1030B000C6010E94E020811121C0F5011382128215
:1030C00088E392E0918380831582C501C95BDF4F5D
:1030D0000FB6F894DEBF0FBECDBFDF91CF911F9129
:1030E0000F91FF90EF90DF90CF90BF90AF909F90A7
:1030F0008F907F906F905F904F9008950E0D1F1DE1
:10310000852D942D0E94A51FC2015C2C4D2CC92E2B
:10311000D82EA3CF08191909F30111830083652D57
:10312000742DC5010E94AB17D0CFAF92BF92CF9242
:10313000DF92FF920F931F93CF93DF93CDB7DEB74C
:10314000C955D1090FB6F894DEBF0FBECDBF6C01D3
:103150005B018A01F22E9E01285A3F4FCE01CB9689
:103160000E94FB176A968EAD9FAD6A97080F191FD4
:10317000F8018081811110C0BE01655C7F4FCE01D6
:1031800001960E94AB1742E352E0BE016F5F7F4F92
:10319000C6010E94C2150FC019A218A288E392E0CE
:1031A0009F8F8E8F1BA221968FAD2197811115C005
:1031B000C6010E94F715C601C75ADF4F0FB6F89433
:1031C000DEBF0FBECDBFDF91CF911F910F91FF905A
:1031D000DF90CF90BF90AF90089582508230F8F486
:1031E000B501665D7F4F2F2DA801CE014E960E943E
:1031F000E0208823E9F28F2D867041F049A95AA971
:103200006BA97CA9CE014E960E94C81EBE01625ECB
:103210007F4FCE0101960E94AB17A801B6CF2F2D8C
:10322000A801BE01655C7F4FCE014E960E94E02052
:10323000882309F4BDCFCE01CB960E94A51FDBCF1A
:10324000FB01BC01665D7F4F30E020E045E756E1C1
:10325000CF010C94E516E9E0F9E01582168211869B
:10326000138682E090E0A0E0B0E084879587A6878F
:10327000B78713A215A614A688E392E093A782A7A6
:1032800017A608959FB7F8942091600B80915E0B6C
:10329000213019F48DBB9FBF08958FBF08952091F1
:1032A000600B222381F03FB7F8942091600B21300E
:1032B00069F42DB320935E0B4DB320915F0B2095E5
:1032C00024232DBB3FBF8CBD9DBD089530935E0B65
:1032D000FACF8EBD00000DB407FEFDCF8EB5089568
:1032E0008FEF0C94691961E0FC0184810E94243500
:1032F00080915209882339F0109252098091600B15
:1033000081110C9442190895CF93DF93EC018091C1
:103310005209811109C081E08093520980915309BB
:10332000909154090E944F1960E08C81DF91CF91F8
:103330000C942435CF93DF93EC018E81882389F0A0
:103340008F8198859C012F5F3F4F38872F83823074
:10335000924018F40E947019F3CFCE010E947319A5
:103360001E82DF91CF910895673028F026E1FC019D
:10337000258380E00895623079F038F06430A9F058
:1033800090F06530A1F082E508C080E58093530994
:1033900081E080935409089580E580935309109249
:1033A000540981E0089581E5F1CF81E5F6CF82E50A
:1033B000EDCF0F931F93CF93DF93EB010E9409345E
:1033C0008B010E9470198F3F69F00E940934601BC5
:1033D000710B6C177D07A8F380E0DF91CF911F91EF
:1033E0000F91089581E0F9CF8F929F92AF92BF9293
:1033F000FF920F931F93CF93DF93EC01F62E4901B9
:103400005A010E949A19CE010E9484196CE271E05F
:10341000CE010E94D9198F2D80640E94691908E19C
:1034200010E0D501C401002E04C0B695A79597956C
:1034300087950A94D2F70E94691908501109083F2C
:103440008FEF180771F785E9FF2021F088E0F81267
:103450000DC087E80E94691910E00E9470198A87E0
:1034600087FF06C01F3F21F01F5FF7CF8FEFF2CF1E
:10347000DF91CF911F910F91FF90BF90AF909F90E0
:103480008F9008958F929F92AF92BF92EF92FF928A
:103490000F931F93CF93DF93EC01E62E1B861986C3
:1034A0001E821D824C830E9409348B0161E08C8155
:1034B0000E94E83461E08C810E9424350E94272814
:1034C00082E58093530981E08093540980915309E8
:1034D000909154090E944F192AE0F22E8FEF0E941A
:1034E0006919FA94F110FACF8091600B81110E9452
:1034F0004219CE010E94841920E030E0A90160E069
:10350000CE010E94F419F82E8A8781E0F816C1F0E6
:103510000E940934601B710B613D774068F381E0C4
:103520008D83CE010E94731980E0DF91CF911F91AE
:103530000F91FF90EF90BF90AF909F908F90089564
:103540002AEA31E040E050E068E0CE010E94F41940
:1035500082FF25C0FB868B85812C912C5401823003
:1035600029F4812C912CA12C80E4B82E20E030E0AD
:10357000A90167E3CE010E94F419A501940169E253
:10358000CE010E94F4198A878823C1F00E94093471
:10359000601B710B613D774048F388E0C1CF94E038
:1035A000F92E0E9470198A87FA94F110FACF8A3A9C
:1035B00011F082E0B5CF82E08B87CDCF8B85823052
:1035C000C1F420E030E0A9016AE3CE010E94F419C1
:1035D000882311F086E0A4CF0E947019807C803C83
:1035E00011F483E08B870E9470190E9470190E9469
:1035F0007019CE010E9473196E2DCE01DF91CF910B
:103600001F910F91FF90EF90BF90AF909F908F9080
:103610000C94B4190F931F93CF93DF93EC010E9486
:1036200009348B010E9470198A878F3F91F40E94A0
:103630000934601B710B6D327140A0F38FE08D83F4
:10364000CE010E94731980E0DF91CF911F910F91FD
:1036500008958E3F11F08DE0F2CF81E0F5CFCF924B
:10366000DF92EF92FF920F931F93CF93DF93EC01C2
:103670006901C801820F931F8130924048F58E8105
:10368000882371F088819981AA81BB81841795076D
:10369000A607B70729F48F819885C816D90670F553
:1036A000488359836A837B838B85833039F089E033
:1036B000440F551F661F771F8A95D1F79A01AB01FA
:1036C00061E1CE010E94F419882379F083E08D83B3
:1036D000CE010E94731980E0DF91CF911F910F916D
:1036E000FF90EF90DF90CF900895CE010E940A1BCB
:1036F000882371F318861F8281E08E838F819885DD
:103700008C159D0560F06701E00EF11EEC14FD04C0
:1037100071F00E947019F60181936F01F7CF0E943A
:1037200070198F819885019698878F83E7CF8F8155
:103730009885080F191F18870F838985882319F02A
:103740000115124018F0CE010E949A1981E0C4CFF1
:10375000EF92FF920F931F930115110539F00E940C
:103760002F1B1F910F91FF90EF90089581E0F9CFEB
:10377000EF92FF920F931F93790100E012E030E087
:1037800020E00E942F1B1F910F91FF90EF90089552
:10379000EF92FF920F931F93CF93DF938C01862FAD
:1037A0007A010E946919E7018EEFF81A89910E9447
:1037B0006919CE15DF05D1F78FEF0E9469198FEFD8
:1037C0000E9469190E947019F80182878F718530F3
:1037D00069F081E18583C8010E94731980E0DF915F
:1037E000CF911F910F91FF90EF90089581E0F7CF57
:1037F0000F931F93CF93DF93EC01890182E1411571
:1038000051056105710599F08B85833039F089E0A8
:10381000440F551F661F771F8A95D1F79A01AB0198
:1038200068E1CE010E94F419882339F084E08D8389
:10383000CE010E94731980E023C0A8016EEFCE0173
:103840000E94C81B8823A1F368E572E0CE010E94A4
:10385000D919811102C085E1EACF20E030E0A90149
:103860006DE0CE010E94F419882311F084E1DFCFCE
:103870000E9470198111FACFCE010E94731981E064
:10388000DF91CF911F910F910895E3E5F9E080E575
:10389000808381E0818308950895CF93DF93EC01C5
:1038A0009C012A5F3F4F41E050E060E070E08B8D6B
:1038B0009C8D0E94A6258823A1F08F89988DA98DC3
:1038C000BA8D892B8A2B8B2B59F48E819F81A885E9
:1038D000B9858F8B988FA98FBA8F8C8180688C83E4
:1038E00081E0DF91CF9108958F929F92AF92BF9226
:1038F000CF92DF92EF92FF92CF93DF93EC010E9481
:103900004D1C81110CC080E0DF91CF91FF90EF90B2
:10391000DF90CF90BF90AF909F908F900895EB8DE8
:10392000FC8DCE80DF80E884F98482E0C81AD1085B
:10393000E108F108858504C0CC0CDD1CEE1CFF1CE1
:103940008A95D2F786859785A089B189C80ED91E38
:10395000EA1EFB1E848146015701880E911CA11CA2
:10396000B11C8C149D04AE04BF0461F081E0881A80
:103970009108A108B108C501B4010E94F423811186
:10398000F0CFC1CFEB8DFC8D258580E092E0A0E0EB
:10399000B0E004C0880F991FAA1FBB1F2A95D2F759
:1039A0004B895C896D897E89840F951FA61FB71F7F
:1039B0008B8B9C8BAD8BBE8B81E0A6CFCF93DF939F
:1039C000EC01462F6E857F85888999890E94B923ED
:1039D000882351F08A8920E2829FC0011124825AF3
:1039E000964FDF91CF91089590E080E0FACFFB01F0
:1039F0009B01255F3F4F40E241932E173F07E1F7C0
:103A0000DC0120E037E09D91492F992319F19E3286
:103A100029F43A3059F028E03AE0F5CFE6E8F1E051
:103A20008491882329F031969813FACF80E017C04B
:103A30003217A8F05FED590F5E3588F48FE9890FD2
:103A40008A3110F440EE490FFB01E20FF11D408373
:103A50002F5FD9CF81E0FB019081903239F3089537
:103A60000F931F93CF93DF93FC012581222331F025
:103A700080E0DF91CF911F910F9108958B01EC01B0
:103A8000FB018789803139F582E08D831F8A188E8A
:103A9000198E1A8E808D918DB0E0A0E025E0880F00
:103AA000991FAA1FBB1F2A95D1F78B8B9C8BAD8BBF
:103AB000BE8B1C8F0B8F81E08C831E821F82188629
:103AC00019861A861B861C861D861E861F86188AE6
:103AD000198A1A8ACECF803259F683E08D83428DBF
:103AE000538D648D758D4F8B588F698F7A8F9E01A2
:103AF0002D5E3F4FC8010E9499248111DACFB8CFC3
:103B00002F923F924F925F926F927F928F929F92ED
:103B1000AF92BF92CF92DF92EF92FF920F931F93DB
:103B2000CF93DF93EC015B012A018D81811115C0D8
:103B30008FEF9FEFDF91CF911F910F91FF90EF904B
:103B4000DF90CF90BF90AF909F908F907F906F90BD
:103B50005F904F903F902F9008958C8180FFE8CF29
:103B60000B891C892D893E894A855B856C857D85FD
:103B7000C201B0E0A0E068017901C41AD50AE60AE2
:103B8000F70AC816D906EA06FB0618F42801441AF3
:103B9000550A42011E0126E0220E311C81149104B7
:103BA00009F4B3C04A855B856C857D856A0181E037
:103BB000D8228B8D9C8D8A019B01E9E03695279553
:103BC00017950795EA95D1F7ED81E230E1F5FC0113
:103BD000628D738D848D958D600F711F821F931F71
:103BE000612C22E0722E6C187D088614970408F46C
:103BF00034012C8126FD04C06114F2E07F0671F4CB
:103C0000009108011091090120910A0130910B01E6
:103C1000061717072807390709F053C040E00E942C
:103C2000B923882309F484CFC601825A964FD5015F
:103C30009C01260D371DFC012E173F0709F460C0BB
:103C400041914D93F9CFFC0174807A947022C11494
:103C5000D10471F471100CC0452B462B472B39F55C
:103C60008F89988DA98DBA8D8E839F83A887B987F8
:103C7000EB8DFC8D6E817F818885998562507109FD
:103C800081099109258504C0660F771F881F991F38
:103C90002A95D2F70685178520893189600F711F13
:103CA000821F931F670D711D811D911D99CF4E813C
:103CB0005F816885798591010E9418248111D8CF90
:103CC00037CF750183019601AB01BC0180915C097E
:103CD00090915D090E94A81B882309F429CFA60CA6
:103CE000B71C8A859B85AC85BD85860D971DA11D5A
:103CF000B11D8A879B87AC87BD87861897084ECFF2
:103D0000281B390BA20EB31EECCFC20113CFFF92BA
:103D10000F931F93CF93DF931F92CDB7DEB7FC01B4
:103D200025812230C8F08C014285538564857585D4
:103D300085E076956795579547958A95D1F7F42F45
:103D4000FF70FF2E41E050E0BE016F5F7F4FC80162
:103D50000E94801D019719F090E080E012C0F801E8
:103D600082859385A485B5854F96A11DB11D828757
:103D70009387A487B587F0E2FF9EC0011124825A81
:103D8000964F0F90DF91CF911F910F91FF90089563
:103D90008F929F92AF92BF92CF92DF92EF92FF925B
:103DA0000F931F93CF93DF93EC018D8181110EC090
:103DB00080E0DF91CF911F910F91FF90EF90DF9006
:103DC000CF90BF90AF909F908F9008950B891C89E2
:103DD0002D893E89041715072607370748F34A013E
:103DE0005B01823031F48A869B86AC86BD8681E099
:103DF000E0CF81149104A104B10449F41E821F8212
:103E0000188619861A861B861C861D86F0CF0A85A1
:103E10001B852C853D85EB8DFC8D858590E0099675
:103E2000B901A8014150510961097109082E04C066
:103E300076956795579547950A94D2F77501640171
:103E4000E1E0CE1AD108E108F10804C0F694E79445
:103E5000D794C7948A95D2F7C416D506E606F70616
:103E600020F0012B022B032B11F58F89988DA98D42
:103E7000BA8D8E839F83A887B9878E010A5F1F4FF3
:103E8000C114D104E104F10409F4ADCF4E815F8186
:103E90006885798598018B8D9C8D0E94182491E00E
:103EA000C91AD108E108F1088111EACF81CFC41AFB
:103EB000D50AE60AF70AE1CF0F931F93CF93DF935A
:103EC000EC018D818823D9F18C8187FF32C061E0BC
:103ED000CE010E94DE1C8C01892B89F18D818230FC
:103EE00048F48B899C89AD89BE89F801848F958FB0
:103EF000A68FB78F8F89988DF801938F828F8F89C6
:103F0000988DA98DBA8DB58BA48BE0915509F09150
:103F10005609309759F0B8016A5E7F4FC80148963C
:103F20000995F801808D918D938B828B8C818F7791
:103F30008C83DF91CF911F910F910C947E2380E0B1
:103F4000DF91CF911F910F910895CF93DF93EC01F3
:103F50000E945C1F882311F01D8281E0DF91CF91C8
:103F600008954F925F926F927F928F929F92AF923D
:103F7000BF92EF92FF920F931F93CF93DF9300D0E6
:103F800000D0CDB7DEB7FC0185818130A1F080E0A3
:103F90000F900F900F900F90DF91CF911F910F9185
:103FA000FF90EF90BF90AF909F908F907F906F9019
:103FB0005F904F900895848181FFE9CF8389948930
:103FC000A589B68984179507A607B70700F3892B3B
:103FD0008A2B8B2B09F477C04A015B017F01428455
:103FE000538464847584CF010E94C81E882379F2AB
:103FF000F701838D948D81149104A104B10449F5D6
:104000004789508D618D728D0E94B126882309F4F5
:10401000BECFF701178A108E118E128EF701838A98
:10402000948AA58AB68A848180688483C7010E94A5
:104030005C1F882309F4ABCFB501A40144165506D3
:104040006606770610F4B301A201C7010E94C81EDC
:104050009FCF46815781608571859E012F5F3F4FBD
:104060000E941824882309F492CFF701838D948D40
:1040700049815A816B817C81FC0127892031F1F4CF
:1040800008EF1FEF20E030E0401751076207730789
:1040900028F60E94B126882309F479CFF7014681DA
:1040A0005781608571850FEF1FEF2FEF3FE0838D04
:1040B000948D0E9404258111B1CF69CF08EF1FEFC5
:1040C0002FEF3FE0E1CF81E063CFCF92DF92EF921D
:1040D000FF921F93CF93DF93EC0180E2689FF00182
:1040E0001124E25AF64F9385917161F0842F827406
:1040F00049F080E0DF91CF911F91FF90EF90DF902A
:10410000CF900895142F6A8B809108019091090136
:10411000A0910A01B0910B018E879F87A88BB98B64
:10412000C488D588F12CE12C7601DD24CC24CF8AFB
:10413000D88EE98EFA8E828D938DB0E0A0E0AC012E
:10414000BD014C295D296E297F294F8B588F698FBE
:104150007A8F8385887129F5848D958DA68DB78D8D
:104160008B8B9C8BAD8BBE8B81E08D83812F8F7071
:104170008C831E821F82188619861A861B861C86CF
:104180001D8681E016FFB6CF40E050E0BA01CE01B7
:10419000DF91CF911F91FF90EF90DF90CF900C9423
:1041A000B11F803109F0A5CF9E012D5E3F4F8B8D51
:1041B0009C8D0E949924882309F49BCF84E0D5CF5D
:1041C000BF92CF92DF92EF92FF920F931F93CF9304
:1041D000DF93CDB7DEB72B970FB6F894DEBF0FBED7
:1041E000CDBFFC01358131110BC0C22E8B017C018A
:1041F000BE016F5F7F4FCA010E94F71C811102C090
:1042000080E0A1C0F801838D948DF701948F838F96
:10421000F80116821782108611861286138614867C
:104220001586B12CF80182859385A485B5854389CF
:1042300054896589768984179507A607B70788F595
:1042400025E0B695A795979587952A95D1F7F82FEC
:10425000FF70DF2EC8010E94871E009789F2FC01C3
:104260002081222341F0253E09F059C0BB2029F0CE
:10427000BB24B394D7CFB1100EC0F701D28A4091BE
:1042800008015091090160910A0170910B01468764
:104290005787608B718BFC0180818111E9CFBB2432
:1042A000B3948C2D8271823109F0AACFBB2009F41E
:1042B0005AC061E0C7010E94DE1C8C01892B09F401
:1042C0009FCF80E2F80111928A95E9F78BE0FE0119
:1042D0003196D80101900D928A95E1F7E091550948
:1042E000F0915609309709F44EC0B801625F7F4FD4
:1042F000C80140960995F80180899189938B828B3A
:10430000918F808F86859785978B868B0E947E23E1
:10431000882309F475CF4C2DF701628911C04BE059
:1043200050E0BC01CE0101960E94BB39892B09F0F7
:1043300079CF8C2D80734C2D6D2D803309F460CF97
:10434000C7010E9465202B960FB6F894DEBF0FBE02
:10435000CDBFDF91CF911F910F91FF90EF90DF9034
:10436000CF90BF900895F8018581823009F448CF3D
:10437000C8010E94741C882309F442CFF701128AF5
:104380000EE519E09ECF81E298E2F801918B808BD7
:1043900080E098E097878687AECF2F923F924F922A
:1043A0005F926F927F928F929F92AF92BF92CF92C5
:1043B000DF92EF92FF920F931F93CF93DF9300D082
:1043C00000D0CDB7DEB78C016B011A01DC01159668
:1043D0008C911597813009F0C8C014968C9181FF9B
:1043E000C4C082FDAEC04101D8011A964D915D91C5
:1043F0006D917C911D978114910409F429C15B96FC
:104400008D919C915C97FC0174802FEF270D2A0100
:104410003B0139E076946794579447943A95D1F7E5
:10442000722E74207A01F1E0FF22711020C0E11495
:10443000F104E9F416964D915D916D917C91199777
:10444000411551056105710509F098C057968D9188
:104450009D910D90BC91A02D0097A105B10509F08B
:10446000AFC0C8010E944D1C882309F47EC080E0C3
:1044700092E08E199F0954018815990508F45C0192
:10448000D8015B964D915C915C9716968D919D91AC
:104490000D90BC91A02D0297A109B109FA012585C3
:1044A00004C0880F991FAA1FBB1F2A95D2F7468503
:1044B000578560897189840F951FA61FB71F9C01BE
:1044C000AD01270D311D411D511D29013A01A114D6
:1044D00032E0B30609F07AC0809108019091090199
:1044E000A0910A01B0910B0184159505A605B705A9
:1044F00059F48FEF9FEFDC0180930801909309013D
:10450000A0930A01B0930B019601B301A20180911F
:104510005C0990915D090E94F81B882331F19EEFA0
:10452000D91A8A189B08F80182859385A485B585D8
:104530008A0D9B1DA11DB11D82879387A487B58716
:1045400053CFF8014389548965897689828593859B
:10455000A485B585481759076A077B0709F443CF37
:10456000C8010E94C81E81113ECF81E090E0D801B1
:1045700013969C938E93129780E007C09E012F5F45
:104580003F4F0E941824811102C090E07BC08981B6
:104590009A81AB81BC81F801238D348DF901278983
:1045A00048EF5FEF60E070E0203121F048EF5FEF0F
:1045B0006FEF7FE084179507A607B70708F051CF84
:1045C000F80186839783A087B18751CFE114F10466
:1045D00091F5D8011A964D915D916D917C911D9741
:1045E00053968D919D910D90BC91A02D4817590720
:1045F0006A077B0700F10E947E23882309F4B5CF68
:10460000409208015092090160920A0170920B01D8
:1046100080915B09816080935B099701225A364F34
:10462000D601C9018A0D9B1DF9018E179F0759F00C
:104630004D914193FACF41E0C301B2010E94B923E9
:104640008111EBCF92CF821B930BC80ED91E69CF7D
:1046500014968C9114975396CD90DD90ED90FC902C
:104660005697C416D506E606F70618F5F801438BEB
:10467000548B658B768B80688483F801848183FDFD
:1046800025C0C1010F900F900F900F90DF91CF9137
:104690001F910F91FF90EF90DF90CF90BF90AF9060
:1046A0009F908F907F906F905F904F903F902F9052
:1046B00008952091550930915609232BF1F22114C8
:1046C0003104D9F2806814968C93D7CFC8010E9428
:1046D0005C1F882309F449CFD4CFCF93DF931F9277
:1046E000CDB7DEB7698341E050E0BE016F5F7F4F19
:1046F0000E94CD210F90DF91CF91089580915B09A9
:104700008823A9F1409108015091090160910A01A3
:1047100070910B012EE539E080915C0990915D0963
:104720000E94F81B811102C080E008954091570952
:10473000509158096091590970915A0941155105D4
:104740006105710591F02EE539E080915C09909149
:104750005D090E94F81B882339F3109257091092C3
:1047600058091092590910925A0910925B0981E078
:104770000895CF92DF92EF92FF92CF936B017C016D
:10478000C42F8091080190910901A0910A01B09174
:104790000B018C159D05AE05BF05F9F00E947E2327
:1047A000811107C080E0CF91FF90EF90DF90CF9014
:1047B00008952EE539E0B701A60180915C0990913A
:1047C0005D090E94B81B882369F3C0920801D0924A
:1047D0000901E0920A01F0920B0140915B094C2B18
:1047E00040935B0981E0DFCFCF92DF92EF92FF929F
:1047F0006B017C010E947E238823A9F0EEE5F9E09D
:1048000011928BE0EE35F807D9F7C0920801D092EB
:104810000901E0920A01F0920B0180915B0981602D
:1048200080935B0981E0FF90EF90DF90CF90089537
:104830008F929F92AF92BF92CF92DF92EF92FF92B0
:104840000F931F93CF93DF93FC0181859285A385FE
:10485000B4850196A11DB11D84179507A607B7075A
:1048600070F480E0DF91CF911F910F91FF90EF9056
:10487000DF90CF90BF90AF909F908F9008958388E6
:104880009488A588B6888789803189F5BB27A72FAA
:10489000962F852FE9016A017B018F01BC01CD01B3
:1048A000680D791D8A1D9B1D80900801909009015B
:1048B000A0900A01B0900B0186169706A806B906CB
:1048C00001F5F8018789803111F5DD24EE24FF24FC
:1048D000F601EE0FFF1FE25AF64F80819181B0E0A2
:1048E000A0E088839983AA83BB8381E0BBCFDB01EF
:1048F000CA01C7E0B695A79597958795CA95D1F750
:10490000C9CF40E00E94B9238111DBCFAACFE89440
:10491000C7F8DD24EE24FF24F601EE0FFF1FEE0F93
:10492000FF1FE25AF64F80819181A281B381BF704F
:10493000D8CF4F925F926F927F92AF92BF92CF92F9
:10494000DF92EF92FF920F931F93CF93DF9300D0EC
:1049500000D0CDB7DEB78C0149835A836B837C834B
:104960005901C12CD12C7601412C82E0582E612CAA
:10497000712C49815A816B817C819E012F5F3F4F51
:10498000C8010E941824882339F1F8018585A30104
:10499000920104C0220F331F441F551F8A95D2F77E
:1049A000DA01C901C80ED91EEA1EFB1E49815A81CF
:1049B0006B817C818789803111F188EF9FEFAFEFA8
:1049C000BFE0481759076A077B0798F2F501C082D4
:1049D000D182E282F38281E00F900F900F900F90CE
:1049E000DF91CF911F910F91FF90EF90DF90CF90CB
:1049F000BF90AF907F906F905F904F90089588EF39
:104A00009FEFA0E0B0E0DDCF4F925F926F927F9278
:104A10008F929F92AF92BF92CF92DF92EF92FF92CE
:104A20000F931F93CF93DF93EC0142305105610543
:104A3000710590F480E0DF91CF911F910F91FF906D
:104A4000EF90DF90CF90BF90AF909F908F907F902E
:104A50006F905F904F90089589859A85AB85BC854E
:104A60000196A11DB11D84179507A607B70710F37E
:104A7000CB88DC88ED88FE888F89803109F042C0C0
:104A8000BB27A72F962F852F480159012A013B01EB
:104A9000C80ED91EEA1EFB1E8091080190910901E3
:104AA000A0910A01B0910B01C816D906EA06FB06CF
:104AB00099F58F898031C1F5B301A2015527662789
:104AC0007727440F551F425A564FFA019182808230
:104AD00080915B09816080935B098A89823080F0D4
:104AE0008D819E81AF81B8858C0D9D1DAE1DBF1D32
:104AF0008093570990935809A0935909B0935A0984
:104B000081E099CFDB01CA01E7E0B695A7959795BB
:104B10008795EA95D1F7B8CF40E0C701B6010E946A
:104B2000B9238111C6CF86CFB301A2014F77552794
:104B300066277727440F551F440F551F425A564F7B
:104B4000FA0180829182A282B382C2CF2F923F92D9
:104B50004F925F926F927F928F929F92AF92BF928D
:104B6000CF92DF92EF92FF920F931F93CF93DF9339
:104B7000CDB7DEB72F970FB6F894DEBF0FBECDBF0F
:104B80003C01488759876A877B873F832E83D901F9
:104B9000CD90DD90ED90FC90C114D104E104F104BE
:104BA00039F0BFEFCB1ADB0AEB0AFB0A1D8210C0FB
:104BB000FC01C080D180E280F380F1E0FD830885B4
:104BC00019852A853B85013011052105310571F7CD
:104BD000F30181859285A385B4858C019D010F5FCA
:104BE0001F4F2F4F3F4F0C871D872E873F87460152
:104BF0005701212C312C2101F30181859285A38558
:104C0000B485281639064A065B0608F044C00C85B0
:104C10001D852E853F85081519052A053B0550F48D
:104C200082E0882E912CA12CB12C92E0C92ED12C9F
:104C3000E12CF12C9E012F5F3F4FB501A401C30170
:104C40000E941824882339F1D501C4010196A11DC1
:104C5000B11D49815A816B817C81452B462B472BA5
:104C6000A9F5AC01BD014C195D096E097F090885E4
:104C700019852A853B85401751076207730741F55F
:104C80000FEF1FEF2FEF3FE0B501A401C3010E941A
:104C90000425811125C01D828D812F960FB6F894B1
:104CA000DEBF0FBECDBFDF91CF911F910F91FF905F
:104CB000EF90DF90CF90BF90AF909F908F907F90BC
:104CC0006F905F904F903F902F9008956C017D0101
:104CD0001FEF211A310A410A510A4C015D018CCFA4
:104CE000C814D904EA04FB0488F41401250121E066
:104CF000221A31084108510895018401B201A1012D
:104D0000C3010E94042552014101C3CFAE81BF817E
:104D10004D915D916D917C91411551056105710534
:104D200061F4EE81FF81C082D182E282F382FD8153
:104D3000F1110BC001E00D83AFCF97018601C301D4
:104D40000E9404258111EDCFA6CF1FEFC11AD10A11
:104D5000E10AF10AD301CD92DD92ED92FC92139714
:104D60009BCFAF92BF92CF92DF92EF92FF920F93C1
:104D70001F93CF93DF9300D000D0CDB7DEB75C0197
:104D80006A017B0182E090E0A0E0B0E0F501808361
:104D90009183A283B3839E012F5F3F4FB701A6018A
:104DA000C5010E941824882381F100E010E09801D9
:104DB000B701A601C5010E940425882331F1C980ED
:104DC000DA80EB80FC80F50187898031C9F088EFBB
:104DD0009FEFAFEFBFE0C816D906EA06FB06D8F290
:104DE00081E00F900F900F900F90DF91CF911F9166
:104DF0000F91FF90EF90DF90CF90BF90AF9008950C
:104E000088EF9FEFA0E0B0E0E6CF80E0EACF8F929E
:104E10009F92AF92BF92CF92DF92EF92FF920F9349
:104E20001F93CF93DF93EC01142F70935D09609370
:104E30005C09442309F478C0453070F080E0DF91CC
:104E4000CF911F910F91FF90EF90DF90CF90BF9087
:104E5000AF909F908F90089540E060E070E0CB01AC
:104E60000E94B923882351F3812F8150990BAC0103
:104E700064E0440F551F6A95E1F7425A564FFA0114
:104E8000E254FE4F80818F77C9F63C9680819181F4
:104E9000A281B38184369105A105B10578F24A5308
:104EA0005E4FFA01C080D180E280F380C114D1044A
:104EB000E104F10419F240E0C701B6010E94B923F0
:104EC000882309F4BBCF8091690990916A09811503
:104ED000924009F0B3CF90916E09992309F4AECFB7
:104EE00020916C0930916D09232B09F4A7CF809193
:104EF0006B09882309F4A2CF9A8B8C831D8690E0DE
:104F000041E050E02D85E22FBA01022E02C0660F6B
:104F1000771F0A94E2F78617970751F031E0320FB6
:104F20003D87283078F38ACFC12CD12C7601C3CFAE
:104F3000209174093091750950E040E02115310548
:104F400041F4209182093091830940918409509164
:104F500085092D833E834F83588780916C099091FA
:104F60006D0946015701880E991EA11CB11C8B8A40
:104F70009C8AAD8ABE8A00916F0910917009198FC1
:104F8000088FA0916E09B0E00E948C37DC01CB0144
:104F9000880D991DAA1DBB1D8A8F9B8FAC8FBD8F5D
:104FA00025E0000F111F2A95E1F701501E4F012F38
:104FB00011270695800F911FA11DB11D8E879F8718
:104FC000A88BB98B009171091091720930E020E033
:104FD0000115110541F400917E0910917F0920917E
:104FE000800930918109C81AD90AEA0AFB0AC00E61
:104FF000D11EE21EF31E04C0F694E794D794C79422
:10500000EA95D2F7C986DA86EB86FC868CE025EF36
:10501000C2162FE0D206E104F10440F085EFC81675
:105020008FEFD806E104F10420F480E18F8B81E05A
:1050300006CF80918A0990918B09A0918C09B0913B
:105040008D098A8F9B8FAC8FBD8F80E2EFCFCF937E
:10505000CFB7F8948091610B811127C0EAEDF1E0A0
:105060008491EAEBF1E09491E82FF0E0EE0FFF1F5E
:10507000E65FFD4FA591B491EC91E92321F461E045
:1050800084E00E94243561E084E00E94E8348CB51D
:1050900080618CBD8CB580648CBD61E087E00E942E
:1050A000E83461E085E00E94E8348091610B8F5F15
:1050B0008093610BCFBFCF910895CF93DF93EC0125
:1050C0006A818A8D9B8D0E949C128A8D9B8D0E9485
:1050D0002413282F30E02115310511F084E8898F41
:1050E00081E0232B09F080E0DF91CF910895CF92EA
:1050F000DF92EF92FF920F931F93CF93DF93EC0118
:10510000F62EE42EC52E462F6A818A8D9B8D0E9435
:105110001E138F111FC0DE2C0E2D1C2D802F8D19FC
:105120008F1568F48A8D9B8DDC01ED91FC910284D2
:10513000F385E02D0995F80181938F01EFCF198E4A
:1051400081E0DF91CF911F910F91FF90EF90DF9061
:10515000CF90089582E8898F80E0F3CFDC01ED9154
:10516000FC910190F081E02D09940F931F93CF9350
:10517000DF93EC018B016A818A8D9B8D0E949C12CA
:10518000612F70E08A8D9B8D0E94AE28B801772731
:105190008A8D9B8D0E94AE288A8D9B8D0E94241340
:1051A000882341F081E8898F80E0DF91CF911F91C2
:1051B0000F910895198E81E0F8CFFC0184E492E00C
:1051C000918380836283538F428F1482158216826B
:1051D0001782108E178A168A158A138214861586EE
:1051E00016861786108A118A128A138A148A118EDB
:1051F0000895CF93DC01ED91FC910280F381E02DC5
:1052000061110FC062EA70E30995C82F882331F05D
:1052100061E070E080E090E00E943A348C2FCF9102
:10522000089566E070E0F0CFFC01928194549230D2
:1052300020F460E0CF010C94F92880E00895FB0190
:105240008FEF21E3442369F09191892798E087FF4C
:1052500006C0880F82279150D1F74150F3CF880FB5
:10526000FACF0895EF92FF920F931F93CF93DF939E
:1052700000D000D000D0CDB7DEB78C01E62EDC0127
:10528000ED91FC910480F581E02DAE014F5F5F4F01
:1052900066E00995F82E882381F0E1102BC0EB80A1
:1052A00042E0BE016F5F7F4FC8010E941F29E816D0
:1052B00091F085E8F801818FF12C8F2D26960FB69D
:1052C000F894DEBF0FBECDBFDF91CF911F910F913C
:1052D000FF90EF900895EE8042E0BE016C5F7F4F3B
:1052E000C8010E941F29E81629F086E8D8015996BE
:1052F0008C93E2CF898190E0982F88272A81820FB2
:10530000911DF801908F878B8C8190E0982F8827D2
:105310002D81820F911D968B858B0E940934D801B7
:1053200014966D937D938D939C931797C6CF1F937F
:10533000CF93DF93EC01162FE881F9810280F3818E
:10534000E02D60E074E2112311F066E174E2CE0119
:105350000995882399F06FE070E080E090E01123D8
:1053600021F064E070E080E090E00E943A34612F28
:10537000CE01DF91CF911F910C94322980E0DF9113
:10538000CF911F910895FC01608352AF41AF88E037
:10539000818389E19CEFAFEFBFEF82839383A48386
:1053A000B58386839783A087B187938B828B10AA5E
:1053B00011AA12AA13AA14AA15AA16AA17AA128623
:1053C00013861486158616861786108A118A81E040
:1053D00080AF0895CF93DF93EC01688189AD9AADDA
:1053E0000E949C1289AD9AAD0E94241391E0811114
:1053F00090E0892FDF91CF9108958F929F92AF9285
:10540000BF92CF92DF92EF92FF92FC018684978445
:10541000A088B18862817381848195810E9425363C
:105420002AE037ED43E25CE30E94D5366B017C0154
:1054300020E030E0A901C501B4010E94E8358823CD
:1054400041F0A5019401C701B6010E947C356B01B2
:105450007C01C701B601FF90EF90DF90CF90BF9025
:10546000AF909F908F9008958F929F92AF92BF922E
:10547000CF92DF92EF92FF92FC0182849384A48406
:10548000B58466817781808591850E9425362AE0E2
:1054900037ED43E25CE30E94D5366B017C0120E0EE
:1054A00030E0A901C501B4010E94E835882341F02C
:1054B000A5019401C701B6010E947C356B017C01F6
:1054C000C701B601FF90EF90DF90CF90BF90AF90F3
:1054D0009F908F9008951F93CF93DF93EC01162F29
:1054E0000E94AE33688189AD9AAD0E949C1289AD4D
:1054F0009AADDC01ED91FC910190F081E02D612FDE
:10550000099589AD9AAD0E94241390E09B8B8A8BFC
:10551000DF91CF911F9108958F929F92AF92BF928A
:10552000CF92DF92EF92FF921F93CF93DF93CDB78D
:10553000DEB72A970FB6F894DEBF0FBECDBF4D3051
:10554000B0F14CE018EF140F212F220F620F0E94D0
:105550006B2A8AE0ECE0F1E0DE01119601900D92F9
:105560008A95E1F7412F50E0440F551F81E090E00C
:105570008C0F9D1F480F591FFA01C080D1800E94D7
:1055800015344B015C01F12CE12C0E941534681993
:1055900079098A099B096C157D058E059F0558F4CC
:1055A0000E94AE338AE090E00E947334EECF483020
:1055B00048F648E0C7CF2A960FB6F894DEBF0FBE74
:1055C000CDBFDF91CF911F91FF90EF90DF90CF90F3
:1055D000BF90AF909F908F9008950F931F93CF939C
:1055E000DF93683038F090E080E0DF91CF911F9139
:1055F0000F910895EC01660F60560E946B2A8A890C
:105600009B89892B81F742E0688189AD9AAD0E9420
:105610001E13823040F389AD9AADDC01ED91FC910F
:105620000284F385E02D099500E0182F89AD9AAD2D
:10563000DC01ED91FC910284F385E02D0995800F4A
:10564000911FD3CF8F929F92AF92BF92CF92DF9252
:10565000EF92FF92CF93DF93EC0160E00E946B2A00
:105660008A899B89892B71F060E070E0CB01DF9122
:10567000CF91FF90EF90DF90CF90BF90AF909F9031
:105680008F90089543E0688189AD9AAD0E941E1302
:10569000833050F389AD9AADDC01ED91FC91028429
:1056A000F385E02D0995092E000CAA0BBB0B5C01BC
:1056B0009924882489AD9AADDC01ED91FC91028496
:1056C000F385E02D09956C01990FEE08FF08FE2C7B
:1056D000ED2CDC2CCC24C80CD91CEA1CFB1C89AD9D
:1056E0009AADDC01ED91FC910284F385E02D0995E2
:1056F000BC01990F880B990B6C0D7D1D8E1D9F1D94
:10570000B6CF4F925F926F927F928F929F92AF929D
:10571000BF92CF92DF92EF92FF920F931F93CF939E
:10572000DF93CDB7DEB766970FB6F894DEBF0FBE36
:10573000CDBF9E8B8D8BF62E462F60E40E948C2A67
:10574000ED89FE89028913890115110509F043C10C
:10575000CF010E94222B6D877E878F87988BED89E2
:10576000FE89028913890115110509F034C14F2DF5
:1057700060E5CF010E948C2AED89FE890289138998
:105780000115110509F027C1CF010E94222BED89D7
:10579000FE89028913890115110509F01CC10E94B7
:1057A0002336ED89FE8920A531A542A553A50E9487
:1057B0007B356B017C01ED89FE8924A535A546A5C5
:1057C00057A50E94D53620E030E04AEF54E40E940D
:1057D0007C350E94ED354B015C01ED89FE898282AA
:1057E0009382A482B58224A135A146A157A1C70105
:1057F000B6010E94D536ED89FE89248D358D468D02
:10580000578D0E947C352B013C01ED89FE8920A13A
:1058100031A142A153A1C701B6010E94D536ED893D
:10582000FE89208D318D428D538D0E947C35698398
:105830007A838B839C83ED89FE8980AD882309F46C
:105840009EC0F0ED8F16F7E09F06A104B1040CF0A6
:1058500096C0A7019601C701B6010E94D53620E087
:1058600030E040E050E30E94D536698B7A8B8B8B19
:105870009C8BC501B401605D7740810991099B0152
:10588000AC010E9442370E9425366B017C0120E06A
:1058900030E040E250E40E94D5366D837E838F83F2
:1058A000988720E030E040EA5FE3C701B6010E943C
:1058B000D5366B017C0184E288168AEF98068FEF5B
:1058C000A806B806A4F5C501B40164527A4F8F4FFB
:1058D0009F4F9B01AC010E9442370E942536698789
:1058E0007A878B879C8720E030E040EE50E40E946E
:1058F000D5369B01AC016D817E818F8198850E9498
:105900007C356D837E838F83988720E030E040EB89
:1059100050E469857A858B859C850E94D5369B01EC
:10592000AC01C701B6010E947C356B017C01C50149
:10593000B4010E94253629893A894B895C890E94E5
:105940007B350E94ED35ED89FE8962837383848304
:1059500095832D813E814F815885C301B2010E94FC
:105960007B352B013C01A701960169817A818B81EE
:105970009C810E947B3569837A838B839C836D85B0
:105980007E858F8598890E94233629813A814B81B3
:105990005C810E94D53620E030E040E055E30E9473
:1059A000D536A30192010E947B3520E030E040E033
:1059B00058E30E94D5360E94ED35ED89FE89668355
:1059C0007783808791870E940934ED89FE8960ABD7
:1059D00071AB82AB93ABC80166960FB6F894DEBF8D
:1059E0000FBECDBFDF91CF911F910F91FF90EF9030
:1059F000DF90CF90BF90AF909F908F907F906F90EF
:105A00005F904F900895CF92DF92EF92FF92FC014A
:105A1000262F80E090E0A0E8BFE3848B958BA68BD7
:105A2000B78B80E090E0A0E0B7E4808F918FA28FE9
:105A3000B38F40E050E060E877E4448F558F668F85
:105A4000778F80E090E0A0E8BBE380A391A3A2A3BE
:105A5000B3A380E090E0A0E0BCE384A395A3A6A359
:105A6000B7A3C12CD12C30E8E32E33E4F32EC0A62B
:105A7000D1A6E2A6F3A6C12CD12CE12C34E3F32E5F
:105A8000C4A6D5A6E6A6F7A62130C1F4408F518F53
:105A9000628F738F40E050E060E078E4448F558F70
:105AA000668F778F80A391A3A2A3B3A380E090E039
:105AB000A0E8BCE384A395A3A6A3B7A3FF90EF90AF
:105AC000DF90CF9008952F923F924F925F926F9206
:105AD0007F928F929F92AF92BF92CF92DF92EF927E
