:100000000C9411010C943B010C943B010C943B01AA
:100010000C943B010C943B010C943B010C943B0170
:100020000C943B010C943B010C943B010C943B0160
:100030000C943B010C946A010C943B010C943B0121
:100040000C943B010C943B010C94EF270C943B0166
:100050000C949D230C94D3230C943B010C943B01F2
:100060000C943B010C943B010C94190E0C943B0135
:100070000C9434240C946A240C943B010C943B01A2
:100080000C943B010C943B010C943B0100407A1012
:10009000F35A00A0724E18090010A5D4E80000E839
:1000A0007648170000E40B54020000CA9A3B000097
:1000B00000E1F505000080969800000040420F0026
:1000C0000000A08601000000102700000000E803E7
:1000D000000000006400000000000A0000000000B2
:1000E0000100000000002C76D888DC674F0823DF71
:1000F000C1DFAE59E1B1B796E5E3E453C63AE65144
:10010000997696E8E6C28426EB898C9B62ED407C6A
:100110006FFCEFBC9C9F40F2BAA56FA5F490055A06
:100120002AF75C936B6CF9676DC11BFCE0E40D472B
:10013000FEF520E6B500D0ED902E0300943577054E
:100140000080841E080000204E0A000000C80C3306
:100150003333330F986E12831141EF8D2114893B95
:10016000E65516CFFEE6DB18D1844B381BF77C1D15
:10017000901DA4BBE424203284725E228100C9F168
:1001800024ECA1E53D277C3C3E5E2B3D3F2F5B5D93
:100190003B2C2A225C000000000203000A0B000036
:1001A0000000050409080000000000000000000035
:1001B000000000000000010204081020408001023D
:1001C0000408102040800102040810204080010231
:1001D000040810204080020202020202020204040B
:1001E00004040404040403030303030303030101DD
:1001F0000101010101010000200023002600290067
:1002000000002200250028002B000000210024000F
:1002100027002A0084012E0D32134C1607249E2439
:10022000960111241FBECFEFD0E4DEBFCDBF12E098
:10023000A0E0B1E0EAE1F1E600E00BBF02C0079008
:100240000D92A632B107D9F72AE0A6E2B2E001C0CA
:100250001D92AA38B207E1F711E0C0E1D1E004C075
:100260002197FE010E94362BCA30D107C9F70E94A0
:10027000E0270C9480300C940000DC01ED91FC919F
:100280000190F081E02D09940CB405FC0DC09EBDD9
:1002900000000DB407FEFDCF9EB58EBD00000DB46D
:1002A00007FEFDCF8EB508958EBD00000DB407FE8C
:1002B000FDCF8EB59EBD00000DB407FEFDCF9EB5EF
:1002C0000895982F92959F708F702AE0929F800DCD
:1002D000112408951F920F920FB60F9211248F933D
:1002E000809127028F5F80932702809126028F5F83
:1002F0008093260210928500109284008F910F90B7
:100300000FBE0F901F9018956BE071E081E496E0AE
:100310000E942E266CE371E08BE396E00E942E266D
:1003200065E272E085E396E00C942E2685E396E084
:100330000E94BC258BE396E00E94BC2581E496E0F8
:100340000C94BC25CF93DF9361E570E087E496E0E1
:100350000E94AD0C70E060E087E496E00E943D01F1
:1003600087E496E00E942B0D46E050E061E570E0E6
:1003700087E496E00E94280D87E496E00E94200C16
:100380000E9461018093280287E496E00E94200C7D
:100390008F770E946101D82F87E496E00E94200C9D
:1003A0008F770E946101C82F87E496E00E94200C9D
:1003B0000E94610190E0B0E0A0E080932902909358
:1003C0002A02A0932B02B0932C0287E496E00E94AD
:1003D000200C0E94610124E6829FC0011124092E95
:1003E000000CAA0BBB0B4091290250912A0260918C
:1003F0002B0270912C02840F951FA61FB71F8093AC
:10040000290290932A02A0932B02B0932C0287E436
:1004100096E00E94200C0E94610140E157E2849F17
:100420009001859F300D1124032E000C440B550BB9
:100430008091290290912A02A0912B02B0912C0266
:10044000280F391F4A1F5B1FA0E1BEE00E943F2B0F
:10045000AB01BC012CE3C29FC0011124092E000C8A
:10046000AA0BBB0B8D0F911DA11DB11D840F951FF4
:10047000A61FB71F8093290290932A02A0932B02F4
:10048000B0932C02DF91CF9108958F929F92AF92FB
:10049000BF92EF92FF920F931F93CF93DF93CDB74D
:1004A000DEB7A7970FB6F894DEBF0FBECDBF61E0F1
:1004B00083E10E94542960E082E10E94542905E30F
:1004C00012E081E3E82E82E0F82E812C912C540179
:1004D000F80181918F01880E911CA11CB11CF6E0DE
:1004E00001331F07A9F765E272E0CE0182960E94F0
:1004F0002E260E94A2016BE471E0CE0182960E943A
:10050000912760913106709132064AE0CE01019642
:100510000E94A626BE016F5F7F4FCE0182960E9489
:100520008A27CE0101960E94BC2566EA71E0CE01C1
:1005300082960E9491274091290250912A0260914F
:100540002B0270912C022AE0CE0101960E94D22645
:10055000BE016F5F7F4FCE0182960E948A27CE0137
:1005600001960E94BC2569E871E0CE0182960E9446
:1005700091274AE060912802CE0101960E944D2603
:10058000BE016F5F7F4FCE0182960E948A27CE0107
:1005900001960E94BC2566EA71E0CE0182960E9417
:1005A00091272AE0B501A401CE0101960E94D2262E
:1005B000BE016F5F7F4FCE0182960E948A27CE01D7
:1005C00001960E94BC2566EA71E0CE0182960E94E7
:1005D0009127F70161917F014AE0CE0101960E94C7
:1005E0004D26BE016F5F7F4FCE0182960E948A2703
:1005F000CE0101960E94BC250E151F0521F78091A2
:10060000060161E0882309F470C08EE00E9454293D
:1006100064E089EE96E00E947C1162E571E0882337
:1006200009F45CC0409135065091360623E169EE2D
:1006300076E0CE0101960E949C12CE0101960E94A6
:100640007010882309F448C0BE016E5D7F4FCE0153
:1006500001960E942825CE0101960E945E1061E05D
:1006600084E00E94542960E08EE00E94542960E0FA
:100670008DE00E94542980913106909132060196B6
:10068000893FFAE29F0708F065C090933206809395
:10069000310661E082E10E94542960E083E10E941A
:1006A000542961E070E080E090E00E946A28CE0169
:1006B00082960E94BC25A7960FB6F894DEBF0FBEA7
:1006C000CDBFDF91CF911F910F91FF90EF90BF9021
:1006D000AF909F908F90089561E671E08FED99E063
:1006E0000E943A2510920601BACF8DE00E9454294B
:1006F000AEA0BFA010E000E0FF24FA948DE10E94BC
:100700008229892B19F0FA94F110F8CF82E390E056
:100710000E94A3287801FFEFEF1AFF0AB801CE016B
:1007200082960E94CD27FC01608182E499E00E94BC
:100730001D25AE14BF0460F482E499E00E942425D4
:10074000BE016E5D7F4F8FED99E00E9428258BCF13
:100750008701D2CF10923206109231066091330693
:10076000709134066F5F7F4F709334066093330649
:100770004AE0CE014C960E94A626BE01645E7F4FE1
:10078000CE0101960E9416276BE671E0CE0101961C
:100790000E94B327BC0185E396E00E94FF26CE01AC
:1007A00001960E94BC25CE014C960E94BC2560E7B4
:1007B00071E08FED99E00E94152565E376E08FEDFD
:1007C00099E00E94282565CF0F931F93CF93DF9365
:1007D000C82F65E570E087E496E00E94AD0C0C2E12
:1007E000000CDD0BBE0187E496E00E943D0187E42A
:1007F00096E00E942B0D41E050E065E570E087E453
:1008000096E00E94280D87E496E00E94200C8C015F
:1008100065E570E087E496E00E94AD0CBE016F5F75
:100820007F4F87E496E00E943D0187E496E00E94B6
:100830002B0D41E050E065E570E087E496E00E9412
:10084000280D87E496E00E94200C20E0382FC90193
:10085000800F911FDF91CF911F910F910895CF933A
:10086000DF93CDB7DEB7A1970FB6F894DEBF0FBE0A
:10087000CDBF61E083E10E94542960E082E10E94E3
:10088000542965E272E0CE014C960E942E260E9409
:10089000A2016BE771E0CE014C960E949127609116
:1008A0003106709132064AE0CE0101960E94A626DA
:1008B000BE016F5F7F4FCE014C960E948A27CE010A
:1008C00001960E94BC2566EA71E0CE014C960E941A
:1008D00091274091290250912A0260912B02709138
:1008E0002C022AE0CE0101960E94D226BE016F5F43
:1008F0007F4FCE014C960E948A27CE0101960E941E
:10090000BC2569E871E0CE014C960E9491274AE02F
:1009100060912802CE0101960E944D26BE016F5FB4
:100920007F4FCE014C960E948A27CE0101960E94ED
:10093000BC2566EA71E0CE014C960E94912788E0C2
:100940000E94E4034AE0BC01CE0101960E947A268F
:10095000BE016F5F7F4FCE014C960E948A27CE0169
:1009600001960E94BC2566EA71E0CE014C960E9479
:1009700091278AE00E94E4034AE0BC01CE0101967F
:100980000E947A26BE016F5F7F4FCE014C960E9477
:100990008A27CE0101960E94BC2566EA71E0CE014D
:1009A0004C960E94912784E00E94E4034AE0BC0137
:1009B000CE0101960E947A26BE016F5F7F4FCE0165
:1009C0004C960E948A27CE0101960E94BC2566EAB9
:1009D00071E0CE014C960E94912786E00E94E403CC
:1009E0004AE0BC01CE0101960E947A26BE016F5FEB
:1009F0007F4FCE014C960E948A27CE0101960E941D
:100A0000BC2566EA71E0CE014C960E9491278CE0ED
:100A10000E94E403BC01990F880B990B0E941B2ACA
:100A20002DEC3CEC4CEC5DE30E94A72A23E333E978
:100A300048E853E40E94AC29AB01BC0122E0CE019E
:100A400001960E942E27BE016F5F7F4FCE014C960C
:100A50000E948A27CE0101960E94BC258091060142
:100A6000882349F164E089EE96E00E947C1162E5FA
:100A700071E08823E9F1409135065091360623E173
:100A800069EE76E0CE0101960E949C12CE0101969D
:100A90000E947010882351F1BE01645E7F4FCE0129
:100AA00001960E942825CE0101960E945E1061E009
:100AB00084E00E94542961E082E10E94542960E0B0
:100AC00083E10E94542961E070E080E090E00E94A0
:100AD0006A28CE014C960E94BC25A1960FB6F894C8
:100AE000DEBF0FBECDBFDF91CF91089561E671E00B
:100AF0008FED99E00E943A2510920601D8CFCF924F
:100B0000DF92EF92FF920F931F93CF93DF93CDB7B6
:100B1000DEB7C254D1090FB6F894DEBF0FBECDBF09
:100B200026E040E052EC61E070E082E499E00E944F
:100B30004B2326E040E052EC61E070E08FED99E05D
:100B40000E944B2340EA56E861E070E087E496E0BB
:100B50000E949F0C62E871E08FED99E00E943A25B7
:100B600060E08BE10E94182960E085E10E9418296D
:100B700060E08DE10E94182960E08EE10E94182952
:100B800061E086E10E94182961E087E10E9418294E
:100B900060E080E00E94182961E082E10E9418294B
:100BA00061E082E10E94542961E083E10E941829FA
:100BB00061E083E00E94182961E084E00E94182926
:100BC00060E085E00E94182960E086E00E94182914
:100BD00061E087E00E94182961E083E10E945429C6
:100BE00061E084E00E94542960E087E00E9454297B
:100BF00060E083E00E9454296AE670E087E496E0B2
:100C00000E94AD0C62E087E496E00E94430C60E62F
:100C100071E087E496E00E943D0187E496E00E943F
:100C20002B0D6AE670E087E496E00E94AD0C64E16B
:100C300087E496E00E94430C66E287E496E00E9417
:100C4000430C69E987E496E00E94430C60E087E486
:100C500096E00E94430C87E496E00E942B0D6AE622
:100C600070E087E496E00E94AD0C6AE187E496E0CC
:100C70000E94430C6FEB87E496E00E94430C87E4EC
:100C800096E00E942B0D6AE670E087E496E00E94F1
:100C9000AD0C66E287E496E00E94430C6CE887E4C2
:100CA00096E00E94430C87E496E00E942B0D8BE1B6
:100CB0000E948229892B09F4CEC011E061E0112342
:100CC00009F46BC083E00E94542961E08CE00E942B
:100CD000182961E08CE00E94542938ECE32EF12CB5
:100CE0008AEF90E00E94A32861E08FE00E9418291B
:100CF00061E08FE00E9454298AEF90E00E94A328CF
:100D000061E08FE00E94182960E08FE00E94542982
:100D100081E0E81AF10821F728ECE22EF12C84EBAF
:100D200090E00E94A32861E08FE00E94182961E012
:100D30008FE00E94542984EB90E00E94A32861E098
:100D40008FE00E94182960E08FE00E94542981E022
:100D5000E81AF10821F761E770E087E496E00E9465
:100D6000AD0C60E087E496E00E94430C63E187E409
:100D700096E00E94430C87E496E00E942B0D68EEFB
:100D800073E080E090E00E946A288EE10E94822950
:100D9000892BD9F781E0182791CF8CE00E94182980
:100DA00060E08CE00E94542998ECE92EF12C84EB51
:100DB00090E00E94A32861E08FE00E94182961E082
:100DC0008FE00E94542984EB90E00E94A32861E008
:100DD0008FE00E94182960E08FE00E94542981E092
:100DE000E81AF10821F788ECE82EF12C8AEF90E060
:100DF0000E94A32861E08FE00E94182961E08FE043
:100E00000E9454298AEF90E00E94A32861E08FE0BD
:100E10000E94182960E08FE00E94542981E0E81ABE
:100E2000F10821F761E770E087E496E00E94AD0CDD
:100E300060E087E496E00E94430C60E187E496E07E
:100E40000E94430C87E496E00E942B0D60E083E053
:100E50000E94542994CF61E084E10E94182961E046
:100E600084E10E94542915E060E570E080E090E0A4
:100E70000E946A2861E08CE00E94182961E08CE001
:100E80000E94542960E570E080E090E00E946A28AA
:100E900060E08CE00E945429115031F761E08CE051
:100EA0000E94542908EC10E084EB90E00E94A328F3
:100EB00061E08FE00E94182961E08FE00E945429D0
:100EC00084EB90E00E94A32861E08FE00E94182943
:100ED00060E08FE00E9454290150110929F76BE866
:100EE00071E08FED99E00E943A2561E082E00E9476
:100EF000182961E082E00E94542961E08AE10E94A1
:100F0000182961E08AE10E94542960E087E10E948B
:100F1000542961E086E10E94542961E570E087E48C
:100F200096E00E94AD0C63E287E496E00E94430CD9
:100F300060E087E496E00E94430C60E087E496E07E
:100F40000E94430C65E087E496E00E94430C60E059
:100F500087E496E00E94430C60E087E496E00E94FC
:100F6000430C67E987E496E00E94430C60E087E465
:100F700096E00E94430C60E087E496E00E94430CF8
:100F800087E496E00E942B0D61E570E087E496E02F
:100F90000E94AD0C6FE270E087E496E00E943D0194
:100FA0006CE270E087E496E00E943D0187E496E001
:100FB0000E942B0D61E570E087E496E00E94AD0C85
:100FC00068E270E087E496E00E943D0167E970E026
:100FD00087E496E00E943D0187E496E00E942B0D95
:100FE00061E570E087E496E00E94AD0C60E087E484
:100FF00096E00E94430C60E087E496E00E94430C78
:1010000060E087E496E00E94430C60E087E496E0AD
:101010000E94430C60E087E496E00E94430C60E08D
:1010200087E496E00E94430C60E087E496E00E942B
:10103000430C87E496E00E942B0D64E971E0CE0139
:1010400001960E942E266BE376E0CE0101960E9467
:10105000A02764EA71E00E94B32761E476E00E9471
:10106000A02766EA71E00E94B327BC01CE01CD96AD
:101070000E941627CE0101960E94BC256BE570E008
:1010800087E496E00E94AD0C68E070E087E496E0AB
:101090000E943D0170E060E087E496E00E943D011F
:1010A00087E496E00E942B0D40E16BE587E496E033
:1010B0000E94250D10E187E496E00E94200C082F85
:1010C000803130F468EA71E0CE01CD960E9491271C
:1010D00040E1602FCE0101960E944D26BE016F5F58
:1010E0007F4FCE01CD960E948A27CE0101960E94A5
:1010F000BC25115001F76AEA71E0CE01CD960E943D
:10110000912768E570E087E496E00E94AD0C68E006
:1011100070E087E496E00E943D0170E060E087E4C3
:1011200096E00E943D0187E496E00E942B0D40E18D
:1011300068E587E496E00E94250D10E187E496E0DB
:101140000E94200C082F803130F468EA71E0CE0153
:10115000CD960E94912740E1602FCE0101960E941A
:101160004D26BE016F5F7F4FCE01CD960E948A272C
:10117000CE0101960E94BC25115001F766EA71E08C
:10118000CE01CD960E94912760E570E087E496E05D
:101190000E94AD0C70E060E087E496E00E943D01A3
:1011A00070E060E087E496E00E943D0187E496E00D
:1011B0000E942B0D42E060E587E496E00E94250D39
:1011C00087E496E00E94200C80932E0287E496E04C
:1011D0000E94200C80932D0240E160912E02CE01EE
:1011E00001960E944D26BE016F5F7F4FCE01CD96C6
:1011F0000E948A27CE0101960E94BC2540E16091A1
:101200002D02CE0101960E944D26BE016F5F7F4FD9
:10121000CE01CD960E948A27CE0101960E94BC2560
:1012200060EC71E0CE01CD960E9491276BE570E0F5
:1012300087E496E00E94AD0C68E070E087E496E0F9
:101240000E943D0170E060E087E496E00E943D016D
:1012500087E496E00E942B0D40E16BE587E496E081
:101260000E94250D10E187E496E00E94200C082FD3
:10127000803130F468EA71E0CE01CD960E9491276A
:1012800040E1602FCE0101960E944D26BE016F5FA6
:101290007F4FCE01CD960E948A27CE0101960E94F3
:1012A000BC25115001F766EA71E0CE01CD960E948F
:1012B000912763E570E087E496E00E94AD0C70E052
:1012C00060E087E496E00E943D0170E060E087E422
:1012D00096E00E943D0187E496E00E942B0D42E0DB
:1012E00063E587E496E00E94250D87E496E00E947E
:1012F000200C8093300287E496E00E94200C8093BB
:101300002F0240E160913002CE0101960E944D26ED
:10131000BE016F5F7F4FCE01CD960E948A27CE011E
:1013200001960E94BC2540E160912F02CE010196FA
:101330000E944D26BE016F5F7F4FCE01CD960E9469
:101340008A27CE0101960E94BC2560E082E10E94BE
:10135000542964E089EE96E00E947C11811108C056
:1013600062E571E08FED99E00E943A251092060146
:1013700081E090E0909334068093330660913306C9
:1013800070913406683C710578F54AE0CE014C96C0
:101390000E94A626BE01645E7F4FCE0101960E9488
:1013A00016276BE671E0CE0101960E94B327BC01BF
:1013B00085E396E00E94FF26CE0101960E94BC259F
:1013C000CE014C960E94BC25609135067091360680
:1013D00089EE96E00E942713882331F0809133062E
:1013E000909134060196C6CF609133067091340611
:1013F0006150710970933406609333064AE0CE0160
:101400004C960E94A626BE01645E7F4FCE010196D7
:101410000E9416276BE671E0CE0101960E94B32769
:10142000BC0185E396E00E94FF26CE0101960E9452
:10143000BC25CE014C960E94BC2515E060E570E00D
:1014400080E090E00E946A2861E08DE00E94182907
:1014500061E08DE00E94542960E570E080E090E05A
:101460000E946A2860E08DE00E945429115031F7F3
:1014700061E08DE00E945429409135065091360676
:1014800023E169EE76E0CE014C960E949C12CE01DB
:101490004C960E9420106B017C0164ED71E08FED91
:1014A00099E00E9415252AE030E0B701A6018FEDF2
:1014B00099E00E94AA2589E6C81680E2D80689E547
:1014C000E806F10408F45BC0CE014C960E945E1061
:1014D00060913306709134066F5F7F4F70933406CE
:1014E000609333064AE0CE01C7960E94A626BE014D
:1014F000695C7F4FCE0101960E9416276BE671E072
:10150000CE0101960E94B327BC0185E396E00E94BC
:10151000FF26CE0101960E94BC25CE01C7960E94EF
:10152000BC25409135065091360623E169EE76E000
:10153000CE0101960E949C128B819C819F8F8E8F81
:101540008D819E81AF81B88588A399A3AAA3BBA3EF
:1015500089859A85AB85BC858CA39DA3AEA3BFA3CB
:10156000DE011D96FE01B896CE01C5962D91219300
:10157000E817F907D9F78A8D9B8D9EAB8DAB60E795
:1015800071E08FED99E00E94152565E376E08FED1F
:1015900099E00E942825CE014C960E947010882365
:1015A00009F471C0BE01635C7F4FCE014C960E946E
:1015B0002825CE014C960E945E10BE01635C7F4FD1
:1015C0008FED99E00E94282561E082E10E94542974
:1015D00061E084E10E94182960E084E10E945429BE
:1015E00015E060E570E080E090E00E946A2861E02C
:1015F0008EE00E94182961E08EE00E94542960E587
:1016000070E080E090E00E946A2860E08EE00E9436
:101610005429115031F760E08CE00E94542960E0B9
:101620008DE00E94542961E082E00E94182960E068
:1016300082E00E945429F894109280008DE08093FB
:10164000810087E998E9909389008093880010923F
:1016500085001092840082E080936F007894CE0120
:10166000CD960E94BC25CE5BDF4F0FB6F894DEBF4F
:101670000FBECDBFDF91CF911F910F91FF90EF90E3
:10168000DF90CF90089561E671E08FED99E00E94C0
:101690003A251092060191CFC1E3D2E0199286E07B
:1016A000C133D807D9F761E087E10E94542960E08F
:1016B00086E10E94542990E080E00E94440161E0AC
:1016C00086E10E945429109227021092260218994E
:1016D00093C0809127028230D0F3109227028BE1D1
:1016E0000E948229682F8DE00E9454298BE10E947C
:1016F0008229892B09F453C061E570E087E496E004
:101700000E94AD0C68E270E087E496E00E943D0123
:1017100065E070E087E496E00E943D0187E496E092
:101720000E942B0D68EB7BE080E090E00E946A282D
:1017300008EC10E08AEF90E00E94A32861E08FE0BF
:101740000E94182961E08FE00E9454298AEF90E0FE
:101750000E94A32861E08FE00E94182960E08FE0DA
:101760000E9454290150110929F76AE670E087E4C4
:1017700096E00E94AD0C68E187E496E00E94430C7D
:101780006AE087E496E00E94430C87E496E00E94BA
:101790002B0D60E177E280E090E00E946A2861E032
:1017A00086E10E94542960E087E10E9454290E944A
:1017B0004502E1E3F2E01192CE17DF07E1F78091F5
:1017C00026028C3020F0109226020E942F0461E045
:1017D00087E10E94542960E086E10E94542990E04C
:1017E00080E00E94440161E086E10E945429109249
:1017F0008500109284006BCF60E086E10E9454293E
:1018000090E080E00E94440126E0969587952A9515
:10181000E1F7FC01EF5CFD4F80818F3F11F08F5F9E
:10182000808361E086E10E94542951CF90E080E0FE
:1018300008958091770690917806891B990B0895F9
:1018400090917806809177062FEF3FEF981748F434
:10185000E92FF0E0E758F94F208130E09F5F909347
:101860007806C9010895E091780680917706E81717
:1018700030F4F0E0E758F94F808190E008958FEF61
:101880009FEF08950895CF93DF931F92CDB7DEB7F2
:101890006983209153062223F9F0209154062032C7
:1018A00058F021E030E0FC013383228390E080E0B7
:1018B0000F90DF91CF91089580915506E82FF0E0C9
:1018C000EA5AF94F998190838F5F809355068093F0
:1018D000540681E090E0ECCF61E0CE0101960E94D9
:1018E000E20DF7CFCF92DF92EF92FF920F931F930B
:1018F000CF93DF937C01CB018A01209153062223F1
:1019000089F0EB016B01C40ED51ECC15DD0569F025
:101910006991D701ED91FC910190F081E02DC70113
:101920000995F3CF642F0E94E20DC801DF91CF919A
:101930001F910F91FF90EF90DF90CF900895CB0112
:10194000BA010C943F0D81E08093530660937606B4
:10195000109255061092540608950C94A30C0F9300
:10196000062F21E04091540666E576E080917606E8
:101970000E94920D10925506109254061092530632
:101980000F9108954F925F926F927F92AF92BF92A4
:10199000CF92EF92FF920F931F93CF93DF935C014F
:1019A000F62ED42F28013901EE2019F10E94A30C44
:1019B000CE2DC43008F0C3E0C150B8F028E0C29F7B
:1019C000C0011124A301920104C056954795379593
:1019D00027958A95D2F7B901D501ED91FC91019037
:1019E000F081E02DC5010995E7CF60E0C5010E94B7
:1019F000AF0C4D2FD13208F040E22C2D69E776E094
:101A00008F2D0E94520D1092780680937706DF91F9
:101A1000CF911F910F91FF90EF90CF90BF90AF901B
:101A20007F906F905F904F900895CF92EF920F93B9
:101A30001F93C22EE12C00E010E098010E94C20C1E
:101A40001F910F91EF90CF90089521E00C94150D08
:101A500021E00C94150D61E00C94AF0CE7E4F6E086
:101A60001382128288EE93E0A0E0B0E08483958335
:101A7000A683B78383EE91E09183808308959B01D1
:101A8000AC0160E072E18AE790E00E94142B2051E3
:101A90003109410951095695479537952795209366
:101AA000B80008954132E0F59091E8069111FCCF1D
:101AB00091E09093E8062093E6062FEF2093990695
:101AC0007093E0066093DF061092DE06240F2093E9
:101AD000DD069093E7069091E706880F892B8093A7
:101AE000E7068091E5068130C9F41092E506809101
:101AF000E7068093BB008091BC0083FDF8CF85ECA6
:101B00008093BC008091E8068130E1F38091DE068D
:101B1000841710F44091DE06842F089585EEF0CFEF
:101B200040E0FACF0F93413208F044C09091E806AC
:101B30009111FCCF92E09093E8060093E6069FEFA8
:101B4000909399067093E0066093DF061092DE068C
:101B50004093DD061092E7069091E706880F892BE7
:101B60008093E7068091E506813011F51092E50635
:101B70008091E7068093BB008091BC0083FDF8CF85
:101B800085EC8093BC00222321F08091E80682300E
:101B9000D1F3809199068F3F79F080919906803238
:101BA00069F080919906803359F084E00F9108958F
:101BB00085EEE7CF81E0FACF80E0F8CF82E0F6CF84
:101BC00083E0F4CF2091BB06260F3327331F213249
:101BD0003105ECF42091E806FC0190E080E024302F
:101BE00069F082E00895A091BB062191AC014354B5
:101BF000594FA40FB52FB11D2C930196861798F35A
:101C00008091BB06680F6093BB0680E0089581E079
:101C1000089585ED8093BC008091BC0084FDFCCFCD
:101C20001092E806089585EC8093BC001092E806B7
:101C300008951F920F920FB60F9211240BB60F92B8
:101C40002F933F934F935F936F937F938F939F93C4
:101C5000AF93BF93EF93FF938091B900887F803655
:101C600009F44EC008F041C0883209F4AAC028F532
:101C7000803109F49EC0C8F4882309F407C1883074
:101C800009F497C0FF91EF91BF91AF919F918F9110
:101C90007F916F915F914F913F912F910F900BBE6C
:101CA0000F900FBE0F901F901895883109F489C0CE
:101CB000803241F78093990615C0803409F4A6C09C
:101CC00048F48033B9F38833E9F6809399060E948B
:101CD000130ED8CF803509F489C0883509F49EC029
:101CE000883481F60E94090ECDCF883909F494C05A
:101CF00038F5883729F050F4883611F0803711F61E
:101D000083E08093E80610929A0657C0883809F459
:101D100083C0803919F0803809F0B4CF80919A06D9
:101D2000803208F079C0E0919A0681E08E0F8093AE
:101D30009A068091BB00F0E0E556F94F80833DC0E4
:101D4000803B39F0E0F4803A09F485C0883A09F024
:101D500099CF84E08093E8061092BC061092BB06EF
:101D6000E091E306F091E40609958091BB068111AC
:101D70000FC081E08093BB061092BD0609C0803C75
:101D800009F482C0883C09F47FC0883B09F07ACF0F
:101D9000E091BC0681E08E0F8093BC06F0E0E35436
:101DA000F94F80818093BB009091BC068091BB0667
:101DB00031C08091E7068093BB0085EC8093BC0026
:101DC00061CF9091DE068091DD069817B8F580917D
:101DD000DF069091E006E091DE0621E02E0F2093D1
:101DE000DE06E80FF92FF11D8081E5CF2091DF0697
:101DF0003091E006E091DE0681E08E0F8093DE06F2
:101E00008091BB00E20FF32FF11D80839091DE06DD
:101E10008091DD06981788F285E8D0CF2091DF0603
:101E20003091E006E091DE0681E08E0F8093DE06C1
:101E30008091BB00E20FF32FF11D80838091E606B5
:101E4000811150CF81E08093E50684EA8093BC0045
:101E50001092E80617CF0E94130E80919A068032E6
:101E600030F4E0919A06F0E0E556F94F1082609167
:101E70009A0670E0E091E106F091E2068BE996E0C7
:101E8000099510929A06FECE85ECE0CF1092990645
:101E900029CFCF93DF931F92CDB7DEB76983DC01E3
:101EA000ED91FC910280F381E02D41E050E0BE0114
:101EB0006F5F7F4F09950F90DF91CF910895CF937A
:101EC000DF93EC01E98DFA8D309749F481E090E0E1
:101ED0009B838A8390E080E0DF91CF910895138205
:101EE0001282898D9A8D0E94D41BE98DFA8D2281F0
:101EF0003381232B59F7F0CFFC01818D928D009710
:101F000011F00C9463190895CF93DF931F92CDB70E
:101F1000DEB741E050E0BE016F5F7F4F0E94871740
:101F2000019731F4898190E00F90DF91CF9108956E
:101F30008FEF9FEFF9CFFC01818D928D009711F00B
:101F40000C94840F8FEF9FEF08950F931F93CF93FF
:101F5000DF93EC01898D9A8D10E000E0009799F0F5
:101F60000E94840F8C010F3F100769F0898D9A8DB4
:101F7000FC0142855385648575854150510961098D
:101F800071090E94CF18C801DF91CF911F910F9165
:101F90000895EF92FF920F931F93CF93DF93EC017D
:101FA0007B018A011B821A8288EE93E0A0E0B0E0F8
:101FB0008C839D83AE83BF8385EF91E09983888373
:101FC0008DE190E00E94772B9A8F898F009779F0AE
:101FD0002DE1F701DC0101900D922A95E1F74CE02B
:101FE00050E0B801CE010C960E94A52D188EDF910D
:101FF000CF911F910F91FF90EF900895FC011382F4
:10200000128288EE93E0A0E0B0E084839583A683FB
:10201000B78385EF91E091838083128E118E1486B1
:102020000895DC015996ED91FC91309729F0628575
:1020300073858485958508956FEF7FEFCB010895B3
:10204000DC015996ED91FC91309729F063897489F0
:1020500085899689089560E070E0CB010895CF925C
:10206000DF92EF92FF92CF93DF93FC01218D328DAF
:10207000232B09F1EC010E9420106B017C01CE01A1
:102080000E941110A7019601261B370B480B590B14
:10209000DA01C901811530E89307A105B10520F0E7
:1020A0008FEF9FE7A0E0B0E0DF91CF91FF90EF903E
:1020B000DF90CF90089590E080E0F6CFCF93DF934C
:1020C000EC01898D9A8D009741F00E94AC19898DA1
:1020D0009A8D0E94132C1A8E198EDF91CF9108953C
:1020E000DC015996ED91FC91309721F081E09581CA
:1020F000911101C080E008951F93CF93DF93CDB776
:10210000DEB76D970FB6F894DEBF0FBECDBFAB0143
:102110001C821B8229E032E03A8329831E8221E05F
:10212000BC01CE0101960E94E71A11E081110CC09A
:1021300010E0812F6D960FB6F894DEBF0FBECDBFB5
:10214000DF91CF911F910895CE0101960E94AC19A5
:10215000F0CFEF92FF920F931F93CF93DF937B010A
:10216000DB012D913C91FC01E20FF31F60816F3286
:1021700011F42F5F3F4F8C01020F131FEA01F0E0B3
:10218000E0E0D8017D918D017F3249F0772339F06D
:102190002F5F3F4F31967993EC30F10591F7E40FC3
:1021A000F51F1082FC01E20FF31F40814F3211F442
:1021B0002F5F3F4FF70131832083280F391F81E0C4
:1021C000D9019C91911101C080E0DF91CF911F91C5
:1021D0000F91FF90EF9008954F925F926F927F92D0
:1021E0008F929F92AF92BF92CF92DF92EF92FF9227
:1021F0000F931F93CF93DF93CDB7DEB7C954D109A7
:102200000FB6F894DEBF0FBECDBF5C016B013A0183
:10221000490119A218A289E092E09F8F8E8F1BA21C
:102220001C821B829A8389831E822A961FAE1EAE51
:102230002A978B017E018EE1E80EF11C4424439421
:10224000AE01455C5F4FBE01685B7F4FC5010E94D8
:10225000A910582E482F44259401BE01655C7F4F7C
:10226000C801F3010995811120C00C151D05C9F4A1
:1022700080E0C75BDF4F0FB6F894DEBF0FBECDBF67
:10228000DF91CF911F910F91FF90EF90DF90CF9052
:10229000BF90AF909F908F907F906F905F904F9086
:1022A0000895C8010E94AC19E3CF552091F021E0B8
:1022B000AE01455C5F4FB801C7010E94E71A582E76
:1022C0000C151D0571F0C8010E94AC1951100EC00B
:1022D000CFCF0C151D0519F0C8010E94AC1981E083
:1022E000C8CF882329F28E010F5F1F4F902F812FB7
:1022F0008701E92EF82EA4CF0F931F93CF93DF937E
:10230000EC01162F8FA5882321F0CE018A960E941A
:10231000AC19412F61E0CE010E944914811102C025
:1023200090E012C08E01045F1F4F41E0BE01C80162
:102330000E940E21882371F0B801CE018A960E9476
:10234000371791E0882361F3892FDF91CF911F9197
:102350000F91089540E0BE01C8010E940E2188231C
:10236000F9F2EACFFC01DB0112968D919C91139753
:102370009383828389E092E09183808314968C9189
:102380001497848315968C911597858316964D9195
:102390005D916D917C911997468357836087718712
:1023A0001A964D915D916D917C911D97428753874F
:1023B000648775871E964D915D916D917C915197C3
:1023C00046875787608B718B52968C915297828B80
:1023D00053964D915D916D917C915697438B548BA3
:1023E000658B768B57964D915D916D917C915A9747
:1023F000478B508F618F728F5B968D919C91948FDC
:10240000838F08954F925F926F927F928F929F92E7
:10241000AF92BF92CF92DF92EF92FF920F931F93F2
:10242000CF93DF93CDB7DEB7C754D1090FB6F89479
:10243000DEBF0FBECDBF5C014A013901665D7F4F33
:102440007E018EE1E80EF11CC7010E94B2111C82D0
:102450001B8289E092E09A8389831E828401FE01B7
:1024600031966F015E2C4F2C6FE270E0C8010E9424
:10247000932D009709F455C0F80120812F3219F4EB
:102480000F5F1F4FF1CF801B8D3008F08CE0E82EDE
:10249000F12CA701B801CE01CB960E94A52DEBE34C
:1024A000F0E0EC0FFD1FEE0DFF1D1082C6010E9433
:1024B000AC1921E0AE01455C5F4F652D742DC6015E
:1024C0000E94E71A811121C0F5011382128289E06E
:1024D00092E0918380831582C501C95BDF4F0FB6FF
:1024E000F894DEBF0FBECDBFDF91CF911F910F914A
:1024F000FF90EF90DF90CF90BF90AF909F908F9024
:102500007F906F905F904F9008950E0D1F1D852D49
:10251000942D0E94AC19C2015C2C4D2CC92ED82ED2
:10252000A3CF08191909F30111830083652D742DB8
:10253000C5010E94B211D0CFAF92BF92CF92DF926D
:10254000FF920F931F93CF93DF93CDB7DEB7C9559B
:10255000D1090FB6F894DEBF0FBECDBF6C015B0191
:102560008A01F22E9E01285A3F4FCE01CB960E943F
:1025700002126A968EAD9FAD6A97080F191FF80177
:102580008081811110C0BE01655C7F4FCE01019634
:102590000E94B21143E052E0BE016F5F7F4FC6015F
:1025A0000E94C90F0FC019A218A289E092E09F8F64
:1025B0008E8F1BA221968FAD2197811115C0C60168
:1025C0000E94FE0FC601C75ADF4F0FB6F894DEBF58
:1025D0000FBECDBFDF91CF911F910F91FF90DF9084
:1025E000CF90BF90AF90089582508230F8F4B5013B
:1025F000665D7F4F2F2DA801CE014E960E94E71AEF
:102600008823E9F28F2D867041F049A95AA96BA958
:102610007CA9CE014E960E94CF18BE01625E7F4F0C
:10262000CE0101960E94B211A801B6CF2F2DA801AC
:10263000BE01655C7F4FCE014E960E94E71A88234B
:1026400009F4BDCFCE01CB960E94AC19DBCFFB01C4
:10265000BC01665D7F4F30E020E04CE750E1CF01E8
:102660000C94EC10E9EEF6E01582168211861386C2
:1026700082E090E0A0E0B0E084879587A687B787E6
:1026800013A215A614A689E092E093A782A717A625
:1026900008959FB7F8942091400980913E09213018
:1026A00019F48DBB9FBF08958FBF089520914009F5
:1026B000222381F03FB7F89420914009213069F43A
:1026C0002DB320933E094DB320913F09209524233B
:1026D0002DBB3FBF8CBD9DBD089530933E09FACF01
:1026E0008EBD00000DB407FEFDCF8EB508958FEFAF
:1026F0000C94701361E0FC0184810E945429809144
:102700003207882339F010923207809140098111F5
:102710000C9449130895CF93DF93EC018091320715
:10272000811109C081E08093320780913307909135
:1027300034070E94561360E08C81DF91CF910C9496
:102740005429CF93DF93EC018E81882389F08F8108
:1027500098859C012F5F3F4F38872F8382309240AE
:1027600018F40E947713F3CFCE010E947A131E82D1
:10277000DF91CF910895673028F026E1FC01258391
:1027800080E00895623079F038F06430A9F090F07C
:102790006530A1F082E508C080E58093330781E0D1
:1027A00080933407089580E58093330710923407AF
:1027B00081E0089581E5F1CF81E5F6CF82E5EDCFA7
:1027C0000F931F93CF93DF93EB010E9439288B0166
:1027D0000E9477138F3F69F00E943928601B710BAC
:1027E0006C177D07A8F380E0DF91CF911F910F91C7
:1027F000089581E0F9CF8F929F92AF92BF92FF929E
:102800000F931F93CF93DF93EC01F62E49015A01EA
:102810000E94A113CE010E948B136CE271E0CE01E5
:102820000E94E0138F2D80640E94701308E110E075
:10283000D501C401002E04C0B695A795979587953C
:102840000A94D2F70E94701308501109083F8FEFC5
:10285000180771F785E9FF2021F088E0F8120DC014
:1028600087E80E94701310E00E9477138A8787FF21
:1028700006C01F3F21F01F5FF7CF8FEFF2CFDF9130
:10288000CF911F910F91FF90BF90AF909F908F902D
:1028900008958F929F92AF92BF92EF92FF920F9303
:1028A0001F93CF93DF93EC01E62E1B8619861E82C1
:1028B0001D824C830E9439288B0161E08C810E942B
:1028C000182961E08C810E9454290E942E2282E501
:1028D0008093330781E08093340780913307909190
:1028E00034070E9456132AE0F22E8FEF0E947013D5
:1028F000FA94F110FACF8091400981110E94491396
:10290000CE010E948B1320E030E0A90160E0CE01EF
:102910000E94FB13F82E8A8781E0F816C1F00E940E
:102920003928601B710B613D774068F381E08D832E
:10293000CE010E947A1380E0DF91CF911F910F9119
:10294000FF90EF90BF90AF909F908F9008952AEAEC
:1029500031E040E050E068E0CE010E94FB1382FFCE
:1029600025C0FB868B85812C912C5401823029F463
:10297000812C912CA12C80E4B82E20E030E0A9011C
:1029800067E3CE010E94FB13A501940169E2CE0129
:102990000E94FB138A878823C1F00E943928601B9C
:1029A000710B613D774048F388E0C1CF94E0F92E88
:1029B0000E9477138A87FA94F110FACF8A3A11F0BD
:1029C00082E0B5CF82E08B87CDCF8B858230C1F49A
:1029D00020E030E0A9016AE3CE010E94FB138823C6
:1029E00011F086E0A4CF0E947713807C803C11F424
:1029F00083E08B870E9477130E9477130E947713DE
:102A0000CE010E947A136E2DCE01DF91CF911F91DE
:102A10000F91FF90EF90BF90AF909F908F900C948C
:102A2000BB130F931F93CF93DF93EC010E943928C0
:102A30008B010E9477138A878F3F91F40E94392877
:102A4000601B710B6D327140A0F38FE08D83CE015E
:102A50000E947A1380E0DF91CF911F910F9108952A
:102A60008E3F11F08DE0F2CF81E0F5CFCF92DF9273
:102A7000EF92FF920F931F93CF93DF93EC016901C5
:102A8000C801820F931F8130924048F58E818823C0
:102A900071F088819981AA81BB8184179507A60767
:102AA000B70729F48F819885C816D90670F5488331
:102AB00059836A837B838B85833039F089E0440FA7
:102AC000551F661F771F8A95D1F79A01AB0161E107
:102AD000CE010E94FB13882379F083E08D83CE0121
:102AE0000E947A1380E0DF91CF911F910F91FF90A8
:102AF000EF90DF90CF900895CE010E9411158823AA
:102B000071F318861F8281E08E838F8198858C15E2
:102B10009D0560F06701E00EF11EEC14FD0471F0FC
:102B20000E947713F60181936F01F7CF0E9477130C
:102B30008F819885019698878F83E7CF8F819885BD
:102B4000080F191F18870F838985882319F001152D
:102B5000124018F0CE010E94A11381E0C4CFEF9281
:102B6000FF920F931F930115110539F00E9436153E
:102B70001F910F91FF90EF90089581E0F9CFEF92B0
:102B8000FF920F931F93790100E012E030E020E004
:102B90000E9436151F910F91FF90EF900895EF92CC
:102BA000FF920F931F93CF93DF938C01862F7A01AF
:102BB0000E947013E7018EEFF81A89910E9470133A
:102BC000CE15DF05D1F78FEF0E9470138FEF0E94B3
:102BD00070130E947713F80182878F71853069F036
:102BE00081E18583C8010E947A1380E0DF91CF9153
:102BF0001F910F91FF90EF90089581E0F7CF0F9311
:102C00001F93CF93DF93EC01890182E141155105B8
:102C10006105710599F08B85833039F089E0440FA7
:102C2000551F661F771F8A95D1F79A01AB0168E19E
:102C3000CE010E94FB13882339F084E08D83CE01FE
:102C40000E947A1380E023C0A8016EEFCE010E949B
:102C5000CF158823A1F368E572E0CE010E94E0134E
:102C6000811102C085E1EACF20E030E0A9016DE0EA
:102C7000CE010E94FB13882311F084E1DFCF0E9474
:102C800077138111FACFCE010E947A1381E0DF9190
:102C9000CF911F910F910895E3E3F7E080E58083E2
:102CA00081E0818308950895CF93DF93EC019C0127
:102CB0002A5F3F4F41E050E060E070E08B8D9C8DDB
:102CC0000E94AD1F8823A1F08F89988DA98DBA8DA0
:102CD000892B8A2B8B2B59F48E819F81A885B985EE
:102CE0008F8B988FA98FBA8F8C8180688C8381E0BD
:102CF000DF91CF9108958F929F92AF92BF92CF9222
:102D0000DF92EF92FF92CF93DF93EC010E94541673
:102D100081110CC080E0DF91CF91FF90EF90DF90A8
:102D2000CF90BF90AF909F908F900895EB8DFC8DCA
:102D3000CE80DF80E884F98482E0C81AD108E108F7
:102D4000F108858504C0CC0CDD1CEE1CFF1C8A95A7
:102D5000D2F786859785A089B189C80ED91EEA1E4B
:102D6000FB1E848146015701880E911CA11CB11CD9
:102D70008C149D04AE04BF0461F081E0881A9108B0
:102D8000A108B108C501B4010E94FB1D8111F0CF5B
:102D9000C1CFEB8DFC8D258580E092E0A0E0B0E016
:102DA00004C0880F991FAA1FBB1F2A95D2F74B8911
:102DB0005C896D897E89840F951FA61FB71F8B8B39
:102DC0009C8BAD8BBE8B81E0A6CFCF93DF93EC01C4
:102DD000462F6E857F85888999890E94C01D88232A
:102DE00051F08A8920E2829FC0011124825C984FB1
:102DF000DF91CF91089590E080E0FACFFB019B0135
:102E0000255F3F4F40E241932E173F07E1F7DC017A
:102E100020E037E09D91492F992319F19E3229F442
:102E20003A3059F028E03AE0F5CFE6E8F1E0849155
:102E3000882329F031969813FACF80E017C0321713
:102E4000A8F05FED590F5E3588F48FE9890F8A315C
:102E500010F440EE490FFB01E20FF11D40832F5F9C
:102E6000D9CF81E0FB019081903239F308950F931F
:102E70001F93CF93DF93FC012581222331F080E063
:102E8000DF91CF911F910F9108958B01EC01FB0110
:102E90008789803139F582E08D831F8A188E198EDB
:102EA0001A8E808D918DB0E0A0E025E0880F991FEB
:102EB000AA1FBB1F2A95D1F78B8B9C8BAD8BBE8B2A
:102EC0001C8F0B8F81E08C831E821F8218861986CF
:102ED0001A861B861C861D861E861F86188A198ADE
:102EE0001A8ACECF803259F683E08D83428D538D7E
:102EF000648D758D4F8B588F698F7A8F9E012D5EF3
:102F00003F4FC8010E94A01E8111DACFB8CF2F9287
:102F10003F924F925F926F927F928F929F92AF9269
:102F2000BF92CF92DF92EF92FF920F931F93CF93B6
:102F3000DF93EC015B012A018D81811115C08FEFB8
:102F40009FEFDF91CF911F910F91FF90EF90DF9056
:102F5000CF90BF90AF909F908F907F906F905F9039
:102F60004F903F902F9008958C8180FFE8CF0B8980
:102F70001C892D893E894A855B856C857D85C201CA
:102F8000B0E0A0E068017901C41AD50AE60AF70AA0
:102F9000C816D906EA06FB0618F42801441A550A91
:102FA00042011E0126E0220E311C8114910409F415
:102FB000B3C04A855B856C857D856A0181E0D82236
:102FC0008B8D9C8D8A019B01E9E03695279517959D
:102FD0000795EA95D1F7ED81E230E1F5FC01628DCC
:102FE000738D848D958D600F711F821F931F612CCF
:102FF00022E0722E6C187D088614970408F43401C0
:103000002C8126FD04C06114F2E07F0671F400916A
:103010000701109108012091090130910A0106175A
:1030200017072807390709F053C040E00E94C01D68
:10303000882309F484CFC601825C984FD5019C0196
:10304000260D371DFC012E173F0709F460C0419182
:103050004D93F9CFFC0174807A947022C114D1048D
:1030600071F471100CC0452B462B472B39F58F8915
:10307000988DA98DBA8D8E839F83A887B987EB8D94
:10308000FC8D6E817F8188859985625071098109E7
:103090009109258504C0660F771F881F991F2A95FF
:1030A000D2F70685178520893189600F711F821F2D
:1030B000931F670D711D811D911D99CF4E815F81F9
:1030C0006885798591010E941F1E8111D8CF37CF65
:1030D000750183019601AB01BC0180913C07909181
:1030E0003D070E94AF15882309F429CFA60CB71C11
:1030F0008A859B85AC85BD85860D971DA11DB11D5B
:103100008A879B87AC87BD87861897084ECF281B78
:10311000390BA20EB31EECCFC20113CFFF920F9357
:103120001F93CF93DF931F92CDB7DEB7FC012581AC
:103130002230C8F08C01428553856485758585E011
:1031400076956795579547958A95D1F7F42FFF7037
:10315000FF2E41E050E0BE016F5F7F4FC8010E942B
:103160008717019719F090E080E012C0F80182857E
:103170009385A485B5854F96A11DB11D8287938740
:10318000A487B587F0E2FF9EC0011124825C984FAE
:103190000F90DF91CF911F910F91FF9008958F9223
:1031A0009F92AF92BF92CF92DF92EF92FF920F93D6
:1031B0001F93CF93DF93EC018D8181110EC080E0CE
:1031C000DF91CF911F910F91FF90EF90DF90CF9003
:1031D000BF90AF909F908F9008950B891C892D8987
:1031E0003E89041715072607370748F34A015B0194
:1031F000823031F48A869B86AC86BD8681E0E0CF42
:1032000081149104A104B10449F41E821F8218861E
:1032100019861A861B861C861D86F0CF0A851B859B
:103220002C853D85EB8DFC8D858590E00996B90157
:10323000A8014150510961097109082E04C0769511
:103240006795579547950A94D2F775016401E1E0B7
:10325000CE1AD108E108F10804C0F694E794D79497
:10326000C7948A95D2F7C416D506E606F70620F06D
:10327000012B022B032B11F58F89988DA98DBA8D07
:103280008E839F83A887B9878E010A5F1F4FC11461
:10329000D104E104F10409F4ADCF4E815F8168856A
:1032A000798598018B8D9C8D0E941F1E91E0C91A13
:1032B000D108E108F1088111EACF81CFC41AD50AFB
:1032C000E60AF70AE1CF0F931F93CF93DF93EC0148
:1032D0008D818823D9F18C8187FF32C061E0CE01D6
:1032E0000E94E5168C01892B89F18D81823048F48A
:1032F0008B899C89AD89BE89F801848F958FA68FB3
:10330000B78F8F89988DF801938F828F8F89988DD1
:10331000A98DBA8DB58BA48BE0913507F091360756
:10332000309759F0B8016A5E7F4FC80148960995F9
:10333000F801808D918D938B828B8C818F778C831C
:10334000DF91CF911F910F910C94851D80E0DF914B
:10335000CF911F910F910895CF93DF93EC010E94BD
:103360006319882311F01D8281E0DF91CF910895C8
:103370004F925F926F927F928F929F92AF92BF9285
:10338000EF92FF920F931F93CF93DF9300D000D063
:10339000CDB7DEB7FC0185818130A1F080E00F90D0
:1033A0000F900F900F90DF91CF911F910F91FF9091
:1033B000EF90BF90AF909F908F907F906F905F90B5
:1033C0004F900895848181FFE9CF83899489A589ED
:1033D000B68984179507A607B70700F3892B8A2BB0
:1033E0008B2B09F477C04A015B017F01428453842F
:1033F00064847584CF010E94CF18882379F2F70185
:10340000838D948D81149104A104B10449F54789F9
:10341000508D618D728D0E94B820882309F4BECF33
:10342000F701178A108E118E128EF701838A948A03
:10343000A58AB68A848180688483C7010E94631943
:10344000882309F4ABCFB501A401441655066606DE
:10345000770610F4B301A201C7010E94CF189FCFD5
:1034600046815781608571859E012F5F3F4F0E9485
:103470001F1E882309F492CFF701838D948D498113
:103480005A816B817C81FC0127892031F1F408EF9E
:103490001FEF20E030E0401751076207730728F65E
:1034A0000E94B820882309F479CFF701468157811B
:1034B000608571850FEF1FEF2FEF3FE0838D948DB7
:1034C0000E940B1F8111B1CF69CF08EF1FEF2FEFC3
:1034D0003FE0E1CF81E063CFCF92DF92EF92FF92A6
:1034E0001F93CF93DF93EC0180E2689FF0011124DA
:1034F000E25CF84F9385917161F0842F827449F0FA
:1035000080E0DF91CF911F91FF90EF90DF90CF90FF
:103510000895142F6A8B8091070190910801A09162
:103520000901B0910A018E879F87A88BB98BC48847
:10353000D588F12CE12C7601DD24CC24CF8AD88EDD
:10354000E98EFA8E828D938DB0E0A0E0AC01BD01D2
:103550004C295D296E297F294F8B588F698F7A8F6F
:103560008385887129F5848D958DA68DB78D8B8B7C
:103570009C8BAD8BBE8B81E08D83812F8F708C8374
:103580001E821F82188619861A861B861C861D8637
:1035900081E016FFB6CF40E050E0BA01CE01DF91E6
:1035A000CF911F91FF90EF90DF90CF900C94B819BE
:1035B000803109F0A5CF9E012D5E3F4F8B8D9C8DF4
:1035C0000E94A01E882309F49BCF84E0D5CFBF9230
:1035D000CF92DF92EF92FF920F931F93CF93DF93DF
:1035E000CDB7DEB72B970FB6F894DEBF0FBECDBFB9
:1035F000FC01358131110BC0C22E8B017C01BE0153
:103600006F5F7F4FCA010E94FE16811102C080E0E9
:10361000A1C0F801838D948DF701948F838FF801F9
:1036200016821782108611861286138614861586D6
:10363000B12CF80182859385A485B5854389548989
:103640006589768984179507A607B70788F525E069
:10365000B695A795979587952A95D1F7F82FFF707E
:10366000DF2EC8010E948E18009789F2FC0120818C
:10367000222341F0253E09F059C0BB2029F0BB248C
:10368000B394D7CFB1100EC0F701D28A4091070191
:10369000509108016091090170910A01468757878E
:1036A000608B718BFC0180818111E9CFBB24B394C5
:1036B0008C2D8271823109F0AACFBB2009F45AC047
:1036C00061E0C7010E94E5168C01892B09F49FCFA8
:1036D00080E2F80111928A95E9F78BE0FE013196BC
:1036E000D80101900D928A95E1F7E0913507F091AC
:1036F0003607309709F44EC0B801625F7F4FC801AA
:1037000040960995F80180899189938B828B918FDE
:10371000808F86859785978B868B0E94851D882351
:1037200009F475CF4C2DF701628911C04BE050E0D0
:10373000BC01CE0101960E947D2D892B09F079CF25
:103740008C2D80734C2D6D2D803309F460CFC70113
:103750000E946C1A2B960FB6F894DEBF0FBECDBF39
:10376000DF91CF911F910F91FF90EF90DF90CF905D
:10377000BF900895F8018581823009F448CFC801CF
:103780000E947B16882309F442CFF701128A0EE3C8
:1037900017E09ECF81E298E2F801918B808B80E068
:1037A00098E097878687AECF2F923F924F925F9295
:1037B0006F927F928F929F92AF92BF92CF92DF9241
:1037C000EF92FF920F931F93CF93DF9300D000D01F
:1037D000CDB7DEB78C016B011A01DC0115968C9117
:1037E0001597813009F0C8C014968C9181FFC4C030
:1037F00082FDAEC04101D8011A964D915D916D9147
:103800007C911D978114910409F429C15B968D91D7
:103810009C915C97FC0174802FEF270D2A013B01DE
:1038200039E076946794579447943A95D1F7722E7D
:1038300074207A01F1E0FF22711020C0E114F1043C
:10384000E9F416964D915D916D917C911997411512
:1038500051056105710509F098C057968D919D91AC
:103860000D90BC91A02D0097A105B10509F0AFC046
:10387000C8010E945416882309F47EC080E092E0BB
:103880008E199F0954018815990508F45C01D80127
:103890005B964D915C915C9716968D919D910D90E4
:1038A000BC91A02D0297A109B109FA01258504C098
:1038B000880F991FAA1FBB1F2A95D2F746855785E7
:1038C00060897189840F951FA61FB71F9C01AD01E8
:1038D000270D311D411D511D29013A01A11432E06E
:1038E000B30609F07AC08091070190910801A09178
:1038F0000901B0910A0184159505A605B70559F48B
:103900008FEF9FEFDC018093070190930801A09354
:103910000901B0930A019601B301A20180913C070D
:1039200090913D070E94FF15882331F19EEFD91A2F
:103930008A189B08F80182859385A485B5858A0D30
:103940009B1DA11DB11D82879387A487B58753CF87
:10395000F801438954896589768982859385A48590
:10396000B585481759076A077B0709F443CFC80193
:103970000E94CF1881113ECF81E090E0D8011396CC
:103980009C938E93129780E007C09E012F5F3F4F5C
:103990000E941F1E811102C090E07BC089819A8124
:1039A000AB81BC81F801238D348DF901278948EF63
:1039B0005FEF60E070E0203121F048EF5FEF6FEFE4
:1039C0007FE084179507A607B70708F051CFF801E5
:1039D00086839783A087B18751CFE114F10491F5D5
:1039E000D8011A964D915D916D917C911D975396DA
:1039F0008D919D910D90BC91A02D481759076A0794
:103A00007B0700F10E94851D882309F4B5CF409201
:103A10000701509208016092090170920A01809199
:103A20003B07816080933B079701225C384FD601AA
:103A3000C9018A0D9B1DF9018E179F0759F04D9101
:103A40004193FACF41E0C301B2010E94C01D811130
:103A5000EBCF92CF821B930BC80ED91E69CF149661
:103A60008C9114975396CD90DD90ED90FC905697E5
:103A7000C416D506E606F70618F5F801438B548BF5
:103A8000658B768B80688483F801848183FD25C0F3
:103A9000C1010F900F900F900F90DF91CF911F9168
:103AA0000F91FF90EF90DF90CF90BF90AF909F90DD
:103AB0008F907F906F905F904F903F902F900895E0
:103AC0002091350730913607232BF1F22114310470
:103AD000D9F2806814968C93D7CFC8010E946319DD
:103AE000882309F449CFD4CFCF93DF931F92CDB76A
:103AF000DEB7698341E050E0BE016F5F7F4F0E94F7
:103B0000D41B0F90DF91CF91089580913B078823BC
:103B1000A9F140910701509108016091090170914C
:103B20000A012EE337E080913C0790913D070E9407
:103B3000FF15811102C080E0089540913707509130
:103B400038076091390770913A07411551056105B1
:103B5000710591F02EE337E080913C0790913D078D
:103B60000E94FF15882339F3109237071092380707
:103B70001092390710923A0710923B0781E008959E
:103B8000CF92DF92EF92FF92CF936B017C01C42F13
:103B90008091070190910801A0910901B0910A015B
:103BA0008C159D05AE05BF05F9F00E94851D81119C
:103BB00007C080E0CF91FF90EF90DF90CF90089505
:103BC0002EE337E0B701A60180913C0790913D07B5
:103BD0000E94BF15882369F3C0920701D0920801A3
:103BE000E0920901F0920A0140913B074C2B40936F
:103BF0003B0781E0DFCFCF92DF92EF92FF926B0124
:103C00007C010E94851D8823A9F0EEE3F7E0119264
:103C100089E0EE33F807D9F7C0920701D092080186
:103C2000E0920901F0920A0180913B078160809344
:103C30003B0781E0FF90EF90DF90CF9008958F9247
:103C40009F92AF92BF92CF92DF92EF92FF920F932B
:103C50001F93CF93DF93FC0181859285A385B48563
:103C60000196A11DB11D84179507A607B70770F42B
:103C700080E0DF91CF911F910F91FF90EF90DF9047
:103C8000CF90BF90AF909F908F9008958388948835
:103C9000A588B6888789803189F5BB27A72F962FFD
:103CA000852FE9016A017B018F01BC01CD01680DFF
:103CB000791D8A1D9B1D8090070190900801A0909E
:103CC0000901B0900A0186169706A806B90601F503
:103CD000F8018789803111F5DD24EE24FF24F601F7
:103CE000EE0FFF1FE25CF84F80819181B0E0A0E011
:103CF00088839983AA83BB8381E0BBCFDB01CA01A0
:103D0000C7E0B695A79597958795CA95D1F7C9CF7E
:103D100040E00E94C01D8111DBCFAACFE894C7F814
:103D2000DD24EE24FF24F601EE0FFF1FEE0FFF1F30
:103D3000E25CF84F80819181A281B381BF70D8CFBE
:103D40004F925F926F927F92AF92BF92CF92DF922B
:103D5000EF92FF920F931F93CF93DF9300D000D089
:103D6000CDB7DEB78C0149835A836B837C835901BD
:103D7000C12CD12C7601412C82E0582E612C712C63
:103D800049815A816B817C819E012F5F3F4FC80121
:103D90000E941F1E882339F1F8018585A301920135
:103DA00004C0220F331F441F551F8A95D2F7DA0132
:103DB000C901C80ED91EEA1EFB1E49815A816B81BA
:103DC0007C818789803111F188EF9FEFAFEFBFE0F1
:103DD000481759076A077B0798F2F501C082D1821C
:103DE000E282F38281E00F900F900F900F90DF91AD
:103DF000CF911F910F91FF90EF90DF90CF90BF90E8
:103E0000AF907F906F905F904F90089588EF9FEFF5
:103E1000A0E0B0E0DDCF4F925F926F927F928F92E1
:103E20009F92AF92BF92CF92DF92EF92FF920F9349
:103E30001F93CF93DF93EC0142305105610571056B
:103E400090F480E0DF91CF911F910F91FF90EF9060
:103E5000DF90CF90BF90AF909F908F907F906F90AA
:103E60005F904F90089589859A85AB85BC850196B2
:103E7000A11DB11D84179507A607B70710F3CB88BE
:103E8000DC88ED88FE888F89803109F042C0BB272D
:103E9000A72F962F852F480159012A013B01C80EF3
:103EA000D91EEA1EFB1E8091070190910801A09186
:103EB0000901B0910A01C816D906EA06FB0699F570
:103EC0008F898031C1F5B301A20155276627772775
:103ED000440F551F425C584FFA01918280828091B5
:103EE0003B07816080933B078A89823080F08D8117
:103EF0009E81AF81B8858C0D9D1DAE1DBF1D809329
:103F0000370790933807A0933907B0933A0781E0B9
:103F100099CFDB01CA01E7E0B695A79597958795FC
:103F2000EA95D1F7B8CF40E0C701B6010E94C01DA5
:103F30008111C6CF86CFB301A2014F7755276627DF
:103F40007727440F551F440F551F425C584FFA0105
:103F500080829182A282B382C2CF2F923F924F92EF
:103F60005F926F927F928F929F92AF92BF92CF9209
:103F7000DF92EF92FF920F931F93CF93DF93CDB712
:103F8000DEB72F970FB6F894DEBF0FBECDBF3C0152
:103F9000488759876A877B873F832E83D901CD90D5
:103FA000DD90ED90FC90C114D104E104F10439F0EE
:103FB000BFEFCB1ADB0AEB0AFB0A1D8210C0FC0123
:103FC000C080D180E280F380F1E0FD83088519850F
:103FD0002A853B85013011052105310571F7F30173
:103FE00081859285A385B4858C019D010F5F1F4F4C
:103FF0002F4F3F4F0C871D872E873F874601570164
:10400000212C312C2101F30181859285A385B48572
:10401000281639064A065B0608F044C00C851D8543
:104020002E853F85081519052A053B0550F482E0C9
:10403000882E912CA12CB12C92E0C92ED12CE12CF0
:10404000F12C9E012F5F3F4FB501A401C3010E94D7
:104050001F1E882339F1D501C4010196A11DB11D90
:1040600049815A816B817C81452B462B472BA9F5D1
:10407000AC01BD014C195D096E097F0908851985E0
:104080002A853B85401751076207730741F50FEFFB
:104090001FEF2FEF3FE0B501A401C3010E940B1FEA
:1040A000811125C01D828D812F960FB6F894DEBF39
:1040B0000FBECDBFDF91CF911F910F91FF90EF9079
:1040C000DF90CF90BF90AF909F908F907F906F9038
:1040D0005F904F903F902F9008956C017D011FEFEE
:1040E000211A310A410A510A4C015D018CCFC814D2
:1040F000D904EA04FB0488F41401250121E0221A02
:1041000031084108510895018401B201A101C301A0
:104110000E940B1F52014101C3CFAE81BF814D915F
:104120005D916D917C91411551056105710561F4B9
:10413000EE81FF81C082D182E282F382FD81F111A2
:104140000BC001E00D83AFCF97018601C3010E9430
:104150000B1F8111EDCFA6CF1FEFC11AD10AE10AC3
:10416000F10AD301CD92DD92ED92FC9213979BCF91
:10417000AF92BF92CF92DF92EF92FF920F931F9375
:10418000CF93DF9300D000D0CDB7DEB75C016A01DA
:104190007B0182E090E0A0E0B0E0F50180839183B4
:1041A000A283B3839E012F5F3F4FB701A601C501D4
:1041B0000E941F1E882381F100E010E09801B701E2
:1041C000A601C5010E940B1F882331F1C980DA8046
:1041D000EB80FC80F50187898031C9F088EF9FEF83
:1041E000AFEFBFE0C816D906EA06FB06D8F281E0B9
:1041F0000F900F900F900F90DF91CF911F910F9123
:10420000FF90EF90DF90CF90BF90AF90089588EF30
:104210009FEFA0E0B0E0E6CF80E0EACF8F929F92E0
:10422000AF92BF92CF92DF92EF92FF920F931F93C4
:10423000CF93DF93EC01142F70933D0760933C07FD
:10424000442309F478C0453070F080E0DF91CF91CD
:104250001F910F91FF90EF90DF90CF90BF90AF90A4
:104260009F908F90089540E060E070E0CB010E9445
:10427000C01D882351F3812F8150990BAC0164E05C
:10428000440F551F6A95E1F7425C584FFA01E2541A
:10429000FE4F80818F77C9F63C9680819181A28103
:1042A000B38184369105A105B10578F24A535E4F7A
:1042B000FA01C080D180E280F380C114D104E1040E
:1042C000F10419F240E0C701B6010E94C01D882325
:1042D00009F4BBCF8091490790914A07811592401C
:1042E00009F0B3CF90914E07992309F4AECF2091F6
:1042F0004C0730914D07232B09F4A7CF80914B0732
:10430000882309F4A2CF9A8B8C831D8690E041E02C
:1043100050E02D85E22FBA01022E02C0660F771FF2
:104320000A94E2F78617970751F031E0320F3D8784
:10433000283078F38ACFC12CD12C7601C3CF2091BD
:1043400054073091550750E040E02115310541F404
:10435000209162073091630740916407509165078F
:104360002D833E834F83588780914C0790914D0752
:1043700046015701880E991EA11CB11C8B8A9C8A8C
:10438000AD8ABE8A00914F0710915007198F088F90
:10439000A0914E07B0E00E943F2BDC01CB01880DBD
:1043A000991DAA1DBB1D8A8F9B8FAC8FBD8F25E0E9
:1043B000000F111F2A95E1F701501E4F012F112701
:1043C0000695800F911FA11DB11D8E879F87A88B19
:1043D000B98B009151071091520730E020E0011590
:1043E000110541F400915E0710915F07209160076D
:1043F00030916107C81AD90AEA0AFB0AC00ED11E19
:10440000E21EF31E04C0F694E794D794C794EA958D
:10441000D2F7C986DA86EB86FC868CE025EFC216D9
:104420002FE0D206E104F10440F085EFC8168FEFCB
:10443000D806E104F10420F480E18F8B81E006CFFF
:1044400080916A0790916B07A0916C07B0916D07FE
:104450008A8F9B8FAC8FBD8F80E2EFCFCF93CFB78A
:10446000F89480914109811127C0EAEDF1E084912F
:10447000EAEBF1E09491E82FF0E0EE0FFF1FE65F2A
:10448000FD4FA591B491EC91E92321F461E084E022
:104490000E94542961E084E00E9418298CB5806153
:1044A0008CBD8CB580648CBD61E087E00E941829CA
:1044B00061E085E00E941829809141098F5F809317
:1044C0004109CFBFCF910895FC01918D228D892F95
:1044D00090E0805C9F4F821B91098F73992708950C
:1044E000FC01918D828D981731F0828DE80FF11DBE
:1044F000858D90E008958FEF9FEF0895FC01918DD9
:10450000828D981761F0A28DAE0FBF2FB11D5D9601
:104510008C91928D9F5F9F73928F90E008958FEFA3
:104520009FEF0895FC01538D448D252F30E0842F9B
:1045300090E0821B930B541710F0CF9608950197CB
:1045400008958DEF93E2892B49F080E090E0892B6C
:1045500029F00E94FD2381110E94000084E994E269
:10456000892B49F080E090E0892B29F00E94942467
:1045700081110C9400000895FC01A48DA80FB92F9F
:10458000B11DA35ABF4F2C91848D90E001968F737B
:104590009927848FA689B7892C93A089B1898C919A
:1045A000837080648C93938D848D981306C00288E9
:1045B000F389E02D80818F7D80830895CF93DF93F1
:1045C000EC01888D8823B9F0AA89BB89E889F9892B
:1045D0008C9185FD03C0808186FD0DC00FB607FC60
:1045E000F7CF8C9185FFF2CF808185FFEDCFCE0193
:1045F0000E94BC22E9CFDF91CF910895EF92FF9204
:104600000F931F93CF93DF93EC0181E0888F9B8DF5
:104610008C8D98131AC0E889F989808185FF15C0AF
:104620009FB7F894EE89FF896083E889F9898081D2
:104630008370806480839FBF81E090E0DF91CF91A1
:104640001F910F91FF90EF900895F62E0B8D10E0C3
:104650000F5F1F4F0F731127E02E8C8D8E110CC032
:104660000FB607FCFACFE889F989808185FFF5CF7D
:10467000CE010E94BC22F1CFEB8DEC0FFD2FF11D7E
:10468000E35AFF4FF0829FB7F8940B8FEA89FB89BA
:1046900080818062CFCFCF92DF92EF92FF921F9303
:1046A000CF93DF93EC016A017B01122F60E874E87D
:1046B0008EE190E0A70196010E94142B2150310950
:1046C000410951095695479537952795E889F98904
:1046D00082E08083211580E1380798F0E889F98924
:1046E000108260E472E48FE090E0A70196010E94DE
:1046F000142B215031094109510956954795379599
:104700002795EC85FD853083EE85FF852083188E07
:10471000EC89FD891083EA89FB898081886980831F
:10472000EA89FB8980818F7D8083DF91CF911F9102
:10473000FF90EF90DF90CF9008951F920F920FB6E9
:104740000F9211240BB60F922F938F939F93EF9399
:10475000FF93E0915209F09153098081E09158094B
:10476000F091590982FD1DC0908180915B098F5F96
:104770008F7320915C09821741F0E0915B09F0E0B2
:10478000EE5BF64F958F80935B09FF91EF919F91C0
:104790008F912F910F900BBE0F900FBE0F901F9017
:1047A00018958081F2CF1F920F920FB60F921124AD
:1047B0000BB60F922F933F934F935F936F937F931B
:1047C0008F939F93AF93BF93EF93FF9382E499E00E
:1047D0000E94BC22FF91EF91BF91AF919F918F9169
:1047E0007F916F915F914F913F912F910F900BBEF1
:1047F0000F900FBE0F901F90189582E499E00E94D1
:10480000642221E0892B09F420E0822F0895E2E45C
:10481000F9E01382128288EE93E0A0E0B0E0848396
:104820009583A683B78385E192E09183808385ECAD
:1048300090E09587848784EC90E09787868780EC6A
:1048400090E0918B808B81EC90E0938B828B82EC5B
:1048500090E0958B848B86EC90E0978B868B118E05
:10486000128E138E148E08951F920F920FB60F9210
:1048700011240BB60F922F938F939F93EF93FF9377
:10488000E091EF09F091F0098081E091F509F09154
:10489000F60982FD1DC090818091F8098F5F8F73AA
:1048A0002091F909821741F0E091F809F0E0E15216
:1048B000F64F958F8093F809FF91EF919F918F911B
:1048C0002F910F900BBE0F900FBE0F901F90189559
:1048D0008081F2CF1F920F920FB60F9211240BB668
:1048E0000F922F933F934F935F936F937F938F9389
:1048F0009F93AF93BF93EF93FF938FED99E00E9447
:10490000BC22FF91EF91BF91AF919F918F917F91C9
:104910006F915F914F913F912F910F900BBE0F9030
:104920000FBE0F901F9018958FED99E00E946422A2
:1049300021E0892B09F420E0822F0895EFEDF9E0C2
:104940001382128288EE93E0A0E0B0E08483958326
:10495000A683B78385E192E0918380838DEC90E01C
:10496000958784878CEC90E09787868788EC90E029
:10497000918B808B89EC90E0938B828B8AEC90E01A
:10498000958B848B8EEC90E0978B868B118E128E9C
:10499000138E148E0895AF92BF92CF92DF92EF9252
:1049A000FF920F931F93CF93DF936C017B018B01D9
:1049B000040F151FEB015E01AE18BF08C017D10729
:1049C00059F06991D601ED91FC910190F081E02DB3
:1049D000C6010995892B79F7C501DF91CF911F9108
:1049E0000F91FF90EF90DF90CF90BF90AF90089520
:1049F000FB0101900020E9F73197AF01461B570BEF
:104A0000DC01ED91FC910280F381E02D0994DB0142
:104A100014964D915C9115976D917C91DC01ED910F
:104A2000FC910280F381E02D09946115710511F06C
:104A30000C94F82490E080E00895DC01ED91FC9165
:104A40000190F081E02D099463E272E00C94F82467
:104A50000F931F93CF93DF93EC010E9407258C01E6
:104A6000CE010E942425800F911FDF91CF911F91CD
:104A70000F9108950F931F93CF93DF938C01D0E094
:104A8000C0E06115710519F00E94F824EC01C8011D
:104A90000E9424258C0F9D1FDF91CF911F910F91B4
:104AA00008958F929F92AF92BF92EF92FF920F93D1
:104AB0001F93CF93DF93CDB7DEB7A1970FB6F894CE
:104AC000DEBF0FBECDBF7C01FA01CB0119A222309F
:104AD00008F42AE08E010F5D1F4F822E912CB12C1D
:104AE000A12CBF01A50194010E94142BF901CA0158
:104AF0006A300CF5605DD8016E938D01232B242B59
:104B0000252B79F790E080E0109721F0BD01C701D7
:104B10000E94F824A1960FB6F894DEBF0FBECDBF59
:104B2000DF91CF911F910F91FF90EF90BF90AF90C9
:104B30009F908F900895695CDECF2115310541F477
:104B4000DC01ED91FC910190F081E02D642F09943E
:104B50000C9451250F931F93CF93DF93EC010E9488
:104B60009D258C01CE010E942425800F911FDF918D
:104B7000CF911F910F910895FC0180819181009741
:104B800011F00C94132C0895CF93DF93EC018881DE
:104B90009981009711F00E94132C198218821D82AE
:104BA0001C821B821A82DF91CF9108950F931F936D
:104BB000CF93DF93EC018B016F5F7F4F88819981E9
:104BC0000E949C2C009751F0998388831B830A8351
:104BD00081E0DF91CF911F910F91089580E0F9CF8F
:104BE000CF93DF93EC0188819981892B49F08A81E9
:104BF0009B818617970720F081E0DF91CF91089580
:104C0000CE010E94D6258823C1F38C819D81892BFA
:104C100099F7E881F9811082EFCFEF92FF920F931D
:104C20001F93CF93DF93EC017B018A01BA010E94AD
:104C3000F02581110BC0CE010E94C425CE01DF9169
:104C4000CF911F910F91FF90EF9008951D830C83DA
:104C5000B701888199810E949E2DF0CFFC011182BD
:104C6000108213821282158214826115710551F02F
:104C7000FB0101900020E9F73197AF01461B570B6C
:104C80000C940D260895FB0101900020E9F731975F
:104C9000AF01461B570B0C940D260F931F93CF9318
:104CA000DF93CDB7DEB729970FB6F894DEBF0FBEFE
:104CB000CDBF8C01862FF8011182108213821282DF
:104CC0001582148250E0BE016F5F7F4F90E00E941A
:104CD000F72DBE016F5F7F4FC8010E9443262996C2
:104CE0000FB6F894DEBF0FBECDBFDF91CF911F91FD
:104CF0000F9108950F931F93CF93DF93CDB7DEB736
:104D000062970FB6F894DEBF0FBECDBF8C01CB010A
:104D1000F80111821082138212821582148250E0EF
:104D2000BE016F5F7F4F0E94B42DBE016F5F7F4F4A
:104D3000C8010E94432662960FB6F894DEBF0FBEEC
:104D4000CDBFDF91CF911F910F9108950F931F93C6
:104D5000CF93DF93CDB7DEB761970FB6F894DEBF80
:104D60000FBECDBF8C01CB01F801118210821382DE
:104D700012821582148250E0BE016F5F7F4F0E9445
:104D8000F72DBE016F5F7F4FC8010E9443266196D9
:104D90000FB6F894DEBF0FBECDBFDF91CF911F914C
:104DA0000F9108950F931F93CF93DF93CDB7DEB785
:104DB000A1970FB6F894DEBF0FBECDBF8C01CB011B
:104DC000BA01F801118210821382128215821482B4
:104DD00030E0AE014F5F5F4F0E94CA2DBE016F5F92
:104DE0007F4FC8010E944326A1960FB6F894DEBFFC
:104DF0000FBECDBFDF91CF911F910F910895CF933B
:104E0000DF93EC01FB018617970749F06081718100
:104E10006115710541F0448155810E940D26CE0136
:104E2000DF91CF9108950E94C425F9CFFC01118232
:104E3000108213821282158214820C94FF26CF9363
:104E4000DF93EC016115710531F00E944326CE011C
:104E5000DF91CF9108950E94C425F9CFEF92FF9280
:104E60000F931F93CF93DF93CDB7DEB7A1970FB604
:104E7000F894DEBF0FBECDBF7C01CB01BA01F701B4
:104E800011821082138212821582148242E0420F34
:104E90008E010F5F1F4F0E94592BBC01C7010E945A
:104EA0001F27A1960FB6F894DEBF0FBECDBFDF91CE
:104EB000CF911F910F91FF90EF900895EF92FF9285
:104EC0000F931F93CF93DF936115710541F480E039
:104ED000DF91CF911F910F91FF90EF9008954115B1
:104EE0005105B1F07B01EC010C811D81040F151FF0
:104EF000B8010E94F025882351F3288139818C81E3
:104F00009D81B701820F931F0E949E2D1D830C83EC
:104F100081E0DECFFB0144815581608171810C9479
:104F20005E276115710551F0FB0101900020E9F742
:104F30003197AF01461B570B0C945E2780E0089514
:104F4000CF93DF93EC01FB01448155816081718136
:104F50000E945E27811103C0CE010E94C425CE01AC
:104F6000DF91CF910895CF93DF93EC016115710527
:104F700039F4CE010E94C425CE01DF91CF9108956E
:104F8000FB0101900020E9F73197AF01461B570B59
:104F90000E945E27882369F3EFCFFC0124813581CD
:104FA0006217730720F480819181009729F4109291
:104FB0007C0A8CE79AE00895860F971F089508955C
:104FC0000E94AE280E94DF270E947F05C1EAD2E23C
:104FD0000E944C0B2097E1F30E94A122F9CF1F926F
:104FE0000F920FB60F9211242F933F938F939F939D
:104FF000AF93BF938091820A9091830AA091840A13
:10500000B091850A3091810A26E0230F2D3768F18F
:1050100029E8230F0396A11DB11D2093810A8093D7
:10502000820A9093830AA093840AB093850A8091A0
:105030007D0A90917E0AA0917F0AB091800A019624
:10504000A11DB11D80937D0A90937E0AA0937F0AD3
:10505000B093800ABF91AF919F918F913F912F9113
:105060000F900FBE0F901F9018950296A11DB11DB5
:10507000D4CF2FB7F8946091820A7091830A8091FF
:10508000840A9091850A2FBF08953FB7F8948091C4
:105090007D0A90917E0AA0917F0AB091800A26B580
:1050A000A89B05C02F3F19F00196A11DB11D3FBF60
:1050B000BA2FA92F982F8827BC01CD01620F711D2F
:1050C000811D911D43E0660F771F881F991F4A9528
:1050D000D1F708958F929F92AF92BF92CF92DF92B5
:1050E000EF92FF926B017C010E9445284B015C010D
:1050F000C114D104E104F104E9F00E94AB290E943B
:105100004528681979098A099B09683E7340810519
:10511000910570F321E0C21AD108E108F10888EE88
:10512000880E83E0981EA11CB11CC114D104E104B7
:10513000F10429F7FF90EF90DF90CF90BF90AF90F0
:105140009F908F900895000000008330910528F013
:10515000880F991F05970197F1F70895789484B502
:10516000836084BD85B5836085BDEEE6F0E0808117
:1051700081608083E1E8F0E082E08083808181606B
:105180008083E0E8F0E0808181608083E1EBF0E003
:10519000808184608083E0EBF0E0808181608083A7
:1051A000E1E9F0E0808183608083E0E9F0E08081E4
:1051B0008160808386E880937A001092C100089510
:1051C00082508A3088F5E82FF0E0E751F74D0C94D3
:1051D000362B11291529F328F92814291429FD281B
:1051E000032907290D29809180008F778093800003
:1051F0000895809180008F7DF9CF8091B0008F77E6
:105200008093B00008958091B0008F7DF9CF809198
:1052100090008F77809390000895809190008F7D0B
:10522000F9CF84B58F7784BD089584B58F7DFBCF8A
:10523000CF93DF9390E0FC01EA54FE4F24918A5211
:105240009E4FFC0184918823C9F090E0880F991F3C
:10525000FC01E65FFD4FA591B491FC01E050FE4FCB
:10526000C591D49161110DC09FB7F8948C91209590
:1052700082238C938881282328839FBFDF91CF913D
:105280000895623051F49FB7F8943C91822F809535
:1052900083238C93E8812E2BEFCF8FB7F894EC917A
:1052A0002E2B2C938FBFEACF1F93CF93DF93282F02
:1052B00030E0F901EA56FE4F8491F901EA54FE4FBD
:1052C000D491F901EA52FE4FC491CC23A9F0162FD4
:1052D00081110E94E028EC2FF0E0EE0FFF1FE0505C
:1052E000FE4FA591B4918FB7F894EC91111108C0BD
:1052F000D095DE23DC938FBFDF91CF911F9108956E
:10530000DE2BF8CFCF93DF93282F30E0F901EA5658
:10531000FE4F8491F901EA54FE4FD491F901EA520B
:10532000FE4FC491CC23A1F081110E94E028EC2F04
:10533000F0E0EE0FFF1FEA50FE4FA591B491EC9103
:10534000ED2381E090E009F480E0DF91CF910895B2
:1053500080E090E0FACF08955058BB27AA270E941A
:10536000C4290C946D2A0E945F2A38F00E94662A94
:1053700020F039F49F3F19F426F40C945C2A0EF4C3
:10538000E095E7FB0C94562AE92F0E947E2A58F3F9
:10539000BA17620773078407950720F079F4A6F51A
:1053A0000C94A02A0EF4E0950B2EBA2FA02D0B0121
:1053B000B90190010C01CA01A0011124FF27591B5A
:1053C00099F0593F50F4503E68F11A16F040A22F60
:1053D000232F342F4427585FF3CF469537952795D1
:1053E000A795F0405395C9F77EF41F16BA0B620BD0
:1053F000730B840BBAF09150A1F0FF0FBB1F661F17
:10540000771F881FC2F70EC0BA0F621F731F841F59
:1054100048F4879577956795B795F7959E3F08F07F
:10542000B0CF9395880F08F09927EE0F9795879541
:105430000895E89409C097FB3EF490958095709587
:1054400061957F4F8F4F9F4F9923A9F0F92F96E9D0
:10545000BB279395F695879577956795B795F11145
:10546000F8CFFAF4BB0F11F460FF1BC06F5F7F4FE2
:105470008F4F9F4F16C0882311F096E911C07723F4
:1054800021F09EE8872F762F05C0662371F096E8FD
:10549000862F70E060E02AF09A95660F771F881FCC
:1054A000DAF7880F9695879597F9089597F99F678A
:1054B00080E870E060E008959FEF80EC089500249C
:1054C0000A941616170618060906089500240A9469
:1054D00012161306140605060895092E0394000CEF
:1054E00011F4882352F0BB0F40F4BF2B11F460FF7E
:1054F00004C06F5F7F4F8F4F9F4F089557FD9058A7
:10550000440F551F59F05F3F71F04795880F97FB87
:10551000991F61F09F3F79F0879508951216130641
:105520001406551FF2CF4695F1DF08C01616170670
:105530001806991FF1CF86957105610508940895A5
:10554000E894BB2766277727CB0197F908950E9437
:10555000BA2A0C946D2A0E945F2A38F00E94662AAB
:1055600020F0952311F00C94562A0C945C2A1124F7
:105570000C94A12A0E947E2A70F3959FC1F3950F87
:1055800050E0551F629FF001729FBB27F00DB11DC7
:10559000639FAA27F00DB11DAA1F649F6627B00D57
:1055A000A11D661F829F2227B00DA11D621F739F40
:1055B000B00DA11D621F839FA00D611D221F749F4E
:1055C0003327A00D611D231F849F600D211D822F95
:1055D000762F6A2F11249F5750409AF0F1F08823BC
:1055E0004AF0EE0FFF1FBB1F661F771F881F9150E9
:1055F0005040A9F79E3F510580F00C94562A0C9418
:10560000A12A5F3FE4F3983ED4F38695779567959A
:10561000B795F795E7959F5FC1F7FE2B880F911D12
:105620009695879597F90895A1E21A2EAA1BBB1BA0
:10563000FD010DC0AA1FBB1FEE1FFF1FA217B3075E
:10564000E407F50720F0A21BB30BE40BF50B661F74
:10565000771F881F991F1A9469F760957095809538
:1056600090959B01AC01BD01CF010895EE0FFF1F86
:105670000024001C0BBE0790F691E02D09940E94B7
:105680004A2BA59F900DB49F900DA49F800D911D56
:1056900011240895A29FB001B39FC001A39F700D74
:1056A000811D1124911DB29F700D811D1124911D2A
:1056B0000895EF920F931F93CF93DF93E80134E0A7
:1056C00047FD34E1042E000C550B57FF03C05195E4
:1056D00041955109E32E022F242FAE010E941C2E6A
:1056E000CE01DF91CF911F910F91EF9008950F930D
:1056F0001F93CF93DF938230910510F482E090E006
:10570000E091880AF091890A30E020E0B0E0A0E062
:10571000309799F42115310509F44AC0281B390B3B
:1057200024303105D8F58A819B816115710589F195
:10573000FB0193838283FE0111C04081518102816C
:10574000138148175907E0F04817590799F4109743
:1057500061F012960C93129713961C933296CF0118
:10576000DF91CF911F910F9108950093880A1093B4
:10577000890AF4CF2115310551F04217530738F04B
:10578000A901DB019A01BD01DF01F801C1CFEF01E1
:10579000F9CF9093890A8093880ACDCFFE01E20F5A
:1057A000F31F819391932250310939832883D7CFF6
:1057B0002091860A3091870A232B41F4209102011F
:1057C000309103013093870A2093860A20910001CB
:1057D000309101012115310541F42DB73EB74091BB
:1057E000040150910501241B350BE091860AF091CC
:1057F000870AE217F307A0F42E1B3F0B281739077F
:1058000078F0AC014E5F5F4F2417350748F04E0F1C
:105810005F1F5093870A4093860A819391939FCF8D
:10582000F0E0E0E09CCFCF93DF930097E9F0FC013C
:10583000329713821282A091880AB091890AED01F1
:1058400030E020E01097A1F420813181820F931F76
:105850002091860A3091870A2817390709F061C01C
:10586000F093870AE093860ADF91CF910895EA01C9
:10587000CE17DF07E8F54A815B819E01411551058E
:10588000B1F7E901FB83EA8349915991C40FD51F10
:10589000EC17FD0761F4808191810296840F951FBA
:1058A000E90199838883828193819B838A83F0E0D5
:1058B000E0E012968D919C9113970097B9F52D9188
:1058C0003C911197CD010296820F931F2091860A79
:1058D0003091870A2817390739F6309751F5109219
:1058E000890A1092880AB093870AA093860ABCCFCF
:1058F000D383C28340815181840F951FC817D90774
:1059000061F44E5F5F4F88819981480F591F518321
:1059100040838A819B81938382832115310509F01D
:10592000B0CFF093890AE093880A9ECFFD01DC0195
:10593000C0CF13821282D7CF4F925F926F927F9225
:105940008F929F92AF92BF92CF92DF92EF92FF928F
:105950000F931F93CF93DF938C01009799F4CB01A2
:10596000DF91CF911F910F91FF90EF90DF90CF903B
:10597000BF90AF909F908F907F906F905F904F906F
:105980000C94772BFC01E60FF71F9C012250310984
:10599000E217F30708F4AEC0D901CD91DC9111975D
:1059A000C617D70720F1C530D10578F0CE0104978E
:1059B0008617970750F0C61BD70B2297C193D19338
:1059C0006D937C93CF010E94132CC801DF91CF917E
:1059D0001F910F91FF90EF90DF90CF90BF90AF900D
:1059E0009F908F907F906F905F904F9008955B0194
:1059F000AC1ABD0A4C018C0E9D1EA091880AB09174
:105A0000890A512C412CF12CE12C109731F5809111
:105A1000860A9091870A8815990509F05CC0461698
:105A2000570608F058C0809100019091010100973D
:105A300041F48DB79EB74091040150910501841B3C
:105A4000950BE817F90708F055C0F093870AE09323
:105A5000860AF90171836083B8CF8D919C9111976B
:105A600012966C90129713967C901397A815B9050F
:105A700059F56C0142E0C40ED11CCA14DB0420F1BC
:105A8000AC014A195B09DA011296159780F062821F
:105A9000738251834083D9016D937C93E114F104A7
:105AA00071F0D7011396FC93EE9312978ECF229646
:105AB0008C0F9D1FF90191838083F301EFCFF09349
:105AC000890AE093880A81CF4816590608F42C0108
:105AD0007D01D3019ACFCB010E94772B7C010097E7
