:100000000C9411010C943B010C943B010C943B01AA
:100010000C943B010C943B010C943B010C943B0170
:100020000C943B010C943B010C943B010C943B0160
:100030000C943B010C9472020C943B010C943B0118
:100040000C943B010C943B010C94FC3B0C943B0145
:100050000C9447370C947D370C943B010C943B0176
:100060000C943B010C943B010C941D1C0C943B0123
:100070000C94DE370C9414380C943B010C943B0127
:100080000C943B010C943B010C943B0100407A1012
:10009000F35A00A0724E18090010A5D4E80000E839
:1000A0007648170000E40B54020000CA9A3B000097
:1000B00000E1F505000080969800000040420F0026
:1000C0000000A08601000000102700000000E803E7
:1000D000000000006400000000000A0000000000B2
:1000E0000100000000002C76D888DC674F0823DF71
:1000F000C1DFAE59E1B1B796E5E3E453C63AE65144
:10010000997696E8E6C28426EB898C9B62ED407C6A
:100110006FFCEFBC9C9F40F2BAA56FA5F490055A06
:100120002AF75C936B6CF9676DC11BFCE0E40D472B
:10013000FEF520E6B500D0ED902E0300943577054E
:100140000080841E080000204E0A000000C80C3306
:100150003333330F986E12831141EF8D2114893B95
:10016000E65516CFFEE6DB18D1844B381BF77C1D15
:10017000901DA4BBE424203284725E228100C9F168
:1001800024ECA1E53D277C3C3E5E2B3D3F2F5B5D93
:100190003B2C2A225C000000000203000A0B000036
:1001A0000000050409080000000000000000000035
:1001B000000000000000010204081020408001023D
:1001C0000408102040800102040810204080010231
:1001D000040810204080020202020202020204040B
:1001E00004040404040403030303030303030101DD
:1001F0000101010101010000200023002600290067
:1002000000002200250028002B000000210024000F
:1002100027002A008702321B36215024B137483884
:100220009F0211241FBECFEFD0E4DEBFCDBF13E08D
:10023000A0E0B1E0E8E3FAE800E00BBF02C00790FD
:100240000D92A838B107D9F72DE0A8E8B3E001C0B6
:100250001D92AA3EB207E1F711E0C0E1D1E004C06F
:100260002197FE010E94C53FCA30D107C9F70E94FD
:10027000ED3B0C940F450C940000DC01ED91FC91DA
:100280000190F081E02D09940CB405FC0DC09EBDD9
:1002900000000DB407FEFDCF9EB58EBD00000DB46D
:1002A00007FEFDCF8EB508958EBD00000DB407FE8C
:1002B000FDCF8EB59EBD00000DB407FEFDCF9EB5EF
:1002C0000895982F92959F708F702AE0929F800DCD
:1002D000112408952F923F924F925F926F927F92D6
:1002E0008F929F92AF92BF92CF92DF92EF92FF9246
:1002F0000F931F93CF93DF93CDB7DEB760970FB601
:10030000F894DEBF0FBECDBF1B012C013A0149019D
:100310001E870D87F88AEF861CE3E12EF12C00E0A2
:1003200010E0C201A80197010E94A33FD5016C9380
:10033000CA01B901A80197010E94A33FF601608399
:10034000C201B10120E13EE040E050E00E94A33F45
:10035000CA01B90128E130E040E050E00E94A33F2B
:10036000AF85B8896C93C201B10120E831E541E065
:1003700050E00E94A33F82EB97E0F30191838083DA
:10038000E0E9F1E094E6C92ED12CD3010D911C9146
:100390007801B3E0EB22FF24E114F10431F4C80149
:1003A000B6010E948F3F892B99F4C801BF010E94BA
:1003B0008F3F892B69F08DE691E02817390758F0B7
:1003C000281B390B0F5F1F4FD3010D931C93DDCFFB
:1003D0008EE691E0F2CF8CE0ECE0F1E0DE011196E8
:1003E00001900D928A95E1F7EF2839F4C80164E68F
:1003F00070E00E948F3F892B39F4C80160E971E0F9
:100400000E948F3F892B11F48DE18A8381E0F401F2
:100410008083D4018C91FE01E80FF11D408150E0F2
:100420002417350728F0241B350B8F5F8C93F1CFF1
:100430002F5FED85FE85208360960FB6F894DEBFB2
:100440000FBECDBFDF91CF911F910F91FF90EF9025
:10045000DF90CF90BF90AF909F908F907F906F90E4
:100460005F904F903F902F900895CF93DF93C8EC0B
:10047000D0E08AEF90E00E94B03C61E08FE00E9403
:10048000253D61E08FE00E94613D8AEF90E00E948F
:10049000B03C61E08FE00E94253D60E08FE00E946B
:1004A000613D219731F7C8ECD0E084EB90E00E94E9
:1004B000B03C61E08FE00E94253D61E08FE00E944A
:1004C000613D84EB90E00E94B03C61E08FE00E94CF
:1004D000253D60E08FE00E94613D219731F7DF917B
:1004E000CF9108951F920F920FB60F9211248F9300
:1004F00080918A038F5F80938A0310928500109207
:1005000084008F910F900FBE0F901F90189562E29C
:1005100071E081EA99E00E94F73963E571E08BE9C7
:1005200099E00E94F7396DE871E085E999E00E9451
:10053000F7396DE871E08BE899E00C94F7398BE8B6
:1005400099E00E94853985E999E00E9485398BE917
:1005500099E00E94853981EA99E00C948539CF931E
:10056000DF9361E570E087EA99E00E94B11A70E0DC
:1005700060E087EA99E00E943D0187EA99E00E94E5
:100580002F1B46E061E587EA99E00E94291B87EA74
:1005900099E00E94241A0E9461018093930387EAE4
:1005A00099E00E94241A8F770E946101D82F87EA70
:1005B00099E00E94241A8F770E946101C82F87EA70
:1005C00099E00E94241A0E94610190E0B0E0A0E04E
:1005D0008093940390939503A0939603B09397030D
:1005E00087EA99E00E94241A0E94610124E6829F12
:1005F000C0011124092E000CAA0BBB0B40919403DF
:10060000509195036091960370919703840F951F05
:10061000A61FB71F8093940390939503A09396030E
:10062000B093970387EA99E00E94241A0E9461011F
:1006300040E157E2849F9001859F300D1124032EE5
:10064000000C440B550B8091940390919503A0915D
:100650009603B0919703280F391F4A1F5B1FA0E133
:10066000BEE00E94DD3FAB01BC012CE3C29FC00194
:100670001124092E000CAA0BBB0B8D0F911DA11D7F
:10068000B11D840F951FA61FB71F809394039093ED
:100690009503A0939603B0939703DF91CF910895AC
:1006A000CF93DF93CDB7DEB7C459D1090FB6F89415
:1006B000DEBF0FBECDBF88E19FE00FB6F894A895CE
:1006C000809360000FBE9093600061E083E10E9420
:1006D000613D60E082E10E94613D61E082E00E9454
:1006E000253D61E082E00E94613D61E084E10E947D
:1006F000253D61E084E10E94613D6DE871E0CE013D
:1007000081579F4F0E94F7390E94AF0264E671E063
:10071000CE0181579F4F0E948A3B60919109709151
:1007200092094AE0CE0101960E946F3ABE016F5FC6
:100730007F4FCE0181579F4F0E94833BCE01019690
:100740000E94853966ED72E0CE0181579F4F0E946D
:100750008A3B409194035091950360919603709168
:1007600097032AE0CE0101960E949B3ABE016F5F7B
:100770007F4FCE0181579F4F0E94833BCE01019650
:100780000E94853965EF71E0CE0181579F4F0E942D
:100790008A3B4AE060919303CE0101960E94163A8B
:1007A000BE016F5F7F4FCE0181579F4F0E94833BF9
:1007B000CE0101960E94853966ED72E0CE01815727
:1007C0009F4F0E948A3B47EA59E064E4CE01885A71
:1007D0009F4F0E94E830CE01885A9F4F0E941F31E0
:1007E00061E0CE01885A9F4F0E94A231E1966EAD22
:1007F0007FADE19790E080E00E94603E2FEA30E01C
:100800004FE25BE30E94123F20E030E044E352E419
:100810000E94B83DAB01BC0121E0CE0101960E94CF
:10082000F73ABE016F5F7F4FCE0181579F4F0E9405
:10083000833BCE0101960E94853966ED72E0CE01C0
:1008400001960E94F739BE016F5F7F4FCE0181573D
:100850009F4F0E94833BCE0101960E948539AF963F
:100860006EAD7FADAF9790E080E00E94603E28ECD7
:1008700030E048EC5AE30E94123FAB01BC0121E09A
:10088000CE0101960E94F73ABE016F5F7F4FCE0105
:1008900081579F4F0E94833BCE0101960E9485396C
:1008A00066ED72E0CE0101960E94F739BE016F5FDE
:1008B0007F4FCE0181579F4F0E94833BCE0101960F
:1008C0000E94853947EA59E065E4CE01CC960E9442
:1008D000E830CE01CC960E941F3161E0CE01CC966B
:1008E0000E94A23165966EAD7FAD659790E080E085
:1008F0000E94603E2FEA30E04FE25BE30E94123F2D
:1009000020E030E044E352E40E94B83DAB01BC017A
:1009100021E0CE0101960E94F73ABE016F5F7F4F42
:10092000CE0181579F4F0E94833BCE0101960E94CA
:10093000853966ED72E0CE0101960E94F739BE015D
:100940006F5F7F4FCE0181579F4F0E94833BCE0147
:1009500001960E94853963966EAD7FAD639790E0F6
:1009600080E00E94603E28EC30E048EC5AE30E94B0
:10097000123FAB01BC0121E0CE0101960E94F73A83
:10098000BE016F5F7F4FCE0181579F4F0E94833B17
:10099000CE0101960E94853966ED72E0CE01019686
:1009A0000E94F739BE016F5F7F4FCE0181579F4F85
:1009B0000E94833BCE0101960E94853947EA59E0A7
:1009C00067E7CE0101960E94CE31CE0101960E94CA
:1009D000F8356A81CE0101960E948C33CE010196D2
:1009E0000E940832AB01BC0122E0CE018C589F4F1F
:1009F0000E94F73ABE016C587F4FCE0181579F4F3E
:100A00000E94833BCE018C589F4F0E94853966ED32
:100A100072E0CE018C589F4F0E94F739BE016C588E
:100A20007F4FCE0181579F4F0E94833BCE018C5850
:100A30009F4F0E948539CE0101960E943F32AB0143
:100A4000BC0122E0CE018C589F4F0E94F73ABE01B4
:100A50006C587F4FCE0181579F4F0E94833BCE0140
:100A60008C589F4F0E94853961E084E10E94253DAA
:100A700060E084E10E94613D61E082E00E94253DEA
:100A800060E082E00E94613D0FB6F894A8958091E5
:100A90006000886180936000109260000FBEBE010C
:100AA00061577F4F8FE39DE00E94D238809107010C
:100AB000882371F164E089E49AE00E94801F6AE66D
:100AC00071E0882309F443C040919509509196093B
:100AD00023E169E47AE0CE018C589F4F0E94A02068
:100AE000CE018C589F4F0E94741E882371F1BE0165
:100AF00061577F4FCE018C589F4F0E94D238CE0154
:100B00008C589F4F0E94621E61E084E00E94613D0C
:100B100061E082E10E94613D60E083E10E94613D0D
:100B200061E070E080E090E00E94773CCE01815768
:100B30009F4F0E948539CC56DF4F0FB6F894DEBF29
:100B40000FBECDBFDF91CF91089569E771E08FE3CC
:100B50009DE00E94E43810920701D6CF4F925F9239
:100B60006F927F92AF92BF92CF92DF92EF92FF92FD
:100B70000F931F93CF93DF93CDB7DEB7AD970FB62B
:100B8000F894DEBF0FBECDBF61E083E10E94613DFE
:100B900060E082E10E94613D0E94AF026DE871E079
:100BA000CE0188960E94F73963E871E0CE018896FD
:100BB0000E948A3B60919109709192094AE0CE01AE
:100BC00001960E946F3ABE016F5F7F4FCE018896FB
:100BD0000E94833BCE0101960E94853966ED72E04A
:100BE000CE0188960E948A3B609125077091260766
:100BF0004AE0CE0101960E946F3ABE016F5F7F4FBF
:100C0000CE0188960E94833BCE0101960E948539D1
:100C100083EAE82E83E0F82E9AEFC92E95E0D92ECC
:100C200027E2A22E27E0B22E01E010E080919F0380
:100C30009091A0030817190708F051C00C3221E069
:100C4000120709F44CC0F60181916F01F501419042
:100C500051905F01712C612C882331F0F7E94F0E20
:100C6000F8E95F1E611C711C6BE871E0CE0188968B
:100C70000E948A3B6EE871E0CE0188960E948A3B12
:100C80002AE0B301A201CE0101960E949B3ABE0167
:100C90006F5F7F4FCE0188960E94833BCE01019605
:100CA0000E94853966ED72E0CE0188960E948A3BEB
:100CB000F701619171917F014AE0CE0101960E9496
:100CC0006F3ABE016F5F7F4FCE0188960E94833BD3
:100CD000CE0101960E9485390F5F1F4FA7CF62E9B1
:100CE00071E0CE0188960E948A3B609191097091D3
:100CF00092094AE0CE0101960E946F3ABE016F5FF1
:100D00007F4FCE0188960E94833BCE0101960E94C0
:100D1000853966ED72E0CE0188960E948A3B40914B
:100D200094035091950360919603709197032AE084
:100D3000CE0101960E949B3ABE016F5F7F4FCE01AC
:100D400088960E94833BCE0101960E94853965EF0B
:100D500071E0CE0188960E948A3B4AE0609193033D
:100D6000CE0101960E94163ABE016F5F7F4FCE0101
:100D700088960E94833BCE0101960E94853966EDDC
:100D800072E0CE0188960E948A3B80919400609127
:100D90009500762F682F4AE0CE0101960E946F3AA7
:100DA000BE016F5F7F4FCE0188960E94833BCE01CC
:100DB00001960E94853966ED72E0CE0188960E9408
:100DC0008A3B60919F037091A003615071094AE0D2
:100DD000CE0101960E946F3ABE016F5F7F4FCE0138
:100DE00088960E94833BCE0101960E9485390DE7CB
:100DF00019E066ED72E0CE0188960E948A3BF80108
:100E0000619171918F014AE0CE0101960E946F3A83
:100E1000BE016F5F7F4FCE0188960E94833BCE015B
:100E200001960E948539F9E005381F0711F7BE01C8
:100E3000685D7F4F8FE39DE00E94D238809107016B
:100E400061E0882309F4C3C08EE00E94613D64E044
:100E500089E49AE00E94801F6AE671E0882309F421
:100E6000AFC0409195095091960923E169E47AE079
:100E7000CE0101960E94A020CE0101960E94741E10
:100E8000882309F49BC0BE01685D7F4FCE010196A7
:100E90000E94D238CE0101960E94621E61E084E079
:100EA0000E94613D60E08EE00E94613D60E08DE067
:100EB0000E94613D8091910990919209893F9A42E7
:100EC00008F455C01092920910929109609193090B
:100ED000709194096F5F7F4F7093940960939309A9
:100EE0004AE0CE014C960E946F3ABE01645E7F4F8D
:100EF000CE0101960E94DF3A6BE971E0CE010196C6
:100F00000E94BF3BBC0185E999E00E94C83ACE012E
:100F100001960E948539CE014C960E9485398091B8
:100F20008509909186090196909386098093850999
:100F300060EA71E08FE39DE00E94BF3865E979E0E7
:100F40008FE39DE00E94D23880910701882379F0D9
:100F500064E089E49AE00E94801F81116DC06AE616
:100F600071E08FE39DE00E94E4381092070161E098
:100F700082E10E94613D60E083E10E94613D61E0A9
:100F800070E080E090E00E94773CCE0188960E945D
:100F90008539AD960FB6F894DEBF0FBECDBFDF9199
:100FA000CF911F910F91FF90EF90DF90CF90BF9066
:100FB000AF907F906F905F904F90089569E771E0D8
:100FC0008FE39DE00E94E4381092070167CF8DE027
:100FD0000E94613DCCA4DDA410E000E0FF24FA945F
:100FE0008DE10E948F3D892B19F0FA94F110F8CF12
:100FF00082E390E00E94B03C78012FEFE21AF20AFF
:10100000B801CE0188960E94D93BFC01608182EA3A
:101010009CE00E94C738CE14DF0460F482EA9CE0B2
:101020000E94CE38BE01685D7F4F8FE39DE00E9435
:10103000D23838CF8701D2CF409195095091960987
:1010400023E169E47AE0CE0101960E94A020CE015E
:1010500001960E94741E882309F452C06BE879E05F
:10106000CE0182960E94DF3A6BEA71E0CE01829651
:101070000E948A3B60918509709186094AE0CE0101
:101080004C960E946F3ABE01645E7F4FCE018296FD
:101090000E94833BCE014C960E94853966ED72E03A
:1010A000CE0182960E948A3B40918709509188091F
:1010B0006091890970918A092AE0CE014C960E94BC
:1010C0009B3ABE01645E7F4FCE0182960E94833BB5
:1010D000CE014C960E948539BE016E5D7F4FCE01D8
:1010E00001960E94D238CE0101960E94621ECE0166
:1010F00082960E94853961E084E00E94613D37CF8D
:1011000069E771E08FE39DE00E94E43810920701E7
:10111000F2CF0F931F93CF93DF93C82F65E570E055
:1011200087EA99E00E94B11A0C2E000CDD0BBE017B
:1011300087EA99E00E943D0187EA99E00E942F1B0F
:1011400041E050E065E570E087EA99E00E942C1BE1
:1011500087EA99E00E94241A8C0165E570E087EA2D
:1011600099E00E94B11ABE016F5F7F4F87EA99E054
:101170000E943D0187EA99E00E942F1B41E050E068
:1011800065E570E087EA99E00E942C1B87EA99E008
:101190000E94241A20E0382FC901800F911FDF918F
:1011A000CF911F910F910895CF93DF93CDB7DEB705
:1011B000A1970FB6F894DEBF0FBECDBF61E083E10B
:1011C0000E94613D60E082E10E94613D6DE871E056
:1011D000CE014C960E94F7390E94AF0264EB71E099
:1011E000CE014C960E948A3B6091910970919209C0
:1011F0004AE0CE0101960E946F3ABE016F5F7F4FB9
:10120000CE014C960E94833BCE0101960E94853907
:1012100066ED72E0CE014C960E948A3B40919403A9
:101220005091950360919603709197032AE0CE0147
:1012300001960E949B3ABE016F5F7F4FCE014C9694
:101240000E94833BCE0101960E94853965EF71E0D3
:10125000CE014C960E948A3B4AE060919303CE01F6
:1012600001960E94163ABE016F5F7F4FCE014C96E9
:101270000E94833BCE0101960E94853966ED72E0A3
:10128000CE014C960E948A3B88E00E9489084AE081
:10129000BC01CE0101960E94433ABE016F5F7F4FB1
:1012A000CE014C960E94833BCE0101960E94853967
:1012B00066ED72E0CE014C960E948A3B8AE00E9465
:1012C00089084AE0BC01CE0101960E94433ABE0162
:1012D0006F5F7F4FCE014C960E94833BCE010196FB
:1012E0000E94853966ED72E0CE014C960E948A3BE1
:1012F00084E00E9489084AE0BC01CE0101960E9468
:10130000433ABE016F5F7F4FCE014C960E94833BF4
:10131000CE0101960E94853966ED72E0CE014C96B1
:101320000E948A3B86E00E9489084AE0BC01CE0107
:1013300001960E94433ABE016F5F7F4FCE014C96EB
:101340000E94833BCE0101960E94853966ED72E0D2
:10135000CE014C960E948A3B8CE00E948908BC0119
:10136000990F880B990B0E94623E2DEC3CEC4CECE3
:101370005DE30E94123F23E333E948E853E40E940F
:10138000B83DAB01BC0122E0CE0101960E94273B93
:10139000BE016F5F7F4FCE014C960E94833BCE0112
:1013A00001960E948539BE01645E7F4F8FE39DE008
:1013B0000E94D23880910701882349F164E089E4D2
:1013C0009AE00E94801F6AE671E08823E9F140916B
:1013D00095095091960923E169E47AE0CE010196DE
:1013E0000E94A020CE0101960E94741E882351F114
:1013F000BE01645E7F4FCE0101960E94D238CE01BD
:1014000001960E94621E61E084E00E94613D61E0FD
:1014100082E10E94613D60E083E10E94613D61E004
:1014200070E080E090E00E94773CCE014C960E94F4
:101430008539A1960FB6F894DEBF0FBECDBFDF9100
:10144000CF91089569E771E08FE39DE00E94E43851
:1014500010920701D8CF10927E0910927D09109248
:10146000800910927F0910928209109281091092CE
:1014700084091092830981E090E09093A003809307
:101480009F0361E087E10E94613D60E086E10E9488
:10149000613D90E080E00E94440161E086E10E94AD
:1014A000613D10928500109284009091940080918B
:1014B00095008927982789279093260780932507E9
:1014C00010928A03109289031092880310E208E1B7
:1014D000B9E2FB2EC1E0D0E018993EC180918A03A9
:1014E0008230D0F38EE10E948F3D892B29F5A8EC44
:1014F000CA2ED12C86E990E00E94B03C61E08FE0DA
:101500000E94253D61E08FE00E94613D86E990E008
:101510000E94B03C61E08FE00E94253D60E08FE0DA
:101520000E94613D41E0C41AD10821F780919A03DD
:1015300091E0892780939A0310928A03809189030E
:101540008F5F80938903809188038F5F80938803E6
:101550008BE10E948F3D682F8DE00E94613D8BE101
:101560000E948F3D892B09F48DC061E570E087EA08
:1015700099E00E94B11A67E287EA99E00E94471A4F
:1015800060E087EA99E00E94471A65E970E087EA1F
:1015900099E00E943D0187EA99E00E942F1B68EBC9
:1015A0007BE080E090E00E94773CC8ECD0E08AEFDE
:1015B00090E00E94B03C61E08FE00E94253D61E038
:1015C0008FE00E94613D8AEF90E00E94B03C61E0B4
:1015D0008FE00E94253D60E08FE00E94613D2197F1
:1015E00031F761E570E087EA99E00E94B11A67E29D
:1015F00087EA99E00E94471A63E087EA99E00E942F
:10160000471A65E970E087EA99E00E943D0187EAA0
:1016100099E00E942F1B6AE670E087EA99E00E9439
:10162000B11A68E187EA99E00E94471A6AE087EAFE
:1016300099E00E94471A87EA99E00E942F1B68E808
:1016400073E180E090E00E94773CC8ECD0E08AEF44
:1016500090E00E94B03C61E08FE00E94253D61E097
:101660008FE00E94613D8AEF90E00E94B03C61E013
:101670008FE00E94253D60E08FE00E94613D219750
:1016800031F7DDCF61E086E10E94613D60E087E1F6
:101690000E94613D0FB6F894A895009360000FBEBC
:1016A000F09260000E94AE0510927E0910927D09B2
:1016B0001092800910927F0910928209109281097C
:1016C0001092840910928309D093A003C0939F03C2
:1016D000809188038E3120F0109288030E9450037D
:1016E00080918903843B20F0109289030E94D408E2
:1016F00061E087E10E94613D60E086E10E94613D1A
:1017000090E080E00E94440161E086E10E94613D3A
:101710000FB6F894A895809160008861809360006E
:10172000109260000FBE80919109909192090196EC
:1017300090939209809391091092850010928400F1
:1017400090919400809195008927982789279093FC
:10175000260780932507C0CE60E086E10E94613DA8
:1017600090E080E00E94440120919A03222361F1DD
:101770008430910560F12BB121272BB920919F0373
:101780003091A0032C32E1E03E07B8F46091840070
:1017900070918500A901440F551FFA01EB5DF84FC8
:1017A0007183608360918A03F901E750FA4F608387
:1017B0004F555C4FFA01918380832F5F3F4F3093E9
:1017C000A00320939F030DC084309105B8F6880FC5
:1017D000991FFC01E358F64F808191810196918316
:1017E000808361E086E10E94613D76CE0F931F9376
:1017F000CF93DF93CDB7DEB7A1970FB6F894DEBFD6
:101800000FBECDBF082F162F61E570E087EA99E083
:101810000E94B11A63E287EA99E00E94471A60E0E9
:1018200087EA99E00E94471A60E087EA99E00E94FF
:10183000471A65E087EA99E00E94471A60E087EA64
:1018400099E00E94471A60E087EA99E00E94471AEF
:1018500067E987EA99E00E94471A60E087EA99E021
:101860000E94471A60E087EA99E00E94471A87EAD7
:1018700099E00E942F1B61E570E087EA99E00E94E1
:10188000B11A6FE270E087EA99E00E943D016CE2D4
:1018900070E087EA99E00E943D0187EA99E00E94A2
:1018A0002F1B61E570E087EA99E00E94B11A68E2B7
:1018B00070E087EA99E00E943D0167E970E087EAFD
:1018C00099E00E943D0187EA99E00E942F1B61E5A3
:1018D00070E087EA99E00E94B11A60E087EA99E037
:1018E0000E94471A60E087EA99E00E94471A60E088
:1018F00087EA99E00E94471A60E087EA99E00E942F
:10190000471A60E087EA99E00E94471A60E087EA98
:1019100099E00E94471A60E087EA99E00E94471A1E
:1019200087EA99E00E942F1B0E94AF026BEB71E0E7
:10193000CE014C960E94F739409194035091950343
:1019400060919603709197032AE0CE0101960E9460
:101950009B3ABE016F5F7F4FCE014C960E94833B46
:10196000CE0101960E94853965EF71E0CE014C965B
:101970000E948A3B4AE060919303CE0101960E9447
:10198000163ABE016F5F7F4FCE014C960E94833B9B
:10199000CE0101960E94853964EC71E0CE014C962F
:1019A0000E948A3B003130F463ED71E0CE014C9629
:1019B0000E948A3B40E1602FCE0101960E94163AB8
:1019C000BE016F5F7F4FCE014C960E94833BCE01DC
:1019D00001960E94853965ED71E0CE014C960E941A
:1019E0008A3B103130F463ED71E0CE014C960E94D9
:1019F0008A3B40E1612FCE0101960E94163ABE015A
:101A00006F5F7F4FCE014C960E94833BCE010196C3
:101A10000E948539BE01645E7F4F8FE39DE00E9486
:101A2000D23880910701882319F164E089E49AE0B3
:101A30000E94801F8823E1F04091950950919609FA
:101A400023E169E47AE0CE0101960E94A020CE0154
:101A500001960E94741E882359F0BE01645E7F4F78
:101A6000CE0101960E94D238CE0101960E94621EDC
:101A7000CE014C960E948539A1960FB6F894DEBF30
:101A80000FBECDBFDF91CF911F910F910895CF93DE
:101A9000DF93D82FC62F6AE670E087EA99E00E94AC
:101AA000B11A6D2F87EA99E00E94471A6C2F87EAD6
:101AB00099E00E94471A87EA99E0DF91CF910C9450
:101AC0002F1BCF93C82F6AE670E087EA99E00E9447
:101AD000B11A62E087EA99E00E94471A60E671E075
:101AE00087EA99E00E943D0187EA99E00E942F1B56
:101AF0006AE670E087EA99E00E94B11A64E187EA39
:101B000099E00E94471A66E287EA99E0CC2309F43B
:101B100048C00E94471A69E187EA99E00E94471A83
:101B200060EA87EA99E00E94471A66E587EA99E049
:101B30000E94471A60E087EA99E00E94471A61E034
:101B400087EA99E00E94471A87EA99E00E942F1BD2
:101B50006AE670E087EA99E00E94B11A6AE187EAD2
:101B600099E00E94471A6FEB87EA99E00E94471AB2
:101B700087EA99E00E942F1B6AE670E087EA99E005
:101B80000E94B11A66E287EA99E00E94471A6CE85F
:101B900087EA99E00E94471A87EA99E0CF910C946E
:101BA0002F1B0E94471A69E987EA99E00E94471AA9
:101BB00060E0B7CFCF93C82F61E570E087EA99E086
:101BC0000E94B11A6C2F87EA99E00E94471A87EAAF
:101BD00099E00E942F1B41E061E587EA99E00E94AD
:101BE000291B87EA99E00E941D1A892B31F087EAA8
:101BF00099E00E94241ACF9108958FEFFCCF0F93A4
:101C00001F93CF93DF93CDB7DEB7A1970FB6F894AC
:101C1000DEBF0FBECDBF87E00E94DA0D182F88E22D
:101C20000E94DA0D082F807117FD02C081110FC0CC
:101C3000602F812F0E94F60BA1960FB6F894DEBF9D
:101C40000FBECDBFDF91CF911F910F9108950E94DC
:101C5000AF026BEB71E0CE014C960E94F7394091D8
:101C600094035091950360919603709197032AE035
:101C7000CE0101960E949B3ABE016F5F7F4FCE015D
:101C80004C960E94833BCE0101960E94853965EFF8
:101C900071E0CE014C960E948A3B4AE0609193032A
:101CA000CE0101960E94163ABE016F5F7F4FCE01B2
:101CB0004C960E94833BCE0101960E9485396FEDC0
:101CC00071E0CE014C960E948A3B103130F463EDF6
:101CD00071E0CE014C960E948A3B40E1612FCE011B
:101CE00001960E94163ABE016F5F7F4FCE014C965F
:101CF0000E94833BCE0101960E94853965ED71E01B
:101D0000CE014C960E948A3B40E1602FCE010196A5
:101D10000E94163ABE016F5F7F4FCE014C960E9423
:101D2000833BCE0101960E948539BE01645E7F4FE0
:101D30008FE39DE00E94D23880910701882319F13A
:101D400064E089E49AE00E94801F8823E1F04091DA
:101D500095095091960923E169E47AE0CE01019654
:101D60000E94A020CE0101960E94741E882359F083
:101D7000BE01645E7F4FCE0101960E94D238CE0133
:101D800001960E94621ECE014C960E94853954CF66
:101D9000CF93C82F6AE670E087EA99E00E94B11AF3
:101DA0006C2F87EA99E00E94471A60E087EA99E081
:101DB0000E94B31A41E06AE687EA99E00E94291B73
:101DC00087EA99E00E941D1A892B31F087EA99E091
:101DD0000E94241ACF91089580E0FCCFCF93DF9327
:101DE000C82F6AE670E087EA99E00E94B11A6C2F6A
:101DF00087EA99E00E94471A60E087EA99E00E942A
:101E0000B31A42E06AE687EA99E00E94291B87EA52
:101E100099E00E941D1A02978CF087EA99E00E94CF
:101E2000241AEC0187EA99E00E94241A20E0382F56
:101E3000C9018C2B9D2BDF91CF91089590E080E01C
:101E4000FACF0F931F93CF93DF938C0186E10E940B
:101E5000C80EC82FD82FDF7D6D2F86E10E94470D59
:101E600062E370E080E090E00E94773C6D2F606458
:101E700086E10E94470D68EC70E080E090E00E94EF
:101E8000773C6C2F6F7986E10E94470D64E170E02A
:101E900080E090E00E94773C87E20E94C80E682FA5
:101EA0006F7E87E20E94470D86E20E94C80E8F7CFB
:101EB000682F626C86E20E94470D62E370E080E06A
:101EC00090E00E94773C80E30E94EE0E9695879505
:101ED0009C013F70A7ECB0E00E94CE3F24E630E0CA
:101EE00040E050E00E94A33FF8013183208381E06D
:101EF000283B3B4008F480E0DF91CF911F910F9188
:101F00000895CF92DF92EF92FF920F931F93CF939A
:101F1000DF93D82F7B01682F87EA99E00E94A71AE8
:101F200060E087EA99E00E94471A60E087EA99E05A
:101F30000E94471A87EA99E00E942F1BC0E085E3C0
:101F4000C82ED12C0C2F10E0A601401B510B4131A3
:101F5000510510F040E150E06D2F87EA99E00E94B2
:101F6000291B0E0D1F1D87EA99E00E941D1A892B5F
:101F700059F0C533F8F487EA99E00E94241ACF5F3C
:101F8000F80181938F01EFCFC533A0F46D2F87EA5D
:101F900099E00E94A71A60E087EA99E00E94471A38
:101FA0006C2F87EA99E00E94471A87EA99E00E941D
:101FB0002F1BC8CF81E0C53309F080E0DF91CF91BE
:101FC0001F910F91FF90EF90DF90CF9008954F9267
:101FD0005F926F927F928F929F92AF92BF92CF92B9
:101FE000DF92EF92FF920F931F93CF93DF93CDB7C2
:101FF000DEB7C75BD1090FB6F894DEBF0FBECDBF09
:1020000026E040E052EC61E070E082EA9CE00E9451
:10201000F53626E040E052EC61E070E08FE39DE0B1
:102020000E94F53640EA56E861E070E087EA99E000
:102030000E94A31A6EEE71E08FE39DE00E94E438E7
:1020400060E08BE10E94253D60E085E10E94253D36
:1020500060E08DE10E94253D60E08EE10E94253D1B
:1020600061E086E10E94253D61E087E10E94253D17
:1020700060E080E00E94253D61E08FE00E94253D08
:1020800061E082E10E94253D61E082E10E94613DC4
:1020900061E082E00E94253D61E082E00E94613DB6
:1020A00061E08AE10E94253D61E08AE10E94613D94
:1020B00061E083E10E94253D61E083E00E94253DCF
:1020C00061E084E00E94253D60E085E00E94253DBE
:1020D00060E086E00E94253D61E087E00E94253DAA
:1020E00061E083E10E94613D61E084E00E94613D26
:1020F00060E087E00E94613D64E670E080E090E08F
:102100000E94773C60E083E00E94613D61E084E1F1
:102110000E94253D60E084E10E94613D80E00E94D4
:10212000610D64E670E080E090E00E94773C88E911
:1021300093E00E94210F809306010E94610D8BE1C4
:102140000E948F3D892B09F42CC188E19FE00FB6D6
:10215000F894A895809360000FBE909360006AE6A3
:1021600070E087EA99E00E94B11A6DE270E087EAB8
:1021700099E00E943D0187EA99E00E942F1B41E00F
:102180006AE687EA99E00E94291B87EA99E00E94A3
:10219000241AA89568EE73E080E090E00E94773CF6
:1021A000A89568EE73E080E090E00E94773CA895E7
:1021B00068EE73E080E090E00E94773CA89511E023
:1021C00001E06AE670E087EA99E00E94B11A6DE2E8
:1021D00070E087EA99E00E943D0187EA99E00E9459
:1021E0002F1B41E06AE687EA99E00E94291B87EAF3
:1021F00099E00E94241AA8958F77813108F07FC05A
:102200008BE10E948F3D682F8DE00E94613D61E56A
:1022100070E087EA99E00E94B11A68E270E087EA0C
:1022200099E00E943D0165E970E087EA99E00E942B
:102230003D0187EA99E00E942F1BA89568EE73E0A4
:1022400080E090E00E94773CA89568EE73E080E023
:1022500090E00E94773CA89568EE73E080E090E003
:102260000E94773CA89508EC10E08AEF90E00E946D
:10227000B03C61E08FE00E94253D61E08FE00E946C
:10228000613D8AEF90E00E94B03C61E08FE00E94E7
:10229000253D60E08FE00E94613D0150110929F762
:1022A00061E570E087EA99E00E94B11A67E287EA87
:1022B00099E00E94471A63E087EA99E00E94471A72
:1022C00065E970E087EA99E00E943D0187EA99E0BC
:1022D0000E942F1B6AE670E087EA99E00E94B11A1B
:1022E00068E187EA99E00E94471A6AE087EA99E084
:1022F0000E94471A87EA99E00E942F1BFFCFA895FA
:10230000112311F161E0002351F183E00E94613D4E
:102310000E94350261E770E087EA99E00E94B11AF5
:1023200060E087EA99E00E94471A63E187EA99E052
:102330000E94471A87EA99E00E942F1B68EE73E01B
:1023400080E090E00E94773C8EE10E948F3D10E09B
:10235000892B09F036CF81E0082711E032CF8CE0DD
:102360000E94253D60E08CE00E94613D0E943502A4
:1023700061E770E087EA99E00E94B11A60E087EABD
:1023800099E00E94471A60E187EA99E00E94471AA3
:1023900087EA99E00E942F1B60E083E00E94613D84
:1023A000CDCF61E084E10E94253D61E084E10E949F
:1023B000613D15E060E570E080E090E00E94773CD0
:1023C00061E08CE00E94253D61E08CE00E94613D6F
:1023D00060E570E080E090E00E94773C60E08CE097
:1023E0000E94613D115031F761E08CE00E94613D37
:1023F00008EC10E084EB90E00E94B03C61E08FE0DC
:102400000E94253D61E08FE00E94613D84EB90E0F9
:102410000E94B03C61E08FE00E94253D60E08FE0CB
:102420000E94613D0150110929F767EF71E08FE3C8
:102430009DE00E94E43860E087E10E94613D61E038
:1024400086E10E94613D61E570E087EA99E00E94C3
:10245000B11A67E287EA99E00E94471A63E087EAC7
:1024600099E00E94471A67E987EA99E00E94471AB3
:1024700088E199E20FB6F894A895809360000FBEAA
:10248000909360000E94AF02809194039091950315
:10249000A0919603B091970380938F03909390033C
:1024A000A0939103B093920360E072E08FE39DE00C
:1024B0000E94BF3840918F03509190036091910327
:1024C000709192032AE030E08FE39DE00E9473391F
:1024D0004E0106E3800E911C85E3F40111928A956A
:1024E000E9F7B40180E50E94810F882309F4DEC575
:1024F00067968CAD9DADAEADBFAD679780938B03F6
:1025000090938C03A0938D03B0938E036BE072E0E5
:102510008FE39DE00E94BF3840918B0350918C0364
:1025200060918D0370918E032AE030E08FE39DE08F
:102530000E9473396EE172E08FE39DE00E94BF3824
:1025400063964CAD5DAD6EAD7FAD63972AE030E034
:102550008FE39DE00E94733961E372E08FE39DE0B9
:102560000E94BF386B964CAD5DAD6EAD7FAD6B9785
:102570002AE030E08FE39DE00E9473396BE472E063
:102580008FE39DE00E94BF388401065F1F4F7401F6
:10259000F4E1EF0EF11CF80161918F01662339F02F
:1025A0008FE39DE00E94C7380E151F05A1F78FE34A
:1025B0009DE00E94CE38BE016F5F7F4F85E3FB0137
:1025C00011928A95E9F783E50E94810F882309F427
:1025D0007CC56AE672E08FE39DE00E94BF388E0101
:1025E000055F1F4F7E01F5E1EF0EF11CF8016191CF
:1025F0008F01662339F08FE39DE00E94C738E01613
:10260000F106A1F78FE39DE00E94CE3840908B0346
:1026100050908C0360908D0370908E034114510490
:102620006104710409F458C580918F03909190035F
:10263000A0919103B0919203480E591E6A1E7B1E11
:102640006B964CAD5DAD6EAD7FAD6B978C019D0112
:10265000041B150B260B370BCC54DF4F0883198353
:102660002A833B83C45BD0409E0121553F4F5901D3
:10267000CE0180559F4F6C01FE01EF54FF4F7F014B
:102680008E010E541F4F2C5F3F4FAE0143555F4FDD
:10269000C301B2010E946A0160E972E08FE39DE02C
:1026A0000E94BF382AE030E0CC54DF4F4881598186
:1026B0006A817B81C45BD0408FE39DE00E947339C7
:1026C0006BE972E08FE39DE00E94BF382AE030E0C2
:1026D000B301A2018FE39DE00E9473396FEA72E0BB
:1026E0008FE39DE00E94BF38C355DF4F6881798139
:1026F000CD5AD0404AE050E08FE39DE00E946D3912
:102700006EEB72E08FE39DE00E94BF38CD54DF4F47
:102710008881C35BD0408A3030F463ED71E08FE391
:102720009DE00E94BF384AE050E0CD54DF4F688101
:10273000C35BD0408FE39DE00E9454396EEB72E0A2
:102740008FE39DE00E94BF38CE54DF4F8881C25B8B
:10275000D0408A3030F463ED71E08FE39DE00E9459
:10276000BF384AE050E0CE54DF4F6881C25BD040B2
:102770008FE39DE00E94543960EC72E08FE39DE0AE
:102780000E94BF38CF54DF4F8881C15BD0408A3070
:1027900030F463ED71E08FE39DE00E94BF384AE0C2
:1027A00050E0CF54DF4F6881C15BD0408FE39DE0A4
:1027B0000E94543962EC72E08FE39DE00E94BF38C2
:1027C000C055DF4F8881C05BD0408A3030F463ED64
:1027D00071E08FE39DE00E94BF384AE050E0C055B1
:1027E000DF4F6881C05BD0408FE39DE00E94543989
:1027F00062EC72E08FE39DE00E94BF38C155DF4F6D
:102800008881CF5AD0408A3030F463ED71E08FE395
:102810009DE00E94BF384AE050E0C155DF4F68811B
:10282000CF5AD0408FE39DE00E945B398E0105595D
:102830001F4F64EC72E0C8010E94F7396BE979E040
:10284000C8010E94AC3B64ED72E00E94BF3B61EAAC
:1028500079E00E94AC3B66ED72E00E94BF3B7E01D6
:10286000F7EAEF0EF11CBC01C7010E94DF3AC80174
:102870000E9485396BE570E087EA99E00E94B11A01
:1028800068E070E087EA99E00E943D0170E060E056
:1028900087EA99E00E943D0187EA99E00E942F1B98
:1028A00040E16BE587EA99E00E94291B80E1D82E80
:1028B00087EA99E00E94241AC82E2FE0281728F0F2
:1028C00063ED71E0C7010E948A3B40E16C2DC801B5
:1028D0000E94163AB801C7010E94833BC8010E94BA
:1028E0008539DA94D110E4CF68ED72E0C7010E9417
:1028F0008A3B68E570E087EA99E00E94B11A68E0D7
:1029000070E087EA99E00E943D0170E060E087EAAC
:1029100099E00E943D0187EA99E00E942F1B40E167
:1029200068E587EA99E00E94291B10E187EA99E0AF
:102930000E94241A082F803138F463ED71E0CE0133
:1029400089559F4F0E948A3B61E082E00E94253DAD
:1029500061E082E00E94613D61E08AE10E94253DE4
:1029600061E08AE10E94613D40E1602FCE0185591E
:102970009F4F0E94163ABE0165597F4FCE0189557F
:102980009F4F0E94833BCE0185599F4F0E948539FE
:10299000115061F666ED72E0CE0189559F4F0E949D
:1029A0008A3B60E570E087EA99E00E94B11A70E026
:1029B00060E087EA99E00E943D0170E060E087EA0C
:1029C00099E00E943D0187EA99E00E942F1B42E0B6
:1029D00060E587EA99E00E94291B87EA99E00E9456
:1029E000241A80939C0387EA99E00E94241A80931A
:1029F0009B0340E160919C03CE0185599F4F0E944B
:102A0000163ABE0165597F4FCE0189559F4F0E94EE
:102A1000833BCE0185599F4F0E94853940E16091EB
:102A20009B03CE0185599F4F0E94163ABE016559FE
:102A30007F4FCE0189559F4F0E94833BCE01855920
:102A40009F4F0E9485396EEE72E0CE0189559F4FEF
:102A50000E948A3B8401065F1F4F34E1830E911C64
:102A6000F80161918F01662341F0CE0189559F4F96
:102A70000E94993B8016910699F76BEF72E0CE01A8
:102A800089559F4F0E948A3B6BE570E087EA99E089
:102A90000E94B11A68E070E087EA99E00E943D0167
:102AA00070E060E087EA99E00E943D0187EA99E0E2
:102AB0000E942F1B40E16BE587EA99E00E94291BE9
:102AC00010E187EA99E00E94241A082F803138F437
:102AD00063ED71E0CE0189559F4F0E948A3B40E132
:102AE000602FCE0185599F4F0E94163ABE0165594D
:102AF0007F4FCE0189559F4F0E94833BCE01855960
:102B00009F4F0E9485391150E1F666ED72E0CE01CB
:102B100089559F4F0E948A3B63E570E087EA99E000
:102B20000E94B11A70E060E087EA99E00E943D01DE
:102B300070E060E087EA99E00E943D0187EA99E051
:102B40000E942F1B42E063E587EA99E00E94291B5F
:102B500087EA99E00E94241A80939E0387EA99E00D
:102B60000E94241A80939D0340E160919E03CE0150
:102B700085599F4F0E94163ABE0165597F4FCE017D
:102B800089559F4F0E94833BCE0185599F4F0E94DC
:102B9000853940E160919D03CE0185599F4F0E9488
:102BA000163ABE0165597F4FCE0189559F4F0E944D
:102BB000833BCE0185599F4F0E9485396FE073E0BA
:102BC000CE0189559F4F0E948A3B8E01055F1F4FA2
:102BD0007E01F5E1EF0EF11CF80161918F01662392
:102BE00041F0CE0189559F4F0E94993BE016F106B6
:102BF00099F76CE173E0CE0189559F4F0E948A3BA3
:102C00008091060163ED71E0882311F06CEE71E0B4
:102C1000CE0189559F4F0E948A3B66ED72E0CE013E
:102C200089559F4F0E948A3B609198037091990348
:102C30004AE0CE0185599F4F0E946F3ABE01655907
:102C40007F4FCE0189559F4F0E94833BCE0185590E
:102C50009F4F0E94853965E273E0CE0189559F4FF1
:102C60000E948A3B40918F035091900360919103A1
:102C7000709192032AE0CE0185599F4F0E949B3AA2
:102C8000BE0165597F4FCE0189559F4F0E94833BFE
:102C9000CE0185599F4F0E94853966ED72E0CE01C5
:102CA00089559F4F0E948A3B40918B0350918C0322
:102CB00060918D0370918E032AE0CE0185599F4F5C
:102CC0000E949B3ABE0165597F4FCE0189559F4FA7
:102CD0000E94833BCE0185599F4F0E94853966ED46
:102CE00072E0CE0189559F4F0E948A3B2AE0B301D2
:102CF000A201CE0185599F4F0E949B3ABE016559A2
:102D00007F4FCE0189559F4F0E94833BCE0185594D
:102D10009F4F0E94853966ED72E0CE0189559F4F25
:102D20000E948A3B2AE0CC54DF4F488159816A8156
:102D30007B81C45BD040CE0185599F4F0E949B3A56
:102D4000BE0165597F4FCE0189559F4F0E94833B3D
:102D5000CE0185599F4F0E94853966ED72E0CE0104
:102D600089559F4F0E948A3BC355DF4F6881798107
:102D7000CD5AD0404AE0CE0185599F4F0E946F3A0C
:102D8000BE0165597F4FCE0189559F4F0E94833BFD
:102D9000CE0185599F4F0E9485396EEB72E0CE01BE
:102DA00089559F4F0E948A3BCD54DF4F8881C35B7A
:102DB000D0408A3038F463ED71E0CE0189559F4FE1
:102DC0000E948A3B4AE0CD54DF4F6881C35BD0400C
:102DD000CE0185599F4F0E94163ABE0165597F4F1B
:102DE000CE0189559F4F0E94833BCE0185599F4F4D
:102DF0000E9485396EEB72E0CE0189559F4F0E948B
:102E00008A3BCE54DF4F8881C25BD0408A3038F491
:102E100063ED71E0CE0189559F4F0E948A3B4AE0E5
:102E2000CE54DF4F6881C25BD040CE0185599F4FA1
:102E30000E94163ABE0165597F4FCE0189559F4FBA
:102E40000E94833BCE0185599F4F0E94853960ECDB
:102E500072E0CE0189559F4F0E948A3BCF54DF4FCD
:102E60008881C15BD0408A3038F463ED71E0CE01D7
:102E700089559F4F0E948A3B4AE0CF54DF4F6881BB
:102E8000C15BD040CE0185599F4F0E94163ABE01CA
:102E900065597F4FCE0189559F4F0E94833BCE01DC
:102EA00085599F4F0E94853962EC72E0CE018955A9
:102EB0009F4F0E948A3BC055DF4F8881C05BD04046
:102EC0008A3038F463ED71E0CE0189559F4F0E943E
:102ED0008A3B4AE0C055DF4F6881C05BD040CE01DD
:102EE00085599F4F0E94163ABE0165597F4FCE010A
:102EF00089559F4F0E94833BCE0185599F4F0E9469
:102F0000853962EC72E0CE0189559F4F0E948A3B61
:102F1000C155DF4F8881CF5AD0408A3038F463EDF5
:102F200071E0CE0189559F4F0E948A3B4AE0C1550E
:102F3000DF4F6881CF5AD040CE0185599F4F0E9404
:102F4000163ABE0165597F4FCE0189559F4F0E94A9
:102F5000833BCE0185599F4F0E948539BE0169553B
:102F60007F4F8BE899E00E94C83A409287095092BF
:102F700088096092890970928A09109286091092D4
:102F800085096BEA71E0CE0189559F4F0E948A3B0B
:102F900060918509709186094AE0CE0185599F4F5D
:102FA0000E946F3ABE0165597F4FCE0189559F4FF0
:102FB0000E94833BCE0185599F4F0E94853966ED63
:102FC00072E0CE0189559F4F0E948A3B409187094C
:102FD000509188096091890970918A092AE0CE018F
:102FE00085599F4F0E949B3ABE0165597F4FCE0184
:102FF00089559F4F0E94833BCE0185599F4F0E9468
:10300000853960E082E10E94613D64E089E49AE0F4
:103010000E94801F811108C06AE671E08FE39DE085
:103020000E94E4381092070181E090E090939409A7
:10303000809393096091930970919409683C71059C
:1030400008F053C04AE0CE018A579F4F0E946F3A62
:10305000BE016A577F4FCE0185599F4F0E94DF3ACC
:103060006BE971E0CE0185599F4F0E94BF3BBC01C7
:1030700085E999E00E94C83ACE0185599F4F0E9488
:103080008539CE018A579F4F0E94853960919509F5
:103090007091960989E49AE00E942B21882329F1F6
:1030A00080919309909194090196C0CF66E572E0F2
:1030B0008FE39DE00E94E43810928B0310928C0302
:1030C00010928D0310928E0376CA65E772E08FE34B
:1030D0009DE00E94E4389ACACC54DF4F18821982CE
:1030E0001A821B82C45BD040BFCA60919309709161
:1030F00094094AE0CE018A579F4F0E946F3ABE0161
:103100006A577F4FCE0185599F4F0E94DF3A6BE986
:1031100071E0CE0185599F4F0E94BF3BBC0185E9FC
:1031200099E00E94C83ACE0185599F4F0E94853987
:10313000CE018A579F4F0E94853915E060E570E007
:1031400080E090E00E94773C61E08DE00E94253DA8
:1031500061E08DE00E94613D60E570E080E090E01C
:103160000E94773C60E08DE00E94613D115031F794
:1031700061E08DE00E94613D409195095091960972
:1031800023E169E47AE0CE018A579F4F0E94A02094
:10319000CE018A579F4F0E94241E2B013C016EE2F4
:1031A00073E08FE39DE00E94BF382AE030E0B30176
:1031B000A2018FE39DE00E947339F1E84F16F3E21C
:1031C0005F06F3E46F06710408F485C0CE018A57E8
:1031D0009F4F0E94621E60919309709194096F5FE6
:1031E0007F4F70939409609393094AE0CE018F5505
:1031F0009F4F0E946F3ABE016F557F4FCE01855998
:103200009F4F0E94DF3A6BE971E0CE0185599F4FD5
:103210000E94BF3BBC0185E999E00E94C83ACE01FB
:1032200085599F4F0E948539CE018F559F4F0E942F
:103230008539409195095091960923E169E47AE036
:10324000CE0185599F4F0E94A020AF968EAD9FADB5
:10325000AF97C857DF4F99838883C858D040E3960B
:103260008CAD9DADAEADBFADE397C657DF4F888344
:103270009983AA83BB83CA58D040E7968CAD9DAD95
:10328000AEADBFADE797C257DF4F88839983AA835E
:10329000BB83CE58D040ABE6B0E0AC0FBD1F1C9650
:1032A000E6E8F0E0EC0FFD1F3C9686E890E08C0F1E
:1032B0009D1F49962D912193E817F907D9F7CC570F
:1032C000DF4F88819981C458D040C156DF4F998320
:1032D0008883CF59D04060EA71E08FE39DE00E947F
:1032E000BF3865E979E08FE39DE00E94D238CE01D6
:1032F0008A579F4F0E94741E882309F492C0BE0112
:1033000069557F4FCE018A579F4F0E94D238CE0118
:103310008A579F4F0E94621EBE0169557F4F8FE3FF
:103320009DE00E94D2380E94FF0D61E082E10E9480
:10333000613D61E084E10E94253D60E084E10E94FE
:10334000613D15E060E570E080E090E00E94773C30
:1033500061E08EE00E94253D61E08EE00E94613DCB
:1033600060E570E080E090E00E94773C60E08EE0F5
:103370000E94613D115031F760E08CE00E94613D98
:1033800060E08DE00E94613D61E082E00E94253DA9
:1033900060E082E00E94613D0FB6F894A8958091AC
:1033A0006000886180936000109260000FBEF89406
:1033B000109280008DE08093810087E998E99093D6
:1033C000890080938800109285001092840082E02A
:1033D00080936F001092900085E08093910010928E
:1033E0009500109294007894CE0189559F4F0E94C9
:1033F0008539C954DF4F0FB6F894DEBF0FBECDBF7D
:10340000DF91CF911F910F91FF90EF90DF90CF90C0
:10341000BF90AF909F908F907F906F905F904F90F4
:10342000089569E771E08FE39DE00E94E43810920F
:10343000070172CF90E080E008958091D7099091C4
:10344000D809891B990B08959091D8098091D709C3
:103450002FEF3FEF981748F4E92FF0E0E752F64FCF
:10346000208130E09F5F9093D809C9010895E091D1
:10347000D8098091D709E81730F4F0E0E752F64F09
:10348000808190E008958FEF9FEF08950895CF9386
:10349000DF931F92CDB7DEB769832091B309222352
:1034A000F9F02091B409203258F021E030E0FC011D
:1034B0003383228390E080E00F90DF91CF910895D5
:1034C0008091B509E82FF0E0EA54F64F9981908396
:1034D0008F5F8093B5098093B40981E090E0ECCFD1
:1034E00061E0CE0101960E94E61BF7CFCF92DF92FA
:1034F000EF92FF920F931F93CF93DF937C01CB0149
:103500008A012091B309222389F0EB016B01C40EDB
:10351000D51ECC15DD0569F06991D701ED91FC91BF
:103520000190F081E02DC7010995F3CF642F0E942F
:10353000E61BC801DF91CF911F910F91FF90EF9093
:10354000DF90CF900895CB01BA010C94431B81E02A
:103550008093B3096093D6091092B5091092B4090B
:1035600008950C94A71A0F93062F21E04091B409F7
:1035700066EB79E08091D6090E94961B1092B509FE
:103580001092B4091092B3090F9108954F925F926F
:103590006F927F92AF92BF92CF92EF92FF920F9372
:1035A0001F93CF93DF935C01F62ED42F28013901AE
:1035B000EE2019F10E94A71ACE2DC43008F0C3E006
:1035C000C150B8F028E0C29FC0011124A3019201AC
:1035D00004C056954795379527958A95D2F7B90136
:1035E000D501ED91FC910190F081E02DC501099587
:1035F000E7CF60E0C5010E94B31A4D2FD13208F029
:1036000040E22C2D69ED79E08F2D0E94561B10921F
:10361000D8098093D709DF91CF911F910F91FF9027
:10362000EF90CF90BF90AF907F906F905F904F9052
:103630000895CF92EF920F931F93C22EE12C00E0DA
:1036400010E098010E94C61A1F910F91EF90CF9041
:10365000089521E00C94191B21E00C94191B61E0E2
:103660000C94B31AE7EAF9E01382128288EE93E031
:10367000A0E0B0E084839583A683B7838DE393E0D5
:103680009183808308959B01AC0160E072E18AE739
:1036900090E00E94A33F20513109410951095695FC
:1036A0004795379527952093B80008954132E0F566
:1036B0009091480A9111FCCF91E09093480A209391
:1036C000460A2FEF2093F9097093400A60933F0A4E
:1036D00010923E0A240F20933D0A9093470A90913E
:1036E000470A880F892B8093470A8091450A8130C9
:1036F000C9F41092450A8091470A8093BB008091DB
:10370000BC0083FDF8CF85EC8093BC008091480A13
:103710008130E1F380913E0A841710F440913E0A13
:10372000842F089585EEF0CF40E0FACF0F93413219
:1037300008F044C09091480A9111FCCF92E0909318
:10374000480A0093460A9FEF9093F9097093400A44
:1037500060933F0A10923E0A40933D0A1092470A36
:103760009091470A880F892B8093470A8091450AD8
:10377000813011F51092450A8091470A8093BB0071
:103780008091BC0083FDF8CF85EC8093BC002223A0
:1037900021F08091480A8230D1F38091F9098F3F5E
:1037A00079F08091F909803269F08091F9098033CC
:1037B00059F084E00F91089585EEE7CF81E0FACFCC
:1037C00080E0F8CF82E0F6CF83E0F4CF20911B0AAF
:1037D000260F3327331F21323105ECF42091480A9C
:1037E000FC0190E080E0243069F082E00895A0912F
:1037F0001B0A2191AC01435E554FA40FB52FB11D9B
:103800002C930196861798F380911B0A680F60939A
:103810001B0A80E0089581E0089585ED8093BC0047
:103820008091BC0084FDFCCF1092480A089585EC7D
:103830008093BC001092480A08951F920F920FB611
:103840000F9211240BB60F922F933F934F935F93D8
:103850006F937F938F939F93AF93BF93EF93FF9358
:103860008091B900887F803609F44EC008F041C0CD
:10387000883209F4AAC028F5803109F49EC0C8F442
:10388000882309F407C1883009F497C0FF91EF91AC
:10389000BF91AF919F918F917F916F915F914F9168
:1038A0003F912F910F900BBE0F900FBE0F901F9066
:1038B0001895883109F489C0803241F78093F9095D
:1038C00015C0803409F4A6C048F48033B9F38833B6
:1038D000E9F68093F9090E94171CD8CF803509F4C6
:1038E00089C0883509F49EC0883481F60E940D1C79
:1038F000CDCF883909F494C038F5883729F050F4D1
:10390000883611F0803711F683E08093480A1092D0
:10391000FA0957C0883809F483C0803919F0803813
:1039200009F0B4CF8091FA09803208F079C0E091B3
:10393000FA0981E08E0F8093FA098091BB00F0E0D4
:10394000E550F64F80833DC0803B39F0E0F4803A8B
:1039500009F485C0883A09F099CF84E08093480A39
:1039600010921C0A10921B0AE091430AF091440A3B
:10397000099580911B0A81110FC081E080931B0A79
:1039800010921D0A09C0803C09F482C0883C09F4E9
:103990007FC0883B09F07ACFE0911C0A81E08E0F4E
:1039A00080931C0AF0E0E35EF54F80818093BB00BA
:1039B00090911C0A80911B0A31C08091470A809324
:1039C000BB0085EC8093BC0061CF90913E0A809152
:1039D0003D0A9817B8F580913F0A9091400AE0910E
:1039E0003E0A21E02E0F20933E0AE80FF92FF11D29
:1039F0008081E5CF20913F0A3091400AE0913E0A54
:103A000081E08E0F80933E0A8091BB00E20FF32F7E
:103A1000F11D808390913E0A80913D0A981788F2AB
:103A200085E8D0CF20913F0A3091400AE0913E0ACC
:103A300081E08E0F80933E0A8091BB00E20FF32F4E
:103A4000F11D80838091460A811150CF81E08093DF
:103A5000450A84EA8093BC001092480A17CF0E945E
:103A6000171C8091FA09803230F4E091FA09F0E0F5
:103A7000E550F64F10826091FA0970E0E091410A3A
:103A8000F091420A8BEF99E009951092FA09FECE67
:103A900085ECE0CF1092F90929CFCF93DF931F92E5
:103AA000CDB7DEB76983DC01ED91FC910280F38133
:103AB000E02D41E050E0BE016F5F7F4F09950F9010
:103AC000DF91CF910895CF93DF93EC01E98DFA8DCB
:103AD000309749F481E090E09B838A8390E080E016
:103AE000DF91CF91089513821282898D9A8D0E9461
:103AF000D829E98DFA8D22813381232B59F7F0CF14
:103B0000FC01818D928D009711F00C946727089528
:103B1000CF93DF931F92CDB7DEB741E050E0BE01F7
:103B20006F5F7F4F0E948B25019731F4898190E070
:103B30000F90DF91CF9108958FEF9FEFF9CFFC01A8
:103B4000818D928D009711F00C94881D8FEF9FEF5F
:103B500008950F931F93CF93DF93EC01898D9A8D76
:103B600010E000E0009799F00E94881D8C010F3F43
:103B7000100769F0898D9A8DFC0142855385648513
:103B8000758541505109610971090E94D326C80108
:103B9000DF91CF911F910F910895EF92FF920F93B4
:103BA0001F93CF93DF93EC017B018A011B821A8262
:103BB00088EE93E0A0E0B0E08C839D83AE83BF836A
:103BC0008FE493E0998388838DE190E00E94064022
:103BD0009A8F898F009779F02DE1F701DC01019030
:103BE0000D922A95E1F74CE050E0B801CE010C9619
:103BF0000E943442188EDF91CF911F910F91FF9058
:103C0000EF900895FC011382128288EE93E0A0E009
:103C1000B0E084839583A683B7838FE493E0918398
:103C20008083128E118E14860895DC015996ED91D1
:103C3000FC91309729F06285738584859585089578
:103C40006FEF7FEFCB010895DC015996ED91FC9168
:103C5000309729F06389748985899689089560E091
:103C600070E0CB010895CF92DF92EF92FF92CF9355
:103C7000DF93FC01218D328D232B09F1EC010E9491
:103C8000241E6B017C01CE010E94151EA701960126
:103C9000261B370B480B590BDA01C901811530E897
:103CA0009307A105B10520F08FEF9FE7A0E0B0E0FA
:103CB000DF91CF91FF90EF90DF90CF90089590E04B
:103CC00080E0F6CFCF93DF93EC01898D9A8D00973A
:103CD00041F00E94B027898D9A8D0E94A2401A8ED1
:103CE000198EDF91CF910895DC015996ED91FC91E9
:103CF000309721F081E09581911101C080E0089515
:103D00001F93CF93DF93CDB7DEB76D970FB6F894BF
:103D1000DEBF0FBECDBFAB011C821B8223E633E0AA
:103D20003A8329831E8221E0BC01CE0101960E94C4
:103D3000EB2811E081110CC010E0812F6D960FB6B9
:103D4000F894DEBF0FBECDBFDF91CF911F910895D4
:103D5000CE0101960E94B027F0CFEF92FF920F9311
:103D60001F93CF93DF937B01DB012D913C91FC01ED
:103D7000E20FF31F60816F3211F42F5F3F4F8C0110
:103D8000020F131FEA01F0E0E0E0D8017D918D0100
:103D90007F3249F0772339F02F5F3F4F3196799387
:103DA000EC30F10591F7E40FF51F1082FC01E20FF2
:103DB000F31F40814F3211F42F5F3F4FF7013183E2
:103DC0002083280F391F81E0D9019C91911101C0F6
:103DD00080E0DF91CF911F910F91FF90EF900895B8
:103DE0004F925F926F927F928F929F92AF92BF920B
:103DF000CF92DF92EF92FF920F931F93CF93DF93B7
:103E0000CDB7DEB7C954D1090FB6F894DEBF0FBEE7
:103E1000CDBF5C016B013A01490119A218A283E6EA
:103E200093E09F8F8E8F1BA21C821B829A838983B3
:103E30001E822A961FAE1EAE2A978B017E018EE14E
:103E4000E80EF11C44244394AE01455C5F4FBE0173
:103E5000685B7F4FC5010E94AD1E582E482F442538
:103E60009401BE01655C7F4FC801F3010995811182
:103E700020C00C151D05C9F480E0C75BDF4F0FB6ED
:103E8000F894DEBF0FBECDBFDF91CF911F910F9190
:103E9000FF90EF90DF90CF90BF90AF909F908F906A
:103EA0007F906F905F904F900895C8010E94B02757
:103EB000E3CF552091F021E0AE01455C5F4FB801A2
:103EC000C7010E94EB28582E0C151D0571F0C80182
:103ED0000E94B02751100EC0CFCF0C151D0519F050
:103EE000C8010E94B02781E0C8CF882329F28E0143
:103EF0000F5F1F4F902F812F8701E92EF82EA4CF3F
:103F00000F931F93CF93DF93EC01162F8FA5882378
:103F100021F0CE018A960E94B027412F61E0CE01A8
:103F20000E944D22811102C090E012C08E01045FF8
:103F30001F4F41E0BE01C8010E94122F882371F07B
:103F4000B801CE018A960E943B2591E0882361F357
:103F5000892FDF91CF911F910F91089540E0BE010D
:103F6000C8010E94122F8823F9F2EACFFC01DB017D
:103F700012968D919C9113979383828383E693E0AD
:103F80009183808314968C911497848315968C91D9
:103F90001597858316964D915D916D917C9119973A
:103FA00046835783608771871A964D915D916D9115
:103FB0007C911D9742875387648775871E964D9124
:103FC0005D916D917C91519746875787608B718B7E
:103FD00052968C915297828B53964D915D916D9133
:103FE0007C915697438B548B658B768B57964D916E
:103FF0005D916D917C915A97478B508F618F728F35
:104000005B968D919C91948F838F08954F925F92D0
:104010006F927F928F929F92AF92BF92CF92DF92D8
:10402000EF92FF920F931F93CF93DF93CDB7DEB73D
:10403000C754D1090FB6F894DEBF0FBECDBF5C01E7
:104040004A013901665D7F4F7E018EE1E80EF11C69
:10405000C7010E94B61F1C821B8283E693E09A83ED
:1040600089831E828401FE0131966F015E2C4F2CE4
:104070006FE270E0C8010E942242009709F455C027
:10408000F80120812F3219F40F5F1F4FF1CF801BF1
:104090008D3008F08CE0E82EF12CA701B801CE019C
:1040A000CB960E943442EBE3F0E0EC0FFD1FEE0DE7
:1040B000FF1D1082C6010E94B02721E0AE01455CC1
:1040C0005F4F652D742DC6010E94EB28811121C020
:1040D000F5011382128283E693E091838083158237
:1040E000C501C95BDF4F0FB6F894DEBF0FBECDBF71
:1040F000DF91CF911F910F91FF90EF90DF90CF90C4
:10410000BF90AF909F908F907F906F905F904F90F7
:1041100008950E0D1F1D852D942D0E94B027C201FC
:104120005C2C4D2CC92ED82EA3CF08191909F301E8
:1041300011830083652D742DC5010E94B61FD0CF59
:10414000AF92BF92CF92DF92FF920F931F93CF93C4
:10415000DF93CDB7DEB7C955D1090FB6F894DEBFEE
:104160000FBECDBF6C015B018A01F22E9E01285A61
:104170003F4FCE01CB960E9406206A968EAD9FAD32
:104180006A97080F191FF8018081811110C0BE01C4
:10419000655C7F4FCE0101960E94B61F4DE553E04E
:1041A000BE016F5F7F4FC6010E94CD1D0FC019A2D7
:1041B00018A283E693E09F8F8E8F1BA221968FAD6E
:1041C0002197811115C0C6010E94021EC601C75A5F
:1041D000DF4F0FB6F894DEBF0FBECDBFDF91CF919A
:1041E0001F910F91FF90DF90CF90BF90AF900895F7
:1041F00082508230F8F4B501665D7F4F2F2DA80103
:10420000CE014E960E94EB288823E9F28F2D86700E
:1042100041F049A95AA96BA97CA9CE014E960E94EA
:10422000D326BE01625E7F4FCE0101960E94B61F6B
:10423000A801B6CF2F2DA801BE01655C7F4FCE012E
:104240004E960E94EB28882309F4BDCFCE01CB9671
:104250000E94B027DBCFFB01BC01665D7F4F30E0E1
:1042600020E040E85EE1CF010C94F01EE9E4FAE0C2
:10427000158216821186138682E090E0A0E0B0E0FD
:1042800084879587A687B78713A215A614A683E609
:1042900093E093A782A717A608959FB7F89420915B
:1042A000A00C80919E0C213019F48DBB9FBF089506
:1042B0008FBF08952091A00C222381F03FB7F8947E
:1042C0002091A00C213069F42DB320939E0C4DB3A6
:1042D00020919F0C209524232DBB3FBF8CBD9DBDFD
:1042E000089530939E0CFACF8EBD00000DB407FEEA
:1042F000FDCF8EB508958FEF0C94742161E0FC0121
:1043000084810E94613D8091920A882339F0109245
:10431000920A8091A00C81110C944D210895CF93A5
:10432000DF93EC018091920A811109C081E08093B2
:10433000920A8091930A9091940A0E945A2160E017
:104340008C81DF91CF910C94613DCF93DF93EC0191
:104350008E81882389F08F8198859C012F5F3F4F44
:1043600038872F838230924018F40E947B21F3CF4C
:10437000CE010E947E211E82DF91CF910895673089
:1043800028F026E1FC01258380E00895623079F071
:1043900038F06430A9F090F06530A1F082E508C0F3
:1043A00080E58093930A81E08093940A089580E5E4
:1043B0008093930A1092940A81E0089581E5F1CFE9
:1043C00081E5F6CF82E5EDCF0F931F93CF93DF9377
:1043D000EB010E94463C8B010E947B218F3F69F0DC
:1043E0000E94463C601B710B6C177D07A8F380E0B0
:1043F000DF91CF911F910F91089581E0F9CF8F92B6
:104400009F92AF92BF92FF920F931F93CF93DF9330
:10441000EC01F62E49015A010E94A521CE010E940D
:104420008F216CE271E0CE010E94E4218F2D806427
:104430000E94742108E110E0D501C401002E04C0DF
:10444000B695A795979587950A94D2F70E947421FF
:1044500008501109083F8FEF180771F785E9FF2011
:1044600021F088E0F8120DC087E80E94742110E066
:104470000E947B218A8787FF06C01F3F21F01F5FB4
:10448000F7CF8FEFF2CFDF91CF911F910F91FF9078
:10449000BF90AF909F908F9008958F929F92AF9210
:1044A000BF92EF92FF920F931F93CF93DF93EC0194
:1044B000E62E1B8619861E821D824C830E94463C76
:1044C0008B0161E08C810E94253D61E08C810E941E
:1044D000613D0E94323082E58093930A81E08093AF
:1044E000940A8091930A9091940A0E945A212AE09A
:1044F000F22E8FEF0E947421FA94F110FACF80917E
:10450000A00C81110E944D21CE010E948F2120E03C
:1045100030E0A90160E0CE010E94FF21F82E8A87D9
:1045200081E0F816C1F00E94463C601B710B613DB2
:10453000774068F381E08D83CE010E947E2180E088
:10454000DF91CF911F910F91FF90EF90BF90AF90AF
:104550009F908F9008952AEA31E040E050E068E0B3
:10456000CE010E94FF2182FF25C0FB868B85812C16
:10457000912C5401823029F4812C912CA12C80E4BF
:10458000B82E20E030E0A90167E3CE010E94FF21B0
:10459000A501940169E2CE010E94FF218A87882348
:1045A000C1F00E94463C601B710B613D774048F3AF
:1045B00088E0C1CF94E0F92E0E947B218A87FA948B
:1045C000F110FACF8A3A11F082E0B5CF82E08B8702
:1045D000CDCF8B858230C1F420E030E0A9016AE3C1
:1045E000CE010E94FF21882311F086E0A4CF0E9413
:1045F0007B21807C803C11F483E08B870E947B21AF
:104600000E947B210E947B21CE010E947E216E2D83
:10461000CE01DF91CF911F910F91FF90EF90BF904E
:10462000AF909F908F900C94BF210F931F93CF93C7
:10463000DF93EC010E94463C8B010E947B218A871C
:104640008F3F91F40E94463C601B710B6D327140AC
:10465000A0F38FE08D83CE010E947E2180E0DF9168
:10466000CF911F910F9108958E3F11F08DE0F2CF01
:1046700081E0F5CFCF92DF92EF92FF920F931F93DD
:10468000CF93DF93EC016901C801820F931F813042
:10469000924048F58E81882371F088819981AA81A2
:1046A000BB8184179507A607B70729F48F819885E2
:1046B000C816D90670F5488359836A837B838B8536
:1046C000833039F089E0440F551F661F771F8A95A4
:1046D000D1F79A01AB0161E1CE010E94FF2188234D
:1046E00079F083E08D83CE010E947E2180E0DF910E
:1046F000CF911F910F91FF90EF90DF90CF90089591
:10470000CE010E941523882371F318861F8281E051
:104710008E838F8198858C159D0560F06701E00E72
:10472000F11EEC14FD0471F00E947B21F6018193CF
:104730006F01F7CF0E947B218F8198850196988722
:104740008F83E7CF8F819885080F191F18870F83F4
:104750008985882319F00115124018F0CE010E94B6
:10476000A52181E0C4CFEF92FF920F931F93011513
:10477000110539F00E943A231F910F91FF90EF909D
:10478000089581E0F9CFEF92FF920F931F93790183
:1047900000E012E030E020E00E943A231F910F91E8
:1047A000FF90EF900895EF92FF920F931F93CF9396
:1047B000DF938C01862F7A010E947421E7018EEF2E
:1047C000F81A89910E947421CE15DF05D1F78FEF79
:1047D0000E9474218FEF0E9474210E947B21F801B6
:1047E00082878F71853069F081E18583C8010E94DD
:1047F0007E2180E0DF91CF911F910F91FF90EF908C
:10480000089581E0F7CF0F931F93CF93DF93EC01CF
:10481000890182E1411551056105710599F08B858A
:10482000833039F089E0440F551F661F771F8A9542
:10483000D1F79A01AB0168E1CE010E94FF218823E4
:1048400039F084E08D83CE010E947E2180E023C078
:10485000A8016EEFCE010E94D3238823A1F368E55F
:1048600072E0CE010E94E421811102C085E1EACF0D
:1048700020E030E0A9016DE0CE010E94FF218823F5
:1048800011F084E1DFCF0E947B218111FACFCE01AC
:104890000E947E2181E0DF91CF911F910F910895B9
:1048A000E3E9FAE080E5808381E08183089508955B
:1048B000CF93DF93EC019C012A5F3F4F41E050E032
:1048C00060E070E08B8D9C8D0E94B12D8823A1F05B
:1048D0008F89988DA98DBA8D892B8A2B8B2B59F4B2
:1048E0008E819F81A885B9858F8B988FA98FBA8F6C
:1048F0008C8180688C8381E0DF91CF9108958F92C5
:104900009F92AF92BF92CF92DF92EF92FF92CF939E
:10491000DF93EC010E94582481110CC080E0DF91EC
:10492000CF91FF90EF90DF90CF90BF90AF909F908E
:104930008F900895EB8DFC8DCE80DF80E884F98424
:1049400082E0C81AD108E108F108858504C0CC0CC2
:10495000DD1CEE1CFF1C8A95D2F786859785A08901
:10496000B189C80ED91EEA1EFB1E8481460157017B
:10497000880E911CA11CB11C8C149D04AE04BF04B4
:1049800061F081E0881A9108A108B108C501B4015D
:104990000E94FF2B8111F0CFC1CFEB8DFC8D2585BF
:1049A00080E092E0A0E0B0E004C0880F991FAA1F49
:1049B000BB1F2A95D2F74B895C896D897E89840F4C
:1049C000951FA61FB71F8B8B9C8BAD8BBE8B81E079
:1049D000A6CFCF93DF93EC01462F6E857F85888924
:1049E00099890E94C42B882351F08A8920E2829FF2
:1049F000C00111248256954FDF91CF91089590E028
:104A000080E0FACFFB019B01255F3F4F40E24193DD
:104A10002E173F07E1F7DC0120E037E09D91492F99
:104A2000992319F19E3229F43A3059F028E03AE0FE
:104A3000F5CFE6E8F1E08491882329F031969813C8
:104A4000FACF80E017C03217A8F05FED590F5E353E
:104A500088F48FE9890F8A3110F440EE490FFB0189
:104A6000E20FF11D40832F5FD9CF81E0FB019081E0
:104A7000903239F308950F931F93CF93DF93FC0186
:104A80002581222331F080E0DF91CF911F910F919A
:104A900008958B01EC01FB018789803139F582E0B3
:104AA0008D831F8A188E198E1A8E808D918DB0E09D
:104AB000A0E025E0880F991FAA1FBB1F2A95D1F7F8
:104AC0008B8B9C8BAD8BBE8B1C8F0B8F81E08C8373
:104AD0001E821F82188619861A861B861C861D86D2
:104AE0001E861F86188A198A1A8ACECF803259F6F6
:104AF00083E08D83428D538D648D758D4F8B588FE0
:104B0000698F7A8F9E012D5E3F4FC8010E94A42CB1
:104B10008111DACFB8CF2F923F924F925F926F926E
:104B20007F928F929F92AF92BF92CF92DF92EF923D
:104B3000FF920F931F93CF93DF93EC015B012A0148
:104B40008D81811115C08FEF9FEFDF91CF911F9164
:104B50000F91FF90EF90DF90CF90BF90AF909F901C
:104B60008F907F906F905F904F903F902F9008951F
:104B70008C8180FFE8CF0B891C892D893E894A856D
:104B80005B856C857D85C201B0E0A0E0680179019C
:104B9000C41AD50AE60AF70AC816D906EA06FB06B9
:104BA00018F42801441A550A42011E0126E0220E7B
:104BB000311C8114910409F4B3C04A855B856C856E
:104BC0007D856A0181E0D8228B8D9C8D8A019B01B5
:104BD000E9E03695279517950795EA95D1F7ED8188
:104BE000E230E1F5FC01628D738D848D958D600F4F
:104BF000711F821F931F612C22E0722E6C187D089A
:104C00008614970408F434012C8126FD04C0611435
:104C1000F2E07F0671F400910801109109012091E2
:104C20000A0130910B01061717072807390709F009
:104C300053C040E00E94C42B882309F484CFC601EE
:104C40008256954FD5019C01260D371DFC012E176C
:104C50003F0709F460C041914D93F9CFFC01748086
:104C60007A947022C114D10471F471100CC0452BD8
:104C7000462B472B39F58F89988DA98DBA8D8E8358
:104C80009F83A887B987EB8DFC8D6E817F81888596
:104C900099856250710981099109258504C0660FC3
:104CA000771F881F991F2A95D2F7068517852089B7
:104CB0003189600F711F821F931F670D711D811D48
:104CC000911D99CF4E815F816885798591010E9400
:104CD000232C8111D8CF37CF750183019601AB0109
:104CE000BC0180919C0A90919D0A0E94B323882365
:104CF00009F429CFA60CB71C8A859B85AC85BD8598
:104D0000860D971DA11DB11D8A879B87AC87BD8726
:104D1000861897084ECF281B390BA20EB31EECCF76
:104D2000C20113CFFF920F931F93CF93DF931F9274
:104D3000CDB7DEB7FC0125812230C8F08C01428559
:104D400053856485758585E0769567955795479574
:104D50008A95D1F7F42FFF70FF2E41E050E0BE019D
:104D60006F5F7F4FC8010E948B25019719F090E07B
:104D700080E012C0F80182859385A485B5854F96A1
:104D8000A11DB11D82879387A487B587F0E2FF9E9E
:104D9000C00111248256954F0F90DF91CF911F9142
:104DA0000F91FF9008958F929F92AF92BF92CF92F2
:104DB000DF92EF92FF920F931F93CF93DF93EC015B
:104DC0008D8181110EC080E0DF91CF911F910F91F5
:104DD000FF90EF90DF90CF90BF90AF909F908F901B
:104DE00008950B891C892D893E890417150726070C
:104DF000370748F34A015B01823031F48A869B868B
:104E0000AC86BD8681E0E0CF81149104A104B10499
:104E100049F41E821F82188619861A861B861C86F4
:104E20001D86F0CF0A851B852C853D85EB8DFC8D7D
:104E3000858590E00996B901A801415051096109A1
:104E40007109082E04C076956795579547950A9481
:104E5000D2F775016401E1E0CE1AD108E108F1084A
:104E600004C0F694E794D794C7948A95D2F7C416F1
:104E7000D506E606F70620F0012B022B032B11F5D1
:104E80008F89988DA98DBA8D8E839F83A887B987C6
:104E90008E010A5F1F4FC114D104E104F10409F42B
:104EA000ADCF4E815F816885798598018B8D9C8D12
:104EB0000E94232C91E0C91AD108E108F108811160
:104EC000EACF81CFC41AD50AE60AF70AE1CF0F93D9
:104ED0001F93CF93DF93EC018D818823D9F18C81CF
:104EE00087FF32C061E0CE010E94E9248C01892B4A
:104EF00089F18D81823048F48B899C89AD89BE8986
:104F0000F801848F958FA68FB78F8F89988DF801C0
:104F1000938F828F8F89988DA98DBA8DB58BA48B35
:104F2000E091950AF091960A309759F0B8016A5EBF
:104F30007F4FC80148960995F801808D918D938B1C
:104F4000828B8C818F778C83DF91CF911F910F9112
:104F50000C94892B80E0DF91CF911F910F910895E0
:104F6000CF93DF93EC010E946727882311F01D8205
:104F700081E0DF91CF9108954F925F926F927F927F
:104F80008F929F92AF92BF92EF92FF920F931F93D7
:104F9000CF93DF9300D000D0CDB7DEB7FC01858181
:104FA0008130A1F080E00F900F900F900F90DF9173
:104FB000CF911F910F91FF90EF90BF90AF909F9076
:104FC0008F907F906F905F904F900895848181FFC4
:104FD000E9CF83899489A589B68984179507A6079F
:104FE000B70700F3892B8A2B8B2B09F477C04A0172
:104FF0005B017F014284538464847584CF010E94E5
:10500000D326882379F2F701838D948D811491043E
:10501000A104B10449F54789508D618D728D0E94BC
:10502000BC2E882309F4BECFF701178A108E118E8B
:10503000128EF701838A948AA58AB68A8481806851
:105040008483C7010E946727882309F4ABCFB50189
:10505000A401441655066606770610F4B301A201B2
:10506000C7010E94D3269FCF4681578160857185F5
:105070009E012F5F3F4F0E94232C882309F492CF7B
:10508000F701838D948D49815A816B817C81FC016C
:1050900027892031F1F408EF1FEF20E030E04017BE
:1050A00051076207730728F60E94BC2E882309F473
:1050B00079CFF70146815781608571850FEF1FEF2A
:1050C0002FEF3FE0838D948D0E940F2D8111B1CF82
:1050D00069CF08EF1FEF2FEF3FE0E1CF81E063CF13
:1050E000CF92DF92EF92FF921F93CF93DF93EC0169
:1050F00080E2689FF0011124E256F54F938591718B
:1051000061F0842F827449F080E0DF91CF911F918C
:10511000FF90EF90DF90CF900895142F6A8B8091CD
:10512000080190910901A0910A01B0910B018E87AD
:105130009F87A88BB98BC488D588F12CE12C760188
:10514000DD24CC24CF8AD88EE98EFA8E828D938D81
:10515000B0E0A0E0AC01BD014C295D296E297F299A
:105160004F8B588F698F7A8F8385887129F5848D4D
:10517000958DA68DB78D8B8B9C8BAD8BBE8B81E077
:105180008D83812F8F708C831E821F8218861986D3
:105190001A861B861C861D8681E016FFB6CF40E06E
:1051A00050E0BA01CE01DF91CF911F91FF90EF90B7
:1051B000DF90CF900C94BC27803109F0A5CF9E01E1
:1051C0002D5E3F4F8B8D9C8D0E94A42C882309F46B
:1051D0009BCF84E0D5CFBF92CF92DF92EF92FF9228
:1051E0000F931F93CF93DF93CDB7DEB72B970FB6F7
:1051F000F894DEBF0FBECDBFFC01358131110BC06D
:10520000C22E8B017C01BE016F5F7F4FCA010E94DD
:105210000225811102C080E0A1C0F801838D948D28
:10522000F701948F838FF8011682178210861186FA
:105230001286138614861586B12CF8018285938513
:10524000A485B5854389548965897689841795072E
:10525000A607B70788F525E0B695A7959795879592
:105260002A95D1F7F82FFF70DF2EC8010E949226F1
:10527000009789F2FC012081222341F0253E09F0AC
:1052800059C0BB2029F0BB24B394D7CFB1100EC0B6
:10529000F701D28A409108015091090160910A01F9
:1052A00070910B0146875787608B718BFC01808161
:1052B0008111E9CFBB24B3948C2D8271823109F026
:1052C000AACFBB2009F45AC061E0C7010E94E924BB
:1052D0008C01892B09F49FCF80E2F80111928A9505
:1052E000E9F78BE0FE013196D80101900D928A9585
:1052F000E1F7E091950AF091960A309709F44EC0D3
:10530000B801625F7F4FC80140960995F801808916
:105310009189938B828B918F808F86859785978BD0
:10532000868B0E94892B882309F475CF4C2DF701B9
:10533000628911C04BE050E0BC01CE0101960E9491
:105340000C42892B09F079CF8C2D80734C2D6D2D5B
:10535000803309F460CFC7010E9470282B960FB6E6
:10536000F894DEBF0FBECDBFDF91CF911F910F919B
:10537000FF90EF90DF90CF90BF900895F801858166
:10538000823009F448CFC8010E947F24882309F4A1
:1053900042CFF701128A0EE91AE09ECF81E298E22D
:1053A000F801918B808B80E098E097878687AECF5D
:1053B0002F923F924F925F926F927F928F929F9225
:1053C000AF92BF92CF92DF92EF92FF920F931F9313
:1053D000CF93DF9300D000D0CDB7DEB78C016B0147
:1053E0001A01DC0115968C911597813009F0C8C01F
:1053F00014968C9181FFC4C082FDAEC04101D801DA
:105400001A964D915D916D917C911D978114910437
:1054100009F429C15B968D919C915C97FC01748085
:105420002FEF270D2A013B0139E0769467945794BA
:1054300047943A95D1F7722E74207A01F1E0FF2259
:10544000711020C0E114F104E9F416964D915D91BC
:105450006D917C911997411551056105710509F010
:1054600098C057968D919D910D90BC91A02D00975D
:10547000A105B10509F0AFC0C8010E9458248823D6
:1054800009F47EC080E092E08E199F0954018815CE
:10549000990508F45C01D8015B964D915C915C978D
:1054A00016968D919D910D90BC91A02D0297A1090A
:1054B000B109FA01258504C0880F991FAA1FBB1FD7
:1054C0002A95D2F74685578560897189840F951F83
:1054D000A61FB71F9C01AD01270D311D411D511D98
:1054E00029013A01A11432E0B30609F07AC0809193
:1054F000080190910901A0910A01B0910B01841556
:105500009505A605B70559F48FEF9FEFDC01809351
:10551000080190930901A0930A01B0930B01960131
:10552000B301A20180919C0A90919D0A0E940324DC
:10553000882331F19EEFD91A8A189B08F8018285D9
:105540009385A485B5858A0D9B1DA11DB11D8287FC
:105550009387A487B58753CFF80143895489658918
:10556000768982859385A485B585481759076A078A
:105570007B0709F443CFC8010E94D32681113ECF97
:1055800081E090E0D80113969C938E93129780E06F
:1055900007C09E012F5F3F4F0E94232C811102C044
:1055A00090E07BC089819A81AB81BC81F801238D19
:1055B000348DF901278948EF5FEF60E070E020311A
:1055C00021F048EF5FEF6FEF7FE084179507A607A4
:1055D000B70708F051CFF80186839783A087B1877A
:1055E00051CFE114F10491F5D8011A964D915D91D6
:1055F0006D917C911D9753968D919D910D90BC91CD
:10560000A02D481759076A077B0700F10E94892BD4
:10561000882309F4B5CF40920801509209016092A5
:105620000A0170920B0180919B0A816080939B0A12
:1056300097012256354FD601C9018A0D9B1DF901EC
:105640008E179F0759F04D914193FACF41E0C30166
:10565000B2010E94C42B8111EBCF92CF821B930B1E
:10566000C80ED91E69CF14968C9114975396CD907D
:10567000DD90ED90FC905697C416D506E606F70629
:1056800018F5F801438B548B658B768B8068848387
:10569000F801848183FD25C0C1010F900F900F9008
:1056A0000F90DF91CF911F910F91FF90EF90DF90BE
:1056B000CF90BF90AF909F908F907F906F905F90B2
:1056C0004F903F902F9008952091950A3091960A1F
:1056D000232BF1F221143104D9F2806814968C93B3
:1056E000D7CFC8010E946727882309F449CFD4CFB8
:1056F000CF93DF931F92CDB7DEB7698341E050E0CF
:10570000BE016F5F7F4F0E94D8290F90DF91CF912C
:10571000089580919B0A8823A9F140910801509136
:10572000090160910A0170910B012EE93AE0809124
:105730009C0A90919D0A0E940324811102C080E07E
:1057400008954091970A5091980A6091990A709132
:105750009A0A411551056105710591F02EE93AE06B
:1057600080919C0A90919D0A0E940324882339F31A
:105770001092970A1092980A1092990A10929A0A17
:1057800010929B0A81E00895CF92DF92EF92FF92F0
:10579000CF936B017C01C42F809108019091090186
:1057A000A0910A01B0910B018C159D05AE05BF05B6
:1057B000F9F00E94892B811107C080E0CF91FF9002
:1057C000EF90DF90CF9008952EE93AE0B701A6015F
:1057D00080919C0A90919D0A0E94C323882369F3BB
:1057E000C0920801D0920901E0920A01F0920B01E7
:1057F00040919B0A4C2B40939B0A81E0DFCFCF92D4
:10580000DF92EF92FF926B017C010E94892B88232B
:10581000A9F0EEE9FAE011928CE0EE39F807D9F739
:10582000C0920801D0920901E0920A01F0920B01A6
:1058300080919B0A816080939B0A81E0FF90EF90AA
:10584000DF90CF9008958F929F92AF92BF92CF92A8
:10585000DF92EF92FF920F931F93CF93DF93FC01A0
:1058600081859285A385B4850196A11DB11D8417FC
:105870009507A607B70770F480E0DF91CF911F91DD
:105880000F91FF90EF90DF90CF90BF90AF909F90DF
:105890008F90089583889488A588B68887898031F9
:1058A00089F5BB27A72F962F852FE9016A017B0178
:1058B0008F01BC01CD01680D791D8A1D9B1D809053
:1058C000080190900901A0900A01B0900B01861682
:1058D0009706A806B90601F5F8018789803111F508
:1058E000DD24EE24FF24F601EE0FFF1FE256F54FF4
:1058F00080819181B0E0A0E088839983AA83BB83F3
:1059000081E0BBCFDB01CA01C7E0B695A7959795AB
:105910008795CA95D1F7C9CF40E00E94C42B811169
:10592000DBCFAACFE894C7F8DD24EE24FF24F601EC
:10593000EE0FFF1FEE0FFF1FE256F54F80819181A2
:10594000A281B381BF70D8CF4F925F926F927F9246
:10595000AF92BF92CF92DF92EF92FF920F931F937D
:10596000CF93DF9300D000D0CDB7DEB78C01498351
:105970005A836B837C835901C12CD12C7601412C35
:1059800082E0582E612C712C49815A816B817C8177
:105990009E012F5F3F4FC8010E94232C882339F1BD
:1059A000F8018585A301920104C0220F331F441F13
:1059B000551F8A95D2F7DA01C901C80ED91EEA1E11
:1059C000FB1E49815A816B817C818789803111F16D
:1059D00088EF9FEFAFEFBFE0481759076A077B07D3
:1059E00098F2F501C082D182E282F38281E00F90C9
:1059F0000F900F900F90DF91CF911F910F91FF901B
:105A0000EF90DF90CF90BF90AF907F906F905F90BE
:105A10004F90089588EF9FEFA0E0B0E0DDCF4F9268
:105A20005F926F927F928F929F92AF92BF92CF922E
:105A3000DF92EF92FF920F931F93CF93DF93EC01CE
:105A4000423051056105710590F480E0DF91CF91FE
:105A50001F910F91FF90EF90DF90CF90BF90AF908C
:105A60009F908F907F906F905F904F900895898561
:105A70009A85AB85BC850196A11DB11D841795073C
:105A8000A607B70710F3CB88DC88ED88FE888F89DE
:105A9000803109F042C0BB27A72F962F852F4801E0
:105AA00059012A013B01C80ED91EEA1EFB1E809136
:105AB000080190910901A0910A01B0910B01C8164B
:105AC000D906EA06FB0699F58F898031C1F5B30145
:105AD000A201552766277727440F551F4256554F79
