:100000000C940C010C9436010C9436010C943601BE
:100010000C9436010C9436010C9436010C94360184
:100020000C9436010C9436010C9436010C94360174
:100030000C9436010C9456190C9436010C9436012C
:100040000C9436010C9436010C9420170C94360154
:100050000C94F4170C94CA170C9436010C943601C6
:100060000C9436010C9436010C942A180C94360129
:100070000C9494170C946A170C9436010C94360166
:100080000C9436010C9436010C94360100407A1021
:10009000F35A00A0724E18090010A5D4E80000E839
:1000A0007648170000E40B54020000CA9A3B000097
:1000B00000E1F505000080969800000040420F0026
:1000C0000000A08601000000102700000000E803E7
:1000D000000000006400000000000A0000000000B2
:1000E0000100000000002C76D888DC674F0823DF71
:1000F000C1DFAE59E1B1B796E5E3E453C63AE65144
:10010000997696E8E6C28426EB898C9B62ED407C6A
:100110006FFCEFBC9C9F40F2BAA56FA5F490055A06
:100120002AF75C936B6CF9676DC11BFCE0E40D472B
:10013000FEF520E6B500D0ED902E0300943577054E
:100140000080841E080000204E0A000000C80C3306
:100150003333330F986E12831141EF8D2114893B95
:10016000E65516CFFEE6DB18D1844B381BF77C1D15
:10017000901DA4BBE424203284725E228100C9F168
:1001800024ECA1E53D277C3C3E5E2B3D3F2F5B5D93
:100190003B2C2A225C0000002200250028002B00B6
:1001A00000002000230026002900000000020300B8
:1001B0000A0B000000000504090800000000000010
:1001C00000000000000000000000000021002400EA
:1001D00027002A00010204081020408001020408C0
:1001E0001020408001020408102040800102040811
:1001F00010204080020202020202020204040404EF
:1002000004040404030303030303030301010101C2
:10021000010101017019E02311241FBECFEFD0E4CA
:10022000DEBFCDBF2AE0A8E2B2E001C01D92AA382D
:10023000B207E1F712E0A0E0B1E0EEE6F5E500E09C
:100240000BBF02C007900D92A832B107D9F711E099
:10025000CBE0D1E004C02197FE010E94F727CA300D
:10026000D107C9F70E94FC190C94AA2A0C9400002B
:100270000CB405FC0DC01EBC00000DB407FEFDCF84
:100280009EB51EBC00000DB407FEFDCF8EB50895CF
:100290001EBC00000DB407FEFDCF8EB51EBC0000D5
:1002A0000DB407FEFDCF9EB508959091E2088091B0
:1002B000E1082FEF3FEF981748F4E92FF0E0EF53F4
:1002C000F74F208130E09F5F9093E208C9010895C5
:1002D0009091E2088091E1082FEF3FEF981748F4E2
:1002E000E92FF0E0EF53F74F208130E09F5F9093CC
:1002F000E208C9010895982F8091C0088111FCCFB0
:1003000081E08093C0088093BF082FEF2093BE0840
:1003100021EC38E03093BD082093BC081092BB0854
:100320002FEF260F2093BA088093B9088091B9085F
:10033000990F982B9093B9088091B8088130C9F42F
:100340001092B8088091B9088093BB008091BC00DE
:1003500083FDF8CF85EC8093BC008091C00881308C
:10036000E1F38091BB08861710F46091BB08862FDB
:10037000089585EEF0CF91E09093B7088093B6088A
:100380001092B5081092B40808959091B40881E0D5
:10039000913208F043C08091C0088111FCCF809158
:1003A000B60822E02093C00821E02093BF082FEF79
:1003B0002093BE0824E938E03093BD082093BC08A0
:1003C0001092BB089093BA081092B9089091B9089E
:1003D000880F892B8093B9088091B808813029F55E
:1003E0001092B8088091B9088093BB008091BC003E
:1003F00083FDF8CF85EC8093BC008091C0088230EB
:10040000E1F38091BE088F3F91F08091BE08803269
:1004100081F08091BE08803371F084E01092B508BD
:100420001092B4081092B708089585EEE4CF80E0EA
:10043000F5CF82E0F3CF83E0F1CF82508A3088F5A8
:10044000E82FF0E0EA5DFD4F0C94F7274E025202D0
:1004500030023602510251023A02400244024A027C
:10046000809180008F778093800008958091800034
:100470008F7DF9CF8091B0008F778093B000089581
:100480008091B0008F7DF9CF809190008F7780931D
:1004900090000895809190008F7DF9CF84B58F777B
:1004A00084BD089584B58F7DFBCFCF93DF93282F34
:1004B00030E0F901E655FE4F8491F901EC52FE4F10
:1004C000D491F901EC50FE4FC491CC23A1F08111DD
:1004D0000E941D02EC2FF0E0EE0FFF1FE056FE4FD2
:1004E000A591B491EC91ED2381E090E009F480E0D6
:1004F000DF91CF91089580E090E0FACF1F93CF93E2
:10050000DF93282F30E0F901E655FE4F8491F90181
:10051000EC52FE4FD491F901EC50FE4FC491CC2324
:10052000A9F0162F81110E941D02EC2FF0E0EE0FB2
:10053000FF1FEA56FE4FA591B4918FB7F894EC9146
:10054000111108C0D095DE23DC938FBFDF91CF91CE
:100550001F910895DE2BF8CFCF93DF9390E0FC013D
:10056000EC52FE4F24918C509E4FFC0184918823C5
:10057000D1F090E0880F991FFC01E653FE4FA59142
:10058000B491FC01EA56FE4FC591D49161110EC0A1
:100590009FB7F8948C91E22FE0958E238C9328815D
:1005A000E223E8839FBFDF91CF9108958FB7F8943E
:1005B000EC91E22BEC938FBFF6CF00000000880F88
:1005C000991F05970197F1F708953FB7F894809127
:1005D0008D0690918E06A0918F06B091900626B55B
:1005E000A89B05C02F3F19F00196A11DB11D3FBF6B
:1005F000BA2FA92F982F8827BC01CD01620F711D3A
:10060000811D911D43E0660F771F881F991F4A9532
:10061000D1F708958F929F92AF92BF92CF92DF92BF
:10062000EF92FF924B015C010E94E5026B017C019D
:100630000E94E5026C197D098E099F09683E73408E
:1006400081059105A8F321E0821A9108A108B1085B
:1006500088EEC80E83E0D81EE11CF11C81149104C1
:10066000A104B10429F7FF90EF90DF90CF90BF90E5
:10067000AF909F908F9008952FB7F894609189065E
:1006800070918A0680918B0690918C062FBF0895F9
:10069000AF92BF92CF92DF92EF92FF920F931F9390
:1006A000CF93DF936C017B018B01040F151FEB01CE
:1006B0005E01AE18BF08C017D10759F06991D60185
:1006C000ED91FC910190F081E02DC6010995892BF7
:1006D00079F7C501DF91CF911F910F91FF90EF90B6
:1006E000DF90CF90BF90AF900895FC01538D448D63
:1006F000252F30E0842F90E0821B930B541710F0CD
:10070000CF96089501970895FC01918D828D9817D9
:1007100061F0A28DAE0FBF2FB11D5D968C91928DB1
:100720009F5F9F73928F90E008958FEF9FEF0895E2
:10073000FC01918D828D981731F0828DE80FF11DAB
:10074000858D90E008958FEF9FEF0895FC01918DC6
:10075000228D892F90E0805C9F4F821B91098F73BF
:100760009927089583EE98E00E94A60321E0892B43
:1007700009F420E0822F089580E899E00E94A60302
:1007800021E0892B09F420E0822F0895FC01A48D3B
:10079000A80FB92FB11DA35ABF4F2C91848D90E0A3
:1007A00001968F739927848FA689B7892C93A08986
:1007B000B1898C91837080648C93938D848D981310
:1007C00006C00288F389E02D80818F7D80830895A3
:1007D000EF92FF920F931F93CF93DF93EC0181E091
:1007E000888F9B8D8C8D98131AC0E889F989808138
:1007F00085FF15C09FB7F894EE89FF896083E8896B
:10080000F98980818370806480839FBF81E090E05C
:10081000DF91CF911F910F91FF90EF900895F62EE9
:100820000B8D10E00F5F1F4F0F731127E02E8C8D83
:100830008E110CC00FB607FCFACFE889F9898081C8
:1008400085FFF5CFCE010E94C603F1CFEB8DEC0FF3
:10085000FD2FF11DE35AFF4FF0829FB7F8940B8FE5
:10086000EA89FB8980818062CFCFCF93DF93EC014F
:10087000888D8823B9F0AA89BB89E889F9898C9188
:1008800085FD03C0808186FD0DC00FB607FCF7CF44
:100890008C9185FFF2CF808185FFEDCFCE010E9444
:1008A000C603E9CFDF91CF91089580E090E0892BD6
:1008B00029F00E94BC0381110E94000080E090E0BA
:1008C000892B29F00E94B20381110C940000089535
:1008D0008FB7F894809172028FBF089561E0FC0198
:1008E00084810E947E0280917102811110927102B6
:1008F00008958EBD00000DB407FEFDCF8EB508959E
:100900008FEF0C9479040F931F93CF93DF93EC0137
:100910000E943C038B010E9480048F3F69F00E947B
:100920003C03601B710B6C177D07A8F380E0DF911F
:10093000CF911F910F91089581E0F9CF8CBD9DBD9E
:100940000895CF93DF93EC0180917102811109C06A
:1009500081E08093710280911D0A90911E0A0E948D
:100960009E0460E08C81DF91CF910C947E028F9287
:100970009F92AF92BF92FF920F931F93CF93DF93FB
:10098000EC01F62E49015A018E81882389F08F816E
:1009900098859C012F5F3F4F38872F83823092408C
:1009A00018F40E948004F3CFCE010E946E041E82D0
:1009B000CE010E94A1048CE291E00E9483048F2D5D
:1009C00080640E94790408E110E0D501C401002E82
:1009D00004C0B695A795979587950A94D2F70E947B
:1009E000790408501109083F8FEF180771F785E95E
:1009F000FF2021F028E087E8F2128FEF0E947904AF
:100A000010E00E9480048A8787FF04C01F3F11F016
:100A10001F5FF7CFDF91CF911F910F91FF90BF9094
:100A2000AF909F908F900895AF92BF92CF92DF9238
:100A3000EF92FF920F931F93CF93DF93EC01690125
:100A4000C801820F931F8130924050F58E81882318
:100A500079F088819981AA81BB8184179507A607BF
:100A6000B70731F48F819885C816D90608F042C0BF
:100A7000488359836A837B838B85833039F089E08F
:100A8000440F551F661F771F8A95D1F79A01AB0156
:100A900061E1CE010E94B704882389F083E08D8351
:100AA000CE010E946E0480E0DF91CF911F910F91E3
:100AB000FF90EF90DF90CF90BF90AF9008950E948D
:100AC0003C035B010E9480048A878F3F69F40E9487
:100AD0003C036A197B096D327140A0F38FE08D836E
:100AE000CE010E946E04DCCF8E3F89F418861F82EF
:100AF00081E08E838F8198858C159D0550F40E942E
:100B000080048F819885019698878F83F3CF8DE03D
:100B1000E6CF6701E00EF11E0E948004F60181938A
:100B20006F01EE15FF05C1F78F819885080F191F1A
:100B300018870F838985882319F001151240A0F0CA
:100B40008E81882389F08F8198859C012F5F3F4F8C
:100B500038872F838230924018F40E948004F3CFAC
:100B6000CE010E946E041E8281E09ECFEF92FF9222
:100B70000F931F93CF93DF93EC01790182E141152D
:100B800051056105710599F08B85833039F089E055
:100B9000440F551F661F771F8A95D1F79A01AB0145
:100BA00068E1CE010E94B704882319F084E08D83A8
:100BB00030C08EEF0E94790487018EEFF81AF80199
:100BC00081918F010E9479040E151F05C1F78FEFE7
:100BD0000E9479048FEF0E9479040E9480048A8722
:100BE0008F71853089F488E592E00E948304882320
:100BF000A9F020E030E0A9016DE0CE010E94B70429
:100C0000882371F084E1D3CF81E18D83CE010E94EE
:100C10006E04CE010E946E0480E00AC085E1C7CF59
:100C20000E9480048111EECFCE010E946E0481E00B
:100C3000DF91CF911F910F91FF90EF900895CF9387
:100C4000DF93809173028823A9F1C0919208D0911B
:100C5000930840910001509101016091020170914F
:100C6000030122E936E0CE010E94B605811104C0DD
:100C700080E0DF91CF910895409174025091750208
:100C800060917602709177024115510561057105F9
:100C900079F022E936E0CE010E94B605882341F3BF
:100CA00010927402109275021092760210927702DE
:100CB0001092730281E0DDCF8F929F92AF92BF922C
:100CC000EF92FF920F931F93CF934B015C01C42FC0
:100CD0008091000190910101A0910201B091030166
:100CE00088159905AA05BB0549F10E941F068111C7
:100CF0000BC080E0CF911F910F91FF90EF90BF90BC
:100D0000AF909F908F90089582E9E82E86E0F82EAC
:100D100000E012E030E020E0B501A40180919208EB
:100D2000909193080E941405882319F38092000182
:100D300090920101A0920201B092030140917302CE
:100D40004C2B4093730281E0D5CF8F929F92AF924C
:100D5000BF92CF92DF92EF92FF92CF932FE13AE0D2
:100D60003093930820939208882309F46DC040E0E3
:100D700060E070E0CB010E945C0681110BC080E056
:100D8000CF91FF90EF90DF90CF90BF90AF909F906A
:100D90008F900895809150088F7789F780915C0833
:100DA00090915D08A0915E08B0915F08843691052E
:100DB000A105B10520F3C0905808D0905908E090E3
:100DC0005A08F0905B08C114D104E104F104B9F2AF
:100DD00040E0C701B6010E945C06882381F2809141
:100DE0009D0690919E068115924049F6A091A2061B
:100DF000AA2329F26091A0067091A10661157105E0
:100E000009F4BDCF20919F06222309F4B8CFA09307
:100E10003D0A20932F0A90E080E030E0E1E0F0E02E
:100E2000C82FAF01082E02C0440F551F0A94E2F7E5
:100E30002417350769F041E0480F01968930910584
:100E400079F74093380A9BCFC12CD12C7601C0CFC3
:100E50008093380A2091A8063091A90650E040E01E
:100E60002115310541F42091B6063091B706409125
:100E7000B8065091B9062093300A3093310A409356
:100E8000320A5093330A46015701860E971EA11C61
:100E9000B11C80923E0A90923F0AA092400AB09202
:100EA000410AE091A306F091A406F093440AE0936E
:100EB000430AB0E00E94BB27DC01CB01880D991DDD
:100EC000AA1DBB1D8093450A9093460AA093470A2A
:100ED000B093480A25E0EE0FFF1F2A95E1F7E15095
:100EE000FE4FEF2FFF27E6958E0F9F1FA11DB11D0F
:100EF0008093390A90933A0AA0933B0AB0933C0A34
:100F00008090A5069090A606B12CA12C8114910486
:100F100041F48090B2069090B306A090B406B090D1
:100F2000B506C81AD90AEA0AFB0AC80CD91CEA1C79
:100F3000FB1C04C0F694E794D794C794CA95D2F7E3
:100F4000C092340AD092350AE092360AF092370AFB
:100F500085EFC8168FE0D806E104F10428F48CE090
:100F60008093420A81E00CCF80E125EFC2162FEF7B
:100F7000D206E104F104A0F38091BE069091BF0671
:100F8000A091C006B091C1068093450A9093460A8D
:100F9000A093470AB093480A80E2E2CF4F925F9253
:100FA0006F927F928F929F92AF92BF92CF92DF9279
:100FB000EF92FF920F931F93CF93DF93EC01423098
:100FC00051056105710590F480E0DF91CF911F918B
:100FD0000F91FF90EF90DF90CF90BF90AF909F90D8
:100FE0008F907F906F905F904F90089589859A853C
:100FF000AB85BC850196A11DB11D84179507A60779
:10100000B70710F3CB88DC88ED88FE888F898031A4
:1010100009F042C0BB27A72F962F852F4801590101
:101020002A013B01C80ED91EEA1EFB1E8091000159
:1010300090910101A0910201B0910301C816D90657
:10104000EA06FB0699F58F898031C1F5B301A2014B
:10105000552766277727440F551F4E56594FFA01DB
:1010600091828082809173028160809373028A8969
:10107000823080F08D819E81AF81B8858C0D9D1D61
:10108000AE1DBF1D8093740290937502A0937602EB
:10109000B093770281E099CFDB01CA01E7E0B69512
:1010A000A79597958795EA95D1F7B8CF40E0C70106
:1010B000B6010E945C068111C6CF86CFB301A201A2
:1010C0004F77552766277727440F551F440F551F25
:1010D0004E56594FFA0180829182A282B382C2CFCA
:1010E0008F929F92AF92BF92CF92DF92EF92FF9238
:1010F0000F931F93CF93DF93FC0181859285A38586
:10110000B4850196A11DB11D84179507A607B707E1
:1011100070F480E0DF91CF911F910F91FF90EF90DD
:10112000DF90CF90BF90AF909F908F90089583886D
:101130009488A588B6888789803189F5BB27A72F31
:10114000962F852FE9016A017B018F01BC01CD013A
:10115000680D791D8A1D9B1D8090000190900101F2
:10116000A0900201B090030186169706A806B90662
:1011700001F5F8018789803111F5DD24EE24FF2483
:10118000F601EE0FFF1FEE56F94F80819181B0E01E
:10119000A0E088839983AA83BB8381E0BBCFDB0176
:1011A000CA01C7E0B695A79597958795CA95D1F7D7
:1011B000C9CF40E00E945C068111DBCFAACFE89442
:1011C000C7F8DD24EE24FF24F601EE0FFF1FEE0F1B
:1011D000FF1FEE56F94F80819181A281B381BF70CC
:1011E000D8CF4F925F926F927F92AF92BF92CF9281
:1011F000DF92EF92FF920F931F93CF93DF9300D074
:1012000000D0CDB7DEB78C0149835A836B837C83D2
:101210005901C12CD12C7601412C82E0582E612C31
:10122000712C49815A816B817C819E012F5F3F4FD8
:10123000C8010E947008882339F1F8018585A3014F
:10124000920104C0220F331F441F551F8A95D2F705
:10125000DA01C901C80ED91EEA1EFB1E49815A8156
:101260006B817C818789803111F188EF9FEFAFEF2F
:10127000BFE0481759076A077B0798F2F501C0825B
:10128000D182E282F38281E00F900F900F900F9055
:10129000DF91CF911F910F91FF90EF90DF90CF9052
:1012A000BF90AF907F906F905F904F90089588EFC0
:1012B0009FEFA0E0B0E0DDCF8F929F92AF92BF9200
:1012C000CF92DF92EF92FF920F931F93CF93DF9312
:1012D000EC018D8181110EC080E0DF91CF911F91D3
:1012E0000F91FF90EF90DF90CF90BF90AF909F90C5
:1012F0008F9008950B891C892D893E890417150745
:101300002607370748F34A015B01823031F48A86A9
:101310009B86AC86BD8681E0E0CF81149104A10458
:10132000B10449F41E821F82188619861A861B860C
:101330001C861D86F0CF0A851B852C853D85EB8D8F
:10134000FC8D858590E00996B901A80141505109AD
:1013500061097109082E04C07695679557954795E0
:101360000A94D2F775016401E1E0CE1AD108E108D0
:10137000F10804C0F694E794D794C7948A95D2F7FD
:10138000C416D506E606F70620F0012B022B032B28
:1013900011F58F89988DA98DBA8D8E839F83A8872B
:1013A000B9878E010A5F1F4FC114D104E104F10413
:1013B00009F4ADCF4E815F816885798598018B8D69
:1013C0009C8D0E94700891E0C91AD108E108F108CB
:1013D0008111EACF81CFC41AD50AE60AF70AE1CF14
:1013E0003F924F925F926F927F928F929F92AF92B5
:1013F000BF92CF92DF92EF92FF920F931F93CF9302
:10140000DF93CDB7DEB72C970FB6F894DEBF0FBED3
:10141000CDBF5C01DC015B968D909C905C9716962D
:101420004D905D906D907C9019974114510461042A
:10143000710409F468C0BFEF4B1A5B0A6B0A7B0AA0
:10144000312CF40181859285A385B4859C01AD0181
:101450002F5F3F4F4F4F5F4F29873A874B875C87FE
:10146000730162011D821E821F821886F40181852C
:101470009285A385B4852D813E814F81588528179B
:1014800039074A075B0708F056C089859A85AB85FE
:10149000BC858C159D05AE05BF0550F482E0C82EB5
:1014A000D12CE12CF12C92E0492E512C612C712C85
:1014B0009E012F5F3F4FB701A601C4010E94700833
:1014C0008823C9F189819A81AB81BC81892B8A2BC0
:1014D0008B2B09F1260137019FEF491A590A690A36
:1014E000790A2D813E814F8158852F5F3F4F4F4FA5
:1014F0005F4F2D833E834F8358873FEFC31AD30A34
:10150000E30AF30AB3CFF401408051806280738014
:101510003324339496CFC414D504E604F70409F7B2
:101520000FEF1FEF2FEF3FE0B701A601C4010E94AC
:10153000CE07811119C080E02C960FB6F894DEBF5B
:101540000FBECDBFDF91CF911F910F91FF90EF9014
:10155000DF90CF90BF90AF909F908F907F906F90D3
:101560005F904F903F900895F501468157816085C7
:101570007185411551056105710539F097018601A5
:10158000C4010E94CE078823B1F2D5011696CD92F0
:10159000DD92ED92FC921997332051F0D701C601EC
:1015A0000196A11DB11DF40180839183A283B383B1
:1015B000F5018789908DA18DB28D892B8A2B8B2B7C
:1015C00039F4C78AD08EE18EF28E8481806884835C
:1015D00081E0B2CFCF93DF93EC018D81882389F135
:1015E0008C8187FF2AC06E857F858889998941E033
:1015F0000E945C06882329F1EA8980E2E89FF001D5
:101600001124EE56F94F3097E1F08D81823040F48D
:101610008B899C89AD89BE89848F958FA68FB78F62
:101620008F89988D938F828F8F89988DA98DBA8D90
:10163000B58BA48B8C818F778C83DF91CF910C94A9
:101640001F0680E0DF91CF910895CF93DF93EC01E7
:101650000E94EA0A882311F01D8281E0DF91CF9178
:101660000895CF92DF92EF92FF921F93CF93DF9373
:1016700080914E0A882321F089E49AE00E94250B8C
:1016800010922A0A1092280A1092250A1092240A0F
:1016900084E08093230A0E943C03EB0161E0809187
:1016A000230A0E94AC0261E08091230A0E947E021C
:1016B0001FB7F89480919106811127C0E8EFF1E0FF
:1016C0008491E8EDF1E09491E82FF0E0EE0FFF1F38
:1016D000E653FE4FA591B491EC91E92321F461E02A
:1016E00084E00E947E0261E084E00E94AC028CB53E
:1016F00080618CBD8CB580648CBD61E087E00E9408
:10170000AC0261E085E00E94AC02809191068F5F9F
:10171000809391061FBF82E580931D0A81E080932C
:101720001E0A80911D0A90911E0A0E949E041AE0D2
:101730008FEF0E9479041150D9F78FE19AE00E944F
:10174000A10420E030E0A90160E08FE19AE00E946E
:10175000B704182F8093290A8130B9F00E943C0306
:101760006C1B7D0B613D774060F381E08093240A20
:101770008FE19AE00E946E0480E0DF91CF911F918B
:10178000FF90EF90DF90CF9008952AEA31E040E09B
:1017900050E068E08FE19AE00E94B70482FF2AC01F
:1017A00010932A0A80912A0AC12CD12C760182300A
:1017B00029F4C12CD12CE12C30E4F32E20E030E0D0
:1017C000A90167E38FE19AE00E94B704A70196019F
:1017D00069E28FE19AE00E94B7048093290A882386
:1017E000C1F00E943C036C1B7D0B613D774030F3E0
:1017F00088E0BCCF14E00E9480048093290A115035
:10180000D1F78A3A11F082E0B1CF82E080932A0AC0
:10181000C9CF80912A0A8230D1F420E030E0A901BA
:101820006AE38FE19AE00E94B704882311F086E012
:101830009DCF0E948004807C803C19F483E08093DB
:101840002A0A0E9480040E9480040E9480048FE182
:101850009AE00E946E0480E580931D0A81E08093E7
:101860001E0A0E94A506882309F44DC080914E0AE5
:10187000811182CF8091420A803109F04BC082E011
:1018800080934E0A1092600A1092610A1092620AC6
:101890001092630A8091430A9091440AB0E0A0E05C
:1018A00025E0880F991FAA1FBB1F2A95D1F78093A7
:1018B0005C0A90935D0AA0935E0AB0935F0A8BE284
:1018C0009AE09093650A8093640A81E080934D0AC0
:1018D00010924F0A1092500A1092510A1092520A16
:1018E0001092530A1092540A1092550A1092560AF6
:1018F0001092570A1092580A1092590A10925A0AD6
:1019000010925B0A3ACF80E00E94A506882309F472
:1019100033CFACCF803209F02FCF83E080934E0AD3
:101920004091450A5091460A6091470A7091480AD1
:101930004093600A5093610A6093620A7093630A4D
:101940002CE53AE08BE29AE00E94F1088111B7CFD2
:1019500013CF2F923F924F925F926F927F928F920E
:101960009F92AF92BF92CF92DF92EF92FF920F932E
:101970001F93CF93DF9300D000D0CDB7DEB78C019B
:101980005B011A01DC0115968C911597813009F0E5
:10199000C8C014968C9181FFC4C082FDAEC06101A5
:1019A000D8011A964D915D916D917C911D97C1144E
:1019B000D10409F429C15B968D919C915C97FC013F
:1019C00074802FEF270D2A013B0139E0769467944C
:1019D000579447943A95D1F7722E74207A01F1E02A
:1019E000FF22711020C0E114F104E9F416964D9124
:1019F0005D916D917C9119974115510561057105B6
:101A000009F098C057968D919D910D90BC91A02D95
:101A10000097A105B10509F0AFC0C8010E94F00907
:101A2000882309F47EC080E092E08E199F09460168
:101A30008C159D0508F44C01D8015B964D915C9185
:101A40005C9716968D919D910D90BC91A02D02975B
:101A5000A109B109FA01258504C0880F991FAA1FA1
:101A6000BB1F2A95D2F74685578560897189840FF7
:101A7000951FA61FB71F9C01AD01270D311D411DEC
:101A8000511D29013A01811432E0930609F07AC010
:101A90008091000190910101A0910201B091030198
:101AA00084159505A605B70559F48FEF9FEFDC0166
:101AB0008093000190930101A0930201B093030170
:101AC0009501B301A20180919208909193080E9420
:101AD000B605882331F19EEFB91AC818D908F80164
:101AE00082859385A485B585880D991DA11DB11D9D
:101AF00082879387A487B58753CFF8014389548998
:101B00006589768982859385A485B58548175907A7
:101B10006A077B0709F443CFC8010E945C09811161
:101B20003ECF81E090E0D80113969C938E9312975C
:101B300080E007C09E012F5F3F4F0E947008811117
:101B400002C090E077C089819A81AB81BC81F801A5
:101B5000238D348DF901278948EF5FEF60E070E055
:101B6000203121F048EF5FEF6FEF7FE0841795079A
:101B7000A607B70708F051CFF80186839783A0879F
:101B8000B18751CFE114F10491F5D8011A964D9126
:101B90005D916D917C911D9753968D919D910D90C6
:101BA000BC91A02D481759076A077B0700F10E94D6
:101BB0001F06882309F4B5CF40920001509201011D
:101BC00060920201709203018091730281608093A0
:101BD000730297012E56394FD501C901880D991D01
:101BE000F9018E179F0759F04D914193FACF41E0CB
:101BF000C301B2010E945C068111EBCF92CF821B20
:101C0000930BA80EB91E69CFF80183899489A58921
:101C1000B68984179507A607B70738F48481438BE4
:101C2000548B658B768B80688483F801848183FD77
:101C300018C0C1010F900F900F900F90DF91CF91BE
:101C40001F910F91FF90EF90DF90CF90BF90AF90DA
:101C50009F908F907F906F905F904F903F902F90CC
:101C60000895C8010E94EA0A882309F45ACFE1CFF7
:101C7000CF93DF931F92CDB7DEB7698341E050E089
:101C8000BE016F5F7F4F0E94A90C0F90DF91CF9133
:101C90000895FC01DB0112968D919C91139793831B
:101CA000828383E391E09183808314968C911497CF
:101CB000848315968C911597858316964D915D9129
:101CC0006D917C91199746835783608771871A9627
:101CD0004D915D916D917C911D97428753876487EB
:101CE00075871E964D915D916D917C9151974687B8
:101CF0005787608B718B52968C915297828B53963B
:101D00004D915D916D917C915697438B548B658B72
:101D1000768B57964D915D916D917C915A97478B3B
:101D2000508F618F728F5B968D919C91948F838F72
:101D300008950895FC01818D928D009711F00C9407
:101D4000EA0A0895DC015996ED91FC913097B9F0BB
:101D500083899489A589B68942855385648575856B
:101D6000841B950BA60BB70B811520E89207A105E4
:101D7000B10538F08FEF9FE7A0E0B0E0089590E064
:101D800080E00895CF93DF93EC01E98DFA8D3097D1
:101D900049F481E090E09B838A8390E080E0DF91CA
:101DA000CF91089513821282898D9A8D0E94A90C79
:101DB000E98DFA8D22813381232B59F7F0CFCF9310
:101DC000DF931F92CDB7DEB76983DC01ED91FC9103
:101DD0000280F381E02D41E050E0BE016F5F7F4F54
:101DE00009950F90DF91CF9108952F923F924F92D6
:101DF0005F926F927F928F929F92AF92BF92CF929B
:101E0000DF92EF92FF920F931F93CF93DF9300D057
:101E10001F92CDB7DEB7FC018581811118C08FEF0D
:101E20009FEF0F900F900F90DF91CF911F910F9127
:101E3000FF90EF90DF90CF90BF90AF909F908F90EA
:101E40007F906F905F904F903F902F900895848186
:101E500080FFE5CF4389548965897689828593859A
:101E6000A485B585312C212C481759076A077B07B3
:101E700019F022242394312C6F012101CE01019607
:101E80003C01DF011696BB83AA834114510409F477
:101E9000C5C0F60142855385648575854A01F1E028
:101EA0009F22D6015B968D919C915C978A019B0144
:101EB000E9E03695279517950795EA95D1F7159698
:101EC000EC91E230E9F5FC01628D738D848D958D86
:101ED000600F711F821F931FA12C22E0B22EA81841
:101EE000B9084A145B0408F45201F601248126FD66
:101EF00004C0A114F2E0BF0671F40091000110913A
:101F000001012091020130910301061717072807EC
:101F1000390709F05EC040E00E945C06882309F49E
:101F20007ECFC4018E56994FD3019C012A0D3B1DD3
:101F3000FC012E173F0709F46CC041914D93F9CF76
:101F4000DC011496BC90BA94B0228114910479F407
:101F5000B1100DC0452B462B472B69F5F60187893B
:101F6000908DA18DB28D86839783A087B187D6018E
:101F70005B96ED91FC915C9716966D917D918D919C
:101F80009C9119976250710981099109258504C0B6
:101F9000660F771F881F991F2A95D2F70685178528
:101FA00020893189600F711F821F931F6B0D711D76
:101FB000811D911D91CFD60116964D915D916D9128
:101FC0007C9119972A813B810E9470088111CFCFA3
:101FD00026CF730185019401AB01BC018091920869
:101FE000909193080E941405882309F418CF6A0C75
:101FF0007B1CF60182859385A485B5858A0D9B1D82
:10200000A11DB11D82879387A487B5874A185B08F5
:102010003CCF281B390B620E731EEBCF2A9423286A
:1020200009F0FDCE898190E0FCCEFC01818D928D7E
:10203000009711F00C94F50E8FEF9FEF08950F931A
:102040001F93CF93DF93EC01898D9A8D10E000E010
:10205000009799F00E94F50E8C010F3F100769F070
:10206000898D9A8DFC014285538564857585415023
:102070005109610971090E945C09C801DF91CF9182
:102080001F910F91089585ED8093BC008091BC0055
:1020900084FDFCCF1092C008089520914E02260FB7
:1020A0003327331F21323105ECF42091C008FC01A5
:1020B00090E080E0243069F082E00895A0914E0223
:1020C0002191AC01425D5D4FA40FB52FB11D2C9342
:1020D0000196861798F380914E02680F60934E0226
:1020E00080E0089581E008950895E091E2088091EC
:1020F000E108E81730F4F0E0EF53F74F808190E00B
:1021000008958FEF9FEF08958091E1089091E20884
:10211000891B990B0895CF92DF92EF92FF920F9354
:102120001F93CF93DF937C01CB018A012091B708E5
:10213000222389F0EB016B01C40ED51ECC15DD0501
:1021400069F06991D701ED91FC910190F081E02D4A
:10215000C7010995F3CF642F0E944D10C801DF918C
:10216000CF911F910F91FF90EF90DF90CF90089546
:10217000CF93DF931F92CDB7DEB769832091B70865
:102180002223F9F02091B408203258F021E030E009
:10219000FC013383228390E080E00F90DF91CF91A8
:1021A00008958091B508E82FF0E0EC56F74F99813B
:1021B00090838F5F8093B5088093B40881E090E0AE
:1021C000ECCF61E0CE0101960E944D10F7CF682F51
:1021D00088E69AE00C94B81090E080E008950E94A0
:1021E0007B011092E2088093E10808950F931F93FA
:1021F000CF93DF93C82F85E50E94BB010C2E000C06
:10220000DD0BCE010E94E7100E94C50161E070E085
:1022100085E590E00E94EF100E9468018C0185E541
:102220000E94BB01CE0101960E94E7100E94C501E9
:1022300061E070E085E590E00E94EF100E94680187
:1022400020E0382FC901800F911FDF91CF911F919E
:102250000F910895DF92EF92FF920F931F93CF9308
:10226000DF9381E50E94BB0190E080E00E94E710CF
:102270000E94C50166E070E081E590E00E94EF10E9
:102280000E9468019C0194E0359527959A95E1F7A5
:102290002F7033273AE0D32E8F70D29E800D1124F9
:1022A00080937F020E946801982F9F7792959F707C
:1022B0008F70E82E9D9DE00C11240E946801982FDC
:1022C0009F7792959F708F70F82E9D9DF00C112432
:1022D0000E946801EC010E9468018C010E94680163
:1022E000A80164E0559547956A95E1F74F70552729
:1022F000202F2F70D49E200D112444E6249F90019E
:102300001124032E000C440B550BBC01E4E0759521
:102310006795EA95E1F76F7077278F70D69E800DED
:102320001124E0E1F7E28E9FB0018F9F700D112420
:10233000CB01770FAA0BBB0B820F931FA41FB51FF6
:102340009E01F4E035952795FA95E1F72F70332734
:10235000CF70D29EC00D11249C01AD012C0F311DF8
:10236000411D511DA0E1BEE00E94BB27AB01BC0195
:102370002CE3F29EC0011124092E000CAA0BBB0B0A
:102380008E0D911DA11DB11D840F951FA61FB71F96
:102390008093800290938102A0938202B093830283
:1023A000DF91CF911F910F91FF90EF90DF900895F3
:1023B0000E947B011092E2088093E1080895CF9279
:1023C000DF92EF92FF921F93CF93DF93EC0180E2B5
:1023D000689FF0011124EE56F94F9385917161F0D9
:1023E000842F827449F080E0DF91CF911F91FF909C
:1023F000EF90DF90CF900895142F6A8B80910001A9
:1024000090910101A0910201B09103018E879F87F5
:10241000A88BB98BC488D588F12CE12C7601DD24FA
:10242000CC24CF8AD88EE98EFA8E828D938DB0E03F
:10243000A0E0AC01BD014C295D296E297F294F8B9D
:10244000588F698F7A8F83858871B1F4848D958DCB
:10245000A68DB78D8B8B9C8BAD8BBE8B81E08D83D6
:102460001F701C831E821F82188619861A861B867F
:102470001C861D8681E0B8CF803109F0B4CF9E0163
:102480002D5E3F4F8B8D9C8D0E94F108882309F4AF
:10249000AACF84E0E4CFFB0101900020E9F7319757
:1024A000AF01461B570BDC01ED91FC910280F381DB
:1024B000E02D0994CF93DF93BC0183EE98E00E9456
:1024C0004B12EC016DE471E083EE98E00E944B1238
:1024D0008C0F9D1FDF91CF9108950F931F93CF9382
:1024E000DF93EC01FB014481558160817181E881BA
:1024F000F9810280F381E02D09958C016DE471E092
:10250000CE010E944B12800F911FDF91CF911F913E
:102510000F9108950F931F93CF93DF93EC01888160
:102520009981009759F02A813B812617370730F0AF
:1025300081E0DF91CF911F910F9108958B016F5F23
:102540007F4F0E949229009759F0998388831B83BB
:102550000A832C813D81232B59F7FC011082E8CF9F
:1025600080E0E7CFEF92FF920F931F93CF93DF931B
:102570006115710541F480E0DF91CF911F910F91BA
:10258000FF90EF90089541155105B1F07B01EC01EA
:102590000C811D81040F151FB8010E948A12882327
:1025A00051F3288139818C819D81B701820F931F5E
:1025B0000E94942A1D830C8381E0DECFFB010190F1
:1025C0000020E9F73197AF01461B570B0C94B2126C
:1025D000FB0144815581608171810C94B212CF93CB
:1025E000DF93EC0188819981009711F00E940929FD
:1025F000198218821D821C821B821A82DF91CF9160
:102600000895CF93DF93EC01FB0101900020E9F7DF
:102610003197AF01461B570B0E94B212811103C0C4
:10262000CE010E94EF12CE01DF91CF910895EF927B
:10263000FF920F931F93CF93DF93EC017B018A01ED
:10264000BA010E948A1281110BC0CE010E94EF12C2
:10265000CE01DF91CF911F910F91FF90EF900895E0
:102660001D830C83B701888199810E94942AF0CF41
:10267000FB0101900020E9F73197AF01461B570B92
:102680000C9417130F931F93CF93DF93CDB7DEB73F
:1026900061970FB6F894DEBF0FBECDBF8C01CB01A2
:1026A000F8011182108213821282158214824AE08C
:1026B000BE016F5F7F4F0E944224BE016F5F7F4F5C
:1026C000C8010E94381361960FB6F894DEBF0FBEA2
:1026D000CDBFDF91CF911F910F9108950F931F935D
:1026E000CF93DF93CDB7DEB7A1970FB6F894DEBFD7
:1026F0000FBECDBF8C01CB01BA01F801118210824F
:1027000013821282158214822AE0AE014F5F5F4F5E
:102710000E941524BE016F5F7F4FC8010E943813CD
:10272000A1960FB6F894DEBF0FBECDBFDF91CF915B
:102730001F910F9108950F931F93CF93DF93CDB700
:10274000DEB762970FB6F894DEBF0FBECDBF8C0127
:10275000CB01F80111821082138212821582148239
:102760004AE0BE016F5F7F4F0E940A24BE016F5F87
:102770007F4FC8010E94381362960FB6F894DEBFEF
:102780000FBECDBFDF91CF911F910F9108950F9391
:102790001F93CF93DF93CDB7DEB729970FB6F89489
:1027A000DEBF0FBECDBF8C01862FF80111821082D3
:1027B000138212821582148250E0BE016F5F7F4F38
:1027C00090E00E943724BE016F5F7F4FC8010E94D6
:1027D000381329960FB6F894DEBF0FBECDBFDF9138
:1027E000CF911F910F910895CF93DF93EC01FB01DF
:1027F0008617970749F0608171816115710541F075
:10280000448155810E941713CE01DF91CF91089525
:102810000E94EF12F9CFFC01118210821382128202
:10282000158214820C94F413FC011182108213821D
:10283000128215821482FB0101900020E9F7319782
:10284000AF01461B570B0C941713FC01808191813B
:10285000009711F00C9409290895CF93DF93EC01B0
:10286000898D9A8D009741F00E94250B898D9A8D54
:102870000E9409291A8E198EDF91CF9108953F92F7
:102880004F925F926F927F928F929F92AF92BF9280
:10289000CF92DF92EF92FF920F931F93CF93DF932C
:1028A000CDB7DEB72B970FB6F894DEBF0FBECDBF06
:1028B0007C01DC0115968C91811115C0FE013196C9
:1028C000CE010C966F0130E23193E817F907E1F77A
:1028D000DA0130E087E09D91B92E992329F19E32EB
:1028E00039F48A3011F480E0E3C038E08AE0F3CFB5
:1028F000E6E8F1E04491442321F031969413FACFB5
:10290000F2CF831780F34FED490F4E3560F74FE953
:10291000490F4A3118F440EEB42EB90EF601E30F18
:10292000F11DB0823F5FD7CF89818032E1F2322E34
:102930008B01FB01838D948DD7015C969C938E93C4
:102940005B9716821782108611861286138614866C
:102950001586F80182859385A485B58543895489B8
:102960006589768984179507A607B70708F04DC0D3
:1029700025E0B695A795979587952A95D1F7F82FD5
:10298000FF70AF2ED80115968C91823008F4ABCF32
:10299000C8010E94F50E97FDA6CFF80182859385A8
:1029A000A485B5854F96A11DB11D82879387A48705
:1029B000B587F0E2AF9EB00111246E56794F6115D4
:1029C000710509F490CFDB018C91882341F0853E9D
:1029D00009F061C0BB2029F0BB24B394BACFB11079
:1029E0000EC0F701A28A8091000190910101A0918F
:1029F0000201B091030186879787A08BB18BDB0121
:102A00008C918111E9CFBB24B394832D82718231E3
:102A100009F069CFBB2009F463C0F70166857785AB
:102A20008089918941E00E945C06882309F45BCF8C
:102A3000D70152968C91B0E28B9FC00111248E5623
:102A4000994F009709F44FCFFC013A9626E1DF0138
:102A50001D922A95E9F72BE0F601DC0101900D9219
:102A60002A95E1F721E238E2FC01318B208B40E02E
:102A700058E057874687338B228B318F208F578BB7
:102A8000468B0E941F06882309F42DCF432DD701C2
:102A900052966C910AC04BE050E0C6010E94732A26
:102AA000892B09F056CF432D6A2DC7010E94DF11F3
:102AB0002B960FB6F894DEBF0FBECDBFDF91CF913E
:102AC0001F910F91FF90EF90DF90CF90BF90AF904C
:102AD0009F908F907F906F905F904F903F90089560
:102AE000F8018581823009F4FECEC8010E94F00908
:102AF000882309F4F8CED8015B96ED91FC915C97A0
:102B000016968D909D90AD90BC901997B2E08B1A5F
:102B10009108A108B108858504C0880C991CAA1CDD
:102B2000BB1C8A95D2F786859785A089B189880EC6
:102B3000991EAA1EBB1E848124013501480E511C1A
:102B4000611C711C84149504A604B70401F1E1E032
:102B50004E1A5108610871080E941F06882309F463
:102B6000C2CEE2E9F6E0119282E998E08E179F0763
:102B7000D1F74092000150920101609202017092DF
:102B8000030180917302816080937302DBCFD801CF
:102B90005B96ED91FC91258580E092E0A0E0B0E0AD
:102BA00004C0880F991FAA1FBB1F2A95D2F7F801EE
:102BB0004389548965897689840F951FA61FB71F9D
:102BC000838B948BA58BB68BD70152961C9282E98E
:102BD00096E03ACFEF92FF920F931F93CF93DF933C
:102BE000EC017B018A011B821A8288EE93E0A0E04F
:102BF000B0E08C839D83AE83BF838FE091E09983A7
:102C000088838DE190E00E946D289A8F898F0097CC
:102C100079F02DE1F701DC0101900D922A95E1F7A1
:102C20004CE050E0B801CE010C960E949B2A188E11
:102C3000DF91CF911F910F91FF90EF9008952F9208
:102C40003F924F925F926F927F928F929F92AF923C
:102C5000BF92CF92DF92EF92FF920F931F93CF9389
:102C6000DF93CDB7DEB7C656D1090FB6F894DEBFF5
:102C70000FBECDBF5C013B014E018EE1880E911C61
:102C800069E47AE0C4010E94490E1C821B8283E33E
:102C900091E09A8389831E8263018E010F5F1F4F2B
:102CA000240118016FE270E0C6010E94892A009792
:102CB00009F459C0F60120812F3271F4FFEFCF1AC9
:102CC000DF0A902F812F8201492E582E942D852DB9
:102CD0002801092F182FE6CF8C198D3008F08CE0D1
:102CE000E82EF12CA701B601CE01885A9F4F0E9411
:102CF0009B2AE8E5F0E0EC0FFD1FEE0DFF1D1082B2
:102D0000C8010E94250B21E0AE01485A5F4FB20175
:102D1000C8010E943F14811120C01EAE1DAE83E386
:102D200091E09CAF8BAF21961FAE2197A796EEAD99
:102D3000FFADA7976E0E7F1EF3018081811120C029
:102D4000BE01655C7F4FC1010E94490E40E551E024
:102D5000B101C5010E94EA1531C0CE0CDF1CC201D1
:102D60000E94250BB3CFC60186199709A7969FAF7E
:102D70008EAFA797B201CE01CB960E94490ED6CF57
:102D800019A218A283E391E09F8F8E8F1BA2219638
:102D90008FAD219781112DC0F5011382128288EE2B
:102DA00093E0A0E0B0E084839583A683B7838FE0AF
:102DB00091E091838083128E118E1486C501CA59C9
:102DC000DF4F0FB6F894DEBF0FBECDBFDF91CF91BE
:102DD0001F910F91FF90EF90DF90CF90BF90AF9039
:102DE0009F908F907F906F905F904F903F902F902B
:102DF0000895825023E1A3018230A0F469E47AE0CF
:102E0000C4010E943F14882339F249A95AA96BA929
:102E10007CA9C4010E945C09B401C1010E94490E51
:102E2000A30196CFBE01655C7F4FC4010E943F1491
:102E3000882309F4B1CFCE01CB960E94250BE5CFB4
:102E40001F920F920FB60F9211242F933F938F93DF
:102E50009F93AF93BF938091890690918A06A0912A
:102E60008B06B0918C063091880626E0230F2D3713
:102E700068F129E8230F0396A11DB11D2093880650
:102E80008093890690938A06A0938B06B0938C0654
:102E900080918D0690918E06A0918F06B09190063C
:102EA0000196A11DB11D80938D0690938E06A0936F
:102EB0008F06B0939006BF91AF919F918F913F91F4
:102EC0002F910F900FBE0F901F9018950296A11D85
:102ED000B11DD4CF1F920F920FB60F9211240BB6D3
:102EE0000F922F933F934F935F936F937F938F93A3
:102EF0009F93AF93BF93EF93FF9383EE98E00E946D
:102F0000C603FF91EF91BF91AF919F918F917F91F8
:102F10006F915F914F913F912F910F900BBE0F904A
:102F20000FBE0F901F9018951F920F920FB60F9221
:102F300011240BB60F922F938F939F93EF93FF93D0
:102F4000E091F308F091F4088081E091F908F091A4
:102F5000FA0882FD1DC090818091FC088F5F8F73FD
:102F60002091FD08821741F0E091FC08F0E0ED515E
:102F7000F74F958F8093FC08FF91EF919F918F9170
:102F80002F910F900BBE0F900FBE0F901F901895B2
:102F90008081F2CF1F920F920FB60F9211240BB6C1
:102FA0000F922F933F934F935F936F937F938F93E2
:102FB0009F93AF93BF93EF93FF9380E899E00E94B4
:102FC000C603FF91EF91BF91AF919F918F917F9138
:102FD0006F915F914F913F912F910F900BBE0F908A
:102FE0000FBE0F901F9018951F920F920FB60F9261
:102FF00011240BB60F922F938F939F93EF93FF9310
:10300000E0919009F09191098081E0919609F09109
:10301000970982FD1DC09081809199098F5F8F7300
:1030200020919A09821741F0E0919909F0E0E05867
:10303000F64F958F80939909FF91EF919F918F9112
:103040002F910F900BBE0F900FBE0F901F901895F1
:103050008081F2CF1F920F920FB60F9211240BB600
:103060000F922F933F934F935F936F937F938F9321
:103070009F93AF93BF93EF93FF938091B900887FA5
:10308000803609F44DC008F040C0883209F4A7C06A
:1030900028F5803109F49BC0C8F4882309F403C1E2
:1030A000883009F494C0FF91EF91BF91AF919F9147
:1030B0008F917F916F915F914F913F912F910F90E1
:1030C0000BBE0F900FBE0F901F901895883109F41A
:1030D00086C0803241F78093BE0814C0803409F462
:1030E000A3C040F48033B9F38833E9F68093BE0877
:1030F00085ECBAC0803509F487C0883509F49CC0D6
:10310000883489F60E944310CECF883909F492C0E2
:1031100038F5883729F050F4883611F0803719F6E1
:1031200083E08093C0081092700255C0883809F47B
:1031300081C0803919F0803809F0B5CF80917002D4
:10314000803208F077C0E091700281E08E0F8093AA
:1031500070028091BB00F0E0E05BFD4F80833BC0DC
:10316000803B39F0D0F4803A09F483C0883A09F002
:103170009ACF84E08093C00810924F0210924E02C2
:10318000F0E0E0E0099580914E0281110FC081E0EE
:1031900080934E0210922E0209C0803C09F4A8CF01
:1031A000883C09F4A5CF883B09F07DCFE0914F0220
:1031B00081E08E0F80934F02F0E0E25DFD4F808151
:1031C0008093BB0090914F0280914E0231C080915C
:1031D000B9088093BB0085EC8093BC0064CF9091CC
:1031E000BB088091BA089817B8F58091BC089091F7
:1031F000BD08E091BB0821E02E0F2093BB08E80F2B
:10320000F92FF11D8081E5CF2091BC083091BD08D8
:10321000E091BB0881E08E0F8093BB088091BB00DA
:10322000E20FF32FF11D80839091BB088091BA08C3
:10323000981788F285E8D0CF2091BC083091BD085E
:10324000E091BB0881E08E0F8093BB088091BB00AA
:10325000E20FF32FF11D80838091BF08811152CFBF
:1032600081E08093B80884EA8093BC001092C00883
:103270001ACF85EC8093BC001092C0088091700238
:10328000803230F4E0917002F0E0E05BFD4F10829C
:103290006091700270E080E592E0F0E0E0E0099576
:1032A0001092700200CF1092BE082CCF1F920F9286
:1032B0000FB60F9211248F93809187028F5F8093B6
:1032C0008702809186028F5F80938602109285002C
:1032D000109284008F910F900FBE0F901F90189541
:1032E000E3EEF8E01382128288EE93E0A0E0B0E013
:1032F00084839583A683B78321E231E031832083E1
:103300004DEC50E0558744874CEC50E0578746879A
:1033100048EC50E0518B408B49EC50E0538B428B92
:103320004AEC50E0558B448B4EEC50E0578B468B6B
:10333000118E128E138E148EE0E8F9E01382128241
:1033400084839583A683B7833183208325EC30E083
:103350003587248724EC30E03787268720EC30E05F
:10336000318B208B21EC30E0338B228B22EC30E050
:10337000358B248B26EC30E0378B268B118E128E0A
:10338000138E148EEDE1FAE020E5208321E0218305
:10339000EFE1FAE0158216821186138642E050E0D2
:1033A00060E070E0448755876687778713A215A68B
:1033B00014A623E331E033A722A717A6E8E6FAE034
:1033C0001382128284839583A683B7838FE391E06F
:1033D0009183808362E571E080E89AE00E94141492
:1033E00063E871E08AE79AE00E9414146FE471E0E8
:1033F00084E79AE00C941414CF93DF93CDB7DEB733
:10340000CE56D1090FB6F894DEBF0FBECDBF78946B
:1034100084B5836084BD85B5836085BD80916E0071
:10342000816080936E0082E08093810090918100A2
:1034300091609093810090918000916090938000C2
:103440009091B10094609093B1009091B000916020
:103450009093B0009091910093609093910090911F
:10346000900091609093900096E890937A0010926B
:10347000C100E0919009F09191098083E0918C095D
:10348000F0918D091082E0918E09F0918F0938E05A
:10349000308310929809E0919409F091950926E003
:1034A0002083E0919209F09193099081986990832B
:1034B000E0919209F091930990819F7D9083E09132
:1034C000F308F091F4088083E091EF08F091F008A0
:1034D0001082E091F108F091F20830831092FB081D
:1034E000E091F708F091F8082083E091F508F09159
:1034F000F608808188698083E091F508F091F608EC
:1035000080818F7D808380E28093B80084E991E0A0
:103510000E945A1260E08BE10E94AC0260E085E1FB
:103520000E94AC0260E08DE10E94AC0260E08EE19E
:103530000E94AC0261E086E10E94AC0261E087E19A
:103540000E94AC0260E080E00E94AC0261E082E197
:103550000E94AC0261E082E10E947E0261E083E1B0
:103560000E94AC0261E083E00E94AC0261E084E072
:103570000E94AC0260E085E00E94AC0260E086E060
:103580000E94AC0261E087E00E94AC0261E083E14E
:103590000E947E0261E084E00E947E0260E087E09B
:1035A0000E947E0260E083E00E947E028AE60E9422
:1035B000BB0162E088E69AE00E94B81080E691E0E4
:1035C0000E94E7100E94C5018AE60E94BB0164E1E7
:1035D00088E69AE00E94B81066E288E69AE00E94C7
:1035E000B81069E988E69AE00E94B81060E088E6C1
:1035F0009AE00E94B8100E94C5018AE60E94BB01B1
:103600006AE188E69AE00E94B8106FEB88E69AE0DB
:103610000E94B8100E94C5018AE60E94BB0166E2C2
:1036200088E69AE00E94B8106CE888E69AE00E946A
:10363000B8100E94C5018BE10E945502892B09F444
:10364000C4C011E061E0112309F466C083E00E9468
:103650007E0261E08CE00E94AC0261E08CE00E949E
:103660007E02B8ECEB2EF12C8AEF90E00E94DD0296
:1036700061E08FE00E94AC0261E08FE00E947E0278
:103680008AEF90E00E94DD0261E08FE00E94AC02D0
:1036900060E08FE00E947E0221E0E21AF10821F74B
:1036A000A8ECEA2EF12C84EB90E00E94DD0261E0B0
:1036B0008FE00E94AC0261E08FE00E947E0284EB0A
:1036C00090E00E94DD0261E08FE00E94AC0260E0C9
:1036D0008FE00E947E0281E0E81AF10821F781E77D
:1036E0000E94BB0160E088E69AE00E94B81063E1A6
:1036F00088E69AE00E94B8100E94C50168EE73E067
:1037000080E090E00E940A038EE10E945502892B1E
:10371000D9F781E0182796CF8CE00E94AC0260E0D8
:103720008CE00E947E02F8ECEF2EF12C84EB90E00E
:103730000E94DD0261E08FE00E94AC0261E08FE058
:103740000E947E0284EB90E00E94DD0261E08FE047
:103750000E94AC0260E08FE00E947E0291E0E91AD4
:10376000F10821F7E8ECEE2EF12C8AEF90E00E94B0
:10377000DD0261E08FE00E94AC0261E08FE00E9418
:103780007E028AEF90E00E94DD0261E08FE00E94FD
:10379000AC0260E08FE00E947E02E1E0EE1AF108E8
:1037A00021F781E70E94BB0160E088E69AE00E9471
:1037B000B81060E188E69AE00E94B8100E94C50146
:1037C00060E083E00E947E0299CF61E084E10E9484
:1037D000AC0261E084E10E947E0215E060E570E0E9
:1037E00080E090E00E940A0361E08CE00E94AC025D
:1037F00061E08CE00E947E0260E570E080E090E095
:103800000E940A0360E08CE00E947E02115031F7B2
:1038100061E08CE00E947E0208EC10E084EB90E016
:103820000E94DD0261E08FE00E94AC0261E08FE067
:103830000E947E0284EB90E00E94DD0261E08FE056
:103840000E94AC0260E08FE00E947E0201501109EC
:1038500029F78DE991E00E945A1261E082E00E940E
:10386000AC0261E082E00E947E0261E08AE10E9497
:10387000AC0261E08AE10E947E0260E087E10E9482
:103880007E0261E086E10E947E0281E50E94BB012A
:1038900063E288E69AE00E94B81060E088E69AE069
:1038A0000E94B81060E088E69AE00E94B81065E0D7
:1038B00088E69AE00E94B81060E088E69AE00E94EC
:1038C000B81060E088E69AE00E94B81067E988E6E0
:1038D0009AE00E94B81060E088E69AE00E94B81072
:1038E00060E088E69AE00E94B8100E94C50181E578
:1038F0000E94BB018FE290E00E94E7108CE290E012
:103900000E94E7100E94C50181E50E94BB0188E288
:1039100090E00E94E71087E990E00E94E7100E9483
:10392000C50181E50E94BB0160E088E69AE00E9443
:10393000B81060E088E69AE00E94B81060E088E67F
:103940009AE00E94B81060E088E69AE00E94B81001
:1039500060E088E69AE00E94B81060E088E69AE0AD
:103960000E94B81060E088E69AE00E94B8100E94B9
:10397000C50166EA71E0CE0101960E9414144091DF
:103980007E0A50917F0A60917A0A70917B0ACE017B
:1039900001960E94B212811104C0CE0101960E94CC
:1039A000EF1266EB71E0CE0101960E9401138C01CB
:1039B0004091840A5091850A6091800A7091810A31
:1039C0000E94B212811103C0C8010E94EF1268EB7D
:1039D00071E0C8010E940113BC01CE0187599F4FBD
:1039E0000E940B14CE0101960E9425148BE50E94C3
:1039F000BB0188E090E00E94E71090E080E00E9428
:103A0000E7100E94C50160E18BE50E94D81110E12A
:103A10000E946801082F803138F46AEB71E0CE0112
:103A200087599F4F0E94DE1240E1602FCE01019620
:103A30000E94C713BE016F5F7F4FCE0187599F4F12
:103A40000E94E812CE0101960E942514115001F740
:103A50006CEB71E0CE0187599F4F0E94DE1288E522
:103A60000E94BB0188E090E00E94E71090E080E0B7
:103A70000E94E7100E94C50160E188E50E94D8110C
:103A800010E10E946801082F803138F46AEB71E080
:103A9000CE0187599F4F0E94DE1240E1602FCE0178
:103AA00001960E94C713BE016F5F7F4FCE018759F9
:103AB0009F4F0E94E812CE0101960E9425141150DA
:103AC00001F768EB71E0CE0187599F4F0E94DE122B
:103AD00080E50E94BB0190E080E00E94E71090E04A
:103AE00080E00E94E7100E94C50162E080E50E942C
:103AF000D8110E946801182F80937B020E946801F0
:103B000080937A0240E1612FCE0101960E94C71393
:103B1000BE016F5F7F4FCE0187599F4F0E94E81211
:103B2000CE0101960E94251440E160917A02CE01F7
:103B300001960E94C713BE016F5F7F4FCE01875968
:103B40009F4F0E94E812CE0101960E94251462ED5B
:103B500071E0CE0187599F4F0E94DE128BE50E94D3
:103B6000BB0188E090E00E94E71090E080E00E94B6
:103B7000E7100E94C50160E18BE50E94D81110E1B9
:103B80000E946801082F803138F46AEB71E0CE01A1
:103B900087599F4F0E94DE1240E1602FCE010196AF
:103BA0000E94C713BE016F5F7F4FCE0187599F4FA1
:103BB0000E94E812CE0101960E942514115001F7CF
:103BC00068EB71E0CE0187599F4F0E94DE1283E5BA
:103BD0000E94BB0190E080E00E94E71090E080E04E
:103BE0000E94E7100E94C50162E083E50E94D8119F
:103BF0000E946801182F809379020E9468018093C7
:103C0000780240E1612FCE0101960E94C713BE01E8
:103C10006F5F7F4FCE0187599F4F0E94E812CE0100
:103C200001960E94251440E160917802CE01019630
:103C30000E94C713BE016F5F7F4FCE0187599F4F10
:103C40000E94E812CE0101960E94251460E082E1F4
:103C50000E947E020E94310B811106C086EE91E027
:103C60000E945A121092040181E090E090937E022B
:103C700080937D0273E3C72E71E0D72ECE01CF96DD
:103C80005C0160917D0270917E02683C710508F0D4
:103C9000F5C2CE0182960E944213BE016E5D7F4F37
:103CA000CE0101960E940B1465EF71E0CE010196E2
:103CB0000E940113BC0184E79AE00E94F413CE0134
:103CC00001960E942514CE0182960E942514E09050
:103CD000740AF090750A23961FAE1EAE2397F50165
:103CE000D182C08225961FAE25971DA21CA2DBA201
:103CF000CAA21FA2512C412C7A2C6B2C09E41AE089
:103D0000852D942DF701E80FF91F20812F3209F43A
:103D10000196D701A80FB91FFE01E45AFF4F30E00A
:103D200020E04F014D914F3249F0442339F0019684
:103D30002F5F3F4F41932C303105A1F7280D391DDE
:103D4000F9011082F701E80FF91F20812F3209F4E1
:103D50000196582E492E8E0D9F1DFC0130801C822D
:103D60001B82DA82C9821E8221E0A401B801CE0141
:103D700001960E943F14882309F479C2CE0101966E
:103D80000E94250B311011C02AE00934120719F0E6
:103D9000C8010E94250B80917D0290917E020196C0
:103DA00090937E0280937D026CCF21E0A401B80144
:103DB000872D962D0E943F14982EFAE009341F0794
:103DC00009F4F2C4C8010E94250B9110F3C456C235
:103DD00080E192E00E945A121092040156C3609151
:103DE000740A7091750ACE0101960E941F16EA8D21
:103DF000FB8D309709F455C18581882309F451C1A1
:103E0000BE01615C7F4FCE0101960E946D12CE0112
:103E100001960E942D1461E084E00E947E0260E021
:103E20008EE00E947E0260E08DE00E947E02809122
:103E30008402909185020196893F2AE2920708F058
:103E40007AC1909385028093840261E082E10E94AE
:103E50007E0260E083E10E947E0261E070E080E02B
:103E600090E00E940A03CE01CF960E942514E8E854
:103E7000F2E011920E171F07E1F7809186028C3055
:103E800008F4C7C11092860261E083E10E947E02BD
:103E900060E082E10E947E026FE471E0CE01CF9685
:103EA0000E9414140E942A1161E272E0CE01CF96A2
:103EB0000E94DE126091840270918502CE0101960B
:103EC0000E944213BE016F5F7F4FCE01CF960E94CA
:103ED000E812CE0101960E94251468EB71E0CE0134
:103EE000CF960E94DE124091800250918102609133
:103EF000820270918302CE0101960E946E13BE0170
:103F00006F5F7F4FCE01CF960E94E812CE010196DF
:103F10000E9425146BE971E0CE01CF960E94DE125B
:103F20004AE060917F02CE0101960E94C713BE0154
:103F30006F5F7F4FCE01CF960E94E812CE010196AF
:103F40000E94251468EB71E0CE01CF960E94DE122C
:103F500088E00E94F610BC01CE0101960E949B13DE
:103F6000BE016F5F7F4FCE01CF960E94E812CE0157
:103F700001960E94251468EB71E0CE01CF960E9455
:103F8000DE128AE00E94F610BC01CE0101960E946A
:103F90009B13BE016F5F7F4FCE01CF960E94E81248
:103FA000CE0101960E94251468EB71E0CE01CF96F8
:103FB0000E94DE1284E00E94F610BC01CE01019640
:103FC0000E949B13BE016F5F7F4FCE01CF960E9470
:103FD000E812CE0101960E94251468EB71E0CE0133
:103FE000CF960E94DE1286E00E94F610BC01CE0140
:103FF00001960E949B13BE016F5F7F4FCE01CF964B
:104000000E94E812CE0101960E94251468EB71E02F
:10401000CE01CF960E94DE128CE00E94F6101BA209
:104020001AA21DA21CA21FA21EA2BC01990F880BDE
:10403000990B0E94C2262DEC3CEC4CEC5DE30E94F7
:10404000FD2623E333E948E853E40E9400288E016B
:104050000F5F1F4F22E044E00E94EC23009709F419
:10406000A3C0BC01CE0182960E943813BE016E5DD2
:104070007F4FCE01CF960E94E812CE0182960E9419
:10408000251480910401882309F4B1C00E94310BEA
:1040900081118FC086EE91E00E945A1210920401A5
:1040A000A2C080E192E07BC38DE00E947E02259653
:1040B000AEACBFAC2597912C812CDD24DA948DE138
:1040C0000E945502892B19F0DA94D110F8CF82E3BF
:1040D00090E00E94DD026401FFEFCF1ADF0A25960F
:1040E0008EAD9FAD25978816990630F42196EEADDA
:1040F000FFAD21973097E1F410927C02ECE7F2E0FB
:10410000608180E899E00E94E803AC14BD0470F47B
:104110006DE471E080E899E00E944B12BE01615CA1
:104120007F4F83EE98E00E946D1279CE4601C5CF95
:10413000E80DF91DE5CF109285021092840260917E
:104140007D0270917E026F5F7F4F70937E0260935D
:104150007D02CE0182960E944213BE016E5D7F4FAA
:10416000CE0101960E940B1465EF71E0CE0101961D
:104170000E940113BC0184E79AE00E94F413CE016F
:1041800001960E942514CE0182960E94251465E0B6
:1041900072E083EE98E00E944B1264E77AE083EECF
:1041A00098E00E946D1251CECE0182960E94EF12CD
:1041B0005DCF6091740A7091750ACE0101960E94DC
:1041C0001F16EA8DFB8D3097B9F185818823A1F107
:1041D000BE01615C7F4FCE0101960E946D12CE013F
:1041E00001960E942D1461E084E00E947E0261E04D
:1041F00082E10E947E0260E083E10E947E0261E033
:1042000070E080E090E00E940A03CE01CF960E9409
:10421000251461E087E10E947E0260E086E10E9451
:104220007E020E94380161E086E10E947E021092C7
:104230008500109284009EC180E192E02DCF60E065
:1042400086E10E947E020E94380126E096958795BD
:104250002A95E1F7FC01E857FD4F80818F3F11F06F
:104260008F5F808361E086E10E947E0283C18AE0E5
:104270000934180719F0C8010E94250B60917D02CE
:1042800070917E026150710970937E0260937D028D
:10429000CE0182960E944213BE016E5D7F4FCE0119
:1042A00001960E940B1465EF71E0CE0101960E9409
:1042B0000113BC0184E79AE00E94F413CE01019639
:1042C0000E942514CE0182960E94251415E060E517
:1042D00070E080E090E00E940A0361E08DE00E94BF
:1042E000AC0261E08DE00E947E0260E570E080E05B
:1042F00090E00E940A0360E08DE00E947E0211506F
:1043000031F761E08DE00E947E026091740A709145
:10431000750ACE0182960E941F16EBADFCADC12C32
:10432000D12C7601309721F0C388D488E588F688AF
:104330006AEF71E083EE98E00E944B1219A2A70188
:1043400096018E010F5D1F4F6AE0862E912CA12CE5
:10435000B12CCA01B901A50194010E94D527605D65
:10436000F80162938F01211531054105510589F747
:10437000309729F0BF0183EE98E00E944B126DE464
:1043800071E083EE98E00E944B12F9E6CF16F0E25E
:10439000DF06F9E5EF06F10408F457C0CE01829676
:1043A0000E942D1460917D0270917E026F5F7F4F9D
:1043B00070937E0260937D02CE01CF960E944213DD
:1043C000BE01615C7F4FCE0101960E940B1465EF28
:1043D00071E0CE0101960E940113BC0184E79AE0CE
:1043E0000E94F413CE0101960E942514CE01CF96AF
:1043F0000E9425146091740A7091750ACE0101968D
:104400000E941F168B819C819DA38CA38D819E8110
:10441000AF81B8858EA39FA3A8A7B9A789859A85E0
:10442000AB85BC858AA79BA7ACA7BDA7DE011D965F
:10443000FE01BE96CE01CB962D912193E817F90788
:10444000D9F78A8D9B8D9CAF8BAF65E072E083EED0
:1044500098E00E944B1264E77AE083EE98E00E94B5
:104460006D12EBADFCAD309709F4B2CC8581882399
:1044700009F4AECCBE0167597F4FCE0182960E94EF
:104480006D12CE0182960E942D14BE0167597F4F96
:1044900083EE98E00E946D1261E082E10E947E024C
:1044A00061E084E10E94AC0260E084E10E947E024F
:1044B00015E060E570E080E090E00E940A0361E0B2
:1044C0008EE00E94AC0261E08EE00E947E0260E518
:1044D00070E080E090E00E940A0360E08EE00E94BD
:1044E0007E02115031F760E08CE00E947E0260E0B5
:1044F0008DE00E947E0261E082E00E94AC0260E0FA
:1045000082E00E947E02F894109280008DE08093F9
:10451000810087E998E99093890080938800109240
:1045200085001092840082E080936F007894CE0121
:1045300087599F4F0E94251488E896E048E8E42EAA
:1045400042E0F42EF70111927F018E179F07D1F7F9
:1045500061E087E10E947E0260E086E10E947E02C7
:104560000E94380161E086E10E947E02109287027B
:1045700010928602189963CE809187028230D0F320
:10458000109287028BE10E945502682F8DE00E94F5
:104590007E028BE10E945502892B09F445C081E51A
:1045A0000E94BB0188E290E00E94E71085E090E065
:1045B0000E94E7100E94C50168EB7BE080E090E07C
:1045C0000E940A0308EC10E08AEF90E00E94DD02EE
:1045D00061E08FE00E94AC0261E08FE00E947E0209
:1045E0008AEF90E00E94DD0261E08FE00E94AC0261
:1045F00060E08FE00E947E020150110929F78AE6EF
:104600000E94BB0168E188E69AE00E94B8106AE067
:1046100088E69AE00E94B8100E94C50160E177E246
:1046200080E090E00E940A0361E086E10E947E0241
:1046300060E087E10E947E0261E083E10E947E02E9
:1046400060E082E10E947E020CE812E0812C912C55
:104650005401F80181918F01880E911CA11CB11C9D
:10466000EE15FF05B1F76FE471E0CE01CF960E9421
:1046700014140E942A116AE172E0CE01CF960E94C2
:10468000DE126091840270918502CE0101960E9433
:104690004213BE016F5F7F4FCE01CF960E94E8129A
:1046A000CE0101960E94251468EB71E0CE01CF96F1
:1046B0000E94DE124091800250918102609182023C
:1046C00070918302CE0101960E946E13BE016F5F4E
:1046D0007F4FCE01CF960E94E812CE0101960E9434
:1046E00025146BE971E0CE01CF960E94DE124AE0FC
:1046F00060917F02CE0101960E94C713BE016F5FD9
:104700007F4FCE01CF960E94E812CE0101960E9403
:10471000251468EB71E0CE01CF960E94DE12B50140
:10472000A401CE0101960E946E13BE016F5F7F4F00
:10473000CE01CF960E94E812CE0101960E94251468
:1047400038E8C32E32E0D32E68EB71E0CE01CF966D
:104750000E94DE12F60161916F014AE0CE010196DE
:104760000E94C713BE016F5F7F4FCE01CF960E949C
:10477000E812CE0101960E9425140C151D0521F7A3
:104780008091040161E0882309F48ECC8EE00E94C0
:104790007E020E94310B811122CB86EE91E00E94B5
:1047A0005A121092040137CB882309F467CD8E0189
:1047B0000E5D1F4F902F812F072D162D3C01A0CA93
:1047C00084E79AE00E9425148AE79AE00E94251463
:1047D00080E89AE00C942514EF920F931F93CF93E7
:1047E000DF93E80134E047FD34E1042E000C550B63
:1047F00057FF03C0519541955109E32E022F242FF5
:10480000AE010E945C24CE01DF91CF911F910F91E8
:10481000EF900895BB274A3031F4992322F4BDE28A
:10482000909581959F4F0C944324BB27FA01A62FA6
:104830006217710581059105330B30FB66F0AA27DD
:10484000660F771F881F991FAA1FA21710F0A21BBF
:1048500063953850A9F7A05DAA3308F0A95DA1932C
:1048600036F7B111B1931082CA010C94B0264532CB
:10487000510520F4423010F00C944224FB011082C8
:10488000CB010895BB27FB015527AA27880F991F45
:10489000AA1FA41710F0A41B83955051B9F7A05D6F
:1048A000AA3308F0A95DA193009779F7B111B193EC
:1048B0001192CB010C94B0268F929F92AF92BF922F
:1048C000CF92DF92EF92FF920F931F93CF93DF93DC
:1048D000CDB7DEB729970FB6F894DEBF0FBECDBFB8
:1048E0006A01F22EB02E102FFBE3AF2EA01608F4B3
:1048F0001BE31F5F012F27E0AE014F5F5F4F0E9458
:10490000D825BC018981982F9970913009F44EC047
:104910009BE2E1FC04C09E2D9170E0FC49C05E2D3D
:104920005071E82FE87083FF55C084E0911101C0F9
:1049300083E0EF2DE81B8F1508F0E0E0D6018E2F05
:1049400020E25523C9F1992329F0D6019C93C60191
:1049500001966C0196012D5F3F4FE2FE33C08EE45D
:10496000D6018C9391E411969C93119712968C9397
:10497000D9018E2F90E281112AC0E20FF32FF11D91
:1049800010828EEF9FEF29960FB6F894DEBF0FBE10
:10499000CDBFDF91CF911F910F91FF90EF90DF90EE
:1049A000CF90BF90AF909F908F9008959DE2B7CF2A
:1049B00090E2B5CF2D9381508111FCCFCE0ED11C4A
:1049C000E0E0C1CF8EE6D6018C9391E6CCCF9D93EB
:1049D0008150D1CF482F447082FF3DC084E09111B7
:1049E00001C083E08F1510F4EF2DE81BD6018E2F48
:1049F00020E2552309F1992329F0D6019C93C601A1
:104A000001966C0196012D5F3F4FE2FE1BC089E4C9
:104A1000D6018C938EE411968C93119786E41296AE
:104A20008C93D9018E2F90E2882309F4A6CF9D9311
:104A30008150FACF2D9381508111FCCFCE0ED11C25
:104A4000E0E0D9CF89E6D6018C938EE611968C935F
:104A5000119786E6E4CF9B0177FF02C030E020E0AB
:104A6000A1E0B0E0911102C0B0E0A0E0F901319600
:104A7000AE0FBF1F8B2C912CBB2009F461C05401D9
:104A8000EFEFAE1ABE0AAA0DBB1DFA161B0619F0EF
:104A900014F04F2D4A1B511188C0E3FC59C0760118
:104AA000A42FB0E2A1114FC0C40ED11C992309F468
:104AB0005BC040E0D6011196F60190836D0155234D
:104AC00009F448C0012F060F9A81582F507184FFB6
:104AD00003C0913309F4015010160CF047C009309F
:104AE00008F008E0EEE2FE2E5B01A01AB108850195
:104AF0009194819491082F3F320729F4D601FC92BA
:104B0000F60131966F016217730794F102171307CC
:104B10007CF5DB01A21BB30BAA24A394B12CAC0E31
:104B2000BD1EAA0DBB1D11968C9121503109D601D5
:104B3000119628153905F4F0F60180836D01DBCF5D
:104B4000B12CA12CA0CFF701B1937F01A150AACF26
:104B50009111B0CFD601942F50E302C05D939150D4
:104B60009111FCCFC40ED11C40E0ACCF01E0BACF14
:104B700080E3DBCF6217730731F4963388F4953303
:104B800011F4552369F0F6018083FD01842F90E232
:104B9000811108C0A40FB11D1C9290E080E0F3CEFB
:104BA00081E3F1CF91938150F3CF911183CF8ACFDD
:104BB000283008F027E03327DA01990F311D87FDEF
:104BC000916000966105710539F432602E5F3D9366
:104BD00030E32A95E1F708959F3F30F08038710562
:104BE000610509F03C5F3C5F3D93913008F08068BF
:104BF000911DDF93CF931F930F93FF92EF92192F85
:104C0000987F9695E92F96959695E90FFF27EA519B
:104C1000FF4F99273327EE24FF24A701E7010590D2
:104C20000894079428F4360FE71EF81E491F511DFB
:104C3000660F771F881F991F0694A1F705900794A8
:104C400028F4E70EF81E491F561FC11D770F881F55
:104C5000991F661F0694A1F70590079428F4F80E93
:104C6000491F561FC71FD11D880F991F661F771F29
:104C70000694A1F70590079420F4490F561FC71F0B
:104C8000D81F990F661F771F881F0694A9F7849174
:104C90001095177041F0D695C79557954795F7949D
:104CA000E7941A95C1F7ECE8F0E068941590159137
:104CB00035916591959105907FE27395E118F10A20
:104CC000430B560BC90BD009C0F7E10CF11E431F73
:104CD000561FC91FD01D7EF4703311F48A95E6CF9C
:104CE000E894015030F0080F0AF40027021708F486
:104CF000202F2395022F7A3328F079E37D932A958C
:104D0000E9F710C07D932A9589F6069497956795E3
:104D1000379517951794E118F10A430B560BC90BF9
:104D2000D00998F023957E9173957A3308F070E35B
:104D30007C932013B8F77E9170617D9330F083955A
:104D400071E37D9370E32A95E1F71124EF90FF90D2
:104D50000F911F91CF91DF91992787FD909508952D
:104D6000DC01FC01672F71917723E1F7329704C0D2
:104D70007C916D9370836291AE17BF07C8F308955D
:104D8000E89409C097FB3EF49095809570956195E5
:104D90007F4F8F4F9F4F9923A9F0F92F96E9BB279B
:104DA0009395F695879577956795B795F111F8CF17
:104DB000FAF4BB0F11F460FF1BC06F5F7F4F8F4F82
:104DC0009F4F16C0882311F096E911C0772321F078
:104DD0009EE8872F762F05C0662371F096E8862F10
:104DE00070E060E02AF09A95660F771F881FDAF767
:104DF000880F9695879597F908950E9410270C942F
:104E000081270E94732738F00E947A2720F095238B
:104E100011F00C946A270C94702711240C94B52778
:104E20000E94922770F3959FC1F3950F50E0551F94
:104E3000629FF001729FBB27F00DB11D639FAA27EF
:104E4000F00DB11DAA1F649F6627B00DA11D661F3E
:104E5000829F2227B00DA11D621F739FB00DA11D5F
:104E6000621F839FA00D611D221F749F3327A00D19
:104E7000611D231F849F600D211D822F762F6A2FB5
:104E800011249F5750409AF0F1F088234AF0EE0F1A
:104E9000FF1FBB1F661F771F881F91505040A9F747
:104EA0009E3F510580F00C946A270C94B5275F3F14
:104EB000E4F3983ED4F3869577956795B795F79583
:104EC000E7959F5FC1F7FE2B880F911D96958795FB
:104ED00097F9089597F99F6780E870E060E008957A
:104EE0009FEF80EC089500240A9416161706180602
:104EF0000906089500240A941216130614060506DE
:104F00000895092E0394000C11F4882352F0BB0F6E
:104F100040F4BF2B11F460FF04C06F5F7F4F8F4FD1
:104F20009F4F089557FD9058440F551F59F05F3F0C
:104F300071F04795880F97FB991F61F09F3F79F0BB
:104F400087950895121613061406551FF2CF46953D
:104F5000F1DF08C0161617061806991FF1CF8695BF
:104F60007105610508940895E894BB2766277727A3
:104F7000CB0197F908950E94C627A59F900DB49F75
:104F8000900DA49F800D911D11240895A29FB00142
:104F9000B39FC001A39F700D811D1124911DB29F6D
:104FA000700D811D1124911D0895A1E21A2EAA1BD6
:104FB000BB1BFD010DC0AA1FBB1FEE1FFF1FA217C9
:104FC000B307E407F50720F0A21BB30BE40BF50BC6
:104FD000661F771F881F991F1A9469F7609570954F
:104FE000809590959B01AC01BD01CF010895EE0F16
:104FF000FF1F0024001C0BBE0790F691E02D0994C2
:105000005058BB27AA270E9418280C9481270E9479
:10501000732738F00E947A2720F039F49F3F19F463
:1050200026F40C9470270EF4E095E7FB0C946A27A5
:10503000E92F0E94922758F3BA1762077307840773
:10504000950720F079F4A6F50C94B4270EF4E095BA
:105050000B2EBA2FA02D0B01B90190010C01CA0132
:10506000A0011124FF27591B99F0593F50F4503EDD
:1050700068F11A16F040A22F232F342F4427585FCF
:10508000F3CF469537952795A795F0405395C9F7E7
:105090007EF41F16BA0B620B730B840BBAF091509F
:1050A000A1F0FF0FBB1F661F771F881FC2F70EC03E
:1050B000BA0F621F731F841F48F487957795679511
:1050C000B795F7959E3F08F0B0CF9395880F08F0FD
:1050D0009927EE0F9795879508950F931F93CF9378
:1050E000DF938230910510F482E090E0E091880A2D
:1050F000F091890A30E020E0B0E0A0E0309799F428
:105100002115310509F44AC0281B390B243031051B
:10511000D8F58A819B816115710589F1FB01938323
:105120008283FE0111C040815181028113814817A1
:105130005907E0F04817590799F4109761F0129653
:105140000C93129713961C933296CF01DF91CF9157
:105150001F910F9108950093880A1093890AF4CF44
:105160002115310551F04217530738F0A901DB0131
:105170009A01BD01DF01F801C1CFEF01F9CF909392
:10518000890A8093880ACDCFFE01E20FF31F819335
:1051900091932250310939832883D7CF2091860AF1
:1051A0003091870A232B41F42091070130910801A7
:1051B0003093870A2093860A2091050130910601D9
:1051C0002115310541F42DB73EB7409109015091A9
:1051D0000A01241B350BE091860AF091870AE21739
:1051E000F307A0F42E1B3F0B2817390778F0AC010A
:1051F0004E5F5F4F2417350748F04E0F5F1F5093E7
:10520000870A4093860A819391939FCFF0E0E0E074
:105210009CCFCF93DF930097E9F0FC013297138284
:105220001282A091880AB091890AED0130E020E055
:105230001097A1F420813181820F931F2091860A5B
:105240003091870A2817390709F061C0F093870A5F
:10525000E093860ADF91CF910895EA01CE17DF0728
:10526000E8F54A815B819E0141155105B1F7E901DD
:10527000FB83EA8349915991C40FD51FEC17FD07B1
:1052800061F4808191810296840F951FE9019983D1
:105290008883828193819B838A83F0E0E0E0129689
:1052A0008D919C9113970097B9F52D913C91119791
:1052B000CD010296820F931F2091860A3091870AB2
:1052C0002817390739F6309751F51092890A10924C
:1052D000880AB093870AA093860ABCCFD383C2837F
:1052E00040815181840F951FC817D90761F44E5F23
:1052F0005F4F88819981480F591F518340838A816C
:105300009B81938382832115310509F0B0CFF093FF
:10531000890AE093880A9ECFFD01DC01C0CF138289
:105320001282D7CF4F925F926F927F928F929F920D
:10533000AF92BF92CF92DF92EF92FF920F931F93A3
:10534000CF93DF938C01009799F4CB01DF91CF913C
:105350001F910F91FF90EF90DF90CF90BF90AF9093
:105360009F908F907F906F905F904F900C946D28DE
:10537000FC01E60FF71F9C0122503109E217F307E9
:1053800008F4AEC0D901CD91DC911197C617D707AB
:1053900020F1C530D10578F0CE0104978617970724
:1053A00050F0C61BD70B2297C193D1936D937C937A
:1053B000CF010E940929C801DF91CF911F910F9160
:1053C000FF90EF90DF90CF90BF90AF909F908F9025
:1053D0007F906F905F904F9008955B01AC1ABD0A6B
:1053E0004C018C0E9D1EA091880AB091890A512C07
:1053F000412CF12CE12C109731F58091860A909187
:10540000870A8815990509F05CC04616570608F00A
:1054100058C08091050190910601009741F48DB725
:105420009EB74091090150910A01841B950BE81722
:10543000F90708F055C0F093870AE093860AF9014E
:1054400071836083B8CF8D919C91119712966C9067
:10545000129713967C901397A815B90559F56C010E
:1054600042E0C40ED11CCA14DB0420F1AC014A197D
:105470005B09DA011296159780F06282738251837C
:105480004083D9016D937C93E114F10471F0D7014D
:105490001396FC93EE9312978ECF22968C0F9D1F3E
:1054A000F90191838083F301EFCFF093890AE093B0
:1054B000880A81CF4816590608F42C017D01D301D2
:1054C0009ACFCB010E946D287C01009749F0AE0174
:1054D000B8010E94802AC8010E94092987016BCF68
:1054E00010E000E068CFFB01DC0104C08D91019069
:1054F000801921F441505040C8F7881B990B08953A
:10550000FB01DC0102C001900D9241505040D8F7E0
:105510000895FC018191861721F08823D9F79927F6
:1055200008953197CF010895FB01DC0101900D92A0
:105530000020E1F70895FB01DC014150504048F0A4
:1055400001900D920020C9F701C01D9241505040BA
:10555000E0F7089511E0CBE0D1E004C0FE010E9425
:0E556000F7272196CC30D107C9F7F894FFCF7A
:10556E00FFFFFFFF0100008A0A800000000000DF3D
:10557E000EC20EEC109A0EA20E15101F1000000097
:10558E0000E803480375033504A60384039803005B
:10559E00000000380E4803EC10990E00000000B811
:1055AE00108B10EC1074108410550175100D0A003C
:1055BE002F00333565373731633733386438623906
:1055CE0063636563646362653632373366613831AF
:1055DE00626365643631656362382C43494275698E
:1055EE006C6400312E312E302D36352D43494275E7
:1055FE00696C6400234376616B2E2E2E0023486D5A
:10560E006D6D2E2E2E0024444F532C414952444F83
:10561E00533034582C002C302C0030000D0A24440A
:10562E0049472C424154444154554E49543031421D
:10563E002C000D0A244144432C55535453495049D0
:10564E004E3033412C0023534420696E697420661A
:10565E00616C7365002E747874002346696C6573F3
:10566E00697A652C002346696C656E616D652C0048
:10567E002353442066616C73650024484953542CAF
:08568E000024424154542C0099
:00000001FF
