:100000000C9411010C943B010C943B010C943B01AA
:100010000C943B010C943B010C943B010C943B0170
:100020000C943B010C943B010C943B010C943B0160
:100030000C943B010C9472020C943B010C943B0118
:100040000C943B010C943B010C94EA3A0C943B0158
:100050000C9448360C947E360C943B010C943B0176
:100060000C943B010C943B010C941E1B0C943B0123
:100070000C94DF360C9415370C943B010C943B0127
:100080000C943B010C943B010C943B0100407A1012
:10009000F35A00A0724E18090010A5D4E80000E839
:1000A0007648170000E40B54020000CA9A3B000097
:1000B00000E1F505000080969800000040420F0026
:1000C0000000A08601000000102700000000E803E7
:1000D000000000006400000000000A0000000000B2
:1000E0000100000000002C76D888DC674F0823DF71
:1000F000C1DFAE59E1B1B796E5E3E453C63AE65144
:10010000997696E8E6C28426EB898C9B62ED407C6A
:100110006FFCEFBC9C9F40F2BAA56FA5F490055A06
:100120002AF75C936B6CF9676DC11BFCE0E40D472B
:10013000FEF520E6B500D0ED902E0300943577054E
:100140000080841E080000204E0A000000C80C3306
:100150003333330F986E12831141EF8D2114893B95
:10016000E65516CFFEE6DB18D1844B381BF77C1D15
:10017000901DA4BBE424203284725E228100C9F168
:1001800024ECA1E53D277C3C3E5E2B3D3F2F5B5D93
:100190003B2C2A225C000000000203000A0B000036
:1001A0000000050409080000000000000000000035
:1001B000000000000000010204081020408001023D
:1001C0000408102040800102040810204080010231
:1001D000040810204080020202020202020204040B
:1001E00004040404040403030303030303030101DD
:1001F0000101010101010000200023002600290067
:1002000000002200250028002B000000210024000F
:1002100027002A008702331A37205123B236493784
:100220009F0211241FBECFEFD0E4DEBFCDBF13E08D
:10023000A0E0B1E0E4E1F8E800E00BBF02C0079005
:100240000D92AC33B107D9F72DE0ACE3B3E001C0B8
:100250001D92AE39B207E1F711E0C0E1D1E004C070
:100260002197FE010E94B33ECA30D107C9F70E9410
:10027000DB3A0C94FD430C940000DC01ED91FC9101
:100280000190F081E02D09940CB405FC0DC09EBDD9
:1002900000000DB407FEFDCF9EB58EBD00000DB46D
:1002A00007FEFDCF8EB508958EBD00000DB407FE8C
:1002B000FDCF8EB59EBD00000DB407FEFDCF9EB5EF
:1002C0000895982F92959F708F702AE0929F800DCD
:1002D000112408952F923F924F925F926F927F92D6
:1002E0008F929F92AF92BF92CF92DF92EF92FF9246
:1002F0000F931F93CF93DF93CDB7DEB760970FB601
:10030000F894DEBF0FBECDBF1B012C013A0149019D
:100310001E870D87F88AEF861CE3E12EF12C00E0A2
:1003200010E0C201A80197010E94913ED5016C9393
:10033000CA01B901A80197010E94913EF6016083AC
:10034000C201B10120E13EE040E050E00E94913E58
:10035000CA01B90128E130E040E050E00E94913E3E
:10036000AF85B8896C93C201B10120E831E541E065
:1003700050E00E94913E82EB97E0F30191838083ED
:10038000E0E9F1E094E6C92ED12CD3010D911C9146
:100390007801B3E0EB22FF24E114F10431F4C80149
:1003A000B6010E947D3E892B99F4C801BF010E94CD
:1003B0007D3E892B69F08DE691E02817390758F0CA
:1003C000281B390B0F5F1F4FD3010D931C93DDCFFB
:1003D0008EE691E0F2CF8CE0ECE0F1E0DE011196E8
:1003E00001900D928A95E1F7EF2839F4C80164E68F
:1003F00070E00E947D3E892B39F4C80160E971E00C
:100400000E947D3E892B11F48DE18A8381E0F40105
:100410008083D4018C91FE01E80FF11D408150E0F2
:100420002417350728F0241B350B8F5F8C93F1CFF1
:100430002F5FED85FE85208360960FB6F894DEBFB2
:100440000FBECDBFDF91CF911F910F91FF90EF9025
:10045000DF90CF90BF90AF909F908F907F906F90E4
:100460005F904F903F902F900895CF93DF93C8EC0B
:10047000D0E08AEF90E00E949E3B61E08FE00E9416
:10048000133C61E08FE00E944F3C8AEF90E00E94B5
:100490009E3B61E08FE00E94133C60E08FE00E9491
:1004A0004F3C219731F7C8ECD0E084EB90E00E94FC
:1004B0009E3B61E08FE00E94133C61E08FE00E9470
:1004C0004F3C84EB90E00E949E3B61E08FE00E94F5
:1004D000133C60E08FE00E944F3C219731F7DF91A1
:1004E000CF9108951F920F920FB60F9211248F9300
:1004F00080913E038F5F80933E031092850010929F
:1005000084008F910F900FBE0F901F90189562E29C
:1005100071E085E599E00E94F83863E571E08FE4C9
:1005200099E00E94F8386DE871E089E499E00E9452
:10053000F8386DE871E08FE399E00C94F8388FE3B8
:1005400099E00E94863889E499E00E9486388FE419
:1005500099E00E94863885E599E00C948638CF931F
:10056000DF9361E570E08BE599E00E94B21970E0DD
:1005700060E08BE599E00E943D018BE599E00E94E7
:10058000301A46E061E58BE599E00E942A1A8BE576
:1005900099E00E9425190E946101809347038BE531
:1005A00099E00E9425198F770E946101D82F8BE571
:1005B00099E00E9425198F770E946101C82F8BE571
:1005C00099E00E9425190E94610190E0B0E0A0E04E
:1005D0008093480390934903A0934A03B0934B033D
:1005E0008BE599E00E9425190E94610124E6829F13
:1005F000C0011124092E000CAA0BBB0B409148032B
:100600005091490360914A0370914B03840F951FE9
:10061000A61FB71F8093480390934903A0934A03F2
:10062000B0934B038BE599E00E9425190E9461016C
:1006300040E157E2849F9001859F300D1124032EE5
:10064000000C440B550B8091480390914903A091F5
:100650004A03B0914B03280F391F4A1F5B1FA0E1CB
:10066000BEE00E94CB3EAB01BC012CE3C29FC001A7
:100670001124092E000CAA0BBB0B8D0F911DA11D7F
:10068000B11D840F951FA61FB71F80934803909339
:100690004903A0934A03B0934B03DF91CF91089590
:1006A000CF93DF93CDB7DEB7C459D1090FB6F89415
:1006B000DEBF0FBECDBF88E19FE00FB6F894A895CE
:1006C000809360000FBE9093600061E083E10E9420
:1006D0004F3C60E082E10E944F3C61E082E00E947A
:1006E000133C61E082E00E944F3C61E084E10E94A3
:1006F000133C61E084E10E944F3C6DE871E0CE0163
:1007000081579F4F0E94F8380E94AF0264E671E063
:10071000CE0181579F4F0E948B3A6091450970919D
:1007200046094AE0CE0101960E947039BE016F5F12
:100730007F4FCE0181579F4F0E94843ACE01019690
:100740000E94863865EA72E0CE0181579F4F0E9471
:100750008B3A409148035091490360914A0370914C
:100760004B032AE0CE0101960E949C39BE016F5FC7
:100770007F4FCE0181579F4F0E94843ACE01019650
:100780000E94863865EF71E0CE0181579F4F0E942D
:100790008B3A4AE060914703CE0101960E941739D7
:1007A000BE016F5F7F4FCE0181579F4F0E94843AF9
:1007B000CE0101960E94863865EA72E0CE0181572B
:1007C0009F4F0E948B3A4BE559E064E4CE01885A72
:1007D0009F4F0E94E92FCE01885A9F4F0E942030E0
:1007E00061E0CE01885A9F4F0E94A330E1966EAD22
:1007F0007FADE19790E080E00E944E3D2FEA30E02F
:100800004FE25BE30E94003E20E030E044E352E42C
:100810000E94A63CAB01BC0121E0CE0101960E94E2
:10082000F839BE016F5F7F4FCE0181579F4F0E9405
:10083000843ACE0101960E94863865EA72E0CE01C4
:1008400001960E94F838BE016F5F7F4FCE0181573D
:100850009F4F0E94843ACE0101960E948638AF963F
:100860006EAD7FADAF9790E080E00E944E3D28ECEA
:1008700030E048EC5AE30E94003EAB01BC0121E0AD
:10088000CE0101960E94F839BE016F5F7F4FCE0105
:1008900081579F4F0E94843ACE0101960E9486386C
:1008A00065EA72E0CE0101960E94F838BE016F5FE2
:1008B0007F4FCE0181579F4F0E94843ACE0101960F
:1008C0000E9486384BE559E065E4CE01CC960E9443
:1008D000E92FCE01CC960E94203061E0CE01CC966B
:1008E0000E94A33065966EAD7FAD659790E080E085
:1008F0000E944E3D2FEA30E04FE25BE30E94003E53
:1009000020E030E044E352E40E94A63CAB01BC018D
:1009100021E0CE0101960E94F839BE016F5F7F4F42
:10092000CE0181579F4F0E94843ACE0101960E94CA
:10093000863865EA72E0CE0101960E94F838BE0161
:100940006F5F7F4FCE0181579F4F0E94843ACE0147
:1009500001960E94863863966EAD7FAD639790E0F6
:1009600080E00E944E3D28EC30E048EC5AE30E94C3
:10097000003EAB01BC0121E0CE0101960E94F83996
:10098000BE016F5F7F4FCE0181579F4F0E94843A17
:10099000CE0101960E94863865EA72E0CE0101968A
:1009A0000E94F838BE016F5F7F4FCE0181579F4F85
:1009B0000E94843ACE0101960E9486384BE559E0A8
:1009C00067E7CE0101960E94CF30CE0101960E94CA
:1009D000F9346A81CE0101960E948D32CE010196D2
:1009E0000E940931AB01BC0122E0CE018C589F4F1F
:1009F0000E94F839BE016C587F4FCE0181579F4F3E
:100A00000E94843ACE018C589F4F0E94863865EA36
:100A100072E0CE018C589F4F0E94F838BE016C588E
:100A20007F4FCE0181579F4F0E94843ACE018C5850
:100A30009F4F0E948638CE0101960E944031AB0143
:100A4000BC0122E0CE018C589F4F0E94F839BE01B4
:100A50006C587F4FCE0181579F4F0E94843ACE0140
:100A60008C589F4F0E94863861E084E10E94133CBD
:100A700060E084E10E944F3C61E082E00E94133C10
:100A800060E082E00E944F3C0FB6F894A8958091F8
:100A90006000886180936000109260000FBEBE010C
:100AA00061577F4F83EF9CE00E94D337809107010D
:100AB000882371F164E08DEF99E00E94811E6AE65F
:100AC00071E0882309F443C04091490950914A09D3
:100AD00023E16DEF79E0CE018C589F4F0E94A11F5A
:100AE000CE018C589F4F0E94751D882371F1BE0165
:100AF00061577F4FCE018C589F4F0E94D337CE0154
:100B00008C589F4F0E94631D61E084E00E944F3C1F
:100B100061E082E10E944F3C60E083E10E944F3C33
:100B200061E070E080E090E00E94653BCE0181577B
:100B30009F4F0E948638CC56DF4F0FB6F894DEBF29
:100B40000FBECDBFDF91CF91089569E771E083EFCC
:100B50009CE00E94E53710920701D6CF4F925F923A
:100B60006F927F92AF92BF92CF92DF92EF92FF92FD
:100B70000F931F93CF93DF93CDB7DEB7AD970FB62B
:100B8000F894DEBF0FBECDBF61E083E10E944F3C11
:100B900060E082E10E944F3C0E94AF026DE871E08C
:100BA000CE0188960E94F83863E871E0CE018896FD
:100BB0000E948B3A60914509709146094AE0CE0146
:100BC00001960E947039BE016F5F7F4FCE018896FB
:100BD0000E94843ACE0101960E94863865EA72E04E
:100BE000CE0188960E948B3A6091D9067091DA0600
:100BF0004AE0CE0101960E947039BE016F5F7F4FBF
:100C0000CE0188960E94843ACE0101960E948638D1
:100C100087E5E82E83E0F82E9EEAC92E95E0D92ECE
:100C20002BEDA22E26E0B22E01E010E080915303BE
:100C3000909154030817190708F051C00C3221E0B5
:100C4000120709F44CC0F60181916F01F501419042
:100C500051905F01712C612C882331F0F7E94F0E20
:100C6000F8E95F1E611C711C6BE871E0CE0188968B
:100C70000E948B3A6EE871E0CE0188960E948B3A12
:100C80002AE0B301A201CE0101960E949C39BE0167
:100C90006F5F7F4FCE0188960E94843ACE01019605
:100CA0000E94863865EA72E0CE0188960E948B3AEF
:100CB000F701619171917F014AE0CE0101960E9496
:100CC0007039BE016F5F7F4FCE0188960E94843AD3
:100CD000CE0101960E9486380F5F1F4FA7CF62E9B1
:100CE00071E0CE0188960E948B3A6091450970911F
:100CF00046094AE0CE0101960E947039BE016F5F3D
:100D00007F4FCE0188960E94843ACE0101960E94C0
:100D1000863865EA72E0CE0188960E948B3A40914F
:100D200048035091490360914A0370914B032AE0B4
:100D3000CE0101960E949C39BE016F5F7F4FCE01AC
:100D400088960E94843ACE0101960E94863865EF0B
:100D500071E0CE0188960E948B3A4AE06091470389
:100D6000CE0101960E941739BE016F5F7F4FCE0101
:100D700088960E94843ACE0101960E94863865EAE0
:100D800072E0CE0188960E948B3A80919400609127
:100D90009500762F682F4AE0CE0101960E947039A7
:100DA000BE016F5F7F4FCE0188960E94843ACE01CC
:100DB00001960E94863865EA72E0CE0188960E940C
:100DC0008B3A6091530370915403615071094AE06A
:100DD000CE0101960E947039BE016F5F7F4FCE0138
:100DE00088960E94843ACE0101960E94863801E3DB
:100DF00019E065EA72E0CE0188960E948B3AF8010C
:100E0000619171918F014AE0CE0101960E94703983
:100E1000BE016F5F7F4FCE0188960E94843ACE015B
:100E200001960E948638F9E009331F0711F7BE01C9
:100E3000685D7F4F83EF9CE00E94D337809107016C
:100E400061E0882309F4C3C08EE00E944F3C64E057
:100E50008DEF99E00E94811E6AE671E0882309F413
:100E6000AFC04091490950914A0923E16DEF79E003
:100E7000CE0101960E94A11FCE0101960E94751D10
:100E8000882309F49BC0BE01685D7F4FCE010196A7
:100E90000E94D337CE0101960E94631D61E084E079
:100EA0000E944F3C60E08EE00E944F3C60E08DE08D
:100EB0000E944F3C8091450990914609893F9A4292
:100EC00008F455C0109246091092450960914709EF
:100ED000709148096F5F7F4F70934809609347098D
:100EE0004AE0CE014C960E947039BE01645E7F4F8D
:100EF000CE0101960E94E0396BE971E0CE010196C6
:100F00000E94AD3ABC0189E499E00E94C939CE0142
:100F100001960E948638CE014C960E9486388091B8
:100F2000390990913A09019690933A0980933909C9
:100F300060EA71E083EF9CE00E94C03769E479E0E9
:100F400083EF9CE00E94D33780910701882379F0DA
:100F500064E08DEF99E00E94811E81116DC06AE608
:100F600071E083EF9CE00E94E5371092070161E099
:100F700082E10E944F3C60E083E10E944F3C61E0CF
:100F800070E080E090E00E94653BCE0188960E9470
:100F90008638AD960FB6F894DEBF0FBECDBFDF9199
:100FA000CF911F910F91FF90EF90DF90CF90BF9066
:100FB000AF907F906F905F904F90089569E771E0D8
:100FC00083EF9CE00E94E5371092070167CF8DE028
:100FD0000E944F3CCCA4DDA410E000E0FF24FA9472
:100FE0008DE10E947D3C892B19F0FA94F110F8CF25
:100FF00082E390E00E949E3B78012FEFE21AF20A12
:10100000B801CE0188960E94C73AFC01608186E54E
:101010009CE00E94C837CE14DF0460F486E59CE0B3
:101020000E94CF37BE01685D7F4F83EF9CE00E9436
:10103000D33738CF8701D2CF4091490950914A091F
:1010400023E16DEF79E0CE0101960E94A11FCE0150
:1010500001960E94751D882309F452C06FE379E060
:10106000CE0182960E94E0396BEA71E0CE01829651
:101070000E948B3A6091390970913A094AE0CE0199
:101080004C960E947039BE01645E7F4FCE018296FD
:101090000E94843ACE014C960E94863865EA72E03E
:1010A000CE0182960E948B3A40913B0950913C09B7
:1010B00060913D0970913E092AE0CE014C960E9454
:1010C0009C39BE01645E7F4FCE0182960E94843AB5
:1010D000CE014C960E948638BE016E5D7F4FCE01D8
:1010E00001960E94D337CE0101960E94631DCE0166
:1010F00082960E94863861E084E00E944F3C37CFA0
:1011000069E771E083EF9CE00E94E53710920701E8
:10111000F2CF0F931F93CF93DF93C82F65E570E055
:101120008BE599E00E94B2190C2E000CDD0BBE017C
:101130008BE599E00E943D018BE599E00E94301A11
:1011400041E050E065E570E08BE599E00E942D1AE2
:101150008BE599E00E9425198C0165E570E08BE52F
:1011600099E00E94B219BE016F5F7F4F8BE599E055
:101170000E943D018BE599E00E94301A41E050E069
:1011800065E570E08BE599E00E942D1A8BE599E00A
:101190000E94251920E0382FC901800F911FDF918F
:1011A000CF911F910F910895CF93DF93CDB7DEB705
:1011B000A1970FB6F894DEBF0FBECDBF61E083E10B
:1011C0000E944F3C60E082E10E944F3C6DE871E07C
:1011D000CE014C960E94F8380E94AF0264EB71E099
:1011E000CE014C960E948B3A609145097091460958
:1011F0004AE0CE0101960E947039BE016F5F7F4FB9
:10120000CE014C960E94843ACE0101960E94863807
:1012100065EA72E0CE014C960E948B3A40914803F9
:101220005091490360914A0370914B032AE0CE012B
:1012300001960E949C39BE016F5F7F4FCE014C9694
:101240000E94843ACE0101960E94863865EF71E0D3
:10125000CE014C960E948B3A4AE060914703CE0142
:1012600001960E941739BE016F5F7F4FCE014C96E9
:101270000E94843ACE0101960E94863865EA72E0A7
:10128000CE014C960E948B3A88E00E9489084AE081
:10129000BC01CE0101960E944439BE016F5F7F4FB1
:1012A000CE014C960E94843ACE0101960E94863867
:1012B00065EA72E0CE014C960E948B3A8AE00E9469
:1012C00089084AE0BC01CE0101960E944439BE0162
:1012D0006F5F7F4FCE014C960E94843ACE010196FB
:1012E0000E94863865EA72E0CE014C960E948B3AE5
:1012F00084E00E9489084AE0BC01CE0101960E9468
:101300004439BE016F5F7F4FCE014C960E94843AF4
:10131000CE0101960E94863865EA72E0CE014C96B5
:101320000E948B3A86E00E9489084AE0BC01CE0107
:1013300001960E944439BE016F5F7F4FCE014C96EB
:101340000E94843ACE0101960E94863865EA72E0D6
:10135000CE014C960E948B3A8CE00E948908BC0119
:10136000990F880B990B0E94503D2DEC3CEC4CECF6
:101370005DE30E94003E23E333E948E853E40E9422
:10138000A63CAB01BC0122E0CE0101960E94283AA6
:10139000BE016F5F7F4FCE014C960E94843ACE0112
:1013A00001960E948638BE01645E7F4F83EF9CE009
:1013B0000E94D33780910701882349F164E08DEFC3
:1013C00099E00E94811E6AE671E08823E9F140916C
:1013D000490950914A0923E16DEF79E0CE01019668
:1013E0000E94A11FCE0101960E94751D882351F114
:1013F000BE01645E7F4FCE0101960E94D337CE01BD
:1014000001960E94631D61E084E00E944F3C61E010
:1014100082E10E944F3C60E083E10E944F3C61E02A
:1014200070E080E090E00E94653BCE014C960E9407
:101430008638A1960FB6F894DEBF0FBECDBFDF9100
:10144000CF91089569E771E083EF9CE00E94E53752
:1014500010920701D8CF10923209109231091092E0
:1014600034091092330910923609109235091092FE
:1014700038091092370981E090E0909354038093EB
:10148000530361E087E10E944F3C60E086E10E94E7
:101490004F3C90E080E00E94440161E086E10E94C0
:1014A0004F3C10928500109284009091940080919E
:1014B00095008927982789279093DA068093D90683
:1014C00010923E0310923D0310923C0310E208E19B
:1014D000B9E2FB2EC1E0D0E018993EC180913E03F5
:1014E0008230D0F38EE10E947D3C892B29F5A8EC57
:1014F000CA2ED12C86E990E00E949E3B61E08FE0ED
:101500000E94133C61E08FE00E944F3C86E990E02E
:101510000E949E3B61E08FE00E94133C60E08FE000
:101520000E944F3C41E0C41AD10821F780914E033C
:1015300091E0892780934E0310923E0380913D03F2
:101540008F5F80933D0380913C038F5F80933C03CA
:101550008BE10E947D3C682F8DE00E944F3C8BE127
:101560000E947D3C892B09F48DC061E570E08BE51C
:1015700099E00E94B21967E28BE599E00E94481950
:1015800060E08BE599E00E94481965E970E08BE521
:1015900099E00E943D018BE599E00E94301A68EBCA
:1015A0007BE080E090E00E94653BC8ECD0E08AEFF1
:1015B00090E00E949E3B61E08FE00E94133C61E05E
:1015C0008FE00E944F3C8AEF90E00E949E3B61E0DA
:1015D0008FE00E94133C60E08FE00E944F3C219717
:1015E00031F761E570E08BE599E00E94B21967E29E
:1015F0008BE599E00E94481963E08BE599E00E9431
:10160000481965E970E08BE599E00E943D018BE5A2
:1016100099E00E94301A6AE670E08BE599E00E943A
:10162000B21968E18BE599E00E9448196AE08BE500
:1016300099E00E9448198BE599E00E94301A68E809
:1016400073E180E090E00E94653BC8ECD0E08AEF57
:1016500090E00E949E3B61E08FE00E94133C61E0BD
:101660008FE00E944F3C8AEF90E00E949E3B61E039
:101670008FE00E94133C60E08FE00E944F3C219776
:1016800031F7DDCF61E086E10E944F3C60E087E109
:101690000E944F3C0FB6F894A895009360000FBECF
:1016A000F09260000E94AE0510923209109231094A
:1016B00010923409109233091092360910923509AC
:1016C0001092380910923709D0935403C0935303F2
:1016D00080913C038E3120F010923C030E94500315
:1016E00080913D03843B20F010923D030E94D4087A
:1016F00061E087E10E944F3C60E086E10E944F3C40
:1017000090E080E00E94440161E086E10E944F3C4D
:101710000FB6F894A895809160008861809360006E
:10172000109260000FBE8091450990914609019684
:101730009093460980934509109285001092840089
:1017400090919400809195008927982789279093FC
:10175000DA068093D906C0CE60E086E10E944F3C55
:1017600090E080E00E94440120914E03222361F129
:101770008430910560F12BB121272BB920915303BF
:10178000309154032C32E1E03E07B8F460918400BC
:1017900070918500A901440F551FFA01E752F94FD6
:1017A0007183608360913E03F901E355FA4F6083D2
:1017B0004B5A5C4FFA01918380832F5F3F4F3093E8
:1017C0005403209353030DC084309105B8F6880F5D
:1017D000991FFC01EF5CF64F808191810196918306
:1017E000808361E086E10E944F3C76CE0F931F9389
:1017F000CF93DF93CDB7DEB7A1970FB6F894DEBFD6
:101800000FBECDBF082F162F61E570E08BE599E084
:101810000E94B21963E28BE599E00E94481960E0EA
:101820008BE599E00E94481960E08BE599E00E9401
:10183000481965E08BE599E00E94481960E08BE566
:1018400099E00E94481960E08BE599E00E944819F0
:1018500067E98BE599E00E94481960E08BE599E023
:101860000E94481960E08BE599E00E9448198BE5D9
:1018700099E00E94301A61E570E08BE599E00E94E2
:10188000B2196FE270E08BE599E00E943D016CE2D5
:1018900070E08BE599E00E943D018BE599E00E94A4
:1018A000301A61E570E08BE599E00E94B21968E2B8
:1018B00070E08BE599E00E943D0167E970E08BE5FF
:1018C00099E00E943D018BE599E00E94301A61E5A4
:1018D00070E08BE599E00E94B21960E08BE599E039
:1018E0000E94481960E08BE599E00E94481960E089
:1018F0008BE599E00E94481960E08BE599E00E9431
:10190000481960E08BE599E00E94481960E08BE59A
:1019100099E00E94481960E08BE599E00E9448191F
:101920008BE599E00E94301A0E94AF026BEB71E0E8
:10193000CE014C960E94F8384091480350914903DB
:1019400060914A0370914B032AE0CE0101960E94F8
:101950009C39BE016F5F7F4FCE014C960E94843A46
:10196000CE0101960E94863865EF71E0CE014C965B
:101970000E948B3A4AE060914703CE0101960E9493
:101980001739BE016F5F7F4FCE014C960E94843A9B
:10199000CE0101960E94863864EC71E0CE014C962F
:1019A0000E948B3A003130F463ED71E0CE014C9629
:1019B0000E948B3A40E1602FCE0101960E941739B8
:1019C000BE016F5F7F4FCE014C960E94843ACE01DC
:1019D00001960E94863865ED71E0CE014C960E941A
:1019E0008B3A103130F463ED71E0CE014C960E94D9
:1019F0008B3A40E1612FCE0101960E941739BE015A
:101A00006F5F7F4FCE014C960E94843ACE010196C3
:101A10000E948638BE01645E7F4F83EF9CE00E9487
:101A2000D33780910701882319F164E08DEF99E0A5
:101A30000E94811E8823E1F04091490950914A0992
:101A400023E16DEF79E0CE0101960E94A11FCE0146
:101A500001960E94751D882359F0BE01645E7F4F78
:101A6000CE0101960E94D337CE0101960E94631DDC
:101A7000CE014C960E948638A1960FB6F894DEBF30
:101A80000FBECDBFDF91CF911F910F910895CF93DE
:101A9000DF93D82FC62F6AE670E08BE599E00E94AD
:101AA000B2196D2F8BE599E00E9448196C2F8BE5D8
:101AB00099E00E9448198BE599E0DF91CF910C9451
:101AC000301ACF93C82F6AE670E08BE599E00E9448
:101AD000B21962E08BE599E00E94481960E671E076
:101AE0008BE599E00E943D018BE599E00E94301A58
:101AF0006AE670E08BE599E00E94B21964E18BE53B
:101B000099E00E94481966E28BE599E0CC2309F43C
:101B100048C00E94481969E18BE599E00E94481984
:101B200060EA8BE599E00E94481966E58BE599E04B
:101B30000E94481960E08BE599E00E94481961E035
:101B40008BE599E00E9448198BE599E00E94301AD4
:101B50006AE670E08BE599E00E94B2196AE18BE5D4
:101B600099E00E9448196FEB8BE599E00E944819B3
:101B70008BE599E00E94301A6AE670E08BE599E007
:101B80000E94B21966E28BE599E00E9448196CE860
:101B90008BE599E00E9448198BE599E0CF910C9470
:101BA000301A0E94481969E98BE599E00E944819AA
:101BB00060E0B7CFCF93C82F61E570E08BE599E087
:101BC0000E94B2196C2F8BE599E00E9448198BE5B1
:101BD00099E00E94301A41E061E58BE599E00E94AE
:101BE0002A1A8BE599E00E941E19892B31F08BE5AA
:101BF00099E00E942519CF9108958FEFFCCF0F93A4
:101C00001F93CF93DF93CDB7DEB7A1970FB6F894AC
:101C1000DEBF0FBECDBF87E00E94DA0D182F88E22D
:101C20000E94DA0D082F807117FD02C081110FC0CC
:101C3000602F812F0E94F60BA1960FB6F894DEBF9D
:101C40000FBECDBFDF91CF911F910F9108950E94DC
:101C5000AF026BEB71E0CE014C960E94F8384091D8
:101C600048035091490360914A0370914B032AE065
:101C7000CE0101960E949C39BE016F5F7F4FCE015D
:101C80004C960E94843ACE0101960E94863865EFF8
:101C900071E0CE014C960E948B3A4AE06091470376
:101CA000CE0101960E941739BE016F5F7F4FCE01B2
:101CB0004C960E94843ACE0101960E9486386FEDC0
:101CC00071E0CE014C960E948B3A103130F463EDF6
:101CD00071E0CE014C960E948B3A40E1612FCE011B
:101CE00001960E941739BE016F5F7F4FCE014C965F
:101CF0000E94843ACE0101960E94863865ED71E01B
:101D0000CE014C960E948B3A40E1602FCE010196A5
:101D10000E941739BE016F5F7F4FCE014C960E9423
:101D2000843ACE0101960E948638BE01645E7F4FE0
:101D300083EF9CE00E94D33780910701882319F13B
:101D400064E08DEF99E00E94811E8823E1F04091CC
:101D5000490950914A0923E16DEF79E0CE010196DE
:101D60000E94A11FCE0101960E94751D882359F083
:101D7000BE01645E7F4FCE0101960E94D337CE0133
:101D800001960E94631DCE014C960E94863854CF66
:101D9000CF93C82F6AE670E08BE599E00E94B219F4
:101DA0006C2F8BE599E00E94481960E08BE599E083
:101DB0000E94B41941E06AE68BE599E00E942A1A74
:101DC0008BE599E00E941E19892B31F08BE599E093
:101DD0000E942519CF91089580E0FCCFCF93DF9327
:101DE000C82F6AE670E08BE599E00E94B2196C2F6B
:101DF0008BE599E00E94481960E08BE599E00E942C
:101E0000B41942E06AE68BE599E00E942A1A8BE554
:101E100099E00E941E1902978CF08BE599E00E94D0
:101E20002519EC018BE599E00E94251920E0382F57
:101E3000C9018C2B9D2BDF91CF91089590E080E01C
:101E4000FACF0F931F93CF93DF938C0186E10E940B
:101E5000C80EC82FD82FDF7D6D2F86E10E94470D59
:101E600062E370E080E090E00E94653B6D2F60646B
:101E700086E10E94470D68EC70E080E090E00E94EF
:101E8000653B6C2F6F7986E10E94470D64E170E03D
:101E900080E090E00E94653B87E20E94C80E682FB8
:101EA0006F7E87E20E94470D86E20E94C80E8F7CFB
:101EB000682F626C86E20E94470D62E370E080E06A
:101EC00090E00E94653B80E30E94EE0E9695879518
:101ED0009C013F70A7ECB0E00E94BC3E24E630E0DD
:101EE00040E050E00E94913EF8013183208381E080
:101EF000283B3B4008F480E0DF91CF911F910F9188
:101F00000895CF92DF92EF92FF920F931F93CF939A
:101F1000DF93D82F7B01682F8BE599E00E94A819E9
:101F200060E08BE599E00E94481960E08BE599E05C
:101F30000E9448198BE599E00E94301AC0E085E3C1
:101F4000C82ED12C0C2F10E0A601401B510B4131A3
:101F5000510510F040E150E06D2F8BE599E00E94B3
:101F60002A1A0E0D1F1D8BE599E00E941E19892B60
:101F700059F0C533F8F48BE599E00E942519CF5F3D
:101F8000F80181938F01EFCFC533A0F46D2F8BE55E
:101F900099E00E94A81960E08BE599E00E94481939
:101FA0006C2F8BE599E00E9448198BE599E00E941F
:101FB000301AC8CF81E0C53309F080E0DF91CF91BE
:101FC0001F910F91FF90EF90DF90CF9008954F9267
:101FD0005F926F927F92AF92BF92CF92DF92EF9219
:101FE000FF920F931F93CF93DF93CDB7DEB7C25805
:101FF000D1090FB6F894DEBF0FBECDBF26E040E09A
:1020000052EC61E070E086E59CE00E94F63526E047
:1020100040E052EC61E070E083EF9CE00E94F63516
:1020200040EA56E861E070E08BE599E00E94A4196F
:102030006EEE71E083EF9CE00E94E53760E08BE19B
:102040000E94133C60E085E10E94133C60E08DE15A
:102050000E94133C60E08EE10E94133C61E086E147
:102060000E94133C61E087E10E94133C60E080E045
:102070000E94133C61E08FE00E94133C61E082E12A
:102080000E94133C61E082E10E944F3C61E082E0EB
:102090000E94133C61E082E00E944F3C61E08AE1D3
:1020A0000E94133C61E08AE10E944F3C61E083E1C1
:1020B0000E94133C61E083E00E94133C61E084E0F5
:1020C0000E94133C60E085E00E94133C60E086E0E3
:1020D0000E94133C61E087E00E94133C61E083E1D1
:1020E0000E944F3C61E084E00E944F3C60E087E04A
:1020F0000E944F3C64E670E080E090E00E94653B07
:1021000060E083E00E944F3C61E084E10E94133C68
:1021100060E084E10E944F3C80E00E94610D64E633
:1021200070E080E090E00E94653B8CE493E00E94C8
:10213000210F809306010E94610D8BE10E947D3C7E
:10214000892B09F42CC188E19FE00FB6F894A8957B
:10215000809360000FBE909360006AE670E08BE5AC
:1021600099E00E94B2196DE270E08BE599E00E945F
:102170003D018BE599E00E94301A41E06AE68BE56B
:1021800099E00E942A1A8BE599E00E942519A895EA
:1021900068EE73E080E090E00E94653BA89568EEF1
:1021A00073E080E090E00E94653BA89568EE73E0E4
:1021B00080E090E00E94653BA89511E001E06AE6AE
:1021C00070E08BE599E00E94B2196DE270E08BE55A
:1021D00099E00E943D018BE599E00E94301A41E0B0
:1021E0006AE68BE599E00E942A1A8BE599E00E9445
:1021F0002519A8958F77813108F07FC08BE10E9467
:102200007D3C682F8DE00E944F3C61E570E08BE5DE
:1022100099E00E94B21968E270E08BE599E00E94B3
:102220003D0165E970E08BE599E00E943D018BE599
:1022300099E00E94301AA89568EE73E080E090E083
:102240000E94653BA89568EE73E080E090E00E94F4
:10225000653BA89568EE73E080E090E00E94653BE6
:10226000A89508EC10E08AEF90E00E949E3B61E0A8
:102270008FE00E94133C61E08FE00E944F3C8AEFA8
:1022800090E00E949E3B61E08FE00E94133C60E082
:102290008FE00E944F3C0150110929F761E570E081
:1022A0008BE599E00E94B21967E28BE599E00E9404
:1022B000481963E08BE599E00E94481965E970E0F0
:1022C0008BE599E00E943D018BE599E00E94301A70
:1022D0006AE670E08BE599E00E94B21968E18BE54F
:1022E00099E00E9448196AE08BE599E00E9448193C
:1022F0008BE599E00E94301AFFCFA895112311F1C8
:1023000061E0002351F183E00E944F3C0E943502BE
:1023100061E770E08BE599E00E94B21960E08BE51F
:1023200099E00E94481963E18BE599E00E94481901
:102330008BE599E00E94301A68EE73E080E090E04F
:102340000E94653B8EE10E947D3C10E0892B09F0E4
:1023500036CF81E0082711E032CF8CE00E94133C99
:1023600060E08CE00E944F3C0E94350261E770E023
:102370008BE599E00E94B21960E08BE599E00E943C
:10238000481960E18BE599E00E9448198BE599E0D6
:102390000E94301A60E083E00E944F3CCDCF61E0A4
:1023A00084E10E94133C61E084E10E944F3C15E00F
:1023B00060E570E080E090E00E94653B61E08CE0C9
:1023C0000E94133C61E08CE00E944F3C60E570E0AD
:1023D00080E090E00E94653B60E08CE00E944F3C12
:1023E000115031F761E08CE00E944F3C08EC10E0A6
:1023F00084EB90E00E949E3B61E08FE00E94133CE2
:1024000061E08FE00E944F3C84EB90E00E949E3B95
:1024100061E08FE00E94133C60E08FE00E944F3C3F
:102420000150110929F767EF71E083EF9CE00E94EA
:10243000E53760E087E10E944F3C61E086E10E9461
:102440004F3C61E570E08BE599E00E94B21967E2CC
:102450008BE599E00E94481963E08BE599E00E94C2
:10246000481967E98BE599E00E94481988E199E2EB
:102470000FB6F894A895809360000FBE909360000B
:102480000E94AF028091480390914903A0914A03B2
:10249000B0914B038093430390934403A09345036F
:1024A000B093460360E072E083EF9CE00E94C03787
:1024B000409143035091440360914503709146035A
:1024C0002AE030E083EF9CE00E947438BE016F5F29
:1024D0007F4F80E50E94810F882309F406C58E8D09
:1024E0009F8DA8A1B9A180933F0390934003A0932F
:1024F0004103B09342036BE072E083EF9CE00E94E3
:10250000C03740913F035091400360914103709167
:1025100042032AE030E083EF9CE00E9474386EE1D1
:1025200072E083EF9CE00E94C0374A8D5B8D6C8D1A
:102530007D8D2AE030E083EF9CE00E94743861E3F7
:1025400072E083EF9CE00E94C0374AA15BA16CA1BE
:102550007DA12AE030E083EF9CE00E947438409037
:102560003F03509040036090410370904203411438
:1025700051046104710409F4C7C48091430390912C
:102580004403A0914503B0914603480E591E6A1EAC
:102590007B1E4AA15BA16CA17DA18C019D01041B46
:1025A000150B260B370BC158DF4F088319832A837D
:1025B0003B83CF57D0409E0126583F4F5901CE0153
:1025C00085589F4F6C018E0104581F4F78010F5F93
:1025D0001F4F2C5F3F4FAE0148585F4FC301B20100
:1025E0000E946A016FE572E083EF9CE00E94C037B1
:1025F0002AE030E0C158DF4F488159816A817B81F0
:10260000CF57D04083EF9CE00E9474386AE672E0B6
:1026100083EF9CE00E94C0372AE030E0B301A201C2
:1026200083EF9CE00E9474386EE772E083EF9CE0D9
:102630000E94C037EA966EAD7FADEA974AE050E05F
:1026400083EF9CE00E946E386DE872E083EF9CE0BF
:102650000E94C037EF968FADEF978A3030F463ED6C
:1026600071E083EF9CE00E94C0374AE050E0EF96B3
:102670006FADEF9783EF9CE00E9455386DE872E0F4
:1026800083EF9CE00E94C037EE968FADEE978A30C4
:1026900030F463ED71E083EF9CE00E94C0374AE0C4
:1026A00050E0EE966FADEE9783EF9CE00E945538B8
:1026B0006FE872E083EF9CE00E94C037ED968FAD2B
:1026C000ED978A3030F463ED71E083EF9CE00E9477
:1026D000C0374AE050E0ED966FADED9783EF9CE098
:1026E0000E94553861E972E083EF9CE00E94C03798
:1026F000EC968FADEC978A3030F463ED71E083EFA8
:102700009CE00E94C0374AE050E0EC966FADEC9739
:1027100083EF9CE00E94553861E972E083EF9CE012
:102720000E94C037EB968FADEB978A3030F463EDA3
:1027300071E083EF9CE00E94C0374AE050E0EB96E6
:102740006FADEB9783EF9CE00E945C3863E972E029
:10275000CE01C6960E94F8386FE479E0CE01C696A5
:102760000E949A3A63EA72E00E94AD3A65E579E028
:102770000E949A3A65EA72E00E94AD3A8E010E58C4
:102780001F4FBC01C8010E94E039CE01C6960E94CD
:1027900086386BE570E08BE599E00E94B21968E03D
:1027A00070E08BE599E00E943D0170E060E08BE510
:1027B00099E00E943D018BE599E00E94301A40E1CA
:1027C0006BE58BE599E00E942A1A80E1F82E8BE5F3
:1027D00099E00E942519E82E2FE0281728F063EDD4
:1027E00071E0C8010E948B3A40E16E2DCE01C69681
:1027F0000E941739BE016A5C7F4FC8010E94843A6B
:10280000CE01C6960E948638FA94F110E0CF67EAAE
:1028100072E0C8010E948B3A68E570E08BE599E0B0
:102820000E94B21968E070E08BE599E00E943D01DA
:1028300070E060E08BE599E00E943D018BE599E056
:102840000E94301A40E168E58BE599E00E942A1A5F
:1028500010E18BE599E00E942519082F803138F4AA
:1028600063ED71E0CE018E589F4F0E948B3A61E07C
:1028700082E00E94133C61E082E00E944F3C61E0F4
:102880008AE10E94133C61E08AE10E944F3C40E1F2
:10289000602FCE01C6960E941739BE016A5C7F4F39
:1028A000CE018E589F4F0E94843ACE01C6960E9458
:1028B0008638115071F665EA72E0CE018E589F4F4E
:1028C0000E948B3A60E570E08BE599E00E94B219B6
:1028D00070E060E08BE599E00E943D0170E060E00F
:1028E0008BE599E00E943D018BE599E00E94301A4A
:1028F00042E060E58BE599E00E942A1A8BE599E0B9
:102900000E942519809350038BE599E00E942519B8
:1029100080934F0340E160915003CE01C6960E9420
:102920001739BE016A5C7F4FCE018E589F4F0E94BF
:10293000843ACE01C6960E94863840E160914F03EA
:10294000CE01C6960E941739BE016A5C7F4FCE0148
:102950008E589F4F0E94843ACE01C6960E948638B8
:102960006DEB72E0CE018E589F4F0E948B3A6BE563
:1029700070E08BE599E00E94B21968E070E08BE5A9
:1029800099E00E943D0170E060E08BE599E00E94D3
:102990003D018BE599E00E94301A40E16BE58BE543
:1029A00099E00E942A1A10E18BE599E00E9425190E
:1029B000082F803138F463ED71E0CE018E589F4FBF
:1029C0000E948B3A40E1602FCE01C6960E941739D3
:1029D000BE016A5C7F4FCE018E589F4F0E94843AA1
:1029E000CE01C6960E9486381150F1F665EA72E073
:1029F000CE018E589F4F0E948B3A63E570E08BE5C5
:102A000099E00E94B21970E060E08BE599E00E94C5
:102A10003D0170E060E08BE599E00E943D018BE5AF
:102A200099E00E94301A42E063E58BE599E00E944C
:102A30002A1A8BE599E00E942519809352038BE5B1
:102A400099E00E9425198093510340E1609152035F
:102A5000CE01C6960E941739BE016A5C7F4FCE0137
:102A60008E589F4F0E94843ACE01C6960E948638A7
:102A700040E160915103CE01C6960E941739BE0114
:102A80006A5C7F4FCE018E589F4F0E94843ACE01E0
:102A9000C6960E94863861ED72E0CE018E589F4F37
:102AA0000E948B3A8091060163ED71E0882311F05A
:102AB0006CEE71E0CE018E589F4F0E948B3A65EA12
:102AC00072E0CE018E589F4F0E948B3A60914C036A
:102AD00070914D034AE0CE01C6960E947039BE0146
:102AE0006A5C7F4FCE018E589F4F0E94843ACE0180
:102AF000C6960E9486386AED72E0CE018E589F4FCE
:102B00000E948B3A409143035091440360914503E6
:102B1000709146032AE0CE01C6960E949C39BE0100
:102B20006A5C7F4FCE018E589F4F0E94843ACE013F
:102B3000C6960E94863865EA72E0CE018E589F4F95
:102B40000E948B3A40913F035091400360914103B2
:102B5000709142032AE0CE01C6960E949C39BE01C4
:102B60006A5C7F4FCE018E589F4F0E94843ACE01FF
:102B7000C6960E94863865EA72E0CE018E589F4F55
:102B80000E948B3A2AE0B301A201CE01C6960E94B0
:102B90009C39BE016A5C7F4FCE018E589F4F0E94C8
:102BA000843ACE01C6960E94863865EA72E0CE016C
:102BB0008E589F4F0E948B3A2AE0C158DF4F4881C0
:102BC00059816A817B81CF57D040CE01C6960E9441
:102BD0009C39BE016A5C7F4FCE018E589F4F0E9488
:102BE000843ACE01C6960E94863865EA72E0CE012C
:102BF0008E589F4F0E948B3AEA966EAD7FADEA9752
:102C00004AE0CE01C6960E947039BE016A5C7F4FD1
:102C1000CE018E589F4F0E94843ACE01C6960E94E4
:102C200086386DE872E0CE018E589F4F0E948B3A35
:102C3000EF968FADEF978A3038F463ED71E0CE01F7
:102C40008E589F4F0E948B3A4AE0EF966FADEF97F8
:102C5000CE01C6960E941739BE016A5C7F4FCE0135
:102C60008E589F4F0E94843ACE01C6960E948638A5
:102C70006DE872E0CE018E589F4F0E948B3AEE961F
:102C80008FADEE978A3038F463ED71E0CE018E5847
:102C90009F4F0E948B3A4AE0EE966FADEE97CE01C1
:102CA000C6960E941739BE016A5C7F4FCE018E58CE
:102CB0009F4F0E94843ACE01C6960E9486386FE8E4
:102CC00072E0CE018E589F4F0E948B3AED968FADE9
:102CD000ED978A3038F463ED71E0CE018E589F4F46
:102CE0000E948B3A4AE0ED966FADED97CE01C69605
:102CF0000E941739BE016A5C7F4FCE018E589F4FEC
:102D00000E94843ACE01C6960E94863861E972E03C
:102D1000CE018E589F4F0E948B3AEC968FADEC9768
:102D20008A3038F463ED71E0CE018E589F4F0E94D7
:102D30008B3A4AE0EC966FADEC97CE01C6960E94B6
:102D40001739BE016A5C7F4FCE018E589F4F0E949B
:102D5000843ACE01C6960E94863861E972E0CE01BF
:102D60008E589F4F0E948B3AEB968FADEB978A302F
:102D700038F463ED71E0CE018E589F4F0E948B3A7C
:102D80004AE0EB966FADEB97CE01C6960E941739DD
:102D9000BE016A5C7F4FCE018E589F4F0E94843ADD
:102DA000CE01C6960E948638BE016E587F4F8FE3D3
:102DB00099E00E94C93940923B0950923C096092C7
:102DC0003D0970923E0910923A09109239096BEA56
:102DD00071E0CE018E589F4F0E948B3A6091390965
:102DE00070913A094AE0CE01C6960E947039BE0140
:102DF0006A5C7F4FCE018E589F4F0E94843ACE016D
:102E0000C6960E94863865EA72E0CE018E589F4FC2
:102E10000E948B3A40913B0950913C0960913D09D9
:102E200070913E092AE0CE01C6960E949C39BE01EF
:102E30006A5C7F4FCE018E589F4F0E94843ACE012C
:102E4000C6960E94863860E082E10E944F3C64E0B2
:102E50008DEF99E00E94811E811108C06AE671E041
:102E600083EF9CE00E94E5371092070181E090E03B
:102E700090934809809347096091470970914809E8
:102E8000683C710508F049C04AE0CE018F5A9F4F57
:102E90000E947039BE016F5A7F4FCE01C6960E94C4
:102EA000E0396BE971E0CE01C6960E94AD3ABC01F3
:102EB00089E499E00E94C939CE01C6960E948638FD
:102EC000CE018F5A9F4F0E948638609149097091B8
:102ED0004A098DEF99E00E942C208823F1F080911F
:102EE0004709909148090196C3CF6BE472E083EFE4
:102EF0009CE00E94E53710923F031092400310922D
:102F00004103109242032BCBC158DF4F1882198224
:102F10001A821B82CF57D0404ECB609147097091E7
:102F200048094AE0CE018F5A9F4F0E947039BE0176
:102F30006F5A7F4FCE01C6960E94E0396BE971E06F
:102F4000CE01C6960E94AD3ABC0189E499E00E9488
:102F5000C939CE01C6960E948638CE018F5A9F4F3E
:102F60000E94863815E060E570E080E090E00E9405
:102F7000653B61E08DE00E94133C61E08DE00E94C2
:102F80004F3C60E570E080E090E00E94653B60E0CF
:102F90008DE00E944F3C115031F761E08DE00E94BE
:102FA0004F3C4091490950914A0923E16DEF79E086
:102FB000CE018F5A9F4F0E94A11FCE018F5A9F4F63
:102FC0000E94251D2B013C0163EE72E083EF9CE023
:102FD0000E94C0372AE030E0B301A20183EF9CE0F9
:102FE0000E94743831E8431633E2530633E4630633
:102FF000710408F473C0CE018F5A9F4F0E94631D65
:1030000060914709709148096F5F7F4F709348093D
:10301000609347094AE0CE0184599F4F0E9470395E
:10302000BE0164597F4FCE01C6960E94E0396BE91C
:1030300071E0CE01C6960E94AD3ABC0189E499E0E8
:103040000E94C939CE01C6960E948638CE018459A5
:103050009F4F0E9486384091490950914A0923E1C7
:103060006DEF79E0CE01C6960E94A11F88AD99ADA3
:1030700065969FAF8EAF65978AAD9BADACADBDAD8C
:1030800069968CAF9DAFAEAFBFAF699722968CADFE
:103090009DADAEADBFAD22976D968CAF9DAFAEAF7F
:1030A000BFAF6D97E6E3F0E0EC0FFD1F3C96A1E5A6
:1030B000B0E0AC0FBD1F1C9681E590E08C0F9D1F0A
:1030C000499621912D93A817B907D9F761968EAD2E
:1030D0009FAD6197AC969FAF8EAFAC9760EA71E001
:1030E00083EF9CE00E94C03769E479E083EF9CE0C5
:1030F0000E94D337CE018F5A9F4F0E94751D88239F
:1031000009F490C0BE016E587F4FCE018F5A9F4F79
:103110000E94D337CE018F5A9F4F0E94631DBE017C
:103120006E587F4F83EF9CE00E94D3370E94FF0DC3
:1031300061E082E10E944F3C61E084E10E94133C27
:1031400060E084E10E944F3C15E060E570E080E0C3
:1031500090E00E94653B61E08EE00E94133C61E0DC
:103160008EE00E944F3C60E570E080E090E00E94BD
:10317000653B60E08EE00E944F3C115031F760E00B
:103180008CE00E944F3C60E08DE00E944F3C61E08B
:1031900082E00E94133C60E082E00E944F3C0FB648
:1031A000F894A895809160008861809360001092E7
:1031B00060000FBEF894109280008DE08093810033
:1031C00087E998E9909389008093880010928500A0
:1031D0001092840082E080936F001092900085E04E
:1031E0008093910010929500109294007894CE01F3
:1031F0008E589F4F0E948638CE57DF4F0FB6F894F7
:10320000DEBF0FBECDBFDF91CF911F910F91FF9019
:10321000EF90DF90CF90BF90AF907F906F905F90D6
:103220004F90089569E771E083EF9CE00E94E537D5
:103230001092070174CF90E080E0089580918B098F
:1032400090918C09891B990B089590918C0980911C
:103250008B092FEF3FEF981748F4E92FF0E0E35781
:10326000F64F208130E09F5F90938C09C90108954B
:10327000E0918C0980918B09E81730F4F0E0E35776
:10328000F64F808190E008958FEF9FEF08950895A5
:10329000CF93DF931F92CDB7DEB769832091670983
:1032A0002223F9F020916809203258F021E030E023
:1032B000FC013383228390E080E00F90DF91CF9177
:1032C000089580916909E82FF0E0E659F64F998159
:1032D00090838F5F809369098093680981E090E013
:1032E000ECCF61E0CE0101960E94E71AF7CFCF92B2
:1032F000DF92EF92FF920F931F93CF93DF937C01A6
:10330000CB018A0120916709222389F0EB016B012F
:10331000C40ED51ECC15DD0569F06991D701ED917C
:10332000FC910190F081E02DC7010995F3CF642F46
:103330000E94E71AC801DF91CF911F910F91FF9072
:10334000EF90DF90CF900895CB01BA010C94441A0E
:1033500081E08093670960938A091092690910924D
:10336000680908950C94A8190F93062F21E0409145
:1033700068096AE679E080918A090E94971A10929A
:10338000690910926809109267090F9108954F9288
:103390005F926F927F92AF92BF92CF92EF92FF9225
:1033A0000F931F93CF93DF935C01F62ED42F280148
:1033B0003901EE2019F10E94A819CE2DC43008F071
:1033C000C3E0C150B8F028E0C29FC0011124A3019E
:1033D000920104C056954795379527958A95D2F75F
:1033E000B901D501ED91FC910190F081E02DC5016D
:1033F0000995E7CF60E0C5010E94B4194D2FD13285
:1034000008F040E22C2D6DE879E08F2D0E94571ACC
:1034100010928C0980938B09DF91CF911F910F91AE
:10342000FF90EF90CF90BF90AF907F906F905F90A4
:103430004F900895CF92EF920F931F93C22EE12CDD
:1034400000E010E098010E94C7191F910F91EF90C2
:10345000CF90089521E00C941A1A21E00C941A1AC6
:1034600061E00C94B419EBE5F9E01382128288EE66
:1034700093E0A0E0B0E084839583A683B78382EFD6
:1034800092E09183808308959B01AC0160E072E13A
:103490008AE790E00E94913E20513109410951098B
:1034A00056954795379527952093B8000895413252
:1034B000E0F59091FC099111FCCF91E09093FC090B
:1034C0002093FA092FEF2093AD097093F4096093CC
:1034D000F3091092F209240F2093F1099093FB094C
:1034E0009091FB09880F892B8093FB098091F90942
:1034F0008130C9F41092F9098091FB098093BB00D7
:103500008091BC0083FDF8CF85EC8093BC00809156
:10351000FC098130E1F38091F209841710F44091A5
:10352000F209842F089585EEF0CF40E0FACF0F9393
:10353000413208F044C09091FC099111FCCF92E017
:103540009093FC090093FA099FEF9093AD09709353
:10355000F4096093F3091092F2094093F109109273
:10356000FB099091FB09880F892B8093FB098091BF
:10357000F909813011F51092F9098091FB098093C6
:10358000BB008091BC0083FDF8CF85EC8093BC002C
:10359000222321F08091FC098230D1F38091AD0982
:1035A0008F3F79F08091AD09803269F08091AD094B
:1035B000803359F084E00F91089585EEE7CF81E0E4
:1035C000FACF80E0F8CF82E0F6CF83E0F4CF20910D
:1035D000CF09260F3327331F21323105ECF4209118
:1035E000FC09FC0190E080E0243069F082E008955D
:1035F000A091CF092191AC014F52564FA40FB52F86
:10360000B11D2C930196861798F38091CF09680F0E
:103610006093CF0980E0089581E0089585ED80935F
:10362000BC008091BC0084FDFCCF1092FC09089581
:1036300085EC8093BC001092FC0908951F920F92B4
:103640000FB60F9211240BB60F922F933F934F9307
:103650005F936F937F938F939F93AF93BF93EF93FA
:10366000FF938091B900887F803609F44EC008F03E
:1036700041C0883209F4AAC028F5803109F49EC0FF
:10368000C8F4882309F407C1883009F497C0FF9172
:10369000EF91BF91AF919F918F917F916F915F91CA
:1036A0004F913F912F910F900BBE0F900FBE0F9037
:1036B0001F901895883109F489C0803241F78093B2
:1036C000AD0915C0803409F4A6C048F48033B9F3BD
:1036D0008833E9F68093AD090E94181BD8CF803556
:1036E00009F489C0883509F49EC0883481F60E94A7
:1036F0000E1BCDCF883909F494C038F5883729F0EE
:1037000050F4883611F0803711F683E08093FC097D
:103710001092AE0957C0883809F483C0803919F077
:10372000803809F0B4CF8091AE09803208F079C0BA
:10373000E091AE0981E08E0F8093AE098091BB00CD
:10374000F0E0E155F64F80833DC0803B39F0E0F476
:10375000803A09F485C0883A09F099CF84E08093D3
:10376000FC091092D0091092CF09E091F709F0916D
:10377000F80909958091CF0981110FC081E08093EC
:10378000CF091092D10909C0803C09F482C0883C5D
:1037900009F47FC0883B09F07ACFE091D00981E03D
:1037A0008E0F8093D009F0E0EF52F64F8081809326
:1037B000BB009091D0098091CF0931C08091FB0965
:1037C0008093BB0085EC8093BC0061CF9091F2099F
:1037D0008091F1099817B8F58091F3099091F40957
:1037E000E091F20921E02E0F2093F209E80FF92F62
:1037F000F11D8081E5CF2091F3093091F409E0912A
:10380000F20981E08E0F8093F2098091BB00E20FF4
:10381000F32FF11D80839091F2098091F10998179F
:1038200088F285E8D0CF2091F3093091F409E09136
:10383000F20981E08E0F8093F2098091BB00E20FC4
:10384000F32FF11D80838091FA09811150CF81E01F
:103850008093F90984EA8093BC001092FC0917CF89
:103860000E94181B8091AE09803230F4E091AE09BD
:10387000F0E0E155F64F10826091AE0970E0E09102
:10388000F509F091F6098FEA99E009951092AE09D1
:10389000FECE85ECE0CF1092AD0929CFCF93DF9318
:1038A0001F92CDB7DEB76983DC01ED91FC910280F8
:1038B000F381E02D41E050E0BE016F5F7F4F09953D
:1038C0000F90DF91CF910895CF93DF93EC01E98DB5
:1038D000FA8D309749F481E090E09B838A8390E0F1
:1038E00080E0DF91CF91089513821282898D9A8DA5
:1038F0000E94D928E98DFA8D22813381232B59F733
:10390000F0CFFC01818D928D009711F00C94682608
:103910000895CF93DF931F92CDB7DEB741E050E01B
:10392000BE016F5F7F4F0E948C24019731F4898123
:1039300090E00F90DF91CF9108958FEF9FEFF9CF37
:10394000FC01818D928D009711F00C94891C8FEFF2
:103950009FEF08950F931F93CF93DF93EC01898D11
:103960009A8D10E000E0009799F00E94891C8C016C
:103970000F3F100769F0898D9A8DFC0142855385B0
:103980006485758541505109610971090E94D425EA
:10399000C801DF91CF911F910F910895EF92FF928F
:1039A0000F931F93CF93DF93EC017B018A011B825E
:1039B0001A8288EE93E0A0E0B0E08C839D83AE8312
:1039C000BF8384E093E0998388838DE190E00E9437
:1039D000F43E9A8F898F009779F02DE1F701DC0191
:1039E00001900D922A95E1F74CE050E0B801CE012C
:1039F0000C960E942241188EDF91CF911F910F915A
:103A0000FF90EF900895FC011382128288EE93E0FC
:103A1000A0E0B0E084839583A683B78384E093E03D
:103A200091838083128E118E14860895DC0159963D
:103A3000ED91FC91309729F0628573858485958599
:103A400008956FEF7FEFCB010895DC015996ED915A
:103A5000FC91309729F06389748985899689089546
:103A600060E070E0CB010895CF92DF92EF92FF9279
:103A7000CF93DF93FC01218D328D232B09F1EC01D3
:103A80000E94251D6B017C01CE010E94161DA7011D
:103A90009601261B370B480B590BDA01C90181151A
:103AA00030E89307A105B10520F08FEF9FE7A0E074
:103AB000B0E0DF91CF91FF90EF90DF90CF9008952D
:103AC00090E080E0F6CFCF93DF93EC01898D9A8D63
:103AD000009741F00E94B126898D9A8D0E94903FF7
:103AE0001A8E198EDF91CF910895DC015996ED91D0
:103AF000FC91309721F081E09581911101C080E027
:103B000008951F93CF93DF93CDB7DEB76D970FB6B0
:103B1000F894DEBF0FBECDBFAB011C821B8228E133
:103B200033E03A8329831E8221E0BC01CE01019655
:103B30000E94EC2711E081110CC010E0812F6D96DE
:103B40000FB6F894DEBF0FBECDBFDF91CF911F91AE
:103B50000895CE0101960E94B126F0CFEF92FF9218
:103B60000F931F93CF93DF937B01DB012D913C914A
:103B7000FC01E20FF31F60816F3211F42F5F3F4FA2
:103B80008C01020F131FEA01F0E0E0E0D8017D9103
:103B90008D017F3249F0772339F02F5F3F4F319607
:103BA0007993EC30F10591F7E40FF51F1082FC01D9
:103BB000E20FF31F40814F3211F42F5F3F4FF701A7
:103BC00031832083280F391F81E0D9019C91911105
:103BD00001C080E0DF91CF911F910F91FF90EF9096
:103BE00008954F925F926F927F928F929F92AF92C1
:103BF000BF92CF92DF92EF92FF920F931F93CF93DA
:103C0000DF93CDB7DEB7C954D1090FB6F894DEBF44
:103C10000FBECDBF5C016B013A01490119A218A288
:103C200088E193E09F8F8E8F1BA21C821B829A8358
:103C300089831E822A961FAE1EAE2A978B017E01B3
:103C40008EE1E80EF11C44244394AE01455C5F4FC5
:103C5000BE01685B7F4FC5010E94AE1D582E482FE4
:103C600044259401BE01655C7F4FC801F3010995AD
:103C7000811120C00C151D05C9F480E0C75BDF4F22
:103C80000FB6F894DEBF0FBECDBFDF91CF911F916D
:103C90000F91FF90EF90DF90CF90BF90AF909F90EB
:103CA0008F907F906F905F904F900895C8010E9411
:103CB000B126E3CF552091F021E0AE01455C5F4F86
:103CC000B801C7010E94EC27582E0C151D0571F094
:103CD000C8010E94B12651100EC0CFCF0C151D0592
:103CE00019F0C8010E94B12681E0C8CF882329F2CB
:103CF0008E010F5F1F4F902F812F8701E92EF82E25
:103D0000A4CF0F931F93CF93DF93EC01162F8FA5B2
:103D1000882321F0CE018A960E94B126412F61E0CE
:103D2000CE010E944E21811102C090E012C08E018E
:103D3000045F1F4F41E0BE01C8010E94132E88237B
:103D400071F0B801CE018A960E943C2491E088234C
:103D500061F3892FDF91CF911F910F91089540E07A
:103D6000BE01C8010E94132E8823F9F2EACFFC019C
:103D7000DB0112968D919C9113979383828388E146
:103D800093E09183808314968C9114978483159685
:103D90008C911597858316964D915D916D917C91CF
:103DA000199746835783608771871A964D915D9165
:103DB0006D917C911D9742875387648775871E9606
:103DC0004D915D916D917C91519746875787608B9E
:103DD000718B52968C915297828B53964D915D9137
:103DE0006D917C915697438B548B658B768B579650
:103DF0004D915D916D917C915A97478B508F618F5A
:103E0000728F5B968D919C91948F838F08954F92C2
:103E10005F926F927F928F929F92AF92BF92CF925A
:103E2000DF92EF92FF920F931F93CF93DF93CDB763
:103E3000DEB7C754D1090FB6F894DEBF0FBECDBFB1
:103E40005C014A013901665D7F4F7E018EE1E80E1B
:103E5000F11CC7010E94B71E1C821B8288E193E0FF
:103E60009A8389831E828401FE0131966F015E2C44
:103E70004F2C6FE270E0C8010E941041009709F4D6
:103E800055C0F80120812F3219F40F5F1F4FF1CF79
:103E9000801B8D3008F08CE0E82EF12CA701B801D2
:103EA000CE01CB960E942241EBE3F0E0EC0FFD1F28
:103EB000EE0DFF1D1082C6010E94B12621E0AE0169
:103EC000455C5F4F652D742DC6010E94EC27811162
:103ED00021C0F5011382128288E193E091838083EF
:103EE0001582C501C95BDF4F0FB6F894DEBF0FBE68
:103EF000CDBFDF91CF911F910F91FF90EF90DF9099
:103F0000CF90BF90AF909F908F907F906F905F9079
:103F10004F9008950E0D1F1D852D942D0E94B126E2
:103F2000C2015C2C4D2CC92ED82EA3CF081919091B
:103F3000F30111830083652D742DC5010E94B71E06
:103F4000D0CFAF92BF92CF92DF92FF920F931F9389
:103F5000CF93DF93CDB7DEB7C955D1090FB6F8942B
:103F6000DEBF0FBECDBF6C015B018A01F22E9E0148
:103F7000285A3F4FCE01CB960E94071F6A968EADFE
:103F80009FAD6A97080F191FF8018081811110C039
:103F9000BE01655C7F4FCE0101960E94B71E42E1D3
:103FA00053E0BE016F5F7F4FC6010E94CE1C0FC061
:103FB00019A218A288E193E09F8F8E8F1BA22196F1
:103FC0008FAD2197811115C0C6010E94031DC60146
:103FD000C75ADF4F0FB6F894DEBF0FBECDBFDF91DB
:103FE000CF911F910F91FF90DF90CF90BF90AF9036
:103FF000089582508230F8F4B501665D7F4F2F2D11
:10400000A801CE014E960E94EC278823E9F28F2D5D
:10401000867041F049A95AA96BA97CA9CE014E9698
:104020000E94D425BE01625E7F4FCE0101960E94A0
:10403000B71EA801B6CF2F2DA801BE01655C7F4F2A
:10404000CE014E960E94EC27882309F4BDCFCE0105
:10405000CB960E94B126DBCFFB01BC01665D7F4F92
:1040600030E020E041E85DE1CF010C94F11DEDEF7F
:10407000F9E0158216821186138682E090E0A0E0B6
:10408000B0E084879587A687B78713A215A614A6E4
:1040900088E193E093A782A717A608959FB7F894A5
:1040A0002091540C8091520C213019F48DBB9FBF8C
:1040B00008958FBF08952091540C222381F03FB7BB
:1040C000F8942091540C213069F42DB32093520CB4
:1040D0004DB32091530C209524232DBB3FBF8CBDA5
:1040E0009DBD08953093520CFACF8EBD00000DB4E3
:1040F00007FEFDCF8EB508958FEF0C94752061E01B
:10410000FC0184810E944F3C8091460A882339F04B
:104110001092460A8091540C81110C944E200895FF
:10412000CF93DF93EC018091460A811109C081E0B1
:104130008093460A8091470A9091480A0E945B202A
:1041400060E08C81DF91CF910C944F3CCF93DF9353
:10415000EC018E81882389F08F8198859C012F5FE7
:104160003F4F38872F838230924018F40E947C2082
:10417000F3CFCE010E947F201E82DF91CF91089560
:10418000673028F026E1FC01258380E00895623045
:1041900079F038F06430A9F090F06530A1F082E554
:1041A00008C080E58093470A81E08093480A08951B
:1041B00080E58093470A1092480A81E0089581E5DE
:1041C000F1CF81E5F6CF82E5EDCF0F931F93CF932B
:1041D000DF93EB010E94343B8B010E947C208F3FD8
:1041E00069F00E94343B601B710B6C177D07A8F3CC
:1041F00080E0DF91CF911F910F91089581E0F9CF79
:104200008F929F92AF92BF92FF920F931F93CF9383
:10421000DF93EC01F62E49015A010E94A620CE013F
:104220000E9490206CE271E0CE010E94E5208F2D6B
:1042300080640E94752008E110E0D501C401002EC1
:1042400004C0B695A795979587950A94D2F70E94D2
:10425000752008501109083F8FEF180771F785E99D
:10426000FF2021F088E0F8120DC087E80E94752039
:1042700010E00E947C208A8787FF06C01F3F21F044
:104280001F5FF7CF8FEFF2CFDF91CF911F910F918B
:10429000FF90BF90AF909F908F9008958F929F92C4
:1042A000AF92BF92EF92FF920F931F93CF93DF9342
:1042B000EC01E62E1B8619861E821D824C830E940D
:1042C000343B8B0161E08C810E94133C61E08C8166
:1042D0000E944F3C0E94332F82E58093470A81E081
:1042E0008093480A8091470A9091480A0E945B2077
:1042F0002AE0F22E8FEF0E947520FA94F110FACF87
:104300008091540C81110E944E20CE010E94902079
:1043100020E030E0A90160E0CE010E940021F82EEB
:104320008A8781E0F816C1F00E94343B601B710B54
:10433000613D774068F381E08D83CE010E947F204C
:1043400080E0DF91CF911F910F91FF90EF90BF9090
:10435000AF909F908F9008952AEA31E040E050E0BE
:1043600068E0CE010E94002182FF25C0FB868B857C
:10437000812C912C5401823029F4812C912CA12C78
:1043800080E4B82E20E030E0A90167E3CE010E946E
:104390000021A501940169E2CE010E9400218A87D3
:1043A0008823C1F00E94343B601B710B613D774054
:1043B00048F388E0C1CF94E0F92E0E947C208A87E0
:1043C000FA94F110FACF8A3A11F082E0B5CF82E088
:1043D0008B87CDCF8B858230C1F420E030E0A901FE
:1043E0006AE3CE010E940021882311F086E0A4CF69
:1043F0000E947C20807C803C11F483E08B870E94AB
:104400007C200E947C200E947C20CE010E947F2084
:104410006E2DCE01DF91CF911F910F91FF90EF9004
:10442000BF90AF909F908F900C94C0200F931F93DC
:10443000CF93DF93EC010E94343B8B010E947C20E0
:104440008A878F3F91F40E94343B601B710B6D3261
:104450007140A0F38FE08D83CE010E947F2080E029
:10446000DF91CF911F910F9108958E3F11F08DE054
:10447000F2CF81E0F5CFCF92DF92EF92FF920F93D0
:104480001F93CF93DF93EC016901C801820F931F43
:104490008130924048F58E81882371F0888199811E
:1044A000AA81BB8184179507A607B70729F48F81D6
:1044B0009885C816D90670F5488359836A837B832B
:1044C0008B85833039F089E0440F551F661F771FB5
:1044D0008A95D1F79A01AB0161E1CE010E940021DA
:1044E000882379F083E08D83CE010E947F2080E0D5
:1044F000DF91CF911F910F91FF90EF90DF90CF90C0
:104500000895CE010E941622882371F318861F8217
:1045100081E08E838F8198858C159D0560F0670101
:10452000E00EF11EEC14FD0471F00E947C20F601F7
:1045300081936F01F7CF0E947C208F81988501962F
:1045400098878F83E7CF8F819885080F191F188769
:104550000F838985882319F00115124018F0CE01C8
:104560000E94A62081E0C4CFEF92FF920F931F9389
:104570000115110539F00E943B221F910F91FF9008
:10458000EF90089581E0F9CFEF92FF920F931F9380
:10459000790100E012E030E020E00E943B221F9110
:1045A0000F91FF90EF900895EF92FF920F931F935A
:1045B000CF93DF938C01862F7A010E947520E7014B
:1045C0008EEFF81A89910E947520CE15DF05D1F77C
:1045D0008FEF0E9475208FEF0E9475200E947C2033
:1045E000F80182878F71853069F081E18583C80188
:1045F0000E947F2080E0DF91CF911F910F91FF906B
:10460000EF90089581E0F7CF0F931F93CF93DF933F
:10461000EC01890182E1411551056105710599F0AF
:104620008B85833039F089E0440F551F661F771F53
:104630008A95D1F79A01AB0168E1CE010E94002171
:10464000882339F084E08D83CE010E947F2080E0B2
:1046500023C0A8016EEFCE010E94D4228823A1F3CB
:1046600068E572E0CE010E94E520811102C085E17B
:10467000EACF20E030E0A9016DE0CE010E940021E8
:10468000882311F084E1DFCF0E947C208111FACFD2
:10469000CE010E947F2081E0DF91CF911F910F9189
:1046A0000895E7E4FAE080E5808381E0818308955E
:1046B0000895CF93DF93EC019C012A5F3F4F41E0C7
:1046C00050E060E070E08B8D9C8D0E94B22C8823BE
:1046D000A1F08F89988DA98DBA8D892B8A2B8B2B70
:1046E00059F48E819F81A885B9858F8B988FA98F6A
:1046F000BA8F8C8180688C8381E0DF91CF9108959F
:104700008F929F92AF92BF92CF92DF92EF92FF92E1
:10471000CF93DF93EC010E94592381110CC080E0FC
:10472000DF91CF91FF90EF90DF90CF90BF90AF904F
:104730009F908F900895EB8DFC8DCE80DF80E88474
:10474000F98482E0C81AD108E108F108858504C01F
:10475000CC0CDD1CEE1CFF1C8A95D2F78685978554
:10476000A089B189C80ED91EEA1EFB1E84814601AC
:104770005701880E911CA11CB11C8C149D04AE0421
:10478000BF0461F081E0881A9108A108B108C50151
:10479000B4010E94002B8111F0CFC1CFEB8DFC8DB5
:1047A000258580E092E0A0E0B0E004C0880F991F6A
:1047B000AA1FBB1F2A95D2F74B895C896D897E8918
:1047C000840F951FA61FB71F8B8B9C8BAD8BBE8B49
:1047D00081E0A6CFCF93DF93EC01462F6E857F85D6
:1047E000888999890E94C52A882351F08A8920E204
:1047F000829FC00111248E5A954FDF91CF91089569
:1048000090E080E0FACFFB019B01255F3F4F40E243
:1048100041932E173F07E1F7DC0120E037E09D913F
:10482000492F992319F19E3229F43A3059F028E0A2
:104830003AE0F5CFE6E8F1E08491882329F031965B
:104840009813FACF80E017C03217A8F05FED590F28
:104850005E3588F48FE9890F8A3110F440EE490FF4
:10486000FB01E20FF11D40832F5FD9CF81E0FB01F7
:104870009081903239F308950F931F93CF93DF9374
:10488000FC012581222331F080E0DF91CF911F913F
:104890000F9108958B01EC01FB018789803139F577
:1048A00082E08D831F8A188E198E1A8E808D918DCD
:1048B000B0E0A0E025E0880F991FAA1FBB1F2A9532
:1048C000D1F78B8B9C8BAD8BBE8B1C8F0B8F81E0BC
:1048D0008C831E821F82188619861A861B861C8668
:1048E0001D861E861F86188A198A1A8ACECF8032A4
:1048F00059F683E08D83428D538D648D758D4F8B7A
:10490000588F698F7A8F9E012D5E3F4FC8010E949C
:10491000A52B8111DACFB8CF2F923F924F925F92A1
:104920006F927F928F929F92AF92BF92CF92DF92BF
:10493000EF92FF920F931F93CF93DF93EC015B01F4
:104940002A018D81811115C08FEF9FEFDF91CF91EB
:104950001F910F91FF90EF90DF90CF90BF90AF909D
:104960009F908F907F906F905F904F903F902F908F
:1049700008958C8180FFE8CF0B891C892D893E89A1
:104980004A855B856C857D85C201B0E0A0E0680149
:104990007901C41AD50AE60AF70AC816D906EA0642
:1049A000FB0618F42801441A550A42011E0126E0AC
:1049B000220E311C8114910409F4B3C04A855B8531
:1049C0006C857D856A0181E0D8228B8D9C8D8A0162
:1049D0009B01E9E03695279517950795EA95D1F75C
:1049E000ED81E230E1F5FC01628D738D848D958D52
:1049F000600F711F821F931F612C22E0722E6C18B2
:104A00007D088614970408F434012C8126FD04C027
:104A10006114F2E07F0671F4009108011091090120
:104A200020910A0130910B01061717072807390753
:104A300009F053C040E00E94C52A882309F484CFBE
:104A4000C6018E5A954FD5019C01260D371DFC01DC
:104A50002E173F0709F460C041914D93F9CFFC0137
:104A600074807A947022C114D10471F471100CC056
:104A7000452B462B472B39F58F89988DA98DBA8DFB
:104A80008E839F83A887B987EB8DFC8D6E817F8194
:104A9000888599856250710981099109258504C02D
:104AA000660F771F881F991F2A95D2F706851785ED
:104AB00020893189600F711F821F931F670D711D3F
:104AC000811D911D99CF4E815F8168857985910106
:104AD0000E94242B8111D8CF37CF75018301960115
:104AE000AB01BC018091500A9091510A0E94B422FE
:104AF000882309F429CFA60CB71C8A859B85AC8531
:104B0000BD85860D971DA11DB11D8A879B87AC872A
:104B1000BD87861897084ECF281B390BA20EB31EEF
:104B2000ECCFC20113CFFF920F931F93CF93DF936C
:104B30001F92CDB7DEB7FC0125812230C8F08C0171
:104B4000428553856485758585E07695679557958B
:104B500047958A95D1F7F42FFF70FF2E41E050E082
:104B6000BE016F5F7F4FC8010E948C24019719F02E
:104B700090E080E012C0F80182859385A485B58518
:104B80004F96A11DB11D82879387A487B587F0E258
:104B9000FF9EC00111248E5A954F0F90DF91CF9147
:104BA0001F910F91FF9008958F929F92AF92BF92A5
:104BB000CF92DF92EF92FF920F931F93CF93DF93E9
:104BC000EC018D8181110EC080E0DF91CF911F91AA
:104BD0000F91FF90EF90DF90CF90BF90AF909F909C
:104BE0008F9008950B891C892D893E89041715071C
:104BF0002607370748F34A015B01823031F48A8681
:104C00009B86AC86BD8681E0E0CF81149104A1042F
:104C1000B10449F41E821F82188619861A861B86E3
:104C20001C861D86F0CF0A851B852C853D85EB8D66
:104C3000FC8D858590E00996B901A8014150510984
:104C400061097109082E04C07695679557954795B7
:104C50000A94D2F775016401E1E0CE1AD108E108A7
:104C6000F10804C0F694E794D794C7948A95D2F7D4
:104C7000C416D506E606F70620F0012B022B032BFF
:104C800011F58F89988DA98DBA8D8E839F83A88702
:104C9000B9878E010A5F1F4FC114D104E104F104EA
:104CA00009F4ADCF4E815F816885798598018B8D40
:104CB0009C8D0E94242B91E0C91AD108E108F108CB
:104CC0008111EACF81CFC41AD50AE60AF70AE1CFEB
:104CD0000F931F93CF93DF93EC018D818823D9F13C
:104CE0008C8187FF32C061E0CE010E94EA238C01F3
:104CF000892B89F18D81823048F48B899C89AD891B
:104D0000BE89F801848F958FA68FB78F8F89988D74
:104D1000F801938F828F8F89988DA98DBA8DB58B6D
:104D2000A48BE091490AF0914A0A309759F0B801F2
:104D30006A5E7F4FC80148960995F801808D918D74
:104D4000938B828B8C818F778C83DF91CF911F9196
:104D50000F910C948A2A80E0DF91CF911F910F91DF
:104D60000895CF93DF93EC010E946826882311F009
:104D70001D8281E0DF91CF9108954F925F926F92F3
:104D80007F928F929F92AF92BF92EF92FF920F937A
:104D90001F93CF93DF9300D000D0CDB7DEB7FC01D7
:104DA00085818130A1F080E00F900F900F900F90DF
:104DB000DF91CF911F910F91FF90EF90BF90AF9037
:104DC0009F908F907F906F905F904F900895848117
:104DD00081FFE9CF83899489A589B68984179507CE
:104DE000A607B70700F3892B8A2B8B2B09F477C012
:104DF0004A015B017F014284538464847584CF013E
:104E00000E94D425882379F2F701838D948D811433
:104E10009104A104B10449F54789508D618D728DCB
:104E20000E94BD2D882309F4BECFF701178A108E8A
:104E3000118E128EF701838A948AA58AB68A84819C
:104E400080688483C7010E946826882309F4ABCF59
:104E5000B501A401441655066606770610F4B301A1
:104E6000A201C7010E94D4259FCF4681578160854A
:104E700071859E012F5F3F4F0E94242B882309F4E8
:104E800092CFF701838D948D49815A816B817C810A
:104E9000FC0127892031F1F408EF1FEF20E030E01A
:104EA000401751076207730728F60E94BD2D88231B
:104EB00009F479CFF70146815781608571850FEF3D
:104EC0001FEF2FEF3FE0838D948D0E94102C8111F6
:104ED000B1CF69CF08EF1FEF2FEF3FE0E1CF81E0C7
:104EE00063CFCF92DF92EF92FF921F93CF93DF9326
:104EF000EC0180E2689FF0011124EE5AF54F938592
:104F0000917161F0842F827449F080E0DF91CF913C
:104F10001F91FF90EF90DF90CF900895142F6A8B30
:104F20008091080190910901A0910A01B0910B01B3
:104F30008E879F87A88BB98BC488D588F12CE12CEC
:104F40007601DD24CC24CF8AD88EE98EFA8E828D2C
:104F5000938DB0E0A0E0AC01BD014C295D296E2924
:104F60007F294F8B588F698F7A8F8385887129F5B8
:104F7000848D958DA68DB78D8B8B9C8BAD8BBE8BC9
:104F800081E08D83812F8F708C831E821F82188613
:104F900019861A861B861C861D8681E016FFB6CFF1
:104FA00040E050E0BA01CE01DF91CF911F91FF9018
:104FB000EF90DF90CF900C94BD26803109F0A5CF03
:104FC0009E012D5E3F4F8B8D9C8D0E94A52B8823CB
:104FD00009F49BCF84E0D5CFBF92CF92DF92EF92BE
:104FE000FF920F931F93CF93DF93CDB7DEB72B972D
:104FF0000FB6F894DEBF0FBECDBFFC013581311175
:105000000BC0C22E8B017C01BE016F5F7F4FCA01B6
:105010000E940324811102C080E0A1C0F801838DA9
:10502000948DF701948F838FF80116821782108672
:1050300011861286138614861586B12CF801828596
:105040009385A485B58543895489658976898417B4
:105050009507A607B70788F525E0B695A795979514
:1050600087952A95D1F7F82FFF70DF2EC8010E948F
:105070009325009789F2FC012081222341F0253EEF
:1050800009F059C0BB2029F0BB24B394D7CFB1108D
:105090000EC0F701D28A4091080150910901609138
:1050A0000A0170910B0146875787608B718BFC0159
:1050B00080818111E9CFBB24B3948C2D8271823120
:1050C00009F0AACFBB2009F45AC061E0C7010E94D1
:1050D000EA238C01892B09F49FCF80E2F801119219
:1050E0008A95E9F78BE0FE013196D80101900D9287
:1050F0008A95E1F7E091490AF0914A0A309709F45C
:105100004EC0B801625F7F4FC80140960995F80113
:1051100080899189938B828B918F808F86859785EB
:10512000978B868B0E948A2A882309F475CF4C2D91
:10513000F701628911C04BE050E0BC01CE0101963D
:105140000E94FA40892B09F079CF8C2D80734C2D69
:105150006D2D803309F460CFC7010E9471272B9613
:105160000FB6F894DEBF0FBECDBFDF91CF911F9178
:105170000F91FF90EF90DF90CF90BF900895F801CE
:105180008581823009F448CFC8010E94802388239A
:1051900009F442CFF701128A02E51AE09ECF81E2BC
:1051A00098E2F801918B808B80E098E09787868762
:1051B000AECF2F923F924F925F926F927F928F92DB
:1051C0009F92AF92BF92CF92DF92EF92FF920F9396
:1051D0001F93CF93DF9300D000D0CDB7DEB78C0103
:1051E0006B011A01DC0115968C911597813009F03D
:1051F000C8C014968C9181FFC4C082FDAEC041012D
:10520000D8011A964D915D916D917C911D978114F5
:10521000910409F429C15B968D919C915C97FC01E6
:1052200074802FEF270D2A013B0139E076946794B3
:10523000579447943A95D1F7722E74207A01F1E091
:10524000FF22711020C0E114F104E9F416964D918B
:105250005D916D917C91199741155105610571051D
:1052600009F098C057968D919D910D90BC91A02DFD
:105270000097A105B10509F0AFC0C8010E945923EC
:10528000882309F47EC080E092E08E199F095401C2
:105290008815990508F45C01D8015B964D915C91E5
:1052A0005C9716968D919D910D90BC91A02D0297C3
:1052B000A109B109FA01258504C0880F991FAA1F09
:1052C000BB1F2A95D2F74685578560897189840F5F
:1052D000951FA61FB71F9C01AD01270D311D411D54
:1052E000511D29013A01A11432E0B30609F07AC038
:1052F0008091080190910901A0910A01B0910B01E0
:1053000084159505A605B70559F48FEF9FEFDC01CD
:105310008093080190930901A0930A01B0930B01B7
:105320009601B301A2018091500A9091510A0E9406
:105330000423882331F19EEFD91A8A189B08F801BB
:1053400082859385A485B5858A0D9B1DA11DB11D00
:1053500082879387A487B58753CFF80143895489FF
:105360006589768982859385A485B585481759070F
:105370006A077B0709F443CFC8010E94D425811135
:105380003ECF81E090E0D80113969C938E931297C4
:1053900080E007C09E012F5F3F4F0E94242B8111A8
:1053A00002C090E07BC089819A81AB81BC81F80109
:1053B000238D348DF901278948EF5FEF60E070E0BD
:1053C000203121F048EF5FEF6FEF7FE08417950702
:1053D000A607B70708F051CFF80186839783A08707
:1053E000B18751CFE114F10491F5D8011A964D918E
:1053F0005D916D917C911D9753968D919D910D902E
:10540000BC91A02D481759076A077B0700F10E943D
:105410008A2A882309F4B5CF4092080150920901E5
:1054200060920A0170920B0180914F0A8160809313
:105430004F0A97012E5A354FD601C9018A0D9B1D7F
:10544000F9018E179F0759F04D914193FACF41E032
:10545000C301B2010E94C52A8111EBCF92CF821BFA
:10546000930BC80ED91E69CF14968C91149753963E
:10547000CD90DD90ED90FC905697C416D506E606CB
:10548000F70618F5F801438B548B658B768B806893
:105490008483F801848183FD25C0C1010F900F90A2
:1054A0000F900F90DF91CF911F910F91FF90EF9090
:1054B000DF90CF90BF90AF909F908F907F906F9034
:1054C0005F904F903F902F9008952091490A30911E
:1054D0004A0A232BF1F221143104D9F28068149680
:1054E0008C93D7CFC8010E946826882309F449CF3E
:1054F000D4CFCF93DF931F92CDB7DEB7698341E05E
:1055000050E0BE016F5F7F4F0E94D9280F90DF915E
:10551000CF91089580914F0A8823A9F14091080105
:105520005091090160910A0170910B0122E53AE066
:105530008091500A9091510A0E940423811102C067
:1055400080E0089540914B0A50914C0A60914D0AB9
:1055500070914E0A411551056105710591F022E5E2
:105560003AE08091500A9091510A0E9404238823C6
:1055700039F310924B0A10924C0A10924D0A109275
:105580004E0A10924F0A81E00895CF92DF92EF9277
:10559000FF92CF936B017C01C42F80910801909101
:1055A0000901A0910A01B0910B018C159D05AE0572
:1055B000BF05F9F00E948A2A811107C080E0CF91CF
:1055C000FF90EF90DF90CF90089522E53AE0B70189
:1055D000A6018091500A9091510A0E94C42288230A
:1055E00069F3C0920801D0920901E0920A01F09299
:1055F0000B0140914F0A4C2B40934F0A81E0DFCFC3
:10560000CF92DF92EF92FF926B017C010E948A2A77
:105610008823A9F0E2E5FAE011928CE0E235F80780
:10562000D9F7C0920801D0920901E0920A01F092E4
:105630000B0180914F0A816080934F0A81E0FF90B7
:10564000EF90DF90CF9008958F929F92AF92BF928C
:10565000CF92DF92EF92FF920F931F93CF93DF933E
:10566000FC0181859285A385B4850196A11DB11D9C
:1056700084179507A607B70770F480E0DF91CF91F4
:105680001F910F91FF90EF90DF90CF90BF90AF9060
:105690009F908F90089583889488A588B68887897D
:1056A000803189F5BB27A72F962F852FE9016A0145
:1056B0007B018F01BC01CD01680D791D8A1D9B1DE9
:1056C0008090080190900901A0900A01B0900B0110
:1056D00086169706A806B90601F5F8018789803174
:1056E00011F5DD24EE24FF24F601EE0FFF1FEE5A24
:1056F000F54F80819181B0E0A0E088839983AA83EF
:10570000BB8381E0BBCFDB01CA01C7E0B695A7959B
:1057100097958795CA95D1F7C9CF40E00E94C52AD1
:105720008111DBCFAACFE894C7F8DD24EE24FF2453
:10573000F601EE0FFF1FEE0FFF1FEE5AF54F8081AF
:105740009181A281B381BF70D8CF4F925F926F9247
:105750007F92AF92BF92CF92DF92EF92FF920F9320
:105760001F93CF93DF9300D000D0CDB7DEB78C016D
:1057700049835A836B837C835901C12CD12C7601D8
:10578000412C82E0582E612C712C49815A816B8109
:105790007C819E012F5F3F4FC8010E94242B8823EC
:1057A00039F1F8018585A301920104C0220F331F4E
:1057B000441F551F8A95D2F7DA01C901C80ED91EB8
:1057C000EA1EFB1E49815A816B817C818789803169
:1057D00011F188EF9FEFAFEFBFE0481759076A0755
:1057E0007B0798F2F501C082D182E282F38281E0E8
:1057F0000F900F900F900F90DF91CF911F910F910D
:10580000FF90EF90DF90CF90BF90AF907F906F9020
:105810005F904F90089588EF9FEFA0E0B0E0DDCF5C
:105820004F925F926F927F928F929F92AF92BF92B0
:10583000CF92DF92EF92FF920F931F93CF93DF935C
:10584000EC01423051056105710590F480E0DF9173
:10585000CF911F910F91FF90EF90DF90CF90BF906D
:10586000AF909F908F907F906F905F904F90089532
:1058700089859A85AB85BC850196A11DB11D8417CC
:105880009507A607B70710F3CB88DC88ED88FE885C
:105890008F89803109F042C0BB27A72F962F852F13
:1058A000480159012A013B01C80ED91EEA1EFB1E00
:1058B0008091080190910901A0910A01B0910B011A
:1058C000C816D906EA06FB0699F58F898031C1F51D
:1058D000B301A201552766277727440F551F4E5A5B
:1058E000554FFA019182808280914F0A81608093A6
:1058F0004F0A8A89823080F08D819E81AF81B88580
:105900008C0D9D1DAE1DBF1D80934B0A90934C0ABC
:10591000A0934D0AB0934E0A81E099CFDB01CA01F2
:10592000E7E0B695A79597958795EA95D1F7B8CF13
:1059300040E0C701B6010E94C52A8111C6CF86CFBB
:10594000B301A2014F77552766277727440F551FCC
:10595000440F551F4E5A554FFA0180829182A28200
:10596000B382C2CF2F923F924F925F926F927F92FB
:105970008F929F92AF92BF92CF92DF92EF92FF925F
:105980000F931F93CF93DF93CDB7DEB72F970FB64B
:10599000F894DEBF0FBECDBF3C01488759876A87A8
:1059A0007B873F832E83D901CD90DD90ED90FC90D5
:1059B000C114D104E104F10439F0BFEFCB1ADB0AC2
:1059C000EB0AFB0A1D8210C0FC01C080D180E2807E
:1059D000F380F1E0FD83088519852A853B85013038
:1059E00011052105310571F7F30181859285A385A4
:1059F000B4858C019D010F5F1F4F2F4F3F4F0C87C8
:105A00001D872E873F8746015701212C312C21010C
:105A1000F30181859285A385B485281639064A0647
:105A20005B0608F044C00C851D852E853F85081552
:105A300019052A053B0550F482E0882E912CA12CF3
:105A4000B12C92E0C92ED12CE12CF12C9E012F5FBC
:105A50003F4FB501A401C3010E94242B882339F1D3
:105A6000D501C4010196A11DB11D49815A816B81E7
:105A70007C81452B462B472BA9F5AC01BD014C1968
:105A80005D096E097F09088519852A853B854017C0
:105A900051076207730741F50FEF1FEF2FEF3FE04C
:105AA000B501A401C3010E94102C811125C01D82E3
:105AB0008D812F960FB6F894DEBF0FBECDBFDF915C
:105AC000CF911F910F91FF90EF90DF90CF90BF90FB
:105AD000AF909F908F907F906F905F904F903F908E
