:020000040000FA
:100000000C9411010C943B010C943B010C943B01AA
:100010000C943B010C943B010C943B010C943B0170
:100020000C943B010C943B010C943B010C943B0160
:100030000C943B010C94A7010C943B010C943B01E4
:100040000C943B010C943B010C94A0350C943B01A7
:100050000C941D310C9453310C943B010C943B01D6
:100060000C943B010C943B010C94F3150C943B0154
:100070000C94B4310C94EA310C943B010C943B0188
:100080000C943B010C943B010C943B0100407A1012
:10009000F35A00A0724E18090010A5D4E80000E839
:1000A0007648170000E40B54020000CA9A3B000097
:1000B00000E1F505000080969800000040420F0026
:1000C0000000A08601000000102700000000E803E7
:1000D000000000006400000000000A0000000000B2
:1000E0000100000000002C76D888DC674F0823DF71
:1000F000C1DFAE59E1B1B796E5E3E453C63AE65144
:10010000997696E8E6C28426EB898C9B62ED407C6A
:100110006FFCEFBC9C9F40F2BAA56FA5F490055A06
:100120002AF75C936B6CF9676DC11BFCE0E40D472B
:10013000FEF520E6B500D0ED902E0300943577054E
:100140000080841E080000204E0A000000C80C3306
:100150003333330F986E12831141EF8D2114893B95
:10016000E65516CFFEE6DB18D1844B381BF77C1D15
:10017000901DA4BBE424203284725E228100C9F168
:1001800024ECA1E53D277C3C3E5E2B3D3F2F5B5D93
:100190003B2C2A225C000000000203000A0B000036
:1001A0000000050409080000000000000000000035
:1001B000000000000000010204081020408001023D
:1001C0000408102040800102040810204080010231
:1001D000040810204080020202020202020204040B
:1001E00004040404040403030303030303030101DD
:1001F0000101010101010000200023002600290067
:1002000000002200250028002B000000210024000F
:1002100027002A00BC0108150C1B261E87311E3240
:10022000CE0111241FBECFEFD0E4DEBFCDBF12E060
:10023000A0E0B1E0E8E5FDE700E00BBF02C00790F9
:100240000D92AC38B107D9F72CE0ACE8B2E001C0B0
:100250001D92AA3DB207E1F711E0C0E1D1E004C070
:100260002197FE010E945539CA30D107C9F70E9473
:1002700091350C949F3E0C940000DC01ED91FC91B3
:100280000190F081E02D09940CB405FC0DC09EBDD9
:1002900000000DB407FEFDCF9EB58EBD00000DB46D
:1002A00007FEFDCF8EB508958EBD00000DB407FE8C
:1002B000FDCF8EB59EBD00000DB407FEFDCF9EB5EF
:1002C0000895982F92959F708F702AE0929F800DCD
:1002D00011240895CF93DF93C8ECD0E08AEF90E02B
:1002E0000E94543661E08FE00E94C93661E08FE0E1
:1002F0000E9405378AEF90E00E94543661E08FE05B
:100300000E94C93660E08FE00E940537219731F7DF
:10031000C8ECD0E084EB90E00E94543661E08FE0BE
:100320000E94C93661E08FE00E94053784EB90E0BF
:100330000E94543661E08FE00E94C93660E08FE091
:100340000E940537219731F7DF91CF9108951F92D1
:100350000F920FB60F9211248F9380918E028F5FB0
:1003600080938E0210928500109284008F910F90DE
:100370000FBE0F901F90189566E171E081E998E03B
:100380000E94AE3367E471E08BE898E00E94AE33E0
:1003900061E871E085E898E00C94AE3385E898E078
:1003A0000E943C338BE898E00E943C3381E998E05E
:1003B0000C943C33CF93DF9361E570E087E998E0DC
:1003C0000E94871470E060E087E998E00E943D0198
:1003D00087E998E00E94051546E061E587E998E025
:1003E0000E94FF1487E998E00E94FA130E946101BD
:1003F00080938F0287E998E00E94FA138F770E941A
:100400006101D82F87E998E00E94FA138F770E9444
:100410006101C82F87E998E00E94FA130E946101E8
:1004200090E0B0E0A0E08093900290939102A093BE
:100430009202B093930287E998E00E94FA130E9417
:10044000610124E6829FC0011124092E000CAA0B31
:10045000BB0B409190025091910260919202709179
:100460009302840F951FA61FB71F8093900290934D
:100470009102A0939202B093930287E998E00E94C0
:10048000FA130E94610140E157E2849F9001859F29
:10049000300D1124032E000C440B550B809190025B
:1004A00090919102A0919202B0919302280F391F6E
:1004B0004A1F5B1FA0E1BEE00E946D39AB01BC0189
:1004C0002CE3C29FC0011124092E000CAA0BBB0B08
:1004D0008D0F911DA11DB11D840F951FA61FB71F64
:1004E0008093900290939102A0939202B093930212
:1004F000DF91CF910895CF93DF93CDB7DEB7C45985
:10050000D1090FB6F894DEBF0FBECDBF88E19FE0E2
:100510000FB6F894A895809360000FBE909360008A
:1005200061E083E10E94053760E082E10E940537C7
:1005300061E082E00E94C93661E082E00E940537F6
:1005400061E084E10E94C93661E084E10E940537E0
:1005500061E871E0CE0181579F4F0E94AE330E9447
:10056000DA0168E571E0CE0181579F4F0E94413565
:1005700060918108709182084AE0CE0101960E9444
:100580002634BE016F5F7F4FCE0181579F4F0E947F
:100590003A35CE0101960E943C336DEF71E0CE01F9
:1005A00081579F4F0E944135409190025091910296
:1005B00060919202709193022AE0CE0101960E940E
:1005C0005234BE016F5F7F4FCE0181579F4F0E9413
:1005D0003A35CE0101960E943C3360EE71E0CE01C7
:1005E00081579F4F0E9441354AE060918F02CE01B2
:1005F00001960E94CD33BE016F5F7F4FCE018157C0
:100600009F4F0E943A35CE0101960E943C336DEF18
:1006100071E0CE0181579F4F0E94413547E958E074
:1006200064E4CE01885A9F4F0E94BE2ACE01885AA8
:100630009F4F0E94F52A61E0CE01885A9F4F0E9489
:10064000782BE1966EAD7FADE19790E080E00E945F
:1006500004382FEA30E04FE25BE30E94B63820E036
:1006600030E044E352E40E945C37AB01BC0121E07E
:10067000CE0101960E94AE34BE016F5F7F4FCE0166
:1006800081579F4F0E943A35CE0101960E943C331C
:100690006DEF71E0CE0101960E94AE33BE016F5F37
:1006A0007F4FCE0181579F4F0E943A35CE01019670
:1006B0000E943C33AF966EAD7FADAF9790E080E087
:1006C0000E94043828EC30E048EC5AE30E94B63827
:1006D000AB01BC0121E0CE0101960E94AE34BE0107
:1006E0006F5F7F4FCE0181579F4F0E943A35CE01F9
:1006F00001960E943C336DEF71E0CE0101960E949D
:10070000AE33BE016F5F7F4FCE0181579F4F0E9476
:100710003A35CE0101960E943C3347E958E065E442
:10072000CE01CC960E94BE2ACE01CC960E94F52A1C
:1007300061E0CE01CC960E94782B65966EAD7FADC0
:10074000659790E080E00E9404382FEA30E04FE2A5
:100750005BE30E94B63820E030E044E352E40E94BC
:100760005C37AB01BC0121E0CE0101960E94AE34A2
:10077000BE016F5F7F4FCE0181579F4F0E943A3578
:10078000CE0101960E943C336DEF71E0CE010196DF
:100790000E94AE33BE016F5F7F4FCE0181579F4FE6
:1007A0000E943A35CE0101960E943C3363966EADAD
:1007B0007FAD639790E080E00E94043828EC30E041
:1007C00048EC5AE30E94B638AB01BC0121E0CE01EF
:1007D00001960E94AE34BE016F5F7F4FCE018157FC
:1007E0009F4F0E943A35CE0101960E943C336DEF37
:1007F00071E0CE0101960E94AE33BE016F5F7F4F64
:10080000CE0181579F4F0E943A35CE0101960E943A
:100810003C3347E958E067E7CE0101960E94A42BDC
:10082000CE0101960E94CE2F6A81CE0101960E94D0
:10083000622DCE0101960E94DE2BAB01BC0122E0AD
:10084000CE018C589F4F0E94AE34BE016C587F4F32
:10085000CE0181579F4F0E943A35CE018C589F4F51
:100860000E943C336DEF71E0CE018C589F4F0E9487
:10087000AE33BE016C587F4FCE0181579F4F0E940F
:100880003A35CE018C589F4F0E943C33CE010196E1
:100890000E94152CAB01BC0122E0CE018C589F4F69
:1008A0000E94AE34BE016C587F4FCE0181579F4FDE
:1008B0000E943A35CE018C589F4F0E943C3361E034
:1008C00084E10E94C93660E084E10E94053761E05E
:1008D00082E00E94C93660E082E00E9405370FB6D0
:1008E000F894A895809160008861809360001092D0
:1008F00060000FBEBE0161577F4F8FE29CE00E94F7
:10090000A83280910701882371F164E089E399E0BE
:100910000E9456196EE571E0882309F443C04091A6
:1009200085085091860823E169E379E0CE018C586F
:100930009F4F0E94761ACE018C589F4F0E944A18F2
:10094000882371F1BE0161577F4FCE018C589F4FB4
:100950000E94A832CE018C589F4F0E94381861E047
:1009600084E00E94053761E082E10E94053760E083
:1009700083E10E94053761E070E080E090E00E9432
:100980001B36CE0181579F4F0E943C33CC56DF4F20
:100990000FB6F894DEBF0FBECDBFDF91CF910895A3
:1009A0006DE671E08FE29CE00E94BA32109207017E
:1009B000D6CF4F925F926F927F92AF92BF92CF92BB
:1009C000DF92EF92FF920F931F93CF93DF93CDB7F8
:1009D000DEB7A7970FB6F894DEBF0FBECDBF61E0BC
:1009E00083E10E94053760E082E10E9405370E94A2
:1009F000DA0161E871E0CE0182960E94AE3367E7CA
:100A000071E0CE0182960E9441356091810870911B
:100A100082084AE0CE0101960E942634BE016F5F33
:100A20007F4FCE0182960E943A35CE0101960E94F8
:100A30003C336DEF71E0CE0182960E9441356091AA
:100A40002106709122064AE0CE0101960E942634CA
:100A5000BE016F5F7F4FCE0182960E943A35CE0174
:100A600001960E943C338FE9E82E82E0F82E96EF43
:100A7000C92E94E0D92E23E2A22E26E0B22E01E068
:100A800010E080919B0290919C020817190708F0D2
:100A900051C00C3221E0120709F44CC0F6018191DB
:100AA0006F01F501419051905F01712C612C8823F9
:100AB00031F0F7E94F0EF8E95F1E611C711C6FE71A
:100AC00071E0CE0182960E94413562E871E0CE016C
:100AD00082960E9441352AE0B301A201CE0101961F
:100AE0000E945234BE016F5F7F4FCE0182960E94FA
:100AF0003A35CE0101960E943C336DEF71E0CE0194
:100B000082960E944135F701619171917F014AE01F
:100B1000CE0101960E942634BE016F5F7F4FCE0149
:100B200082960E943A35CE0101960E943C330F5FB7
:100B30001F4FA7CF66E871E0CE0182960E94413533
:100B400060918108709182084AE0CE0101960E946E
:100B50002634BE016F5F7F4FCE0182960E943A35E8
:100B6000CE0101960E943C336DEF71E0CE0182967A
:100B70000E94413540919002509191026091920201
:100B8000709193022AE0CE0101960E945234BE0178
:100B90006F5F7F4FCE0182960E943A35CE0101965B
:100BA0000E943C3360EE71E0CE0182960E94413596
:100BB0004AE060918F02CE0101960E94CD33BE01C2
:100BC0006F5F7F4FCE0182960E943A35CE0101962B
:100BD0000E943C336DEF71E0CE0182960E94413558
:100BE0008091940060919500762F682F4AE0CE01A5
:100BF00001960E942634BE016F5F7F4FCE01829620
:100C00000E943A35CE0101960E943C336DEF71E0AF
:100C1000CE0182960E94413560919B0270919C02A8
:100C2000615071094AE0CE0101960E942634BE014E
:100C30006F5F7F4FCE0182960E943A35CE010196BA
:100C40000E943C3309E718E06DEF71E0CE01829617
:100C50000E944135F801619171918F014AE0CE0106
:100C600001960E942634BE016F5F7F4FCE018296AF
:100C70000E943A35CE0101960E943C33F8E00138DB
:100C80001F0711F7BE016E5D7F4F8FE29CE00E944F
:100C9000A8328091070161E0882309F4A6C08EE0A4
:100CA0000E94053764E089E399E00E9456196EE5D9
:100CB00071E0882309F492C040918508509186081C
:100CC00023E169E379E0CE0101960E94761ACE0114
:100CD00001960E944A18882309F47EC0BE016E5D09
:100CE0007F4FCE0101960E94A832CE0101960E944C
:100CF000381861E084E00E94053760E08EE00E94D1
:100D0000053760E08DE00E94053780918108909161
:100D10008208893F9A42C8F1109282081092810895
:100D200060918308709184086F5F7F4F709384088F
:100D3000609383084AE0CE014C960E942634BE019F
:100D4000645E7F4FCE0101960E9496346FE871E099
:100D5000CE0101960E946335BC0185E898E00E94AF
:100D60007F34CE0101960E943C33CE014C960E9406
:100D70003C3364E971E08FE29CE00E94953265E8C3
:100D800078E08FE29CE00E94A83261E082E10E945C
:100D9000053760E083E10E94053761E070E080E0A4
:100DA00090E00E941B36CE0182960E943C33A796AB
:100DB0000FB6F894DEBF0FBECDBFDF91CF911F916C
:100DC0000F91FF90EF90DF90CF90BF90AF907F900A
:100DD0006F905F904F9008956DE671E08FE29CE018
:100DE0000E94BA321092070184CF8DE00E9405372D
:100DF000CEA0DFA010E000E0FF24FA948DE10E9475
:100E00003337892B19F0FA94F110F8CF82E390E090
:100E10000E94543678012FEFE21AF20AB801CE018F
:100E200082960E947D35FC01608182E99BE00E94F0
:100E30009D32CE14DF0460F482E99BE00E94A4326C
:100E4000BE016E5D7F4F8FE29CE00E94A83255CFBD
:100E50008701D2CF0F931F93CF93DF93C82F65E500
:100E600070E087E998E00E9487140C2E000CDD0BDF
:100E7000BE0187E998E00E943D0187E998E00E9461
:100E8000051541E050E065E570E087E998E00E94D3
:100E9000021587E998E00E94FA138C0165E570E07D
:100EA00087E998E00E948714BE016F5F7F4F87E952
:100EB00098E00E943D0187E998E00E94051541E015
:100EC00050E065E570E087E998E00E94021587E947
:100ED00098E00E94FA1320E0382FC901800F911F7B
:100EE000DF91CF911F910F910895CF93DF93CDB7ED
:100EF000DEB7A1970FB6F894DEBF0FBECDBF61E09D
:100F000083E10E94053760E082E10E94053761E8D5
:100F100071E0CE014C960E94AE330E94DA016FE977
:100F200071E0CE014C960E9441356091810870912C
:100F300082084AE0CE0101960E942634BE016F5F0E
:100F40007F4FCE014C960E943A35CE0101960E9409
:100F50003C336DEF71E0CE014C960E9441354091DB
:100F600090025091910260919202709193022AE056
:100F7000CE0101960E945234BE016F5F7F4FCE01B9
:100F80004C960E943A35CE0101960E943C3360EEA9
:100F900071E0CE014C960E9441354AE060918F028B
:100FA000CE0101960E94CD33BE016F5F7F4FCE010F
:100FB0004C960E943A35CE0101960E943C336DEF6B
:100FC00071E0CE014C960E94413588E00E942A07CC
:100FD0004AE0BC01CE0101960E94FA33BE016F5F68
:100FE0007F4FCE014C960E943A35CE0101960E9469
:100FF0003C336DEF71E0CE014C960E9441358AE0A2
:101000000E942A074AE0BC01CE0101960E94FA33F1
:10101000BE016F5F7F4FCE014C960E943A35CE01E4
:1010200001960E943C336DEF71E0CE014C960E9418
:10103000413584E00E942A074AE0BC01CE010196B6
:101040000E94FA33BE016F5F7F4FCE014C960E9423
:101050003A35CE0101960E943C336DEF71E0CE012E
:101060004C960E94413586E00E942A074AE0BC0166
:10107000CE0101960E94FA33BE016F5F7F4FCE0111
:101080004C960E943A35CE0101960E943C336DEF9A
:1010900071E0CE014C960E9441358CE00E942A07F7
:1010A000BC01990F880B990B0E9406382DEC3CEC83
:1010B0004CEC5DE30E94B63823E333E948E853E49F
:1010C0000E945C37AB01BC0122E0CE0101960E9478
:1010D000DE34BE016F5F7F4FCE014C960E943A35E1
:1010E000CE0101960E943C33BE01645E7F4F8FE2C9
:1010F0009CE00E94A83280910701882349F164E0B6
:1011000089E399E00E9456196EE571E08823E9F1C0
:10111000409185085091860823E169E379E0CE018A
:1011200001960E94761ACE0101960E944A188823E1
:1011300051F1BE01645E7F4FCE0101960E94A8323C
:10114000CE0101960E94381861E084E00E940537C4
:1011500061E082E10E94053760E083E10E9405378B
:1011600061E070E080E090E00E941B36CE014C967A
:101170000E943C33A1960FB6F894DEBF0FBECDBFE0
:10118000DF91CF9108956DE671E08FE29CE00E94BF
:10119000BA3210920701D8CF10927A0810927908CB
:1011A00010927C0810927B0810927E0810927D08A5
:1011B0001092800810927F0881E090E090939C024A
:1011C00080939B0261E087E10E94053760E086E141
:1011D0000E94053790E080E00E94440161E086E1D2
:1011E0000E9405371092850010928400909194001F
:1011F00080919500892798278927909322068093CC
:10120000210610928E0210928D0210928C0210E232
:1012100008E1B9E2FB2EC1E0D0E018993EC180910F
:101220008E028230D0F38EE10E943337892B29F56C
:10123000A8ECCA2ED12C86E990E00E94543661E0D9
:101240008FE00E94C93661E08FE00E94053786E991
:1012500090E00E94543661E08FE00E94C93660E061
:101260008FE00E94053741E0C41AD10821F7809130
:10127000960291E089278093960210928E028091C7
:101280008D028F5F80938D0280918C028F5F80939F
:101290008C028BE10E943337682F8DE00E94053766
:1012A0008BE10E943337892B09F48DC061E570E032
:1012B00087E998E00E94871467E287E998E00E9436
:1012C0001D1460E087E998E00E941D1465E970E054
:1012D00087E998E00E943D0187E998E00E940515A2
:1012E00068EB7BE080E090E00E941B36C8ECD0E029
:1012F0008AEF90E00E94543661E08FE00E94C93688
:1013000061E08FE00E9405378AEF90E00E9454363A
:1013100061E08FE00E94C93660E08FE00E940537EF
:10132000219731F761E570E087E998E00E94871422
:1013300067E287E998E00E941D1463E087E998E07E
:101340000E941D1465E970E087E998E00E943D0164
:1013500087E998E00E9405156AE670E087E998E061
:101360000E94871468E187E998E00E941D146AE0F2
:1013700087E998E00E941D1487E998E00E9405150E
:1013800068E873E180E090E00E941B36C8ECD0E092
:101390008AEF90E00E94543661E08FE00E94C936E7
:1013A00061E08FE00E9405378AEF90E00E9454369A
:1013B00061E08FE00E94C93660E08FE00E9405374F
:1013C000219731F7DDCF61E086E10E94053760E0CB
:1013D00087E10E9405370FB6F894A8950093600046
:1013E0000FBEF09260000E94D90410927A08109209
:1013F000790810927C0810927B0810927E08109257
:101400007D081092800810927F08D0939C02C093B0
:101410009B0280918C028E3120F010928C020E94EF
:101420007B0280918D02843B20F010928D020E94FD
:10143000750761E087E10E94053760E086E10E9460
:10144000053790E080E00E94440161E086E10E945F
:1014500005370FB6F894A895809160008861809355
:101460006000109260000FBE809181089091820808
:1014700001969093820880938108109285001092C3
:10148000840090919400809195008927982789275E
:101490009093220680932106C0CE60E086E10E94F0
:1014A000053790E080E00E944401209196022223BB
:1014B00061F18430910560F12BB121272BB9209186
:1014C0009B0230919C022C32E1E03E07B8F460911F
:1014D000840070918500A901440F551FFA01EF5D4A
:1014E000F94F7183608360918E02F901EB50FB4FDD
:1014F000608343565D4FFA01918380832F5F3F4F96
:1015000030939C0220939B020DC084309105B8F665
:10151000880F991FFC01E758F74F80819181019650
:101520009183808361E086E10E94053776CE0F9338
:101530001F93CF93DF93CDB7DEB7A1970FB6F89483
:10154000DEBF0FBECDBF082F162F61E570E087E923
:1015500098E00E94871463E287E998E00E941D14D6
:1015600060E087E998E00E941D1460E087E998E058
:101570000E941D1465E087E998E00E941D1460E058
:1015800087E998E00E941D1460E087E998E00E94D6
:101590001D1467E987E998E00E941D1460E087E95F
:1015A00098E00E941D1460E087E998E00E941D14F5
:1015B00087E998E00E94051561E570E087E998E009
:1015C0000E9487146FE270E087E998E00E943D0175
:1015D0006CE270E087E998E00E943D0187E998E0BD
:1015E0000E94051561E570E087E998E00E94871484
:1015F00068E270E087E998E00E943D0167E970E0E9
:1016000087E998E00E943D0187E998E00E9405156E
:1016100061E570E087E998E00E94871460E087E95F
:1016200098E00E941D1460E087E998E00E941D1474
:1016300060E087E998E00E941D1460E087E998E087
:101640000E941D1460E087E998E00E941D1460E08C
:1016500087E998E00E941D1460E087E998E00E9405
:101660001D1487E998E00E9405150E94DA0166EAD8
:1016700071E0CE014C960E94AE33409190025091A1
:10168000910260919202709193022AE0CE0101963C
:101690000E945234BE016F5F7F4FCE014C960E9474
:1016A0003A35CE0101960E943C3360EE71E0CE01E6
:1016B0004C960E9441354AE060918F02CE0101961E
:1016C0000E94CD33BE016F5F7F4FCE014C960E94CA
:1016D0003A35CE0101960E943C336FEA71E0CE01AB
:1016E0004C960E944135003130F46EEB71E0CE0132
:1016F0004C960E94413540E1602FCE0101960E9438
:10170000CD33BE016F5F7F4FCE014C960E943A35BC
:10171000CE0101960E943C3360EC71E0CE014C9604
:101720000E944135103130F46EEB71E0CE014C96E1
:101730000E94413540E1612FCE0101960E94CD33D8
:10174000BE016F5F7F4FCE014C960E943A35CE01AD
:1017500001960E943C33BE01645E7F4F8FE29CE0A5
:101760000E94A83280910701882319F164E089E37F
:1017700099E00E9456198823E1F040918508509124
:10178000860823E169E379E0CE0101960E94761A8A
:10179000CE0101960E944A18882359F0BE01645E6A
:1017A0007F4FCE0101960E94A832CE0101960E9481
:1017B0003818CE014C960E943C33A1960FB6F8948F
:1017C000DEBF0FBECDBFDF91CF911F910F91089566
:1017D000CF93DF93D82FC62F6AE670E087E998E0B1
:1017E0000E9487146D2F87E998E00E941D146C2FCA
:1017F00087E998E00E941D1487E998E0DF91CF9176
:101800000C940515CF93C82F6AE670E087E998E03D
:101810000E94871462E087E998E00E941D1460E648
:1018200071E087E998E00E943D0187E998E00E9415
:1018300005156AE670E087E998E00E94871464E184
:1018400087E998E00E941D1466E287E998E0CC23BE
:1018500009F448C00E941D1469E187E998E00E94DC
:101860001D1460EA87E998E00E941D1466E587E987
:1018700098E00E941D1460E087E998E00E941D1422
:1018800061E087E998E00E941D1487E998E00E94D2
:1018900005156AE670E087E998E00E9487146AE11E
:1018A00087E998E00E941D146FEB87E998E00E9499
:1018B0001D1487E998E00E9405156AE670E087E943
:1018C00098E00E94871466E287E998E00E941D1460
:1018D0006CE887E998E00E941D1487E998E0CF91B1
:1018E0000C9405150E941D1469E987E998E00E948F
:1018F0001D1460E0B7CFCF93C82F61E570E087E992
:1019000098E00E9487146C2F87E998E00E941D14CC
:1019100087E998E00E94051541E061E587E998E0D4
:101920000E94FF1487E998E00E94F313892B31F09D
:1019300087E998E00E94FA13CF9108958FEFFCCFCA
:101940000F931F93CF93DF93CDB7DEB7A1970FB659
:10195000F894DEBF0FBECDBF87E00E947B0C182F2E
:1019600088E20E947B0C082F807117FD02C0811154
:101970000FC0602F812F0E94970AA1960FB6F8948E
:10198000DEBF0FBECDBFDF91CF911F910F910895A4
:101990000E94DA0166EA71E0CE014C960E94AE33F5
:1019A0004091900250919102609192027091930245
:1019B0002AE0CE0101960E945234BE016F5F7F4F34
:1019C000CE014C960E943A35CE0101960E943C33DE
:1019D00060EE71E0CE014C960E9441354AE0609184
:1019E0008F02CE0101960E94CD33BE016F5F7F4F03
:1019F000CE014C960E943A35CE0101960E943C33AE
:101A00006AEC71E0CE014C960E944135103130F401
:101A10006EEB71E0CE014C960E94413540E1612FA2
:101A2000CE0101960E94CD33BE016F5F7F4FCE0184
:101A30004C960E943A35CE0101960E943C3360ECF0
:101A400071E0CE014C960E94413540E1602FCE01FD
:101A500001960E94CD33BE016F5F7F4FCE014C9641
:101A60000E943A35CE0101960E943C33BE01645E6D
:101A70007F4F8FE29CE00E94A8328091070188236B
:101A800019F164E089E399E00E9456198823E1F096
:101A9000409185085091860823E169E379E0CE0101
:101AA00001960E94761ACE0101960E944A18882358
:101AB00059F0BE01645E7F4FCE0101960E94A832AC
:101AC000CE0101960E943818CE014C960E943C33FC
:101AD00054CFCF93C82F6AE670E087E998E00E9460
:101AE00087146C2F87E998E00E941D1460E087E955
:101AF00098E00E94891441E06AE687E998E00E9434
:101B0000FF1487E998E00E94F313892B31F087E9ED
:101B100098E00E94FA13CF91089580E0FCCFCF9314
:101B2000DF93C82F6AE670E087E998E00E94871487
:101B30006C2F87E998E00E941D1460E087E998E027
:101B40000E94891442E06AE687E998E00E94FF1447
:101B500087E998E00E94F31302978CF087E998E0F8
:101B60000E94FA13EC0187E998E00E94FA1320E042
:101B7000382FC9018C2B9D2BDF91CF91089590E0D8
:101B800080E0FACF0F931F93CF93DF938C0186E110
:101B90000E94690DC82FD82FDF7D6D2F86E10E942E
:101BA000E80B62E370E080E090E00E941B366D2F4E
:101BB000606486E10E94E80B68EC70E080E090E0F1
:101BC0000E941B366C2F6F7986E10E94E80B64E15E
:101BD00070E080E090E00E941B3687E20E94690D71
:101BE000682F6F7E87E20E94E80B86E20E94690DF3
:101BF0008F7C682F626C86E20E94E80B62E370E0E3
:101C000080E090E00E941B3680E30E948F0D969545
:101C100087959C013F70A7ECB0E00E945E3924E6F6
:101C200030E040E050E00E943339F80131832083F6
:101C300081E0283B3B4008F480E0DF91CF911F9189
:101C40000F910895CF92DF92EF92FF920F931F931F
:101C5000CF93DF93CDB7DEB7C254D1090FB6F89456
:101C6000DEBF0FBECDBF26E040E052EC61E070E089
:101C700082E99BE00E94CB3026E040E052EC61E03C
:101C800070E08FE29CE00E94CB3040EA56E861E0D1
:101C900070E087E998E00E94791469ED71E08FE2C5
:101CA0009CE00E94BA3260E08BE10E94C93660E09D
:101CB00085E10E94C93660E08DE10E94C93660E08E
:101CC0008EE10E94C93661E086E10E94C93661E07A
:101CD00087E10E94C93660E080E00E94C93661E079
:101CE0008FE00E94C93661E082E10E94C93661E05E
:101CF00082E10E94053761E082E00E94C93661E01E
:101D000082E00E94053761E08AE10E94C93661E005
:101D10008AE10E94053761E083E10E94C93661E0F3
:101D200083E00E94C93661E084E00E94C93660E029
:101D300085E00E94C93660E086E00E94C93661E015
:101D400087E00E94C93661E083E10E94053761E0C7
:101D500084E00E94053760E087E00E94053764E672
:101D600070E080E090E00E941B3660E083E00E941B
:101D7000053761E084E10E94C93660E084E10E9499
:101D8000053780E00E94020C64E670E080E090E09D
:101D90000E941B3684E992E00E94C20D80930601E6
:101DA0000E94020C8BE10E943337892B09F42CC16D
:101DB00088E19FE00FB6F894A895809360000FBE6D
:101DC000909360006AE670E087E998E00E948714CB
:101DD0006DE270E087E998E00E943D0187E998E0B4
:101DE0000E94051541E06AE687E998E00E94FF1429
:101DF00087E998E00E94FA13A89568EE73E080E006
:101E000090E00E941B36A89568EE73E080E090E0B9
:101E10000E941B36A89568EE73E080E090E00E9477
:101E20001B36A89511E001E06AE670E087E998E0CA
:101E30000E9487146DE270E087E998E00E943D01FE
:101E400087E998E00E94051541E06AE687E998E095
:101E50000E94FF1487E998E00E94FA13A8958F77F3
:101E6000813108F07FC08BE10E943337682F8DE00D
:101E70000E94053761E570E087E998E00E948714C9
:101E800068E270E087E998E00E943D0165E970E052
:101E900087E998E00E943D0187E998E00E940515D6
:101EA000A89568EE73E080E090E00E941B36A8954C
:101EB00068EE73E080E090E00E941B36A89568EE23
:101EC00073E080E090E00E941B36A89508EC10E0DB
:101ED0008AEF90E00E94543661E08FE00E94C9369C
:101EE00061E08FE00E9405378AEF90E00E9454364F
:101EF00061E08FE00E94C93660E08FE00E94053704
:101F00000150110929F761E570E087E998E00E9426
:101F1000871467E287E998E00E941D1463E087E96F
:101F200098E00E941D1465E970E087E998E00E943E
:101F30003D0187E998E00E9405156AE670E087E9AF
:101F400098E00E94871468E187E998E00E941D14D8
:101F50006AE087E998E00E941D1487E998E00E94F2
:101F60000515FFCFA895112311F161E0002351F170
:101F700083E00E9405370E946A0161E770E087E90B
:101F800098E00E94871460E087E998E00E941D14A1
:101F900063E187E998E00E941D1487E998E00E94B8
:101FA000051568EE73E080E090E00E941B368EE13C
:101FB0000E94333710E0892B09F036CF81E00827E3
:101FC00011E032CF8CE00E94C93660E08CE00E94C4
:101FD00005370E946A0161E770E087E998E00E9496
:101FE000871460E087E998E00E941D1460E187E9AA
:101FF00098E00E941D1487E998E00E94051560E0B2
:1020000083E00E940537CDCF61E084E10E94C936AC
:1020100061E084E10E94053715E060E570E080E052
:1020200090E00E941B3661E08CE00E94C93661E0BE
:102030008CE00E94053760E570E080E090E00E944F
:102040001B3660E08CE00E940537115031F761E0EB
:102050008CE00E94053708EC10E084EB90E00E94D1
:10206000543661E08FE00E94C93661E08FE00E9443
:10207000053784EB90E00E94543661E08FE00E94C7
:10208000C93660E08FE00E9405370150110929F739
:1020900062EE71E08FE29CE00E94BA3260E087E17C
:1020A0000E94053761E086E10E94053761E570E036
:1020B00087E998E00E94871467E287E998E00E9428
:1020C0001D1463E087E998E00E941D1467E987E921
:1020D00098E00E941D1488E199E20FB6F894A89543
:1020E000809360000FBE909360006BEE71E0CE01B4
:1020F00001960E94AE336BE878E0CE0101960E9413
:1021000050356BEF71E00E94633561E978E00E9421
:1021100050356DEF71E00E946335BC01CE01CD9664
:102120000E949634CE0101960E943C336BE570E02C
:1021300087E998E00E94871468E070E087E998E0FA
:102140000E943D0170E060E087E998E00E943D0157
:1021500087E998E00E94051540E16BE587E998E082
:102160000E94FF1410E187E998E00E94FA13082FFB
:10217000803130F46EEB71E0CE01CD960E94413596
:1021800040E1602FCE0101960E94CD33BE016F5F0A
:102190007F4FCE01CD960E943A35CE0101960E9426
:1021A0003C33115001F76FEF71E0CE01CD960E94E4
:1021B000413568E570E087E998E00E94871468E09F
:1021C00070E087E998E00E943D0170E060E087E9F7
:1021D00098E00E943D0187E998E00E94051540E1E2
:1021E00068E587E998E00E94FF1410E187E998E02C
:1021F0000E94FA13082F803130F46EEB71E0CE01AB
:10220000CD960E94413561E082E00E94C93661E0CE
:1022100082E00E94053761E08AE10E94C93661E0F0
:102220008AE10E94053740E1602FCE0101960E94AD
:10223000CD33BE016F5F7F4FCE01CD960E943A3500
:10224000CE0101960E943C33115081F66DEF71E092
:10225000CE01CD960E94413560E570E087E998E0B7
:102260000E94871470E060E087E998E00E943D01D9
:1022700070E060E087E998E00E943D0187E998E01E
:102280000E94051542E060E587E998E00E94FF148E
:1022900087E998E00E94FA138093980287E998E012
:1022A0000E94FA138093970240E160919802CE0158
:1022B00001960E94CD33BE016F5F7F4FCE01CD9658
:1022C0000E943A35CE0101960E943C3340E1609174
:1022D0009702CE0101960E94CD33BE016F5F7F4F02
:1022E000CE01CD960E943A35CE0101960E943C3334
:1022F00065E172E0CE01CD960E9441356BE570E05C
:1023000087E998E00E94871468E070E087E998E028
:102310000E943D0170E060E087E998E00E943D0185
:1023200087E998E00E94051540E16BE587E998E0B0
:102330000E94FF1410E187E998E00E94FA13082F29
:10234000803130F46EEB71E0CE01CD960E944135C4
:1023500040E1602FCE0101960E94CD33BE016F5F38
:102360007F4FCE01CD960E943A35CE0101960E9454
:102370003C33115001F76DEF71E0CE01CD960E9414
:10238000413563E570E087E998E00E94871470E0CA
:1023900060E087E998E00E943D0170E060E087E935
:1023A00098E00E943D0187E998E00E94051542E00F
:1023B00063E587E998E00E94FF1487E998E00E94AE
:1023C000FA1380939A0287E998E00E94FA138093A7
:1023D000990240E160919A02CE0101960E94CD33AC
:1023E000BE016F5F7F4FCE01CD960E943A35CE0180
:1023F00001960E943C3340E160919902CE01019622
:102400000E94CD33BE016F5F7F4FCE01CD960E94FB
:102410003A35CE0101960E943C3369E272E0CE016A
:10242000CD960E944135809106016EEB71E08823C4
:1024300011F067ED71E0CE01CD960E9441356DEF50
:1024400071E0CE01CD960E94413560919402709169
:1024500095024AE0CE0101960E942634BE016F5FCC
:102460007F4FCE01CD960E943A35CE0101960E9453
:102470003C3360E082E10E94053764E089E399E043
:102480000E945619811108C06EE571E08FE29CE050
:102490000E94BA321092070181E090E09093840884
:1024A000809383086091830870918408683C71056B
:1024B00078F54AE0CE014C960E942634BE01645E57
:1024C0007F4FCE0101960E9496346FE871E0CE01F5
:1024D00001960E946335BC0185E898E00E947F3434
:1024E000CE0101960E943C33CE014C960E943C33B3
:1024F000609185087091860889E399E00E94011B2C
:10250000882331F080918308909184080196C6CF8A
:1025100060918308709184084AE0CE014C960E9435
:102520002634BE01645E7F4FCE0101960E94963430
:102530006FE871E0CE0101960E946335BC0185E829
:1025400098E00E947F34CE0101960E943C33CE0178
:102550004C960E943C3315E060E570E080E090E02E
:102560000E941B3661E08DE00E94C93661E08DE07B
:102570000E94053760E570E080E090E00E941B3625
:1025800060E08DE00E940537115031F761E08DE089
:102590000E940537409185085091860823E169E340
:1025A00079E0CE014C960E94761ACE014C960E949C
:1025B000FA176B017C0162E372E08FE29CE00E94FB
:1025C00095322AE030E0B701A6018FE29CE00E943C
:1025D0002A3381E8C81683E2D80683E4E806F104CA
:1025E00008F45BC0CE014C960E94381860918308B5
:1025F000709184086F5F7F4F7093840860938308A5
:102600004AE0CE01C7960E942634BE01695C7F4F26
:10261000CE0101960E9496346FE871E0CE010196DA
:102620000E946335BC0185E898E00E947F34CE01AA
:1026300001960E943C33CE01C7960E943C334091E4
:1026400085085091860823E169E379E0CE0101967F
:102650000E94761A8B819C819F8F8E8F8D819E81A7
:10266000AF81B88588A399A3AAA3BBA389859A85BE
:10267000AB85BC858CA39DA3AEA3BFA3DE011D9635
:10268000FE01B896CE01C5962D912193E817F90762
:10269000D9F78A8D9B8D9EAB8DAB64E971E08FE29B
:1026A0009CE00E94953265E878E08FE29CE00E9411
:1026B000A832CE014C960E944A18882309F487C09C
:1026C000BE01635C7F4FCE014C960E94A832CE01C2
:1026D0004C960E943818BE01635C7F4F8FE29CE0ED
:1026E0000E94A8320E94A00C61E082E10E9405379E
:1026F00061E084E10E94C93660E084E10E94053710
:1027000015E060E570E080E090E00E941B3661E03B
:102710008EE00E94C93661E08EE00E94053760E5D8
:1027200070E080E090E00E941B3660E08EE00E9446
:102730000537115031F760E08CE00E94053760E00A
:102740008DE00E94053761E082E00E94C93660E0BA
:1027500082E00E9405370FB6F894A895809160003A
:10276000886180936000109260000FBEF894109210
:1027700080008DE08093810087E998E9909389003B
:1027800080938800109285001092840082E08093EC
:102790006F001092900085E0809391001092950058
:1027A000109294007894CE01CD960E943C33CE5B7B
:1027B000DF4F0FB6F894DEBF0FBECDBFDF91CF91D4
:1027C0001F910F91FF90EF90DF90CF9008956DE6ED
:1027D00071E08FE29CE00E94BA32109207017BCF39
:1027E00090E080E008958091C7089091C808891B07
:1027F000990B08959091C8088091C7082FEF3FEF7B
:10280000981748F4E92FF0E0E753F74F208130E0C4
:102810009F5F9093C808C9010895E091C80880910E
:10282000C708E81730F4F0E0E753F74F808190E0F5
:1028300008958FEF9FEF08950895CF93DF931F9230
:10284000CDB7DEB769832091A3082223F9F0209148
:10285000A408203258F021E030E0FC0133832283C9
:1028600090E080E00F90DF91CF9108958091A508CE
:10287000E82FF0E0EA55F74F998190838F5F8093BE
:10288000A5088093A40881E090E0ECCF61E0CE0140
:1028900001960E94BC15F7CFCF92DF92EF92FF9284
:1028A0000F931F93CF93DF937C01CB018A0120917B
:1028B000A308222389F0EB016B01C40ED51ECC15B1
:1028C000DD0569F06991D701ED91FC910190F081EE
:1028D000E02DC7010995F3CF642F0E94BC15C801F4
:1028E000DF91CF911F910F91FF90EF90DF90CF90EC
:1028F0000895CB01BA010C94191581E08093A308C7
:102900006093C6081092A5081092A40808950C942C
:102910007D140F93062F21E04091A40866EA78E029
:102920008091C6080E946C151092A5081092A40808
:102930001092A3080F9108954F925F926F927F9229
:10294000AF92BF92CF92EF92FF920F931F93CF93CC
:10295000DF935C01F62ED42F28013901EE2019F106
:102960000E947D14CE2DC43008F0C3E0C150B8F0F1
:1029700028E0C29FC0011124A301920104C0569512
:102980004795379527958A95D2F7B901D501ED91ED
:10299000FC910190F081E02DC5010995E7CF60E041
:1029A000C5010E9489144D2FD13208F040E22C2D30
:1029B00069EC78E08F2D0E942C151092C808809346
:1029C000C708DF91CF911F910F91FF90EF90CF90AB
:1029D000BF90AF907F906F905F904F900895CF928F
:1029E000EF920F931F93C22EE12C00E010E09801AC
:1029F0000E949C141F910F91EF90CF90089521E0B9
:102A00000C94EF1421E00C94EF1461E00C94891401
:102A1000E7E9F8E01382128288EE93E0A0E0B0E0EC
:102A200084839583A683B78381E492E09183808336
:102A300008959B01AC0160E072E18AE790E00E949A
:102A40003339205131094109510956954795379538
:102A500027952093B80008954132E0F59091380908
:102A60009111FCCF91E090933809209336092FEF14
:102A70002093E9087093300960932F0910922E0972
:102A8000240F20932D099093370990913709880FCF
:102A9000892B80933709809135098130C9F41092D0
:102AA0003509809137098093BB008091BC0083FD7C
:102AB000F8CF85EC8093BC00809138098130E1F338
:102AC00080912E09841710F440912E09842F0895C7
:102AD00085EEF0CF40E0FACF0F93413208F044C0CA
:102AE000909138099111FCCF92E0909338090093AE
:102AF00036099FEF9093E9087093300960932F098E
:102B000010922E0940932D091092370990913709A0
:102B1000880F892B8093370980913509813011F511
:102B200010923509809137098093BB008091BC00D9
:102B300083FDF8CF85EC8093BC00222321F08091A7
:102B400038098230D1F38091E9088F3F79F0809184
:102B5000E908803269F08091E908803359F084E017
:102B60000F91089585EEE7CF81E0FACF80E0F8CFAE
:102B700082E0F6CF83E0F4CF20910B09260F3327B4
:102B8000331F21323105ECF420913809FC0190E02B
:102B900080E0243069F082E00895A0910B09219132
:102BA000AC01435F564FA40FB52FB11D2C93019676
:102BB000861798F380910B09680F60930B0980E0EA
:102BC000089581E0089585ED8093BC008091BC005C
:102BD00084FDFCCF10923809089585EC8093BC00E9
:102BE0001092380908951F920F920FB60F92112478
:102BF0000BB60F922F933F934F935F936F937F93F7
:102C00008F939F93AF93BF93EF93FF938091B900FE
:102C1000887F803609F44EC008F041C0883209F43C
:102C2000AAC028F5803109F49EC0C8F4882309F4AD
:102C300007C1883009F497C0FF91EF91BF91AF9120
:102C40009F918F917F916F915F914F913F912F91C4
:102C50000F900BBE0F900FBE0F901F9018958831EC
:102C600009F489C0803241F78093E90815C08034A7
:102C700009F4A6C048F48033B9F38833E9F68093A9
:102C8000E9080E94ED15D8CF803509F489C0883550
:102C900009F49EC0883481F60E94E315CDCF8839AF
:102CA00009F494C038F5883729F050F4883611F0CB
:102CB000803711F683E0809338091092EA0857C0F4
:102CC000883809F483C0803919F0803809F0B4CF0E
:102CD0008091EA08803208F079C0E091EA0881E04A
:102CE0008E0F8093EA088091BB00F0E0E551F74F2A
:102CF00080833DC0803B39F0E0F4803A09F485C020
:102D0000883A09F099CF84E08093380910920C0931
:102D100010920B09E0913309F091340909958091E3
:102D20000B0981110FC081E080930B0910920D09EE
:102D300009C0803C09F482C0883C09F47FC0883B0C
:102D400009F07ACFE0910C0981E08E0F80930C0995
:102D5000F0E0E35FF64F80818093BB0090910C0917
:102D600080910B0931C0809137098093BB0085ECBD
:102D70008093BC0061CF90912E0980912D09981706
:102D8000B8F580912F0990913009E0912E0921E04A
:102D90002E0F20932E09E80FF92FF11D8081E5CF2A
:102DA00020912F0930913009E0912E0981E08E0F9A
:102DB00080932E098091BB00E20FF32FF11D8083D9
:102DC00090912E0980912D09981788F285E8D0CF2F
:102DD00020912F0930913009E0912E0981E08E0F6A
:102DE00080932E098091BB00E20FF32FF11D8083A9
:102DF00080913609811150CF81E08093350984EAB2
:102E00008093BC001092380917CF0E94ED15809175
:102E1000EA08803230F4E091EA08F0E0E551F74F3B
:102E200010826091EA0870E0E0913109F091320976
:102E30008BEE98E009951092EA08FECE85ECE0CF83
:102E40001092E90829CFCF93DF931F92CDB7DEB759
:102E50006983DC01ED91FC910280F381E02D41E07A
:102E600050E0BE016F5F7F4F09950F90DF91CF91CA
:102E70000895CF93DF93EC01E98DFA8D309749F4F3
:102E800081E090E09B838A8390E080E0DF91CF91A6
:102E9000089513821282898D9A8D0E94AE23E98D46
:102EA000FA8D22813381232B59F7F0CFFC01818DDC
:102EB000928D009711F00C943D210895CF93DF93EC
:102EC0001F92CDB7DEB741E050E0BE016F5F7F4F8C
:102ED0000E94611F019731F4898190E00F90DF918A
:102EE000CF9108958FEF9FEFF9CFFC01818D928DE7
:102EF000009711F00C945E178FEF9FEF08950F93DA
:102F00001F93CF93DF93EC01898D9A8D10E000E041
:102F1000009799F00E945E178C010F3F100769F02F
:102F2000898D9A8DFC014285538564857585415054
:102F30005109610971090E94A920C801DF91CF914F
:102F40001F910F910895EF92FF920F931F93CF93CC
:102F5000DF93EC017B018A011B821A8288EE93E0E9
:102F6000A0E0B0E08C839D83AE83BF8383E592E0D5
:102F7000998388838DE190E00E9496399A8F898F9A
:102F8000009779F02DE1F701DC0101900D922A956F
:102F9000E1F74CE050E0B801CE010C960E94C43B32
:102FA000188EDF91CF911F910F91FF90EF900895B0
:102FB000FC011382128288EE93E0A0E0B0E08483EB
:102FC0009583A683B78383E592E091838083128EF5
:102FD000118E14860895DC015996ED91FC9130977D
:102FE00029F0628573858485958508956FEF7FEF5D
:102FF000CB010895DC015996ED91FC91309729F0B1
:103000006389748985899689089560E070E0CB01B1
:103010000895CF92DF92EF92FF92CF93DF93FC015E
:10302000218D328D232B09F1EC010E94FA176B01DF
:103030007C01CE010E94EB17A7019601261B370BDE
:10304000480B590BDA01C901811530E89307A10536
:10305000B10520F08FEF9FE7A0E0B0E0DF91CF91C6
:10306000FF90EF90DF90CF90089590E080E0F6CF52
:10307000CF93DF93EC01898D9A8D009741F00E94E8
:103080008621898D9A8D0E94323A1A8E198EDF918F
:10309000CF910895DC015996ED91FC91309721F084
:1030A00081E09581911101C080E008951F93CF9335
:1030B000DF93CDB7DEB76D970FB6F894DEBF0FBEC6
:1030C000CDBFAB011C821B8227E632E03A83298305
:1030D0001E8221E0BC01CE0101960E94C12211E0B6
:1030E00081110CC010E0812F6D960FB6F894DEBFF1
:1030F0000FBECDBFDF91CF911F910895CE010196F4
:103100000E948621F0CFEF92FF920F931F93CF93EF
:10311000DF937B01DB012D913C91FC01E20FF31F5A
:1031200060816F3211F42F5F3F4F8C01020F131F2C
:10313000EA01F0E0E0E0D8017D918D017F3249F0B5
:10314000772339F02F5F3F4F31967993EC30F105BB
:1031500091F7E40FF51F1082FC01E20FF31F40818D
:103160004F3211F42F5F3F4FF70131832083280F37
:10317000391F81E0D9019C91911101C080E0DF915C
:10318000CF911F910F91FF90EF9008954F925F9212
:103190006F927F928F929F92AF92BF92CF92DF9267
:1031A000EF92FF920F931F93CF93DF93CDB7DEB7CC
:1031B000C954D1090FB6F894DEBF0FBECDBF5C0174
:1031C0006B013A01490119A218A287E692E09F8F8C
:1031D0008E8F1BA21C821B829A8389831E822A9651
:1031E0001FAE1EAE2A978B017E018EE1E80EF11C08
:1031F00044244394AE01455C5F4FBE01685B7F4F42
:10320000C5010E948318582E482F44259401BE0101
:10321000655C7F4FC801F3010995811120C00C1531
:103220001D05C9F480E0C75BDF4F0FB6F894DEBF21
:103230000FBECDBFDF91CF911F910F91FF90EF9007
:10324000DF90CF90BF90AF909F908F907F906F90C6
:103250005F904F900895C8010E948621E3CF5520CA
:1032600091F021E0AE01455C5F4FB801C7010E94BB
:10327000C122582E0C151D0571F0C8010E9486212F
:1032800051100EC0CFCF0C151D0519F0C8010E94BA
:10329000862181E0C8CF882329F28E010F5F1F4F5E
:1032A000902F812F8701E92EF82EA4CF0F931F9323
:1032B000CF93DF93EC01162F8FA5882321F0CE0149
:1032C0008A960E948621412F61E0CE010E94231C34
:1032D000811102C090E012C08E01045F1F4F41E0D7
:1032E000BE01C8010E94E828882371F0B801CE0110
:1032F0008A960E94111F91E0882361F3892FDF9144
:10330000CF911F910F91089540E0BE01C8010E9426
:10331000E8288823F9F2EACFFC01DB0112968D91AF
:103320009C9113979383828387E692E091838083B5
:1033300014968C911497848315968C911597858398
:1033400016964D915D916D917C91199746835783A7
:10335000608771871A964D915D916D917C911D9753
:1033600042875387648775871E964D915D916D9155
:103370007C91519746875787608B718B52968C91C1
:103380005297828B53964D915D916D917C9156979A
:10339000438B548B658B768B57964D915D916D91D8
:1033A0007C915A97478B508F618F728F5B968D916E
:1033B0009C91948F838F08954F925F926F927F922A
:1033C0008F929F92AF92BF92CF92DF92EF92FF9235
:1033D0000F931F93CF93DF93CDB7DEB7C754D109B7
:1033E0000FB6F894DEBF0FBECDBF5C014A013901B4
:1033F000665D7F4F7E018EE1E80EF11CC7010E94E1
:103400008C191C821B8287E692E09A8389831E8234
:103410008401FE0131966F015E2C4F2C6FE270E04B
:10342000C8010E94B23B009709F455C0F801208101
:103430002F3219F40F5F1F4FF1CF801B8D3008F032
:103440008CE0E82EF12CA701B801CE01CB960E94AA
:10345000C43BEBE3F0E0EC0FFD1FEE0DFF1D10820F
:10346000C6010E94862121E0AE01455C5F4F652DBB
:10347000742DC6010E94C122811121C0F501138261
:10348000128287E692E0918380831582C501C95B31
:10349000DF4F0FB6F894DEBF0FBECDBFDF91CF91E7
:1034A0001F910F91FF90EF90DF90CF90BF90AF9062
:1034B0009F908F907F906F905F904F9008950E0D2A
:1034C0001F1D852D942D0E948621C2015C2C4D2C40
:1034D000C92ED82EA3CF08191909F301118300832F
:1034E000652D742DC5010E948C19D0CFAF92BF926B
:1034F000CF92DF92FF920F931F93CF93DF93CDB7BD
:10350000DEB7C955D1090FB6F894DEBF0FBECDBFE7
:103510006C015B018A01F22E9E01285A3F4FCE01B9
:10352000CB960E94DC196A968EAD9FAD6A97080F04
:10353000191FF8018081811110C0BE01655C7F4FA9
:10354000CE0101960E948C1941E652E0BE016F5FE8
:103550007F4FC6010E94A3170FC019A218A287E6C9
:1035600092E09F8F8E8F1BA221968FAD21978111A4
:1035700015C0C6010E94D817C601C75ADF4F0FB643
:10358000F894DEBF0FBECDBFDF91CF911F910F9199
:10359000FF90DF90CF90BF90AF900895825082301F
:1035A000F8F4B501665D7F4F2F2DA801CE014E9630
:1035B0000E94C1228823E9F28F2D867041F049A92B
:1035C0005AA96BA97CA9CE014E960E94A920BE01E2
:1035D000625E7F4FCE0101960E948C19A801B6CF82
:1035E0002F2DA801BE01655C7F4FCE014E960E9433
:1035F000C122882309F4BDCFCE01CB960E9486213B
:10360000DBCFFB01BC01665D7F4F30E020E046E58B
:1036100058E1CF010C94C618E9E3F9E0158216824F
:103620001186138682E090E0A0E0B0E08487958761
:10363000A687B78713A215A614A687E692E093A7DC
:1036400082A717A608959FB7F8942091900B8091B8
:103650008E0B213019F48DBB9FBF08958FBF089545
:103660002091900B222381F03FB7F8942091900B8A
:10367000213069F42DB320938E0B4DB320918F0B25
:10368000209524232DBB3FBF8CBD9DBD0895309355
:103690008E0BFACF8EBD00000DB407FEFDCF8EB5A8
:1036A00008958FEF0C944A1B61E0FC0184810E9415
:1036B000053780918209882339F010928209809120
:1036C000900B81110C94231B0895CF93DF93EC0191
:1036D00080918209811109C081E0809382098091E3
:1036E0008309909184090E94301B60E08C81DF91F6
:1036F000CF910C940537CF93DF93EC018E81882313
:1037000089F08F8198859C012F5F3F4F38872F83E9
:103710008230924018F40E94511BF3CFCE010E94D8
:10372000541B1E82DF91CF910895673028F026E167
:10373000FC01258380E00895623079F038F0643030
:10374000A9F090F06530A1F082E508C080E5809393
:10375000830981E080938409089580E5809383093B
:103760001092840981E0089581E5F1CF81E5F6CFDB
:1037700082E5EDCF0F931F93CF93DF93EB010E9470
:10378000EA358B010E94511B8F3F69F00E94EA3598
:10379000601B710B6C177D07A8F380E0DF91CF9160
:1037A0001F910F91089581E0F9CF8F929F92AF9270
:1037B000BF92FF920F931F93CF93DF93EC01F62EEE
:1037C00049015A010E947B1BCE010E94651B6CE2DD
:1037D00071E0CE010E94BA1B8F2D80640E944A1BAB
:1037E00008E110E0D501C401002E04C0B695A795EC
:1037F000979587950A94D2F70E944A1B08501109A1
:10380000083F8FEF180771F785E9FF2021F088E066
:10381000F8120DC087E80E944A1B10E00E94511B5D
:103820008A8787FF06C01F3F21F01F5FF7CF8FEF0A
:10383000F2CFDF91CF911F910F91FF90BF90AF908A
:103840009F908F9008958F929F92AF92BF92EF9228
:10385000FF920F931F93CF93DF93EC01E62E1B860D
:1038600019861E821D824C830E94EA358B0161E01D
:103870008C810E94C93661E08C810E9405370E94CC
:10388000082A82E58093830981E0809384098091EE
:103890008309909184090E94301B2AE0F22E8FEF59
:1038A0000E944A1BFA94F110FACF8091900B81117B
:1038B0000E94231BCE010E94651B20E030E0A9017D
:1038C00060E0CE010E94D51BF82E8A8781E0F816B1
:1038D000C1F00E94EA35601B710B613D774068F3CF
:1038E00081E08D83CE010E94541B80E0DF91CF9157
:1038F0001F910F91FF90EF90BF90AF909F908F908E
:1039000008952AEA31E040E050E068E0CE010E94EC
:10391000D51B82FF25C0FB868B85812C912C540101
:10392000823029F4812C912CA12C80E4B82E20E047
:1039300030E0A90167E3CE010E94D51BA5019401E7
:1039400069E2CE010E94D51B8A878823C1F00E94BC
:10395000EA35601B710B613D774048F388E0C1CFC9
:1039600094E0F92E0E94511B8A87FA94F110FACF45
:103970008A3A11F082E0B5CF82E08B87CDCF8B857C
:103980008230C1F420E030E0A9016AE3CE010E9458
:10399000D51B882311F086E0A4CF0E94511B807CA8
:1039A000803C11F483E08B870E94511B0E94511BC5
:1039B0000E94511BCE010E94541B6E2DCE01DF913F
:1039C000CF911F910F91FF90EF90BF90AF909F907C
:1039D0008F900C94951B0F931F93CF93DF93EC0163
:1039E0000E94EA358B010E94511B8A878F3F91F418
:1039F0000E94EA35601B710B6D327140A0F38FE0BD
:103A00008D83CE010E94541B80E0DF91CF911F91E6
:103A10000F9108958E3F11F08DE0F2CF81E0F5CF48
:103A2000CF92DF92EF92FF920F931F93CF93DF938A
:103A3000EC016901C801820F931F8130924048F563
:103A40008E81882371F088819981AA81BB81841736
:103A50009507A607B70729F48F819885C816D90658
:103A600070F5488359836A837B838B85833039F073
:103A700089E0440F551F661F771F8A95D1F79A0179
:103A8000AB0161E1CE010E94D51B882379F083E070
:103A90008D83CE010E94541B80E0DF91CF911F9156
:103AA0000F91FF90EF90DF90CF900895CE010E948C
:103AB000EB1C882371F318861F8281E08E838F812F
:103AC00098858C159D0560F06701E00EF11EEC14E1
:103AD000FD0471F00E94511BF60181936F01F7CF35
:103AE0000E94511B8F819885019698878F83E7CF1D
:103AF0008F819885080F191F18870F838985882360
:103B000019F00115124018F0CE010E947B1B81E0D4
:103B1000C4CFEF92FF920F931F930115110539F057
:103B20000E94101D1F910F91FF90EF90089581E06A
:103B3000F9CFEF92FF920F931F93790100E012E00B
:103B400030E020E00E94101D1F910F91FF90EF9038
:103B50000895EF92FF920F931F93CF93DF938C0101
:103B6000862F7A010E944A1BE7018EEFF81A89918D
:103B70000E944A1BCE15DF05D1F78FEF0E944A1B2A
:103B80008FEF0E944A1B0E94511BF80182878F71A0
:103B9000853069F081E18583C8010E94541B80E073
:103BA000DF91CF911F910F91FF90EF90089581E0E9
:103BB000F7CF0F931F93CF93DF93EC01890182E13D
:103BC000411551056105710599F08B85833039F0F8
:103BD00089E0440F551F661F771F8A95D1F79A0118
:103BE000AB0168E1CE010E94D51B882339F084E047
:103BF0008D83CE010E94541B80E023C0A8016EEF8C
:103C0000CE010E94A91D8823A1F368E572E0CE01D0
:103C10000E94BA1B811102C085E1EACF20E030E0AA
:103C2000A9016DE0CE010E94D51B882311F084E12B
:103C3000DFCF0E94511B8111FACFCE010E94541B8D
:103C400081E0DF91CF911F910F910895E3E8F9E0B2
:103C500080E5808381E0818308950895CF93DF9389
:103C6000EC019C012A5F3F4F41E050E060E070E0D2
:103C70008B8D9C8D0E9487278823A1F08F89988D3A
:103C8000A98DBA8D892B8A2B8B2B59F48E819F811C
:103C9000A885B9858F8B988FA98FBA8F8C81806802
:103CA0008C8381E0DF91CF9108958F929F92AF92A4
:103CB000BF92CF92DF92EF92FF92CF93DF93EC010E
:103CC0000E942E1E81110CC080E0DF91CF91FF90E9
:103CD000EF90DF90CF90BF90AF909F908F9008951E
:103CE000EB8DFC8DCE80DF80E884F98482E0C81AF9
:103CF000D108E108F108858504C0CC0CDD1CEE1C60
:103D0000FF1C8A95D2F786859785A089B189C80E50
:103D1000D91EEA1EFB1E848146015701880E911CA4
:103D2000A11CB11C8C149D04AE04BF0461F081E0A1
:103D3000881A9108A108B108C501B4010E94D525CF
:103D40008111F0CFC1CFEB8DFC8D258580E092E015
:103D5000A0E0B0E004C0880F991FAA1FBB1F2A95DE
:103D6000D2F74B895C896D897E89840F951FA61FC8
:103D7000B71F8B8B9C8BAD8BBE8B81E0A6CFCF9377
:103D8000DF93EC01462F6E857F85888999890E9493
:103D90009A25882351F08A8920E2829FC00111244C
:103DA0008257964FDF91CF91089590E080E0FACF4F
:103DB000FB019B01255F3F4F40E241932E173F07D8
:103DC000E1F7DC0120E037E09D91492F992319F1BB
:103DD0009E3229F43A3059F028E03AE0F5CFE6E88F
:103DE000F1E08491882329F031969813FACF80E08E
:103DF00017C03217A8F05FED590F5E3588F48FE9D0
:103E0000890F8A3110F440EE490FFB01E20FF11DDA
:103E100040832F5FD9CF81E0FB019081903239F34D
:103E200008950F931F93CF93DF93FC0125812223E5
:103E300031F080E0DF91CF911F910F9108958B01B8
:103E4000EC01FB018789803139F582E08D831F8A7F
:103E5000188E198E1A8E808D918DB0E0A0E025E02D
:103E6000880F991FAA1FBB1F2A95D1F78B8B9C8B9C
:103E7000AD8BBE8B1C8F0B8F81E08C831E821F82CB
:103E8000188619861A861B861C861D861E861F8626
:103E9000188A198A1A8ACECF803259F683E08D8328
:103EA000428D538D648D758D4F8B588F698F7A8FAE
:103EB0009E012D5E3F4FC8010E947A268111DACF04
:103EC000B8CF2F923F924F925F926F927F928F92D4
:103ED0009F92AF92BF92CF92DF92EF92FF920F9399
:103EE0001F93CF93DF93EC015B012A018D81811138
:103EF00015C08FEF9FEFDF91CF911F910F91FF9032
:103F0000EF90DF90CF90BF90AF909F908F907F9079
:103F10006F905F904F903F902F9008958C8180FF1D
:103F2000E8CF0B891C892D893E894A855B856C8584
:103F30007D85C201B0E0A0E068017901C41AD50A0C
:103F4000E60AF70AC816D906EA06FB0618F428019D
:103F5000441A550A42011E0126E0220E311C81142A
:103F6000910409F4B3C04A855B856C857D856A013F
:103F700081E0D8228B8D9C8D8A019B01E9E03695EA
:103F8000279517950795EA95D1F7ED81E230E1F590
:103F9000FC01628D738D848D958D600F711F821F62
:103FA000931F612C22E0722E6C187D0886149704F2
:103FB00008F434012C8126FD04C06114F2E07F0670
:103FC00071F4009108011091090120910A013091CA
:103FD0000B01061717072807390709F053C040E0FF
:103FE0000E949A25882309F484CFC6018257964FF0
:103FF000D5019C01260D371DFC012E173F0709F442
:1040000060C041914D93F9CFFC0174807A94702285
:10401000C114D10471F471100CC0452B462B472BF1
:1040200039F58F89988DA98DBA8D8E839F83A88746
:10403000B987EB8DFC8D6E817F8188859985625073
:10404000710981099109258504C0660F771F881FB2
:10405000991F2A95D2F70685178520893189600F27
:10406000711F821F931F670D711D811D911D99CFB7
:104070004E815F816885798591010E94F9258111C2
:10408000D8CF37CF750183019601AB01BC01809178
:104090008C0990918D090E94891D882309F429CFEC
:1040A000A60CB71C8A859B85AC85BD85860D971DA2
:1040B000A11DB11D8A879B87AC87BD87861897088D
:1040C0004ECF281B390BA20EB31EECCFC20113CF6B
:1040D000FF920F931F93CF93DF931F92CDB7DEB75D
:1040E000FC0125812230C8F08C014285538564850E
:1040F000758585E076956795579547958A95D1F7AB
:10410000F42FFF70FF2E41E050E0BE016F5F7F4F44
:10411000C8010E94611F019719F090E080E012C071
:10412000F80182859385A485B5854F96A11DB11DA3
:1041300082879387A487B587F0E2FF9EC001112490
:104140008257964F0F90DF91CF911F910F91FF9063
:1041500008958F929F92AF92BF92CF92DF92EF928B
:10416000FF920F931F93CF93DF93EC018D81811109
:104170000EC080E0DF91CF911F910F91FF90EF90E3
:10418000DF90CF90BF90AF909F908F9008950B8954
:104190001C892D893E89041715072607370748F320
:1041A0004A015B01823031F48A869B86AC86BD86EB
:1041B00081E0E0CF81149104A104B10449F41E828E
:1041C0001F82188619861A861B861C861D86F0CFCC
:1041D0000A851B852C853D85EB8DFC8D858590E0C2
:1041E0000996B901A8014150510961097109082EC8
:1041F00004C076956795579547950A94D2F775014F
:104200006401E1E0CE1AD108E108F10804C0F69497
:10421000E794D794C7948A95D2F7C416D506E606D4
:10422000F70620F0012B022B032B11F58F89988DB7
:10423000A98DBA8D8E839F83A887B9878E010A5F67
:104240001F4FC114D104E104F10409F4ADCF4E8134
:104250005F816885798598018B8D9C8D0E94F925F9
:1042600091E0C91AD108E108F1088111EACF81CFA4
:10427000C41AD50AE60AF70AE1CF0F931F93CF932A
:10428000DF93EC018D818823D9F18C8187FF32C0C7
:1042900061E0CE010E94BF1E8C01892B89F18D81C6
:1042A000823048F48B899C89AD89BE89F801848F5E
:1042B000958FA68FB78F8F89988DF801938F828FF6
:1042C0008F89988DA98DBA8DB58BA48BE0918509C6
:1042D000F0918609309759F0B8016A5E7F4FC801A6
:1042E00048960995F801808D918D938B828B8C81F6
:1042F0008F778C83DF91CF911F910F910C945F2565
:1043000080E0DF91CF911F910F910895CF93DF93BC
:10431000EC010E943D21882311F01D8281E0DF9194
:10432000CF9108954F925F926F927F928F929F925A
:10433000AF92BF92EF92FF920F931F93CF93DF93B1
:1043400000D000D0CDB7DEB7FC0185818130A1F06F
:1043500080E00F900F900F900F90DF91CF911F9101
:104360000F91FF90EF90BF90AF909F908F907F90B4
:104370006F905F904F900895848181FFE9CF83898A
:104380009489A589B68984179507A607B70700F30E
:10439000892B8A2B8B2B09F477C04A015B017F01A3
:1043A0004284538464847584CF010E94A9208823A9
:1043B00079F2F701838D948D81149104A104B104E5
:1043C00049F54789508D618D728D0E94922888230E
:1043D00009F4BECFF701178A108E118E128EF701E5
:1043E000838A948AA58AB68A848180688483C70177
:1043F0000E943D21882309F4ABCFB501A4014416E6
:1044000055066606770610F4B301A201C7010E94A3
:10441000A9209FCF46815781608571859E012F5FBE
:104420003F4F0E94F925882309F492CFF701838D2D
:10443000948D49815A816B817C81FC0127892031CF
:10444000F1F408EF1FEF20E030E04017510762075A
:10445000730728F60E949228882309F479CFF70180
:1044600046815781608571850FEF1FEF2FEF3FE089
:10447000838D948D0E94E5268111B1CF69CF08EF1D
:104480001FEF2FEF3FE0E1CF81E063CFCF92DF92CC
:10449000EF92FF921F93CF93DF93EC0180E2689F2E
:1044A000F0011124E257F64F9385917161F0842F4A
:1044B000827449F080E0DF91CF911F91FF90EF90DF
:1044C000DF90CF900895142F6A8B8091080190910E
:1044D0000901A0910A01B0910B018E879F87A88BDB
:1044E000B98BC488D588F12CE12C7601DD24CC244D
:1044F000CF8AD88EE98EFA8E828D938DB0E0A0E0BF
:10450000AC01BD014C295D296E297F294F8B588F45
:10451000698F7A8F8385887129F5848D958DA68D15
:10452000B78D8B8B9C8BAD8BBE8B81E08D83812F68
:104530008F708C831E821F82188619861A861B86AE
:104540001C861D8681E016FFB6CF40E050E0BA0120
:10455000CE01DF91CF911F91FF90EF90DF90CF9030
:104560000C949221803109F0A5CF9E012D5E3F4F22
:104570008B8D9C8D0E947A26882309F49BCF84E042
:10458000D5CFBF92CF92DF92EF92FF920F931F93FE
:10459000CF93DF93CDB7DEB72B970FB6F894DEBF7E
:1045A0000FBECDBFFC01358131110BC0C22E8B0176
:1045B0007C01BE016F5F7F4FCA010E94D81E81112E
:1045C00002C080E0A1C0F801838D948DF701948F23
:1045D000838FF80116821782108611861286138641
:1045E00014861586B12CF80182859385A485B5853E
:1045F000438954896589768984179507A607B70783
:1046000088F525E0B695A795979587952A95D1F7D2
:10461000F82FFF70DF2EC8010E946820009789F2F2
:10462000FC012081222341F0253E09F059C0BB2026
:1046300029F0BB24B394D7CFB1100EC0F701D28AB2
:10464000409108015091090160910A0170910B019C
:1046500046875787608B718BFC0180818111E9CF80
:10466000BB24B3948C2D8271823109F0AACFBB2078
:1046700009F45AC061E0C7010E94BF1E8C01892B5A
:1046800009F49FCF80E2F80111928A95E9F78BE057
:10469000FE013196D80101900D928A95E1F7E091E3
:1046A0008509F0918609309709F44EC0B801625F20
:1046B0007F4FC80140960995F80180899189938BB5
:1046C000828B918F808F86859785978B868B0E94B2
:1046D0005F25882309F475CF4C2DF701628911C03D
:1046E0004BE050E0BC01CE0101960E949C3B892B1F
:1046F00009F079CF8C2D80734C2D6D2D803309F40A
:1047000060CFC7010E9446222B960FB6F894DEBFF9
:104710000FBECDBFDF91CF911F910F91FF90EF9012
:10472000DF90CF90BF900895F8018581823009F421
:1047300048CFC8010E94551E882309F442CFF701D3
:10474000128A0EE819E09ECF81E298E2F801918B7F
:10475000808B80E098E097878687AECF2F923F923C
:104760004F925F926F927F928F929F92AF92BF9281
:10477000CF92DF92EF92FF920F931F93CF93DF932D
:1047800000D000D0CDB7DEB78C016B011A01DC017F
:1047900015968C911597813009F0C8C014968C91AC
:1047A00081FFC4C082FDAEC04101D8011A964D916F
:1047B0005D916D917C911D978114910409F429C13B
:1047C0005B968D919C915C97FC0174802FEF270D77
:1047D0002A013B0139E076946794579447943A95BF
:1047E000D1F7722E74207A01F1E0FF22711020C0FF
:1047F000E114F104E9F416964D915D916D917C916F
:104800001997411551056105710509F098C0579632
:104810008D919D910D90BC91A02D0097A105B105A2
:1048200009F0AFC0C8010E942E1E882309F47EC083
:1048300080E092E08E199F0954018815990508F4CB
:104840005C01D8015B964D915C915C9716968D91B9
:104850009D910D90BC91A02D0297A109B109FA017B
:10486000258504C0880F991FAA1FBB1F2A95D2F760
:104870004685578560897189840F951FA61FB71FCC
:104880009C01AD01270D311D411D511D29013A012A
:10489000A11432E0B30609F07AC08091080190912A
:1048A0000901A0910A01B0910B0184159505A60597
:1048B000B70559F48FEF9FEFDC01809308019093C7
:1048C0000901A0930A01B0930B019601B301A20163
:1048D00080918C0990918D090E94D91D882331F116
:1048E0009EEFD91A8A189B08F80182859385A485C2
:1048F000B5858A0D9B1DA11DB11D82879387A48755
:10490000B58753CFF80143895489658976898285B3
:104910009385A485B585481759076A077B0709F46D
:1049200043CFC8010E94A92081113ECF81E090E0D1
:10493000D80113969C938E93129780E007C09E0136
:104940002F5F3F4F0E94F925811102C090E07BC08C
:1049500089819A81AB81BC81F801238D348DF90165
:10496000278948EF5FEF60E070E0203121F048EFE9
:104970005FEF6FEF7FE084179507A607B70708F092
:1049800051CFF80186839783A087B18751CFE11477
:10499000F10491F5D8011A964D915D916D917C913C
:1049A0001D9753968D919D910D90BC91A02D481708
:1049B00059076A077B0700F10E945F25882309F4E5
:1049C000B5CF409208015092090160920A0170929D
:1049D0000B0180918B09816080938B09970122578D
:1049E000364FD601C9018A0D9B1DF9018E179F070D
:1049F00059F04D914193FACF41E0C301B2010E94B9
:104A00009A258111EBCF92CF821B930BC80ED91E32
:104A100069CF14968C9114975396CD90DD90ED90BC
:104A2000FC905697C416D506E606F70618F5F80169
:104A3000438B548B658B768B80688483F8018481EB
:104A400083FD25C0C1010F900F900F900F90DF9153
:104A5000CF911F910F91FF90EF90DF90CF90BF907B
:104A6000AF909F908F907F906F905F904F903F900E
:104A70002F9008952091850930918609232BF1F21A
:104A800021143104D9F2806814968C93D7CFC801D1
:104A90000E943D21882309F449CFD4CFCF93DF93DF
:104AA0001F92CDB7DEB7698341E050E0BE016F5F72
:104AB0007F4F0E94AE230F90DF91CF910895809198
:104AC0008B098823A9F14091080150910901609157
:104AD0000A0170910B012EE839E080918C099091C8
:104AE0008D090E94D91D811102C080E00895409176
:104AF0008709509188096091890970918A09411547
:104B000051056105710591F02EE839E080918C091D
:104B100090918D090E94D91D882339F3109287093D
:104B2000109288091092890910928A0910928B09B3
:104B300081E00895CF92DF92EF92FF92CF936B01C5
:104B40007C01C42F8091080190910901A0910A0174
:104B5000B0910B018C159D05AE05BF05F9F00E94C3
:104B60005F25811107C080E0CF91FF90EF90DF902B
:104B7000CF9008952EE839E0B701A60180918C0905
:104B800090918D090E94991D882369F3C0920801B4
:104B9000D0920901E0920A01F0920B0140918B0939
:104BA0004C2B40938B0981E0DFCFCF92DF92EF92C5
:104BB000FF926B017C010E945F258823A9F0EEE83B
:104BC000F9E011928BE0EE38F807D9F7C0920801AE
:104BD000D0920901E0920A01F0920B0180918B09B9
:104BE000816080938B0981E0FF90EF90DF90CF9000
:104BF00008958F929F92AF92BF92CF92DF92EF92E1
:104C0000FF920F931F93CF93DF93FC0181859285D1
:104C1000A385B4850196A11DB11D84179507A6072C
:104C2000B70770F480E0DF91CF911F910F91FF9053
:104C3000EF90DF90CF90BF90AF909F908F900895AE
:104C400083889488A588B6888789803189F5BB27B1
:104C5000A72F962F852FE9016A017B018F01BC01E7
:104C6000CD01680D791D8A1D9B1D809008019090D3
:104C70000901A0900A01B0900B0186169706A806BC
:104C8000B90601F5F8018789803111F5DD24EE249C
:104C9000FF24F601EE0FFF1FE257F64F808191814E
:104CA000B0E0A0E088839983AA83BB8381E0BBCF77
:104CB000DB01CA01C7E0B695A79597958795CA9578
:104CC000D1F7C9CF40E00E949A258111DBCFAACF4E
:104CD000E894C7F8DD24EE24FF24F601EE0FFF1F51
:104CE000EE0FFF1FE257F64F80819181A281B381C1
:104CF000BF70D8CF4F925F926F927F92AF92BF9268
:104D0000CF92DF92EF92FF920F931F93CF93DF9397
:104D100000D000D0CDB7DEB78C0149835A836B83B6
:104D20007C835901C12CD12C7601412C82E0582E74
:104D3000612C712C49815A816B817C819E012F5F8E
:104D40003F4FC8010E94F925882339F1F801858574
:104D5000A301920104C0220F331F441F551F8A95DF
:104D6000D2F7DA01C901C80ED91EEA1EFB1E49811D
:104D70005A816B817C818789803111F188EF9FEFA7
:104D8000AFEFBFE0481759076A077B0798F2F501B4
:104D9000C082D182E282F38281E00F900F900F9067
:104DA0000F90DF91CF911F910F91FF90EF90DF90C7
:104DB000CF90BF90AF907F906F905F904F9008958D
:104DC00088EF9FEFA0E0B0E0DDCF4F925F926F924F
:104DD0007F928F929F92AF92BF92CF92DF92EF928B
:104DE000FF920F931F93CF93DF93EC014230510555
:104DF0006105710590F480E0DF91CF911F910F91D3
:104E0000FF90EF90DF90CF90BF90AF909F908F90EA
:104E10007F906F905F904F90089589859A85AB85BC
:104E2000BC850196A11DB11D84179507A607B7077C
:104E300010F3CB88DC88ED88FE888F89803109F0FB
:104E400042C0BB27A72F962F852F480159012A0161
:104E50003B01C80ED91EEA1EFB1E809108019091ED
:104E60000901A0910A01B0910B01C816D906EA0602
:104E7000FB0699F58F898031C1F5B301A201552751
:104E800066277727440F551F4257564FFA019182E4
:104E9000808280918B09816080938B098A8982301E
:104EA00080F08D819E81AF81B8858C0D9D1DAE1DDA
:104EB000BF1D8093870990938809A0938909B093B7
:104EC0008A0981E099CFDB01CA01E7E0B695A79591
:104ED00097958795EA95D1F7B8CF40E0C701B6011D
:104EE0000E949A258111C6CF86CFB301A2014F77C8
:104EF000552766277727440F551F440F551F4257E4
:104F0000564FFA0180829182A282B382C2CF2F9241
:104F10003F924F925F926F927F928F929F92AF9249
:104F2000BF92CF92DF92EF92FF920F931F93CF9396
:104F3000DF93CDB7DEB72F970FB6F894DEBF0FBE65
:104F4000CDBF3C01488759876A877B873F832E8383
:104F5000D901CD90DD90ED90FC90C114D104E10415
:104F6000F10439F0BFEFCB1ADB0AEB0AFB0A1D8212
:104F700010C0FC01C080D180E280F380F1E0FD83AD
:104F8000088519852A853B850130110521053105E4
:104F900071F7F30181859285A385B4858C019D010C
:104FA0000F5F1F4F2F4F3F4F0C871D872E873F8767
:104FB00046015701212C312C2101F3018185928575
:104FC000A385B485281639064A065B0608F044C056
:104FD0000C851D852E853F85081519052A053B057D
:104FE00050F482E0882E912CA12CB12C92E0C92E95
:104FF000D12CE12CF12C9E012F5F3F4FB501A40174
:10500000C3010E94F925882339F1D501C401019615
:10501000A11DB11D49815A816B817C81452B462B95
:10502000472BA9F5AC01BD014C195D096E097F093B
:10503000088519852A853B85401751076207730744
:1050400041F50FEF1FEF2FEF3FE0B501A401C301C2
:105050000E94E526811125C01D828D812F960FB6F5
:10506000F894DEBF0FBECDBFDF91CF911F910F919E
:10507000FF90EF90DF90CF90BF90AF909F908F9078
:105080007F906F905F904F903F902F9008956C01AC
:105090007D011FEF211A310A410A510A4C015D01BD
:1050A0008CCFC814D904EA04FB0488F41401250148
:1050B00021E0221A31084108510895018401B2010A
:1050C000A101C3010E94E52652014101C3CFAE8177
:1050D000BF814D915D916D917C91411551056105A7
:1050E000710561F4EE81FF81C082D182E282F38298
:1050F000FD81F1110BC001E00D83AFCF9701860157
:10510000C3010E94E5268111EDCFA6CF1FEFC11A82
:10511000D10AE10AF10AD301CD92DD92ED92FC921F
:1051200013979BCFAF92BF92CF92DF92EF92FF92F5
:105130000F931F93CF93DF9300D000D0CDB7DEB78E
:105140005C016A017B0182E090E0A0E0B0E0F50143
:1051500080839183A283B3839E012F5F3F4FB7016A
:10516000A601C5010E94F925882381F100E010E025
:105170009801B701A601C5010E94E526882331F1F7
:10518000C980DA80EB80FC80F50187898031C9F025
:1051900088EF9FEFAFEFBFE0C816D906EA06FB061F
:1051A000D8F281E00F900F900F900F90DF91CF9188
:1051B0001F910F91FF90EF90DF90CF90BF90AF9035
:1051C000089588EF9FEFA0E0B0E0E6CF80E0EACF5F
:1051D0008F929F92AF92BF92CF92DF92EF92FF9207
:1051E0000F931F93CF93DF93EC01142F70938D09CE
:1051F00060938C09442309F478C0453070F080E056
:10520000DF91CF911F910F91FF90EF90DF90CF90A2
:10521000BF90AF909F908F90089540E060E070E065
:10522000CB010E949A25882351F3812F8150990B3D
:10523000AC0164E0440F551F6A95E1F74257564FA1
:10524000FA01E254FE4F80818F77C9F63C96808147
:105250009181A281B38184369105A105B10578F2CF
:105260004A535E4FFA01C080D180E280F380C114BE
:10527000D104E104F10419F240E0C701B6010E9433
:105280009A25882309F4BBCF8091990990919A09B6
:105290008115924009F0B3CF90919E09992309F4AA
:1052A000AECF20919C0930919D09232B09F4A7CF03
:1052B00080919B09882309F4A2CF9A8B8C831D8649
:1052C00090E041E050E02D85E22FBA01022E02C0AD
:1052D000660F771F0A94E2F78617970751F031E0BF
:1052E000320F3D87283078F38ACFC12CD12C76013C
:1052F000C3CF2091A4093091A50950E040E02115C9
:10530000310541F42091B2093091B3094091B409BB
:105310005091B5092D833E834F83588780919C0916
:1053200090919D0946015701880E991EA11CB11C40
:105330008B8A9C8AAD8ABE8A00919F091091A00930
:10534000198F088FA0919E09B0E00E946D39DC0191
:10535000CB01880D991DAA1DBB1D8A8F9B8FAC8F19
:10536000BD8F25E0000F111F2A95E1F701501E4F58
:10537000012F11270695800F911FA11DB11D8E874A
:105380009F87A88BB98B0091A1091091A20930E0E9
:1053900020E00115110541F40091AE091091AF090B
:1053A0002091B0093091B109C81AD90AEA0AFB0A5A
:1053B000C00ED11EE21EF31E04C0F694E794D794EB
:1053C000C794EA95D2F7C986DA86EB86FC868CE02C
:1053D00025EFC2162FE0D206E104F10440F085EF7C
:1053E000C8168FEFD806E104F10420F480E18F8B1A
:1053F00081E006CF8091BA099091BB09A091BC09C8
:10540000B091BD098A8F9B8FAC8FBD8F80E2EFCFAB
:10541000CF93CFB7F8948091910B811127C0EAED1B
:10542000F1E08491EAEBF1E09491E82FF0E0EE0FE7
:10543000FF1FE65FFD4FA591B491EC91E92321F4A4
:1054400061E084E00E94053761E084E00E94C93693
:105450008CB580618CBD8CB580648CBD61E087E0CB
:105460000E94C93661E085E00E94C9368091910BA7
:105470008F5F8093910BCFBFCF910895CF93DF9330
:10548000EC016A818A8D9B8D0E947D148A8D9B8D93
:105490000E940515282F30E02115310511F084E810
:1054A000898F81E0232B09F080E0DF91CF9108956F
:1054B000CF92DF92EF92FF920F931F93CF93DF93E0
:1054C000EC01F62EE42EC52E462F6A818A8D9B8D27
:1054D0000E94FF148F111FC0DE2C0E2D1C2D802F5B
:1054E0008D198F1568F48A8D9B8DDC01ED91FC91EF
:1054F0000284F385E02D0995F80181938F01EFCFA8
:10550000198E81E0DF91CF911F910F91FF90EF9065
:10551000DF90CF90089582E8898F80E0F3CFDC019F
:10552000ED91FC910190F081E02D09940F931F9370
:10553000CF93DF93EC018B016A818A8D9B8D0E9452
:105540007D14612F70E08A8D9B8D0E948F2AB80197
:1055500077278A8D9B8D0E948F2A8A8D9B8D0E9432
:105560000515882341F081E8898F80E0DF91CF9194
:105570001F910F910895198E81E0F8CFFC0183E708
:1055800092E0918380836283538F428F14821582CD
:1055900016821782108E178A168A158A138214862D
:1055A000158616861786108A118A128A138A148A1B
:1055B000118E0895CF93DC01ED91FC910280F3816F
:1055C000E02D61110FC062EA70E30995C82F8823AE
:1055D00031F061E070E080E090E00E941B368C2F9B
:1055E000CF91089566E070E0F0CFFC019281945471
:1055F000923020F460E0CF010C94DA2A80E0089524
:10560000FB018FEF21E3442369F09191892798E012
:1056100087FF06C0880F82279150D1F74150F3CF02
:10562000880FFACF0895EF92FF920F931F93CF93B5
:10563000DF9300D000D000D0CDB7DEB78C01E62ECE
:10564000DC01ED91FC910480F581E02DAE014F5F0E
:105650005F4F66E00995F82E882381F0E1102BC09A
:10566000EB8042E0BE016F5F7F4FC8010E94002BBC
:10567000E81691F085E8F801818FF12C8F2D2696A0
:105680000FB6F894DEBF0FBECDBFDF91CF911F9153
:105690000F91FF90EF900895EE8042E0BE016C5FA5
:1056A0007F4FC8010E94002BE81629F086E8D80138
:1056B00059968C93E2CF898190E0982F88272A8190
:1056C000820F911DF801908F878B8C8190E0982F2D
:1056D00088272D81820F911D968B858B0E94EA353C
:1056E000D80114966D937D938D939C931797C6CF95
:1056F0001F93CF93DF93EC01162FE881F98102808D
:10570000F381E02D60E074E2112311F066E174E2B0
:10571000CE010995882399F06FE070E080E090E079
:10572000112321F064E070E080E090E00E941B36DD
:10573000612FCE01DF91CF911F910C94132B80E04C
:10574000DF91CF911F910895FC01608352AF41AF6B
:1057500088E0818389E19CEFAFEFBFEF8283938381
:10576000A483B58386839783A087B187938B828B2D
:1057700010AA11AA12AA13AA14AA15AA16AA17AA3D
:10578000128613861486158616861786108A118A45
:1057900081E080AF0895CF93DF93EC01688189ADFC
:1057A0009AAD0E947D1489AD9AAD0E94051591E0D5
:1057B000811190E0892FDF91CF9108958F929F9270
:1057C000AF92BF92CF92DF92EF92FF92FC0186845C
:1057D0009784A088B18862817381848195810E94B9
:1057E00006382AE037ED43E25CE30E94B6386B01ED
:1057F0007C0120E030E0A901C501B4010E94C93755
:10580000882341F0A5019401C701B6010E945D37CC
:105810006B017C01C701B601FF90EF90DF90CF9044
:10582000BF90AF909F908F9008958F929F92AF926C
:10583000BF92CF92DF92EF92FF92FC018284938419
:10584000A484B58466817781808591850E9406381D
:105850002AE037ED43E25CE30E94B6386B017C013D
:1058600020E030E0A901C501B4010E94C9378823B6
:1058700041F0A5019401C701B6010E945D376B019B
:105880007C01C701B601FF90EF90DF90CF90BF90F1
:10589000AF909F908F9008951F93CF93DF93EC016B
:1058A000162F0E948F35688189AD9AAD0E947D14B4
:1058B00089AD9AADDC01ED91FC910190F081E02D74
:1058C000612F099589AD9AAD0E94051590E09B8BDB
:1058D0008A8BDF91CF911F9108958F929F92AF9203
:1058E000BF92CF92DF92EF92FF921F93CF93DF93FD
:1058F000CDB7DEB72A970FB6F894DEBF0FBECDBF87
:105900004D30B0F14CE018EF140F212F220F620F31
:105910000E944C2C8AE0ECE0F1E0DE01119601904F
:105920000D928A95E1F7412F50E0440F551F81E019
:1059300090E08C0F9D1F480F591FFA01C080D18045
:105940000E94F6354B015C01F12CE12C0E94F635EA
:10595000681979098A099B096C157D058E059F05D3
:1059600058F40E948F358AE090E00E945436EECFC2
:10597000483048F648E0C7CF2A960FB6F894DEBF05
:105980000FBECDBFDF91CF911F91FF90EF90DF90C1
:10599000CF90BF90AF909F908F9008950F931F93DB
:1059A000CF93DF93683038F090E080E0DF91CF91C3
:1059B0001F910F910895EC01660F60560E944C2CC8
:1059C0008A899B89892B81F742E0688189AD9AADEC
:1059D0000E94FF14823040F389AD9AADDC01ED9155
:1059E000FC910284F385E02D099500E0182F89AD24
:1059F0009AADDC01ED91FC910284F385E02D0995CF
:105A0000800F911FD3CF8F929F92AF92BF92CF9270
:105A1000DF92EF92FF92CF93DF93EC0160E00E9460
:105A20004C2C8A899B89892B71F060E070E0CB0156
:105A3000DF91CF91FF90EF90DF90CF90BF90AF902C
:105A40009F908F90089543E0688189AD9AAD0E9440
:105A5000FF14833050F389AD9AADDC01ED91FC91D8
:105A60000284F385E02D0995092E000CAA0BBB0BCF
:105A70005C019924882489AD9AADDC01ED91FC91FB
:105A80000284F385E02D09956C01990FEE08FF085B
:105A9000FE2CED2CDC2CCC24C80CD91CEA1CFB1CE5
:105AA00089AD9AADDC01ED91FC910284F385E02D86
:105AB0000995BC01990F880B990B6C0D7D1D8E1DEE
:105AC0009F1DB6CF4F925F926F927F928F929F925F
:105AD000AF92BF92CF92DF92EF92FF920F931F93FC
