:100000000C9411010C943B010C943B010C943B01AA
:100010000C943B010C943B010C943B010C943B0170
:100020000C943B010C943B010C943B010C943B0160
:100030000C943B010C9472020C943B010C943B0118
:100040000C943B010C943B010C94A63D0C943B0199
:100050000C94F1380C9427390C943B010C943B011F
:100060000C943B010C943B010C94C71D0C943B0178
:100070000C9488390C94BE390C943B010C943B01D0
:100080000C943B010C943B010C943B0100407A1012
:10009000F35A00A0724E18090010A5D4E80000E839
:1000A0007648170000E40B54020000CA9A3B000097
:1000B00000E1F505000080969800000040420F0026
:1000C0000000A08601000000102700000000E803E7
:1000D000000000006400000000000A0000000000B2
:1000E0000100000000002C76D888DC674F0823DF71
:1000F000C1DFAE59E1B1B796E5E3E453C63AE65144
:10010000997696E8E6C28426EB898C9B62ED407C6A
:100110006FFCEFBC9C9F40F2BAA56FA5F490055A06
:100120002AF75C936B6CF9676DC11BFCE0E40D472B
:10013000FEF520E6B500D0ED902E0300943577054E
:100140000080841E080000204E0A000000C80C3306
:100150003333330F986E12831141EF8D2114893B95
:10016000E65516CFFEE6DB18D1844B381BF77C1D15
:10017000901DA4BBE424203284725E228100C9F168
:1001800024ECA1E53D277C3C3E5E2B3D3F2F5B5D93
:100190003B2C2A225C000000000203000A0B000036
:1001A0000000050409080000000000000000000035
:1001B000000000000000010204081020408001023D
:1001C0000408102040800102040810204080010231
:1001D000040810204080020202020202020204040B
:1001E00004040404040403030303030303030101DD
:1001F0000101010101010000200023002600290067
:1002000000002200250028002B000000210024000F
:1002100027002A008702DC1CE022FA255B39F2392C
:100220009F0211241FBECFEFD0E4DEBFCDBF13E08D
:10023000A0E0B1E0ECE8FDE800E00BBF02C00790F1
:100240000D92A239B107D9F72DE0A2E9B3E001C0C0
:100250001D92A83FB207E1F711E0C0E1D1E004C070
:100260002197FE010E946F41CA30D107C9F70E9451
:10027000973D0C94B9460C940000DC01ED91FC9183
:100280000190F081E02D09940CB405FC0DC09EBDD9
:1002900000000DB407FEFDCF9EB58EBD00000DB46D
:1002A00007FEFDCF8EB508958EBD00000DB407FE8C
:1002B000FDCF8EB59EBD00000DB407FEFDCF9EB5EF
:1002C0000895982F92959F708F702AE0929F800DCD
:1002D000112408952F923F924F925F926F927F92D6
:1002E0008F929F92AF92BF92CF92DF92EF92FF9246
:1002F0000F931F93CF93DF93CDB7DEB760970FB601
:10030000F894DEBF0FBECDBF1B012C013A0149019D
:100310001E870D87F88AEF861CE3E12EF12C00E0A2
:1003200010E0C201A80197010E944D41D5016C93D4
:10033000CA01B901A80197010E944D41F6016083ED
:10034000C201B10120E13EE040E050E00E944D4199
:10035000CA01B90128E130E040E050E00E944D417F
:10036000AF85B8896C93C201B10120E831E541E065
:1003700050E00E944D4182EB97E0F301918380832E
:10038000E0E9F1E094E6C92ED12CD3010D911C9146
:100390007801B3E0EB22FF24E114F10431F4C80149
:1003A000B6010E943941892B99F4C801BF010E940E
:1003B0003941892B69F08DE691E02817390758F00B
:1003C000281B390B0F5F1F4FD3010D931C93DDCFFB
:1003D0008EE691E0F2CF8CE0ECE0F1E0DE011196E8
:1003E00001900D928A95E1F7EF2839F4C80164E68F
:1003F00070E00E943941892B39F4C80160E971E04D
:100400000E943941892B11F48DE18A8381E0F40146
:100410008083D4018C91FE01E80FF11D408150E0F2
:100420002417350728F0241B350B8F5F8C93F1CFF1
:100430002F5FED85FE85208360960FB6F894DEBFB2
:100440000FBECDBFDF91CF911F910F91FF90EF9025
:10045000DF90CF90BF90AF909F908F907F906F90E4
:100460005F904F903F902F900895CF93DF93C8EC0B
:10047000D0E08AEF90E00E945A3E61E08FE00E9457
:10048000CF3E61E08FE00E940B3F8AEF90E00E9438
:100490005A3E61E08FE00E94CF3E60E08FE00E9414
:1004A0000B3F219731F7C8ECD0E084EB90E00E943D
:1004B0005A3E61E08FE00E94CF3E61E08FE00E94F3
:1004C0000B3F84EB90E00E945A3E61E08FE00E9477
:1004D000CF3E60E08FE00E940B3F219731F7DF9124
:1004E000CF9108951F920F920FB60F9211248F9300
:1004F000809194038F5F80939403109285001092F3
:1005000084008F910F900FBE0F901F90189562E29C
:1005100071E08FEA99E00E94A13B63E571E089EA0E
:1005200099E00E94A13B6EE971E083EA99E00E94A4
:10053000A13B6EE971E089E999E00C94A13B89E95E
:1005400099E00E942F3B83EA99E00E942F3B89EAC1
:1005500099E00E942F3B8FEA99E00C942F3BCF93B8
:10056000DF9361E570E085EB99E00E945B1C70E031
:1005700060E085EB99E00E943D0185EB99E00E94E7
:10058000D91C46E061E585EB99E00E94D31C85EB20
:1005900099E00E94CE1B0E94610180939D0385EB30
:1005A00099E00E94CE1B8F770E946101D82F85EBC6
:1005B00099E00E94CE1B8F770E946101C82F85EBC6
:1005C00099E00E94CE1B0E94610190E0B0E0A0E0A3
:1005D00080939E0390939F03A093A003B093A103E5
:1005E00085EB99E00E94CE1B0E94610124E6829F68
:1005F000C0011124092E000CAA0BBB0B40919E03D5
:1006000050919F036091A0037091A103840F951FE7
:10061000A61FB71F80939E0390939F03A093A003F0
:10062000B093A10385EB99E00E94CE1B0E9461016B
:1006300040E157E2849F9001859F300D1124032EE5
:10064000000C440B550B80919E0390919F03A09149
:10065000A003B091A103280F391F4A1F5B1FA0E11F
:10066000BEE00E948741AB01BC012CE3C29FC001E8
:100670001124092E000CAA0BBB0B8D0F911DA11D7F
:10068000B11D840F951FA61FB71F80939E039093E3
:100690009F03A093A003B093A103DF91CF9108958E
:1006A0004F925F926F927F928F929F92AF92BF9282
:1006B000CF92DF92EF92FF920F931F93CF93DF932E
:1006C000CDB7DEB761970FB6F894DEBF0FBECDBFD2
:1006D0004C010E94AF0280919E0390919F03A091D4
:1006E000A003B091A1038093990390939A03A093E0
:1006F0009B03B0939C0340909503509096036090A9
:10070000970370909803411451046104710409F433
:1007100050C1480E591E6A1E7B1E4091950950918A
:10072000960960919709709198098C019D01041BAD
:10073000150B260B370B0E871F87288B398B9E01D5
:10074000275F3F4F5901CE010A966C018E01055F6C
:100750001F4F78010F5F1F4F2C5F3F4FAE01495F66
:100760005F4FC301B2010E946A0164E671E0C401F7
:100770000E94343D4091990350919A0360919B03EC
:1007800070919C032AE0CE0101960E94453CBE0177
:100790006F5F7F4FC4010E942D3DCE0101960E94E4
:1007A0002F3B6FED72E0C4010E94343D40919503F0
:1007B0005091960360919703709198032AE0CE01BF
:1007C00001960E94453CBE016F5F7F4FC4010E94AD
:1007D0002D3DCE0101960E942F3B6FED72E0C401CA
:1007E0000E94343D2AE0B301A201CE0101960E948D
:1007F000453CBE016F5F7F4FC4010E942D3DCE017D
:1008000001960E942F3B6FED72E0C4010E94343DBF
:100810002AE04E855F8568897989CE0101960E941C
:10082000453CBE016F5F7F4FC4010E942D3DCE014C
:1008300001960E942F3B6FED72E0C4010E94343D8F
:100840006F8178854AE0CE0101960E94193CBE0175
:100850006F5F7F4FC4010E942D3DCE0101960E9423
:100860002F3B6DE671E0C4010E94343D8D858A30D6
:1008700028F46FE671E0C4010E94343D4AE06D85C2
:10088000CE0101960E94C03BBE016F5F7F4FC40145
:100890000E942D3DCE0101960E942F3B6DE671E036
:1008A000C4010E94343D8C858A3028F46FE671E0E3
:1008B000C4010E94343D4AE06C85CE0101960E943D
:1008C000C03BBE016F5F7F4FC4010E942D3DCE0132
:1008D00001960E942F3B61E771E0C4010E94343D04
:1008E0008B858A3028F46FE671E0C4010E94343DA4
:1008F0004AE06B85CE0101960E94C03BBE016F5F4E
:100900007F4FC4010E942D3DCE0101960E942F3BD6
:1009100063E771E0C4010E94343D8A858A3028F47F
:100920006FE671E0C4010E94343D4AE06A85CE0161
:1009300001960E94C03BBE016F5F7F4FC4010E94C1
:100940002D3DCE0101960E942F3B63E771E0C4016B
:100950000E94343D89858A3028F46FE671E0C40135
:100960000E94343D4AE06985CE0101960E94C03B59
:10097000BE016F5F7F4FC4010E942D3DCE010196E5
:100980000E942F3B61960FB6F894DEBF0FBECDBF1D
:10099000DF91CF911F910F91FF90EF90DF90CF905B
:1009A000BF90AF909F908F907F906F905F904F908F
:1009B00008951E861F86188A198AC1CECF93DF93A9
:1009C000CDB7DEB7C459D1090FB6F894DEBF0FBE5C
:1009D000CDBF88E19FE00FB6F894A89580936000A2
:1009E0000FBE9093600061E083E10E940B3F60E0E6
:1009F00082E10E940B3F61E082E00E94CF3E61E015
:100A000082E00E940B3F61E084E10E94CF3E61E002
:100A100084E10E940B3F6EE971E0CE0181579F4F48
:100A20000E94A13B0E94AF0265E771E0CE018157B1
:100A30009F4F0E94343D60919F097091A0094AE048
:100A4000CE0101960E94193CBE016F5F7F4FCE011F
:100A500081579F4F0E942D3DCE0101960E942F3B52
:100A60006FED72E0CE0181579F4F0E94343D40915F
:100A70009E0350919F036091A0037091A1032AE00F
:100A8000CE0101960E94453CBE016F5F7F4FCE01B3
:100A900081579F4F0E942D3DCE0101960E942F3B12
:100AA00064E072E0CE0181579F4F0E94343D4AE0DE
:100AB00060919D03CE0101960E94C03BBE016F5F15
:100AC0007F4FCE0181579F4F0E942D3DCE01019651
:100AD0000E942F3B6FED72E0CE0181579F4F0E9425
:100AE000343D45EB59E064E4CE01885A9F4F0E94A3
:100AF0009232CE01885A9F4F0E94C93261E0CE01E6
:100B0000885A9F4F0E944C33E1966EAD7FADE197BE
:100B100090E080E00E940A402FEA30E04FE25BE381
:100B20000E94BC4020E030E044E352E40E94623F77
:100B3000AB01BC0121E0CE0101960E94A13CBE01A7
:100B40006F5F7F4FCE0181579F4F0E942D3DCE0199
:100B500001960E942F3B6FED72E0CE0101960E943C
:100B6000A13BBE016F5F7F4FCE0181579F4F0E9417
:100B70002D3DCE0101960E942F3BAF966EAD7FAD0D
:100B8000AF9790E080E00E940A4028EC30E048EC0B
:100B90005AE30E94BC40AB01BC0121E0CE010196AA
:100BA0000E94A13CBE016F5F7F4FCE0181579F4FD6
:100BB0000E942D3DCE0101960E942F3B6FED72E009
:100BC000CE0101960E94A13BBE016F5F7F4FCE0117
:100BD00081579F4F0E942D3DCE0101960E942F3BD1
:100BE00045EB59E065E4CE01CC960E949232CE01ED
:100BF000CC960E94C93261E0CE01CC960E944C3363
:100C000065966EAD7FAD659790E080E00E940A40EA
:100C10002FEA30E04FE25BE30E94BC4020E030E08E
:100C200044E352E40E94623FAB01BC0121E0CE01EB
:100C300001960E94A13CBE016F5F7F4FCE0181579C
:100C40009F4F0E942D3DCE0101960E942F3B6FEDDC
:100C500072E0CE0101960E94A13BBE016F5F7F4F03
:100C6000CE0181579F4F0E942D3DCE0101960E94DB
:100C70002F3B63966EAD7FAD639790E080E00E945E
:100C80000A4028EC30E048EC5AE30E94BC40AB013B
:100C9000BC0121E0CE0101960E94A13CBE016F5F24
:100CA0007F4FCE0181579F4F0E942D3DCE0101966F
:100CB0000E942F3B6FED72E0CE0101960E94A13B96
:100CC000BE016F5F7F4FCE0181579F4F0E942D3D28
:100CD000CE0101960E942F3B45EB59E067E7CE011C
:100CE00001960E947833CE0101960E94A2376A8154
:100CF000CE0101960E943635CE0101960E94B23394
:100D0000AB01BC0122E0CE018C589F4F0E94A13C58
:100D1000BE016C587F4FCE0181579F4F0E942D3DE1
:100D2000CE018C589F4F0E942F3B6FED72E0CE0199
:100D30008C589F4F0E94A13BBE016C587F4FCE0143
:100D400081579F4F0E942D3DCE018C589F4F0E948E
:100D50002F3BCE0101960E94E933AB01BC0122E09A
:100D6000CE018C589F4F0E94A13CBE016C587F4F12
:100D7000CE0181579F4F0E942D3DCE018C589F4F31
:100D80000E942F3B61E084E10E94CF3E60E084E15D
:100D90000E940B3F61E082E00E94CF3E60E082E073
:100DA0000E940B3F0FB6F894A8958091600088616F
:100DB00080936000109260000FBEBE0161577F4FAC
:100DC0008DE49DE00E947C3A80910701882371F1B7
:100DD00064E087E59AE00E942A216BE771E08823AE
:100DE00009F443C04091A3095091A40923E167E5A8
:100DF0007AE0CE018C589F4F0E944A22CE018C5837
:100E00009F4F0E941E20882371F1BE0161577F4FC2
:100E1000CE018C589F4F0E947C3ACE018C589F4F38
:100E20000E940C2061E084E00E940B3F61E082E1BF
:100E30000E940B3F60E083E10E940B3F61E070E0A5
:100E400080E090E00E94213ECE0181579F4F0E949A
:100E50002F3BCC56DF4F0FB6F894DEBF0FBECDBF91
:100E6000DF91CF9108956AE871E08DE49DE00E94E2
:100E70008E3A10920701D6CF4F925F926F927F9277
:100E8000AF92BF92CF92DF92EF92FF920F931F9398
:100E9000CF93DF93CDB7DEB7AD970FB6F894DEBF33
:100EA0000FBECDBF61E083E10E940B3F60E082E1B5
:100EB0000E940B3F0E94AF026EE971E0CE0188965E
:100EC0000E94A13B64E971E0CE0188960E94343D06
:100ED00060919F097091A0094AE0CE0101960E949D
:100EE000193CBE016F5F7F4FCE0188960E942D3D59
:100EF000CE0101960E942F3B6FED72E0CE018896E5
:100F00000E94343D60912F07709130074AE0CE0176
:100F100001960E94193CBE016F5F7F4FCE018896FB
:100F20000E942D3DCE0101960E942F3B8DEAE82EB6
:100F300083E0F82E94E0C92E96E0D92E21E3A22E6C
:100F400027E0B22E01E010E08091A9039091AA035E
:100F50000817190708F051C00C3221E0120709F4F4
:100F60004CC0F60181916F01F501419051905F01F4
:100F7000712C612C882331F0F7E94F0EF8E95F1EE0
:100F8000611C711C6CE971E0CE0188960E94343DB1
:100F90006FE971E0CE0188960E94343D2AE0B301EA
:100FA000A201CE0101960E94453CBE016F5F7F4FBA
:100FB000CE0188960E942D3DCE0101960E942F3BC6
:100FC0006FED72E0CE0188960E94343DF701619189
:100FD00071917F014AE0CE0101960E94193CBE0149
:100FE0006F5F7F4FCE0188960E942D3DCE01019606
:100FF0000E942F3B0F5F1F4FA7CF63EA71E0CE0126
:1010000088960E94343D60919F097091A0094AE042
:10101000CE0101960E94193CBE016F5F7F4FCE0149
:1010200088960E942D3DCE0101960E942F3B6FEDC8
:1010300072E0CE0188960E94343D40919E0350910B
:101040009F036091A0037091A1032AE0CE01019655
:101050000E94453CBE016F5F7F4FCE0188960E9483
:101060002D3DCE0101960E942F3B64E072E0CE013F
:1010700088960E94343D4AE060919D03CE0101961E
:101080000E94C03BBE016F5F7F4FCE0188960E94D9
:101090002D3DCE0101960E942F3B6FED72E0CE01F7
:1010A00088960E94343D8091940060919500762F3F
:1010B000682F4AE0CE0101960E94193CBE016F5F85
:1010C0007F4FCE0188960E942D3DCE0101960E9451
:1010D0002F3B6FED72E0CE0188960E94343D609107
:1010E000A9037091AA03615071094AE0CE010196EB
:1010F0000E94193CBE016F5F7F4FCE0188960E940F
:101100002D3DCE0101960E942F3B07E819E06FEDBF
:1011100072E0CE0188960E94343DF8016191719190
:101120008F014AE0CE0101960E94193CBE016F5F1B
:101130007F4FCE0188960E942D3DCE0101960E94E0
:101140002F3BF9E00F381F0711F7BE01685D7F4F95
:101150008DE49DE00E947C3A8091070161E0882344
:1011600009F4C3C08EE00E940B3F64E087E59AE07B
:101170000E942A216BE771E0882309F4AFC04091F7
:10118000A3095091A40923E167E57AE0CE01019615
:101190000E944A22CE0101960E941E20882309F453
:1011A0009BC0BE01685D7F4FCE0101960E947C3AD4
:1011B000CE0101960E940C2061E084E00E940B3F6A
:1011C00060E08EE00E940B3F60E08DE00E940B3FEC
:1011D00080919F099091A009893F9A4208F455C0D7
:1011E0001092A00910929F096091A1097091A20923
:1011F0006F5F7F4F7093A2096093A1094AE0CE010F
:101200004C960E94193CBE01645E7F4FCE01019650
:101210000E94893C6CEA71E0CE0101960E94693D12
:10122000BC0183EA99E00E94723CCE0101960E94C3
:101230002F3BCE014C960E942F3B80918F099091BD
:10124000900901969093900980938F0961EB71E06A
:101250008DE49DE00E94693A63EA79E08DE49DE0C7
:101260000E947C3A80910701882379F064E087E549
:101270009AE00E942A2181116DC06BE771E08DE434
:101280009DE00E948E3A1092070161E082E10E9487
:101290000B3F60E083E10E940B3F61E070E080E083
:1012A00090E00E94213ECE0188960E942F3BAD9691
:1012B0000FB6F894DEBF0FBECDBFDF91CF911F9167
:1012C0000F91FF90EF90DF90CF90BF90AF907F9005
:1012D0006F905F904F9008956AE871E08DE49DE013
:1012E0000E948E3A1092070167CF8DE00E940B3F5B
:1012F000CCA4DDA410E000E0FF24FA948DE10E946C
:10130000393F892B19F0FA94F110F8CF82E390E07D
:101310000E945A3E78012FEFE21AF20AB801CE017C
:1013200088960E94833DFC01608180EB9CE00E94D6
:10133000713ACE14DF0460F480EB9CE00E94783AAE
:10134000BE01685D7F4F8DE49DE00E947C3A38CFFE
:101350008701D2CF4091A3095091A40923E167E509
:101360007AE0CE0101960E944A22CE0101960E94A7
:101370001E20882309F456C069E979E0CE018296DF
:101380000E94893CCE0182960E9450036CEB71E072
:10139000CE0182960E94343D60918F097091900930
:1013A0004AE0CE014C960E94193CBE01645E7F4F1C
:1013B000CE0182960E942D3DCE014C960E942F3B7D
:1013C0006FED72E0CE0182960E94343D409191090A
:1013D0005091920960919309709194092AE0CE018D
:1013E0004C960E94453CBE01645E7F4FCE018296C2
:1013F0000E942D3DCE014C960E942F3BBE016E5D9A
:101400007F4FCE0101960E947C3ACE0101960E9448
:101410000C20CE0182960E942F3B61E084E00E9466
:101420000B3F33CF6AE871E08DE49DE00E948E3A75
:1014300010920701F2CF0F931F93CF93DF93C82F22
:1014400065E570E085EB99E00E945B1C0C2E000CBA
:10145000DD0BBE0185EB99E00E943D0185EB99E033
:101460000E94D91C41E050E065E570E085EB99E011
:101470000E94D61C85EB99E00E94CE1B8C0165E58D
:1014800070E085EB99E00E945B1CBE016F5F7F4FAF
:1014900085EB99E00E943D0185EB99E00E94D91C03
:1014A00041E050E065E570E085EB99E00E94D61CD4
:1014B00085EB99E00E94CE1B20E0382FC901800FF8
:1014C000911FDF91CF911F910F910895CF93DF93DB
:1014D000CDB7DEB7A1970FB6F894DEBF0FBECDBF74
:1014E00061E083E10E940B3F60E082E10E940B3FDC
:1014F0006EE971E0CE014C960E94A13B0E94AF02C2
:1015000065EC71E0CE014C960E94343D60919F09DC
:101510007091A0094AE0CE0101960E94193CBE01DB
:101520006F5F7F4FCE014C960E942D3DCE010196FC
:101530000E942F3B6FED72E0CE014C960E94343D2D
:1015400040919E0350919F036091A0037091A1036D
:101550002AE0CE0101960E94453CBE016F5F7F4F9D
:10156000CE014C960E942D3DCE0101960E942F3B4C
:1015700064E072E0CE014C960E94343D4AE06091F6
:101580009D03CE0101960E94C03BBE016F5F7F4F5D
:10159000CE014C960E942D3DCE0101960E942F3B1C
:1015A0006FED72E0CE014C960E94343D88E00E94BF
:1015B0001B0A4AE0BC01CE0101960E94ED3BBE0130
:1015C0006F5F7F4FCE014C960E942D3DCE0101965C
:1015D0000E942F3B6FED72E0CE014C960E94343D8D
:1015E0008AE00E941B0A4AE0BC01CE0101960E94DB
:1015F000ED3BBE016F5F7F4FCE014C960E942D3DAB
:10160000CE0101960E942F3B6FED72E0CE014C9609
:101610000E94343D84E00E941B0A4AE0BC01CE01D6
:1016200001960E94ED3BBE016F5F7F4FCE014C964D
:101630000E942D3DCE0101960E942F3B6FED72E07E
:10164000CE014C960E94343D86E00E941B0A4AE07F
:10165000BC01CE0101960E94ED3BBE016F5F7F4F42
:10166000CE014C960E942D3DCE0101960E942F3B4B
:101670006FED72E0CE014C960E94343D8CE00E94EA
:101680001B0ABC01990F880B990B0E940C402DEC92
:101690003CEC4CEC5DE30E94BC4023E333E948E8BA
:1016A00053E40E94623FAB01BC0122E0CE010196EF
:1016B0000E94D13CBE016F5F7F4FCE014C960E94CD
:1016C0002D3DCE0101960E942F3BBE01645E7F4FEF
:1016D0008DE49DE00E947C3A80910701882349F1C6
:1016E00064E087E59AE00E942A216BE771E0882395
:1016F000E9F14091A3095091A40923E167E57AE05B
:10170000CE0101960E944A22CE0101960E941E201F
:10171000882351F1BE01645E7F4FCE0101960E9485
:101720007C3ACE0101960E940C2061E084E00E9488
:101730000B3F61E082E10E940B3F60E083E10E9489
:101740000B3F61E070E080E090E00E94213ECE011E
:101750004C960E942F3BA1960FB6F894DEBF0FBEA9
:10176000CDBFDF91CF9108956AE871E08DE49DE0EF
:101770000E948E3A10920701D8CF109288091092D9
:10178000870910928A091092890910928C09109287
:101790008B0910928E0910928D0981E090E0909350
:1017A000AA038093A90361E087E10E940B3F60E0F8
:1017B00086E10E940B3F90E080E00E94440161E0DE
:1017C00086E10E940B3F1092850010928400909158
:1017D0009400809195008927982789279093300756
:1017E00080932F0710929403109293031092920308
:1017F00010E208E1B9E2FB2EC1E0D0E018993EC149
:10180000809194038230D0F38EE10E94393F892B7E
:1018100029F5A8ECCA2ED12C86E990E00E945A3E08
:1018200061E08FE00E94CF3E61E08FE00E940B3FBD
:1018300086E990E00E945A3E61E08FE00E94CF3E30
:1018400060E08FE00E940B3F41E0C41AD10821F70D
:101850008091A40391E089278093A40310929403BC
:10186000809193038F5F80939303809192038F5FA6
:10187000809392038BE10E94393F682F8DE00E9494
:101880000B3F8BE10E94393F892B09F48DC061E544
:1018900070E085EB99E00E945B1C67E285EB99E0C4
:1018A0000E94F11B60E085EB99E00E94F11B65E965
:1018B00070E085EB99E00E943D0185EB99E00E9484
:1018C000D91C68EB7BE080E090E00E94213EC8ECF0
:1018D000D0E08AEF90E00E945A3E61E08FE00E94E3
:1018E000CF3E61E08FE00E940B3F8AEF90E00E94C4
:1018F0005A3E61E08FE00E94CF3E60E08FE00E94A0
:101900000B3F219731F761E570E085EB99E00E948C
:101910005B1C67E285EB99E00E94F11B63E085EBBD
:1019200099E00E94F11B65E970E085EB99E00E9467
:101930003D0185EB99E00E94D91C6AE670E085EBD9
:1019400099E00E945B1C68E185EB99E00E94F11B25
:101950006AE085EB99E00E94F11B85EB99E00E941B
:10196000D91C68E873E180E090E00E94213EC8EC59
:10197000D0E08AEF90E00E945A3E61E08FE00E9442
:10198000CF3E61E08FE00E940B3F8AEF90E00E9423
:101990005A3E61E08FE00E94CF3E60E08FE00E94FF
:1019A0000B3F219731F7DDCF61E086E10E940B3FCD
:1019B00060E087E10E940B3F0FB6F894A895009372
:1019C00060000FBEF09260000E943C0710928809F0
:1019D0001092870910928A091092890910928C0935
:1019E00010928B0910928E0910928D09D093AA0340
:1019F000C093A903809192038E3120F0109292033C
:101A00000E94DE0480919303843B20F010929303A4
:101A10000E94660A61E087E10E940B3F60E086E178
:101A20000E940B3F90E080E00E94440161E086E16B
:101A30000E940B3F0FB6F894A895809160008861D2
:101A400080936000109260000FBE80919F0990917A
:101A5000A00901969093A00980939F091092850098
:101A60001092840090919400809195008927982786
:101A700089279093300780932F07C0CE60E086E1DE
:101A80000E940B3F90E080E00E9444012091A4035B
:101A9000222361F18430910560F12BB121272BB90C
:101AA0002091A9033091AA032C32E1E03E07B8F45B
:101AB0006091840070918500A901440F551FFA01BF
:101AC000E15DF84F7183608360919403F901ED5FEC
:101AD000F94F608345555C4FFA01918380832F5FF6
:101AE0003F4F3093AA032093A9030DC08430910582
:101AF000B8F6880F991FFC01E957F64F8081918154
:101B000001969183808361E086E10E940B3F76CE4F
:101B10000F931F93CF93DF93CDB7DEB7A1970FB687
:101B2000F894DEBF0FBECDBF082F162F61E570E021
:101B300085EB99E00E945B1C63E285EB99E00E94D3
:101B4000F11B60E085EB99E00E94F11B60E085EB02
:101B500099E00E94F11B65E085EB99E00E94F11B82
:101B600060E085EB99E00E94F11B60E085EB99E075
:101B70000E94F11B67E985EB99E00E94F11B60E090
:101B800085EB99E00E94F11B60E085EB99E00E94F3
:101B9000F11B85EB99E00E94D91C61E570E085EBB3
:101BA00099E00E945B1C6FE270E085EB99E00E9477
:101BB0003D016CE270E085EB99E00E943D0185EB10
:101BC00099E00E94D91C61E570E085EB99E00E94E4
:101BD0005B1C68E270E085EB99E00E943D0167E9DB
:101BE00070E085EB99E00E943D0185EB99E00E9451
:101BF000D91C61E570E085EB99E00E945B1C60E018
:101C000085EB99E00E94F11B60E085EB99E00E9472
:101C1000F11B60E085EB99E00E94F11B60E085EB31
:101C200099E00E94F11B60E085EB99E00E94F11BB6
:101C300060E085EB99E00E94F11B60E085EB99E0A4
:101C40000E94F11B85EB99E00E94D91C0E94AF0213
:101C50006CEC71E0CE014C960E94A13B40919E033A
:101C600050919F036091A0037091A1032AE0CE01DF
:101C700001960E94453CBE016F5F7F4FCE014C969E
:101C80000E942D3DCE0101960E942F3B64E072E040
:101C9000CE014C960E94343D4AE060919D03CE01F6
:101CA00001960E94C03BBE016F5F7F4FCE014C96F4
:101CB0000E942D3DCE0101960E942F3B65ED71E003
:101CC000CE014C960E94343D003130F46FE671E055
:101CD000CE014C960E94343D40E1602FCE0101962A
:101CE0000E94C03BBE016F5F7F4FCE014C960E94A9
:101CF0002D3DCE0101960E942F3B64EE71E0CE0196
:101D00004C960E94343D103130F46FE671E0CE0104
:101D10004C960E94343D40E1612FCE0101960E9415
:101D2000C03BBE016F5F7F4FCE014C960E942D3DA0
:101D3000CE0101960E942F3BBE01645E7F4F8DE471
:101D40009DE00E947C3A80910701882319F164E0AC
:101D500087E59AE00E942A218823E1F04091A309B7
:101D60005091A40923E167E57AE0CE0101960E9433
:101D70004A22CE0101960E941E20882359F0BE01FE
:101D8000645E7F4FCE0101960E947C3ACE0101969F
:101D90000E940C20CE014C960E942F3BA1960FB6BC
:101DA000F894DEBF0FBECDBFDF91CF911F910F9191
:101DB0000895CF93DF93D82FC62F6AE670E085EBA6
:101DC00099E00E945B1C6D2F85EB99E00E94F11B4E
:101DD0006C2F85EB99E00E94F11B85EB99E0DF9178
:101DE000CF910C94D91CCF93C82F6AE670E085EB95
:101DF00099E00E945B1C62E085EB99E00E94F11B78
:101E000060E671E085EB99E00E943D0185EB99E089
:101E10000E94D91C6AE670E085EB99E00E945B1C89
:101E200064E185EB99E00E94F11B66E285EB99E0A5
:101E3000CC2309F448C00E94F11B69E185EB99E0CD
:101E40000E94F11B60EA85EB99E00E94F11B66E5B8
:101E500085EB99E00E94F11B60E085EB99E00E9420
:101E6000F11B61E085EB99E00E94F11B85EB99E0A5
:101E70000E94D91C6AE670E085EB99E00E945B1C29
:101E80006AE185EB99E00E94F11B6FEB85EB99E02D
:101E90000E94F11B85EB99E00E94D91C6AE670E074
:101EA00085EB99E00E945B1C66E285EB99E00E945D
:101EB000F11B6CE885EB99E00E94F11B85EB99E042
:101EC000CF910C94D91C0E94F11B69E985EB99E034
:101ED0000E94F11B60E0B7CFCF93C82F61E570E09F
:101EE00085EB99E00E945B1C6C2F85EB99E00E94CA
:101EF000F11B85EB99E00E94D91C41E061E585EB7F
:101F000099E00E94D31C85EB99E00E94C71B892BA6
:101F100031F085EB99E00E94CE1BCF9108958FEFB1
:101F2000FCCF0F931F93CF93DF93CDB7DEB7A1976D
:101F30000FB6F894DEBF0FBECDBF87E00E946C0FD6
:101F4000182F88E20E946C0F082F807117FD02C0C5
:101F500081110FC0602F812F0E94880DA1960FB6AE
:101F6000F894DEBF0FBECDBFDF91CF911F910F91CF
:101F700008950E94AF026CEC71E0CE014C960E9475
:101F8000A13B40919E0350919F036091A0037091EB
:101F9000A1032AE0CE0101960E94453CBE016F5F7D
:101FA0007F4FCE014C960E942D3DCE0101960E949E
:101FB0002F3B64E072E0CE014C960E94343D4AE033
:101FC00060919D03CE0101960E94C03BBE016F5FF0
:101FD0007F4FCE014C960E942D3DCE0101960E946E
:101FE0002F3B6EEE71E0CE014C960E94343D1031D5
:101FF00030F46FE671E0CE014C960E94343D40E132
:10200000612FCE0101960E94C03BBE016F5F7F4FE2
:10201000CE014C960E942D3DCE0101960E942F3B91
:1020200064EE71E0CE014C960E94343D40E1602F99
:10203000CE0101960E94C03BBE016F5F7F4FCE0173
:102040004C960E942D3DCE0101960E942F3BBE0171
:10205000645E7F4F8DE49DE00E947C3A8091070191
:10206000882319F164E087E59AE00E942A218823F9
:10207000E1F04091A3095091A40923E167E57AE0DA
:10208000CE0101960E944A22CE0101960E941E2096
:10209000882359F0BE01645E7F4FCE0101960E94F5
:1020A0007C3ACE0101960E940C20CE014C960E94F3
:1020B0002F3B54CFCF93C82F6AE670E085EB99E0B1
:1020C0000E945B1C6C2F85EB99E00E94F11B60E085
:1020D00085EB99E00E945D1C41E06AE685EB99E0A2
:1020E0000E94D31C85EB99E00E94C71B892B31F01D
:1020F00085EB99E00E94CE1BCF91089580E0FCCF44
:10210000CF93DF93C82F6AE670E085EB99E00E94D9
:102110005B1C6C2F85EB99E00E94F11B60E085EB66
:1021200099E00E945D1C42E06AE685EB99E00E941E
:10213000D31C85EB99E00E94C71B02978CF085EBBE
:1021400099E00E94CE1BEC0185EB99E00E94CE1B2A
:1021500020E0382FC9018C2B9D2BDF91CF91089562
:1021600090E080E0FACF0F931F93CF93DF938C0121
:1021700086E10E945A10C82FD82FDF7D6D2F86E18F
:102180000E94D90E62E370E080E090E00E94213E60
:102190006D2F606486E10E94D90E68EC70E080E0EB
:1021A00090E00E94213E6C2F6F7986E10E94D90E4B
:1021B00064E170E080E090E00E94213E87E20E94AE
:1021C0005A10682F6F7E87E20E94D90E86E20E9425
:1021D0005A108F7C682F626C86E20E94D90E62E3EF
:1021E00070E080E090E00E94213E80E30E94801039
:1021F000969587959C013F70A7ECB0E00E947841CE
:1022000024E630E040E050E00E944D41F801318387
:10221000208381E0283B3B4008F480E0DF91CF91B0
:102220001F910F910895CF92DF92EF92FF920F933B
:102230001F93CF93DF93D82F7B01682F85EB99E015
:102240000E94511C60E085EB99E00E94F11B60E068
:1022500085EB99E00E94F11B85EB99E00E94D91C67
:10226000C0E085E3C82ED12C0C2F10E0A601401B46
:10227000510B4131510510F040E150E06D2F85EBDD
:1022800099E00E94D31C0E0D1F1D85EB99E00E9462
:10229000C71B892B59F0C533F8F485EB99E00E94F0
:1022A000CE1BCF5FF80181938F01EFCFC533A0F430
:1022B0006D2F85EB99E00E94511C60E085EB99E061
:1022C0000E94F11B6C2F85EB99E00E94F11B85EBBE
:1022D00099E00E94D91CC8CF81E0C53309F080E0A5
:1022E000DF91CF911F910F91FF90EF90DF90CF90F2
:1022F00008952F923F924F925F926F927F928F92AA
:102300009F92AF92BF92CF92DF92EF92FF920F9384
:102310001F93CF93DF93CDB7DEB7C75BD1090FB65D
:10232000F894DEBF0FBECDBF26E040E052EC61E086
:1023300070E080EB9CE00E949F3826E040E052EC89
:1023400061E070E08DE49DE00E949F3840EA56E82D
:1023500061E070E085EB99E00E944D1C6DEF71E04B
:102360008DE49DE00E948E3A60E08BE10E94CF3EBA
:1023700060E085E10E94CF3E60E08DE10E94CF3EAB
:1023800060E08EE10E94CF3E61E086E10E94CF3E98
:1023900061E087E10E94CF3E60E080E00E94CF3E96
:1023A00061E08FE00E94CF3E61E082E10E94CF3E7B
:1023B00061E082E10E940B3F61E082E00E94CF3E3B
:1023C00061E082E00E940B3F61E08AE10E94CF3E23
:1023D00061E08AE10E940B3F61E083E10E94CF3E11
:1023E00061E083E00E94CF3E61E084E00E94CF3E46
:1023F00060E085E00E94CF3E60E086E00E94CF3E34
:1024000061E087E00E94CF3E61E083E10E940B3FE4
:1024100061E084E00E940B3F60E087E00E940B3F98
:1024200064E670E080E090E00E94213E60E083E09E
:102430000E940B3F61E084E10E94CF3E60E084E1B6
:102440000E940B3F80E00E94F30E64E670E080E0A3
:1024500090E00E94213E82EA93E00E94B3108093B4
:1024600006010E94F30E8BE10E94393F61E0892B47
:1024700009F4DEC18CE00E94CF3E61E08DE00E9455
:10248000CF3E61E08EE00E94CF3E15E060E570E057
:1024900080E090E00E94213E61E08CE00E940B3FD2
:1024A00061E08DE00E940B3F61E08EE00E940B3FF7
:1024B00060E570E080E090E00E94213E60E08CE00A
:1024C0000E940B3F60E08DE00E940B3F60E08EE0D9
:1024D0000E940B3F1150D1F688E19FE00FB6F894AF
:1024E000A895809360000FBE909360006AE670E04C
:1024F00085EB99E00E945B1C6DE270E085EB99E052
:102500000E943D0185EB99E00E94D91C41E06AE6FA
:1025100085EB99E00E94D31C85EB99E00E94CE1BCD
:10252000A89568EE73E080E090E00E94213EA895B7
:1025300068EE73E080E090E00E94213EA89568EE8E
:1025400073E080E090E00E94213EA895912CC12C80
:10255000D12C760101E011E028EE222E23E0322E6C
:10256000412C512C8824839485E10E94393F3C0101
:102570000E94F03D112309F477C09B01AC012C1996
:102580003D094E095F09203931404105510518F0D8
:1025900098246B017C01692D8CE00E940B3F60E068
:1025A0008DE00E940B3F60E08EE00E940B3F60E7F1
:1025B00085EB99E00E94511C61E085EB99E00E9457
:1025C000F11B85EB99E00E94D91C41E060E785EBA7
:1025D00099E00E94D31C85EB99E00E94C71B892BD0
:1025E00009F45DC085EB99E00E94CE1B9C013695F5
:1025F000279582278170A895672809F052C0A89571
:10260000A895002339F1112309F4EBC060E084E1BF
:102610000E940B3F61E083E00E940B3F0E94350265
:1026200061E770E085EB99E00E945B1C60E085EB60
:1026300099E00E94F11B63E185EB99E00E94F11B98
:1026400085EB99E00E94D91C68EE73E080E090E091
:102650000E94213E8EE10E94393F00E0892B09F063
:1026600083CF182501E080CFA20191010E944D4146
:10267000BB24B3946A35710540F0645B7109BB24D7
:10268000B3946A35710508F0B12C60E08CE00E94CB
:102690000B3F6B2D8DE00E940B3F6B2D85CF81E0B2
:1026A000AACF8111ACCF6AE670E085EB99E00E9479
:1026B0005B1C6DE270E085EB99E00E943D0185EBCB
:1026C00099E00E94D91C41E06AE685EB99E00E94FE
:1026D000D31C85EB99E00E94CE1BA8958F778131A2
:1026E00008F08ECF8BE10E94393F682F8DE00E9469
:1026F0000B3F61E570E085EB99E00E945B1C68E2AE
:1027000070E085EB99E00E943D0165E970E085EBA2
:1027100099E00E943D0185EB99E00E94D91CA895A3
:1027200068EE73E080E090E00E94213EA89568EE9C
:1027300073E080E090E00E94213EA89568EE73E08F
:1027400080E090E00E94213EA89508EC10E08AEF1E
:1027500090E00E945A3E61E08FE00E94CF3E61E02F
:102760008FE00E940B3F8AEF90E00E945A3E61E0AA
:102770008FE00E94CF3E60E08FE00E940B3F01504F
:10278000110929F761E570E085EB99E00E945B1C77
:1027900067E285EB99E00E94F11B63E085EB99E02D
:1027A0000E94F11B65E970E085EB99E00E943D0114
:1027B00085EB99E00E94D91C6AE670E085EB99E010
:1027C0000E945B1C68E185EB99E00E94F11B6AE0C6
:1027D00085EB99E00E94F11B85EB99E00E94D91CE2
:1027E000FFCF61E084E10E940B3F61E08CE00E943A
:1027F000CF3E60E08CE00E940B3F0E94350261E713
:1028000070E085EB99E00E945B1C60E085EB99E04D
:102810000E94F11B60E185EB99E00E94F11B85EBC2
:1028200099E00E94D91C60E083E00E940B3F0CCF2E
:1028300084E10E94CF3E61E084E10E940B3F15E0FD
:1028400060E570E080E090E00E94213E61E08CE075
:102850000E94CF3E61E08CE00E940B3F60E570E09B
:1028600080E090E00E94213E60E08CE00E940B3FFF
:10287000115031F761E08CE00E940B3F08EC10E052
:1028800084EB90E00E945A3E61E08FE00E94CF3ED0
:1028900061E08FE00E940B3F84EB90E00E945A3E83
:1028A00061E08FE00E94CF3E60E08FE00E940B3F2E
:1028B0000150110929F7A89566E072E08DE49DE0CA
:1028C0000E948E3A60E087E10E940B3F61E086E162
:1028D0000E940B3F61E570E085EB99E00E945B1C74
:1028E00067E285EB99E00E94F11B63E085EB99E0DC
:1028F0000E94F11B67E985EB99E00E94F11B85EBD3
:1029000099E00E94D91CA89561E570E085EB99E0FB
:102910000E945B1C63E285EB99E00E94F11B60E082
:1029200085EB99E00E94F11B60E085EB99E00E9445
:10293000F11B65E085EB99E00E94F11B60E085EBFF
:1029400099E00E94F11B63E085EB99E00E94F11B86
:1029500067E985EB99E00E94F11B60E085EB99E067
:102960000E94F11B60E085EB99E00E94F11B85EB72
:1029700099E00E94D91C0FB6F894A8958091600048
:10298000886180936000109260000FBE88E199E238
:102990000FB6F894A895809360000FBE90936000E6
:1029A0000E94AF0280919E0390919F03A091A0038B
:1029B000B091A1038093990390939A03A0939B03F2
:1029C000B0939C036FE072E08DE49DE00E94693A51
:1029D0004091990350919A0360919B0370919C03DD
:1029E0002AE030E08DE49DE00E941D3B4E01F6E3BD
:1029F0008F0E911C85E3F40111928A95E9F7B401D9
:102A000080E50E941311882309F4F0C467968CAD09
:102A10009DADAEADBFAD6797809395039093960340
:102A2000A0939703B09398036B968CAD9DADAEAD1C
:102A3000BFAD6B978093950990939609A0939709E2
:102A4000B09398096AE172E08DE49DE00E94693AD2
:102A5000409195035091960360919703709198036C
:102A60002AE030E08DE49DE00E941D3B6DE272E0C3
:102A70008DE49DE00E94693A63964CAD5DAD6EAD0C
:102A80007FAD63972AE030E08DE49DE00E941D3B1E
:102A900060E472E08DE49DE00E94693A6B964CAD73
:102AA0005DAD6EAD7FAD6B972AE030E08DE49DE0CB
:102AB0000E941D3B6AE572E08DE49DE00E94693A48
:102AC0008401065F1F4F7401F4E1EF0EF11CF80161
:102AD00061918F01662339F08DE49DE00E94713A87
:102AE000E016F106A1F78DE49DE00E94783ABE0160
:102AF0006F5F7F4F85E3FB0111928A95E9F783E5CC
:102B00000E941311882309F488C469E772E08DE4F8
:102B10009DE00E94693A8E01055F1F4F7E01F5E13D
:102B2000EF0EF11CF80161918F01662339F08DE4FD
:102B30009DE00E94713AE016F106A1F78DE49DE058
:102B40000E94783A409095035090960360909703C6
:102B500070909803411451046104710409F464C431
:102B60008091990390919A03A0919B03B0919C034B
:102B7000480E591E6A1E7B1E6B964CAD5DAD6EAD48
:102B80007FAD6B978C019D01041B150B260B370B3A
:102B9000CC54DF4F088319832A833B83C45BD04026
:102BA0009E0121553F4F5901CE0180559F4F6C0129
:102BB000FE01EF54FF4F7F018E010E541F4F2C5F1B
:102BC0003F4FAE0143555F4FC301B2010E946A01FE
:102BD0006FE972E08DE49DE00E94693A2AE030E0FE
:102BE000CC54DF4F488159816A817B81C45BD040DE
:102BF0008DE49DE00E941D3B6AEA72E08DE49DE059
:102C00000E94693A2AE030E0B301A2018DE49DE020
:102C10000E941D3B6EEB72E08DE49DE00E94693ADC
:102C2000C355DF4F68817981CD5AD0404AE050E0EA
:102C30008DE49DE00E94173B6DE671E08DE49DE020
:102C40000E94693ACD54DF4F8881C35BD0408A30FF
:102C500030F46FE671E08DE49DE00E94693A4AE04D
:102C600050E0CD54DF4F6881C35BD0408DE49DE0E0
:102C70000E94FE3A6DE671E08DE49DE00E94693AA3
:102C8000CE54DF4F8881C25BD0408A3030F46FE68B
:102C900071E08DE49DE00E94693A4AE050E0CE5434
:102CA000DF4F6881C25BD0408DE49DE00E94FE3A18
:102CB00061E771E08DE49DE00E94693ACF54DF4FF7
:102CC0008881C15BD0408A3030F46FE671E08DE4DA
:102CD0009DE00E94693A4AE050E0CF54DF4F68819E
:102CE000C15BD0408DE49DE00E94FE3A63E771E055
:102CF0008DE49DE00E94693AC055DF4F8881C05B3A
:102D0000D0408A3030F46FE671E08DE49DE00E949F
:102D1000693A4AE050E0C055DF4F6881C05BD0405F
:102D20008DE49DE00E94FE3A63E771E08DE49DE052
:102D30000E94693AC155DF4F8881CF5AD0408A300E
:102D400030F46FE671E08DE49DE00E94693A4AE05C
:102D500050E0C155DF4F6881CF5AD0408DE49DE0EF
:102D60000E94053B6DEC72E0CE0185599F4F0E9499
:102D7000A13B69EA79E0CE0185599F4F0E94563DFB
:102D80006DED72E00E94693D6FEA79E00E94563D68
:102D90006FED72E00E94693DBC01CE0189559F4FE5
:102DA0000E94893CCE0185599F4F0E942F3B6BE5C5
:102DB00070E085EB99E00E945B1C68E070E085EBB9
:102DC00099E00E943D0170E060E085EB99E00E948F
:102DD0003D0185EB99E00E94D91C40E16BE585EB54
:102DE00099E00E94D31C10E185EB99E00E94CE1B74
:102DF000082F803138F46FE671E0CE0189559F4F7E
:102E00000E94343D40E1602FCE0185599F4F0E94C2
:102E1000C03BBE0165597F4FCE0189559F4F0E942F
:102E20002D3DCE0185599F4F0E942F3B1150E1F659
:102E300061EE72E0CE0189559F4F0E94343D68E5F6
:102E400070E085EB99E00E945B1C68E070E085EB28
:102E500099E00E943D0170E060E085EB99E00E94FE
:102E60003D0185EB99E00E94D91C40E168E585EBC6
:102E700099E00E94D31C10E185EB99E00E94CE1BE3
:102E8000082F803138F46FE671E0CE0189559F4FED
:102E90000E94343D61E082E00E94CF3E61E082E02A
:102EA0000E940B3F61E08AE10E94CF3E61E08AE12F
:102EB0000E940B3F40E1602FCE0185599F4F0E9439
:102EC000C03BBE0165597F4FCE0189559F4F0E947F
:102ED0002D3DCE0185599F4F0E942F3B115061F629
:102EE0006FED72E0CE0189559F4F0E94343D60E541
:102EF00070E085EB99E00E945B1C70E060E085EB80
:102F000099E00E943D0170E060E085EB99E00E944D
:102F10003D0185EB99E00E94D91C42E060E585EB1C
:102F200099E00E94D31C85EB99E00E94CE1B809310
:102F3000A60385EB99E00E94CE1B8093A50340E198
:102F40006091A603CE0185599F4F0E94C03BBE01F0
:102F500065597F4FCE0189559F4F0E942D3DCE016F
:102F600085599F4F0E942F3B40E16091A503CE0100
:102F700085599F4F0E94C03BBE0165597F4FCE01CE
:102F800089559F4F0E942D3DCE0185599F4F0E942C
:102F90002F3B67EF72E0CE0189559F4F0E94343D71
:102FA0008401065F1F4FF4E18F0E911CF8016191BF
:102FB0008F01662341F0CE0189559F4F0E94433D0A
:102FC0008016910699F764E073E0CE0189559F4F12
:102FD0000E94343D6BE570E085EB99E00E945B1C3C
:102FE00068E070E085EB99E00E943D0170E060E0F0
:102FF00085EB99E00E943D0185EB99E00E94D91C88
:1030000040E16BE585EB99E00E94D31C10E185EB74
:1030100099E00E94CE1B082F803138F46FE671E0F2
:10302000CE0189559F4F0E94343D40E1602FCE0173
:1030300085599F4F0E94C03BBE0165597F4FCE010D
:1030400089559F4F0E942D3DCE0185599F4F0E946B
:103050002F3B1150E1F66FED72E0CE0189559F4F85
:103060000E94343D63E570E085EB99E00E945B1CB3
:1030700070E060E085EB99E00E943D0170E060E067
:1030800085EB99E00E943D0185EB99E00E94D91CF7
:1030900042E063E585EB99E00E94D31C85EB99E063
:1030A0000E94CE1B8093A80385EB99E00E94CE1B63
:1030B0008093A70340E16091A803CE0185599F4FFB
:1030C0000E94C03BBE0165597F4FCE0189559F4F7D
:1030D0000E942D3DCE0185599F4F0E942F3B40E11C
:1030E0006091A703CE0185599F4F0E94C03BBE014E
:1030F00065597F4FCE0189559F4F0E942D3DCE01CE
:1031000085599F4F0E942F3B68E173E0CE0189559E
:103110009F4F0E94343D8E01055F1F4F7E01F5E1F8
:10312000EF0EF11CF80161918F01662341F0CE0191
:1031300089559F4F0E94433DE016F10699F765E2DD
:1031400073E0CE0189559F4F0E94343D4EA15FA18F
:1031500068A579A526E0CE0185599F4F0E94A13C24
:10316000BE0165597F4FCE0189559F4F0E942D3D6D
:10317000CE0185599F4F0E942F3B6FED72E0CE012B
:1031800089559F4F0E94343D4AA55BA56CA57DA53E
:1031900026E0CE0185599F4F0E94A13CBE01655992
:1031A0007F4FCE0189559F4F0E942D3DCE018559FD
:1031B0009F4F0E942F3B6FED72E0CE0189559F4FCC
:1031C0000E94343D4EA55FA568A979A926E0CE01ED
:1031D00085599F4F0E94A13CBE0165597F4FCE018A
:1031E00089559F4F0E942D3DCE0185599F4F0E94CA
:1031F0002F3B6FED72E0CE0189559F4F0E94343D09
:103200004AA95BA96CA97DA92AE0CE0185599F4FE7
:103210000E94453CBE0165597F4FCE0189559F4FA5
:103220000E942D3DCE0185599F4F0E942F3B6FE29A
:1032300073E0CE0189559F4F0E94343D8091060175
:103240006FE671E0882311F06BEF71E0CE018955D4
:103250009F4F0E94343D6FED72E0CE0189559F4F24
:103260000E94343D6091A2037091A3034AE0CE0115
:1032700085599F4F0E94193CBE0165597F4FCE0171
:1032800089559F4F0E942D3DCE0185599F4F0E9429
:103290002F3BBE0169557F4F89E999E00E94723C3E
:1032A000CE0189559F4F0E94500340929109509240
:1032B0009209609293097092940910929009109269
:1032C0008F096CEB71E0CE0189559F4F0E94343D10
:1032D00060918F09709190094AE0CE0185599F4F06
:1032E0000E94193CBE0165597F4FCE0189559F4F01
:1032F0000E942D3DCE0185599F4F0E942F3B6FEDBF
:1033000072E0CE0189559F4F0E94343D4091910952
:103310005091920960919309709194092AE0CE012D
:1033200085599F4F0E94453CBE0165597F4FCE0194
:1033300089559F4F0E942D3DCE0185599F4F0E9478
:103340002F3B60E082E10E940B3F64E087E59AE05A
:103350000E942A21811108C06BE771E08DE49DE095
:103360000E948E3A1092070181E090E09093A209AA
:103370008093A1096091A1097091A209683C71052F
:1033800008F05BC04AE0CE018A579F4F0E94193C6B
:10339000BE016A577F4FCE0185599F4F0E94893CDD
:1033A0006CEA71E0CE0185599F4F0E94693DBC01D6
:1033B00083EA99E00E94723CCE0185599F4F0E949A
:1033C0002F3BCE018A579F4F0E942F3B6091A3094C
:1033D0007091A40987E59AE00E94D522882369F1BB
:1033E0008091A1099091A2090196C0CF65E672E093
:1033F0008DE49DE00E948E3A109295031092960300
:1034000010929703109298031092950910929609C2
:1034100010929709109298096ACB64E872E08DE4E3
:103420009DE00E948E3A8ECBCC54DF4F18821982D9
:103430001A821B82C45BD040B3CB6091A10970910A
:10344000A2094AE0CE018A579F4F0E94193CBE0153
:103450006A577F4FCE0185599F4F0E94893C6CEA85
:1034600071E0CE0185599F4F0E94693DBC0183EAFE
:1034700099E00E94723CCE0185599F4F0E942F3BDC
:10348000CE018A579F4F0E942F3B15E060E570E008
:1034900080E090E00E94213E61E08DE00E94CF3EFE
:1034A00061E08DE00E940B3F60E570E080E090E01D
:1034B0000E94213E60E08DE00E940B3F115031F7E9
:1034C00061E08DE00E940B3F4091A3095091A40957
:1034D00023E167E57AE0CE018A579F4F0E944A2296
:1034E000CE018A579F4F0E94CE1F6B017C0168E37B
:1034F00073E08DE49DE00E94693A2AE030E0B70174
:10350000A6018DE49DE00E941D3BF1E8CF16F3E299
:10351000DF06F3E4EF06F10408F485C0CE018A5714
:103520009F4F0E940C206091A1097091A2096F5FCA
:103530007F4F7093A2096093A1094AE0CE018F5595
:103540009F4F0E94193CBE016F557F4FCE01855998
:103550009F4F0E94893C6CEA71E0CE0185599F4FD4
:103560000E94693DBC0183EA99E00E94723CCE0151
:1035700085599F4F0E942F3BCE018F559F4F0E9430
:103580002F3B4091A3095091A40923E167E57AE01C
:10359000CE0185599F4F0E944A22AF968EAD9FADB6
:1035A000AF97C857DF4F99838883C858D040E396B8
:1035B0008CAD9DADAEADBFADE397C657DF4F8883F1
:1035C0009983AA83BB83CA58D040E7968CAD9DAD42
:1035D000AEADBFADE797C257DF4F88839983AA830B
:1035E000BB83CE58D040ABE6B0E0AC0FBD1F1C96FD
:1035F000E6E8F0E0EC0FFD1F3C9686E890E08C0FCB
:103600009D1F49962D912193E817F907D9F7CC57BB
:10361000DF4F88819981C458D040C156DF4F9983CC
:103620008883CF59D04061EB71E08DE49DE00E942A
:10363000693A63EA79E08DE49DE00E947C3ACE012C
:103640008A579F4F0E941E20882309F494C0BE0110
:1036500069557F4FCE018A579F4F0E947C3ACE0119
:103660008A579F4F0E940C20BE0169557F4F8DE401
:103670009DE00E947C3A0E94910F61E082E10E94ED
:103680000B3F61E084E10E94CF3E60E084E10E9454
:103690000B3F15E060E570E080E090E00E94213E85
:1036A00061E08EE00E94CF3E61E08EE00E940B3F21
:1036B00060E570E080E090E00E94213E60E08EE0F6
:1036C0000E940B3F115031F760E08CE00E940B3FED
:1036D00060E08DE00E940B3F61E082E00E94CF3EFF
:1036E00060E082E00E940B3F0FB6F894A8958091AD
:1036F0006000886180936000109260000FBEF894B3
:10370000109280008DE08093810087E998E9909382
:10371000890080938800109285001092840082E0D6
:1037200080936F001092900085E08093910010923A
:103730009500109294007894CE0189559F4F0E9475
:103740002F3BC954DF4F0FB6F894DEBF0FBECDBF7D
:10375000DF91CF911F910F91FF90EF90DF90CF906D
:10376000BF90AF909F908F907F906F905F904F90A1
:103770003F902F9008956AE871E08DE49DE00E94EB
:103780008E3A1092070170CF90E080E0089580910A
:10379000E5099091E609891B990B08959091E60936
:1037A0008091E5092FEF3FEF981748F4E92FF0E0FB
:1037B000E951F64F208130E09F5F9093E609C901FF
:1037C0000895E091E6098091E509E81730F4F0E00A
:1037D000E951F64F808190E008958FEF9FEF0895B3
:1037E0000895CF93DF931F92CDB7DEB76983209101
:1037F000C1092223F9F02091C209203258F021E0BA
:1038000030E0FC013383228390E080E00F90DF9171
:10381000CF9108958091C309E82FF0E0EC53F64F63
:10382000998190838F5F8093C3098093C20981E05F
:1038300090E0ECCF61E0CE0101960E94901DF7CFA1
:10384000CF92DF92EF92FF920F931F93CF93DF936C
:103850007C01CB018A012091C109222389F0EB016F
:103860006B01C40ED51ECC15DD0569F06991D70139
:10387000ED91FC910190F081E02DC7010995F3CF06
:10388000642F0E94901DC801DF91CF911F910F916D
:10389000FF90EF90DF90CF900895CB01BA010C9488
:1038A000ED1C81E08093C1096093E4091092C30983
:1038B0001092C20908950C94511C0F93062F21E019
:1038C0004091C20964EC79E08091E4090E94401DB6
:1038D0001092C3091092C2091092C1090F91089564
:1038E0004F925F926F927F92AF92BF92CF92EF9280
:1038F000FF920F931F93CF93DF935C01F62ED42F8B
:1039000028013901EE2019F10E94511CCE2DC4303E
:1039100008F0C3E0C150B8F028E0C29FC0011124F4
:10392000A301920104C056954795379527958A952E
:10393000D2F7B901D501ED91FC910190F081E02D14
:10394000C5010995E7CF60E0C5010E945D1C4D2FC0
:10395000D13208F040E22C2D67EE79E08F2D0E94E5
:10396000001D1092E6098093E509DF91CF911F9128
:103970000F91FF90EF90CF90BF90AF907F906F909E
:103980005F904F900895CF92EF920F931F93C22EA6
:10399000E12C00E010E098010E94701C1F910F9133
:1039A000EF90CF90089521E00C94C31C21E00C947B
:1039B000C31C61E00C945D1CE5EBF9E013821282FC
:1039C00088EE93E0A0E0B0E084839583A683B7837C
:1039D00087E493E09183808308959B01AC0160E0CC
:1039E00072E18AE790E00E944D412051310941097E
:1039F000510956954795379527952093B800089516
:103A00004132E0F59091560A9111FCCF91E09093EC
:103A1000560A2093540A2FEF2093070A70934E0AF8
:103A200060934D0A10924C0A240F20934B0A9093F6
:103A3000550A9091550A880F892B8093550A8091D9
:103A4000530A8130C9F41092530A8091550A809329
:103A5000BB008091BC0083FDF8CF85EC8093BC0057
:103A60008091560A8130E1F380914C0A841710F45A
:103A700040914C0A842F089585EEF0CF40E0FACFB4
:103A80000F93413208F044C09091560A9111FCCF37
:103A900092E09093560A0093540A9FEF9093070A7E
:103AA00070934E0A60934D0A10924C0A40934B0A51
:103AB0001092550A9091550A880F892B8093550AC8
:103AC0008091530A813011F51092530A8091550A62
:103AD0008093BB008091BC0083FDF8CF85EC809380
:103AE000BC00222321F08091560A8230D1F38091CC
:103AF000070A8F3F79F08091070A803269F0809140
:103B0000070A803359F084E00F91089585EEE7CFDE
:103B100081E0FACF80E0F8CF82E0F6CF83E0F4CF07
:103B20002091290A260F3327331F21323105ECF467
:103B30002091560AFC0190E080E0243069F082E098
:103B40000895A091290A2191AC01455D554FA40F1C
:103B5000B52FB11D2C930196861798F38091290AF1
:103B6000680F6093290A80E0089581E0089585ED4B
:103B70008093BC008091BC0084FDFCCF1092560A5B
:103B8000089585EC8093BC001092560A08951F9208
:103B90000F920FB60F9211240BB60F922F933F93F3
:103BA0004F935F936F937F938F939F93AF93BF9345
:103BB000EF93FF938091B900887F803609F44EC05F
:103BC00008F041C0883209F4AAC028F5803109F410
:103BD0009EC0C8F4882309F407C1883009F497C04F
:103BE000FF91EF91BF91AF919F918F917F916F91D5
:103BF0005F914F913F912F910F900BBE0F900FBE91
:103C00000F901F901895883109F489C0803241F7D0
:103C10008093070A15C0803409F4A6C048F48033A5
:103C2000B9F38833E9F68093070A0E94C11DD8CF03
:103C3000803509F489C0883509F49EC0883481F63E
:103C40000E94B71DCDCF883909F494C038F5883764
:103C500029F050F4883611F0803711F683E0809314
:103C6000560A1092080A57C0883809F483C0803970
:103C700019F0803809F0B4CF8091080A803208F03A
:103C800079C0E091080A81E08E0F8093080A809144
:103C9000BB00F0E0E75FF54F80833DC0803B39F02B
:103CA000E0F4803A09F485C0883A09F099CF84E0BD
:103CB0008093560A10922A0A1092290AE091510A1A
:103CC000F091520A09958091290A81110FC081E073
:103CD0008093290A10922B0A09C0803C09F482C003
:103CE000883C09F47FC0883B09F07ACFE0912A0A2A
:103CF00081E08E0F80932A0AF0E0E55DF54F808128
:103D00008093BB0090912A0A8091290A31C080914A
:103D1000550A8093BB0085EC8093BC0061CF9091E5
:103D20004C0A80914B0A9817B8F580914D0A9091F2
:103D30004E0AE0914C0A21E02E0F20934C0AE80F26
:103D4000F92FF11D8081E5CF20914D0A30914E0A67
:103D5000E0914C0A81E08E0F80934C0A8091BB0069
:103D6000E20FF32FF11D808390914C0A80914B0A52
:103D7000981788F285E8D0CF20914D0A30914E0AED
:103D8000E0914C0A81E08E0F80934C0A8091BB0039
:103D9000E20FF32FF11D80838091540A811150CFDF
:103DA00081E08093530A84EA8093BC001092560A03
:103DB00017CF0E94C11D8091080A803230F4E09133
:103DC000080AF0E0E75FF54F10826091080A70E0A2
:103DD000E0914F0AF091500A89E09AE0099510921B
:103DE000080AFECE85ECE0CF1092070A29CFCF93C8
:103DF000DF931F92CDB7DEB76983DC01ED91FC91B3
:103E00000280F381E02D41E050E0BE016F5F7F4F03
:103E100009950F90DF91CF910895CF93DF93EC0137
:103E2000E98DFA8D309749F481E090E09B838A8395
:103E300090E080E0DF91CF91089513821282898D06
:103E40009A8D0E94822BE98DFA8D22813381232B5A
:103E500059F7F0CFFC01818D928D009711F00C94F1
:103E600011290895CF93DF931F92CDB7DEB741E0BC
:103E700050E0BE016F5F7F4F0E943527019731F4FC
:103E8000898190E00F90DF91CF9108958FEF9FEFA0
:103E9000F9CFFC01818D928D009711F00C94321FA7
:103EA0008FEF9FEF08950F931F93CF93DF93EC0154
:103EB000898D9A8D10E000E0009799F00E94321FE2
:103EC0008C010F3F100769F0898D9A8DFC014285A6
:103ED00053856485758541505109610971090E94B6
:103EE0007D28C801DF91CF911F910F910895EF9226
:103EF000FF920F931F93CF93DF93EC017B018A0115
:103F00001B821A8288EE93E0A0E0B0E08C839D8350
:103F1000AE83BF8389E593E0998388838DE190E048
:103F20000E94B0419A8F898F009779F02DE1F701B7
:103F3000DC0101900D922A95E1F74CE050E0B801C8
:103F4000CE010C960E94DE43188EDF91CF911F9117
:103F50000F91FF90EF900895FC011382128288EE7A
:103F600093E0A0E0B0E084839583A683B78389E5DE
:103F700093E091838083128E118E14860895DC0164
:103F80005996ED91FC91309729F06285738584856F
:103F9000958508956FEF7FEFCB010895DC01599669
:103FA000ED91FC91309729F0638974898589968910
:103FB000089560E070E0CB010895CF92DF92EF9218
:103FC000FF92CF93DF93FC01218D328D232B09F1DA
:103FD000EC010E94CE1F6B017C01CE010E94BF1F2D
:103FE000A7019601261B370B480B590BDA01C901B3
:103FF000811530E89307A105B10520F08FEF9FE709
:10400000A0E0B0E0DF91CF91FF90EF90DF90CF90F4
:10401000089590E080E0F6CFCF93DF93EC01898D97
:104020009A8D009741F00E945A29898D9A8D0E949D
:104030004C421A8E198EDF91CF910895DC0159966A
:10404000ED91FC91309721F081E09581911101C0B3
:1040500080E008951F93CF93DF93CDB7DEB76D97C0
:104060000FB6F894DEBF0FBECDBFAB011C821B8222
:104070002DE633E03A8329831E8221E0BC01CE0184
:1040800001960E94952A11E081110CC010E0812F49
:104090006D960FB6F894DEBF0FBECDBFDF91CF9106
:1040A0001F910895CE0101960E945A29F0CFEF92F8
:1040B000FF920F931F93CF93DF937B01DB012D9131
:1040C0003C91FC01E20FF31F60816F3211F42F5F0E
:1040D0003F4F8C01020F131FEA01F0E0E0E0D8012E
:1040E0007D918D017F3249F0772339F02F5F3F4F6B
:1040F00031967993EC30F10591F7E40FF51F1082BA
:10410000FC01E20FF31F40814F3211F42F5F3F4F4C
:10411000F70131832083280F391F81E0D9019C9159
:10412000911101C080E0DF91CF911F910F91FF901D
:10413000EF9008954F925F926F927F928F929F922D
:10414000AF92BF92CF92DF92EF92FF920F931F93A5
:10415000CF93DF93CDB7DEB7C954D1090FB6F8942A
:10416000DEBF0FBECDBF5C016B013A01490119A250
:1041700018A28DE693E09F8F8E8F1BA21C821B825C
:104180009A8389831E822A961FAE1EAE2A978B01C0
:104190007E018EE1E80EF11C44244394AE01455C9F
:1041A0005F4FBE01685B7F4FC5010E945720582EAC
:1041B000482F44259401BE01655C7F4FC801F3017F
:1041C0000995811120C00C151D05C9F480E0C75B5D
:1041D000DF4F0FB6F894DEBF0FBECDBFDF91CF919A
:1041E0001F910F91FF90EF90DF90CF90BF90AF9015
:1041F0009F908F907F906F905F904F900895C8012F
:104200000E945A29E3CF552091F021E0AE01455C90
:104210005F4FB801C7010E94952A582E0C151D0545
:1042200071F0C8010E945A2951100EC0CFCF0C1551
:104230001D0519F0C8010E945A2981E0C8CF8823C2
:1042400029F28E010F5F1F4F902F812F8701E92EDA
:10425000F82EA4CF0F931F93CF93DF93EC01162F6B
:104260008FA5882321F0CE018A960E945A29412FDA
:1042700061E0CE010E94F723811102C090E012C0DC
:104280008E01045F1F4F41E0BE01C8010E94BC3097
:10429000882371F0B801CE018A960E94E52691E04C
:1042A000882361F3892FDF91CF911F910F9108959A
:1042B00040E0BE01C8010E94BC308823F9F2EACF79
:1042C000FC01DB0112968D919C911397938382835D
:1042D0008DE693E09183808314968C911497848368
:1042E00015968C911597858316964D915D916D91DC
:1042F0007C91199746835783608771871A964D91F1
:104300005D916D917C911D97428753876487758776
:104310001E964D915D916D917C915197468757877F
:10432000608B718B52968C915297828B53964D91E4
:104330005D916D917C915697438B548B658B768BF9
:1043400057964D915D916D917C915A97478B508F07
:10435000618F728F5B968D919C91948F838F08955E
:104360004F925F926F927F928F929F92AF92BF9285
:10437000CF92DF92EF92FF920F931F93CF93DF9331
:10438000CDB7DEB7C754D1090FB6F894DEBF0FBE64
:10439000CDBF5C014A013901665D7F4F7E018EE130
:1043A000E80EF11CC7010E9460211C821B828DE671
:1043B00093E09A8389831E828401FE0131966F0106
:1043C0005E2C4F2C6FE270E0C8010E94CC43009736
:1043D00009F455C0F80120812F3219F40F5F1F4FE7
:1043E000F1CF801B8D3008F08CE0E82EF12CA70176
:1043F000B801CE01CB960E94DE43EBE3F0E0EC0F78
:10440000FD1FEE0DFF1D1082C6010E945A2921E0FA
:10441000AE01455C5F4F652D742DC6010E94952A43
:10442000811121C0F501138212828DE693E0918300
:1044300080831582C501C95BDF4F0FB6F894DEBFDC
:104440000FBECDBFDF91CF911F910F91FF90EF90E5
:10445000DF90CF90BF90AF909F908F907F906F90A4
:104460005F904F9008950E0D1F1D852D942D0E9475
:104470005A29C2015C2C4D2CC92ED82EA3CF081965
:104480001909F30111830083652D742DC5010E9464
:104490006021D0CFAF92BF92CF92DF92FF920F9365
:1044A0001F93CF93DF93CDB7DEB7C955D1090FB6B0
:1044B000F894DEBF0FBECDBF6C015B018A01F22E06
:1044C0009E01285A3F4FCE01CB960E94B0216A969A
:1044D0008EAD9FAD6A97080F191FF8018081811179
:1044E00010C0BE01655C7F4FCE0101960E94602125
:1044F00047E653E0BE016F5F7F4FC6010E94771F02
:104500000FC019A218A28DE693E09F8F8E8F1BA279
:1045100021968FAD2197811115C0C6010E94AC1F55
:10452000C601C75ADF4F0FB6F894DEBF0FBECDBF2E
:10453000DF91CF911F910F91FF90DF90CF90BF90AF
:10454000AF90089582508230F8F4B501665D7F4FD8
:104550002F2DA801CE014E960E94952A8823E9F2BC
:104560008F2D867041F049A95AA96BA97CA9CE016B
:104570004E960E947D28BE01625E7F4FCE0101965D
:104580000E946021A801B6CF2F2DA801BE01655C55
:104590007F4FCE014E960E94952A882309F4BDCF05
:1045A000CE01CB960E945A29DBCFFB01BC01665D90
:1045B0007F4F30E020E04AE250E2CF010C949A2095
:1045C000E7E5FAE0158216821186138682E090E014
:1045D000A0E0B0E084879587A687B78713A215A6C9
:1045E00014A68DE693E093A782A717A608959FB718
:1045F000F8942091AE0C8091AC0C213019F48DBB55
:104600009FBF08958FBF08952091AE0C222381F0A3
:104610003FB7F8942091AE0C213069F42DB320936C
:10462000AC0C4DB32091AD0C209524232DBB3FBF86
:104630008CBD9DBD08953093AC0CFACF8EBD0000AB
:104640000DB407FEFDCF8EB508958FEF0C941E2399
:1046500061E0FC0184810E940B3F8091A00A8823C5
:1046600039F01092A00A8091AE0C81110C94F722BF
:104670000895CF93DF93EC018091A00A811109C0C6
:1046800081E08093A00A8091A10A9091A20A0E94E1
:10469000042360E08C81DF91CF910C940B3FCF938A
:1046A000DF93EC018E81882389F08F8198859C01AE
:1046B0002F5F3F4F38872F838230924018F40E943B
:1046C0002523F3CFCE010E9428231E82DF91CF91B4
:1046D0000895673028F026E1FC01258380E00895E5
:1046E000623079F038F06430A9F090F06530A1F0D4
:1046F00082E508C080E58093A10A81E08093A20A48
:10470000089580E58093A10A1092A20A81E008959D
:1047100081E5F1CF81E5F6CF82E5EDCF0F931F93D1
:10472000CF93DF93EB010E94F03D8B010E94252384
:104730008F3F69F00E94F03D601B710B6C177D0785
:10474000A8F380E0DF91CF911F910F91089581E050
:10475000F9CF8F929F92AF92BF92FF920F931F93C8
:10476000CF93DF93EC01F62E49015A010E944F23AB
:10477000CE010E9439236CE271E0CE010E948E23AB
:104780008F2D80640E941E2308E110E0D501C40132
:10479000002E04C0B695A795979587950A94D2F7F1
:1047A0000E941E2308501109083F8FEF180771F768
:1047B00085E9FF2021F088E0F8120DC087E80E940B
:1047C0001E2310E00E9425238A8787FF06C01F3F13
:1047D00021F01F5FF7CF8FEFF2CFDF91CF911F91C5
:1047E0000F91FF90BF90AF909F908F9008958F9200
:1047F0009F92AF92BF92EF92FF920F931F93CF932E
:10480000DF93EC01E62E1B8619861E821D824C83E7
:104810000E94F03D8B0161E08C810E94CF3E61E0FF
:104820008C810E940B3F0E94DC3182E58093A10ABB
:1048300081E08093A20A8091A10A9091A20A0E942D
:1048400004232AE0F22E8FEF0E941E23FA94F11027
:10485000FACF8091AE0C81110E94F722CE010E9406
:10486000392320E030E0A90160E0CE010E94A923B5
:10487000F82E8A8781E0F816C1F00E94F03D601B97
:10488000710B613D774068F381E08D83CE010E941A
:10489000282380E0DF91CF911F910F91FF90EF903F
:1048A000BF90AF909F908F9008952AEA31E040E04A
:1048B00050E068E0CE010E94A92382FF25C0FB865C
:1048C0008B85812C912C5401823029F4812C912CE0
:1048D000A12C80E4B82E20E030E0A90167E3CE01EE
:1048E0000E94A923A501940169E2CE010E94A92397
:1048F0008A878823C1F00E94F03D601B710B613DE7
:10490000774048F388E0C1CF94E0F92E0E94252338
:104910008A87FA94F110FACF8A3A11F082E0B5CF83
:1049200082E08B87CDCF8B858230C1F420E030E0F0
:10493000A9016AE3CE010E94A923882311F086E031
:10494000A4CF0E942523807C803C11F483E08B87D8
:104950000E9425230E9425230E942523CE010E9428
:1049600028236E2DCE01DF91CF911F910F91FF90E3
:10497000EF90BF90AF909F908F900C9469230F930E
:104980001F93CF93DF93EC010E94F03D8B010E94B7
:1049900025238A878F3F91F40E94F03D601B710BA5
:1049A0006D327140A0F38FE08D83CE010E942823E9
:1049B00080E0DF91CF911F910F9108958E3F11F00C
:1049C0008DE0F2CF81E0F5CFCF92DF92EF92FF92B0
:1049D0000F931F93CF93DF93EC016901C801820FFE
:1049E000931F8130924048F58E81882371F0888131
:1049F0009981AA81BB8184179507A607B70729F477
:104A00008F819885C816D90670F5488359836A83C3
:104A10007B838B85833039F089E0440F551F661FF7
:104A2000771F8A95D1F79A01AB0161E1CE010E940F
:104A3000A923882379F083E08D83CE010E94282367
:104A400080E0DF91CF911F910F91FF90EF90DF9069
:104A5000CF900895CE010E94BF24882371F3188659
:104A60001F8281E08E838F8198858C159D0560F073
:104A70006701E00EF11EEC14FD0471F00E94252385
:104A8000F60181936F01F7CF0E9425238F819885CE
:104A9000019698878F83E7CF8F819885080F191F1C
:104AA00018870F838985882319F00115124018F0A3
:104AB000CE010E944F2381E0C4CFEF92FF920F936B
:104AC0001F930115110539F00E94E4241F910F91E5
:104AD000FF90EF90089581E0F9CFEF92FF920F934E
:104AE0001F93790100E012E030E020E00E94E4240E
:104AF0001F910F91FF90EF900895EF92FF920F9307
:104B00001F93CF93DF938C01862F7A010E941E237F
:104B1000E7018EEFF81A89910E941E23CE15DF055A
:104B2000D1F78FEF0E941E238FEF0E941E230E9459
:104B30002523F80182878F71853069F081E18583B3
:104B4000C8010E94282380E0DF91CF911F910F912F
:104B5000FF90EF90089581E0F7CF0F931F93CF93CD
:104B6000DF93EC01890182E1411551056105710571
:104B700099F08B85833039F089E0440F551F661F0B
:104B8000771F8A95D1F79A01AB0168E1CE010E94A7
:104B9000A923882339F084E08D83CE010E94282345
:104BA00080E023C0A8016EEFCE010E947D258823FE
:104BB000A1F368E572E0CE010E948E23811102C04C
:104BC00085E1EACF20E030E0A9016DE0CE010E944E
:104BD000A923882311F084E1DFCF0E9425238111CE
:104BE000FACFCE010E94282381E0DF91CF911F915F
:104BF0000F910895E1EAFAE080E5808381E0818306
:104C000008950895CF93DF93EC019C012A5F3F4FF5
:104C100041E050E060E070E08B8D9C8D0E945B2F46
:104C20008823A1F08F89988DA98DBA8D892B8A2B25
:104C30008B2B59F48E819F81A885B9858F8B988F96
:104C4000A98FBA8F8C8180688C8381E0DF91CF91AE
:104C500008958F929F92AF92BF92CF92DF92EF9280
:104C6000FF92CF93DF93EC010E94022681110CC0CA
:104C700080E0DF91CF91FF90EF90DF90CF90BF90D9
:104C8000AF909F908F900895EB8DFC8DCE80DF804C
:104C9000E884F98482E0C81AD108E108F108858522
:104CA00004C0CC0CDD1CEE1CFF1C8A95D2F7868557
:104CB0009785A089B189C80ED91EEA1EFB1E848182
:104CC00046015701880E911CA11CB11C8C149D0437
:104CD000AE04BF0461F081E0881A9108A108B10810
:104CE000C501B4010E94A92D8111F0CFC1CFEB8D78
:104CF000FC8D258580E092E0A0E0B0E004C0880F44
:104D0000991FAA1FBB1F2A95D2F74B895C896D8911
:104D10007E89840F951FA61FB71F8B8B9C8BAD8B35
:104D2000BE8B81E0A6CFCF93DF93EC01462F6E853B
:104D30007F85888999890E946E2D882351F08A8900
:104D400020E2829FC00111248455954FDF91CF91BD
:104D5000089590E080E0FACFFB019B01255F3F4F73
:104D600040E241932E173F07E1F7DC0120E037E0F6
:104D70009D91492F992319F19E3229F43A3059F027
:104D800028E03AE0F5CFE6E8F1E08491882329F0C5
:104D900031969813FACF80E017C03217A8F05FED74
:104DA000590F5E3588F48FE9890F8A3110F440EE8F
:104DB000490FFB01E20FF11D40832F5FD9CF81E046
:104DC000FB019081903239F308950F931F93CF9395
:104DD000DF93FC012581222331F080E0DF91CF9128
:104DE0001F910F9108958B01EC01FB0187898031A0
:104DF00039F582E08D831F8A188E198E1A8E808D68
:104E0000918DB0E0A0E025E0880F991FAA1FBB1F7D
:104E10002A95D1F78B8B9C8BAD8BBE8B1C8F0B8F08
:104E200081E08C831E821F82188619861A861B8653
:104E30001C861D861E861F86188A198A1A8ACECF5E
:104E4000803259F683E08D83428D538D648D758D4C
:104E50004F8B588F698F7A8F9E012D5E3F4FC8010F
:104E60000E944E2E8111DACFB8CF2F923F924F92EF
:104E70005F926F927F928F929F92AF92BF92CF92EA
:104E8000DF92EF92FF920F931F93CF93DF93EC018A
:104E90005B012A018D81811115C08FEF9FEFDF919A
:104EA000CF911F910F91FF90EF90DF90CF90BF9027
:104EB000AF909F908F907F906F905F904F903F90BA
:104EC0002F9008958C8180FFE8CF0B891C892D8954
:104ED0003E894A855B856C857D85C201B0E0A0E096
:104EE00068017901C41AD50AE60AF70AC816D90674
:104EF000EA06FB0618F42801441A550A42011E016D
:104F000026E0220E311C8114910409F4B3C04A85B5
:104F10005B856C857D856A0181E0D8228B8D9C8DB7
:104F20008A019B01E9E03695279517950795EA9543
:104F3000D1F7ED81E230E1F5FC01628D738D848D56
:104F4000958D600F711F821F931F612C22E0722EBE
:104F50006C187D088614970408F434012C8126FD12
:104F600004C06114F2E07F0671F400910801109111
:104F7000090120910A0130910B0106171707280734
:104F8000390709F053C040E00E946E2D882309F4D0
:104F900084CFC6018455954FD5019C01260D371D40
:104FA000FC012E173F0709F460C041914D93F9CFE2
:104FB000FC0174807A947022C114D10471F47110D0
:104FC0000CC0452B462B472B39F58F89988DA98D21
:104FD000BA8D8E839F83A887B987EB8DFC8D6E81F8
:104FE0007F8188859985625071098109910925859C
:104FF00004C0660F771F881F991F2A95D2F7068570
:10500000178520893189600F711F821F931F670DDB
:10501000711D811D911D99CF4E815F8168857985B4
:1050200091010E94CD2D8111D8CF37CF7501830119
:105030009601AB01BC018091AA0A9091AB0A0E9433
:105040005D25882309F429CFA60CB71C8A859B858A
:10505000AC85BD85860D971DA11DB11D8A879B87D7
:10506000AC87BD87861897084ECF281B390BA20E38
:10507000B31EECCFC20113CFFF920F931F93CF93B8
:10508000DF931F92CDB7DEB7FC0125812230C8F037
:105090008C01428553856485758585E07695679595
:1050A000579547958A95D1F7F42FFF70FF2E41E071
:1050B00050E0BE016F5F7F4FC8010E943527019706
:1050C00019F090E080E012C0F80182859385A485F4
:1050D000B5854F96A11DB11D82879387A487B5879B
:1050E000F0E2FF9EC00111248455954F0F90DF918F
:1050F000CF911F910F91FF9008958F929F92AF9241
:10510000BF92CF92DF92EF92FF920F931F93CF93B4
:10511000DF93EC018D8181110EC080E0DF91CF9192
:105120001F910F91FF90EF90DF90CF90BF90AF90C5
:105130009F908F9008950B891C892D893E890417B3
:1051400015072607370748F34A015B01823031F41F
:105150008A869B86AC86BD8681E0E0CF811491046F
:10516000A104B10449F41E821F82188619861A868A
:105170001B861C861D86F0CF0A851B852C853D85E8
:10518000EB8DFC8D858590E00996B901A801415011
:10519000510961097109082E04C0769567955795E4
:1051A00047950A94D2F775016401E1E0CE1AD1085F
:1051B000E108F10804C0F694E794D794C7948A955F
:1051C000D2F7C416D506E606F70620F0012B022B0F
:1051D000032B11F58F89988DA98DBA8D8E839F83AE
:1051E000A887B9878E010A5F1F4FC114D104E1045B
:1051F000F10409F4ADCF4E815F816885798598010E
:105200008B8D9C8D0E94CD2D91E0C91AD108E108AB
:10521000F1088111EACF81CFC41AD50AE60AF70A4C
:10522000E1CF0F931F93CF93DF93EC018D81882300
:10523000D9F18C8187FF32C061E0CE010E949326B4
:105240008C01892B89F18D81823048F48B899C896E
:10525000AD89BE89F801848F958FA68FB78F8F890E
:10526000988DF801938F828F8F89988DA98DBA8D33
:10527000B58BA48BE091A30AF091A40A309759F062
:10528000B8016A5E7F4FC80148960995F801808D84
:10529000918D938B828B8C818F778C83DF91CF91D3
:1052A0001F910F910C94332D80E0DF91CF911F91CE
:1052B0000F910895CF93DF93EC010E941129882369
:1052C00011F01D8281E0DF91CF9108954F925F929E
:1052D0006F927F928F929F92AF92BF92EF92FF92C6
:1052E0000F931F93CF93DF9300D000D0CDB7DEB7DD
:1052F000FC0185818130A1F080E00F900F900F902C
:105300000F90DF91CF911F910F91FF90EF90BF9081
:10531000AF909F908F907F906F905F904F90089587
:10532000848181FFE9CF83899489A589B68984170F
:105330009507A607B70700F3892B8A2B8B2B09F457
:1053400077C04A015B017F01428453846484758481
:10535000CF010E947D28882379F2F701838D948DF7
:1053600081149104A104B10449F54789508D618DE0
:10537000728D0E946630882309F4BECFF701178A28
:10538000108E118E128EF701838A948AA58AB68AAE
:10539000848180688483C7010E941129882309F4CD
:1053A000ABCFB501A401441655066606770610F486
:1053B000B301A201C7010E947D289FCF468157817A
:1053C000608571859E012F5F3F4F0E94CD2D882300
:1053D00009F492CFF701838D948D49815A816B81B5
:1053E0007C81FC0127892031F1F408EF1FEF20E0D8
:1053F00030E0401751076207730728F60E946630B5
:10540000882309F479CFF70146815781608571853A
:105410000FEF1FEF2FEF3FE0838D948D0E94B92E89
:105420008111B1CF69CF08EF1FEF2FEF3FE0E1CF40
:1054300081E063CFCF92DF92EF92FF921F93CF93E1
:10544000DF93EC0180E2689FF0011124E455F54FF1
:105450009385917161F0842F827449F080E0DF912F
:10546000CF911F91FF90EF90DF90CF900895142F70
:105470006A8B8091080190910901A0910A01B09175
:105480000B018E879F87A88BB98BC488D588F12C98
:10549000E12C7601DD24CC24CF8AD88EE98EFA8ED9
:1054A000828D938DB0E0A0E0AC01BD014C295D2957
:1054B0006E297F294F8B588F698F7A8F83858871EA
:1054C00029F5848D958DA68DB78D8B8B9C8BAD8B9F
:1054D000BE8B81E08D83812F8F708C831E821F8213
:1054E000188619861A861B861C861D8681E016FF83
:1054F000B6CF40E050E0BA01CE01DF91CF911F91CD
:10550000FF90EF90DF90CF900C946629803109F0E6
:10551000A5CF9E012D5E3F4F8B8D9C8D0E944E2E00
:10552000882309F49BCF84E0D5CFBF92CF92DF923E
:10553000EF92FF920F931F93CF93DF93CDB7DEB718
:105540002B970FB6F894DEBF0FBECDBFFC0135819F
:1055500031110BC0C22E8B017C01BE016F5F7F4FEA
:10556000CA010E94AC26811102C080E0A1C0F801EE
:10557000838D948DF701948F838FF80116821782A3
:10558000108611861286138614861586B12CF801B2
:1055900082859385A485B5854389548965897689F3
:1055A00084179507A607B70788F525E0B695A79550
:1055B000979587952A95D1F7F82FFF70DF2EC801B0
:1055C0000E943C28009789F2FC012081222341F0AF
:1055D000253E09F059C0BB2029F0BB24B394D7CF96
:1055E000B1100EC0F701D28A409108015091090113
:1055F00060910A0170910B0146875787608B718B10
:10560000FC0180818111E9CFBB24B3948C2D827180
:10561000823109F0AACFBB2009F45AC061E0C7016A
:105620000E9493268C01892B09F49FCF80E2F80118
:1056300011928A95E9F78BE0FE013196D80101902D
:105640000D928A95E1F7E091A30AF091A40A3097B0
:1056500009F44EC0B801625F7F4FC80140960995BA
:10566000F80180899189938B828B918F808F8685B9
:105670009785978B868B0E94332D882309F475CFED
:105680004C2DF701628911C04BE050E0BC01CE0106
:1056900001960E94B643892B09F079CF8C2D807337
:1056A0004C2D6D2D803309F460CFC7010E941A2A5A
:1056B0002B960FB6F894DEBF0FBECDBFDF91CF9112
:1056C0001F910F91FF90EF90DF90CF90BF900895C2
:1056D000F8018581823009F448CFC8010E9429264B
:1056E000882309F442CFF701128A0CEA1AE09ECF10
:1056F00081E298E2F801918B808B80E098E09787B7
:105700008687AECF2F923F924F925F926F927F9299
:105710008F929F92AF92BF92CF92DF92EF92FF92C1
:105720000F931F93CF93DF9300D000D0CDB7DEB798
:105730008C016B011A01DC0115968C911597813053
:1057400009F0C8C014968C9181FFC4C082FDAEC020
:105750004101D8011A964D915D916D917C911D97F3
:105760008114910409F429C15B968D919C915C97F9
:10577000FC0174802FEF270D2A013B0139E076945C
:105780006794579447943A95D1F7722E74207A0112
:10579000F1E0FF22711020C0E114F104E9F4169643
:1057A0004D915D916D917C91199741155105610560
:1057B000710509F098C057968D919D910D90BC91FF
:1057C000A02D0097A105B10509F0AFC0C8010E9446
:1057D0000226882309F47EC080E092E08E199F099A
:1057E00054018815990508F45C01D8015B964D9128
:1057F0005C915C9716968D919D910D90BC91A02D1A
:105800000297A109B109FA01258504C0880F991FE3
:10581000AA1FBB1F2A95D2F74685578560897189D3
:10582000840F951FA61FB71F9C01AD01270D311DC9
:10583000411D511D29013A01A11432E0B30609F0BE
:105840007AC08091080190910901A0910A01B0915C
:105850000B0184159505A605B70559F48FEF9FEF49
:10586000DC018093080190930901A0930A01B09391
:105870000B019601B301A2018091AA0A9091AB0A93
:105880000E94AD25882331F19EEFD91A8A189B0812
:10589000F80182859385A485B5858A0D9B1DA11D80
:1058A000B11D82879387A487B58753CFF8014389B9
:1058B00054896589768982859385A485B58548173D
:1058C00059076A077B0709F443CFC8010E947D2866
:1058D00081113ECF81E090E0D80113969C938E9386
:1058E000129780E007C09E012F5F3F4F0E94CD2D91
:1058F000811102C090E07BC089819A81AB81BC811B
:10590000F801238D348DF901278948EF5FEF60E0BE
:1059100070E0203121F048EF5FEF6FEF7FE08417F8
:105920009507A607B70708F051CFF801868397833C
:10593000A087B18751CFE114F10491F5D8011A96EF
:105940004D915D916D917C911D9753968D919D9197
:105950000D90BC91A02D481759076A077B0700F1ED
:105960000E94332D882309F4B5CF4092080150924C
:10597000090160920A0170920B018091A90A81606D
:105980008093A90A97012455354FD601C9018A0D84
:105990009B1DF9018E179F0759F04D914193FACF46
:1059A00041E0C301B2010E946E2D8111EBCF92CF75
:1059B000821B930BC80ED91E69CF14968C91149735
:1059C0005396CD90DD90ED90FC905697C416D50679
:1059D000E606F70618F5F801438B548B658B768B3A
:1059E00080688483F801848183FD25C0C1010F9004
:1059F0000F900F900F90DF91CF911F910F91FF901B
:105A0000EF90DF90CF90BF90AF909F908F907F905E
:105A10006F905F904F903F902F9008952091A30A30
:105A20003091A40A232BF1F221143104D9F28068B9
:105A300014968C93D7CFC8010E941129882309F4AA
:105A400049CFD4CFCF93DF931F92CDB7DEB7698311
:105A500041E050E0BE016F5F7F4F0E94822B0F90AC
:105A6000DF91CF9108958091A90A8823A9F14091EF
:105A700008015091090160910A0170910B012CEA13
:105A80003AE08091AA0A9091AB0A0E94AD2581115B
:105A900002C080E008954091A50A5091A60A609145
:105AA000A70A7091A80A411551056105710591F089
:105AB0002CEA3AE08091AA0A9091AB0A0E94AD25A7
:105AC000882339F31092A50A1092A60A1092A70A09
:105AD0001092A80A1092A90A81E00895CF92DF924D
