:020000040000FA
:100000000C9411010C943B010C943B010C943B01AA
:100010000C943B010C943B010C943B010C943B0170
:100020000C943B010C943B010C943B010C943B0160
:100030000C943B010C946A010C943B010C943B0121
:100040000C943B010C943B010C948D320C943B01BD
:100050000C940A2E0C94402E0C943B010C943B0102
:100060000C943B010C943B010C94DE120C943B016C
:100070000C94A12E0C94D72E0C943B010C943B01B4
:100080000C943B010C943B010C943B0100407A1012
:10009000F35A00A0724E18090010A5D4E80000E839
:1000A0007648170000E40B54020000CA9A3B000097
:1000B00000E1F505000080969800000040420F0026
:1000C0000000A08601000000102700000000E803E7
:1000D000000000006400000000000A0000000000B2
:1000E0000100000000002C76D888DC674F0823DF71
:1000F000C1DFAE59E1B1B796E5E3E453C63AE65144
:10010000997696E8E6C28426EB898C9B62ED407C6A
:100110006FFCEFBC9C9F40F2BAA56FA5F490055A06
:100120002AF75C936B6CF9676DC11BFCE0E40D472B
:10013000FEF520E6B500D0ED902E0300943577054E
:100140000080841E080000204E0A000000C80C3306
:100150003333330F986E12831141EF8D2114893B95
:10016000E65516CFFEE6DB18D1844B381BF77C1D15
:10017000901DA4BBE424203284725E228100C9F168
:1001800024ECA1E53D277C3C3E5E2B3D3F2F5B5D93
:100190003B2C2A225C000000000203000A0B000036
:1001A0000000050409080000000000000000000035
:1001B000000000000000010204081020408001023D
:1001C0000408102040800102040810204080010231
:1001D000040810204080020202020202020204040B
:1001E00004040404040403030303030303030101DD
:1001F0000101010101010000200023002600290067
:1002000000002200250028002B000000210024000F
:1002100027002A007F01F311F717111B742E0B2FF3
:10022000910111241FBECFEFD0E4DEBFCDBF12E09D
:10023000A0E0B1E0E2E3F7E700E00BBF02C0079007
:100240000D92A035B107D9F72CE0A0E5B2E001C0CE
:100250001D92AC39B207E1F711E0C0E1D1E004C072
:100260002197FE010E944236CA30D107C9F70E9489
:100270007E320C948C3B0C940000DC01ED91FC91DF
:100280000190F081E02D09940CB405FC0DC09EBDD9
:1002900000000DB407FEFDCF9EB58EBD00000DB46D
:1002A00007FEFDCF8EB508958EBD00000DB407FE8C
:1002B000FDCF8EB59EBD00000DB407FEFDCF9EB5EF
:1002C0000895982F92959F708F702AE0929F800DCD
:1002D000112408951F920F920FB60F9211248F933D
:1002E000809152028F5F809352021092850010928B
:1002F00084008F910F900FBE0F901F90189565E1AD
:1003000071E083E598E00E949B3066E471E08DE443
:1003100098E00E949B3060E871E087E498E00C94DC
:100320009B3087E498E00E9429308DE498E00E9499
:10033000293083E598E00C942930CF93DF9361E571
:1003400070E089E598E00E94721170E060E089E554
:1003500098E00E943D0189E598E00E94F01146E096
:1003600050E061E570E089E598E00E94ED1189E5D3
:1003700098E00E94E5100E9461018093530289E594
:1003800098E00E94E5108F770E946101D82F89E5DF
:1003900098E00E94E5108F770E946101C82F89E5DF
:1003A00098E00E94E5100E94610190E0B0E0A0E0BA
:1003B0008093540290935502A0935602B093570233
:1003C00089E598E00E94E5100E94610124E6829F81
:1003D000C0011124092E000CAA0BBB0B4091540242
:1003E000509155026091560270915702840F951FEB
:1003F000A61FB71F8093540290935502A0935602F4
:10040000B093570289E598E00E94E5100E946101CF
:1004100040E157E2849F9001859F300D1124032E07
:10042000000C440B550B8091540290915502A09101
:100430005602B0915702280F391F4A1F5B1FA0E1D7
:10044000BEE00E945A36AB01BC012CE3C29FC00142
:100450001124092E000CAA0BBB0B8D0F911DA11DA1
:10046000B11D840F951FA61FB71F80935402909350
:100470005502A0935602B0935702DF91CF91089591
:10048000CF93DF93CDB7DEB7C459D1090FB6F89437
:10049000DEBF0FBECDBF88E19FE00FB6F894A895F0
:1004A000809360000FBE9093600061E083E10E9442
:1004B000F23360E082E10E94F23361E082E00E9468
:1004C000B63361E082E00E94F23361E084E10E9491
:1004D000B63361E084E10E94F23360E871E0CE015E
:1004E00081579F4F0E949B300E949D0167E571E0FC
:1004F000CE0181579F4F0E942E3260914308709128
:1005000044084AE0CE0101960E941331BE016F5F9C
:100510007F4FCE0181579F4F0E942732CE01019617
:100520000E94293069EC71E0CE0181579F4F0E94F3
:100530002E324091540250915502609156027091B2
:1005400057022AE0CE0101960E943F31BE016F5F43
:100550007F4FCE0181579F4F0E942732CE010196D7
:100560000E9429306CEA71E0CE0181579F4F0E94B2
:100570002E324AE060915302CE0101960E94BA30B9
:10058000BE016F5F7F4FCE0181579F4F0E94273280
:10059000CE0101960E94293069EC71E0CE018157AD
:1005A0009F4F0E942E3249E558E064E4CE01885AFC
:1005B0009F4F0E94A927CE01885A9F4F0E94E02793
:1005C00061E0CE01885A9F4F0E946328E1966EAD8C
:1005D0007FADE19790E080E00E94F1342FEA30E0B7
:1005E0004FE25BE30E94A33520E030E044E352E4B5
:1005F0000E944934AB01BC0121E0CE0101960E946A
:100600009B31BE016F5F7F4FCE0181579F4F0E948C
:100610002732CE0101960E94293069EC71E0CE01AB
:1006200001960E949B30BE016F5F7F4FCE018157C4
:100630009F4F0E942732CE0101960E942930AF962B
:100640006EAD7FADAF9790E080E00E94F13428EC72
:1006500030E048EC5AE30E94A335AB01BC0121E035
:10066000CE0101960E949B31BE016F5F7F4FCE018C
:1006700081579F4F0E942732CE0101960E94293058
:1006800069EC71E0CE0101960E949B30BE016F5F64
:100690007F4FCE0181579F4F0E942732CE01019696
:1006A0000E94293049E558E065E4CE01CC960E94CD
:1006B000A927CE01CC960E94E02761E0CE01CC961E
:1006C0000E94632865966EAD7FAD659790E080E0EF
:1006D0000E94F1342FEA30E04FE25BE30E94A33541
:1006E00020E030E044E352E40E944934AB01BC0115
:1006F00021E0CE0101960E949B31BE016F5F7F4FCA
:10070000CE0181579F4F0E942732CE0101960E9451
:10071000293069EC71E0CE0101960E949B30BE0148
:100720006F5F7F4FCE0181579F4F0E942732CE01CE
:1007300001960E94293063966EAD7FAD639790E07D
:1007400080E00E94F13428EC30E048EC5AE30E944B
:10075000A335AB01BC0121E0CE0101960E949B3183
:10076000BE016F5F7F4FCE0181579F4F0E9427329E
:10077000CE0101960E94293069EC71E0CE0101960C
:100780000E949B30BE016F5F7F4FCE0181579F4F0C
:100790000E942732CE0101960E94293049E558E097
:1007A00067E7CE0101960E948F28CE0101960E9434
:1007B000BB2C6A81CE0101960E944F2ACE01019680
:1007C0000E94C928AB01BC0122E0CE018C589F4F8A
:1007D0000E949B31BE016C587F4FCE0181579F4FC5
:1007E0000E942732CE018C589F4F0E94293069EC1D
:1007F00071E0CE018C589F4F0E949B30BE016C5817
:100800007F4FCE0181579F4F0E942732CE018C58D7
:100810009F4F0E942930CE0101960E940029AB0112
:10082000BC0122E0CE018C589F4F0E949B31BE013B
:100830006C587F4FCE0181579F4F0E942732CE01C7
:100840008C589F4F0E94293061E084E10E94B633AA
:1008500060E084E10E94F23361E082E00E94B633FE
:1008600060E082E00E94F2330FB6F894A895809180
:100870006000886180936000109260000FBEBE012E
:1008800061577F4F81EF9BE00E94952F8091060179
:10089000882371F164E08BEF98E00E9441166DE5CA
:1008A00071E0882309F443C04091470850914808FB
:1008B00023E16BEF78E0CE018C589F4F0E946117C7
:1008C000CE018C589F4F0E943515882371F1BE01CF
:1008D00061577F4FCE018C589F4F0E94952FCE01BC
:1008E0008C589F4F0E94231561E084E00E94F233F0
:1008F00061E082E10E94F23360E083E10E94F23322
:1009000061E070E080E090E00E940833CE01815702
:100910009F4F0E942930CC56DF4F0FB6F894DEBFB0
:100920000FBECDBFDF91CF9108956CE671E081EFEE
:100930009BE00E94A72F10920601D6CF4F925F92A4
:100940006F927F92AF92BF92CF92DF92EF92FF921F
:100950000F931F93CF93DF93CDB7DEB7A7970FB653
:10096000F894DEBF0FBECDBF61E083E10E94F23399
:1009700060E082E10E94F2330E949D0160E871E034
:10098000CE0182960E949B3066E771E0CE0182968E
:100990000E942E3260914308709144084AE0CE01D3
:1009A00001960E941331BE016F5F7F4FCE01829688
:1009B0000E942732CE0101960E94293069EC71E035
:1009C000CE0182960E942E326091E3057091E4057B
:1009D0004AE0CE0101960E941331BE016F5F7F4F46
:1009E000CE0182960E942732CE0101960E942930C4
:1009F00081E6E82E82E0F82E98EBC92E94E0D92EFD
:100A000025EEA22E25E0B22E01E010E080915D02DD
:100A100090915E020817190708F051C00C3221E0CE
:100A2000120709F44CC0F60181916F01F501419064
:100A300051905F01712C612C882331F0F7E94F0E42
:100A4000F8E95F1E611C711C6EE771E0CE018296B1
:100A50000E942E3261E871E0CE0182960E942E3211
:100A60002AE0B301A201CE0101960E943F31BE01EE
:100A70006F5F7F4FCE0182960E942732CE01019692
:100A80000E94293069EC71E0CE0182960E942E32DC
:100A9000F701619171917F014AE0CE0101960E94B8
:100AA0001331BE016F5F7F4FCE0182960E942732C5
:100AB000CE0101960E9429300F5F1F4FA7CF65E836
:100AC00071E0CE0182960E942E32609143087091AF
:100AD00044084AE0CE0101960E941331BE016F5FC7
:100AE0007F4FCE0182960E942732CE0101960E944E
:100AF000293069EC71E0CE0182960E942E3240913D
:100B000054025091550260915602709157022AE0AA
:100B1000CE0101960E943F31BE016F5F7F4FCE0133
:100B200082960E942732CE0101960E9429306CEAFB
:100B300071E0CE0182960E942E324AE0609153020B
:100B4000CE0101960E94BA30BE016F5F7F4FCE0189
:100B500082960E942732CE0101960E94293069ECCC
:100B600071E0CE0182960E942E32809194006091B5
:100B70009500762F682F4AE0CE0101960E9413312E
:100B8000BE016F5F7F4FCE0182960E942732CE0159
:100B900001960E94293069EC71E0CE0182960E9494
:100BA0002E3260915D0270915E02615071094AE0DF
:100BB000CE0101960E941331BE016F5F7F4FCE01BF
:100BC00082960E942732CE0101960E9429300BE3C3
:100BD00018E069EC71E0CE0182960E942E32F80195
:100BE000619171918F014AE0CE0101960E9413310B
:100BF000BE016F5F7F4FCE0182960E942732CE01E9
:100C000001960E942930F8E003341F0711F7BE0156
:100C10006E5D7F4F81EF9BE00E94952F80910601D2
:100C200061E0882309F4A6C08EE00E94F23364E0FC
:100C30008BEF98E00E9441166DE571E0882309F47E
:100C400092C0409147085091480823E16BEF78E04B
:100C5000CE0101960E946117CE0101960E943515C2
:100C6000882309F47EC0BE016E5D7F4FCE010196E0
:100C70000E94952FCE0101960E94231561E084E029
:100C80000E94F23360E08EE00E94F23360E08DE07B
:100C90000E94F2338091430890914408893F9A4220
:100CA000C8F1109244081092430860914508709171
:100CB00046086F5F7F4F70934608609345084AE08F
:100CC000CE014C960E941331BE01645E7F4FCE016F
:100CD00001960E9483316EE871E0CE0101960E9478
:100CE0005032BC0187E498E00E946C31CE0101963D
:100CF0000E942930CE014C960E94293063E971E0B0
:100D000081EF9BE00E94822F67E478E081EF9BE017
:100D10000E94952F61E082E10E94F23360E083E15E
:100D20000E94F23361E070E080E090E00E940833BE
:100D3000CE0182960E942930A7960FB6F894DEBFA6
:100D40000FBECDBFDF91CF911F910F91FF90EF901C
:100D5000DF90CF90BF90AF907F906F905F904F905B
:100D600008956CE671E081EF9BE00E94A72F10923E
:100D7000060184CF8DE00E94F233CEA0DFA010E008
:100D800000E0FF24FA948DE10E942034892B19F0B1
:100D9000FA94F110F8CF82E390E00E944133780199
:100DA0002FEFE21AF20AB801CE0182960E946A324F
:100DB000FC01608184E59BE00E948A2FCE14DF0451
:100DC00060F484E59BE00E94912FBE016E5D7F4F31
:100DD00081EF9BE00E94952F55CF8701D2CF0F93D3
:100DE0001F93CF93DF93C82F65E570E089E598E006
:100DF0000E9472110C2E000CDD0BBE0189E598E0FB
:100E00000E943D0189E598E00E94F01141E050E028
:100E100065E570E089E598E00E94ED1189E598E0CC
:100E20000E94E5108C0165E570E089E598E00E947C
:100E30007211BE016F5F7F4F89E598E00E943D010E
:100E400089E598E00E94F01141E050E065E570E02E
:100E500089E598E00E94ED1189E598E00E94E5108F
:100E600020E0382FC901800F911FDF91CF911F9192
:100E70000F910895CF93DF93CDB7DEB7A1970FB64B
:100E8000F894DEBF0FBECDBF61E083E10E94F23374
:100E900060E082E10E94F23360E871E0CE014C969E
:100EA0000E949B300E949D016EE971E0CE014C963C
:100EB0000E942E3260914308709144084AE0CE01AE
:100EC00001960E941331BE016F5F7F4FCE014C9699
:100ED0000E942732CE0101960E94293069EC71E010
:100EE000CE014C960E942E324091540250915502F0
:100EF00060915602709157022AE0CE0101960E943D
:100F00003F31BE016F5F7F4FCE014C960E9427326A
:100F1000CE0101960E9429306CEA71E0CE014C9618
:100F20000E942E324AE060915302CE0101960E9447
:100F3000BA30BE016F5F7F4FCE014C960E942732C0
:100F4000CE0101960E94293069EC71E0CE014C96E9
:100F50000E942E3288E00E94EF064AE0BC01CE01DA
:100F600001960E94E730BE016F5F7F4FCE014C9625
:100F70000E942732CE0101960E94293069EC71E06F
:100F8000CE014C960E942E328AE00E94EF064AE083
:100F9000BC01CE0101960E94E730BE016F5F7F4F1A
:100FA000CE014C960E942732CE0101960E94293034
:100FB00069EC71E0CE014C960E942E3284E00E94D2
:100FC000EF064AE0BC01CE0101960E94E730BE0167
:100FD0006F5F7F4FCE014C960E942732CE01019663
:100FE0000E94293069EC71E0CE014C960E942E32AD
:100FF00086E00E94EF064AE0BC01CE0101960E9405
:10100000E730BE016F5F7F4FCE014C960E942732C2
:10101000CE0101960E94293069EC71E0CE014C9618
:101020000E942E328CE00E94EF06BC01990F880BC3
:10103000990B0E94F3342DEC3CEC4CEC5DE30E94E8
:10104000A33523E333E948E853E40E944934AB0174
:10105000BC0122E0CE0101960E94CB31BE016F5F40
:101060007F4FCE014C960E942732CE0101960E94FE
:101070002930BE01645E7F4F81EF9BE00E94952F77
:1010800080910601882349F164E08BEF98E00E948B
:1010900041166DE571E08823E9F1409147085091D0
:1010A000480823E16BEF78E0CE0101960E946117BA
:1010B000CE0101960E943515882351F1BE01645E70
:1010C0007F4FCE0101960E94952FCE0101960E947E
:1010D000231561E084E00E94F23361E082E10E9426
:1010E000F23360E083E10E94F23361E070E080E07F
:1010F00090E00E940833CE014C960E942930A196C0
:101100000FB6F894DEBF0FBECDBFDF91CF9108952B
:101110006CE671E081EF9BE00E94A72F1092060120
:10112000D8CF10923C0810923B0810923E081092C3
:101130003D081092400810923F0810924208109209
:10114000410881E090E090935E0280935D0261E04F
:1011500087E10E94F23360E086E10E94F23390E082
:1011600080E00E94440161E086E10E94F233109227
:1011700085001092840090919400809195008927B9
:10118000982789279093E4058093E30510925202F3
:10119000109251021092500210E208E1B9E2FB2EC7
:1011A000C1E0D0E018993EC1809152028230D0F364
:1011B0008EE10E942034892B29F5A8ECCA2ED12C6F
:1011C00086E990E00E94413361E08FE00E94B633EF
:1011D00061E08FE00E94F23386E990E00E944133A3
:1011E00061E08FE00E94B63360E08FE00E94F2334E
:1011F00041E0C41AD10821F78091580291E0892773
:101200008093580210925202809151028F5F809316
:101210005102809150028F5F809350028BE10E94B7
:101220002034682F8DE00E94F2338BE10E9420343D
:10123000892B09F48DC061E570E089E598E00E9492
:10124000721167E289E598E00E94081160E089E583
:1012500098E00E94081165E970E089E598E00E9435
:101260003D0189E598E00E94F01168EB7BE080E0A9
:1012700090E00E940833C8ECD0E08AEF90E00E9432
:10128000413361E08FE00E94B63361E08FE00E945D
:10129000F2338AEF90E00E94413361E08FE00E94D8
:1012A000B63360E08FE00E94F233219731F761E5B9
:1012B00070E089E598E00E94721167E289E598E0A4
:1012C0000E94081163E089E598E00E94081165E931
:1012D00070E089E598E00E943D0189E598E00E9470
:1012E000F0116AE670E089E598E00E94721168E109
:1012F00089E598E00E9408116AE089E598E00E947B
:10130000081189E598E00E94F01168E873E180E037
:1013100090E00E940833C8ECD0E08AEF90E00E9491
:10132000413361E08FE00E94B63361E08FE00E94BC
:10133000F2338AEF90E00E94413361E08FE00E9437
:10134000B63360E08FE00E94F233219731F7DDCFB2
:1013500061E086E10E94F23360E087E10E94F233AF
:101360000FB6F894A895009360000FBEF09260004D
:101370000E949E0410923C0810923B0810923E0876
:1013800010923D081092400810923F0810924208B7
:1013900010924108D0935E02C0935D02809150028A
:1013A0008E3120F0109250020E9440028091510232
:1013B000843B20F0109251020E943A0761E087E1DD
:1013C0000E94F23360E086E10E94F23390E080E018
:1013D0000E94440161E086E10E94F2330FB6F89466
:1013E000A8958091600088618093600010926000F1
:1013F0000FBE809143089091440801969093440851
:10140000809343081092850010928400909194007C
:10141000809195008927982789279093E4058093E8
:10142000E305C0CE60E086E10E94F23390E080E008
:101430000E94440120915802222361F184309105D9
:1014400060F12BB121272BB920915D0230915E0212
:101450002C32E1E03E07B8F4609184007091850081
:10146000A901440F551FFA01ED51FA4F71836083B2
:1014700060915202F901E954FB4F6083415A5D4F7C
:10148000FA01918380832F5F3F4F30935E02209358
:101490005D020DC084309105B8F6880F991FFC01DC
:1014A000E55CF74F8081918101969183808361E0B3
:1014B00086E10E94F23376CECF92DF92EF92FF92D6
:1014C0000F931F93CF93DF93CDB7DEB7C254D109EB
:1014D0000FB6F894DEBF0FBECDBF26E040E052EC61
:1014E00061E070E084E59BE00E94B82D26E040E0DA
:1014F00052EC61E070E081EF9BE00E94B82D40EA81
:1015000056E861E070E089E598E00E94641165EAC0
:1015100071E081EF9BE00E94A72F60E08BE10E94C9
:10152000B63360E085E10E94B63360E08DE10E9451
:10153000B63360E08EE10E94B63361E086E10E943E
:10154000B63361E087E10E94B63360E080E00E943C
:10155000B63361E08FE00E94B63361E082E10E9421
:10156000B63361E082E10E94F23361E082E00E94E2
:10157000B63361E082E00E94F23361E08AE10E94CA
:10158000B63361E08AE10E94F23361E083E10E94B8
:10159000B63361E083E00E94B63361E084E00E94EC
:1015A000B63360E085E00E94B63360E086E00E94DA
:1015B000B63361E087E00E94B63361E083E10E94C8
:1015C000F23361E084E00E94F23360E087E00E9441
:1015D000F23364E670E080E090E00E94083360E05F
:1015E00083E00E94F23361E084E10E94B63360E060
:1015F00084E10E94F2336AE670E089E598E00E9497
:10160000721162E089E598E00E94081160E671E0DD
:1016100089E598E00E943D0189E598E00E94F0117B
:101620006AE670E089E598E00E94721164E189E55C
:1016300098E00E94081166E289E598E00E9408118E
:1016400069E189E598E00E94081160EA89E598E07F
:101650000E94081166E589E598E00E94081160E0A3
:1016600089E598E00E94081161E089E598E00E9410
:10167000081189E598E00E94F0116AE670E089E5BA
:1016800098E00E9472116AE189E598E00E940811D1
:101690006FEB89E598E00E94081189E598E00E94C7
:1016A000F0116AE670E089E598E00E94721166E246
:1016B00089E598E00E9408116CE889E598E00E94AD
:1016C000081189E598E00E94F0118BE10E94203416
:1016D000892B09F4B2C188E19FE00FB6F894A89570
:1016E000809360000FBE909360006AE670E089E529
:1016F00098E00E9472116DE270E089E598E00E9426
:101700003D0189E598E00E94F01141E050E06AE671
:1017100070E089E598E00E94ED1189E598E00E946B
:10172000E510A89568EE73E080E090E00E94083331
:10173000A89568EE73E080E090E00E940833A895D9
:1017400068EE73E080E090E00E940833A89511E015
:1017500001E06AE670E089E598E00E9472116DE2AE
:1017600070E089E598E00E943D0189E598E00E94DB
:10177000F01141E050E06AE670E089E598E00E94EF
:10178000ED1189E598E00E94E510A8958F778131E9
:1017900008F07FC08BE10E942034682F8DE00E940A
:1017A000F23361E570E089E598E00E94721168E229
:1017B00070E089E598E00E943D0165E970E089E507
:1017C00098E00E943D0189E598E00E94F011A895FB
:1017D00068EE73E080E090E00E940833A89568EE20
:1017E00073E080E090E00E940833A89568EE73E013
:1017F00080E090E00E940833A89508EC10E08AEFA2
:1018000090E00E94413361E08FE00E94B63361E0D6
:101810008FE00E94F2338AEF90E00E94413361E052
:101820008FE00E94B63360E08FE00E94F2330150F7
:10183000110929F761E570E089E598E00E947211CD
:1018400067E289E598E00E94081163E089E598E085
:101850000E94081165E970E089E598E00E943D0169
:1018600089E598E00E94F0116AE670E089E598E069
:101870000E94721168E189E598E00E9408116AE00F
:1018800089E598E00E94081189E598E00E94F0112E
:10189000FFCFA895112309F467C061E0002309F484
:1018A0006EC083E00E94F23361E08CE00E94B633A8
:1018B00061E08CE00E94F23338ECE32EF12C8AEFE9
:1018C00090E00E94413361E08FE00E94B63361E016
:1018D0008FE00E94F2338AEF90E00E94413361E092
:1018E0008FE00E94B63360E08FE00E94F23381E027
:1018F000E81AF10821F728ECE22EF12C84EB90E0B5
:101900000E94413361E08FE00E94B63361E08FE0D6
:101910000E94F23384EB90E00E94413361E08FE05B
:101920000E94B63360E08FE00E94F23381E0E81A53
:10193000F10821F761E770E089E598E00E947211F3
:1019400060E089E598E00E94081163E189E598E08C
:101950000E94081189E598E00E94F01168EE73E09A
:1019600080E090E00E9408338EE10E94203410E075
:10197000892B09F0EECE81E0082711E0EACE8CE059
:101980000E94B63360E08CE00E94F23398ECE92EBE
:10199000F12C84EB90E00E94413361E08FE00E94E3
:1019A000B63361E08FE00E94F23384EB90E00E9456
:1019B000413361E08FE00E94B63360E08FE00E9427
:1019C000F23381E0E81AF10821F788ECE82EF12CD7
:1019D0008AEF90E00E94413361E08FE00E94B633CD
:1019E00061E08FE00E94F2338AEF90E00E94413381
:1019F00061E08FE00E94B63360E08FE00E94F23336
:101A000081E0E81AF10821F761E770E089E598E0E4
:101A10000E94721160E089E598E00E94081160E17F
:101A200089E598E00E94081189E598E00E94F0118C
:101A300060E083E00E94F23391CF61E084E10E9494
:101A4000B63361E084E10E94F23315E060E570E0B6
:101A500080E090E00E94083361E08CE00E94B633A1
:101A600061E08CE00E94F23360E570E080E090E09D
:101A70000E94083360E08CE00E94F233115031F78D
:101A800061E08CE00E94F23308EC10E084EB90E01F
:101A90000E94413361E08FE00E94B63361E08FE045
:101AA0000E94F23384EB90E00E94413361E08FE0CA
:101AB0000E94B63360E08FE00E94F23301501109BA
:101AC00029F76EEA71E081EF9BE00E94A72F60E0AA
:101AD00087E10E94F23361E086E10E94F23361E522
:101AE00070E089E598E00E94721167E289E598E06C
:101AF0000E94081163E089E598E00E94081167E9F7
:101B000089E598E00E94081188E199E20FB6F894FF
:101B1000A895809360000FBE9093600067EB71E022
:101B2000CE0101960E949B306DE478E0CE010196D3
:101B30000E943D3267EC71E00E94503263E578E02C
:101B40000E943D3269EC71E00E945032BC01CE012E
:101B5000CD960E948331CE0101960E9429306BE51B
:101B600070E089E598E00E94721168E070E089E514
:101B700098E00E943D0170E060E089E598E00E94F5
:101B80003D0189E598E00E94F01140E16BE589E5AF
:101B900098E00E94EA1110E189E598E00E94E510C2
:101BA000082F803130F46BEC71E0CE01CD960E94AD
:101BB0002E3240E1602FCE0101960E94BA30BE0164
:101BC0006F5F7F4FCE01CD960E942732CE010196E6
:101BD0000E942930115001F76DEC71E0CE01CD96D5
:101BE0000E942E3268E570E089E598E00E9472114B
:101BF00068E070E089E598E00E943D0170E060E0F7
:101C000089E598E00E943D0189E598E00E94F01185
:101C100040E168E589E598E00E94EA1110E189E574
:101C200098E00E94E510082F803130F46BEC71E0F1
:101C3000CE01CD960E942E3261E082E00E94B63342
:101C400061E082E00E94F23361E08AE10E94B633F3
:101C500061E08AE10E94F23340E1602FCE010196FB
:101C60000E94BA30BE016F5F7F4FCE01CD960E94B9
:101C70002732CE0101960E942930115081F669EC7D
:101C800071E0CE01CD960E942E3260E570E089E5CC
:101C900098E00E94721170E060E089E598E00E948F
:101CA0003D0170E060E089E598E00E943D0189E532
:101CB00098E00E94F01142E060E589E598E00E941A
:101CC000EA1189E598E00E94E51080935A0289E5BF
:101CD00098E00E94E5108093590240E160915A0219
:101CE000CE0101960E94BA30BE016F5F7F4FCE01D8
:101CF000CD960E942732CE0101960E94293040E104
:101D000060915902CE0101960E94BA30BE016F5F08
:101D10007F4FCE01CD960E942732CE0101960E94C0
:101D2000293063EE71E0CE01CD960E942E326BE534
:101D300070E089E598E00E94721168E070E089E542
:101D400098E00E943D0170E060E089E598E00E9423
:101D50003D0189E598E00E94F01140E16BE589E5DD
:101D600098E00E94EA1110E189E598E00E94E510F0
:101D7000082F803130F46BEC71E0CE01CD960E94DB
:101D80002E3240E1602FCE0101960E94BA30BE0192
:101D90006F5F7F4FCE01CD960E942732CE01019614
:101DA0000E942930115001F769EC71E0CE01CD9607
:101DB0000E942E3263E570E089E598E00E9472117E
:101DC00070E060E089E598E00E943D0170E060E02D
:101DD00089E598E00E943D0189E598E00E94F011B4
:101DE00042E063E589E598E00E94EA1189E598E020
:101DF0000E94E51080935C0289E598E00E94E5105E
:101E000080935B0240E160915C02CE0101960E94EA
:101E1000BA30BE016F5F7F4FCE01CD960E94273250
:101E2000CE0101960E94293040E160915B02CE0113
:101E300001960E94BA30BE016F5F7F4FCE01CD96F2
:101E40000E942732CE0101960E94293060E082E193
:101E50000E94F23364E08BEF98E00E9441168111FA
:101E600008C06DE571E081EF9BE00E94A72F109202
:101E7000060181E090E090934608809345086091C8
:101E8000450870914608683C710578F54AE0CE0136
:101E90004C960E941331BE01645E7F4FCE010196C5
:101EA0000E9483316EE871E0CE0101960E945032AB
:101EB000BC0187E498E00E946C31CE0101960E943B
:101EC0002930CE014C960E942930609147087091CC
:101ED00048088BEF98E00E94EC17882331F080913E
:101EE0004508909146080196C6CF609145087091CB
:101EF00046084AE0CE014C960E941331BE01645E52
:101F00007F4FCE0101960E9483316EE871E0CE01D1
:101F100001960E945032BC0187E498E00E946C3127
:101F2000CE0101960E942930CE014C960E942930A4
:101F300015E060E570E080E090E00E94083361E029
:101F40008DE00E94B63361E08DE00E94F23360E5DF
:101F500070E080E090E00E94083360E08DE00E9435
:101F6000F233115031F761E08DE00E94F23340917D
:101F700047085091480823E16BEF78E0CE014C967A
:101F80000E946117CE014C960E94E5146B017C0102
:101F900067EF71E081EF9BE00E94822F2AE030E042
:101FA000B701A60181EF9BE00E94173081E8C816B7
:101FB00083E2D80683E4E806F10408F45BC0CE01AE
:101FC0004C960E94231560914508709146086F5FFA
:101FD0007F4F70934608609345084AE0CE01C7964C
:101FE0000E941331BE01695C7F4FCE0101960E94B1
:101FF00083316EE871E0CE0101960E945032BC013F
:1020000087E498E00E946C31CE0101960E9429304D
:10201000CE01C7960E942930409147085091480848
:1020200023E16BEF78E0CE0101960E9461178B816E
:102030009C819F8F8E8F8D819E81AF81B88588A373
:1020400099A3AAA3BBA389859A85AB85BC858CA3DC
:102050009DA3AEA3BFA3DE011D96FE01B896CE01DF
:10206000C5962D912193E817F907D9F78A8D9B8D95
:102070009EAB8DAB63E971E081EF9BE00E94822F04
:1020800067E478E081EF9BE00E94952FCE014C96AB
:102090000E943515882309F485C0BE01635C7F4F1B
:1020A000CE014C960E94952FCE014C960E9423158E
:1020B000BE01635C7F4F81EF9BE00E94952F61E042
:1020C00082E10E94F23361E084E10E94B63360E075
:1020D00084E10E94F23315E060E570E080E090E07A
:1020E0000E94083361E08EE00E94B63361E08EE02A
:1020F0000E94F23360E570E080E090E00E940833D7
:1021000060E08EE00E94F233115031F760E08CE025
:102110000E94F23360E08DE00E94F23361E082E0E1
:102120000E94B63360E082E00E94F2330FB6F8946A
:10213000A895809160008861809360001092600093
:102140000FBEF894109280008DE08093810087E9A3
:1021500098E99093890080938800109285001092EE
:10216000840082E080936F001092900085E080935D
:10217000910010929500109294007894CE01CD9623
:102180000E942930CE5BDF4F0FB6F894DEBF0FBE42
:10219000CDBFDF91CF911F910F91FF90EF90DF9016
:1021A000CF9008956CE671E081EF9BE00E94A72F2D
:1021B000109206017DCF90E080E00895809189081B
:1021C00090918A08891B990B089590918A088091B3
:1021D00089082FEF3FEF981748F4E92FF0E0E55713
:1021E000F74F208130E09F5F90938A08C9010895DE
:1021F000E0918A0880918908E81730F4F0E0E5570B
:10220000F74F808190E008958FEF9FEF0895089534
:10221000CF93DF931F92CDB7DEB769832091650816
:102220002223F9F020916608203258F021E030E0B6
:10223000FC013383228390E080E00F90DF91CF9107
:10224000089580916708E82FF0E0E859F74F9981E9
:1022500090838F5F809367088093660881E090E0A9
:10226000ECCF61E0CE0101960E94A712F7CFCF928A
:10227000DF92EF92FF920F931F93CF93DF937C0136
:10228000CB018A0120916508222389F0EB016B01C3
:10229000C40ED51ECC15DD0569F06991D701ED910D
:1022A000FC910190F081E02DC7010995F3CF642FD7
:1022B0000E94A712C801DF91CF911F910F91FF904B
:1022C000EF90DF90CF900895CB01BA010C940412E7
:1022D00081E08093650860938808109267081092E7
:1022E000660808950C9468110F93062F21E0409121
:1022F000660868E678E0809188080E94571210927C
:10230000670810926608109265080F9108954F9221
:102310005F926F927F92AF92BF92CF92EF92FF92B5
:102320000F931F93CF93DF935C01F62ED42F2801D8
:102330003901EE2019F10E946811CE2DC43008F049
:10234000C3E0C150B8F028E0C29FC0011124A3012E
:10235000920104C056954795379527958A95D2F7EF
:10236000B901D501ED91FC910190F081E02DC501FD
:102370000995E7CF60E0C5010E9474114D2FD1325D
:1023800008F040E22C2D6BE878E08F2D0E941712A8
:1023900010928A0880938908DF91CF911F910F9145
:1023A000FF90EF90CF90BF90AF907F906F905F9035
:1023B0004F900895CF92EF920F931F93C22EE12C6E
:1023C00000E010E098010E9487111F910F91EF909B
:1023D000CF90089521E00C94DA1121E00C94DA11E9
:1023E00061E00C947411E9E5F8E01382128288EE42
:1023F00093E0A0E0B0E084839583A683B78386E072
:1024000092E09183808308959B01AC0160E072E1CA
:102410008AE790E00E942036205131094109510994
:1024200056954795379527952093B80008954132E2
:10243000E0F59091FA089111FCCF91E09093FA08A1
:102440002093F8082FEF2093AB087093F208609365
:10245000F1081092F008240F2093EF089093F908E8
:102460009091F908880F892B8093F9088091F708DB
:102470008130C9F41092F7088091F9088093BB006D
:102480008091BC0083FDF8CF85EC8093BC008091E7
:10249000FA088130E1F38091F008841710F440913C
:1024A000F008842F089585EEF0CF40E0FACF0F9327
:1024B000413208F044C09091FA089111FCCF92E0AB
:1024C0009093FA080093F8089FEF9093AB087093ED
:1024D000F2086093F1081092F0084093EF08109210
:1024E000F9089091F908880F892B8093F908809159
:1024F000F708813011F51092F7088091F908809360
:10250000BB008091BC0083FDF8CF85EC8093BC00BC
:10251000222321F08091FA088230D1F38091AB0818
:102520008F3F79F08091AB08803269F08091AB08E1
:10253000803359F084E00F91089585EEE7CF81E074
:10254000FACF80E0F8CF82E0F6CF83E0F4CF20919D
:10255000CD08260F3327331F21323105ECF42091AB
:10256000FA08FC0190E080E0243069F082E00895F0
:10257000A091CD082191AC014153574FA40FB52F25
:10258000B11D2C930196861798F38091CD08680FA2
:102590006093CD0880E0089581E0089585ED8093F3
:1025A000BC008091BC0084FDFCCF1092FA08089515
:1025B00085EC8093BC001092FA0808951F920F9248
:1025C0000FB60F9211240BB60F922F933F934F9398
:1025D0005F936F937F938F939F93AF93BF93EF938B
:1025E000FF938091B900887F803609F44EC008F0CF
:1025F00041C0883209F4AAC028F5803109F49EC090
:10260000C8F4882309F407C1883009F497C0FF9102
:10261000EF91BF91AF919F918F917F916F915F915A
:102620004F913F912F910F900BBE0F900FBE0F90C7
:102630001F901895883109F489C0803241F7809342
:10264000AB0815C0803409F4A6C048F48033B9F350
:102650008833E9F68093AB080E94D812D8CF803532
:1026600009F489C0883509F49EC0883481F60E9437
:10267000CE12CDCF883909F494C038F5883729F0C7
:1026800050F4883611F0803711F683E08093FA0811
:102690001092AC0857C0883809F483C0803919F00B
:1026A000803809F0B4CF8091AC08803208F079C04E
:1026B000E091AC0881E08E0F8093AC088091BB0064
:1026C000F0E0E355F74F80833DC0803B39F0E0F404
:1026D000803A09F485C0883A09F099CF84E0809364
:1026E000FA081092CE081092CD08E091F508F0910A
:1026F000F60809958091CD0881110FC081E0809383
:10270000CD081092CF0809C0803C09F482C0883CF3
:1027100009F47FC0883B09F07ACFE091CE0881E0D0
:102720008E0F8093CE08F0E0E153F74F80818093C5
:10273000BB009091CE088091CD0831C08091F908FE
:102740008093BB0085EC8093BC0061CF9091F00832
:102750008091EF089817B8F58091F1089091F208F0
:10276000E091F00821E02E0F2093F008E80FF92FF8
:10277000F11D8081E5CF2091F1083091F208E091C0
:10278000F00881E08E0F8093F0088091BB00E20F8B
:10279000F32FF11D80839091F0088091EF08981736
:1027A00088F285E8D0CF2091F1083091F208E091CD
:1027B000F00881E08E0F8093F0088091BB00E20F5B
:1027C000F32FF11D80838091F808811150CF81E0B3
:1027D0008093F70884EA8093BC001092FA0817CF20
:1027E0000E94D8128091AC08803230F4E091AC089D
:1027F000F0E0E355F74F10826091AC0870E0E09193
:10280000F308F091F4088DEA98E009951092AC086D
:10281000FECE85ECE0CF1092AB0829CFCF93DF93AB
:102820001F92CDB7DEB76983DC01ED91FC91028088
:10283000F381E02D41E050E0BE016F5F7F4F0995CD
:102840000F90DF91CF910895CF93DF93EC01E98D45
:10285000FA8D309749F481E090E09B838A8390E081
:1028600080E0DF91CF91089513821282898D9A8D35
:102870000E949920E98DFA8D22813381232B59F70B
:10288000F0CFFC01818D928D009711F00C94281EE1
:102890000895CF93DF931F92CDB7DEB741E050E0AC
:1028A000BE016F5F7F4F0E944C1C019731F48981FC
:1028B00090E00F90DF91CF9108958FEF9FEFF9CFC8
:1028C000FC01818D928D009711F00C9449148FEFCB
:1028D0009FEF08950F931F93CF93DF93EC01898DA2
:1028E0009A8D10E000E0009799F00E9449148C0145
:1028F0000F3F100769F0898D9A8DFC014285538541
:102900006485758541505109610971090E94941DC2
:10291000C801DF91CF911F910F910895EF92FF921F
:102920000F931F93CF93DF93EC017B018A011B82EE
:102930001A8288EE93E0A0E0B0E08C839D83AE83A2
:10294000BF8388E192E0998388838DE190E00E94C3
:1029500083369A8F898F009779F02DE1F701DC019A
:1029600001900D922A95E1F74CE050E0B801CE01BC
:102970000C960E94B138188EDF91CF911F910F9164
:10298000FF90EF900895FC011382128288EE93E08D
:10299000A0E0B0E084839583A683B78388E192E0CA
:1029A00091838083128E118E14860895DC015996CE
:1029B000ED91FC91309729F062857385848595852A
:1029C00008956FEF7FEFCB010895DC015996ED91EB
:1029D000FC91309729F063897489858996890895D7
:1029E00060E070E0CB010895CF92DF92EF92FF920A
:1029F000CF93DF93FC01218D328D232B09F1EC0164
:102A00000E94E5146B017C01CE010E94D614A7013F
:102A10009601261B370B480B590BDA01C9018115AA
:102A200030E89307A105B10520F08FEF9FE7A0E004
:102A3000B0E0DF91CF91FF90EF90DF90CF900895BD
:102A400090E080E0F6CFCF93DF93EC01898D9A8DF3
:102A5000009741F00E94711E898D9A8D0E941F3748
:102A60001A8E198EDF91CF910895DC015996ED9160
:102A7000FC91309721F081E09581911101C080E0B7
:102A800008951F93CF93DF93CDB7DEB76D970FB641
:102A9000F894DEBF0FBECDBFAB011C821B822CE2BF
:102AA00032E03A8329831E8221E0BC01CE010196E7
:102AB0000E94AC1F11E081110CC010E0812F6D96B7
:102AC0000FB6F894DEBF0FBECDBFDF91CF911F913F
:102AD0000895CE0101960E94711EF0CFEF92FF92F1
:102AE0000F931F93CF93DF937B01DB012D913C91DB
:102AF000FC01E20FF31F60816F3211F42F5F3F4F33
:102B00008C01020F131FEA01F0E0E0E0D8017D9193
:102B10008D017F3249F0772339F02F5F3F4F319697
:102B20007993EC30F10591F7E40FF51F1082FC0169
:102B3000E20FF31F40814F3211F42F5F3F4FF70137
:102B400031832083280F391F81E0D9019C91911195
:102B500001C080E0DF91CF911F910F91FF90EF9026
:102B600008954F925F926F927F928F929F92AF9251
:102B7000BF92CF92DF92EF92FF920F931F93CF936A
:102B8000DF93CDB7DEB7C954D1090FB6F894DEBFD5
:102B90000FBECDBF5C016B013A01490119A218A219
:102BA0008CE292E09F8F8E8F1BA21C821B829A83E5
:102BB00089831E822A961FAE1EAE2A978B017E0144
:102BC0008EE1E80EF11C44244394AE01455C5F4F56
:102BD000BE01685B7F4FC5010E946E15582E482FBD
:102BE00044259401BE01655C7F4FC801F30109953E
:102BF000811120C00C151D05C9F480E0C75BDF4FB3
:102C00000FB6F894DEBF0FBECDBFDF91CF911F91FD
:102C10000F91FF90EF90DF90CF90BF90AF909F907B
:102C20008F907F906F905F904F900895C8010E94A1
:102C3000711EE3CF552091F021E0AE01455C5F4F5E
:102C4000B801C7010E94AC1F582E0C151D0571F06C
:102C5000C8010E94711E51100EC0CFCF0C151D056A
:102C600019F0C8010E94711E81E0C8CF882329F2A3
:102C70008E010F5F1F4F902F812F8701E92EF82EB5
:102C8000A4CF0F931F93CF93DF93EC01162F8FA543
:102C9000882321F0CE018A960E94711E412F61E0A7
:102CA000CE010E940E19811102C090E012C08E0167
:102CB000045F1F4F41E0BE01C8010E94D325882355
:102CC00071F0B801CE018A960E94FC1B91E0882326
:102CD00061F3892FDF91CF911F910F91089540E00B
:102CE000BE01C8010E94D3258823F9F2EACFFC0176
:102CF000DB0112968D919C911397938382838CE2D2
:102D000092E09183808314968C9114978483159616
:102D10008C911597858316964D915D916D917C915F
:102D2000199746835783608771871A964D915D91F5
:102D30006D917C911D9742875387648775871E9696
:102D40004D915D916D917C91519746875787608B2E
:102D5000718B52968C915297828B53964D915D91C7
:102D60006D917C915697438B548B658B768B5796E0
:102D70004D915D916D917C915A97478B508F618FEA
:102D8000728F5B968D919C91948F838F08954F9253
:102D90005F926F927F928F929F92AF92BF92CF92EB
:102DA000DF92EF92FF920F931F93CF93DF93CDB7F4
:102DB000DEB7C754D1090FB6F894DEBF0FBECDBF42
:102DC0005C014A013901665D7F4F7E018EE1E80EAC
:102DD000F11CC7010E9477161C821B828CE292E0D4
:102DE0009A8389831E828401FE0131966F015E2CD5
:102DF0004F2C6FE270E0C8010E949F38009709F4E1
:102E000055C0F80120812F3219F40F5F1F4FF1CF09
:102E1000801B8D3008F08CE0E82EF12CA701B80162
:102E2000CE01CB960E94B138EBE3F0E0EC0FFD1F32
:102E3000EE0DFF1D1082C6010E94711E21E0AE0141
:102E4000455C5F4F652D742DC6010E94AC1F81113A
:102E500021C0F501138212828CE292E0918380837B
:102E60001582C501C95BDF4F0FB6F894DEBF0FBEF8
:102E7000CDBFDF91CF911F910F91FF90EF90DF9029
:102E8000CF90BF90AF909F908F907F906F905F900A
:102E90004F9008950E0D1F1D852D942D0E94711EBB
:102EA000C2015C2C4D2CC92ED82EA3CF08191909AC
:102EB000F30111830083652D742DC5010E947716DF
:102EC000D0CFAF92BF92CF92DF92FF920F931F931A
:102ED000CF93DF93CDB7DEB7C955D1090FB6F894BC
:102EE000DEBF0FBECDBF6C015B018A01F22E9E01D9
:102EF000285A3F4FCE01CB960E94C7166A968EADD8
:102F00009FAD6A97080F191FF8018081811110C0C9
:102F1000BE01655C7F4FCE0101960E94771646E2A6
:102F200052E0BE016F5F7F4FC6010E948E140FC03A
:102F300019A218A28CE292E09F8F8E8F1BA221967D
:102F40008FAD2197811115C0C6010E94C314C6011F
:102F5000C75ADF4F0FB6F894DEBF0FBECDBFDF916B
:102F6000CF911F910F91FF90DF90CF90BF90AF90C6
:102F7000089582508230F8F4B501665D7F4F2F2DA1
:102F8000A801CE014E960E94AC1F8823E9F28F2D36
:102F9000867041F049A95AA96BA97CA9CE014E9629
:102FA0000E94941DBE01625E7F4FCE0101960E9479
:102FB0007716A801B6CF2F2DA801BE01655C7F4F03
:102FC000CE014E960E94AC1F882309F4BDCFCE01DE
:102FD000CB960E94711EDBCFFB01BC01665D7F4F6B
:102FE00030E020E041E455E1CF010C94B115EBEF66
:102FF000F8E0158216821186138682E090E0A0E048
:10300000B0E084879587A687B78713A215A614A674
:103010008CE292E093A782A717A608959FB7F89431
:103020002091520B8091500B213019F48DBB9FBF22
:1030300008958FBF08952091520B222381F03FB74E
:10304000F8942091520B213069F42DB32093500B4A
:103050004DB32091510B209524232DBB3FBF8CBD38
:103060009DBD08953093500BFACF8EBD00000DB476
:1030700007FEFDCF8EB508958FEF0C94351861E0F3
:10308000FC0184810E94F23380914409882339F045
:10309000109244098091520B81110C940E180895DE
:1030A000CF93DF93EC0180914409811109C081E045
:1030B0008093440980914509909146090E941B180C
:1030C00060E08C81DF91CF910C94F233CF93DF934A
:1030D000EC018E81882389F08F8198859C012F5F78
:1030E0003F4F38872F838230924018F40E943C185B
:1030F000F3CFCE010E943F181E82DF91CF91089539
:10310000673028F026E1FC01258380E008956230D5
:1031100079F038F06430A9F090F06530A1F082E5E4
:1031200008C080E58093450981E0809346090895B1
:1031300080E5809345091092460981E0089581E574
:10314000F1CF81E5F6CF82E5EDCF0F931F93CF93BB
:10315000DF93EB010E94D7328B010E943C188F3F16
:1031600069F00E94D732601B710B6C177D07A8F3C2
:1031700080E0DF91CF911F910F91089581E0F9CF09
:103180008F929F92AF92BF92FF920F931F93CF9314
:10319000DF93EC01F62E49015A010E946618CE0118
:1031A0000E9450186CE271E0CE010E94A5188F2D8C
:1031B00080640E94351808E110E0D501C401002E9A
:1031C00004C0B695A795979587950A94D2F70E9463
:1031D000351808501109083F8FEF180771F785E976
:1031E000FF2021F088E0F8120DC087E80E94351812
:1031F00010E00E943C188A8787FF06C01F3F21F01D
:103200001F5FF7CF8FEFF2CFDF91CF911F910F911B
:10321000FF90BF90AF909F908F9008958F929F9254
:10322000AF92BF92EF92FF920F931F93CF93DF93D2
:10323000EC01E62E1B8619861E821D824C830E949D
:10324000D7328B0161E08C810E94B63361E08C81C2
:103250000E94F2330E94F32682E58093450981E0C3
:103260008093460980914509909146090E941B1858
:103270002AE0F22E8FEF0E943518FA94F110FACF5F
:103280008091520B81110E940E18CE010E9450189D
:1032900020E030E0A90160E0CE010E94C018F82EC5
:1032A0008A8781E0F816C1F00E94D732601B710B4B
:1032B000613D774068F381E08D83CE010E943F1825
:1032C00080E0DF91CF911F910F91FF90EF90BF9021
:1032D000AF909F908F9008952AEA31E040E050E04F
:1032E00068E0CE010E94C01882FF25C0FB868B8556
:1032F000812C912C5401823029F4812C912CA12C09
:1033000080E4B82E20E030E0A90167E3CE010E94FE
:10331000C018A501940169E2CE010E94C0188A87F5
:103320008823C1F00E94D732601B710B613D77404A
:1033300048F388E0C1CF94E0F92E0E943C188A87B8
:10334000FA94F110FACF8A3A11F082E0B5CF82E018
:103350008B87CDCF8B858230C1F420E030E0A9018E
:103360006AE3CE010E94C018882311F086E0A4CF42
:103370000E943C18807C803C11F483E08B870E9483
:103380003C180E943C180E943C18CE010E943F1835
:103390006E2DCE01DF91CF911F910F91FF90EF9095
:1033A000BF90AF909F908F900C9480180F931F93B5
:1033B000CF93DF93EC010E94D7328B010E943C181F
:1033C0008A878F3F91F40E94D732601B710B6D3258
:1033D0007140A0F38FE08D83CE010E943F1880E002
:1033E000DF91CF911F910F9108958E3F11F08DE0E5
:1033F000F2CF81E0F5CFCF92DF92EF92FF920F9361
:103400001F93CF93DF93EC016901C801820F931FD3
:103410008130924048F58E81882371F088819981AE
:10342000AA81BB8184179507A607B70729F48F8166
:103430009885C816D90670F5488359836A837B83BB
:103440008B85833039F089E0440F551F661F771F45
:103450008A95D1F79A01AB0161E1CE010E94C018B3
:10346000882379F083E08D83CE010E943F1880E0AD
:10347000DF91CF911F910F91FF90EF90DF90CF9050
:103480000895CE010E94D619882371F318861F82F1
:1034900081E08E838F8198858C159D0560F0670192
:1034A000E00EF11EEC14FD0471F00E943C18F601D0
:1034B00081936F01F7CF0E943C188F819885019608
:1034C00098878F83E7CF8F819885080F191F1887FA
:1034D0000F838985882319F00115124018F0CE0159
:1034E0000E94661881E0C4CFEF92FF920F931F9362
:1034F0000115110539F00E94FB191F910F91FF90E2
:10350000EF90089581E0F9CFEF92FF920F931F9310
:10351000790100E012E030E020E00E94FB191F91E9
:103520000F91FF90EF900895EF92FF920F931F93EA
:10353000CF93DF938C01862F7A010E943518E70123
:103540008EEFF81A89910E943518CE15DF05D1F754
:103550008FEF0E9435188FEF0E9435180E943C189B
:10356000F80182878F71853069F081E18583C80118
:103570000E943F1880E0DF91CF911F910F91FF9043
:10358000EF90089581E0F7CF0F931F93CF93DF93D0
:10359000EC01890182E1411551056105710599F040
:1035A0008B85833039F089E0440F551F661F771FE4
:1035B0008A95D1F79A01AB0168E1CE010E94C0184B
:1035C000882339F084E08D83CE010E943F1880E08B
:1035D00023C0A8016EEFCE010E94941A8823A1F3A4
:1035E00068E572E0CE010E94A518811102C085E154
:1035F000EACF20E030E0A9016DE0CE010E94C018C2
:10360000882311F084E1DFCF0E943C188111FACFAA
:10361000CE010E943F1881E0DF91CF911F910F9161
:103620000895E5E4F9E080E5808381E081830895F1
:103630000895CF93DF93EC019C012A5F3F4F41E057
:1036400050E060E070E08B8D9C8D0E947224882396
:10365000A1F08F89988DA98DBA8D892B8A2B8B2B00
:1036600059F48E819F81A885B9858F8B988FA98FFA
:10367000BA8F8C8180688C8381E0DF91CF9108952F
:103680008F929F92AF92BF92CF92DF92EF92FF9272
:10369000CF93DF93EC010E94191B81110CC080E0D5
:1036A000DF91CF91FF90EF90DF90CF90BF90AF90E0
:1036B0009F908F900895EB8DFC8DCE80DF80E88405
:1036C000F98482E0C81AD108E108F108858504C0B0
:1036D000CC0CDD1CEE1CFF1C8A95D2F786859785E5
:1036E000A089B189C80ED91EEA1EFB1E848146013D
:1036F0005701880E911CA11CB11C8C149D04AE04B2
:10370000BF0461F081E0881A9108A108B108C501E1
:10371000B4010E94C0228111F0CFC1CFEB8DFC8D8E
:10372000258580E092E0A0E0B0E004C0880F991FFA
:10373000AA1FBB1F2A95D2F74B895C896D897E89A8
:10374000840F951FA61FB71F8B8B9C8BAD8BBE8BD9
:1037500081E0A6CFCF93DF93EC01462F6E857F8566
:10376000888999890E948522882351F08A8920E2DC
:10377000829FC0011124805B964FDF91CF91089505
:1037800090E080E0FACFFB019B01255F3F4F40E2D4
:1037900041932E173F07E1F7DC0120E037E09D91D0
:1037A000492F992319F19E3229F43A3059F028E033
:1037B0003AE0F5CFE6E8F1E08491882329F03196EC
:1037C0009813FACF80E017C03217A8F05FED590FB9
:1037D0005E3588F48FE9890F8A3110F440EE490F85
:1037E000FB01E20FF11D40832F5FD9CF81E0FB0188
:1037F0009081903239F308950F931F93CF93DF9305
:10380000FC012581222331F080E0DF91CF911F91CF
:103810000F9108958B01EC01FB018789803139F507
:1038200082E08D831F8A188E198E1A8E808D918D5D
:10383000B0E0A0E025E0880F991FAA1FBB1F2A95C2
:10384000D1F78B8B9C8BAD8BBE8B1C8F0B8F81E04C
:103850008C831E821F82188619861A861B861C86F8
:103860001D861E861F86188A198A1A8ACECF803234
:1038700059F683E08D83428D538D648D758D4F8B0A
:10388000588F698F7A8F9E012D5E3F4FC8010E942D
:1038900065238111DACFB8CF2F923F924F925F927A
:1038A0006F927F928F929F92AF92BF92CF92DF9250
:1038B000EF92FF920F931F93CF93DF93EC015B0185
:1038C0002A018D81811115C08FEF9FEFDF91CF917C
:1038D0001F910F91FF90EF90DF90CF90BF90AF902E
:1038E0009F908F907F906F905F904F903F902F9020
:1038F00008958C8180FFE8CF0B891C892D893E8932
:103900004A855B856C857D85C201B0E0A0E06801D9
:103910007901C41AD50AE60AF70AC816D906EA06D2
:10392000FB0618F42801441A550A42011E0126E03C
:10393000220E311C8114910409F4B3C04A855B85C1
:103940006C857D856A0181E0D8228B8D9C8D8A01F2
:103950009B01E9E03695279517950795EA95D1F7EC
:10396000ED81E230E1F5FC01628D738D848D958DE2
:10397000600F711F821F931F612C22E0722E6C1842
:103980007D088614970408F434012C8126FD04C0B8
:103990006114F2E07F0671F40091070110910801B3
:1039A0002091090130910A010617170728073907E6
:1039B00009F053C040E00E948522882309F484CF97
:1039C000C601805B964FD5019C01260D371DFC0179
:1039D0002E173F0709F460C041914D93F9CFFC01C8
:1039E00074807A947022C114D10471F471100CC0E7
:1039F000452B462B472B39F58F89988DA98DBA8D8C
:103A00008E839F83A887B987EB8DFC8D6E817F8124
:103A1000888599856250710981099109258504C0BD
:103A2000660F771F881F991F2A95D2F7068517857D
:103A300020893189600F711F821F931F670D711DCF
:103A4000811D911D99CF4E815F8168857985910196
:103A50000E94E4228111D8CF37CF750183019601EE
:103A6000AB01BC0180914E0990914F090E94741ADC
:103A7000882309F429CFA60CB71C8A859B85AC85C1
:103A8000BD85860D971DA11DB11D8A879B87AC87BB
:103A9000BD87861897084ECF281B390BA20EB31E80
:103AA000ECCFC20113CFFF920F931F93CF93DF93FD
:103AB0001F92CDB7DEB7FC0125812230C8F08C0102
:103AC000428553856485758585E07695679557951C
:103AD00047958A95D1F7F42FFF70FF2E41E050E013
:103AE000BE016F5F7F4FC8010E944C1C019719F007
:103AF00090E080E012C0F80182859385A485B585A9
:103B00004F96A11DB11D82879387A487B587F0E2E8
:103B1000FF9EC0011124805B964F0F90DF91CF91E3
:103B20001F910F91FF9008958F929F92AF92BF9235
:103B3000CF92DF92EF92FF920F931F93CF93DF9379
:103B4000EC018D8181110EC080E0DF91CF911F913A
:103B50000F91FF90EF90DF90CF90BF90AF909F902C
:103B60008F9008950B891C892D893E8904171507AC
:103B70002607370748F34A015B01823031F48A8611
:103B80009B86AC86BD8681E0E0CF81149104A104C0
:103B9000B10449F41E821F82188619861A861B8674
:103BA0001C861D86F0CF0A851B852C853D85EB8DF7
:103BB000FC8D858590E00996B901A8014150510915
:103BC00061097109082E04C0769567955795479548
:103BD0000A94D2F775016401E1E0CE1AD108E10838
:103BE000F10804C0F694E794D794C7948A95D2F765
:103BF000C416D506E606F70620F0012B022B032B90
:103C000011F58F89988DA98DBA8D8E839F83A88792
:103C1000B9878E010A5F1F4FC114D104E104F1047A
:103C200009F4ADCF4E815F816885798598018B8DD0
:103C30009C8D0E94E42291E0C91AD108E108F108A4
:103C40008111EACF81CFC41AD50AE60AF70AE1CF7B
:103C50000F931F93CF93DF93EC018D818823D9F1CC
:103C60008C8187FF32C061E0CE010E94AA1B8C01CB
:103C7000892B89F18D81823048F48B899C89AD89AB
:103C8000BE89F801848F958FA68FB78F8F89988D05
:103C9000F801938F828F8F89988DA98DBA8DB58BFE
:103CA000A48BE0914709F0914809309759F0B80189
:103CB0006A5E7F4FC80148960995F801808D918D05
:103CC000938B828B8C818F778C83DF91CF911F9127
:103CD0000F910C944A2280E0DF91CF911F910F91B8
:103CE0000895CF93DF93EC010E94281E882311F0E2
:103CF0001D8281E0DF91CF9108954F925F926F9284
:103D00007F928F929F92AF92BF92EF92FF920F930A
:103D10001F93CF93DF9300D000D0CDB7DEB7FC0167
:103D200085818130A1F080E00F900F900F900F906F
:103D3000DF91CF911F910F91FF90EF90BF90AF90C7
:103D40009F908F907F906F905F904F9008958481A7
:103D500081FFE9CF83899489A589B689841795075E
:103D6000A607B70700F3892B8A2B8B2B09F477C0A2
:103D70004A015B017F014284538464847584CF01CE
:103D80000E94941D882379F2F701838D948D81140C
:103D90009104A104B10449F54789508D618D728D5C
:103DA0000E947D25882309F4BECFF701178A108E63
:103DB000118E128EF701838A948AA58AB68A84812D
:103DC00080688483C7010E94281E882309F4ABCF32
:103DD000B501A401441655066606770610F4B30132
:103DE000A201C7010E94941D9FCF46815781608523
:103DF00071859E012F5F3F4F0E94E422882309F4C2
:103E000092CFF701838D948D49815A816B817C819A
:103E1000FC0127892031F1F408EF1FEF20E030E0AA
:103E2000401751076207730728F60E947D258823F3
:103E300009F479CFF70146815781608571850FEFCD
:103E40001FEF2FEF3FE0838D948D0E94D0238111CF
:103E5000B1CF69CF08EF1FEF2FEF3FE0E1CF81E057
:103E600063CFCF92DF92EF92FF921F93CF93DF93B6
:103E7000EC0180E2689FF0011124E05BF64F93852E
:103E8000917161F0842F827449F080E0DF91CF91CD
:103E90001F91FF90EF90DF90CF900895142F6A8BC1
:103EA0008091070190910801A0910901B0910A0148
:103EB0008E879F87A88BB98BC488D588F12CE12C7D
:103EC0007601DD24CC24CF8AD88EE98EFA8E828DBD
:103ED000938DB0E0A0E0AC01BD014C295D296E29B5
:103EE0007F294F8B588F698F7A8F8385887129F549
:103EF000848D958DA68DB78D8B8B9C8BAD8BBE8B5A
:103F000081E08D83812F8F708C831E821F821886A3
:103F100019861A861B861C861D8681E016FFB6CF81
:103F200040E050E0BA01CE01DF91CF911F91FF90A8
:103F3000EF90DF90CF900C947D1E803109F0A5CFDB
:103F40009E012D5E3F4F8B8D9C8D0E9465238823A3
:103F500009F49BCF84E0D5CFBF92CF92DF92EF924E
:103F6000FF920F931F93CF93DF93CDB7DEB72B97BD
:103F70000FB6F894DEBF0FBECDBFFC013581311105
:103F80000BC0C22E8B017C01BE016F5F7F4FCA0147
:103F90000E94C31B811102C080E0A1C0F801838D83
:103FA000948DF701948F838FF80116821782108603
:103FB00011861286138614861586B12CF801828527
:103FC0009385A485B5854389548965897689841745
:103FD0009507A607B70788F525E0B695A7959795A5
:103FE00087952A95D1F7F82FFF70DF2EC8010E9420
:103FF000531D009789F2FC012081222341F0253EC8
:1040000009F059C0BB2029F0BB24B394D7CFB1101D
:104010000EC0F701D28A40910701509108016091CA
:10402000090170910A0146875787608B718BFC01EB
:1040300080818111E9CFBB24B3948C2D82718231B0
:1040400009F0AACFBB2009F45AC061E0C7010E9461
:10405000AA1B8C01892B09F49FCF80E2F8011192F1
:104060008A95E9F78BE0FE013196D80101900D9217
:104070008A95E1F7E0914709F0914809309709F4F2
:104080004EC0B801625F7F4FC80140960995F801A4
:1040900080899189938B828B918F808F868597857C
:1040A000978B868B0E944A22882309F475CF4C2D6A
:1040B000F701628911C04BE050E0BC01CE010196CE
:1040C0000E948938892B09F079CF8C2D80734C2D73
:1040D0006D2D803309F460CFC7010E94311F2B96EC
:1040E0000FB6F894DEBF0FBECDBFDF91CF911F9109
:1040F0000F91FF90EF90DF90CF90BF900895F8015F
:104100008581823009F448CFC8010E94401B882372
:1041100009F442CFF701128A00E519E09ECF81E24F
:1041200098E2F801918B808B80E098E097878687F2
:10413000AECF2F923F924F925F926F927F928F926B
:104140009F92AF92BF92CF92DF92EF92FF920F9326
:104150001F93CF93DF9300D000D0CDB7DEB78C0193
:104160006B011A01DC0115968C911597813009F0CD
:10417000C8C014968C9181FFC4C082FDAEC04101BD
:10418000D8011A964D915D916D917C911D97811486
:10419000910409F429C15B968D919C915C97FC0177
:1041A00074802FEF270D2A013B0139E07694679444
:1041B000579447943A95D1F7722E74207A01F1E022
:1041C000FF22711020C0E114F104E9F416964D911C
:1041D0005D916D917C9119974115510561057105AE
:1041E00009F098C057968D919D910D90BC91A02D8E
:1041F0000097A105B10509F0AFC0C8010E94191BC5
:10420000882309F47EC080E092E08E199F09540152
:104210008815990508F45C01D8015B964D915C9175
:104220005C9716968D919D910D90BC91A02D029753
:10423000A109B109FA01258504C0880F991FAA1F99
:10424000BB1F2A95D2F74685578560897189840FEF
:10425000951FA61FB71F9C01AD01270D311D411DE4
:10426000511D29013A01A11432E0B30609F07AC0C8
:104270008091070190910801A0910901B0910A0174
:1042800084159505A605B70559F48FEF9FEFDC015E
:104290008093070190930801A0930901B0930A014C
:1042A0009601B301A20180914E0990914F090E949D
:1042B000C41A882331F19EEFD91A8A189B08F80195
:1042C00082859385A485B5858A0D9B1DA11DB11D91
:1042D00082879387A487B58753CFF8014389548990
:1042E0006589768982859385A485B58548175907A0
:1042F0006A077B0709F443CFC8010E94941D81110E
:104300003ECF81E090E0D80113969C938E93129754
:1043100080E007C09E012F5F3F4F0E94E422811181
:1043200002C090E07BC089819A81AB81BC81F80199
:10433000238D348DF901278948EF5FEF60E070E04D
:10434000203121F048EF5FEF6FEF7FE08417950792
:10435000A607B70708F051CFF80186839783A08797
:10436000B18751CFE114F10491F5D8011A964D911E
:104370005D916D917C911D9753968D919D910D90BE
:10438000BC91A02D481759076A077B0700F10E94CE
:104390004A22882309F4B5CF4092070150920801C0
:1043A0006092090170920A0180914D0981608093A9
:1043B0004D099701205B364FD601C9018A0D9B1D1F
:1043C000F9018E179F0759F04D914193FACF41E0C3
:1043D000C301B2010E9485228111EBCF92CF821BD3
:1043E000930BC80ED91E69CF14968C9114975396CF
:1043F000CD90DD90ED90FC905697C416D506E6065C
:10440000F70618F5F801438B548B658B768B806823
:104410008483F801848183FD25C0C1010F900F9032
:104420000F900F90DF91CF911F910F91FF90EF9020
:10443000DF90CF90BF90AF909F908F907F906F90C4
:104440005F904F903F902F900895209147093091B1
:104450004809232BF1F221143104D9F28068149613
:104460008C93D7CFC8010E94281E882309F449CF16
:10447000D4CFCF93DF931F92CDB7DEB7698341E0EE
:1044800050E0BE016F5F7F4F0E9499200F90DF9137
:10449000CF91089580914D098823A9F1409107019A
:1044A000509108016091090170910A0120E539E0FD
:1044B00080914E0990914F090E94C41A811102C047
:1044C00080E008954091490950914A0960914B0953
:1044D00070914C09411551056105710591F020E578
:1044E00039E080914E0990914F090E94C41A8823A7
:1044F00039F31092490910924A0910924B0910920F
:104500004C0910924D0981E00895CF92DF92EF920D
:10451000FF92CF936B017C01C42F80910701909192
:104520000801A0910901B0910A018C159D05AE0505
:10453000BF05F9F00E944A22811107C080E0CF91A7
:10454000FF90EF90DF90CF90089520E539E0B7011C
:10455000A60180914E0990914F090E94841A8823E8
:1045600069F3C0920701D0920801E0920901F0922C
:104570000A0140914D094C2B40934D0981E0DFCF5A
:10458000CF92DF92EF92FF926B017C010E944A2250
:104590008823A9F0E0E5F9E011928BE0E035F80717
:1045A000D9F7C0920701D0920801E0920901F09278
:1045B0000A0180914D09816080934D0981E0FF904F
:1045C000EF90DF90CF9008958F929F92AF92BF921D
:1045D000CF92DF92EF92FF920F931F93CF93DF93CF
:1045E000FC0181859285A385B4850196A11DB11D2D
:1045F00084179507A607B70770F480E0DF91CF9185
:104600001F910F91FF90EF90DF90CF90BF90AF90F0
:104610009F908F90089583889488A588B68887890D
:10462000803189F5BB27A72F962F852FE9016A01D5
:104630007B018F01BC01CD01680D791D8A1D9B1D79
:104640008090070190900801A0900901B0900A01A4
:1046500086169706A806B90601F5F8018789803104
:1046600011F5DD24EE24FF24F601EE0FFF1FE05BC1
:10467000F64F80819181B0E0A0E088839983AA837E
:10468000BB8381E0BBCFDB01CA01C7E0B695A7952C
:1046900097958795CA95D1F7C9CF40E00E948522AA
:1046A0008111DBCFAACFE894C7F8DD24EE24FF24E4
:1046B000F601EE0FFF1FEE0FFF1FE05BF64F80814C
:1046C0009181A281B381BF70D8CF4F925F926F92D8
:1046D0007F92AF92BF92CF92DF92EF92FF920F93B1
:1046E0001F93CF93DF9300D000D0CDB7DEB78C01FE
:1046F00049835A836B837C835901C12CD12C760169
:10470000412C82E0582E612C712C49815A816B8199
:104710007C819E012F5F3F4FC8010E94E4228823C5
:1047200039F1F8018585A301920104C0220F331FDE
:10473000441F551F8A95D2F7DA01C901C80ED91E48
:10474000EA1EFB1E49815A816B817C8187898031F9
:1047500011F188EF9FEFAFEFBFE0481759076A07E5
:104760007B0798F2F501C082D182E282F38281E078
:104770000F900F900F900F90DF91CF911F910F919D
:10478000FF90EF90DF90CF90BF90AF907F906F90B1
:104790005F904F90089588EF9FEFA0E0B0E0DDCFED
:1047A0004F925F926F927F928F929F92AF92BF9241
:1047B000CF92DF92EF92FF920F931F93CF93DF93ED
:1047C000EC01423051056105710590F480E0DF9104
:1047D000CF911F910F91FF90EF90DF90CF90BF90FE
:1047E000AF909F908F907F906F905F904F900895C3
:1047F00089859A85AB85BC850196A11DB11D84175D
:104800009507A607B70710F3CB88DC88ED88FE88EC
:104810008F89803109F042C0BB27A72F962F852FA3
:10482000480159012A013B01C80ED91EEA1EFB1E90
:104830008091070190910801A0910901B0910A01AE
:10484000C816D906EA06FB0699F58F898031C1F5AD
:10485000B301A201552766277727440F551F405BF8
:10486000564FFA019182808280914D098160809338
:104870004D098A89823080F08D819E81AF81B88513
:104880008C0D9D1DAE1DBF1D8093490990934A0953
:10489000A0934B09B0934C0981E099CFDB01CA0189
:1048A000E7E0B695A79597958795EA95D1F7B8CFA4
:1048B00040E0C701B6010E9485228111C6CF86CF94
:1048C000B301A2014F77552766277727440F551F5D
:1048D000440F551F405B564FFA0180829182A2829D
:1048E000B382C2CF2F923F924F925F926F927F928C
:1048F0008F929F92AF92BF92CF92DF92EF92FF92F0
:104900000F931F93CF93DF93CDB7DEB72F970FB6DB
:10491000F894DEBF0FBECDBF3C01488759876A8738
:104920007B873F832E83D901CD90DD90ED90FC9065
:10493000C114D104E104F10439F0BFEFCB1ADB0A52
:10494000EB0AFB0A1D8210C0FC01C080D180E2800E
:10495000F380F1E0FD83088519852A853B850130C8
:1049600011052105310571F7F30181859285A38534
:10497000B4858C019D010F5F1F4F2F4F3F4F0C8758
:104980001D872E873F8746015701212C312C21019D
:10499000F30181859285A385B485281639064A06D8
:1049A0005B0608F044C00C851D852E853F850815E3
:1049B00019052A053B0550F482E0882E912CA12C84
:1049C000B12C92E0C92ED12CE12CF12C9E012F5F4D
:1049D0003F4FB501A401C3010E94E422882339F1AD
:1049E000D501C4010196A11DB11D49815A816B8178
:1049F0007C81452B462B472BA9F5AC01BD014C19F9
:104A00005D096E097F09088519852A853B85401750
:104A100051076207730741F50FEF1FEF2FEF3FE0DC
:104A2000B501A401C3010E94D023811125C01D82BC
:104A30008D812F960FB6F894DEBF0FBECDBFDF91EC
:104A4000CF911F910F91FF90EF90DF90CF90BF908B
:104A5000AF909F908F907F906F905F904F903F901E
:104A60002F9008956C017D011FEF211A310A410A30
:104A7000510A4C015D018CCFC814D904EA04FB042F
:104A800088F41401250121E0221A31084108510857
:104A900095018401B201A101C3010E94D0235201FA
:104AA0004101C3CFAE81BF814D915D916D917C91EC
:104AB000411551056105710561F4EE81FF81C082E8
:104AC000D182E282F382FD81F1110BC001E00D83FE
:104AD000AFCF97018601C3010E94D0238111EDCF92
:104AE000A6CF1FEFC11AD10AE10AF10AD301CD9274
:104AF000DD92ED92FC9213979BCFAF92BF92CF9233
:104B0000DF92EF92FF920F931F93CF93DF9300D02A
:104B100000D0CDB7DEB75C016A017B0182E090E096
:104B2000A0E0B0E0F50180839183A283B3839E016E
:104B30002F5F3F4FB701A601C5010E94E4228823E1
:104B400081F100E010E09801B701A601C5010E94C3
:104B5000D023882331F1C980DA80EB80FC80F50115
:104B600087898031C9F088EF9FEFAFEFBFE0C816AB
:104B7000D906EA06FB06D8F281E00F900F900F905D
:104B80000F90DF91CF911F910F91FF90EF90DF90E9
:104B9000CF90BF90AF90089588EF9FEFA0E0B0E076
:104BA000E6CF80E0EACF8F929F92AF92BF92CF92F2
:104BB000DF92EF92FF920F931F93CF93DF93EC015D
:104BC000142F70934F0960934E09442309F478C061
:104BD000453070F080E0DF91CF911F910F91FF90F1
:104BE000EF90DF90CF90BF90AF909F908F900895FF
:104BF00040E060E070E0CB010E948522882351F301
:104C0000812F8150990BAC0164E0440F551F6A95C8
:104C1000E1F7405B564FFA01E254FE4F80818F77F7
:104C2000C9F63C9680819181A281B3818436910539
:104C3000A105B10578F24A535E4FFA01C080D180D8
:104C4000E280F380C114D104E104F10419F240E0E0
:104C5000C701B6010E948522882309F4BBCF809149
:104C60005B0990915C098115924009F0B3CF909156
:104C70006009992309F4AECF20915E0930915F0954
:104C8000232B09F4A7CF80915D09882309F4A2CFD3
:104C90009A8B8C831D8690E041E050E02D85E22FB9
:104CA000BA01022E02C0660F771F0A94E2F7861738
:104CB000970751F031E0320F3D87283078F38ACFE3
:104CC000C12CD12C7601C3CF2091660930916709A0
:104CD00050E040E02115310541F4209174093091F4
:104CE000750940917609509177092D833E834F8352
:104CF000588780915E0990915F0946015701880E9F
:104D0000991EA11CB11C8B8A9C8AAD8ABE8A009117
:104D1000610910916209198F088FA0916009B0E0B4
:104D20000E945A36DC01CB01880D991DAA1DBB1DBE
:104D30008A8F9B8FAC8FBD8F25E0000F111F2A95A6
:104D4000E1F701501E4F012F11270695800F911F8B
:104D5000A11DB11D8E879F87A88BB98B0091630918
:104D60001091640930E020E00115110541F4009133
:104D70007009109171092091720930917309C81A54
:104D8000D90AEA0AFB0AC00ED11EE21EF31E04C0B5
:104D9000F694E794D794C794EA95D2F7C986DA8651
:104DA000EB86FC868CE025EFC2162FE0D206E104EC
:104DB000F10440F085EFC8168FEFD806E104F10446
:104DC00020F480E18F8B81E006CF80917C09909167
:104DD0007D09A0917E09B0917F098A8F9B8FAC8F4E
:104DE000BD8F80E2EFCFCF93CFB7F8948091530B74
:104DF000811127C0EAEDF1E08491EAEBF1E09491B2
:104E0000E82FF0E0EE0FFF1FE65FFD4FA591B49194
:104E1000EC91E92321F461E084E00E94F23361E047
:104E200084E00E94B6338CB580618CBD8CB5806403
:104E30008CBD61E087E00E94B63361E085E00E94AE
:104E4000B6338091530B8F5F8093530BCFBFCF91BD
:104E50000895CF93DF93EC016A818A8D9B8D0E9428
:104E600068118A8D9B8D0E94F011282F30E021154A
:104E7000310511F084E8898F81E0232B09F080E06F
:104E8000DF91CF910895CF92DF92EF92FF920F932F
:104E90001F93CF93DF93EC01F62EE42EC52E462F01
:104EA0006A818A8D9B8D0E94EA118F111FC0DE2CB2
:104EB0000E2D1C2D802F8D198F1568F48A8D9B8DDA
:104EC000DC01ED91FC910284F385E02D0995F80158
:104ED00081938F01EFCF198E81E0DF91CF911F91E8
:104EE0000F91FF90EF90DF90CF90089582E8898F27
:104EF00080E0F3CFDC01ED91FC910190F081E02D99
:104F000009940F931F93CF93DF93EC018B016A8178
:104F10008A8D9B8D0E946811612F70E08A8D9B8D18
:104F20000E947A27B80177278A8D9B8D0E947A2765
:104F30008A8D9B8D0E94F011882341F081E8898F32
:104F400080E0DF91CF911F910F910895198E81E03C
:104F5000F8CFFC0188E392E0918380836283538FD2
:104F6000428F1482158216821782108E178A168A33
:104F7000158A13821486158616861786108A118A5A
:104F8000128A138A148A118E0895CF93DC01ED9151
:104F9000FC910280F381E02D61110FC062EA70E3A1
:104FA0000995C82F882331F061E070E080E090E03F
:104FB0000E9408338C2FCF91089566E070E0F0CF07
:104FC000FC0192819454923020F460E0CF010C9463
:104FD000C52780E00895FB018FEF21E3442369F0AA
:104FE0009191892798E087FF06C0880F822791500A
:104FF000D1F74150F3CF880FFACF0895EF92FF9287
:105000000F931F93CF93DF9300D000D000D0CDB784
:10501000DEB78C01E62EDC01ED91FC910480F58178
:10502000E02DAE014F5F5F4F66E00995F82E8823B3
:1050300081F0E1102BC0EB8042E0BE016F5F7F4F3B
:10504000C8010E94EB27E81691F085E8F801818FEE
:10505000F12C8F2D26960FB6F894DEBF0FBECDBF74
:10506000DF91CF911F910F91FF90EF900895EE8007
:1050700042E0BE016C5F7F4FC8010E94EB27E8163B
:1050800029F086E8D80159968C93E2CF898190E087
:10509000982F88272A81820F911DF801908F878B86
:1050A0008C8190E0982F88272D81820F911D968BFF
:1050B000858B0E94D732D80114966D937D938D9382
:1050C0009C931797C6CF1F93CF93DF93EC01162FB6
:1050D000E881F9810280F381E02D60E074E2112320
:1050E00011F066E174E2CE010995882399F06FE032
:1050F00070E080E090E0112321F064E070E080E057
:1051000090E00E940833612FCE01DF91CF911F9173
:105110000C94FE2780E0DF91CF911F910895FC0150
:10512000608352AF41AF88E0818389E19CEFAFEFAC
:10513000BFEF82839383A483B58386839783A087FD
:10514000B187938B828B10AA11AA12AA13AA14AA50
:1051500015AA16AA17AA128613861486158616860D
:105160001786108A118A81E080AF0895CF93DF936C
:10517000EC01688189AD9AAD0E94681189AD9AAD44
:105180000E94F01191E0811190E0892FDF91CF9181
:1051900008958F929F92AF92BF92CF92DF92EF923B
:1051A000FF92FC0186849784A088B1886281738114
:1051B000848195810E94F3342AE037ED43E25CE379
:1051C0000E94A3356B017C0120E030E0A901C501FC
:1051D000B4010E94B634882341F0A5019401C701AF
:1051E000B6010E944A346B017C01C701B601FF90F1
:1051F000EF90DF90CF90BF90AF909F908F900895E9
:105200008F929F92AF92BF92CF92DF92EF92FF92D6
:10521000FC0182849384A484B5846681778180852F
:1052200091850E94F3342AE037ED43E25CE30E946B
:10523000A3356B017C0120E030E0A901C501B40178
:105240000E94B634882341F0A5019401C701B6013C
:105250000E944A346B017C01C701B601FF90EF90B8
:10526000DF90CF90BF90AF909F908F9008951F9345
:10527000CF93DF93EC01162F0E947C32688189ADB9
:105280009AAD0E94681189AD9AADDC01ED91FC9157
:105290000190F081E02D612F099589AD9AAD0E94B2
:1052A000F01190E09B8B8A8BDF91CF911F91089535
:1052B0008F929F92AF92BF92CF92DF92EF92FF9226
:1052C0001F93CF93DF93CDB7DEB72A970FB6F8942D
:1052D000DEBF0FBECDBF9C019AE0EBE0F1E0DE0146
:1052E000119601900D929A95E1F74D3070F14CE0D6
:1052F00018EF140F912F990F690FC9010E943729D8
:10530000412F50E0440F551F81E090E08C0F9D1F0E
:10531000480F591FFA01C080D1800E94E3324B012F
:105320005C01F12CE12C0E94E332681979098A09A9
:105330009B096C157D058E059F0558F40E947C32F3
:105340008AE090E00E944133EECF483088F648E092
:10535000CFCF2A960FB6F894DEBF0FBECDBFDF9138
:10536000CF911F91FF90EF90DF90CF90BF90AF90C3
:105370009F908F9008950F931F93CF93DF93683082
:1053800038F090E080E0DF91CF911F910F91089568
:10539000EC01660F60560E9437298A899B89892B08
:1053A00081F742E0688189AD9AAD0E94EA118230AE
:1053B00040F389AD9AADDC01ED91FC910284F38557
:1053C000E02D099500E0182F89AD9AADDC01ED9133
:1053D000FC910284F385E02D0995800F911FD3CFB6
:1053E0008F929F92AF92BF92CF92DF92EF92FF92F5
:1053F000CF93DF93EC0160E00E9437298A899B8973
:10540000892B71F060E070E0CB01DF91CF91FF90CC
:10541000EF90DF90CF90BF90AF909F908F900895C6
:1054200043E0688189AD9AAD0E94EA11833050F360
:1054300089AD9AADDC01ED91FC910284F385E02DFC
:105440000995092E000CAA0BBB0B5C01992488243A
:1054500089AD9AADDC01ED91FC910284F385E02DDC
:1054600009956C01990FEE08FF08FE2CED2CDC2C41
:10547000CC24C80CD91CEA1CFB1C89AD9AADDC01FC
:10548000ED91FC910284F385E02D0995BC01990F03
:10549000880B990B6C0D7D1D8E1D9F1DB6CF4F92F5
:1054A0005F926F927F928F929F92AF92BF92CF92B4
:1054B000DF92EF92FF920F931F93CF93DF93CDB7BD
:1054C000DEB766970FB6F894DEBF0FBECDBF9E8BDA
:1054D0008D8BF62E462F60E40E945829ED89FE89B7
:1054E000028913890115110509F043C1CF010E94FA
:1054F000F0296D877E878F87988BED89FE890289D9
:1055000013890115110509F034C14F2D60E5CF0154
:105510000E945829ED89FE89028913890115110518
:1055200009F027C1CF010E94F029ED89FE89028987
:1055300013890115110509F01CC10E94F134ED8990
:10554000FE8920A531A542A553A50E9449346B01CF
:105550007C01ED89FE8924A535A546A557A50E94A5
:10556000A33520E030E04AEF54E40E944A340E9420
:10557000BB344B015C01ED89FE8982829382A48257
:10558000B58224A135A146A157A1C701B6010E9449
:10559000A335ED89FE89248D358D468D578D0E946A
:1055A0004A342B013C01ED89FE8920A131A142A1A1
:1055B00053A1C701B6010E94A335ED89FE89208D54
:1055C000318D428D538D0E944A3469837A838B8357
:1055D0009C83ED89FE8980AD882309F49EC0F0ED9F
:1055E0008F16F7E09F06A104B1040CF096C0A70146
:1055F0009601C701B6010E94A33520E030E040E0EB
:1056000050E30E94A335698B7A8B8B8B9C8BC501F1
:10561000B401605D7740810991099B01AC010E9452
:1056200010360E94F3346B017C0120E030E040E250
:1056300050E40E94A3356D837E838F83988720E09A
:1056400030E040EA5FE3C701B6010E94A3356B0179
:105650007C0184E288168AEF98068FEFA806B806C8
:10566000A4F5C501B40164527A4F8F4F9F4F9B013F
:10567000AC010E9410360E94F33469877A878B87C9
:105680009C8720E030E040EE50E40E94A3359B016F
:10569000AC016D817E818F8198850E944A346D8333
:1056A0007E838F83988720E030E040EB50E469856B
:1056B0007A858B859C850E94A3359B01AC01C7012F
:1056C000B6010E944A346B017C01C501B4010E94FD
:1056D000F33429893A894B895C890E9449340E94B4
:1056E000BB34ED89FE8962837383848395832D8126
:1056F0003E814F815885C301B2010E9449342B017C
:105700003C01A701960169817A818B819C810E946D
:10571000493469837A838B839C836D857E858F85ED
:1057200098890E94F13429813A814B815C810E94E1
:10573000A33520E030E040E055E30E94A335A3010B
:1057400092010E94493420E030E040E058E30E949A
:10575000A3350E94BB34ED89FE89668377838087F9
:1057600091870E94D732ED89FE8960AB71AB82AB25
:1057700093ABC80166960FB6F894DEBF0FBECDBFDF
:10578000DF91CF911F910F91FF90EF90DF90CF901D
:10579000BF90AF909F908F907F906F905F904F9051
:1057A0000895CF92DF92EF92FF92FC01262F80E0C6
:1057B00090E0A0E8BFE3848B958BA68BB78B80E04D
:1057C00090E0A0E0B7E4808F918FA28FB38F40E08C
:1057D00050E060E877E4448F558F668F778F80E0E4
:1057E00090E0A0E8BBE380A391A3A2A3B3A380E0D1
:1057F00090E0A0E0BCE384A395A3A6A3B7A3C12C2B
:10580000D12C30E8E32E33E4F32EC0A6D1A6E2A6D5
:10581000F3A6C12CD12CE12C34E3F32EC4A6D5A6DB
:10582000E6A6F7A62130C1F4408F518F628F738FA7
:1058300040E050E060E078E4448F558F668F778FCA
:1058400080A391A3A2A3B3A380E090E0A0E8BCE36F
:1058500084A395A3A6A3B7A3FF90EF90DF90CF906A
:1058600008952F923F924F925F926F927F928F9204
:105870009F92AF92BF92CF92DF92EF92FF920F93DF
:105880001F93CF93DF93EC01162F6EE10E9437290F
:105890000E94E3326B017C010E94E3326C197D09A6
:1058A0008E099F09603F7A408105910538F40E9476
:1058B0007C328AE090E00E944133EECF612FCE012E
:1058C0000E94D12B8E010C5E1F4F312C2224239479
:1058D000632DCE010E94BB297C01F801819091903B
:1058E000A190B1908F016F01F4E0CF1AD1082C0183
:1058F000712C612CC301B7010E94F134A501940100
:105900000E94A335F60160837183828393838CA9FF
:105910009DA9AEA9BFA924E0880F991FAA1FBB1F8C
:105920002A95D1F78E259525A625B7258CAB9DAB5D
:10593000AEABBFAB332039F0222029F022242394D0
:10594000EF2809F4212C3394F7E03F12C1CF822DC8
:10595000DF91CF911F910F91FF90EF90DF90CF904B
:10596000BF90AF909F908F907F906F905F904F907F
:105970003F902F900895CF93DF93FC01208126570D
:10598000223058F4EC010E94B628882331F060E000
:10599000CE01DF91CF910C94312C80E0DF91CF913B
:1059A0000895FC01918D228D892F90E0805C9F4F9E
:1059B000821B91098F7399270895FC01918D828D27
:1059C000981731F0828DE80FF11D858D90E00895D4
:1059D0008FEF9FEF0895FC01918D828D981761F0F4
:1059E000A28DAE0FBF2FB11D5D968C91928D9F5FE2
:1059F0009F73928F90E008958FEF9FEF0895FC01C1
:105A0000538D448D252F30E0842F90E0821B930B23
:105A1000541710F0CF960895019708958AE69EE2F4
:105A2000892B49F080E090E0892B29F00E946A2EB2
:105A300081110E94000081E09FE2892B49F080E003
:105A400090E0892B29F00E94012F81110C94000015
:105A50000895FC01A48DA80FB92FB11DA35ABF4F03
:105A60002C91848D90E001968F739927848FA6895D
:105A7000B7892C93A089B1898C91837080648C93B1
:105A8000938D848D981306C00288F389E02D808160
:105A90008F7D80830895CF93DF93EC01888D8823D9
:105AA000B9F0AA89BB89E889F9898C9185FD03C081
:105AB000808186FD0DC00FB607FCF7CF8C9185FF66
:105AC000F2CF808185FFEDCFCE010E94292DE9CF55
:105AD000DF91CF910895EF92FF920F931F93CF9391
