:100000000C9411010C943B010C943B010C943B01AA
:100010000C943B010C943B010C943B010C943B0170
:100020000C943B010C943B010C943B010C943B0160
:100030000C943B010C9472020C943B010C943B0118
:100040000C943B010C943B010C940B3A0C943B0137
:100050000C9469350C949F350C943B010C943B0136
:100060000C943B010C943B010C943F1A0C943B0103
:100070000C9400360C9436360C943B010C943B01E6
:100080000C943B010C943B010C943B0100407A1012
:10009000F35A00A0724E18090010A5D4E80000E839
:1000A0007648170000E40B54020000CA9A3B000097
:1000B00000E1F505000080969800000040420F0026
:1000C0000000A08601000000102700000000E803E7
:1000D000000000006400000000000A0000000000B2
:1000E0000100000000002C76D888DC674F0823DF71
:1000F000C1DFAE59E1B1B796E5E3E453C63AE65144
:10010000997696E8E6C28426EB898C9B62ED407C6A
:100110006FFCEFBC9C9F40F2BAA56FA5F490055A06
:100120002AF75C936B6CF9676DC11BFCE0E40D472B
:10013000FEF520E6B500D0ED902E0300943577054E
:100140000080841E080000204E0A000000C80C3306
:100150003333330F986E12831141EF8D2114893B95
:10016000E65516CFFEE6DB18D1844B381BF77C1D15
:10017000901DA4BBE424203284725E228100C9F168
:1001800024ECA1E53D277C3C3E5E2B3D3F2F5B5D93
:100190003B2C2A225C000000000203000A0B000036
:1001A0000000050409080000000000000000000035
:1001B000000000000000010204081020408001023D
:1001C0000408102040800102040810204080010231
:1001D000040810204080020202020202020204040B
:1001E00004040404040403030303030303030101DD
:1001F0000101010101010000200023002600290067
:1002000000002200250028002B000000210024000F
:1002100027002A0087025419581F7222D3356A36E4
:10022000990211241FBECFEFD0E4DEBFCDBF13E093
:10023000A0E0B1E0E6E5F6E800E00BBF02C0079001
:100240000D92A433B107D9F72DE0A4E3B3E001C0C8
:100250001D92AA38B207E1F711E0C0E1D1E004C075
:100260002197FE010E94D43DCA30D107C9F70E94F0
:10027000FC390C941E430C940000DC01ED91FC91C0
:100280000190F081E02D09940CB405FC0DC09EBDD9
:1002900000000DB407FEFDCF9EB58EBD00000DB46D
:1002A00007FEFDCF8EB508958EBD00000DB407FE8C
:1002B000FDCF8EB59EBD00000DB407FEFDCF9EB5EF
:1002C0000895982F92959F708F702AE0929F800DCD
:1002D000112408952F923F924F925F926F927F92D6
:1002E0008F929F92AF92BF92CF92DF92EF92FF9246
:1002F0000F931F93CF93DF93CDB7DEB760970FB601
:10030000F894DEBF0FBECDBF1B012C013A0149019D
:100310001E870D87F88AEF861CE3E12EF12C00E0A2
:1003200010E0C201A80197010E94B23DD5016C9373
:10033000CA01B901A80197010E94B23DF60160838C
:10034000C201B10120E13EE040E050E00E94B23D38
:10035000CA01B90128E130E040E050E00E94B23D1E
:10036000AF85B8896C93C201B10120E831E541E065
:1003700050E00E94B23D82EB97E0F30191838083CD
:10038000E0E9F1E094E6C92ED12CD3010D911C9146
:100390007801B3E0EB22FF24E114F10431F4C80149
:1003A000B6010E949E3D892B99F4C801BF010E94AD
:1003B0009E3D892B69F08DE691E02817390758F0AA
:1003C000281B390B0F5F1F4FD3010D931C93DDCFFB
:1003D0008EE691E0F2CF8CE0ECE0F1E0DE011196E8
:1003E00001900D928A95E1F7EF2839F4C80164E68F
:1003F00070E00E949E3D892B39F4C80160E971E0EC
:100400000E949E3D892B11F48DE18A8381E0F401E5
:100410008083D4018C91FE01E80FF11D408150E0F2
:100420002417350728F0241B350B8F5F8C93F1CFF1
:100430002F5FED85FE85208360960FB6F894DEBFB2
:100440000FBECDBFDF91CF911F910F91FF90EF9025
:10045000DF90CF90BF90AF909F908F907F906F90E4
:100460005F904F903F902F900895CF93DF93C8EC0B
:10047000D0E08AEF90E00E94BF3A61E08FE00E94F6
:10048000343B61E08FE00E94703B8AEF90E00E9475
:10049000BF3A61E08FE00E94343B60E08FE00E9451
:1004A000703B219731F7C8ECD0E084EB90E00E94DC
:1004B000BF3A61E08FE00E94343B61E08FE00E9430
:1004C000703B84EB90E00E94BF3A61E08FE00E94B5
:1004D000343B60E08FE00E94703B219731F7DF9161
:1004E000CF9108951F920F920FB60F9211248F9300
:1004F000809136038F5F80933603109285001092AF
:1005000084008F910F900FBE0F901F90189562E29C
:1005100071E081E499E00E94193863E571E08BE3B2
:1005200099E00E9419386DE871E085E399E00C9438
:10053000193885E399E00E94A7378BE399E00E9480
:10054000A73781E499E00C94A737CF93DF9361E557
:1005500070E087E499E00E94D31870E060E087E4DF
:1005600099E00E943D0187E499E00E94511946E01C
:1005700061E587E499E00E944B1987E499E00E94C5
:1005800046180E94610180933F0387E499E00E942E
:1005900046188F770E946101D82F87E499E00E9466
:1005A00046188F770E946101C82F87E499E00E9466
:1005B00046180E94610190E0B0E0A0E08093400303
:1005C00090934103A0934203B093430387E499E0DF
:1005D0000E9446180E94610124E6829FC0011124F6
:1005E000092E000CAA0BBB0B409140035091410314
:1005F0006091420370914303840F951FA61FB71F9C
:100600008093400390934103A0934203B09343032C
:1006100087E499E00E9446180E94610140E157E298
:10062000849F9001859F300D1124032E000C440BF4
:10063000550B8091400390914103A0914203B091EA
:100640004303280F391F4A1F5B1FA0E1BEE00E9431
:10065000EC3DAB01BC012CE3C29FC0011124092E6B
:10066000000CAA0BBB0B8D0F911DA11DB11D840F9A
:10067000951FA61FB71F8093400390934103A0933B
:100680004203B0934303DF91CF910895CF93DF935B
:10069000CDB7DEB7C459D1090FB6F894DEBF0FBE8F
:1006A000CDBF88E19FE00FB6F894A89580936000D5
:1006B0000FBE9093600061E083E10E94703B60E0B8
:1006C00082E10E94703B61E082E00E94343B61E085
:1006D00082E00E94703B61E084E10E94343B61E073
:1006E00084E10E94703B6DE871E0CE0181579F4F1D
:1006F0000E9419380E94A50264E671E0CE0181577C
:100700009F4F0E94AC3960913109709132094AE0E3
:10071000CE0101960E949138BE016F5F7F4FCE01DE
:1007200081579F4F0E94A539CE0101960E94A7379D
:100730006CE972E0CE0181579F4F0E94AC39409125
:1007400040035091410360914203709143032AE0BA
:10075000CE0101960E94BD38BE016F5F7F4FCE0172
:1007600081579F4F0E94A539CE0101960E94A7375D
:100770006CEE71E0CE0181579F4F0E94AC394AE088
:1007800060913F03CE0101960E943838BE016F5F31
:100790007F4FCE0181579F4F0E94A539CE01019610
:1007A0000E94A7376CE972E0CE0181579F4F0E94EB
:1007B000AC3947E459E064E4CE01885A9F4F0E9467
:1007C0000A2FCE01885A9F4F0E94412F61E0CE012F
:1007D000885A9F4F0E94C42FE1966EAD7FADE1977E
:1007E00090E080E00E946F3C2FEA30E04FE25BE354
:1007F0000E94213D20E030E044E352E40E94C73BE8
:10080000AB01BC0121E0CE0101960E941939BE0165
:100810006F5F7F4FCE0181579F4F0E94A539CE0158
:1008200001960E94A7376CE972E0CE0101960E9402
:100830001938BE016F5F7F4FCE0181579F4F0E94D5
:10084000A539CE0101960E94A737AF966EAD7FAD58
:10085000AF9790E080E00E946F3C28EC30E048ECDD
:100860005AE30E94213DAB01BC0121E0CE0101967B
:100870000E941939BE016F5F7F4FCE0181579F4F94
:100880000E94A539CE0101960E94A7376CE972E05B
:10089000CE0101960E941938BE016F5F7F4FCE01D5
:1008A00081579F4F0E94A539CE0101960E94A7371C
:1008B00047E459E065E4CE01CC960E940A2FCE01B0
:1008C000CC960E94412F61E0CE01CC960E94C42FAD
:1008D00065966EAD7FAD659790E080E00E946F3CBD
:1008E0002FEA30E04FE25BE30E94213D20E030E060
:1008F00044E352E40E94C73BAB01BC0121E0CE01BE
:1009000001960E941939BE016F5F7F4FCE0181575A
:100910009F4F0E94A539CE0101960E94A7376CE92E
:1009200072E0CE0101960E941938BE016F5F7F4FC1
:10093000CE0181579F4F0E94A539CE0101960E949A
:10094000A73763966EAD7FAD639790E080E00E941D
:100950006F3C28EC30E048EC5AE30E94213DAB01AB
:10096000BC0121E0CE0101960E941939BE016F5FE2
:100970007F4FCE0181579F4F0E94A539CE0101962E
:100980000E94A7376CE972E0CE0101960E941938E7
:10099000BE016F5F7F4FCE0181579F4F0E94A539E7
:1009A000CE0101960E94A73747E459E067E7CE01E0
:1009B00001960E94F02FCE0101960E941A346A819E
:1009C000CE0101960E94AE31CE0101960E942A30DE
:1009D000AB01BC0122E0CE018C589F4F0E94193917
:1009E000BE016C587F4FCE0181579F4F0E94A539A1
:1009F000CE018C589F4F0E94A7376CE972E0CE0160
:100A00008C589F4F0E941938BE016C587F4FCE0101
:100A100081579F4F0E94A539CE018C589F4F0E944D
:100A2000A737CE0101960E946130AB01BC0122E0E4
:100A3000CE018C589F4F0E941939BE016C587F4FD0
:100A4000CE0181579F4F0E94A539CE018C589F4FF0
:100A50000E94A73761E084E10E94343B60E084E1BA
:100A60000E94703B61E082E00E94343B60E082E0E3
:100A70000E94703B0FB6F894A89580916000886141
:100A800080936000109260000FBEBE0161577F4FDF
:100A90008FED9CE00E94F43680910701882371F16C
:100AA00064E089EE99E00E94A21D6AE671E0882365
:100AB00009F443C0409135095091360923E169EEAC
:100AC00079E0CE018C589F4F0E94C21ECE018C58F7
:100AD0009F4F0E94961C882371F1BE0161577F4F82
:100AE000CE018C589F4F0E94F436CE018C589F4FF8
:100AF0000E94841C61E084E00E94703B61E082E11E
:100B00000E94703B60E083E10E94703B61E070E016
:100B100080E090E00E94863ACE0181579F4F0E946C
:100B2000A737CC56DF4F0FB6F894DEBF0FBECDBF50
:100B3000DF91CF91089569E771E08FED9CE00E940D
:100B4000063710920701D6CF4F925F926F927F9235
:100B5000AF92BF92CF92DF92EF92FF920F931F93CB
:100B6000CF93DF93CDB7DEB7A7970FB6F894DEBF6C
:100B70000FBECDBF61E083E10E94703B60E082E187
:100B80000E94703B0E94A5026DE871E0CE01829642
:100B90000E94193863E871E0CE0182960E94AC3958
:100BA00060913109709132094AE0CE0101960E94AC
:100BB0009138BE016F5F7F4FCE0182960E94A539AA
:100BC000CE0101960E94A7376CE972E0CE018296B1
:100BD0000E94AC396091D1067091D2064AE0CE01F4
:100BE00001960E949138BE016F5F7F4FCE018296C1
:100BF0000E94A539CE0101960E94A7378FE4E82E06
:100C000083E0F82E96EAC92E95E0D92E23EDA22E88
:100C100026E0B22E01E010E080914B0390914C034E
:100C20000817190708F051C00C3221E0120709F427
:100C30004CC0F60181916F01F501419051905F0127
:100C4000712C612C882331F0F7E94F0EF8E95F1E13
:100C5000611C711C6BE871E0CE0182960E94AC3978
:100C60006EE871E0CE0182960E94AC392AE0B301B1
:100C7000A201CE0101960E94BD38BE016F5F7F4F79
:100C8000CE0182960E94A539CE0101960E94A73717
:100C90006CE972E0CE0182960E94AC39F701619155
:100CA00071917F014AE0CE0101960E949138BE0108
:100CB0006F5F7F4FCE0182960E94A539CE010196CB
:100CC0000E94A7370F5F1F4FA7CF62E971E0CE01E7
:100CD00082960E94AC3960913109709132094AE0E4
:100CE000CE0101960E949138BE016F5F7F4FCE0109
:100CF00082960E94A539CE0101960E94A7376CE921
:100D000072E0CE0182960E94AC394091400350912E
:100D1000410360914203709143032AE0CE010196A2
:100D20000E94BD38BE016F5F7F4FCE0182960E9448
:100D3000A539CE0101960E94A7376CEE71E0CE0175
:100D400082960E94AC394AE060913F03CE01019641
:100D50000E943838BE016F5F7F4FCE0182960E949D
:100D6000A539CE0101960E94A7376CE972E0CE0149
:100D700082960E94AC398091940060919500762F04
:100D8000682F4AE0CE0101960E949138BE016F5F44
:100D90007F4FCE0182960E94A539CE0101960E9416
:100DA000A7376CE972E0CE0182960E94AC3960915F
:100DB0004B0370914C03615071094AE0CE010196DA
:100DC0000E949138BE016F5F7F4FCE0182960E94D4
:100DD000A539CE0101960E94A73709E219E06CE916
:100DE00072E0CE0182960E94AC39F8016191719156
:100DF0008F014AE0CE0101960E949138BE016F5FDB
:100E00007F4FCE0182960E94A539CE0101960E94A5
:100E1000A737F9E001331F0711F7BE016E5D7F4F61
:100E20008FED9CE00E94F4368091070161E08823F9
:100E300009F4A6C08EE00E94703B64E089EE99E060
:100E40000E94A21D6AE671E0882309F492C04091D5
:100E500035095091360923E169EE79E0CE0101961A
:100E60000E94C21ECE0101960E94961C882309F49E
:100E70007EC0BE016E5D7F4FCE0101960E94F436AA
:100E8000CE0101960E94841C61E084E00E94703BC8
:100E900060E08EE00E94703B60E08DE00E94703B5D
:100EA0008091310990913209893F9A42C8F110929C
:100EB00032091092310960913309709134096F5FE2
:100EC0007F4F70933409609333094AE0CE014C960A
:100ED0000E949138BE01645E7F4FCE0101960E9450
:100EE00001396BE971E0CE0101960E94CE39BC0157
:100EF00085E399E00E94EA38CE0101960E94A73767
:100F0000CE014C960E94A73760EA71E08FED9CE01D
:100F10000E94E13665E379E08FED9CE00E94F436B3
:100F200061E082E10E94703B60E083E10E94703BDF
:100F300061E070E080E090E00E94863ACE01829607
:100F40000E94A737A7960FB6F894DEBF0FBECDBF9D
:100F5000DF91CF911F910F91FF90EF90DF90CF9095
:100F6000BF90AF907F906F905F904F90089569E72A
:100F700071E08FED9CE00E9406371092070184CF4C
:100F80008DE00E94703BCEA0DFA010E000E0FF24C7
:100F9000FA948DE10E949E3B892B19F0FA94F1108E
:100FA000F8CF82E390E00E94BF3A78012FEFE21A77
:100FB000F20AB801CE0182960E94E839FC016081F4
:100FC00082E49CE00E94E936CE14DF0460F482E4FF
:100FD0009CE00E94F036BE016E5D7F4F8FED9CE07D
:100FE0000E94F43655CF8701D2CF0F931F93CF9332
:100FF000DF93C82F65E570E087E499E00E94D3187D
:101000000C2E000CDD0BBE0187E499E00E943D012F
:1010100087E499E00E94511941E050E065E570E0F5
:1010200087E499E00E944E1987E499E00E944618EF
:101030008C0165E570E087E499E00E94D318BE0159
:101040006F5F7F4F87E499E00E943D0187E499E05C
:101050000E94511941E050E065E570E087E499E0B5
:101060000E944E1987E499E00E94461820E0382F2C
:10107000C901800F911FDF91CF911F910F910895AA
:10108000CF93DF93CDB7DEB7A1970FB6F894DEBF4D
:101090000FBECDBF61E083E10E94703B60E082E162
:1010A0000E94703B6DE871E0CE014C960E941938A9
:1010B0000E94A5026BEA71E0CE014C960E94AC3909
:1010C00060913109709132094AE0CE0101960E9487
:1010D0009138BE016F5F7F4FCE014C960E94A539BB
:1010E000CE0101960E94A7376CE972E0CE014C96C2
:1010F0000E94AC39409140035091410360914203FA
:10110000709143032AE0CE0101960E94BD38BE01D2
:101110006F5F7F4FCE014C960E94A539CE0101969C
:101120000E94A7376CEE71E0CE014C960E94AC395C
:101130004AE060913F03CE0101960E943838BE011B
:101140006F5F7F4FCE014C960E94A539CE0101966C
:101150000E94A7376CE972E0CE014C960E94AC3930
:1011600088E00E94F5074AE0BC01CE0101960E948A
:101170006538BE016F5F7F4FCE014C960E94A53946
:10118000CE0101960E94A7376CE972E0CE014C9621
:101190000E94AC398AE00E94F5074AE0BC01CE010A
:1011A00001960E946538BE016F5F7F4FCE014C965D
:1011B0000E94A539CE0101960E94A7376CE972E022
:1011C000CE014C960E94AC3984E00E94F5074AE0BB
:1011D000BC01CE0101960E946538BE016F5F7F4F52
:1011E000CE014C960E94A539CE0101960E94A737E8
:1011F0006CE972E0CE014C960E94AC3986E00E9408
:10120000F5074AE0BC01CE0101960E946538BE0197
:101210006F5F7F4FCE014C960E94A539CE0101969B
:101220000E94A7376CE972E0CE014C960E94AC395F
:101230008CE00E94F507BC01990F880B990B0E9466
:10124000713C2DEC3CEC4CEC5DE30E94213D23E332
:1012500033E948E853E40E94C73BAB01BC0122E0FC
:10126000CE0101960E944939BE016F5F7F4FCE01CA
:101270004C960E94A539CE0101960E94A737BE0167
:10128000645E7F4F8FED9CE00E94F43680910701F1
:10129000882349F164E089EE99E00E94A21D6AE684
:1012A00071E08823E9F1409135095091360923E135
:1012B00069EE79E0CE0101960E94C21ECE01019630
:1012C0000E94961C882351F1BE01645E7F4FCE01BF
:1012D00001960E94F436CE0101960E94841C61E0C2
:1012E00084E00E94703B61E082E10E94703B60E01C
:1012F00083E10E94703B61E070E080E090E00E943A
:10130000863ACE014C960E94A737A1960FB6F89464
:10131000DEBF0FBECDBFDF91CF91089569E771E0C9
:101320008FED9CE00E94063710920701D8CF1092F3
:101330002A091092290910922C0910922B09109257
:101340002E0910922D091092300910922F0981E078
:1013500090E090934C0380934B0361E087E10E94FF
:10136000703B60E086E10E94703B90E080E00E946C
:10137000440161E086E10E94703B1092850010926A
:10138000840090919400809195008927982789275F
:101390009093D2068093D1061092360310923503B3
:1013A0001092340310E208E1B9E2FB2EC1E0D0E074
:1013B00018993EC1809136038230D0F38EE10E94AD
:1013C0009E3B892B29F5A8ECCA2ED12C86E990E00A
:1013D0000E94BF3A61E08FE00E94343B61E08FE001
:1013E0000E94703B86E990E00E94BF3A61E08FE086
:1013F0000E94343B60E08FE00E94703B41E0C41AE1
:10140000D10821F78091460391E089278093460314
:1014100010923603809135038F5F8093350380915E
:1014200034038F5F809334038BE10E949E3B682FCF
:101430008DE00E94703B8BE10E949E3B892B09F45A
:101440008DC061E570E087E499E00E94D31867E2FF
:1014500087E499E00E94691860E087E499E00E94BF
:10146000691865E970E087E499E00E943D0187E42E
:1014700099E00E94511968EB7BE080E090E00E94C7
:10148000863AC8ECD0E08AEF90E00E94BF3A61E073
:101490008FE00E94343B61E08FE00E94703B8AEF56
:1014A00090E00E94BF3A61E08FE00E94343B60E030
:1014B0008FE00E94703B219731F761E570E087E48F
:1014C00099E00E94D31867E287E499E00E946918C6
:1014D00063E087E499E00E94691865E970E087E4B9
:1014E00099E00E943D0187E499E00E9451196AE663
:1014F00070E087E499E00E94D31868E187E499E0FE
:101500000E9469186AE087E499E00E94691887E4FC
:1015100099E00E94511968E873E180E090E00E9430
:10152000863AC8ECD0E08AEF90E00E94BF3A61E0D2
:101530008FE00E94343B61E08FE00E94703B8AEFB5
:1015400090E00E94BF3A61E08FE00E94343B60E08F
:101550008FE00E94703B219731F7DDCF61E086E19B
:101560000E94703B60E087E10E94703B0FB6F894E8
:10157000A895009360000FBEF09260000E94A40541
:1015800010922A091092290910922C0910922B0905
:1015900010922E0910922D091092300910922F09E5
:1015A000D0934C03C0934B03809134038E3120F0D1
:1015B000109234030E94460380913503843B20F04F
:1015C000109235030E94400861E087E10E94703B61
:1015D00060E086E10E94703B90E080E00E94440160
:1015E00061E086E10E94703B0FB6F894A895809167
:1015F0006000886180936000109260000FBE80914F
:101600003109909132090196909332098093310902
:101610001092850010928400909194008091950022
:101620008927982789279093D2068093D106C0CE28
:1016300060E086E10E94703B90E080E00E944401FF
:1016400020914603222361F18430910560F12BB192
:1016500021272BB920914B0330914C032C32E1E030
:101660003E07B8F46091840070918500A901440F91
:10167000551FFA01EF52F94F718360836091360371
:10168000F901EB55FA4F6083435B5C4FFA0191839C
:1016900080832F5F3F4F30934C0320934B030DC04B
:1016A00084309105B8F6880F991FFC01E75DF64F6D
:1016B0008081918101969183808361E086E10E941F
:1016C000703B76CE0F931F93CF93DF93CDB7DEB7EA
:1016D000A1970FB6F894DEBF0FBECDBF082F162F0F
:1016E00061E570E087E499E00E94D31863E287E443
:1016F00099E00E94691860E087E499E00E94691807
:1017000060E087E499E00E94691865E087E499E069
:101710000E94691860E087E499E00E94691860E01F
:1017200087E499E00E94691867E987E499E00E94DC
:10173000691860E087E499E00E94691860E087E436
:1017400099E00E94691887E499E00E94511961E5C7
:1017500070E087E499E00E94D3186FE270E087E4BC
:1017600099E00E943D016CE270E087E499E00E94FC
:101770003D0187E499E00E94511961E570E087E43A
:1017800099E00E94D31868E270E087E499E00E9433
:101790003D0167E970E087E499E00E943D0187E43C
:1017A00099E00E94511961E570E087E499E00E9498
:1017B000D31860E087E499E00E94691860E087E44C
:1017C00099E00E94691860E087E499E00E94691836
:1017D00060E087E499E00E94691860E087E499E09E
:1017E0000E94691860E087E499E00E94691860E04F
:1017F00087E499E00E94691887E499E00E945119F2
:101800000E94A50262EB71E0CE014C960E9419384D
:101810004091400350914103609142037091430312
:101820002AE0CE0101960E94BD38BE016F5F7F4F56
:10183000CE014C960E94A539CE0101960E94A73791
:101840006CEE71E0CE014C960E94AC394AE060919A
:101850003F03CE0101960E943838BE016F5F7F4F73
:10186000CE014C960E94A539CE0101960E94A73761
:101870006BEB71E0CE014C960E94AC39003130F434
:101880006AEC71E0CE014C960E94AC3940E1602FC9
:10189000CE0101960E943838BE016F5F7F4FCE01A6
:1018A0004C960E94A539CE0101960E94A7376CEC98
:1018B00071E0CE014C960E94AC39103130F46AECE4
:1018C00071E0CE014C960E94AC3940E1612FCE010F
:1018D00001960E943838BE016F5F7F4FCE014C9653
:1018E0000E94A539CE0101960E94A737BE01645E11
:1018F0007F4F8FED9CE00E94F43680910701882392
:1019000019F164E089EE99E00E94A21D8823E1F0BC
:10191000409135095091360923E169EE79E0CE0115
:1019200001960E94C21ECE0101960E94961C882339
:1019300059F0BE01645E7F4FCE0101960E94F436DD
:10194000CE0101960E94841CCE014C960E94A737BE
:10195000A1960FB6F894DEBF0FBECDBFDF91CF9139
:101960001F910F910895CF93DF93D82FC62F6AE66A
:1019700070E087E499E00E94D3186D2F87E499E026
:101980000E9469186C2F87E499E00E94691887E427
:1019900099E0DF91CF910C945119CF93C82F6AE64B
:1019A00070E087E499E00E94D31862E087E499E050
:1019B0000E94691860E671E087E499E00E943D01A9
:1019C00087E499E00E9451196AE670E087E499E0A3
:1019D0000E94D31864E187E499E00E94691866E2E6
:1019E00087E499E0CC2309F448C00E94691869E1B2
:1019F00087E499E00E94691860EA87E499E00E9410
:101A0000691866E587E499E00E94691860E087E458
:101A100099E00E94691861E087E499E00E946918E2
:101A200087E499E00E9451196AE670E087E499E042
:101A30000E94D3186AE187E499E00E9469186FEB6D
:101A400087E499E00E94691887E499E00E9451199F
:101A50006AE670E087E499E00E94D31866E287E4C2
:101A600099E00E9469186CE887E499E00E9469187F
:101A700087E499E0CF910C9451190E94691869E9A3
:101A800087E499E00E94691860E0B7CFCF93C82F30
:101A900061E570E087E499E00E94D3186C2F87E439
:101AA00099E00E94691887E499E00E94511941E089
:101AB00061E587E499E00E944B1987E499E00E9470
:101AC0003F18892B31F087E499E00E944618CF91A6
:101AD00008958FEFFCCF0F931F93CF93DF93CDB774
:101AE000DEB7A1970FB6F894DEBF0FBECDBF87E07B
:101AF0000E94460D182F88E20E94460D082F807123
:101B000017FD02C081110FC0602F812F0E94620B50
:101B1000A1960FB6F894DEBF0FBECDBFDF91CF9177
:101B20001F910F9108950E94A50262EB71E0CE0112
:101B30004C960E94193840914003509141036091A6
:101B40004203709143032AE0CE0101960E94BD3802
:101B5000BE016F5F7F4FCE014C960E94A539CE012A
:101B600001960E94A7376CEE71E0CE014C960E9460
:101B7000AC394AE060913F03CE0101960E943838AB
:101B8000BE016F5F7F4FCE014C960E94A539CE01FA
:101B900001960E94A73766ED71E0CE014C960E9437
:101BA000AC39103130F46AEC71E0CE014C960E94F1
:101BB000AC3940E1612FCE0101960E943838BE0158
:101BC0006F5F7F4FCE014C960E94A539CE010196E2
:101BD0000E94A7376CEC71E0CE014C960E94AC39A4
:101BE00040E1602FCE0101960E943838BE016F5F40
:101BF0007F4FCE014C960E94A539CE0101960E94DE
:101C0000A737BE01645E7F4F8FED9CE00E94F436E3
:101C100080910701882319F164E089EE99E00E9420
:101C2000A21D8823E1F0409135095091360923E146
:101C300069EE79E0CE0101960E94C21ECE010196A6
:101C40000E94961C882359F0BE01645E7F4FCE012E
:101C500001960E94F436CE0101960E94841CCE01AA
:101C60004C960E94A73754CFCF93C82F6AE670E0F6
:101C700087E499E00E94D3186C2F87E499E00E94D2
:101C8000691860E087E499E00E94D51841E06AE6AF
:101C900087E499E00E944B1987E499E00E943F187D
:101CA000892B31F087E499E00E944618CF9108957E
:101CB00080E0FCCFCF93DF93C82F6AE670E087E423
:101CC00099E00E94D3186C2F87E499E00E9469186C
:101CD00060E087E499E00E94D51842E06AE687E474
:101CE00099E00E944B1987E499E00E943F180297FF
:101CF0008CF087E499E00E944618EC0187E499E0B3
:101D00000E94461820E0382FC9018C2B9D2BDF91B3
:101D1000CF91089590E080E0FACF0F931F93CF9377
:101D2000DF938C0186E10E94340EC82FD82FDF7D0F
:101D30006D2F86E10E94B30C62E370E080E090E0DA
:101D40000E94863A6D2F606486E10E94B30C68ECB5
:101D500070E080E090E00E94863A6C2F6F7986E117
:101D60000E94B30C64E170E080E090E00E94863A4B
:101D700087E20E94340E682F6F7E87E20E94B30CC8
:101D800086E20E94340E8F7C682F626C86E20E948D
:101D9000B30C62E370E080E090E00E94863A80E35A
:101DA0000E945A0E969587959C013F70A7ECB0E073
:101DB0000E94DD3D24E630E040E050E00E94B23D6C
:101DC000F8013183208381E0283B3B4008F480E028
:101DD000DF91CF911F910F910895CF92DF92EF92F3
:101DE000FF920F931F93CF93DF93D82F7B01682F20
:101DF00087E499E00E94C91860E087E499E00E94B6
:101E0000691860E087E499E00E94691887E499E026
:101E10000E945119C0E085E3C82ED12C0C2F10E090
:101E2000A601401B510B4131510510F040E150E03B
:101E30006D2F87E499E00E944B190E0D1F1D87E45A
:101E400099E00E943F18892B59F0C533F8F487E4D4
:101E500099E00E944618CF5FF80181938F01EFCF80
:101E6000C533A0F46D2F87E499E00E94C91860E0A3
:101E700087E499E00E9469186C2F87E499E00E943A
:101E8000691887E499E00E945119C8CF81E0C533F1
:101E900009F080E0DF91CF911F910F91FF90EF90BB
:101EA000DF90CF9008954F925F926F927F92AF92A2
:101EB000BF92CF92DF92EF92FF920F931F93CF9337
:101EC000DF93CDB7DEB7C258D1090FB6F894DEBFA5
:101ED0000FBECDBF26E040E052EC61E070E082E44E
:101EE0009CE00E94173526E040E052EC61E070E093
:101EF0008FED9CE00E94173540EA56E861E070E003
:101F000087E499E00E94C51865EE71E08FED9CE0D2
:101F10000E94063760E08BE10E94343B60E085E17F
:101F20000E94343B60E08DE10E94343B60E08EE132
:101F30000E94343B61E086E10E94343B61E087E12E
:101F40000E94343B60E080E00E94343B61E08FE01F
:101F50000E94343B61E082E10E94343B61E082E117
:101F60000E94703B61E082E00E94343B61E082E0CD
:101F70000E94703B61E08AE10E94343B61E08AE1AB
:101F80000E94703B61E083E10E94343B61E083E0AA
:101F90000E94343B61E084E00E94343B60E085E0D5
:101FA0000E94343B60E086E00E94343B61E087E0C1
:101FB0000E94343B61E083E10E94703B61E084E079
:101FC0000E94703B60E087E00E94703B64E670E036
:101FD00080E090E00E94863A60E083E00E94703BDF
:101FE00061E084E10E94343B60E084E10E94703B48
:101FF00080E00E94CD0C64E670E080E090E00E94FA
:10200000863A84E493E00E948D0E809306010E943C
:10201000CD0C8BE10E949E3B892B09F42CC188E1F9
:102020009FE00FB6F894A895809360000FBE909340
:1020300060006AE670E087E499E00E94D3186DE2E0
:1020400070E087E499E00E943D0187E499E00E94F6
:10205000511941E06AE687E499E00E944B1987E450
:1020600099E00E944618A89568EE73E080E090E041
:102070000E94863AA89568EE73E080E090E00E94A6
:10208000863AA89568EE73E080E090E00E94863A78
:10209000A89511E001E06AE670E087E499E00E940B
:1020A000D3186DE270E087E499E00E943D0187E477
:1020B00099E00E94511941E06AE687E499E00E94A4
:1020C0004B1987E499E00E944618A8958F778131D3
:1020D00008F07FC08BE10E949E3B682F8DE00E943C
:1020E000703B61E570E087E499E00E94D31868E2F4
:1020F00070E087E499E00E943D0165E970E087E4C3
:1021000099E00E943D0187E499E00E945119A89549
:1021100068EE73E080E090E00E94863AA89568EE51
:1021200073E080E090E00E94863AA89568EE73E044
:1021300080E090E00E94863AA89508EC10E08AEFD3
:1021400090E00E94BF3A61E08FE00E94343B61E082
:102150008FE00E94703B8AEF90E00E94BF3A61E0FE
:102160008FE00E94343B60E08FE00E94703B0150A2
:10217000110929F761E570E087E499E00E94D3181E
:1021800067E287E499E00E94691863E087E499E0D8
:102190000E94691865E970E087E499E00E943D01BA
:1021A00087E499E00E9451196AE670E087E499E0BB
:1021B0000E94D31868E187E499E00E9469186AE0F8
:1021C00087E499E00E94691887E499E00E94511918
:1021D000FFCFA895112311F161E0002351F183E0B5
:1021E0000E94703B0E94350261E770E087E499E04D
:1021F0000E94D31860E087E499E00E94691863E1C7
:1022000087E499E00E94691887E499E00E945119D7
:1022100068EE73E080E090E00E94863A8EE10E94D2
:102220009E3B10E0892B09F036CF81E0082711E0B2
:1022300032CF8CE00E94343B60E08CE00E94703B27
:102240000E94350261E770E087E499E00E94D318AC
:1022500060E087E499E00E94691860E187E499E012
:102260000E94691887E499E00E94511960E083E0B8
:102270000E94703BCDCF61E084E10E94343B61E07D
:1022800084E10E94703B15E060E570E080E090E042
:102290000E94863A61E08CE00E94343B61E08CE071
:1022A0000E94703B60E570E080E090E00E94863A1A
:1022B00060E08CE00E94703B115031F761E08CE0EF
:1022C0000E94703B08EC10E084EB90E00E94BF3A63
:1022D00061E08FE00E94343B61E08FE00E94703B40
:1022E00084EB90E00E94BF3A61E08FE00E94343BB3
:1022F00060E08FE00E94703B0150110929F76EEEFB
:1023000071E08FED9CE00E94063760E087E10E945B
:10231000703B61E086E10E94703B61E570E087E41C
:1023200099E00E94D31867E287E499E00E94691857
:1023300063E087E499E00E94691867E987E499E01F
:102340000E94691888E199E20FB6F894A8958093E5
:1023500060000FBE909360000E94A5028091400330
:1023600090914103A0914203B091430380933B03BA
:1023700090933C03A0933D03B0933E0367EF71E05D
:102380008FED9CE00E94E13640913B0350913C036D
:1023900060913D0370913E032AE030E08FED9CE0B8
:1023A0000E949537BE016F5F7F4F80E50E94ED0E62
:1023B000882309F4C4C48E8D9F8DA8A1B9A18093F0
:1023C000370390933803A0933903B0933A0362E044
:1023D00072E08FED9CE00E94E1364091370350910E
:1023E00038036091390370913A032AE030E08FEDB1
:1023F0009CE00E94953765E172E08FED9CE00E94C1
:10240000E1364A8D5B8D6C8D7D8D2AE030E08FED5D
:102410009CE00E94953768E272E08FED9CE00E949C
:10242000E1364AA15BA16CA17DA12AE030E08FEDED
:102430009CE00E9495378091370390913803A091DA
:102440003903B0913A03C158DF4F88839983AA8337
:10245000BB83CF57D040412C512C32010097A105AE
:10246000B105E1F040903B0350903C0360903D0388
:1024700070903E03840D951DA61DB71DC158DF4FFA
:1024800088839983AA83BB83CF57D0408AA19BA11D
:10249000ACA1BDA1481A590A6A0A7B0ADE01A658F6
:1024A000BF4F5D01CE0185589F4F6C0112967D0193
:1024B0008E0103581F4F9E0122583F4FAE014858CE
:1024C0005F4FC158DF4F688179818A819B81CF57E7
:1024D000D0400E946A0166E572E08FED9CE00E94A8
:1024E000E1362AE030E0B301A2018FED9CE00E94CA
:1024F000953761E672E08FED9CE00E94E1362AE0BC
:1025000030E0C158DF4F488159816A817B81CF57C4
:10251000D0408FED9CE00E94953765E772E08FED2B
:102520009CE00E94E136EA966EAD7FADEA974AE004
:1025300050E08FED9CE00E948F3764E872E08FEDF1
:102540009CE00E94E136EF968FADEF978A3030F431
:102550006AEC71E08FED9CE00E94E1364AE050E0C9
:10256000EF966FADEF978FED9CE00E94763764E8B1
:1025700072E08FED9CE00E94E136EE968FADEE9713
:102580008A3030F46AEC71E08FED9CE00E94E13615
:102590004AE050E0EE966FADEE978FED9CE00E9422
:1025A000763766E872E08FED9CE00E94E136ED96AA
:1025B0008FADED978A3030F46AEC71E08FED9CE0DE
:1025C0000E94E1364AE050E0ED966FADED978FED59
:1025D0009CE00E94763768E872E08FED9CE00E94F4
:1025E000E136EC968FADEC978A3030F46AEC71E00E
:1025F0008FED9CE00E94E1364AE050E0EC966FAD32
:10260000EC978FED9CE00E94763768E872E08FEDE2
:102610009CE00E94E136EB968FADEB978A3030F468
:102620006AEC71E08FED9CE00E94E1364AE050E0F8
:10263000EB966FADEB978FED9CE00E947D376AE8DB
:1026400072E0CE01C6960E9419386BE379E0CE01A4
:10265000C6960E94BB396AE972E00E94CE3961E4F5
:1026600079E00E94BB396CE972E00E94CE398E019C
:102670000E581F4FBC01C8010E940139CE01C696F9
:102680000E94A7376BE570E087E499E00E94D318B9
:1026900068E070E087E499E00E943D0170E060E04E
:1026A00087E499E00E943D0187E499E00E94511976
:1026B00040E16BE587E499E00E944B1980E1F82E38
:1026C00087E499E00E944618E82EBFE0B81728F08A
:1026D0006AEC71E0C8010E94AC3940E16E2DCE0178
:1026E000C6960E943838BE016A5C7F4FC8010E94BE
:1026F000A539CE01C6960E94A737FA94F110E0CF13
:102700006EE972E0C8010E94AC3968E570E087E4C8
:1027100099E00E94D31868E070E087E499E00E9495
:102720003D0170E060E087E499E00E943D0187E4AC
:1027300099E00E94511940E168E587E499E00E9420
:102740004B1910E187E499E00E944618082F803168
:1027500038F46AEC71E0CE018E589F4F0E94AC397C
:1027600061E082E00E94343B61E082E00E94703BC5
:1027700061E08AE10E94343B61E08AE10E94703BA3
:1027800040E1602FCE01C6960E943838BE016A5CD7
:102790007F4FCE018E589F4F0E94A539CE01C6961D
:1027A0000E94A737115071F66CE972E0CE018E5885
:1027B0009F4F0E94AC3960E570E087E499E00E9489
:1027C000D31870E060E087E499E00E943D0170E07A
:1027D00060E087E499E00E943D0187E499E00E946F
:1027E000511942E060E587E499E00E944B1987E4C3
:1027F00099E00E9446188093480387E499E00E947C
:1028000046188093470340E160914803CE01C69685
:102810000E943838BE016A5C7F4FCE018E589F4FB0
:102820000E94A539CE01C6960E94A73740E160916B
:102830004703CE01C6960E943838BE016A5C7F4FBE
:10284000CE018E589F4F0E94A539CE01C6960E9498
:10285000A73764EB72E0CE018E589F4F0E94AC39CF
:102860006BE570E087E499E00E94D31868E070E0BF
:1028700087E499E00E943D0170E060E087E499E020
:102880000E943D0187E499E00E94511940E16BE507
:1028900087E499E00E944B1910E187E499E00E94D7
:1028A0004618082F803138F46AEC71E0CE018E585A
:1028B0009F4F0E94AC3940E1602FCE01C6960E9426
:1028C0003838BE016A5C7F4FCE018E589F4F0E9400
:1028D000A539CE01C6960E94A7371150F1F66CE9D2
:1028E00072E0CE018E589F4F0E94AC3963E570E0D4
:1028F00087E499E00E94D31870E060E087E499E0F3
:102900000E943D0170E060E087E499E00E943D0193
:1029100087E499E00E94511942E063E587E499E079
:102920000E944B1987E499E00E94461880934A035D
:1029300087E499E00E9446188093490340E1609142
:102940004A03CE01C6960E943838BE016A5C7F4FAA
:10295000CE018E589F4F0E94A539CE01C6960E9487
:10296000A73740E160914903CE01C6960E943838EE
:10297000BE016A5C7F4FCE018E589F4F0E94A539E1
:10298000CE01C6960E94A73768EC72E0CE018E5841
:102990009F4F0E94AC39809106016AEC71E0882358
:1029A00011F063EE71E0CE018E589F4F0E94AC395A
:1029B0006CE972E0CE018E589F4F0E94AC39609155
:1029C0004403709145034AE0CE01C6960E949138B7
:1029D000BE016A5C7F4FCE018E589F4F0E94A53981
:1029E000CE01C6960E94A73761ED72E0CE018E58E7
:1029F0009F4F0E94AC3940913B0350913C03609142
:102A00003D0370913E032AE0CE01C6960E94BD3878
:102A1000BE016A5C7F4FCE018E589F4F0E94A53940
:102A2000CE01C6960E94A7376CE972E0CE018E589F
:102A30009F4F0E94AC394091370350913803609109
:102A4000390370913A032AE0CE01C6960E94BD3840
:102A5000BE016A5C7F4FCE018E589F4F0E94A53900
:102A6000CE01C6960E94A7376CE972E0CE018E585F
:102A70009F4F0E94AC392AE0C158DF4F48815981ED
:102A80006A817B81CF57D040CE01C6960E94BD3867
:102A9000BE016A5C7F4FCE018E589F4F0E94A539C0
:102AA000CE01C6960E94A7376CE972E0CE018E581F
:102AB0009F4F0E94AC392AE0B301A201CE01C69615
:102AC0000E94BD38BE016A5C7F4FCE018E589F4F79
:102AD0000E94A539CE01C6960E94A7376CE972E024
:102AE000CE018E589F4F0E94AC39EA966EAD7FADF5
:102AF000EA974AE0CE01C6960E949138BE016A5C10
:102B00007F4FCE018E589F4F0E94A539CE01C696A9
:102B10000E94A73764E872E0CE018E589F4F0E9452
:102B2000AC39EF968FADEF978A3038F46AEC71E0EC
:102B3000CE018E589F4F0E94AC394AE0EF966FADA0
:102B4000EF97CE01C6960E943838BE016A5C7F4F6F
:102B5000CE018E589F4F0E94A539CE01C6960E9485
:102B6000A73764E872E0CE018E589F4F0E94AC39BF
:102B7000EE968FADEE978A3038F46AEC71E0CE01B4
:102B80008E589F4F0E94AC394AE0EE966FADEE979B
:102B9000CE01C6960E943838BE016A5C7F4FCE01D6
:102BA0008E589F4F0E94A539CE01C6960E94A73726
:102BB00066E872E0CE018E589F4F0E94AC39ED96C8
:102BC0008FADED978A3038F46AEC71E0CE018E5803
:102BD0009F4F0E94AC394AE0ED966FADED97CE0164
:102BE000C6960E943838BE016A5C7F4FCE018E586F
:102BF0009F4F0E94A539CE01C6960E94A73768E86C
:102C000072E0CE018E589F4F0E94AC39EC968FAD8A
:102C1000EC978A3038F46AEC71E0CE018E589F4F01
:102C20000E94AC394AE0EC966FADEC97CE01C696A7
:102C30000E943838BE016A5C7F4FCE018E589F4F8C
:102C40000E94A539CE01C6960E94A73768E872E0B7
:102C5000CE018E589F4F0E94AC39EB968FADEB970B
:102C60008A3038F46AEC71E0CE018E589F4F0E9492
:102C7000AC394AE0EB966FADEB97CE01C6960E9459
:102C80003838BE016A5C7F4FCE018E589F4F0E943C
:102C9000A539CE01C6960E94A73760E082E10E9466
:102CA000703B64E089EE99E00E94A21D811108C08A
:102CB0006AE671E08FED9CE00E94063710920701F2
:102CC00081E090E090933409809333096091330957
:102CD00070913409683C710508F040C04AE0CE01AB
:102CE0008F5A9F4F0E949138BE016F5A7F4FCE017D
:102CF000C6960E9401396BE971E0CE01C6960E942A
:102D0000CE39BC0185E399E00E94EA38CE01C6962F
:102D10000E94A737CE018F5A9F4F0E94A73760911C
:102D200035097091360989EE99E00E944D1F88237C
:102D3000A9F080913309909134090196C3CF62E4E0
:102D400072E08FED9CE00E940637109237031092DC
:102D500038031092390310923A036DCB6091330916
:102D6000709134094AE0CE018F5A9F4F0E949138EA
:102D7000BE016F5A7F4FCE01C6960E9401396BE9A2
:102D800071E0CE01C6960E94CE39BC0185E399E080
:102D90000E94EA38CE01C6960E94A737CE018F5A0C
:102DA0009F4F0E94A73715E060E570E080E090E05B
:102DB0000E94863A61E08DE00E94343B61E08DE044
:102DC0000E94703B60E570E080E090E00E94863AEF
:102DD00060E08DE00E94703B115031F761E08DE0C2
:102DE0000E94703B409135095091360923E169EE0C
:102DF00079E0CE018F5A9F4F0E94C21ECE018F5A9A
:102E00009F4F0E94461C2B013C016AED72E08FED42
:102E10009CE00E94E1362AE030E0B301A2018FED90
:102E20009CE00E94953781E8481683E2580683E4C7
:102E30006806710408F473C0CE018F5A9F4F0E9438
:102E4000841C60913309709134096F5F7F4F7093D8
:102E50003409609333094AE0CE0184599F4F0E94A0
:102E60009138BE0164597F4FCE01C6960E94013948
:102E70006BE971E0CE01C6960E94CE39BC0185E3B4
:102E800099E00E94EA38CE01C6960E94A737CE018B
:102E900084599F4F0E94A7374091350950913609B8
:102EA00023E169EE79E0CE01C6960E94C21E88AD8C
:102EB00099AD65969FAF8EAF65978AAD9BADACAD72
:102EC000BDAD69968CAF9DAFAEAFBFAF699722968F
:102ED0008CAD9DADAEADBFAD22976D968CAF9DAF65
:102EE000AEAFBFAF6D97E6E3F0E0EC0FFD1F3C9691
:102EF000A1E5B0E0AC0FBD1F1C9681E590E08C0F02
:102F00009D1F499621912D93A817B907D9F761966E
:102F10008EAD9FAD6197AC969FAF8EAFAC9760EAD8
:102F200071E08FED9CE00E94E13665E379E08FED82
:102F30009CE00E94F436CE018F5A9F4F0E94961C4F
:102F4000882309F490C0BE016E587F4FCE018F5A7E
:102F50009F4F0E94F436CE018F5A9F4F0E94841CCF
:102F6000BE016E587F4F8FED9CE00E94F4360E94A8
:102F70006B0D61E082E10E94703B61E084E10E94A0
:102F8000343B60E084E10E94703B15E060E570E056
:102F900080E090E00E94863A61E08EE00E94343B3F
:102FA00061E08EE00E94703B60E570E080E090E0C0
:102FB0000E94863A60E08EE00E94703B115031F72B
:102FC00060E08CE00E94703B60E08DE00E94703B0E
:102FD00061E082E00E94343B60E082E00E94703B4E
:102FE0000FB6F894A8958091600088618093600086
:102FF000109260000FBEF894109280008DE08093D4
:10300000810087E998E99093890080938800109265
:1030100085001092840082E080936F0010929000EF
:1030200085E080939100109295001092940078941E
:10303000CE018E589F4F0E94A737CE57DF4F0FB655
:10304000F894DEBF0FBECDBFDF91CF911F910F91DE
:10305000FF90EF90DF90CF90BF90AF907F906F90F8
:103060005F904F90089569E771E08FED9CE00E94BA
:1030700006371092070174CF90E080E008958091A8
:10308000770990917809891B990B08959091780997
:10309000809177092FEF3FEF981748F4E92FF0E080
:1030A000E758F64F208130E09F5F90937809C9017F
:1030B0000895E091780980917709E81730F4F0E0FD
:1030C000E758F64F808190E008958FEF9FEF0895C5
:1030D0000895CF93DF931F92CDB7DEB76983209118
:1030E00053092223F9F020915409203258F021E0AD
:1030F00030E0FC013383228390E080E00F90DF9189
:10310000CF91089580915509E82FF0E0EA5AF64FE3
:10311000998190838F5F809355098093540981E052
:1031200090E0ECCF61E0CE0101960E94081AF7CF43
:10313000CF92DF92EF92FF920F931F93CF93DF9383
:103140007C01CB018A0120915309222389F0EB01F4
:103150006B01C40ED51ECC15DD0569F06991D70150
:10316000ED91FC910190F081E02DC7010995F3CF1D
:10317000642F0E94081AC801DF91CF911F910F910F
:10318000FF90EF90DF90CF900895CB01BA010C949F
:10319000651981E08093530960937609109255096F
:1031A0001092540908950C94C9180F93062F21E02A
:1031B0004091540966E579E0809176090E94B8193A
:1031C0001092550910925409109253090F910895C5
:1031D0004F925F926F927F92AF92BF92CF92EF9297
:1031E000FF920F931F93CF93DF935C01F62ED42FA2
:1031F00028013901EE2019F10E94C918CE2DC430E2
:1032000008F0C3E0C150B8F028E0C29FC00111240B
:10321000A301920104C056954795379527958A9545
:10322000D2F7B901D501ED91FC910190F081E02D2B
:10323000C5010995E7CF60E0C5010E94D5184D2F63
:10324000D13208F040E22C2D69E779E08F2D0E9401
:1032500078191092780980937709DF91CF911F91A7
:103260000F91FF90EF90CF90BF90AF907F906F90B5
:103270005F904F900895CF92EF920F931F93C22EBD
:10328000E12C00E010E098010E94E8181F910F91D6
:10329000EF90CF90089521E00C943B1921E00C941D
:1032A0003B1961E00C94D518E7E4F9E0138212822F
:1032B00088EE93E0A0E0B0E084839583A683B78393
:1032C00089EE92E09183808308959B01AC0160E0D8
:1032D00072E18AE790E00E94B23D20513109410934
:1032E000510956954795379527952093B80008952D
:1032F0004132E0F59091E8099111FCCF91E0909373
:10330000E8092093E6092FEF209399097093E009CB
:103310006093DF091092DE09240F2093DD0990935A
:10332000E7099091E709880F892B8093E70980913D
:10333000E5098130C9F41092E5098091E70980938D
:10334000BB008091BC0083FDF8CF85EC8093BC006E
:103350008091E8098130E1F38091DE09841710F44F
:103360004091DE09842F089585EEF0CF40E0FACF3A
:103370000F93413208F044C09091E8099111FCCFBD
:1033800092E09093E8090093E6099FEF90939909E2
:103390007093E0096093DF091092DE094093DD0924
:1033A0001092E7099091E709880F892B8093E7092C
:1033B0008091E509813011F51092E5098091E709C6
:1033C0008093BB008091BC0083FDF8CF85EC809397
:1033D000BC00222321F08091E8098230D1F3809152
:1033E00099098F3F79F080919909803269F0809135
:1033F0009909803359F084E00F91089585EEE7CF65
:1034000081E0FACF80E0F8CF82E0F6CF83E0F4CF1E
:103410002091BB09260F3327331F21323105ECF4ED
:103420002091E809FC0190E080E0243069F082E01E
:103430000895A091BB092191AC014354564FA40FAC
:10344000B52FB11D2C930196861798F38091BB0977
:10345000680F6093BB0980E0089581E0089585EDD1
:103460008093BC008091BC0084FDFCCF1092E809E1
:10347000089585EC8093BC001092E80908951F928E
:103480000F920FB60F9211240BB60F922F933F930A
:103490004F935F936F937F938F939F93AF93BF935C
:1034A000EF93FF938091B900887F803609F44EC076
:1034B00008F041C0883209F4AAC028F5803109F427
:1034C0009EC0C8F4882309F407C1883009F497C066
:1034D000FF91EF91BF91AF919F918F917F916F91EC
:1034E0005F914F913F912F910F900BBE0F900FBEA8
:1034F0000F901F901895883109F489C0803241F7E8
:103500008093990915C0803409F4A6C048F480332B
:10351000B9F38833E9F6809399090E94391AD8CF14
:10352000803509F489C0883509F49EC0883481F655
:103530000E942F1ACDCF883909F494C038F5883706
:1035400029F050F4883611F0803711F683E080932B
:10355000E80910929A0957C0883809F483C0803965
:1035600019F0803809F0B4CF80919A09803208F0C0
:1035700079C0E0919A0981E08E0F80939A09809139
:10358000BB00F0E0E556F64F80833DC0803B39F04C
:10359000E0F4803A09F485C0883A09F099CF84E0D4
:1035A0008093E8091092BC091092BB09E091E309ED
:1035B000F091E40909958091BB0981110FC081E068
:1035C0008093BB091092BD0909C0803C09F482C0F8
:1035D000883C09F47FC0883B09F07ACFE091BC09B0
:1035E00081E08E0F8093BC09F0E0E354F64F8081B8
:1035F0008093BB009091BC098091BB0931C0809140
:10360000E7098093BB0085EC8093BC0061CF90916B
:10361000DE098091DD099817B8F58091DF09909156
:10362000E009E091DE0921E02E0F2093DE09E80F8A
:10363000F92FF11D8081E5CF2091DF093091E0095C
:10364000E091DE0981E08E0F8093DE098091BB005E
:10365000E20FF32FF11D80839091DE098091DD0947
:10366000981788F285E8D0CF2091DF093091E009E2
:10367000E091DE0981E08E0F8093DE098091BB002E
:10368000E20FF32FF11D80838091E609811150CF65
:1036900081E08093E50984EA8093BC001092E809F8
:1036A00017CF0E94391A80919A09803230F4E09144
:1036B0009A09F0E0E556F64F108260919A0970E0A1
:1036C000E091E109F091E2098BE999E00995109206
:1036D0009A09FECE85ECE0CF1092990929CFCF93BD
:1036E000DF931F92CDB7DEB76983DC01ED91FC91CA
:1036F0000280F381E02D41E050E0BE016F5F7F4F1B
:1037000009950F90DF91CF910895CF93DF93EC014E
:10371000E98DFA8D309749F481E090E09B838A83AC
:1037200090E080E0DF91CF91089513821282898D1D
:103730009A8D0E94FA27E98DFA8D22813381232BFD
:1037400059F7F0CFFC01818D928D009711F00C9408
:1037500089250895CF93DF931F92CDB7DEB741E05F
:1037600050E0BE016F5F7F4F0E94AD23019731F49F
:10377000898190E00F90DF91CF9108958FEF9FEFB7
:10378000F9CFFC01818D928D009711F00C94AA1B4A
:103790008FEF9FEF08950F931F93CF93DF93EC016B
:1037A000898D9A8D10E000E0009799F00E94AA1B85
:1037B0008C010F3F100769F0898D9A8DFC014285BD
:1037C00053856485758541505109610971090E94CD
:1037D000F524C801DF91CF911F910F910895EF92C9
:1037E000FF920F931F93CF93DF93EC017B018A012C
:1037F0001B821A8288EE93E0A0E0B0E08C839D8368
:10380000AE83BF838BEF92E0998388838DE190E054
:103810000E94153E9A8F898F009779F02DE1F7016C
:10382000DC0101900D922A95E1F74CE050E0B801DF
:10383000CE010C960E944340188EDF91CF911F91CC
:103840000F91FF90EF900895FC011382128288EE91
:1038500093E0A0E0B0E084839583A683B7838BEFE9
:1038600092E091838083128E118E14860895DC017C
:103870005996ED91FC91309729F062857385848586
:10388000958508956FEF7FEFCB010895DC01599680
:10389000ED91FC91309729F0638974898589968927
:1038A000089560E070E0CB010895CF92DF92EF922F
:1038B000FF92CF93DF93FC01218D328D232B09F1F1
:1038C000EC010E94461C6B017C01CE010E94371C5A
:1038D000A7019601261B370B480B590BDA01C901CA
:1038E000811530E89307A105B10520F08FEF9FE720
:1038F000A0E0B0E0DF91CF91FF90EF90DF90CF900C
:10390000089590E080E0F6CFCF93DF93EC01898DAE
:103910009A8D009741F00E94D225898D9A8D0E9440
:10392000B13E1A8E198EDF91CF910895DC01599620
:10393000ED91FC91309721F081E09581911101C0CA
:1039400080E008951F93CF93DF93CDB7DEB76D97D7
:103950000FB6F894DEBF0FBECDBFAB011C821B8239
:103960002FE033E03A8329831E8221E0BC01CE019F
:1039700001960E940D2711E081110CC010E0812FEB
:103980006D960FB6F894DEBF0FBECDBFDF91CF911D
:103990001F910895CE0101960E94D225F0CFEF929B
:1039A000FF920F931F93CF93DF937B01DB012D9148
:1039B0003C91FC01E20FF31F60816F3211F42F5F25
:1039C0003F4F8C01020F131FEA01F0E0E0E0D80145
:1039D0007D918D017F3249F0772339F02F5F3F4F82
:1039E00031967993EC30F10591F7E40FF51F1082D1
:1039F000FC01E20FF31F40814F3211F42F5F3F4F64
:103A0000F70131832083280F391F81E0D9019C9170
:103A1000911101C080E0DF91CF911F910F91FF9034
:103A2000EF9008954F925F926F927F928F929F9244
:103A3000AF92BF92CF92DF92EF92FF920F931F93BC
:103A4000CF93DF93CDB7DEB7C954D1090FB6F89441
:103A5000DEBF0FBECDBF5C016B013A01490119A267
:103A600018A28FE093E09F8F8E8F1BA21C821B8277
:103A70009A8389831E822A961FAE1EAE2A978B01D7
:103A80007E018EE1E80EF11C44244394AE01455CB6
:103A90005F4FBE01685B7F4FC5010E94CF1C582E4F
:103AA000482F44259401BE01655C7F4FC801F30196
:103AB0000995811120C00C151D05C9F480E0C75B74
:103AC000DF4F0FB6F894DEBF0FBECDBFDF91CF91B1
:103AD0001F910F91FF90EF90DF90CF90BF90AF902C
:103AE0009F908F907F906F905F904F900895C80146
:103AF0000E94D225E3CF552091F021E0AE01455C34
:103B00005F4FB801C7010E940D27582E0C151D05E7
:103B100071F0C8010E94D22551100EC0CFCF0C15F4
:103B20001D0519F0C8010E94D22581E0C8CF882365
:103B300029F28E010F5F1F4F902F812F8701E92EF1
:103B4000F82EA4CF0F931F93CF93DF93EC01162F82
:103B50008FA5882321F0CE018A960E94D225412F7D
:103B600061E0CE010E946F20811102C090E012C07E
:103B70008E01045F1F4F41E0BE01C8010E94342D39
:103B8000882371F0B801CE018A960E945D2391E0EE
:103B9000882361F3892FDF91CF911F910F910895B1
:103BA00040E0BE01C8010E94342D8823F9F2EACF1B
:103BB000FC01DB0112968D919C9113979383828374
:103BC0008FE093E09183808314968C911497848383
:103BD00015968C911597858316964D915D916D91F3
:103BE0007C91199746835783608771871A964D9108
:103BF0005D916D917C911D9742875387648775878E
:103C00001E964D915D916D917C9151974687578796
:103C1000608B718B52968C915297828B53964D91FB
:103C20005D916D917C915697438B548B658B768B10
:103C300057964D915D916D917C915A97478B508F1E
:103C4000618F728F5B968D919C91948F838F089575
:103C50004F925F926F927F928F929F92AF92BF929C
:103C6000CF92DF92EF92FF920F931F93CF93DF9348
:103C7000CDB7DEB7C754D1090FB6F894DEBF0FBE7B
:103C8000CDBF5C014A013901665D7F4F7E018EE147
:103C9000E80EF11CC7010E94D81D1C821B828FE018
:103CA00093E09A8389831E828401FE0131966F011D
:103CB0005E2C4F2C6FE270E0C8010E9431400097EB
:103CC00009F455C0F80120812F3219F40F5F1F4FFE
:103CD000F1CF801B8D3008F08CE0E82EF12CA7018D
:103CE000B801CE01CB960E944340EBE3F0E0EC0F2D
:103CF000FD1FEE0DFF1D1082C6010E94D22521E09E
:103D0000AE01455C5F4F652D742DC6010E940D27E5
:103D1000811121C0F501138212828FE093E091831B
:103D200080831582C501C95BDF4F0FB6F894DEBFF3
:103D30000FBECDBFDF91CF911F910F91FF90EF90FC
:103D4000DF90CF90BF90AF909F908F907F906F90BB
:103D50005F904F9008950E0D1F1D852D942D0E948C
:103D6000D225C2015C2C4D2CC92ED82EA3CF081908
:103D70001909F30111830083652D742DC5010E947B
:103D8000D81DD0CFAF92BF92CF92DF92FF920F9308
:103D90001F93CF93DF93CDB7DEB7C955D1090FB6C7
:103DA000F894DEBF0FBECDBF6C015B018A01F22E1D
:103DB0009E01285A3F4FCE01CB960E94281E6A963C
:103DC0008EAD9FAD6A97080F191FF8018081811190
:103DD00010C0BE01655C7F4FCE0101960E94D81DC8
:103DE00049E053E0BE016F5F7F4FC6010E94EF1BA9
:103DF0000FC019A218A28FE093E09F8F8E8F1BA295
:103E000021968FAD2197811115C0C6010E94241CF7
:103E1000C601C75ADF4F0FB6F894DEBF0FBECDBF45
:103E2000DF91CF911F910F91FF90DF90CF90BF90C6
:103E3000AF90089582508230F8F4B501665D7F4FEF
:103E40002F2DA801CE014E960E940D278823E9F25E
:103E50008F2D867041F049A95AA96BA97CA9CE0182
:103E60004E960E94F524BE01625E7F4FCE01019600
:103E70000E94D81DA801B6CF2F2DA801BE01655CF8
:103E80007F4FCE014E960E940D27882309F4BDCFA7
:103E9000CE01CB960E94D225DBCFFB01BC01665D33
:103EA0007F4F30E020E042EA5CE1CF010C94121D2C
:103EB000E9EEF9E0158216821186138682E090E021
:103EC000A0E0B0E084879587A687B78713A215A6E0
:103ED00014A68FE093E093A782A717A608959FB733
:103EE000F8942091400C80913E0C213019F48DBB48
:103EF0009FBF08958FBF08952091400C222381F029
:103F00003FB7F8942091400C213069F42DB32093F1
:103F10003E0C4DB320913F0C209524232DBB3FBF79
:103F20008CBD9DBD089530933E0CFACF8EBD000030
:103F30000DB407FEFDCF8EB508958FEF0C94961F3C
:103F400061E0FC0184810E94703B8091320A8823E9
:103F500039F01092320A8091400C81110C946F1F3D
:103F60000895CF93DF93EC018091320A811109C04B
:103F700081E08093320A8091330A9091340A0E9442
:103F80007C1F60E08C81DF91CF910C94703BCF93CC
:103F9000DF93EC018E81882389F08F8198859C01C5
:103FA0002F5F3F4F38872F838230924018F40E9452
:103FB0009D1FF3CFCE010E94A01F1E82DF91CF91E3
:103FC0000895673028F026E1FC01258380E00895FC
:103FD000623079F038F06430A9F090F06530A1F0EB
:103FE00082E508C080E58093330A81E08093340A3B
:103FF000089580E58093330A1092340A81E0089591
:1040000081E5F1CF81E5F6CF82E5EDCF0F931F93E8
:10401000CF93DF93EB010E94553A8B010E949D1FC5
:104020008F3F69F00E94553A601B710B6C177D073A
:10403000A8F380E0DF91CF911F910F91089581E067
:10404000F9CF8F929F92AF92BF92FF920F931F93DF
:10405000CF93DF93EC01F62E49015A010E94C71F4E
:10406000CE010E94B11F6CE271E0CE010E940620D9
:104070008F2D80640E94961F08E110E0D501C401D5
:10408000002E04C0B695A795979587950A94D2F708
:104090000E94961F08501109083F8FEF180771F70B
:1040A00085E9FF2021F088E0F8120DC087E80E9422
:1040B000961F10E00E949D1F8A8787FF06C01F3F42
:1040C00021F01F5FF7CF8FEFF2CFDF91CF911F91DC
:1040D0000F91FF90BF90AF909F908F9008958F9217
:1040E0009F92AF92BF92EF92FF920F931F93CF9345
:1040F000DF93EC01E62E1B8619861E821D824C83FF
:104100000E94553A8B0161E08C810E94343B61E052
:104110008C810E94703B0E94542E82E58093330A6A
:1041200081E08093340A8091330A9091340A0E948E
:104130007C1F2AE0F22E8FEF0E94961FFA94F11056
:10414000FACF8091400C81110E946F1FCE010E9416
:10415000B11F20E030E0A90160E0CE010E942120E3
:10416000F82E8A8781E0F816C1F00E94553A601B4C
:10417000710B613D774068F381E08D83CE010E9431
:10418000A01F80E0DF91CF911F910F91FF90EF90E2
:10419000BF90AF909F908F9008952AEA31E040E061
:1041A00050E068E0CE010E94212082FF25C0FB86FE
:1041B0008B85812C912C5401823029F4812C912CF7
:1041C000A12C80E4B82E20E030E0A90167E3CE0105
:1041D0000E942120A501940169E2CE010E942120C4
:1041E0008A878823C1F00E94553A601B710B613D9C
:1041F000774048F388E0C1CF94E0F92E0E949D1FDC
:104200008A87FA94F110FACF8A3A11F082E0B5CF9A
:1042100082E08B87CDCF8B858230C1F420E030E007
:10422000A9016AE3CE010E942120882311F086E0D3
:10423000A4CF0E949D1F807C803C11F483E08B877B
:104240000E949D1F0E949D1F0E949D1FCE010E94E3
:10425000A01F6E2DCE01DF91CF911F910F91FF9086
:10426000EF90BF90AF909F908F900C94E11F0F93B1
:104270001F93CF93DF93EC010E94553A8B010E946C
:104280009D1F8A878F3F91F40E94553A601B710BE6
:104290006D327140A0F38FE08D83CE010E94A01F8C
:1042A00080E0DF91CF911F910F9108958E3F11F023
:1042B0008DE0F2CF81E0F5CFCF92DF92EF92FF92C7
:1042C0000F931F93CF93DF93EC016901C801820F15
:1042D000931F8130924048F58E81882371F0888148
:1042E0009981AA81BB8184179507A607B70729F48E
:1042F0008F819885C816D90670F5488359836A83DB
:104300007B838B85833039F089E0440F551F661F0E
:10431000771F8A95D1F79A01AB0161E1CE010E9426
:104320002120882379F083E08D83CE010E94A01F95
:1043300080E0DF91CF911F910F91FF90EF90DF9080
:10434000CF900895CE010E943721882371F31886FB
:104350001F8281E08E838F8198858C159D0560F08A
:104360006701E00EF11EEC14FD0471F00E949D1F28
:10437000F60181936F01F7CF0E949D1F8F81988571
:10438000019698878F83E7CF8F819885080F191F33
:1043900018870F838985882319F00115124018F0BA
:1043A000CE010E94C71F81E0C4CFEF92FF920F930E
:1043B0001F930115110539F00E945C211F910F9187
:1043C000FF90EF90089581E0F9CFEF92FF920F9365
:1043D0001F93790100E012E030E020E00E945C21B0
:1043E0001F910F91FF90EF900895EF92FF920F931E
:1043F0001F93CF93DF938C01862F7A010E94961F23
:10440000E7018EEFF81A89910E94961FCE15DF05FD
:10441000D1F78FEF0E94961F8FEF0E94961F0E9488
:104420009D1FF80182878F71853069F081E1858356
:10443000C8010E94A01F80E0DF91CF911F910F91D2
:10444000FF90EF90089581E0F7CF0F931F93CF93E4
:10445000DF93EC01890182E1411551056105710588
:1044600099F08B85833039F089E0440F551F661F22
:10447000771F8A95D1F79A01AB0168E1CE010E94BE
:104480002120882339F084E08D83CE010E94A01F73
:1044900080E023C0A8016EEFCE010E94F5218823A1
:1044A000A1F368E572E0CE010E940620811102C0EE
:1044B00085E1EACF20E030E0A9016DE0CE010E9465
:1044C0002120882311F084E1DFCF0E949D1F8111FC
:1044D000FACFCE010E94A01F81E0DF91CF911F9102
:1044E0000F910895E3E3FAE080E5808381E0818322
:1044F00008950895CF93DF93EC019C012A5F3F4F0D
:1045000041E050E060E070E08B8D9C8D0E94D32BE9
:104510008823A1F08F89988DA98DBA8D892B8A2B3C
:104520008B2B59F48E819F81A885B9858F8B988FAD
:10453000A98FBA8F8C8180688C8381E0DF91CF91C5
:1045400008958F929F92AF92BF92CF92DF92EF9297
:10455000FF92CF93DF93EC010E947A2281110CC06D
:1045600080E0DF91CF91FF90EF90DF90CF90BF90F0
:10457000AF909F908F900895EB8DFC8DCE80DF8063
:10458000E884F98482E0C81AD108E108F108858539
:1045900004C0CC0CDD1CEE1CFF1C8A95D2F786856E
:1045A0009785A089B189C80ED91EEA1EFB1E848199
:1045B00046015701880E911CA11CB11C8C149D044E
:1045C000AE04BF0461F081E0881A9108A108B10827
:1045D000C501B4010E94212A8111F0CFC1CFEB8D1A
:1045E000FC8D258580E092E0A0E0B0E004C0880F5B
:1045F000991FAA1FBB1F2A95D2F74B895C896D8929
:104600007E89840F951FA61FB71F8B8B9C8BAD8B4C
:10461000BE8B81E0A6CFCF93DF93EC01462F6E8552
:104620007F85888999890E94E629882351F08A89A3
:1046300020E2829FC0011124825C954FDF91CF91CF
:10464000089590E080E0FACFFB019B01255F3F4F8A
:1046500040E241932E173F07E1F7DC0120E037E00D
:104660009D91492F992319F19E3229F43A3059F03E
:1046700028E03AE0F5CFE6E8F1E08491882329F0DC
:1046800031969813FACF80E017C03217A8F05FED8B
:10469000590F5E3588F48FE9890F8A3110F440EEA6
:1046A000490FFB01E20FF11D40832F5FD9CF81E05D
:1046B000FB019081903239F308950F931F93CF93AC
:1046C000DF93FC012581222331F080E0DF91CF913F
:1046D0001F910F9108958B01EC01FB0187898031B7
:1046E00039F582E08D831F8A188E198E1A8E808D7F
:1046F000918DB0E0A0E025E0880F991FAA1FBB1F95
:104700002A95D1F78B8B9C8BAD8BBE8B1C8F0B8F1F
:1047100081E08C831E821F82188619861A861B866A
:104720001C861D861E861F86188A198A1A8ACECF75
:10473000803259F683E08D83428D538D648D758D63
:104740004F8B588F698F7A8F9E012D5E3F4FC80126
:104750000E94C62A8111DACFB8CF2F923F924F9292
:104760005F926F927F928F929F92AF92BF92CF9201
:10477000DF92EF92FF920F931F93CF93DF93EC01A1
:104780005B012A018D81811115C08FEF9FEFDF91B1
:10479000CF911F910F91FF90EF90DF90CF90BF903E
:1047A000AF909F908F907F906F905F904F903F90D1
:1047B0002F9008958C8180FFE8CF0B891C892D896B
:1047C0003E894A855B856C857D85C201B0E0A0E0AD
:1047D00068017901C41AD50AE60AF70AC816D9068B
:1047E000EA06FB0618F42801441A550A42011E0184
:1047F00026E0220E311C8114910409F4B3C04A85CD
:104800005B856C857D856A0181E0D8228B8D9C8DCE
:104810008A019B01E9E03695279517950795EA955A
:10482000D1F7ED81E230E1F5FC01628D738D848D6D
:10483000958D600F711F821F931F612C22E0722ED5
:104840006C187D088614970408F434012C8126FD29
:1048500004C06114F2E07F0671F400910801109128
:10486000090120910A0130910B010617170728074B
:10487000390709F053C040E00E94E629882309F473
:1048800084CFC601825C954FD5019C01260D371D52
:10489000FC012E173F0709F460C041914D93F9CFF9
:1048A000FC0174807A947022C114D10471F47110E7
:1048B0000CC0452B462B472B39F58F89988DA98D38
:1048C000BA8D8E839F83A887B987EB8DFC8D6E810F
:1048D0007F818885998562507109810991092585B3
:1048E00004C0660F771F881F991F2A95D2F7068587
:1048F000178520893189600F711F821F931F670DF3
:10490000711D811D911D99CF4E815F8168857985CB
:1049100091010E94452A8111D8CF37CF75018301BB
:104920009601AB01BC0180913C0A90913D0A0E9426
:10493000D521882309F429CFA60CB71C8A859B852D
:10494000AC85BD85860D971DA11DB11D8A879B87EE
:10495000AC87BD87861897084ECF281B390BA20E4F
:10496000B31EECCFC20113CFFF920F931F93CF93CF
:10497000DF931F92CDB7DEB7FC0125812230C8F04E
:104980008C01428553856485758585E076956795AC
:10499000579547958A95D1F7F42FFF70FF2E41E088
:1049A00050E0BE016F5F7F4FC8010E94AD230197A9
:1049B00019F090E080E012C0F80182859385A4850B
:1049C000B5854F96A11DB11D82879387A487B587B2
:1049D000F0E2FF9EC0011124825C954F0F90DF91A1
:1049E000CF911F910F91FF9008958F929F92AF9258
:1049F000BF92CF92DF92EF92FF920F931F93CF93CC
:104A0000DF93EC018D8181110EC080E0DF91CF91A9
:104A10001F910F91FF90EF90DF90CF90BF90AF90DC
:104A20009F908F9008950B891C892D893E890417CA
:104A300015072607370748F34A015B01823031F436
:104A40008A869B86AC86BD8681E0E0CF8114910486
:104A5000A104B10449F41E821F82188619861A86A1
:104A60001B861C861D86F0CF0A851B852C853D85FF
:104A7000EB8DFC8D858590E00996B901A801415028
:104A8000510961097109082E04C0769567955795FB
:104A900047950A94D2F775016401E1E0CE1AD10876
:104AA000E108F10804C0F694E794D794C7948A9576
:104AB000D2F7C416D506E606F70620F0012B022B26
:104AC000032B11F58F89988DA98DBA8D8E839F83C5
:104AD000A887B9878E010A5F1F4FC114D104E10472
:104AE000F10409F4ADCF4E815F8168857985980125
:104AF0008B8D9C8D0E94452A91E0C91AD108E1084E
:104B0000F1088111EACF81CFC41AD50AE60AF70A63
:104B1000E1CF0F931F93CF93DF93EC018D81882317
:104B2000D9F18C8187FF32C061E0CE010E940B2356
:104B30008C01892B89F18D81823048F48B899C8985
:104B4000AD89BE89F801848F958FA68FB78F8F8925
:104B5000988DF801938F828F8F89988DA98DBA8D4A
:104B6000B58BA48BE091350AF091360A309759F055
:104B7000B8016A5E7F4FC80148960995F801808D9B
:104B8000918D938B828B8C818F778C83DF91CF91EA
:104B90001F910F910C94AB2980E0DF91CF911F9171
:104BA0000F910895CF93DF93EC010E94892588230C
:104BB00011F01D8281E0DF91CF9108954F925F92B5
:104BC0006F927F928F929F92AF92BF92EF92FF92DD
:104BD0000F931F93CF93DF9300D000D0CDB7DEB7F4
:104BE000FC0185818130A1F080E00F900F900F9043
:104BF0000F90DF91CF911F910F91FF90EF90BF9099
:104C0000AF909F908F907F906F905F904F9008959E
:104C1000848181FFE9CF83899489A589B689841726
:104C20009507A607B70700F3892B8A2B8B2B09F46E
:104C300077C04A015B017F01428453846484758498
:104C4000CF010E94F524882379F2F701838D948D9A
:104C500081149104A104B10449F54789508D618DF7
:104C6000728D0E94DE2C882309F4BECFF701178ACB
:104C7000108E118E128EF701838A948AA58AB68AC5
:104C8000848180688483C7010E948925882309F470
:104C9000ABCFB501A401441655066606770610F49D
:104CA000B301A201C7010E94F5249FCF468157811D
:104CB000608571859E012F5F3F4F0E94452A8823A2
:104CC00009F492CFF701838D948D49815A816B81CC
:104CD0007C81FC0127892031F1F408EF1FEF20E0EF
:104CE00030E0401751076207730728F60E94DE2C58
:104CF000882309F479CFF701468157816085718552
:104D00000FEF1FEF2FEF3FE0838D948D0E94312B2B
:104D10008111B1CF69CF08EF1FEF2FEF3FE0E1CF57
:104D200081E063CFCF92DF92EF92FF921F93CF93F8
:104D3000DF93EC0180E2689FF0011124E25CF54F03
:104D40009385917161F0842F827449F080E0DF9146
:104D5000CF911F91FF90EF90DF90CF900895142F87
:104D60006A8B8091080190910901A0910A01B0918C
:104D70000B018E879F87A88BB98BC488D588F12CAF
:104D8000E12C7601DD24CC24CF8AD88EE98EFA8EF0
:104D9000828D938DB0E0A0E0AC01BD014C295D296E
:104DA0006E297F294F8B588F698F7A8F8385887101
:104DB00029F5848D958DA68DB78D8B8B9C8BAD8BB6
:104DC000BE8B81E08D83812F8F708C831E821F822A
:104DD000188619861A861B861C861D8681E016FF9A
:104DE000B6CF40E050E0BA01CE01DF91CF911F91E4
:104DF000FF90EF90DF90CF900C94DE25803109F08A
:104E0000A5CF9E012D5E3F4F8B8D9C8D0E94C62AA3
:104E1000882309F49BCF84E0D5CFBF92CF92DF9255
:104E2000EF92FF920F931F93CF93DF93CDB7DEB72F
:104E30002B970FB6F894DEBF0FBECDBFFC013581B6
:104E400031110BC0C22E8B017C01BE016F5F7F4F01
:104E5000CA010E942423811102C080E0A1C0F80190
:104E6000838D948DF701948F838FF80116821782BA
:104E7000108611861286138614861586B12CF801C9
:104E800082859385A485B58543895489658976890A
:104E900084179507A607B70788F525E0B695A79567
:104EA000979587952A95D1F7F82FFF70DF2EC801C7
:104EB0000E94B424009789F2FC012081222341F052
:104EC000253E09F059C0BB2029F0BB24B394D7CFAD
:104ED000B1100EC0F701D28A40910801509109012A
:104EE00060910A0170910B0146875787608B718B27
:104EF000FC0180818111E9CFBB24B3948C2D827198
:104F0000823109F0AACFBB2009F45AC061E0C70181
:104F10000E940B238C01892B09F49FCF80E2F801BA
:104F200011928A95E9F78BE0FE013196D801019044
:104F30000D928A95E1F7E091350AF091360A3097A3
:104F400009F44EC0B801625F7F4FC80140960995D1
:104F5000F80180899189938B828B918F808F8685D0
:104F60009785978B868B0E94AB29882309F475CF90
:104F70004C2DF701628911C04BE050E0BC01CE011D
:104F800001960E941B40892B09F079CF8C2D8073EC
:104F90004C2D6D2D803309F460CFC7010E949226FD
:104FA0002B960FB6F894DEBF0FBECDBFDF91CF9129
:104FB0001F910F91FF90EF90DF90CF90BF900895D9
:104FC000F8018581823009F448CFC8010E94A122EE
:104FD000882309F442CFF701128A0EE31AE09ECF2C
:104FE00081E298E2F801918B808B80E098E09787CE
:104FF0008687AECF2F923F924F925F926F927F92B1
:105000008F929F92AF92BF92CF92DF92EF92FF92D8
:105010000F931F93CF93DF9300D000D0CDB7DEB7AF
:105020008C016B011A01DC0115968C91159781306A
:1050300009F0C8C014968C9181FFC4C082FDAEC037
:105040004101D8011A964D915D916D917C911D970A
:105050008114910409F429C15B968D919C915C9710
:10506000FC0174802FEF270D2A013B0139E0769473
:105070006794579447943A95D1F7722E74207A0129
:10508000F1E0FF22711020C0E114F104E9F416965A
:105090004D915D916D917C91199741155105610577
:1050A000710509F098C057968D919D910D90BC9116
:1050B000A02D0097A105B10509F0AFC0C8010E945D
:1050C0007A22882309F47EC080E092E08E199F093D
:1050D00054018815990508F45C01D8015B964D913F
:1050E0005C915C9716968D919D910D90BC91A02D31
:1050F0000297A109B109FA01258504C0880F991FFB
:10510000AA1FBB1F2A95D2F74685578560897189EA
:10511000840F951FA61FB71F9C01AD01270D311DE0
:10512000411D511D29013A01A11432E0B30609F0D5
:105130007AC08091080190910901A0910A01B09173
:105140000B0184159505A605B70559F48FEF9FEF60
:10515000DC018093080190930901A0930A01B093A8
:105160000B019601B301A20180913C0A90913D0A86
:105170000E942522882331F19EEFD91A8A189B08B4
:10518000F80182859385A485B5858A0D9B1DA11D97
:10519000B11D82879387A487B58753CFF8014389D0
:1051A00054896589768982859385A485B585481754
:1051B00059076A077B0709F443CFC8010E94F52409
:1051C00081113ECF81E090E0D80113969C938E939D
:1051D000129780E007C09E012F5F3F4F0E94452A33
:1051E000811102C090E07BC089819A81AB81BC8132
:1051F000F801238D348DF901278948EF5FEF60E0D6
:1052000070E0203121F048EF5FEF6FEF7FE084170F
:105210009507A607B70708F051CFF8018683978353
:10522000A087B18751CFE114F10491F5D8011A9606
:105230004D915D916D917C911D9753968D919D91AE
:105240000D90BC91A02D481759076A077B0700F104
:105250000E94AB29882309F4B5CF409208015092EF
:10526000090160920A0170920B0180913B0A8160F2
:1052700080933B0A9701225C354FD601C9018A0D04
:105280009B1DF9018E179F0759F04D914193FACF5D
:1052900041E0C301B2010E94E6298111EBCF92CF18
:1052A000821B930BC80ED91E69CF14968C9114974C
:1052B0005396CD90DD90ED90FC905697C416D50690
:1052C000E606F70618F5F801438B548B658B768B51
:1052D00080688483F801848183FD25C0C1010F901B
:1052E0000F900F900F90DF91CF911F910F91FF9032
:1052F000EF90DF90CF90BF90AF909F908F907F9076
:105300006F905F904F903F902F9008952091350AB5
:105310003091360A232BF1F221143104D9F280683E
:1053200014968C93D7CFC8010E948925882309F44D
:1053300049CFD4CFCF93DF931F92CDB7DEB7698328
:1053400041E050E0BE016F5F7F4F0E94FA270F904F
:10535000DF91CF91089580913B0A8823A9F1409174
:1053600008015091090160910A0170910B012EE32F
:105370003AE080913C0A90913D0A0E9425228111D9
:1053800002C080E008954091370A5091380A609138
:10539000390A70913A0A411551056105710591F07C
:1053A0002EE33AE080913C0A90913D0A0E9425222A
:1053B000882339F31092370A1092380A1092390A6A
:1053C00010923A0A10923B0A81E00895CF92DF9240
:1053D000EF92FF92CF936B017C01C42F8091080163
:1053E00090910901A0910A01B0910B018C159D05C6
:1053F000AE05BF05F9F00E94AB29811107C080E01E
:10540000CF91FF90EF90DF90CF9008952EE33AE098
:10541000B701A60180913C0A90913D0A0E94E521C6
:10542000882369F3C0920801D0920901E0920A0131
:10543000F0920B0140913B0A4C2B40933B0A81E0D8
:10544000DFCFCF92DF92EF92FF926B017C010E943F
:10545000AB298823A9F0EEE3FAE011928CE0EE3359
:10546000F807D9F7C0920801D0920901E0920A0129
:10547000F0920B0180913B0A816080933B0A81E0AE
:10548000FF90EF90DF90CF9008958F929F92AF9210
:10549000BF92CF92DF92EF92FF920F931F93CF9321
:1054A000DF93FC0181859285A385B4850196A11DBA
:1054B000B11D84179507A607B70770F480E0DF9148
:1054C000CF911F910F91FF90EF90DF90CF90BF9001
:1054D000AF909F908F90089583889488A588B68810
:1054E0008789803189F5BB27A72F962F852FE90162
:1054F0006A017B018F01BC01CD01680D791D8A1DF8
:105500009B1D8090080190900901A0900A01B09025
:105510000B0186169706A806B90601F5F8018789DA
:10552000803111F5DD24EE24FF24F601EE0FFF1F7C
:10553000E25CF54F80819181B0E0A0E0888399839F
:10554000AA83BB8381E0BBCFDB01CA01C7E0B6956C
:10555000A79597958795CA95D1F7C9CF40E00E9446
:10556000E6298111DBCFAACFE894C7F8DD24EE2429
:10557000FF24F601EE0FFF1FEE0FFF1FE25CF54F59
:1055800080819181A281B381BF70D8CF4F925F9209
:105590006F927F92AF92BF92CF92DF92EF92FF9283
:1055A0000F931F93CF93DF9300D000D0CDB7DEB71A
:1055B0008C0149835A836B837C835901C12CD12C84
:1055C0007601412C82E0582E612C712C49815A8140
:1055D0006B817C819E012F5F3F4FC8010E94452A4D
:1055E000882339F1F8018585A301920104C0220FB7
:1055F000331F441F551F8A95D2F7DA01C901C80E1F
:10560000D91EEA1EFB1E49815A816B817C818789E4
:10561000803111F188EF9FEFAFEFBFE048175907D6
:105620006A077B0798F2F501C082D182E282F38299
:1056300081E00F900F900F900F90DF91CF911F910D
:105640000F91FF90EF90DF90CF90BF90AF907F9041
:105650006F905F904F90089588EF9FEFA0E0B0E0CB
:10566000DDCF4F925F926F927F928F929F92AF9217
:10567000BF92CF92DF92EF92FF920F931F93CF933F
:10568000DF93EC01423051056105710590F480E033
:10569000DF91CF911F910F91FF90EF90DF90CF900E
:1056A000BF90AF909F908F907F906F905F904F9042
:1056B000089589859A85AB85BC850196A11DB11D8C
:1056C00084179507A607B70710F3CB88DC88ED8809
:1056D000FE888F89803109F042C0BB27A72F962F03
:1056E000852F480159012A013B01C80ED91EEA1E27
:1056F000FB1E8091080190910901A0910A01B091CF
:105700000B01C816D906EA06FB0699F58F89803188
:10571000C1F5B301A201552766277727440F551F0E
:10572000425C554FFA019182808280913B0A8160F0
:1057300080933B0A8A89823080F08D819E81AF817F
:10574000B8858C0D9D1DAE1DBF1D8093370A9093AB
:10575000380AA093390AB0933A0A81E099CFDB0165
:10576000CA01E7E0B695A79597958795EA95D1F791
:10577000B8CF40E0C701B6010E94E6298111C6CF2B
:1057800086CFB301A2014F77552766277727440FAD
:10579000551F440F551F425C554FFA01808291827C
:1057A000A282B382C2CF2F923F924F925F926F92AA
:1057B0007F928F929F92AF92BF92CF92DF92EF92A1
:1057C000FF920F931F93CF93DF93CDB7DEB72F9741
:1057D0000FB6F894DEBF0FBECDBF3C014887598796
:1057E0006A877B873F832E83D901CD90DD90ED9032
:1057F000FC90C114D104E104F10439F0BFEFCB1ADD
:10580000DB0AEB0AFB0A1D8210C0FC01C080D180BC
:10581000E280F380F1E0FD83088519852A853B85C8
:10582000013011052105310571F7F301818592855C
:10583000A385B4858C019D010F5F1F4F2F4F3F4FF4
:105840000C871D872E873F8746015701212C312C5D
:105850002101F30181859285A385B4852816390637
:105860004A065B0608F044C00C851D852E853F85E1
:10587000081519052A053B0550F482E0882E912C65
:10588000A12CB12C92E0C92ED12CE12CF12C9E013F
:105890002F5F3F4FB501A401C3010E94452A882311
:1058A00039F1D501C4010196A11DB11D49815A816B
:1058B0006B817C81452B462B472BA9F5AC01BD01A3
:1058C0004C195D096E097F09088519852A853B8574
:1058D000401751076207730741F50FEF1FEF2FEFD6
:1058E0003FE0B501A401C3010E94312B811125C005
:1058F0001D828D812F960FB6F894DEBF0FBECDBFEF
:10590000DF91CF911F910F91FF90EF90DF90CF909B
:10591000BF90AF909F908F907F906F905F904F90CF
:105920003F902F9008956C017D011FEF211A310ADD
:10593000410A510A4C015D018CCFC814D904EA0414
:10594000FB0488F41401250121E0221A31084108E2
:10595000510895018401B201A101C3010E94312BBC
:1059600052014101C3CFAE81BF814D915D916D91D7
:105970007C91411551056105710561F4EE81FF814E
:10598000C082D182E282F382FD81F1110BC001E07D
:105990000D83AFCF97018601C3010E94312B811186
:1059A000EDCFA6CF1FEFC11AD10AE10AF10AD30148
:1059B000CD92DD92ED92FC9213979BCFAF92BF9266
:1059C000CF92DF92EF92FF920F931F93CF93DF93CB
:1059D00000D000D0CDB7DEB75C016A017B0182E068
:1059E00090E0A0E0B0E0F50180839183A283B383CF
:1059F0009E012F5F3F4FB701A601C5010E94452AB6
:105A0000882381F100E010E09801B701A601C501EB
:105A10000E94312B882331F1C980DA80EB80FC8031
:105A2000F50187898031C9F088EF9FEFAFEFBFE0C4
:105A3000C816D906EA06FB06D8F281E00F900F904F
:105A40000F900F90DF91CF911F910F91FF90EF90EA
:105A5000DF90CF90BF90AF90089588EF9FEFA0E0C8
:105A6000B0E0E6CF80E0EACF8F929F92AF92BF92F4
:105A7000CF92DF92EF92FF920F931F93CF93DF931A
:105A8000EC01142F70933D0A60933C0A442309F4FF
:105A900078C0453070F080E0DF91CF911F910F9179
:105AA000FF90EF90DF90CF90BF90AF909F908F903E
:105AB000089540E060E070E0CB010E94E629882371
:105AC00051F3812F8150990BAC0164E0440F551FB5
:105AD0006A95E1F7425C554FFA01E254FE4F80812E
