:100000000C9411010C943B010C943B010C943B01AA
:100010000C943B010C943B010C943B010C943B0170
:100020000C943B010C943B010C943B010C943B0160
:100030000C943B010C946A010C943B010C943B0121
:100040000C943B010C943B010C945C340C943B01EC
:100050000C94722F0C94A82F0C943B010C943B0130
:100060000C943B010C943B010C9444140C943B0104
:100070000C9409300C943F300C943B010C943B01E0
:100080000C943B010C943B010C943B0100407A1012
:10009000F35A00A0724E18090010A5D4E80000E839
:1000A0007648170000E40B54020000CA9A3B000097
:1000B00000E1F505000080969800000040420F0026
:1000C0000000A08601000000102700000000E803E7
:1000D000000000006400000000000A0000000000B2
:1000E0000100000000002C76D888DC674F0823DF71
:1000F000C1DFAE59E1B1B796E5E3E453C63AE65144
:10010000997696E8E6C28426EB898C9B62ED407C6A
:100110006FFCEFBC9C9F40F2BAA56FA5F490055A06
:100120002AF75C936B6CF9676DC11BFCE0E40D472B
:10013000FEF520E6B500D0ED902E0300943577054E
:100140000080841E080000204E0A000000C80C3306
:100150003333330F986E12831141EF8D2114893B95
:10016000E65516CFFEE6DB18D1844B381BF77C1D15
:10017000901DA4BBE424203284725E228100C9F168
:1001800024ECA1E53D277C3C3E5E2B3D3F2F5B5D93
:100190003B2C2A225C000000000203000A0B000036
:1001A0000000050409080000000000000000000035
:1001B000000000000000010204081020408001023D
:1001C0000408102040800102040810204080010231
:1001D000040810204080020202020202020204040B
:1001E00004040404040403030303030303030101DD
:1001F0000101010101010000200023002600290067
:1002000000002200250028002B000000210024000F
:1002100027002A007F0159135D19771CDC2F7330EA
:10022000910111241FBECFEFD0E4DEBFCDBF12E09D
:10023000A0E0B1E0E0EDFAE700E00BBF02C00790FC
:100240000D92A636B107D9F72CE0A6E6B2E001C0C0
:100250001D92A43BB207E1F711E0C0E1D1E004C078
:100260002197FE010E941138CA30D107C9F70E94B8
:100270004D340C945B3D0C940000DC01ED91FC913D
:100280000190F081E02D09940CB405FC0DC09EBDD9
:1002900000000DB407FEFDCF9EB58EBD00000DB46D
:1002A00007FEFDCF8EB508958EBD00000DB407FE8C
:1002B000FDCF8EB59EBD00000DB407FEFDCF9EB5EF
:1002C0000895982F92959F708F702AE0929F800DCD
:1002D000112408951F920F920FB60F9211248F933D
:1002E000809168028F5F809368021092850010925F
:1002F00084008F910F900FBE0F901F90189566E1AC
:1003000071E08BE698E00E946A3264E471E085E671
:1003100098E00E946A326AE771E08FE598E00C94F9
:100320006A328FE598E00E94F83185E698E00E94F5
:10033000F8318BE698E00C94F831CF93DF9361E5C8
:1003400070E081E798E00E94D81270E060E081E7F9
:1003500098E00E943D0181E798E00E94561346E034
:1003600050E061E570E081E798E00E94531381E777
:1003700098E00E944B120E9461018093690281E71C
:1003800098E00E944B128F770E946101D82F81E77D
:1003900098E00E944B128F770E946101C82F81E77D
:1003A00098E00E944B120E94610190E0B0E0A0E052
:1003B00080936A0290936B02A0936C02B0936D02DB
:1003C00081E798E00E944B120E94610124E6829F1F
:1003D000C0011124092E000CAA0BBB0B40916A022C
:1003E00050916B0260916C0270916D02840F951FA9
:1003F000A61FB71F80936A0290936B02A0936C02B2
:10040000B0936D0281E798E00E944B120E94610157
:1004100040E157E2849F9001859F300D1124032E07
:10042000000C440B550B80916A0290916B02A091D5
:100430006C02B0916D02280F391F4A1F5B1FA0E1AB
:10044000BEE00E942938AB01BC012CE3C29FC00171
:100450001124092E000CAA0BBB0B8D0F911DA11DA1
:10046000B11D840F951FA61FB71F80936A0290933A
:100470006B02A0936C02B0936D02DF91CF9108954F
:10048000CF93DF93CDB7DEB7C459D1090FB6F89437
:10049000DEBF0FBECDBF88E19FE00FB6F894A895F0
:1004A000809360000FBE9093600061E083E10E9442
:1004B000C13560E082E10E94C13561E082E00E94C6
:1004C000853561E082E00E94C13561E084E10E94EF
:1004D000853561E084E10E94C1356AE771E0CE01B3
:1004E00081579F4F0E946A320E949D0161E571E031
:1004F000CE0181579F4F0E94FD3360915B08709140
:100500005C084AE0CE0101960E94E232BE016F5FB4
:100510007F4FCE0181579F4F0E94F633CE01019647
:100520000E94F83168ED71E0CE0181579F4F0E9423
:10053000FD3340916A0250916B0260916C027091A0
:100540006D022AE0CE0101960E940E33BE016F5F5C
:100550007F4FCE0181579F4F0E94F633CE01019607
:100560000E94F8316AEA71E0CE0181579F4F0E94E4
:10057000FD334AE060916902CE0101960E94893202
:10058000BE016F5F7F4FCE0181579F4F0E94F633B0
:10059000CE0101960E94F83168ED71E0CE018157DD
:1005A0009F4F0E94FD3341E758E064E4CE01885A32
:1005B0009F4F0E941129CE01885A9F4F0E944829BF
:1005C00061E0CE01885A9F4F0E94CB29E1966EAD23
:1005D0007FADE19790E080E00E94C0362FEA30E0E6
:1005E0004FE25BE30E94723720E030E044E352E4E4
:1005F0000E941836AB01BC0121E0CE0101960E9499
:100600006A33BE016F5F7F4FCE0181579F4F0E94BB
:10061000F633CE0101960E94F83168ED71E0CE010B
:1006200001960E946A32BE016F5F7F4FCE018157F3
:100630009F4F0E94F633CE0101960E94F831AF968B
:100640006EAD7FADAF9790E080E00E94C03628ECA1
:1006500030E048EC5AE30E947237AB01BC0121E064
:10066000CE0101960E946A33BE016F5F7F4FCE01BB
:1006700081579F4F0E94F633CE0101960E94F831B8
:1006800068ED71E0CE0101960E946A32BE016F5F93
:100690007F4FCE0181579F4F0E94F633CE010196C6
:1006A0000E94F83141E758E065E4CE01CC960E9403
:1006B0001129CE01CC960E94482961E0CE01CC964A
:1006C0000E94CB2965966EAD7FAD659790E080E086
:1006D0000E94C0362FEA30E04FE25BE30E9472379F
:1006E00020E030E044E352E40E941836AB01BC0144
:1006F00021E0CE0101960E946A33BE016F5F7F4FF9
:10070000CE0181579F4F0E94F633CE0101960E9481
:10071000F83168ED71E0CE0101960E946A32BE01A7
:100720006F5F7F4FCE0181579F4F0E94F633CE01FE
:1007300001960E94F83163966EAD7FAD639790E0AD
:1007400080E00E94C03628EC30E048EC5AE30E947A
:100750007237AB01BC0121E0CE0101960E946A33E1
:10076000BE016F5F7F4FCE0181579F4F0E94F633CE
:10077000CE0101960E94F83168ED71E0CE0101963C
:100780000E946A32BE016F5F7F4FCE0181579F4F3B
:100790000E94F633CE0101960E94F83141E758E0FD
:1007A00067E7CE0101960E94F729CE0101960E94CB
:1007B000232E6A81CE0101960E94B72BCE010196AD
:1007C0000E94312AAB01BC0122E0CE018C589F4F20
:1007D0000E946A33BE016C587F4FCE0181579F4FF4
:1007E0000E94F633CE018C589F4F0E94F83168ED7D
:1007F00071E0CE018C589F4F0E946A32BE016C5846
:100800007F4FCE0181579F4F0E94F633CE018C5807
:100810009F4F0E94F831CE0101960E94682AAB01D9
:10082000BC0122E0CE018C589F4F0E946A33BE016A
:100830006C587F4FCE0181579F4F0E94F633CE01F7
:100840008C589F4F0E94F83161E084E10E94853509
:1008500060E084E10E94C13561E082E00E9485355C
:1008600060E082E00E94C1350FB6F894A8958091AF
:100870006000886180936000109260000FBEBE012E
:1008800061577F4F89E09CE00E94FD308091070115
:10089000882371F164E083E199E00E94A71767E57E
:1008A00071E0882309F443C040915F0850916008CB
:1008B00023E163E179E0CE018C589F4F0E94C71875
:1008C000CE018C589F4F0E949B16882371F1BE0168
:1008D00061577F4FCE018C589F4F0E94FD30CE0153
:1008E0008C589F4F0E94891661E084E00E94C135B8
:1008F00061E082E10E94C13560E083E10E94C13580
:1009000061E070E080E090E00E94D734CE01815732
:100910009F4F0E94F831CC56DF4F0FB6F894DEBFE0
:100920000FBECDBFDF91CF91089566E671E089E0FB
:100930009CE00E940F3110920701D6CF4F925F9238
:100940006F927F92AF92BF92CF92DF92EF92FF921F
:100950000F931F93CF93DF93CDB7DEB7A7970FB653
:10096000F894DEBF0FBECDBF61E083E10E94C135C8
:1009700060E082E10E94C1350E949D016AE771E05A
:10098000CE0182960E946A3260E771E0CE018296C3
:100990000E94FD3360915B0870915C084AE0CE01D3
:1009A00001960E94E232BE016F5F7F4FCE018296B8
:1009B0000E94F633CE0101960E94F83168ED71E095
:1009C000CE0182960E94FD336091FB057091FC057B
:1009D0004AE0CE0101960E94E232BE016F5F7F4F76
:1009E000CE0182960E94F633CE0101960E94F83124
:1009F00089E7E82E82E0F82E90EDC92E94E0D92EFA
:100A00002DEFA22E25E0B22E01E010E080917502BC
:100A1000909176020817190708F051C00C3221E0B6
:100A2000120709F44CC0F60181916F01F501419064
:100A300051905F01712C612C882331F0F7E94F0E42
:100A4000F8E95F1E611C711C68E771E0CE018296B7
:100A50000E94FD336BE771E0CE0182960E94FD3368
:100A60002AE0B301A201CE0101960E940E33BE011D
:100A70006F5F7F4FCE0182960E94F633CE010196C2
:100A80000E94F83168ED71E0CE0182960E94FD333C
:100A9000F701619171917F014AE0CE0101960E94B8
:100AA000E232BE016F5F7F4FCE0182960E94F63325
:100AB000CE0101960E94F8310F5F1F4FA7CF6FE75D
:100AC00071E0CE0182960E94FD3360915B087091C7
:100AD0005C084AE0CE0101960E94E232BE016F5FDF
:100AE0007F4FCE0182960E94F633CE0101960E947E
:100AF000F83168ED71E0CE0182960E94FD3340919D
:100B00006A0250916B0260916C0270916D022AE052
:100B1000CE0101960E940E33BE016F5F7F4FCE0162
:100B200082960E94F633CE0101960E94F8316AEA5D
:100B300071E0CE0182960E94FD334AE06091690225
:100B4000CE0101960E948932BE016F5F7F4FCE01B8
:100B500082960E94F633CE0101960E94F83168ED2C
:100B600071E0CE0182960E94FD33809194006091E5
:100B70009500762F682F4AE0CE0101960E94E2325E
:100B8000BE016F5F7F4FCE0182960E94F633CE0189
:100B900001960E94F83168ED71E0CE0182960E94C4
:100BA000FD336091750270917602615071094AE0DF
:100BB000CE0101960E94E232BE016F5F7F4FCE01EF
:100BC00082960E94F633CE0101960E94F83103E529
:100BD00018E068ED71E0CE0182960E94FD33F801C5
:100BE000619171918F014AE0CE0101960E94E2323B
:100BF000BE016F5F7F4FCE0182960E94F633CE0119
:100C000001960E94F831F8E00B351F0711F7BE017D
:100C10006E5D7F4F89E09CE00E94FD30809107016E
:100C200061E0882309F4A6C08EE00E94C13564E02B
:100C300083E199E00E94A71767E571E0882309F432
:100C400092C040915F085091600823E163E179E030
:100C5000CE0101960E94C718CE0101960E949B16F4
:100C6000882309F47EC0BE016E5D7F4FCE010196E0
:100C70000E94FD30CE0101960E94891661E084E059
:100C80000E94C13560E08EE00E94C13560E08DE0D9
:100C90000E94C13580915B0890915C08893F9A421F
:100CA000C8F110925C0810925B0860915D08709129
:100CB0005E086F5F7F4F70935E0860935D084AE047
:100CC000CE014C960E94E232BE01645E7F4FCE019F
:100CD00001960E94523368E871E0CE0101960E94AD
:100CE0001F34BC018FE598E00E943B33CE01019692
:100CF0000E94F831CE014C960E94F8316DE871E007
:100D000089E09CE00E94EA306FE578E089E09CE0B1
:100D10000E94FD3061E082E10E94C13560E083E124
:100D20000E94C13561E070E080E090E00E94D7341D
:100D3000CE0182960E94F831A7960FB6F894DEBFD6
:100D40000FBECDBFDF91CF911F910F91FF90EF901C
:100D5000DF90CF90BF90AF907F906F905F904F905B
:100D6000089566E671E089E09CE00E940F311092E0
:100D7000070184CF8DE00E94C135CEA0DFA010E036
:100D800000E0FF24FA948DE10E94EF35892B19F0E1
:100D9000FA94F110F8CF82E390E00E9410357801C8
:100DA0002FEFE21AF20AB801CE0182960E9439347E
:100DB000FC0160818CE69BE00E94F230CE14DF04DF
:100DC00060F48CE69BE00E94F930BE016E5D7F4FBF
:100DD00089E09CE00E94FD3055CF8701D2CF0F9370
:100DE0001F93CF93DF93C82F65E570E081E798E00C
:100DF0000E94D8120C2E000CDD0BBE0181E798E09A
:100E00000E943D0181E798E00E94561341E050E0C6
:100E100065E570E081E798E00E94531381E798E070
:100E20000E944B128C0165E570E081E798E00E941A
:100E3000D812BE016F5F7F4F81E798E00E943D01AD
:100E400081E798E00E94561341E050E065E570E0CC
:100E500081E798E00E94531381E798E00E944B12CB
:100E600020E0382FC901800F911FDF91CF911F9192
:100E70000F910895CF93DF93CDB7DEB7A1970FB64B
:100E8000F894DEBF0FBECDBF61E083E10E94C135A3
:100E900060E082E10E94C1356AE771E0CE014C96C4
:100EA0000E946A320E949D0168E971E0CE014C9671
:100EB0000E94FD3360915B0870915C084AE0CE01AE
:100EC00001960E94E232BE016F5F7F4FCE014C96C9
:100ED0000E94F633CE0101960E94F83168ED71E070
:100EE000CE014C960E94FD3340916A0250916B02F4
:100EF00060916C0270916D022AE0CE0101960E9411
:100F00000E33BE016F5F7F4FCE014C960E94F633C9
:100F1000CE0101960E94F8316AEA71E0CE014C964A
:100F20000E94FD334AE060916902CE0101960E9461
:100F30008932BE016F5F7F4FCE014C960E94F6331F
:100F4000CE0101960E94F83168ED71E0CE014C9619
:100F50000E94FD3388E00E94EF064AE0BC01CE010A
:100F600001960E94B632BE016F5F7F4FCE014C9654
:100F70000E94F633CE0101960E94F83168ED71E0CF
:100F8000CE014C960E94FD338AE00E94EF064AE0B3
:100F9000BC01CE0101960E94B632BE016F5F7F4F49
:100FA000CE014C960E94F633CE0101960E94F83194
:100FB00068ED71E0CE014C960E94FD3384E00E9402
:100FC000EF064AE0BC01CE0101960E94B632BE0196
:100FD0006F5F7F4FCE014C960E94F633CE01019693
:100FE0000E94F83168ED71E0CE014C960E94FD330D
:100FF00086E00E94EF064AE0BC01CE0101960E9405
:10100000B632BE016F5F7F4FCE014C960E94F63321
:10101000CE0101960E94F83168ED71E0CE014C9648
:101020000E94FD338CE00E94EF06BC01990F880BF3
:10103000990B0E94C2362DEC3CEC4CEC5DE30E9417
:10104000723723E333E948E853E40E941836AB01D2
:10105000BC0122E0CE0101960E949A33BE016F5F6F
:101060007F4FCE014C960E94F633CE0101960E942E
:10107000F831BE01645E7F4F89E09CE00E94FD3044
:1010800080910701882349F164E083E199E00E949F
:10109000A71767E571E08823E9F140915F08509157
:1010A000600823E163E179E0CE0101960E94C71850
:1010B000CE0101960E949B16882351F1BE01645E09
:1010C0007F4FCE0101960E94FD30CE0101960E9415
:1010D000891661E084E00E94C13561E082E10E94EE
:1010E000C13560E083E10E94C13561E070E080E0DD
:1010F00090E00E94D734CE014C960E94F831A19620
:101100000FB6F894DEBF0FBECDBFDF91CF9108952B
:1011100066E671E089E09CE00E940F3110920701C1
:10112000D8CF10925408109253081092560810927B
:101130005508109258081092570810925A081092A9
:10114000590881E090E0909376028093750261E007
:1011500087E10E94C13560E086E10E94C13590E0E0
:1011600080E00E94440161E086E10E94C135109256
:1011700085001092840090919400809195008927B9
:10118000982789279093FC058093FB0510926802AD
:10119000109267021092660210E208E1B9E2FB2E9B
:1011A000C1E0D0E018993EC1809168028230D0F34E
:1011B0008EE10E94EF35892B29F5A8ECCA2ED12C9F
:1011C00086E990E00E94103561E08FE00E9485354D
:1011D00061E08FE00E94C13586E990E00E94103501
:1011E00061E08FE00E94853560E08FE00E94C135AC
:1011F00041E0C41AD10821F78091700291E089275B
:101200008093700210926802809167028F5F8093D2
:101210006702809166028F5F809366028BE10E9475
:10122000EF35682F8DE00E94C1358BE10E94EF35CC
:10123000892B09F48DC061E570E081E798E00E9498
:10124000D81267E281E798E00E946E1260E081E7C1
:1012500098E00E946E1265E970E081E798E00E94D4
:101260003D0181E798E00E94561368EB7BE080E047
:1012700090E00E94D734C8ECD0E08AEF90E00E9462
:10128000103561E08FE00E94853561E08FE00E94BB
:10129000C1358AEF90E00E94103561E08FE00E9436
:1012A000853560E08FE00E94C135219731F761E517
:1012B00070E081E798E00E94D81267E281E798E049
:1012C0000E946E1263E081E798E00E946E1265E969
:1012D00070E081E798E00E943D0181E798E00E947C
:1012E00056136AE670E081E798E00E94D81268E140
:1012F00081E798E00E946E126AE081E798E00E9420
:101300006E1281E798E00E94561368E873E180E06E
:1013100090E00E94D734C8ECD0E08AEF90E00E94C1
:10132000103561E08FE00E94853561E08FE00E941A
:10133000C1358AEF90E00E94103561E08FE00E9495
:10134000853560E08FE00E94C135219731F7DDCF10
:1013500061E086E10E94C13560E087E10E94C1350D
:101360000FB6F894A895009360000FBEF09260004D
:101370000E949E041092540810925308109256082E
:1013800010925508109258081092570810925A0857
:1013900010925908D0937602C0937502809166022C
:1013A0008E3120F0109266020E9440028091670206
:1013B000843B20F0109267020E943A0761E087E1C7
:1013C0000E94C13560E086E10E94C13590E080E076
:1013D0000E94440161E086E10E94C1350FB6F89495
:1013E000A8958091600088618093600010926000F1
:1013F0000FBE80915B0890915C08019690935C0809
:1014000080935B0810928500109284009091940064
:10141000809195008927982789279093FC058093D0
:10142000FB05C0CE60E086E10E94C13590E080E01F
:101430000E94440120917002222361F184309105C1
:1014400060F12BB121272BB92091750230917602E2
:101450002C32E1E03E07B8F4609184007091850081
:10146000A901440F551FFA01E550FA4F71836083BB
:1014700060916802F901E153FB4F608349585D4F69
:10148000FA01918380832F5F3F4F30937602209340
:1014900075020DC084309105B8F6880F991FFC01C4
:1014A000ED5AF74F8081918101969183808361E0AD
:1014B00086E10E94C13576CECF93DF93D82FC62F19
:1014C0006AE670E081E798E00E94D8126D2F81E70C
:1014D00098E00E946E126C2F81E798E00E946E12D5
:1014E00081E798E0DF91CF910C9456136AE670E0A3
:1014F00081E798E00E94D81262E081E798E00E94BC
:101500006E1260E671E081E798E00E943D0181E79C
:1015100098E00E9456136AE670E081E798E00E9426
:10152000D81264E181E798E00E946E1266E281E7DA
:1015300098E00E946E1269E181E798E00E946E12C5
:1015400060EA81E798E00E946E1266E581E798E024
:101550000E946E1260E081E798E00E946E1261E0E6
:1015600081E798E00E946E1281E798E00E9456138E
:101570006AE670E081E798E00E94D8126AE181E7AC
:1015800098E00E946E126FEB81E798E00E946E1265
:1015900081E798E00E9456136AE670E081E798E0E0
:1015A0000E94D81266E281E798E00E946E126CE811
:1015B00081E798E00E946E1281E798E00C94561340
:1015C0006AE670E081E798E00E94D81262E081E765
:1015D00098E00E946E1260E671E081E798E00E9458
:1015E0003D0181E798E00E9456136AE670E081E7CA
:1015F00098E00E94D81264E181E798E00E946E12A0
:1016000066E281E798E00E946E1269E981E798E05E
:101610000E946E1260E081E798E00E946E1266E51B
:1016200081E798E00E946E1260E081E798E00E94F6
:101630006E1261E081E798E00E946E1281E798E007
:101640000E9456136AE670E081E798E00E94D81283
:101650006AE181E798E00E946E126FEB81E798E003
:101660000E946E1281E798E00E9456136AE670E0CD
:1016700081E798E00E94D81266E281E798E00E9434
:101680006E126CE881E798E00E946E1281E798E0A4
:101690000C945613CF93C82F6AE670E081E798E068
:1016A0000E94D8126C2F81E798E00E946E1260E0D1
:1016B00081E798E00E94DA1241E06AE681E798E06B
:1016C0000E94501381E798E00E944412892B31F068
:1016D00081E798E00E944B12CF91089580E0FCCF03
:1016E0000F931F93CF938C0186E10E944A0BC82F62
:1016F000682F6F7D606486E10E945C0A65E070E09F
:1017000080E090E00E94D7346C2F6F7986E10E94D0
:101710005C0A86E20E944A0B682F606C86E20E9497
:101720005C0A6AE070E080E090E00E94D73480E3D9
:101730000E944A0B94E1899F90011124375FF801C0
:101740003183208381E0283B3B4008F480E0CF9147
:101750001F910F910895CF92DF92EF92FF920F9316
:101760001F93CF93DF93CDB7DEB7C254D1090FB625
:10177000F894DEBF0FBECDBF26E040E052EC61E042
:1017800070E08CE69BE00E94202F26E040E052ECC7
:1017900061E070E089E09CE00E94202F40EA56E87A
:1017A00061E070E081E798E00E94CA1263EA71E0AC
:1017B00089E09CE00E940F3160E08BE10E9485355A
:1017C00060E085E10E94853560E08DE10E9485350D
:1017D00060E08EE10E94853561E086E10E948535FA
:1017E00061E087E10E94853560E080E00E948535F8
:1017F00061E08FE00E94853561E082E10E948535DD
:1018000061E082E10E94C13561E082E00E9485359D
:1018100061E082E00E94C13561E08AE10E94853585
:1018200061E08AE10E94C13561E083E10E94853573
:1018300061E083E00E94853561E084E00E948535A7
:1018400060E085E00E94853560E086E00E94853595
:1018500061E087E00E94853561E083E10E94C13547
:1018600061E084E00E94C13560E087E00E94C135FC
:1018700064E670E080E090E00E94D73460E083E0AE
:101880000E94C13561E084E10E94853560E084E119
:101890000E94C1356AE670E081E798E00E94D812A4
:1018A00062E081E798E00E946E1260E671E081E7F5
:1018B00098E00E943D0181E798E00E9456136AE695
:1018C00070E081E798E00E94D81264E181E798E037
:1018D0000E946E1266E281E798E00E946E1269E152
:1018E00081E798E00E946E1260EA81E798E00E942A
:1018F0006E1266E581E798E00E946E1260E081E773
:1019000098E00E946E1261E081E798E00E946E12FA
:1019100081E798E00E9456136AE670E081E798E05C
:101920000E94D8126AE181E798E00E946E126FEB84
:1019300081E798E00E946E1281E798E00E945613BA
:101940006AE670E081E798E00E94D81266E281E7DB
:1019500098E00E946E126CE881E798E00E946E1297
:1019600081E798E00E9456138BE10E94EF35892BA6
:1019700009F49DC188E19FE00FB6F894A895809383
:1019800060000FBE909360006AE670E081E798E027
:101990000E94D8126DE270E081E798E00E943D015C
:1019A00081E798E00E94561341E050E06AE670E05B
:1019B00081E798E00E94531381E798E00E944B1260
:1019C000A89568EE73E080E090E00E94D734A89577
:1019D00068EE73E080E090E00E94D734A89568EE4E
:1019E00073E080E090E00E94D734A89511E001E018
:1019F0006AE670E081E798E00E94D8126DE270E03C
:101A000081E798E00E943D0181E798E00E9456132B
:101A100041E050E06AE670E081E798E00E945313ED
:101A200081E798E00E944B12A8958F77813108F0EA
:101A30007FC08BE10E94EF35682F8DE00E94C13599
:101A400061E570E081E798E00E94D81268E270E0FA
:101A500081E798E00E943D0165E970E081E798E048
:101A60000E943D0181E798E00E945613A89568EE18
:101A700073E080E090E00E94D734A89568EE73E0B0
:101A800080E090E00E94D734A89568EE73E080E093
:101A900090E00E94D734A89508EC10E08AEF90E01F
:101AA0000E94103561E08FE00E94853561E08FE093
:101AB0000E94C1358AEF90E00E94103561E08FE00E
:101AC0000E94853560E08FE00E94C1350150110908
:101AD00029F761E570E081E798E00E94D81267E29B
:101AE00081E798E00E946E1263E081E798E00E942F
:101AF0006E1265E970E081E798E00E943D0181E7A0
:101B000098E00E9456136AE670E081E798E00E9430
:101B1000D81268E181E798E00E946E126AE081E7DE
:101B200098E00E946E1281E798E00E945613FFCF62
:101B3000A895112309F44FC061E0002309F459C0AE
:101B400083E00E94C13510926F0210926E028EE601
:101B500092E00E94700B80930601882309F446C02E
:101B60000E94760A6CEA71E089E09CE00E94EA300B
:101B70006091060170E04AE050E089E09CE00E943C
:101B8000BA3168ED71E089E09CE00E94EA30609132
:101B90006E0270916F024AE050E089E09CE00E9482
:101BA000D43161E770E081E798E00E94D81260E0EC
:101BB00081E798E00E946E1263E181E798E00E945D
:101BC0006E1281E798E00E94561368EE73E080E0A1
:101BD00090E00E94D7348EE10E94EF3510E0892B0F
:101BE00009F006CF81E0082711E002CF0E94E00A49
:101BF000B9CF8CE00E94853560E08CE00E94C13551
:101C000098ECE92EF12C84EB90E00E94103561E015
:101C10008FE00E94853561E08FE00E94C13584EB42
:101C200090E00E94103561E08FE00E94853560E011
:101C30008FE00E94C13581E0E81AF10821F788ECB5
:101C4000E82EF12C8AEF90E00E94103561E08FE0E1
:101C50000E94853561E08FE00E94C1358AEF90E0F7
:101C60000E94103561E08FE00E94853560E08FE0D2
:101C70000E94C13581E0E81AF10821F761E770E0C0
:101C800081E798E00E94D81260E081E798E00E9426
:101C90006E1260E181E798E00E946E1281E798E0A1
:101CA0000E94561360E083E00E94C1358ECF61E050
:101CB00084E10E94853561E084E10E94C13515E030
:101CC00060E570E080E090E00E94D73461E08CE055
:101CD0000E94853561E08CE00E94C13560E570E0CE
:101CE00080E090E00E94D73460E08CE00E94C13533
:101CF000115031F761E08CE00E94C13508EC10E032
:101D000084EB90E00E94103561E08FE00E94853501
:101D100061E08FE00E94C13584EB90E00E941035B5
:101D200061E08FE00E94853560E08FE00E94C13560
:101D30000150110929F76DEB71E089E09CE00E94E8
:101D40000F3160E087E10E94C13561E086E10E94C9
:101D5000C13561E570E081E798E00E94D81267E242
:101D600081E798E00E946E1263E081E798E00E94AC
:101D70006E1267E981E798E00E946E1288E199E2AD
:101D80000FB6F894A895809360000FBE9093600002
:101D900066EC71E0CE0101960E946A3265E678E059
:101DA000CE0101960E940C3466ED71E00E941F3452
:101DB0006BE678E00E940C3468ED71E00E941F34FD
:101DC000BC01CE01CD960E945233CE0101960E94F5
:101DD000F8316BE570E081E798E00E94D81268E086
:101DE00070E081E798E00E943D0170E060E081E7EB
:101DF00098E00E943D0181E798E00E94561340E17F
:101E00006BE581E798E00E94501310E181E798E0CC
:101E10000E944B12082F803130F461EA71E0CE014C
:101E2000CD960E94FD3340E1602FCE0101960E94C5
:101E30008932BE016F5F7F4FCE01CD960E94F6338F
:101E4000CE0101960E94F831115001F76AED71E060
:101E5000CE01CD960E94FD3368E570E081E798E001
:101E60000E94D81268E070E081E798E00E943D018E
:101E700070E060E081E798E00E943D0181E798E032
:101E80000E94561340E168E581E798E00E945013F4
:101E900010E181E798E00E944B12082F803130F466
:101EA00061EA71E0CE01CD960E94FD3361E082E0EF
:101EB0000E94853561E082E00E94C13561E08AE1DF
:101EC0000E94853561E08AE10E94C13540E1602FC2
:101ED000CE0101960E948932BE016F5F7F4FCE0115
:101EE000CD960E94F633CE0101960E94F831115032
:101EF00081F668ED71E0CE01CD960E94FD3360E57C
:101F000070E081E798E00E94D81270E060E081E71D
:101F100098E00E943D0170E060E081E798E00E9457
:101F20003D0181E798E00E94561342E060E581E7B9
:101F300098E00E94501381E798E00E944B12809332
:101F4000720281E798E00E944B128093710240E197
:101F500060917202CE0101960E948932BE016F5FCC
:101F60007F4FCE01CD960E94F633CE0101960E949E
:101F7000F83140E160917102CE0101960E948932F0
:101F8000BE016F5F7F4FCE01CD960E94F633CE012A
:101F900001960E94F83160EF71E0CE01CD960E946B
:101FA000FD336BE570E081E798E00E94D81268E0AD
:101FB00070E081E798E00E943D0170E060E081E719
:101FC00098E00E943D0181E798E00E94561340E1AD
:101FD0006BE581E798E00E94501310E181E798E0FB
:101FE0000E944B12082F803130F461EA71E0CE017B
:101FF000CD960E94FD3340E1602FCE0101960E94F4
:102000008932BE016F5F7F4FCE01CD960E94F633BD
:10201000CE0101960E94F831115001F768ED71E090
:10202000CE01CD960E94FD3363E570E081E798E034
:102030000E94D81270E060E081E798E00E943D01C4
:1020400070E060E081E798E00E943D0181E798E060
:102050000E94561342E063E581E798E00E94501326
:1020600081E798E00E944B128093740281E798E028
:102070000E944B128093730240E160917402CE0182
:1020800001960E948932BE016F5F7F4FCE01CD96CF
:102090000E94F633CE0101960E94F83140E1609132
:1020A0007302CE0101960E948932BE016F5F7F4F9D
:1020B000CE01CD960E94F633CE0101960E94F831F2
:1020C00064E072E0CE01CD960E94FD33809106015E
:1020D00061EA71E0882311F06FE971E0CE01CD96DD
:1020E0000E94FD3368ED71E0CE01CD960E94FD3374
:1020F00060916E0270916F024AE0CE0101960E94DB
:10210000E232BE016F5F7F4FCE01CD960E94F63363
:10211000CE0101960E94F83160E082E10E94C13553
:1021200064E083E199E00E94A717811108C067E588
:1021300071E089E09CE00E940F311092070181E07C
:1021400090E090935E0880935D0860915D087091C7
:102150005E08683C710578F54AE0CE014C960E9415
:10216000E232BE01645E7F4FCE0101960E9452337F
:1021700068E871E0CE0101960E941F34BC018FE532
:1021800098E00E943B33CE0101960E94F831CE01C7
:102190004C960E94F83160915F087091600883E16D
:1021A00099E00E945219882331F080915D08909146
:1021B0005E080196C6CF60915D0870915E084AE0A6
:1021C000CE014C960E94E232BE01645E7F4FCE018A
:1021D00001960E94523368E871E0CE0101960E9498
:1021E0001F34BC018FE598E00E943B33CE0101967D
:1021F0000E94F831CE014C960E94F83115E060E55E
:1022000070E080E090E00E94D73461E08DE00E94B1
:10221000853561E08DE00E94C13560E570E080E0C9
:1022200090E00E94D73460E08DE00E94C1351150EB
:1022300031F761E08DE00E94C13540915F08509117
:10224000600823E163E179E0CE014C960E94C71853
:10225000CE014C960E944B166B017C016DE072E042
:1022600089E09CE00E94EA302AE030E0B701A60154
:1022700089E09CE00E94E63181E8C81683E2D80636
:1022800083E4E806F10408F45BC0CE014C960E949A
:10229000891660915D0870915E086F5F7F4F709343
:1022A0005E0860935D084AE0CE01C7960E94E23264
:1022B000BE01695C7F4FCE0101960E94523368E8EF
:1022C00071E0CE0101960E941F34BC018FE598E0B9
:1022D0000E943B33CE0101960E94F831CE01C79691
:1022E0000E94F83140915F085091600823E163E15A
:1022F00079E0CE0101960E94C7188B819C819F8F47
:102300008E8F8D819E81AF81B88588A399A3AAA362
:10231000BBA389859A85AB85BC858CA39DA3AEA301
:10232000BFA3DE011D96FE01B896CE01C5962D9184
:102330002193E817F907D9F78A8D9B8D9EAB8DAB5A
:102340006DE871E089E09CE00E94EA306FE578E09A
:1023500089E09CE00E94FD30CE014C960E949B16C5
:10236000882309F485C0BE01635C7F4FCE014C9683
:102370000E94FD30CE014C960E948916BE01635C1E
:102380007F4F89E09CE00E94FD3061E082E10E9485
:10239000C13561E084E10E94853560E084E10E94FE
:1023A000C13515E060E570E080E090E00E94D73430
:1023B00061E08EE00E94853561E08EE00E94C135CB
:1023C00060E570E080E090E00E94D73460E08EE04D
:1023D0000E94C135115031F760E08CE00E94C13598
:1023E00060E08DE00E94C13561E082E00E948535A9
:1023F00060E082E00E94C1350FB6F894A895809104
:102400006000886180936000109260000FBEF894B5
:10241000109280008DE08093810087E998E9909385
:10242000890080938800109285001092840082E0D9
:1024300080936F001092900085E08093910010923D
:102440009500109294007894CE01CD960E94F831B8
:10245000CE5BDF4F0FB6F894DEBF0FBECDBFDF916E
:10246000CF911F910F91FF90EF90DF90CF90089543
:1024700066E671E089E09CE00E940F31109207014E
:102480007DCF90E080E008958091A1089091A2080E
:10249000891B990B08959091A2088091A1082FEFB4
:1024A0003FEF981748F4E92FF0E0ED55F74F208102
:1024B00030E09F5F9093A208C9010895E091A208BF
:1024C0008091A108E81730F4F0E0ED55F74F8081D6
:1024D00090E008958FEF9FEF08950895CF93DF93D5
:1024E0001F92CDB7DEB7698320917D082223F9F0D2
:1024F00020917E08203258F021E030E0FC01338347
:10250000228390E080E00F90DF91CF910895809139
:102510007F08E82FF0E0E058F74F998190838F5FB4
:1025200080937F0880937E0881E090E0ECCF61E0AB
:10253000CE0101960E940D14F7CFCF92DF92EF9259
:10254000FF920F931F93CF93DF937C01CB018A01FE
:1025500020917D08222389F0EB016B01C40ED51E6A
:10256000CC15DD0569F06991D701ED91FC910190E1
:10257000F081E02DC7010995F3CF642F0E940D145F
:10258000C801DF91CF911F910F91FF90EF90DF90E5
:10259000CF900895CB01BA010C946A1381E0809327
:1025A0007D086093A00810927F0810927E0808951D
:1025B0000C94CE120F93062F21E040917E0860E824
:1025C00078E08091A0080E94BD1310927F081092BD
:1025D0007E0810927D080F9108954F925F926F923E
:1025E0007F92AF92BF92CF92EF92FF920F931F9381
:1025F000CF93DF935C01F62ED42F28013901EE2012
:1026000019F10E94CE12CE2DC43008F0C3E0C150A3
:10261000B8F028E0C29FC0011124A301920104C0B8
:1026200056954795379527958A95D2F7B901D501E3
:10263000ED91FC910190F081E02DC5010995E7CF66
:1026400060E0C5010E94DA124D2FD13208F040E25D
:102650002C2D63EA78E08F2D0E947D131092A20842
:102660008093A108DF91CF911F910F91FF90EF9080
:10267000CF90BF90AF907F906F905F904F900895F4
:10268000CF92EF920F931F93C22EE12C00E010E047
:1026900098010E94ED121F910F91EF90CF90089535
:1026A00021E00C94401321E00C94401361E00C9461
:1026B000DA12E1E7F8E01382128288EE93E0A0E0FC
:1026C000B0E084839583A683B7838CE192E0918305
:1026D000808308959B01AC0160E072E18AE790E09D
:1026E0000E94EF372051310941095109569547950C
:1026F000379527952093B80008954132E0F59091E1
:1027000012099111FCCF91E09093120920931009C6
:102710002FEF2093C30870930A0960930909109260
:102720000809240F2093070990931109909111092A
:10273000880F892B8093110980910F098130C9F48A
:1027400010920F09809111098093BB008091BC0009
:1027500083FDF8CF85EC8093BC0080911209813015
:10276000E1F380910809841710F440910809842F3F
:10277000089585EEF0CF40E0FACF0F93413208F094
:1027800044C0909112099111FCCF92E090931209EC
:10279000009310099FEF9093C30870930A09609308
:1027A00009091092080940930709109211099091A4
:1027B0001109880F892B8093110980910F098130AD
:1027C00011F510920F09809111098093BB0080913F
:1027D000BC0083FDF8CF85EC8093BC00222321F060
:1027E000809112098230D1F38091C3088F3F79F034
:1027F0008091C308803269F08091C308803359F01A
:1028000084E00F91089585EEE7CF81E0FACF80E074
:10281000F8CF82E0F6CF83E0F4CF2091E508260FD1
:102820003327331F21323105ECF420911209FC01CA
:1028300090E080E0243069F082E00895A091E508FE
:102840002191AC014951574FA40FB52FB11D2C93C5
:102850000196861798F38091E508680F6093E50864
:1028600080E0089581E0089585ED8093BC0080911B
:10287000BC0084FDFCCF10921209089585EC809372
:10288000BC001092120908951F920F920FB60F927A
:1028900011240BB60F922F933F934F935F936F9337
:1028A0007F938F939F93AF93BF93EF93FF93809109
:1028B000B900887F803609F44EC008F041C08832E4
:1028C00009F4AAC028F5803109F49EC0C8F4882311
:1028D00009F407C1883009F497C0FF91EF91BF91C7
:1028E000AF919F918F917F916F915F914F913F91A8
:1028F0002F910F900BBE0F900FBE0F901F90189549
:10290000883109F489C0803241F78093C30815C02B
:10291000803409F4A6C048F48033B9F38833E9F66B
:102920008093C3080E943E14D8CF803509F489C033
:10293000883509F49EC0883481F60E943414CDCFC6
:10294000883909F494C038F5883729F050F488366E
:1029500011F0803711F683E0809312091092C408B9
:1029600057C0883809F483C0803919F0803809F0DD
:10297000B4CF8091C408803208F079C0E091C408D7
:1029800081E08E0F8093C4088091BB00F0E0EB5390
:10299000F74F80833DC0803B39F0E0F4803A09F482
:1029A00085C0883A09F099CF84E08093120910928B
:1029B000E6081092E508E0910D09F0910E090995DD
:1029C0008091E50881110FC081E08093E5081092A5
:1029D000E70809C0803C09F482C0883C09F47FC044
:1029E000883B09F07ACFE091E60881E08E0F809372
:1029F000E608F0E0E951F74F80818093BB009091A9
:102A0000E6088091E50831C0809111098093BB00F0
:102A100085EC8093BC0061CF9091080980910709F3
:102A20009817B8F58091090990910A09E091080971
:102A300021E02E0F20930809E80FF92FF11D808166
:102A4000E5CF2091090930910A09E091080981E058
:102A50008E0F809308098091BB00E20FF32FF11DC8
:102A600080839091080980910709981788F285E87A
:102A7000D0CF2091090930910A09E091080981E03D
:102A80008E0F809308098091BB00E20FF32FF11D98
:102A9000808380911009811150CF81E080930F09CC
:102AA00084EA8093BC001092120917CF0E943E1452
:102AB0008091C408803230F4E091C408F0E0EB5318
:102AC000F74F10826091C40870E0E0910B09F0911B
:102AD0000C0985EC98E009951092C408FECE85ECAF
:102AE000E0CF1092C30829CFCF93DF931F92CDB7C9
:102AF000DEB76983DC01ED91FC910280F381E02D6A
:102B000041E050E0BE016F5F7F4F09950F90DF916C
:102B1000CF910895CF93DF93EC01E98DFA8D309733
:102B200049F481E090E09B838A8390E080E0DF912C
:102B3000CF91089513821282898D9A8D0E94FF2170
:102B4000E98DFA8D22813381232B59F7F0CFFC01D7
:102B5000818D928D009711F00C948E1F0895CF9364
:102B6000DF931F92CDB7DEB741E050E0BE016F5F4B
:102B70007F4F0E94B21D019731F4898190E00F9040
:102B8000DF91CF9108958FEF9FEFF9CFFC01818DF9
:102B9000928D009711F00C94AF158FEF9FEF089571
:102BA0000F931F93CF93DF93EC01898D9A8D10E0E3
:102BB00000E0009799F00E94AF158C010F3F1007BD
:102BC00069F0898D9A8DFC014285538564857585F0
:102BD00041505109610971090E94FA1EC801DF9133
:102BE000CF911F910F910895EF92FF920F931F9332
:102BF000CF93DF93EC017B018A011B821A8288EE5E
:102C000093E0A0E0B0E08C839D83AE83BF838EE22F
:102C100092E0998388838DE190E00E9452389A8FE8
:102C2000898F009779F02DE1F701DC0101900D9279
:102C30002A95E1F74CE050E0B801CE010C960E94D5
:102C4000803A188EDF91CF911F910F91FF90EF90F6
:102C50000895FC011382128288EE93E0A0E0B0E0B8
:102C600084839583A683B7838EE292E091838083E9
:102C7000128E118E14860895DC015996ED91FC9107
:102C8000309729F0628573858485958508956FEF67
:102C90007FEFCB010895DC015996ED91FC913097BF
:102CA00029F06389748985899689089560E070E0C8
:102CB000CB010895CF92DF92EF92FF92CF93DF93F3
:102CC000FC01218D328D232B09F1EC010E944B1662
:102CD0006B017C01CE010E943C16A7019601261BC8
:102CE000370B480B590BDA01C901811530E89307FE
:102CF000A105B10520F08FEF9FE7A0E0B0E0DF91E4
:102D0000CF91FF90EF90DF90CF90089590E080E01A
:102D1000F6CFCF93DF93EC01898D9A8D009741F028
:102D20000E94D71F898D9A8D0E94EE381A8E198EB7
:102D3000DF91CF910895DC015996ED91FC91309788
:102D400021F081E09581911101C080E008951F93E9
:102D5000CF93DF93CDB7DEB76D970FB6F894DEBF94
:102D60000FBECDBFAB011C821B8222E432E03A834E
:102D700029831E8221E0BC01CE0101960E9412210E
:102D800011E081110CC010E0812F6D960FB6F89400
:102D9000DEBF0FBECDBFDF91CF911F910895CE0151
:102DA00001960E94D71FF0CFEF92FF920F931F93CF
:102DB000CF93DF937B01DB012D913C91FC01E20F6E
:102DC000F31F60816F3211F42F5F3F4F8C01020FB0
:102DD000131FEA01F0E0E0E0D8017D918D017F3220
:102DE00049F0772339F02F5F3F4F31967993EC30DC
:102DF000F10591F7E40FF51F1082FC01E20FF31FBC
:102E000040814F3211F42F5F3F4FF7013183208310
:102E1000280F391F81E0D9019C91911101C080E0F8
:102E2000DF91CF911F910F91FF90EF9008954F92F6
:102E30005F926F927F928F929F92AF92BF92CF924A
:102E4000DF92EF92FF920F931F93CF93DF93CDB753
:102E5000DEB7C954D1090FB6F894DEBF0FBECDBF9F
:102E60005C016B013A01490119A218A282E492E0C7
:102E70009F8F8E8F1BA21C821B829A8389831E8246
:102E80002A961FAE1EAE2A978B017E018EE1E80EB8
:102E9000F11C44244394AE01455C5F4FBE01685B66
:102EA0007F4FC5010E94D416582E482F4425940107
:102EB000BE01655C7F4FC801F3010995811120C0F7
:102EC0000C151D05C9F480E0C75BDF4F0FB6F89401
:102ED000DEBF0FBECDBFDF91CF911F910F91FF904D
:102EE000EF90DF90CF90BF90AF909F908F907F90AA
:102EF0006F905F904F900895C8010E94D71FE3CF55
:102F0000552091F021E0AE01455C5F4FB801C7014B
:102F10000E941221582E0C151D0571F0C8010E9447
:102F2000D71F51100EC0CFCF0C151D0519F0C801C9
:102F30000E94D71F81E0C8CF882329F28E010F5F3E
:102F40001F4F902F812F8701E92EF82EA4CF0F93CA
:102F50001F93CF93DF93EC01162F8FA5882321F0C9
:102F6000CE018A960E94D71F412F61E0CE010E94B8
:102F7000741A811102C090E012C08E01045F1F4FCD
:102F800041E0BE01C8010E943927882371F0B801D1
:102F9000CE018A960E94621D91E0882361F3892FF9
:102FA000DF91CF911F910F91089540E0BE01C801BC
:102FB0000E9439278823F9F2EACFFC01DB0112963F
:102FC0008D919C9113979383828382E492E0918305
:102FD000808314968C911497848315968C91159701
:102FE000858316964D915D916D917C9119974683DD
:102FF0005783608771871A964D915D916D917C9191
:103000001D9742875387648775871E964D915D9102
:103010006D917C91519746875787608B718B529643
:103020008C915297828B53964D915D916D917C91CD
:103030005697438B548B658B768B57964D915D914C
:103040006D917C915A97478B508F618F728F5B96F1
:103050008D919C91948F838F08954F925F926F9280
:103060007F928F929F92AF92BF92CF92DF92EF9218
:10307000FF920F931F93CF93DF93CDB7DEB7C75463
:10308000D1090FB6F894DEBF0FBECDBF5C014A0177
:103090003901665D7F4F7E018EE1E80EF11CC701AC
:1030A0000E94DD171C821B8282E492E09A8389834E
:1030B0001E828401FE0131966F015E2C4F2C6FE25F
:1030C00070E0C8010E946E3A009709F455C0F801FB
:1030D00020812F3219F40F5F1F4FF1CF801B8D30ED
:1030E00008F08CE0E82EF12CA701B801CE01CB96B8
:1030F0000E94803AEBE3F0E0EC0FFD1FEE0DFF1DA8
:103100001082C6010E94D71F21E0AE01455C5F4FCF
:10311000652D742DC6010E941221811121C0F50177
:103120001382128282E492E0918380831582C5012A
:10313000C95BDF4F0FB6F894DEBF0FBECDBFDF9186
:10314000CF911F910F91FF90EF90DF90CF90BF90A4
:10315000AF909F908F907F906F905F904F90089569
:103160000E0D1F1D852D942D0E94D71FC2015C2CB2
:103170004D2CC92ED82EA3CF08191909F30111839C
:103180000083652D742DC5010E94DD17D0CFAF924D
:10319000BF92CF92DF92FF920F931F93CF93DF9353
:1031A000CDB7DEB7C955D1090FB6F894DEBF0FBE53
:1031B000CDBF6C015B018A01F22E9E01285A3F4F60
:1031C000CE01CB960E942D186A968EAD9FAD6A9760
:1031D000080F191FF8018081811110C0BE01655CC4
:1031E0007F4FCE0101960E94DD174CE352E0BE01F5
:1031F0006F5F7F4FC6010E94F4150FC019A218A27D
:1032000082E492E09F8F8E8F1BA221968FAD219733
:10321000811115C0C6010E942916C601C75ADF4F89
:103220000FB6F894DEBF0FBECDBFDF91CF911F91D7
:103230000F91FF90DF90CF90BF90AF900895825094
:103240008230F8F4B501665D7F4F2F2DA801CE01C5
:103250004E960E9412218823E9F28F2D867041F04C
:1032600049A95AA96BA97CA9CE014E960E94FA1EC3
:10327000BE01625E7F4FCE0101960E94DD17A8015C
:10328000B6CF2F2DA801BE01655C7F4FCE014E96B3
:103290000E941221882309F4BDCFCE01CB960E9453
:1032A000D71FDBCFFB01BC01665D7F4F30E020E024
:1032B00047EA56E1CF010C941717E3E1F9E01582D4
:1032C00016821186138682E090E0A0E0B0E0848749
:1032D0009587A687B78713A215A614A682E492E065
:1032E00093A782A717A608959FB7F89420916A0B19
:1032F0008091680B213019F48DBB9FBF08958FBF5B
:10330000089520916A0B222381F03FB7F894209111
:103310006A0B213069F42DB32093680B4DB32091D3
:10332000690B209524232DBB3FBF8CBD9DBD089507
:103330003093680BFACF8EBD00000DB407FEFDCFB1
:103340008EB508958FEF0C949B1961E0FC01848188
:103350000E94C13580915C09882339F010925C0984
:1033600080916A0B81110C9474190895CF93DF93A7
:10337000EC0180915C09811109C081E080935C09B6
:1033800080915D0990915E090E94811960E08C81B5
:10339000DF91CF910C94C135CF93DF93EC018E81F7
:1033A000882389F08F8198859C012F5F3F4F388754
:1033B0002F838230924018F40E94A219F3CFCE01DD
:1033C0000E94A5191E82DF91CF910895673028F0E1
:1033D00026E1FC01258380E00895623079F038F021
:1033E0006430A9F090F06530A1F082E508C080E576
:1033F00080935D0981E080935E09089580E5809364
:103400005D0910925E0981E0089581E5F1CF81E5C3
:10341000F6CF82E5EDCF0F931F93CF93DF93EB01B0
:103420000E94A6348B010E94A2198F3F69F00E946E
:10343000A634601B710B6C177D07A8F380E0DF9149
:10344000CF911F910F91089581E0F9CF8F929F92B4
:10345000AF92BF92FF920F931F93CF93DF93EC0134
:10346000F62E49015A010E94CC19CE010E94B619CC
:103470006CE271E0CE010E940B1A8F2D80640E94D5
:103480009B1908E110E0D501C401002E04C0B695D7
:10349000A795979587950A94D2F70E949B19085093
:1034A0001109083F8FEF180771F785E9FF2021F018
:1034B00088E0F8120DC087E80E949B1910E00E9476
:1034C000A2198A8787FF06C01F3F21F01F5FF7CF31
:1034D0008FEFF2CFDF91CF911F910F91FF90BF90AF
:1034E000AF909F908F9008958F929F92AF92BF92CE
:1034F000EF92FF920F931F93CF93DF93EC01E62E91
:103500001B8619861E821D824C830E94A6348B0165
:1035100061E08C810E94853561E08C810E94C1351B
:103520000E94592882E580935D0981E080935E09BD
:1035300080915D0990915E090E9481192AE0F22E26
:103540008FEF0E949B19FA94F110FACF80916A0BC9
:1035500081110E947419CE010E94B61920E030E05A
:10356000A90160E0CE010E94261AF82E8A8781E028
:10357000F816C1F00E94A634601B710B613D7740C4
:1035800068F381E08D83CE010E94A51980E0DF9170
:10359000CF911F910F91FF90EF90BF90AF909F90B0
:1035A0008F9008952AEA31E040E050E068E0CE01D3
:1035B0000E94261A82FF25C0FB868B85812C912CC8
:1035C0005401823029F4812C912CA12C80E4B82E56
:1035D00020E030E0A90167E3CE010E94261AA50190
:1035E000940169E2CE010E94261A8A878823C1F0DD
:1035F0000E94A634601B710B613D774048F388E060
:10360000C1CF94E0F92E0E94A2198A87FA94F11092
:10361000FACF8A3A11F082E0B5CF82E08B87CDCF26
:103620008B858230C1F420E030E0A9016AE3CE014D
:103630000E94261A882311F086E0A4CF0E94A219C6
:10364000807C803C11F483E08B870E94A2190E9449
:10365000A2190E94A219CE010E94A5196E2DCE01B9
:10366000DF91CF911F910F91FF90EF90BF90AF909E
:103670009F908F900C94E6190F931F93CF93DF9335
:10368000EC010E94A6348B010E94A2198A878F3F09
:1036900091F40E94A634601B710B6D327140A0F34F
:1036A0008FE08D83CE010E94A51980E0DF91CF913C
:1036B0001F910F9108958E3F11F08DE0F2CF81E0C0
:1036C000F5CFCF92DF92EF92FF920F931F93CF939C
:1036D000DF93EC016901C801820F931F8130924092
:1036E00048F58E81882371F088819981AA81BB81F8
:1036F00084179507A607B70729F48F819885C81600
:10370000D90670F5488359836A837B838B85833020
:1037100039F089E0440F551F661F771F8A95D1F74E
:103720009A01AB0161E1CE010E94261A882379F04B
:1037300083E08D83CE010E94A51980E0DF91CF91B7
:103740001F910F91FF90EF90DF90CF900895CE01E1
:103750000E943C1B882371F318861F8281E08E83B0
:103760008F8198858C159D0560F06701E00EF11E34
:10377000EC14FD0471F00E94A219F60181936F010F
:10378000F7CF0E94A2198F819885019698878F8321
:10379000E7CF8F819885080F191F18870F838985B8
:1037A000882319F00115124018F0CE010E94CC199F
:1037B00081E0C4CFEF92FF920F931F930115110583
:1037C00039F00E94611B1F910F91FF90EF900895B7
:1037D00081E0F9CFEF92FF920F931F93790100E000
:1037E00012E030E020E00E94611B1F910F91FF90DA
:1037F000EF900895EF92FF920F931F93CF93DF9373
:103800008C01862F7A010E949B19E7018EEFF81A2E
:1038100089910E949B19CE15DF05D1F78FEF0E9489
:103820009B198FEF0E949B190E94A219F8018287B1
:103830008F71853069F081E18583C8010E94A519E7
:1038400080E0DF91CF911F910F91FF90EF9008954D
:1038500081E0F7CF0F931F93CF93DF93EC018901A2
:1038600082E1411551056105710599F08B85833021
:1038700039F089E0440F551F661F771F8A95D1F7ED
:103880009A01AB0168E1CE010E94261A882339F023
:1038900084E08D83CE010E94A51980E023C0A80199
:1038A0006EEFCE010E94FA1B8823A1F368E572E057
:1038B000CE010E940B1A811102C085E1EACF20E0FF
:1038C00030E0A9016DE0CE010E94261A882311F094
:1038D00084E1DFCF0E94A2198111FACFCE010E94AC
:1038E000A51981E0DF91CF911F910F910895EDE52A
:1038F000F9E080E5808381E0818308950895CF9386
:10390000DF93EC019C012A5F3F4F41E050E060E013
:1039100070E08B8D9C8D0E94D8258823A1F08F8923
:10392000988DA98DBA8D892B8A2B8B2B59F48E817A
:103930009F81A885B9858F8B988FA98FBA8F8C812D
:1039400080688C8381E0DF91CF9108958F929F9260
:10395000AF92BF92CF92DF92EF92FF92CF93DF931D
:10396000EC010E947F1C81110CC080E0DF91CF919F
:10397000FF90EF90DF90CF90BF90AF909F908F908F
:103980000895EB8DFC8DCE80DF80E884F98482E0A1
:10399000C81AD108E108F108858504C0CC0CDD1CEB
:1039A000EE1CFF1C8A95D2F786859785A089B18980
:1039B000C80ED91EEA1EFB1E848146015701880EDF
:1039C000911CA11CB11C8C149D04AE04BF0461F0B9
:1039D00081E0881A9108A108B108C501B4010E94CC
:1039E00026248111F0CFC1CFEB8DFC8D258580E0A1
:1039F00092E0A0E0B0E004C0880F991FAA1FBB1F8F
:103A00002A95D2F74B895C896D897E89840F951F31
:103A1000A61FB71F8B8B9C8BAD8BBE8B81E0A6CF77
:103A2000CF93DF93EC01462F6E857F858889998936
:103A30000E94EB23882351F08A8920E2829FC001F3
:103A400011248859964FDF91CF91089590E080E03E
:103A5000FACFFB019B01255F3F4F40E241932E17B8
:103A60003F07E1F7DC0120E037E09D91492F9923E2
:103A700019F19E3229F43A3059F028E03AE0F5CFB6
:103A8000E6E8F1E08491882329F031969813FACF83
:103A900080E017C03217A8F05FED590F5E3588F44B
:103AA0008FE9890F8A3110F440EE490FFB01E20FD4
:103AB000F11D40832F5FD9CF81E0FB0190819032CF
:103AC00039F308950F931F93CF93DF93FC01258162
:103AD000222331F080E0DF91CF911F910F91089563
:103AE0008B01EC01FB018789803139F582E08D8300
:103AF0001F8A188E198E1A8E808D918DB0E0A0E0ED
:103B000025E0880F991FAA1FBB1F2A95D1F78B8B21
:103B10009C8BAD8BBE8B1C8F0B8F81E08C831E82A8
:103B20001F82188619861A861B861C861D861E868D
:103B30001F86188A198A1A8ACECF803259F683E0F6
:103B40008D83428D538D648D758D4F8B588F698F0A
:103B50007A8F9E012D5E3F4FC8010E94CB248111B8
:103B6000DACFB8CF2F923F924F925F926F927F92AF
:103B70008F929F92AF92BF92CF92DF92EF92FF927D
:103B80000F931F93CF93DF93EC015B012A018D818B
:103B9000811115C08FEF9FEFDF91CF911F910F9192
:103BA000FF90EF90DF90CF90BF90AF909F908F905D
:103BB0007F906F905F904F903F902F9008958C81F1
:103BC00080FFE8CF0B891C892D893E894A855B855A
:103BD0006C857D85C201B0E0A0E068017901C41A5E
:103BE000D50AE60AF70AC816D906EA06FB0618F44B
:103BF0002801441A550A42011E0126E0220E311CFA
:103C00008114910409F4B3C04A855B856C857D8578
:103C10006A0181E0D8228B8D9C8D8A019B01E9E0AD
:103C20003695279517950795EA95D1F7ED81E230FE
:103C3000E1F5FC01628D738D848D958D600F711F90
:103C4000821F931F612C22E0722E6C187D0886144F
:103C5000970408F434012C8126FD04C06114F2E0BD
:103C60007F0671F4009108011091090120910A0169
:103C700030910B01061717072807390709F053C0C1
:103C800040E00E94EB23882309F484CFC6018859C1
:103C9000964FD5019C01260D371DFC012E173F07BD
:103CA00009F460C041914D93F9CFFC0174807A947E
:103CB0007022C114D10471F471100CC0452B462B35
:103CC000472B39F58F89988DA98DBA8D8E839F8367
:103CD000A887B987EB8DFC8D6E817F81888599855A
:103CE0006250710981099109258504C0660F771F0B
:103CF000881F991F2A95D2F7068517852089318953
:103D0000600F711F821F931F670D711D811D911D13
:103D100099CF4E815F816885798591010E944A24FF
:103D20008111D8CF37CF750183019601AB01BC015A
:103D300080916609909167090E94DA1B882309F433
:103D400029CFA60CB71C8A859B85AC85BD85860DC1
:103D5000971DA11DB11D8A879B87AC87BD878618DB
:103D600097084ECF281B390BA20EB31EECCFC20111
:103D700013CFFF920F931F93CF93DF931F92CDB773
:103D8000DEB7FC0125812230C8F08C0142855385C5
:103D90006485758585E076956795579547958A95ED
:103DA000D1F7F42FFF70FF2E41E050E0BE016F5FAE
:103DB0007F4FC8010E94B21D019719F090E080E08A
:103DC00012C0F80182859385A485B5854F96A11D03
:103DD000B11D82879387A487B587F0E2FF9EC0015B
:103DE00011248859964F0F90DF91CF911F910F9119
:103DF000FF9008958F929F92AF92BF92CF92DF92E1
:103E0000EF92FF920F931F93CF93DF93EC018D817D
:103E100081110EC080E0DF91CF911F910F91FF9033
:103E2000EF90DF90CF90BF90AF909F908F900895CC
:103E30000B891C892D893E8904171507260737072A
:103E400048F34A015B01823031F48A869B86AC8656
:103E5000BD8681E0E0CF81149104A104B10449F44E
:103E60001E821F82188619861A861B861C861D864E
:103E7000F0CF0A851B852C853D85EB8DFC8D8585D6
:103E800090E00996B901A8014150510961097109F1
:103E9000082E04C076956795579547950A94D2F7F2
:103EA00075016401E1E0CE1AD108E108F10804C00F
:103EB000F694E794D794C7948A95D2F7C416D5069A
:103EC000E606F70620F0012B022B032B11F58F8954
:103ED000988DA98DBA8D8E839F83A887B9878E010F
:103EE0000A5F1F4FC114D104E104F10409F4ADCFFE
:103EF0004E815F816885798598018B8D9C8D0E94AC
:103F00004A2491E0C91AD108E108F1088111EACFE9
:103F100081CFC41AD50AE60AF70AE1CF0F931F939F
:103F2000CF93DF93EC018D818823D9F18C8187FFBA
:103F300032C061E0CE010E94101D8C01892B89F1F5
:103F40008D81823048F48B899C89AD89BE89F801C6
:103F5000848F958FA68FB78F8F89988DF801938F57
:103F6000828F8F89988DA98DBA8DB58BA48BE091A6
:103F70005F09F0916009309759F0B8016A5E7F4F90
:103F8000C80148960995F801808D918D938B828B9D
:103F90008C818F778C83DF91CF911F910F910C943F
:103FA000B02380E0DF91CF911F910F910895CF93BF
:103FB000DF93EC010E948E1F882311F01D8281E0A7
:103FC000DF91CF9108954F925F926F927F928F927F
:103FD0009F92AF92BF92EF92FF920F931F93CF9356
:103FE000DF9300D000D0CDB7DEB7FC0185818130F2
:103FF000A1F080E00F900F900F900F90DF91CF9184
:104000001F910F91FF90EF90BF90AF909F908F9076
:104010007F906F905F904F900895848181FFE9CFEA
:1040200083899489A589B68984179507A607B70758
:1040300000F3892B8A2B8B2B09F477C04A015B0193
:104040007F014284538464847584CF010E94FA1EE8
:10405000882379F2F701838D948D81149104A10452
:10406000B10449F54789508D618D728D0E94E32618
:10407000882309F4BECFF701178A108E118E128E95
:10408000F701838A948AA58AB68A848180688483AA
:10409000C7010E948E1F882309F4ABCFB501A4018C
:1040A000441655066606770610F4B301A201C7014F
:1040B0000E94FA1E9FCF46815781608571859E01BF
:1040C0002F5F3F4F0E944A24882309F492CFF701C3
:1040D000838D948D49815A816B817C81FC01278974
:1040E0002031F1F408EF1FEF20E030E040175107D6
:1040F0006207730728F60E94E326882309F479CF24
:10410000F70146815781608571850FEF1FEF2FEF13
:104110003FE0838D948D0E9436258111B1CF69CF08
:1041200008EF1FEF2FEF3FE0E1CF81E063CFCF92A9
:10413000DF92EF92FF921F93CF93DF93EC0180E227
:10414000689FF0011124E859F64F9385917161F051
:10415000842F827449F080E0DF91CF911F91FF900E
:10416000EF90DF90CF900895142F6A8B8091080113
:1041700090910901A0910A01B0910B018E879F8750
:10418000A88BB98BC488D588F12CE12C7601DD246D
:10419000CC24CF8AD88EE98EFA8E828D938DB0E0B2
:1041A000A0E0AC01BD014C295D296E297F294F8B10
:1041B000588F698F7A8F8385887129F5848D958DC5
:1041C000A68DB78D8B8B9C8BAD8BBE8B81E08D8349
:1041D000812F8F708C831E821F82188619861A8603
:1041E0001B861C861D8681E016FFB6CF40E050E09E
:1041F000BA01CE01DF91CF911F91FF90EF90DF9038
:10420000CF900C94E31F803109F0A5CF9E012D5E65
:104210003F4F8B8D9C8D0E94CB24882309F49BCF2C
:1042200084E0D5CFBF92CF92DF92EF92FF920F93AF
:104230001F93CF93DF93CDB7DEB72B970FB6F894CC
:10424000DEBF0FBECDBFFC01358131110BC0C22EC8
:104250008B017C01BE016F5F7F4FCA010E94291D47
:10426000811102C080E0A1C0F801838D948DF70117
:10427000948F838FF801168217821086118612861A
:10428000138614861586B12CF80182859385A48542
:10429000B585438954896589768984179507A6076A
:1042A000B70788F525E0B695A795979587952A9540
:1042B000D1F7F82FFF70DF2EC8010E94B91E0097BA
:1042C00089F2FC012081222341F0253E09F059C0EA
:1042D000BB2029F0BB24B394D7CFB1100EC0F70197
:1042E000D28A409108015091090160910A017091B0
:1042F0000B0146875787608B718BFC018081811190
:10430000E9CFBB24B3948C2D8271823109F0AACFFE
:10431000BB2009F45AC061E0C7010E94101D8C0146
:10432000892B09F49FCF80E2F80111928A95E9F771
:104330008BE0FE013196D80101900D928A95E1F74C
:10434000E0915F09F0916009309709F44EC0B8011F
:10435000625F7F4FC80140960995F8018089918975
:10436000938B828B918F808F86859785978B868B99
:104370000E94B023882309F475CF4C2DF701628980
:1043800011C04BE050E0BC01CE0101960E94583AAA
:10439000892B09F079CF8C2D80734C2D6D2D8033B6
:1043A00009F460CFC7010E9497202B960FB6F894AE
:1043B000DEBF0FBECDBFDF91CF911F910F91FF9058
:1043C000EF90DF90CF90BF900895F8018581823003
:1043D00009F448CFC8010E94A61C882309F442CFE3
:1043E000F701128A08E619E09ECF81E298E2F8010F
:1043F000918B808B80E098E097878687AECF2F9255
:104400003F924F925F926F927F928F929F92AF9264
:10441000BF92CF92DF92EF92FF920F931F93CF93B1
:10442000DF9300D000D0CDB7DEB78C016B011A014D
:10443000DC0115968C911597813009F0C8C014964F
:104440008C9181FFC4C082FDAEC04101D8011A9693
:104450004D915D916D917C911D978114910409F4AA
:1044600029C15B968D919C915C97FC0174802FEF24
:10447000270D2A013B0139E07694679457944794BD
:104480003A95D1F7722E74207A01F1E0FF22711073
:1044900020C0E114F104E9F416964D915D916D91FF
:1044A0007C911997411551056105710509F098C076
:1044B00057968D919D910D90BC91A02D0097A105CF
:1044C000B10509F0AFC0C8010E947F1C882309F420
:1044D0007EC080E092E08E199F09540188159905ED
:1044E00008F45C01D8015B964D915C915C9716963F
:1044F0008D919D910D90BC91A02D0297A109B109BC
:10450000FA01258504C0880F991FAA1FBB1F2A9591
:10451000D2F74685578560897189840F951FA61F3C
:10452000B71F9C01AD01270D311D411D511D2901F2
:104530003A01A11432E0B30609F07AC08091080173
:1045400090910901A0910A01B0910B018415950584
:10455000A605B70559F48FEF9FEFDC0180930801A2
:1045600090930901A0930A01B0930B019601B30146
:10457000A20180916609909167090E942A1C8823F4
:1045800031F19EEFD91A8A189B08F801828593852C
:10459000A485B5858A0D9B1DA11DB11D82879387BA
:1045A000A487B58753CFF8014389548965897689F3
:1045B00082859385A485B585481759076A077B07C7
:1045C00009F443CFC8010E94FA1E81113ECF81E059
:1045D00090E0D80113969C938E93129780E007C0C9
:1045E0009E012F5F3F4F0E944A24811102C090E03C
:1045F0007BC089819A81AB81BC81F801238D348D88
:10460000F901278948EF5FEF60E070E0203121F089
:1046100048EF5FEF6FEF7FE084179507A607B707B6
:1046200008F051CFF80186839783A087B18751CFD7
:10463000E114F10491F5D8011A964D915D916D91B7
:104640007C911D9753968D919D910D90BC91A02DBD
:10465000481759076A077B0700F10E94B023882397
:1046600009F4B5CF409208015092090160920A0105
:1046700070920B01809165098160809365099701B3
:104680002859364FD601C9018A0D9B1DF9018E1795
:104690009F0759F04D914193FACF41E0C301B20118
:1046A0000E94EB238111EBCF92CF821B930BC80E9C
:1046B000D91E69CF14968C9114975396CD90DD90A6
:1046C000ED90FC905697C416D506E606F70618F549
:1046D000F801438B548B658B768B80688483F8015B
:1046E000848183FD25C0C1010F900F900F900F9022
:1046F000DF91CF911F910F91FF90EF90DF90CF90BE
:10470000BF90AF909F908F907F906F905F904F90F1
:104710003F902F90089520915F0930916009232BDD
:10472000F1F221143104D9F2806814968C93D7CF1A
:10473000C8010E948E1F882309F449CFD4CFCF939C
:10474000DF931F92CDB7DEB7698341E050E0BE0131
:104750006F5F7F4F0E94FF210F90DF91CF910895EF
:10476000809165098823A9F14091080150910901C0
:1047700060910A0170910B0128E639E08091660989
:10478000909167090E942A1C811102C080E008955F
:1047900040916109509162096091630970916409C7
:1047A000411551056105710591F028E639E08091C8
:1047B0006609909167090E942A1C882339F3109298
:1047C00061091092620910926309109264091092B3
:1047D000650981E00895CF92DF92EF92FF92CF9327
:1047E0006B017C01C42F8091080190910901A09177
:1047F0000A01B0910B018C159D05AE05BF05F9F0BE
:104800000E94B023811107C080E0CF91FF90EF900C
:10481000DF90CF90089528E639E0B701A601809196
:104820006609909167090E94EA1B882369F3C09288
:104830000801D0920901E0920A01F0920B01409127
:1048400065094C2B4093650981E0DFCFCF92DF9261
:10485000EF92FF926B017C010E94B0238823A9F0A4
:10486000E8E6F9E011928BE0E836F807D9F7C09254
:104870000801D0920901E0920A01F0920B018091A7
:10488000650981608093650981E0FF90EF90DF907A
:10489000CF9008958F929F92AF92BF92CF92DF9266
:1048A000EF92FF920F931F93CF93DF93FC018185CB
:1048B0009285A385B4850196A11DB11D8417950726
:1048C000A607B70770F480E0DF91CF911F910F9199
:1048D000FF90EF90DF90CF90BF90AF909F908F9020
:1048E000089583889488A588B6888789803189F55A
:1048F000BB27A72F962F852FE9016A017B018F0126
:10490000BC01CD01680D791D8A1D9B1D8090080199
:1049100090900901A0900A01B0900B0186169706AD
:10492000A806B90601F5F8018789803111F5DD2463
:10493000EE24FF24F601EE0FFF1FE859F64F8081A9
:104940009181B0E0A0E088839983AA83BB8381E052
:10495000BBCFDB01CA01C7E0B695A79597958795B0
:10496000CA95D1F7C9CF40E00E94EB238111DBCF7C
:10497000AACFE894C7F8DD24EE24FF24F601EE0F59
:10498000FF1FEE0FFF1FE859F64F80819181A28132
:10499000B381BF70D8CF4F925F926F927F92AF92E8
:1049A000BF92CF92DF92EF92FF920F931F93CF931C
:1049B000DF9300D000D0CDB7DEB78C0149835A8396
:1049C0006B837C835901C12CD12C7601412C82E070
:1049D000582E612C712C49815A816B817C819E01FA
:1049E0002F5F3F4FC8010E944A24882339F1F80104
:1049F0008585A301920104C0220F331F441F551F58
:104A00008A95D2F7DA01C901C80ED91EEA1EFB1E2B
:104A100049815A816B817C818789803111F188EFCE
:104A20009FEFAFEFBFE0481759076A077B0798F27F
:104A3000F501C082D182E282F38281E00F900F9073
:104A40000F900F90DF91CF911F910F91FF90EF90FA
:104A5000DF90CF90BF90AF907F906F905F904F901E
:104A6000089588EF9FEFA0E0B0E0DDCF4F925F9216
:104A70006F927F928F929F92AF92BF92CF92DF926E
:104A8000EF92FF920F931F93CF93DF93EC0142308D
:104A900051056105710590F480E0DF91CF911F9180
:104AA0000F91FF90EF90DF90CF90BF90AF909F90CD
:104AB0008F907F906F905F904F90089589859A8531
:104AC000AB85BC850196A11DB11D84179507A6076E
:104AD000B70710F3CB88DC88ED88FE888F8980319A
:104AE00009F042C0BB27A72F962F852F48015901F7
:104AF0002A013B01C80ED91EEA1EFB1E8091080147
:104B000090910901A0910A01B0910B01C816D90634
:104B1000EA06FB0699F58F898031C1F5B301A20140
:104B2000552766277727440F551F4859564FFA01D6
:104B300091828082809165098160809365098A896C
:104B4000823080F08D819E81AF81B8858C0D9D1D56
:104B5000AE1DBF1D8093610990936209A093630904
:104B6000B093640981E099CFDB01CA01E7E0B69513
:104B7000A79597958795EA95D1F7B8CF40E0C701FB
:104B8000B6010E94EB238111C6CF86CFB301A201EB
:104B90004F77552766277727440F551F440F551F1A
:104BA0004859564FFA0180829182A282B382C2CFC5
:104BB0002F923F924F925F926F927F928F929F922D
:104BC000AF92BF92CF92DF92EF92FF920F931F931B
:104BD000CF93DF93CDB7DEB72F970FB6F894DEBF34
:104BE0000FBECDBF3C01488759876A877B873F83CB
:104BF0002E83D901CD90DD90ED90FC90C114D104AD
:104C0000E104F10439F0BFEFCB1ADB0AEB0AFB0A2F
:104C10001D8210C0FC01C080D180E280F380F1E0F1
:104C2000FD83088519852A853B85013011052105FD
:104C3000310571F7F30181859285A385B4858C01D7
:104C40009D010F5F1F4F2F4F3F4F0C871D872E87F2
:104C50003F8746015701212C312C2101F301818529
:104C60009285A385B485281639064A065B0608F0A6
:104C700044C00C851D852E853F85081519052A051C
:104C80003B0550F482E0882E912CA12CB12C92E0AF
:104C9000C92ED12CE12CF12C9E012F5F3F4FB50185
:104CA000A401C3010E944A24882339F1D501C4011B
:104CB0000196A11DB11D49815A816B817C81452BD3
:104CC000462B472BA9F5AC01BD014C195D096E09B6
:104CD0007F09088519852A853B854017510762079A
:104CE000730741F50FEF1FEF2FEF3FE0B501A40170
:104CF000C3010E943625811125C01D828D812F960A
:104D00000FB6F894DEBF0FBECDBFDF91CF911F91DC
:104D10000F91FF90EF90DF90CF90BF90AF909F905A
:104D20008F907F906F905F904F903F902F9008955D
:104D30006C017D011FEF211A310A410A510A4C0111
:104D40005D018CCFC814D904EA04FB0488F4140173
:104D5000250121E0221A31084108510895018401FA
:104D6000B201A101C3010E94362552014101C3CF06
:104D7000AE81BF814D915D916D917C914115510541
:104D80006105710561F4EE81FF81C082D182E2820A
:104D9000F382FD81F1110BC001E00D83AFCF9701CC
:104DA0008601C3010E9436258111EDCFA6CF1FEFEA
:104DB000C11AD10AE10AF10AD301CD92DD92ED9236
:104DC000FC9213979BCFAF92BF92CF92DF92EF925C
:104DD000FF920F931F93CF93DF9300D000D0CDB7F6
:104DE000DEB75C016A017B0182E090E0A0E0B0E008
:104DF000F50180839183A283B3839E012F5F3F4F90
:104E0000B701A601C5010E944A24882381F100E070
:104E100010E09801B701A601C5010E94362588233C
:104E200031F1C980DA80EB80FC80F501878980311F
:104E3000C9F088EF9FEFAFEFBFE0C816D906EA06CA
:104E4000FB06D8F281E00F900F900F900F90DF914A
:104E5000CF911F910F91FF90EF90DF90CF90BF9077
:104E6000AF90089588EF9FEFA0E0B0E0E6CF80E03C
:104E7000EACF8F929F92AF92BF92CF92DF92EF9242
:104E8000FF920F931F93CF93DF93EC01142F709336
:104E9000670960936609442309F478C0453070F0CF
:104EA00080E0DF91CF911F910F91FF90EF90DF9005
:104EB000CF90BF90AF909F908F90089540E060E0BA
:104EC00070E0CB010E94EB23882351F3812F8150A6
:104ED000990BAC0164E0440F551F6A95E1F74859FE
:104EE000564FFA01E254FE4F80818F77C9F63C9607
:104EF00080819181A281B38184369105A105B1059C
:104F000078F24A535E4FFA01C080D180E280F3808C
:104F1000C114D104E104F10419F240E0C701B60163
:104F20000E94EB23882309F4BBCF809173099091F1
:104F300074098115924009F0B3CF909178099923B3
:104F400009F4AECF2091760930917709232B09F42B
:104F5000A7CF80917509882309F4A2CF9A8B8C83FF
:104F60001D8690E041E050E02D85E22FBA01022E2F
:104F700002C0660F771F0A94E2F78617970751F071
:104F800031E0320F3D87283078F38ACFC12CD12C05
:104F90007601C3CF20917E0930917F0950E040E037
:104FA0002115310541F420918C0930918D094091F2
:104FB0008E0950918F092D833E834F8358878091AE
:104FC00076099091770946015701880E991EA11C18
:104FD000B11C8B8A9C8AAD8ABE8A00917909109196
:104FE0007A09198F088FA0917809B0E00E942938BA
:104FF000DC01CB01880D991DAA1DBB1D8A8F9B8FDB
:10500000AC8FBD8F25E0000F111F2A95E1F70150ED
:105010001E4F012F11270695800F911FA11DB11D55
:105020008E879F87A88BB98B00917B0910917C0993
:1050300030E020E00115110541F40091880910913C
:10504000890920918A0930918B09C81AD90AEA0A7C
:10505000FB0AC00ED11EE21EF31E04C0F694E794B4
:10506000D794C794EA95D2F7C986DA86EB86FC8690
:105070008CE025EFC2162FE0D206E104F10440F0E7
:1050800085EFC8168FEFD806E104F10420F480E123
:105090008F8B81E006CF8091940990919509A09122
:1050A0009609B09197098A8F9B8FAC8FBD8F80E254
:1050B000EFCFCF93CFB7F89480916B0B811127C0BE
:1050C000EAEDF1E08491EAEBF1E09491E82FF0E071
:1050D000EE0FFF1FE65FFD4FA591B491EC91E92320
:1050E00021F461E084E00E94C13561E084E00E9427
:1050F00085358CB580618CBD8CB580648CBD61E0DC
:1051000087E00E94853561E085E00E9485358091C9
:105110006B0B8F5F80936B0BCFBFCF910895CF93B5
:10512000DF93EC016A818A8D9B8D0E94CE128A8D5D
:105130009B8D0E945613282F30E02115310511F068
:1051400084E8898F81E0232B09F080E0DF91CF9103
:105150000895CF92DF92EF92FF920F931F93CF9318
:10516000DF938C01F62EE42EC52E462FDC0112961D
:105170006C9112975A968D919C910E9450138F11A9
:1051800013C0DE2CCE2DDC2D8C2F8D198F15C8F47D
:10519000F801828D938DDC01ED91FC910284F38501
:1051A000E02D09958993F0CF82E8F801818F80E0A6
:1051B000DF91CF911F910F91FF90EF90DF90CF90F3
:1051C000089581E0F5CFDC01ED91FC910190F08133
:1051D000E02D09940F931F93CF93DF93EC018B0184
:1051E0006A818A8D9B8D0E94CE12612F70E08A8D1C
:1051F0009B8D0E94E328B80177278A8D9B8D0E94A2
:10520000E3288A8D9B8D0E945613882341F081E804
:10521000898F80E0DF91CF911F910F91089581E0F8
:10522000F9CFFC018EE492E091838083538F428F0B
:1052300062831482158216821782108E178A168A4C
:10524000158A13821486158616861786108A118A87
:10525000128A138A148A118E0895CF93DC01ED917E
:10526000FC910280F381E02D61110FC062EA70E3CE
:105270000995C82F882331F061E070E080E090E06C
:105280000E94D7348C2FCF91089566E070E0F0CF64
:10529000FC0192819454923020F460E0CF010C9490
:1052A0002D2980E00895FB018FEF21E3442369F06D
:1052B0009191892798E087FF06C0880F8227915037
:1052C000D1F74150F3CF880FFACF0895EF92FF92B4
:1052D0000F931F93CF93DF9300D000D000D0CDB7B2
:1052E000DEB78C01E62EDC01ED91FC910480F581A6
:1052F000E02DAE014F5F5F4F66E00995F82E8823E1
:1053000081F0E1102BC0EB8042E0BE016F5F7F4F68
:10531000C8010E945329E81691F085E8F801818FB1
:10532000F12C8F2D26960FB6F894DEBF0FBECDBFA1
:10533000DF91CF911F910F91FF90EF900895EE8034
:1053400042E0BE016C5F7F4FC8010E945329E816FE
:1053500029F086E8D80159968C93E2CF898190E0B4
:10536000982F88272A81820F911DF801908F878BB3
:105370008C8190E0982F88272D81820F911D968B2C
:10538000858B0E94A634D80114966D937D938D93DE
:105390009C931797C6CF1F93CF93DF93EC01162FE3
:1053A000E881F9810280F381E02D60E074E211234D
:1053B00011F066E174E2CE010995882399F06FE05F
:1053C00070E080E090E0112321F064E070E080E084
:1053D00090E00E94D734612FCE01DF91CF911F91D1
:1053E0000C94662980E0DF91CF911F910895FC0114
:1053F000608352AF41AF88E0818389E19CEFAFEFDA
:10540000BFEF82839383A483B58386839783A0872A
:10541000B187938B828B10AA11AA12AA13AA14AA7D
:1054200015AA16AA17AA128613861486158616863A
:105430001786108A118A81E080AF0895CF93DF9399
:10544000EC01688189AD9AAD0E94CE1289AD9AAD0A
:105450000E94561391E0811190E0892FDF91CF9146
:1054600008958F929F92AF92BF92CF92DF92EF9268
:10547000FF92FC0186849784A088B1886281738141
:10548000848195810E94C2362AE037ED43E25CE3D5
:105490000E9472376B017C0120E030E0A901C50158
:1054A000B4010E948536882341F0A5019401C7010B
:1054B000B6010E9419366B017C01C701B601FF904D
:1054C000EF90DF90CF90BF90AF909F908F90089516
:1054D0008F929F92AF92BF92CF92DF92EF92FF9204
:1054E000FC0182849384A484B5846681778180855D
:1054F00091850E94C2362AE037ED43E25CE30E94C8
:1055000072376B017C0120E030E0A901C501B401D4
:105510000E948536882341F0A5019401C701B60198
:105520000E9419366B017C01C701B601FF90EF9014
:10553000DF90CF90BF90AF909F908F9008951F9372
:10554000CF93DF93EC01162F0E944B34688189AD15
:105550009AAD0E94CE1289AD9AADDC01ED91FC911D
:105560000190F081E02D612F099589AD9AAD0E94DF
:10557000561390E09B8B8A8BDF91CF911F910895FA
:105580008F929F92AF92BF92CF92DF92EF92FF9253
:105590001F93CF93DF93CDB7DEB72A970FB6F8945A
:1055A000DEBF0FBECDBF9C019AE0ECE0F1E0DE0172
:1055B000119601900D929A95E1F74D3070F14CE003
:1055C00018EF140F912F990F690FC9010E949F2A9C
:1055D000412F50E0440F551F81E090E08C0F9D1F3C
:1055E000480F591FFA01C080D1800E94B2344B018C
:1055F0005C01F12CE12C0E94B234681979098A0906
:105600009B096C157D058E059F0558F40E944B344F
:105610008AE090E00E941035EECF483088F648E0EE
:10562000CFCF2A960FB6F894DEBF0FBECDBFDF9165
:10563000CF911F91FF90EF90DF90CF90BF90AF90F0
:105640009F908F9008950F931F93CF93DF936830AF
:1056500038F090E080E0DF91CF911F910F91089595
:10566000EC01660F60560E949F2A8A899B89892BCC
:1056700081F742E0688189AD9AAD0E945013823073
:1056800040F389AD9AADDC01ED91FC910284F38584
:10569000E02D099500E0182F89AD9AADDC01ED9160
:1056A000FC910284F385E02D0995800F911FD3CFE3
:1056B0008F929F92AF92BF92CF92DF92EF92FF9222
:1056C000CF93DF93EC0160E00E949F2A8A899B8937
:1056D000892B71F060E070E0CB01DF91CF91FF90FA
:1056E000EF90DF90CF90BF90AF909F908F900895F4
:1056F00043E0688189AD9AAD0E945013833050F326
:1057000089AD9AADDC01ED91FC910284F385E02D29
:105710000995092E000CAA0BBB0B5C019924882467
:1057200089AD9AADDC01ED91FC910284F385E02D09
:1057300009956C01990FEE08FF08FE2CED2CDC2C6E
:10574000CC24C80CD91CEA1CFB1C89AD9AADDC0129
:10575000ED91FC910284F385E02D0995BC01990F30
:10576000880B990B6C0D7D1D8E1D9F1DB6CF4F9222
:105770005F926F927F928F929F92AF92BF92CF92E1
:10578000DF92EF92FF920F931F93CF93DF93CDB7EA
:10579000DEB766970FB6F894DEBF0FBECDBF9E8B07
:1057A0008D8BF62E462F60E40E94C02AED89FE897B
:1057B000028913890115110509F043C1CF010E9427
:1057C000582B6D877E878F87988BED89FE8902899C
:1057D00013890115110509F034C14F2D60E5CF0182
:1057E0000E94C02AED89FE890289138901151105DD
:1057F00009F027C1CF010E94582BED89FE8902894B
:1058000013890115110509F01CC10E94C036ED89EC
:10581000FE8920A531A542A553A50E9418366B012B
:105820007C01ED89FE8924A535A546A557A50E94D2
:10583000723720E030E04AEF54E40E9419360E94AB
:105840008A364B015C01ED89FE8982829382A482B3
:10585000B58224A135A146A157A1C701B6010E9476
:105860007237ED89FE89248D358D468D578D0E94C6
:1058700019362B013C01ED89FE8920A131A142A1FD
:1058800053A1C701B6010E947237ED89FE89208DB0
:10589000318D428D538D0E94193669837A838B83B3
:1058A0009C83ED89FE8980AD882309F49EC0F0EDCC
:1058B0008F16F7E09F06A104B1040CF096C0A70173
:1058C0009601C701B6010E94723720E030E040E047
:1058D00050E30E947237698B7A8B8B8B9C8BC5014E
:1058E000B401605D7740810991099B01AC010E9480
:1058F000DF370E94C2366B017C0120E030E040E2DD
:1059000050E40E9472376D837E838F83988720E0F6
:1059100030E040EA5FE3C701B6010E9472376B01D5
:105920007C0184E288168AEF98068FEFA806B806F5
:10593000A4F5C501B40164527A4F8F4F9F4F9B016C
:10594000AC010E94DF370E94C23669877A878B8755
:105950009C8720E030E040EE50E40E9472379B01CB
:10596000AC016D817E818F8198850E9419366D838F
:105970007E838F83988720E030E040EB50E4698598
:105980007A858B859C850E9472379B01AC01C7018B
:10599000B6010E9419366B017C01C501B4010E9459
:1059A000C23629893A894B895C890E9418360E943F
:1059B0008A36ED89FE8962837383848395832D8182
:1059C0003E814F815885C301B2010E9418362B01D8
:1059D0003C01A701960169817A818B819C810E949B
:1059E000183669837A838B839C836D857E858F854A
:1059F00098890E94C03629813A814B815C810E943E
:105A0000723720E030E040E055E30E947237A30196
:105A100092010E94183620E030E040E058E30E94F6
:105A200072370E948A36ED89FE8966837783808784
:105A300091870E94A634ED89FE8960AB71AB82AB81
:105A400093ABC80166960FB6F894DEBF0FBECDBF0C
:105A5000DF91CF911F910F91FF90EF90DF90CF904A
:105A6000BF90AF909F908F907F906F905F904F907E
:105A70000895CF92DF92EF92FF92FC01262F80E0F3
:105A800090E0A0E8BFE3848B958BA68BB78B80E07A
:105A900090E0A0E0B7E4808F918FA28FB38F40E0B9
:105AA00050E060E877E4448F558F668F778F80E011
:105AB00090E0A0E8BBE380A391A3A2A3B3A380E0FE
:105AC00090E0A0E0BCE384A395A3A6A3B7A3C12C58
:105AD000D12C30E8E32E33E4F32EC0A6D1A6E2A603
